{
	"SLStaking.sol": {
		"SLStakingPool": {
			"abi": [
				{
					"inputs": [
						{
							"internalType": "address",
							"name": "_tokenAddress",
							"type": "address"
						},
						{
							"internalType": "uint256",
							"name": "_minStakeAmount",
							"type": "uint256"
						},
						{
							"internalType": "uint256",
							"name": "_lockupPeriod",
							"type": "uint256"
						}
					],
					"stateMutability": "nonpayable",
					"type": "constructor"
				},
				{
					"anonymous": false,
					"inputs": [
						{
							"indexed": true,
							"internalType": "address",
							"name": "previousOwner",
							"type": "address"
						},
						{
							"indexed": true,
							"internalType": "address",
							"name": "newOwner",
							"type": "address"
						}
					],
					"name": "OwnershipTransferred",
					"type": "event"
				},
				{
					"anonymous": false,
					"inputs": [
						{
							"indexed": true,
							"internalType": "address",
							"name": "user",
							"type": "address"
						},
						{
							"indexed": false,
							"internalType": "uint256",
							"name": "amount",
							"type": "uint256"
						}
					],
					"name": "Stake",
					"type": "event"
				},
				{
					"anonymous": false,
					"inputs": [
						{
							"indexed": true,
							"internalType": "address",
							"name": "user",
							"type": "address"
						},
						{
							"indexed": false,
							"internalType": "uint256",
							"name": "amount",
							"type": "uint256"
						}
					],
					"name": "UnStake",
					"type": "event"
				},
				{
					"inputs": [
						{
							"internalType": "address",
							"name": "",
							"type": "address"
						}
					],
					"name": "balances",
					"outputs": [
						{
							"internalType": "uint256",
							"name": "",
							"type": "uint256"
						}
					],
					"stateMutability": "view",
					"type": "function"
				},
				{
					"inputs": [],
					"name": "lockupPeriod",
					"outputs": [
						{
							"internalType": "uint256",
							"name": "",
							"type": "uint256"
						}
					],
					"stateMutability": "view",
					"type": "function"
				},
				{
					"inputs": [],
					"name": "minStakeAmount",
					"outputs": [
						{
							"internalType": "uint256",
							"name": "",
							"type": "uint256"
						}
					],
					"stateMutability": "view",
					"type": "function"
				},
				{
					"inputs": [],
					"name": "owner",
					"outputs": [
						{
							"internalType": "address",
							"name": "",
							"type": "address"
						}
					],
					"stateMutability": "view",
					"type": "function"
				},
				{
					"inputs": [],
					"name": "renounceOwnership",
					"outputs": [],
					"stateMutability": "nonpayable",
					"type": "function"
				},
				{
					"inputs": [
						{
							"internalType": "uint256",
							"name": "_amount",
							"type": "uint256"
						}
					],
					"name": "setMinStakeAmount",
					"outputs": [],
					"stateMutability": "nonpayable",
					"type": "function"
				},
				{
					"inputs": [
						{
							"internalType": "uint256",
							"name": "_amount",
							"type": "uint256"
						}
					],
					"name": "stake",
					"outputs": [],
					"stateMutability": "nonpayable",
					"type": "function"
				},
				{
					"inputs": [
						{
							"internalType": "address",
							"name": "",
							"type": "address"
						}
					],
					"name": "stakingTime",
					"outputs": [
						{
							"internalType": "uint256",
							"name": "",
							"type": "uint256"
						}
					],
					"stateMutability": "view",
					"type": "function"
				},
				{
					"inputs": [],
					"name": "token",
					"outputs": [
						{
							"internalType": "contract IERC20",
							"name": "",
							"type": "address"
						}
					],
					"stateMutability": "view",
					"type": "function"
				},
				{
					"inputs": [],
					"name": "totalStakeAmount",
					"outputs": [
						{
							"internalType": "uint256",
							"name": "",
							"type": "uint256"
						}
					],
					"stateMutability": "view",
					"type": "function"
				},
				{
					"inputs": [],
					"name": "totalStaked",
					"outputs": [
						{
							"internalType": "uint256",
							"name": "",
							"type": "uint256"
						}
					],
					"stateMutability": "view",
					"type": "function"
				},
				{
					"inputs": [
						{
							"internalType": "address",
							"name": "newOwner",
							"type": "address"
						}
					],
					"name": "transferOwnership",
					"outputs": [],
					"stateMutability": "nonpayable",
					"type": "function"
				},
				{
					"inputs": [
						{
							"internalType": "uint256",
							"name": "_amount",
							"type": "uint256"
						}
					],
					"name": "unStake",
					"outputs": [],
					"stateMutability": "nonpayable",
					"type": "function"
				}
			],
			"devdoc": {
				"kind": "dev",
				"methods": {
					"owner()": {
						"details": "Returns the address of the current owner."
					},
					"renounceOwnership()": {
						"details": "Leaves the contract without owner. It will not be possible to call `onlyOwner` functions anymore. Can only be called by the current owner. NOTE: Renouncing ownership will leave the contract without an owner, thereby removing any functionality that is only available to the owner."
					},
					"transferOwnership(address)": {
						"details": "Transfers ownership of the contract to a new account (`newOwner`). Can only be called by the current owner."
					}
				},
				"version": 1
			},
			"evm": {
				"assembly": "    /* \"SLStaking.sol\":290:2248  contract SLStakingPool is Ownable, ReentrancyGuard {... */\n  mstore(0x40, 0x80)\n    /* \"SLStaking.sol\":818:1013  constructor(address _tokenAddress, uint256 _minStakeAmount, uint256 _lockupPeriod) {... */\n  callvalue\n  dup1\n  iszero\n  tag_1\n  jumpi\n  0x00\n  dup1\n  revert\ntag_1:\n  pop\n  mload(0x40)\n  sub(codesize, bytecodeSize)\n  dup1\n  bytecodeSize\n  dup4\n  codecopy\n  dup2\n  dup2\n  add\n  0x40\n  mstore\n  dup2\n  add\n  swap1\n  tag_2\n  swap2\n  swap1\n  tag_3\n  jump\t// in\ntag_2:\n    /* \"@openzeppelin/contracts/access/Ownable.sol\":936:968  _transferOwnership(_msgSender()) */\n  tag_8\n    /* \"@openzeppelin/contracts/access/Ownable.sol\":955:967  _msgSender() */\n  tag_9\n    /* \"@openzeppelin/contracts/access/Ownable.sol\":955:965  _msgSender */\n  shl(0x20, tag_10)\n    /* \"@openzeppelin/contracts/access/Ownable.sol\":955:967  _msgSender() */\n  0x20\n  shr\n  jump\t// in\ntag_9:\n    /* \"@openzeppelin/contracts/access/Ownable.sol\":936:954  _transferOwnership */\n  shl(0x20, tag_11)\n    /* \"@openzeppelin/contracts/access/Ownable.sol\":936:968  _transferOwnership(_msgSender()) */\n  0x20\n  shr\n  jump\t// in\ntag_8:\n    /* \"@openzeppelin/contracts/security/ReentrancyGuard.sol\":1716:1717  1 */\n  0x01\n    /* \"@openzeppelin/contracts/security/ReentrancyGuard.sol\":1821:1828  _status */\n  dup1\n    /* \"@openzeppelin/contracts/security/ReentrancyGuard.sol\":1821:1843  _status = _NOT_ENTERED */\n  dup2\n  swap1\n  sstore\n  pop\n    /* \"SLStaking.sol\":922:935  _tokenAddress */\n  dup3\n    /* \"SLStaking.sol\":907:912  token */\n  0x02\n  0x00\n    /* \"SLStaking.sol\":907:936  token = IERC20(_tokenAddress) */\n  0x0100\n  exp\n  dup2\n  sload\n  dup2\n  0xffffffffffffffffffffffffffffffffffffffff\n  mul\n  not\n  and\n  swap1\n  dup4\n  0xffffffffffffffffffffffffffffffffffffffff\n  and\n  mul\n  or\n  swap1\n  sstore\n  pop\n    /* \"SLStaking.sol\":959:974  _minStakeAmount */\n  dup2\n    /* \"SLStaking.sol\":942:956  minStakeAmount */\n  0x06\n    /* \"SLStaking.sol\":942:974  minStakeAmount = _minStakeAmount */\n  dup2\n  swap1\n  sstore\n  pop\n    /* \"SLStaking.sol\":995:1008  _lockupPeriod */\n  dup1\n    /* \"SLStaking.sol\":980:992  lockupPeriod */\n  0x04\n    /* \"SLStaking.sol\":980:1008  lockupPeriod = _lockupPeriod */\n  dup2\n  swap1\n  sstore\n  pop\n    /* \"SLStaking.sol\":818:1013  constructor(address _tokenAddress, uint256 _minStakeAmount, uint256 _lockupPeriod) {... */\n  pop\n  pop\n  pop\n    /* \"SLStaking.sol\":290:2248  contract SLStakingPool is Ownable, ReentrancyGuard {... */\n  jump(tag_14)\n    /* \"@openzeppelin/contracts/utils/Context.sol\":640:736  function _msgSender() internal view virtual returns (address) {... */\ntag_10:\n    /* \"@openzeppelin/contracts/utils/Context.sol\":693:700  address */\n  0x00\n    /* \"@openzeppelin/contracts/utils/Context.sol\":719:729  msg.sender */\n  caller\n    /* \"@openzeppelin/contracts/utils/Context.sol\":712:729  return msg.sender */\n  swap1\n  pop\n    /* \"@openzeppelin/contracts/utils/Context.sol\":640:736  function _msgSender() internal view virtual returns (address) {... */\n  swap1\n  jump\t// out\n    /* \"@openzeppelin/contracts/access/Ownable.sol\":2433:2620  function _transferOwnership(address newOwner) internal virtual {... */\ntag_11:\n    /* \"@openzeppelin/contracts/access/Ownable.sol\":2506:2522  address oldOwner */\n  0x00\n    /* \"@openzeppelin/contracts/access/Ownable.sol\":2525:2531  _owner */\n  dup1\n  0x00\n  swap1\n  sload\n  swap1\n  0x0100\n  exp\n  swap1\n  div\n  0xffffffffffffffffffffffffffffffffffffffff\n  and\n    /* \"@openzeppelin/contracts/access/Ownable.sol\":2506:2531  address oldOwner = _owner */\n  swap1\n  pop\n    /* \"@openzeppelin/contracts/access/Ownable.sol\":2550:2558  newOwner */\n  dup2\n    /* \"@openzeppelin/contracts/access/Ownable.sol\":2541:2547  _owner */\n  0x00\n  dup1\n    /* \"@openzeppelin/contracts/access/Ownable.sol\":2541:2558  _owner = newOwner */\n  0x0100\n  exp\n  dup2\n  sload\n  dup2\n  0xffffffffffffffffffffffffffffffffffffffff\n  mul\n  not\n  and\n  swap1\n  dup4\n  0xffffffffffffffffffffffffffffffffffffffff\n  and\n  mul\n  or\n  swap1\n  sstore\n  pop\n    /* \"@openzeppelin/contracts/access/Ownable.sol\":2604:2612  newOwner */\n  dup2\n    /* \"@openzeppelin/contracts/access/Ownable.sol\":2573:2613  OwnershipTransferred(oldOwner, newOwner) */\n  0xffffffffffffffffffffffffffffffffffffffff\n  and\n    /* \"@openzeppelin/contracts/access/Ownable.sol\":2594:2602  oldOwner */\n  dup2\n    /* \"@openzeppelin/contracts/access/Ownable.sol\":2573:2613  OwnershipTransferred(oldOwner, newOwner) */\n  0xffffffffffffffffffffffffffffffffffffffff\n  and\n  0x8be0079c531659141344cd1fd0a4f28419497f9722a3daafe3b4186f6b6457e0\n  mload(0x40)\n  mload(0x40)\n  dup1\n  swap2\n  sub\n  swap1\n  log3\n    /* \"@openzeppelin/contracts/access/Ownable.sol\":2433:2620  function _transferOwnership(address newOwner) internal virtual {... */\n  pop\n  pop\n  jump\t// out\n    /* \"#utility.yul\":7:150   */\ntag_18:\n  0x00\n    /* \"#utility.yul\":95:101   */\n  dup2\n    /* \"#utility.yul\":89:102   */\n  mload\n    /* \"#utility.yul\":80:102   */\n  swap1\n  pop\n    /* \"#utility.yul\":111:144   */\n  tag_20\n    /* \"#utility.yul\":138:143   */\n  dup2\n    /* \"#utility.yul\":111:144   */\n  tag_21\n  jump\t// in\ntag_20:\n    /* \"#utility.yul\":70:150   */\n  swap3\n  swap2\n  pop\n  pop\n  jump\t// out\n    /* \"#utility.yul\":156:299   */\ntag_22:\n  0x00\n    /* \"#utility.yul\":244:250   */\n  dup2\n    /* \"#utility.yul\":238:251   */\n  mload\n    /* \"#utility.yul\":229:251   */\n  swap1\n  pop\n    /* \"#utility.yul\":260:293   */\n  tag_24\n    /* \"#utility.yul\":287:292   */\n  dup2\n    /* \"#utility.yul\":260:293   */\n  tag_25\n  jump\t// in\ntag_24:\n    /* \"#utility.yul\":219:299   */\n  swap3\n  swap2\n  pop\n  pop\n  jump\t// out\n    /* \"#utility.yul\":305:901   */\ntag_3:\n  0x00\n  dup1\n  0x00\n    /* \"#utility.yul\":458:460   */\n  0x60\n    /* \"#utility.yul\":446:455   */\n  dup5\n    /* \"#utility.yul\":437:444   */\n  dup7\n    /* \"#utility.yul\":433:456   */\n  sub\n    /* \"#utility.yul\":429:461   */\n  slt\n    /* \"#utility.yul\":426:428   */\n  iszero\n  tag_27\n  jumpi\n    /* \"#utility.yul\":474:475   */\n  0x00\n    /* \"#utility.yul\":471:472   */\n  dup1\n    /* \"#utility.yul\":464:476   */\n  revert\n    /* \"#utility.yul\":426:428   */\ntag_27:\n    /* \"#utility.yul\":517:518   */\n  0x00\n    /* \"#utility.yul\":542:606   */\n  tag_28\n    /* \"#utility.yul\":598:605   */\n  dup7\n    /* \"#utility.yul\":589:595   */\n  dup3\n    /* \"#utility.yul\":578:587   */\n  dup8\n    /* \"#utility.yul\":574:596   */\n  add\n    /* \"#utility.yul\":542:606   */\n  tag_18\n  jump\t// in\ntag_28:\n    /* \"#utility.yul\":532:606   */\n  swap4\n  pop\n    /* \"#utility.yul\":488:616   */\n  pop\n    /* \"#utility.yul\":655:657   */\n  0x20\n    /* \"#utility.yul\":681:745   */\n  tag_29\n    /* \"#utility.yul\":737:744   */\n  dup7\n    /* \"#utility.yul\":728:734   */\n  dup3\n    /* \"#utility.yul\":717:726   */\n  dup8\n    /* \"#utility.yul\":713:735   */\n  add\n    /* \"#utility.yul\":681:745   */\n  tag_22\n  jump\t// in\ntag_29:\n    /* \"#utility.yul\":671:745   */\n  swap3\n  pop\n    /* \"#utility.yul\":626:755   */\n  pop\n    /* \"#utility.yul\":794:796   */\n  0x40\n    /* \"#utility.yul\":820:884   */\n  tag_30\n    /* \"#utility.yul\":876:883   */\n  dup7\n    /* \"#utility.yul\":867:873   */\n  dup3\n    /* \"#utility.yul\":856:865   */\n  dup8\n    /* \"#utility.yul\":852:874   */\n  add\n    /* \"#utility.yul\":820:884   */\n  tag_22\n  jump\t// in\ntag_30:\n    /* \"#utility.yul\":810:884   */\n  swap2\n  pop\n    /* \"#utility.yul\":765:894   */\n  pop\n    /* \"#utility.yul\":416:901   */\n  swap3\n  pop\n  swap3\n  pop\n  swap3\n  jump\t// out\n    /* \"#utility.yul\":907:1003   */\ntag_31:\n  0x00\n    /* \"#utility.yul\":973:997   */\n  tag_33\n    /* \"#utility.yul\":991:996   */\n  dup3\n    /* \"#utility.yul\":973:997   */\n  tag_34\n  jump\t// in\ntag_33:\n    /* \"#utility.yul\":962:997   */\n  swap1\n  pop\n    /* \"#utility.yul\":952:1003   */\n  swap2\n  swap1\n  pop\n  jump\t// out\n    /* \"#utility.yul\":1009:1135   */\ntag_34:\n  0x00\n    /* \"#utility.yul\":1086:1128   */\n  0xffffffffffffffffffffffffffffffffffffffff\n    /* \"#utility.yul\":1079:1084   */\n  dup3\n    /* \"#utility.yul\":1075:1129   */\n  and\n    /* \"#utility.yul\":1064:1129   */\n  swap1\n  pop\n    /* \"#utility.yul\":1054:1135   */\n  swap2\n  swap1\n  pop\n  jump\t// out\n    /* \"#utility.yul\":1141:1218   */\ntag_36:\n  0x00\n    /* \"#utility.yul\":1207:1212   */\n  dup2\n    /* \"#utility.yul\":1196:1212   */\n  swap1\n  pop\n    /* \"#utility.yul\":1186:1218   */\n  swap2\n  swap1\n  pop\n  jump\t// out\n    /* \"#utility.yul\":1224:1346   */\ntag_21:\n    /* \"#utility.yul\":1297:1321   */\n  tag_39\n    /* \"#utility.yul\":1315:1320   */\n  dup2\n    /* \"#utility.yul\":1297:1321   */\n  tag_31\n  jump\t// in\ntag_39:\n    /* \"#utility.yul\":1290:1295   */\n  dup2\n    /* \"#utility.yul\":1287:1322   */\n  eq\n    /* \"#utility.yul\":1277:1279   */\n  tag_40\n  jumpi\n    /* \"#utility.yul\":1336:1337   */\n  0x00\n    /* \"#utility.yul\":1333:1334   */\n  dup1\n    /* \"#utility.yul\":1326:1338   */\n  revert\n    /* \"#utility.yul\":1277:1279   */\ntag_40:\n    /* \"#utility.yul\":1267:1346   */\n  pop\n  jump\t// out\n    /* \"#utility.yul\":1352:1474   */\ntag_25:\n    /* \"#utility.yul\":1425:1449   */\n  tag_42\n    /* \"#utility.yul\":1443:1448   */\n  dup2\n    /* \"#utility.yul\":1425:1449   */\n  tag_36\n  jump\t// in\ntag_42:\n    /* \"#utility.yul\":1418:1423   */\n  dup2\n    /* \"#utility.yul\":1415:1450   */\n  eq\n    /* \"#utility.yul\":1405:1407   */\n  tag_43\n  jumpi\n    /* \"#utility.yul\":1464:1465   */\n  0x00\n    /* \"#utility.yul\":1461:1462   */\n  dup1\n    /* \"#utility.yul\":1454:1466   */\n  revert\n    /* \"#utility.yul\":1405:1407   */\ntag_43:\n    /* \"#utility.yul\":1395:1474   */\n  pop\n  jump\t// out\n    /* \"SLStaking.sol\":290:2248  contract SLStakingPool is Ownable, ReentrancyGuard {... */\ntag_14:\n  dataSize(sub_0)\n  dup1\n  dataOffset(sub_0)\n  0x00\n  codecopy\n  0x00\n  return\nstop\n\nsub_0: assembly {\n        /* \"SLStaking.sol\":290:2248  contract SLStakingPool is Ownable, ReentrancyGuard {... */\n      mstore(0x40, 0x80)\n      callvalue\n      dup1\n      iszero\n      tag_1\n      jumpi\n      0x00\n      dup1\n      revert\n    tag_1:\n      pop\n      jumpi(tag_2, lt(calldatasize, 0x04))\n      shr(0xe0, calldataload(0x00))\n      dup1\n      0x94409a56\n      gt\n      tag_16\n      jumpi\n      dup1\n      0xee947a7c\n      gt\n      tag_17\n      jumpi\n      dup1\n      0xee947a7c\n      eq\n      tag_12\n      jumpi\n      dup1\n      0xf1887684\n      eq\n      tag_13\n      jumpi\n      dup1\n      0xf2fde38b\n      eq\n      tag_14\n      jumpi\n      dup1\n      0xfc0c546a\n      eq\n      tag_15\n      jumpi\n      jump(tag_2)\n    tag_17:\n      dup1\n      0x94409a56\n      eq\n      tag_9\n      jumpi\n      dup1\n      0xa694fc3a\n      eq\n      tag_10\n      jumpi\n      dup1\n      0xeb4af045\n      eq\n      tag_11\n      jumpi\n      jump(tag_2)\n    tag_16:\n      dup1\n      0x27e235e3\n      eq\n      tag_3\n      jumpi\n      dup1\n      0x583d42fd\n      eq\n      tag_4\n      jumpi\n      dup1\n      0x5d3eea91\n      eq\n      tag_5\n      jumpi\n      dup1\n      0x715018a6\n      eq\n      tag_6\n      jumpi\n      dup1\n      0x817b1cd2\n      eq\n      tag_7\n      jumpi\n      dup1\n      0x8da5cb5b\n      eq\n      tag_8\n      jumpi\n    tag_2:\n      0x00\n      dup1\n      revert\n        /* \"SLStaking.sol\":661:704  mapping(address => uint256) public balances */\n    tag_3:\n      tag_18\n      0x04\n      dup1\n      calldatasize\n      sub\n      dup2\n      add\n      swap1\n      tag_19\n      swap2\n      swap1\n      tag_20\n      jump\t// in\n    tag_19:\n      tag_21\n      jump\t// in\n    tag_18:\n      mload(0x40)\n      tag_22\n      swap2\n      swap1\n      tag_23\n      jump\t// in\n    tag_22:\n      mload(0x40)\n      dup1\n      swap2\n      sub\n      swap1\n      return\n        /* \"SLStaking.sol\":501:547  mapping(address => uint256) public stakingTime */\n    tag_4:\n      tag_24\n      0x04\n      dup1\n      calldatasize\n      sub\n      dup2\n      add\n      swap1\n      tag_25\n      swap2\n      swap1\n      tag_20\n      jump\t// in\n    tag_25:\n      tag_26\n      jump\t// in\n    tag_24:\n      mload(0x40)\n      tag_27\n      swap2\n      swap1\n      tag_23\n      jump\t// in\n    tag_27:\n      mload(0x40)\n      dup1\n      swap2\n      sub\n      swap1\n      return\n        /* \"SLStaking.sol\":1495:1891  function unStake(uint256 _amount) external nonReentrant {... */\n    tag_5:\n      tag_28\n      0x04\n      dup1\n      calldatasize\n      sub\n      dup2\n      add\n      swap1\n      tag_29\n      swap2\n      swap1\n      tag_30\n      jump\t// in\n    tag_29:\n      tag_31\n      jump\t// in\n    tag_28:\n      stop\n        /* \"@openzeppelin/contracts/access/Ownable.sol\":1831:1932  function renounceOwnership() public virtual onlyOwner {... */\n    tag_6:\n      tag_32\n      tag_33\n      jump\t// in\n    tag_32:\n      stop\n        /* \"SLStaking.sol\":2141:2246  function totalStaked() external view returns (uint256) {... */\n    tag_7:\n      tag_34\n      tag_35\n      jump\t// in\n    tag_34:\n      mload(0x40)\n      tag_36\n      swap2\n      swap1\n      tag_23\n      jump\t// in\n    tag_36:\n      mload(0x40)\n      dup1\n      swap2\n      sub\n      swap1\n      return\n        /* \"@openzeppelin/contracts/access/Ownable.sol\":1201:1286  function owner() public view virtual returns (address) {... */\n    tag_8:\n      tag_37\n      tag_38\n      jump\t// in\n    tag_37:\n      mload(0x40)\n      tag_39\n      swap2\n      swap1\n      tag_40\n      jump\t// in\n    tag_39:\n      mload(0x40)\n      dup1\n      swap2\n      sub\n      swap1\n      return\n        /* \"SLStaking.sol\":400:431  uint256 public totalStakeAmount */\n    tag_9:\n      tag_41\n      tag_42\n      jump\t// in\n    tag_41:\n      mload(0x40)\n      tag_43\n      swap2\n      swap1\n      tag_23\n      jump\t// in\n    tag_43:\n      mload(0x40)\n      dup1\n      swap2\n      sub\n      swap1\n      return\n        /* \"SLStaking.sol\":1017:1491  function stake(uint256 _amount) external nonReentrant {... */\n    tag_10:\n      tag_44\n      0x04\n      dup1\n      calldatasize\n      sub\n      dup2\n      add\n      swap1\n      tag_45\n      swap2\n      swap1\n      tag_30\n      jump\t// in\n    tag_45:\n      tag_46\n      jump\t// in\n    tag_44:\n      stop\n        /* \"SLStaking.sol\":1928:2091  function setMinStakeAmount(uint256 _amount) external onlyOwner {... */\n    tag_11:\n      tag_47\n      0x04\n      dup1\n      calldatasize\n      sub\n      dup2\n      add\n      swap1\n      tag_48\n      swap2\n      swap1\n      tag_30\n      jump\t// in\n    tag_48:\n      tag_49\n      jump\t// in\n    tag_47:\n      stop\n        /* \"SLStaking.sol\":435:462  uint256 public lockupPeriod */\n    tag_12:\n      tag_50\n      tag_51\n      jump\t// in\n    tag_50:\n      mload(0x40)\n      tag_52\n      swap2\n      swap1\n      tag_23\n      jump\t// in\n    tag_52:\n      mload(0x40)\n      dup1\n      swap2\n      sub\n      swap1\n      return\n        /* \"SLStaking.sol\":583:612  uint256 public minStakeAmount */\n    tag_13:\n      tag_53\n      tag_54\n      jump\t// in\n    tag_53:\n      mload(0x40)\n      tag_55\n      swap2\n      swap1\n      tag_23\n      jump\t// in\n    tag_55:\n      mload(0x40)\n      dup1\n      swap2\n      sub\n      swap1\n      return\n        /* \"@openzeppelin/contracts/access/Ownable.sol\":2081:2279  function transferOwnership(address newOwner) public virtual onlyOwner {... */\n    tag_14:\n      tag_56\n      0x04\n      dup1\n      calldatasize\n      sub\n      dup2\n      add\n      swap1\n      tag_57\n      swap2\n      swap1\n      tag_20\n      jump\t// in\n    tag_57:\n      tag_58\n      jump\t// in\n    tag_56:\n      stop\n        /* \"SLStaking.sol\":376:395  IERC20 public token */\n    tag_15:\n      tag_59\n      tag_60\n      jump\t// in\n    tag_59:\n      mload(0x40)\n      tag_61\n      swap2\n      swap1\n      tag_62\n      jump\t// in\n    tag_61:\n      mload(0x40)\n      dup1\n      swap2\n      sub\n      swap1\n      return\n        /* \"SLStaking.sol\":661:704  mapping(address => uint256) public balances */\n    tag_21:\n      mstore(0x20, 0x07)\n      dup1\n      0x00\n      mstore\n      keccak256(0x00, 0x40)\n      0x00\n      swap2\n      pop\n      swap1\n      pop\n      sload\n      dup2\n      jump\t// out\n        /* \"SLStaking.sol\":501:547  mapping(address => uint256) public stakingTime */\n    tag_26:\n      mstore(0x20, 0x05)\n      dup1\n      0x00\n      mstore\n      keccak256(0x00, 0x40)\n      0x00\n      swap2\n      pop\n      swap1\n      pop\n      sload\n      dup2\n      jump\t// out\n        /* \"SLStaking.sol\":1495:1891  function unStake(uint256 _amount) external nonReentrant {... */\n    tag_31:\n        /* \"@openzeppelin/contracts/security/ReentrancyGuard.sol\":2261:2282  _nonReentrantBefore() */\n      tag_64\n        /* \"@openzeppelin/contracts/security/ReentrancyGuard.sol\":2261:2280  _nonReentrantBefore */\n      tag_65\n        /* \"@openzeppelin/contracts/security/ReentrancyGuard.sol\":2261:2282  _nonReentrantBefore() */\n      jump\t// in\n    tag_64:\n        /* \"SLStaking.sol\":1585:1626  stakingTime[msg.sender].add(lockupPeriod) */\n      tag_67\n        /* \"SLStaking.sol\":1613:1625  lockupPeriod */\n      sload(0x04)\n        /* \"SLStaking.sol\":1585:1596  stakingTime */\n      0x05\n        /* \"SLStaking.sol\":1585:1608  stakingTime[msg.sender] */\n      0x00\n        /* \"SLStaking.sol\":1597:1607  msg.sender */\n      caller\n        /* \"SLStaking.sol\":1585:1608  stakingTime[msg.sender] */\n      0xffffffffffffffffffffffffffffffffffffffff\n      and\n      0xffffffffffffffffffffffffffffffffffffffff\n      and\n      dup2\n      mstore\n      0x20\n      add\n      swap1\n      dup2\n      mstore\n      0x20\n      add\n      0x00\n      keccak256\n      sload\n        /* \"SLStaking.sol\":1585:1612  stakingTime[msg.sender].add */\n      tag_68\n      swap1\n        /* \"SLStaking.sol\":1585:1626  stakingTime[msg.sender].add(lockupPeriod) */\n      swap2\n      swap1\n      0xffffffff\n      and\n      jump\t// in\n    tag_67:\n        /* \"SLStaking.sol\":1565:1580  block.timestamp */\n      timestamp\n        /* \"SLStaking.sol\":1565:1627  block.timestamp >= (stakingTime[msg.sender].add(lockupPeriod)) */\n      lt\n      iszero\n        /* \"SLStaking.sol\":1557:1638  require(block.timestamp >= (stakingTime[msg.sender].add(lockupPeriod)), \"Locked\") */\n      tag_69\n      jumpi\n      mload(0x40)\n      0x08c379a000000000000000000000000000000000000000000000000000000000\n      dup2\n      mstore\n      0x04\n      add\n      tag_70\n      swap1\n      tag_71\n      jump\t// in\n    tag_70:\n      mload(0x40)\n      dup1\n      swap2\n      sub\n      swap1\n      revert\n    tag_69:\n        /* \"SLStaking.sol\":1676:1683  _amount */\n      dup1\n        /* \"SLStaking.sol\":1652:1660  balances */\n      0x07\n        /* \"SLStaking.sol\":1652:1672  balances[msg.sender] */\n      0x00\n        /* \"SLStaking.sol\":1661:1671  msg.sender */\n      caller\n        /* \"SLStaking.sol\":1652:1672  balances[msg.sender] */\n      0xffffffffffffffffffffffffffffffffffffffff\n      and\n      0xffffffffffffffffffffffffffffffffffffffff\n      and\n      dup2\n      mstore\n      0x20\n      add\n      swap1\n      dup2\n      mstore\n      0x20\n      add\n      0x00\n      keccak256\n      sload\n        /* \"SLStaking.sol\":1652:1683  balances[msg.sender] >= _amount */\n      lt\n      iszero\n        /* \"SLStaking.sol\":1644:1708  require(balances[msg.sender] >= _amount, \"Insufficient balance\") */\n      tag_72\n      jumpi\n      mload(0x40)\n      0x08c379a000000000000000000000000000000000000000000000000000000000\n      dup2\n      mstore\n      0x04\n      add\n      tag_73\n      swap1\n      tag_74\n      jump\t// in\n    tag_73:\n      mload(0x40)\n      dup1\n      swap2\n      sub\n      swap1\n      revert\n    tag_72:\n        /* \"SLStaking.sol\":1722:1727  token */\n      0x02\n      0x00\n      swap1\n      sload\n      swap1\n      0x0100\n      exp\n      swap1\n      div\n      0xffffffffffffffffffffffffffffffffffffffff\n      and\n        /* \"SLStaking.sol\":1722:1736  token.transfer */\n      0xffffffffffffffffffffffffffffffffffffffff\n      and\n      0xa9059cbb\n        /* \"SLStaking.sol\":1737:1747  msg.sender */\n      caller\n        /* \"SLStaking.sol\":1749:1756  _amount */\n      dup4\n        /* \"SLStaking.sol\":1722:1757  token.transfer(msg.sender, _amount) */\n      mload(0x40)\n      dup4\n      0xffffffff\n      and\n      0xe0\n      shl\n      dup2\n      mstore\n      0x04\n      add\n      tag_75\n      swap3\n      swap2\n      swap1\n      tag_76\n      jump\t// in\n    tag_75:\n      0x20\n      mload(0x40)\n      dup1\n      dup4\n      sub\n      dup2\n      0x00\n      dup8\n      dup1\n      extcodesize\n      iszero\n      dup1\n      iszero\n      tag_77\n      jumpi\n      0x00\n      dup1\n      revert\n    tag_77:\n      pop\n      gas\n      call\n      iszero\n      dup1\n      iszero\n      tag_79\n      jumpi\n      returndatasize\n      0x00\n      dup1\n      returndatacopy\n      revert(0x00, returndatasize)\n    tag_79:\n      pop\n      pop\n      pop\n      pop\n      mload(0x40)\n      returndatasize\n      not(0x1f)\n      0x1f\n      dup3\n      add\n      and\n      dup3\n      add\n      dup1\n      0x40\n      mstore\n      pop\n      dup2\n      add\n      swap1\n      tag_80\n      swap2\n      swap1\n      tag_81\n      jump\t// in\n    tag_80:\n        /* \"SLStaking.sol\":1714:1783  require(token.transfer(msg.sender, _amount), \"Token transfer failed\") */\n      tag_82\n      jumpi\n      mload(0x40)\n      0x08c379a000000000000000000000000000000000000000000000000000000000\n      dup2\n      mstore\n      0x04\n      add\n      tag_83\n      swap1\n      tag_84\n      jump\t// in\n    tag_83:\n      mload(0x40)\n      dup1\n      swap2\n      sub\n      swap1\n      revert\n    tag_82:\n        /* \"SLStaking.sol\":1813:1846  balances[msg.sender].sub(_amount) */\n      tag_85\n        /* \"SLStaking.sol\":1838:1845  _amount */\n      dup2\n        /* \"SLStaking.sol\":1813:1821  balances */\n      0x07\n        /* \"SLStaking.sol\":1813:1833  balances[msg.sender] */\n      0x00\n        /* \"SLStaking.sol\":1822:1832  msg.sender */\n      caller\n        /* \"SLStaking.sol\":1813:1833  balances[msg.sender] */\n      0xffffffffffffffffffffffffffffffffffffffff\n      and\n      0xffffffffffffffffffffffffffffffffffffffff\n      and\n      dup2\n      mstore\n      0x20\n      add\n      swap1\n      dup2\n      mstore\n      0x20\n      add\n      0x00\n      keccak256\n      sload\n        /* \"SLStaking.sol\":1813:1837  balances[msg.sender].sub */\n      tag_86\n      swap1\n        /* \"SLStaking.sol\":1813:1846  balances[msg.sender].sub(_amount) */\n      swap2\n      swap1\n      0xffffffff\n      and\n      jump\t// in\n    tag_85:\n        /* \"SLStaking.sol\":1790:1798  balances */\n      0x07\n        /* \"SLStaking.sol\":1790:1810  balances[msg.sender] */\n      0x00\n        /* \"SLStaking.sol\":1799:1809  msg.sender */\n      caller\n        /* \"SLStaking.sol\":1790:1810  balances[msg.sender] */\n      0xffffffffffffffffffffffffffffffffffffffff\n      and\n      0xffffffffffffffffffffffffffffffffffffffff\n      and\n      dup2\n      mstore\n      0x20\n      add\n      swap1\n      dup2\n      mstore\n      0x20\n      add\n      0x00\n      keccak256\n        /* \"SLStaking.sol\":1790:1846  balances[msg.sender] = balances[msg.sender].sub(_amount) */\n      dup2\n      swap1\n      sstore\n      pop\n        /* \"SLStaking.sol\":1866:1876  msg.sender */\n      caller\n        /* \"SLStaking.sol\":1858:1886  UnStake(msg.sender, _amount) */\n      0xffffffffffffffffffffffffffffffffffffffff\n      and\n      0xb24546d975e2628748efc9aced80665e0fad66272033e5c0ea25fd3afac99795\n        /* \"SLStaking.sol\":1878:1885  _amount */\n      dup3\n        /* \"SLStaking.sol\":1858:1886  UnStake(msg.sender, _amount) */\n      mload(0x40)\n      tag_87\n      swap2\n      swap1\n      tag_23\n      jump\t// in\n    tag_87:\n      mload(0x40)\n      dup1\n      swap2\n      sub\n      swap1\n      log2\n        /* \"@openzeppelin/contracts/security/ReentrancyGuard.sol\":2303:2323  _nonReentrantAfter() */\n      tag_88\n        /* \"@openzeppelin/contracts/security/ReentrancyGuard.sol\":2303:2321  _nonReentrantAfter */\n      tag_89\n        /* \"@openzeppelin/contracts/security/ReentrancyGuard.sol\":2303:2323  _nonReentrantAfter() */\n      jump\t// in\n    tag_88:\n        /* \"SLStaking.sol\":1495:1891  function unStake(uint256 _amount) external nonReentrant {... */\n      pop\n      jump\t// out\n        /* \"@openzeppelin/contracts/access/Ownable.sol\":1831:1932  function renounceOwnership() public virtual onlyOwner {... */\n    tag_33:\n        /* \"@openzeppelin/contracts/access/Ownable.sol\":1094:1107  _checkOwner() */\n      tag_91\n        /* \"@openzeppelin/contracts/access/Ownable.sol\":1094:1105  _checkOwner */\n      tag_92\n        /* \"@openzeppelin/contracts/access/Ownable.sol\":1094:1107  _checkOwner() */\n      jump\t// in\n    tag_91:\n        /* \"@openzeppelin/contracts/access/Ownable.sol\":1895:1925  _transferOwnership(address(0)) */\n      tag_94\n        /* \"@openzeppelin/contracts/access/Ownable.sol\":1922:1923  0 */\n      0x00\n        /* \"@openzeppelin/contracts/access/Ownable.sol\":1895:1913  _transferOwnership */\n      tag_95\n        /* \"@openzeppelin/contracts/access/Ownable.sol\":1895:1925  _transferOwnership(address(0)) */\n      jump\t// in\n    tag_94:\n        /* \"@openzeppelin/contracts/access/Ownable.sol\":1831:1932  function renounceOwnership() public virtual onlyOwner {... */\n      jump\t// out\n        /* \"SLStaking.sol\":2141:2246  function totalStaked() external view returns (uint256) {... */\n    tag_35:\n        /* \"SLStaking.sol\":2187:2194  uint256 */\n      0x00\n        /* \"SLStaking.sol\":2211:2216  token */\n      0x02\n      0x00\n      swap1\n      sload\n      swap1\n      0x0100\n      exp\n      swap1\n      div\n      0xffffffffffffffffffffffffffffffffffffffff\n      and\n        /* \"SLStaking.sol\":2211:2226  token.balanceOf */\n      0xffffffffffffffffffffffffffffffffffffffff\n      and\n      0x70a08231\n        /* \"SLStaking.sol\":2235:2239  this */\n      address\n        /* \"SLStaking.sol\":2211:2241  token.balanceOf(address(this)) */\n      mload(0x40)\n      dup3\n      0xffffffff\n      and\n      0xe0\n      shl\n      dup2\n      mstore\n      0x04\n      add\n      tag_97\n      swap2\n      swap1\n      tag_40\n      jump\t// in\n    tag_97:\n      0x20\n      mload(0x40)\n      dup1\n      dup4\n      sub\n      dup2\n      dup7\n      dup1\n      extcodesize\n      iszero\n      dup1\n      iszero\n      tag_98\n      jumpi\n      0x00\n      dup1\n      revert\n    tag_98:\n      pop\n      gas\n      staticcall\n      iszero\n      dup1\n      iszero\n      tag_100\n      jumpi\n      returndatasize\n      0x00\n      dup1\n      returndatacopy\n      revert(0x00, returndatasize)\n    tag_100:\n      pop\n      pop\n      pop\n      pop\n      mload(0x40)\n      returndatasize\n      not(0x1f)\n      0x1f\n      dup3\n      add\n      and\n      dup3\n      add\n      dup1\n      0x40\n      mstore\n      pop\n      dup2\n      add\n      swap1\n      tag_101\n      swap2\n      swap1\n      tag_102\n      jump\t// in\n    tag_101:\n        /* \"SLStaking.sol\":2204:2241  return token.balanceOf(address(this)) */\n      swap1\n      pop\n        /* \"SLStaking.sol\":2141:2246  function totalStaked() external view returns (uint256) {... */\n      swap1\n      jump\t// out\n        /* \"@openzeppelin/contracts/access/Ownable.sol\":1201:1286  function owner() public view virtual returns (address) {... */\n    tag_38:\n        /* \"@openzeppelin/contracts/access/Ownable.sol\":1247:1254  address */\n      0x00\n        /* \"@openzeppelin/contracts/access/Ownable.sol\":1273:1279  _owner */\n      dup1\n      0x00\n      swap1\n      sload\n      swap1\n      0x0100\n      exp\n      swap1\n      div\n      0xffffffffffffffffffffffffffffffffffffffff\n      and\n        /* \"@openzeppelin/contracts/access/Ownable.sol\":1266:1279  return _owner */\n      swap1\n      pop\n        /* \"@openzeppelin/contracts/access/Ownable.sol\":1201:1286  function owner() public view virtual returns (address) {... */\n      swap1\n      jump\t// out\n        /* \"SLStaking.sol\":400:431  uint256 public totalStakeAmount */\n    tag_42:\n      sload(0x03)\n      dup2\n      jump\t// out\n        /* \"SLStaking.sol\":1017:1491  function stake(uint256 _amount) external nonReentrant {... */\n    tag_46:\n        /* \"@openzeppelin/contracts/security/ReentrancyGuard.sol\":2261:2282  _nonReentrantBefore() */\n      tag_105\n        /* \"@openzeppelin/contracts/security/ReentrancyGuard.sol\":2261:2280  _nonReentrantBefore */\n      tag_65\n        /* \"@openzeppelin/contracts/security/ReentrancyGuard.sol\":2261:2282  _nonReentrantBefore() */\n      jump\t// in\n    tag_105:\n        /* \"SLStaking.sol\":1122:1136  minStakeAmount */\n      sload(0x06)\n        /* \"SLStaking.sol\":1085:1118  balances[msg.sender].add(_amount) */\n      tag_107\n        /* \"SLStaking.sol\":1110:1117  _amount */\n      dup3\n        /* \"SLStaking.sol\":1085:1093  balances */\n      0x07\n        /* \"SLStaking.sol\":1085:1105  balances[msg.sender] */\n      0x00\n        /* \"SLStaking.sol\":1094:1104  msg.sender */\n      caller\n        /* \"SLStaking.sol\":1085:1105  balances[msg.sender] */\n      0xffffffffffffffffffffffffffffffffffffffff\n      and\n      0xffffffffffffffffffffffffffffffffffffffff\n      and\n      dup2\n      mstore\n      0x20\n      add\n      swap1\n      dup2\n      mstore\n      0x20\n      add\n      0x00\n      keccak256\n      sload\n        /* \"SLStaking.sol\":1085:1109  balances[msg.sender].add */\n      tag_68\n      swap1\n        /* \"SLStaking.sol\":1085:1118  balances[msg.sender].add(_amount) */\n      swap2\n      swap1\n      0xffffffff\n      and\n      jump\t// in\n    tag_107:\n        /* \"SLStaking.sol\":1085:1136  balances[msg.sender].add(_amount) >= minStakeAmount */\n      lt\n      iszero\n        /* \"SLStaking.sol\":1077:1197  require(balances[msg.sender].add(_amount) >= minStakeAmount, \"Amount should be greater than or equal to minStakeAmount\") */\n      tag_108\n      jumpi\n      mload(0x40)\n      0x08c379a000000000000000000000000000000000000000000000000000000000\n      dup2\n      mstore\n      0x04\n      add\n      tag_109\n      swap1\n      tag_110\n      jump\t// in\n    tag_109:\n      mload(0x40)\n      dup1\n      swap2\n      sub\n      swap1\n      revert\n    tag_108:\n        /* \"SLStaking.sol\":1211:1216  token */\n      0x02\n      0x00\n      swap1\n      sload\n      swap1\n      0x0100\n      exp\n      swap1\n      div\n      0xffffffffffffffffffffffffffffffffffffffff\n      and\n        /* \"SLStaking.sol\":1211:1229  token.transferFrom */\n      0xffffffffffffffffffffffffffffffffffffffff\n      and\n      0x23b872dd\n        /* \"SLStaking.sol\":1230:1240  msg.sender */\n      caller\n        /* \"SLStaking.sol\":1250:1254  this */\n      address\n        /* \"SLStaking.sol\":1257:1264  _amount */\n      dup5\n        /* \"SLStaking.sol\":1211:1265  token.transferFrom(msg.sender, address(this), _amount) */\n      mload(0x40)\n      dup5\n      0xffffffff\n      and\n      0xe0\n      shl\n      dup2\n      mstore\n      0x04\n      add\n      tag_111\n      swap4\n      swap3\n      swap2\n      swap1\n      tag_112\n      jump\t// in\n    tag_111:\n      0x20\n      mload(0x40)\n      dup1\n      dup4\n      sub\n      dup2\n      0x00\n      dup8\n      dup1\n      extcodesize\n      iszero\n      dup1\n      iszero\n      tag_113\n      jumpi\n      0x00\n      dup1\n      revert\n    tag_113:\n      pop\n      gas\n      call\n      iszero\n      dup1\n      iszero\n      tag_115\n      jumpi\n      returndatasize\n      0x00\n      dup1\n      returndatacopy\n      revert(0x00, returndatasize)\n    tag_115:\n      pop\n      pop\n      pop\n      pop\n      mload(0x40)\n      returndatasize\n      not(0x1f)\n      0x1f\n      dup3\n      add\n      and\n      dup3\n      add\n      dup1\n      0x40\n      mstore\n      pop\n      dup2\n      add\n      swap1\n      tag_116\n      swap2\n      swap1\n      tag_81\n      jump\t// in\n    tag_116:\n        /* \"SLStaking.sol\":1203:1291  require(token.transferFrom(msg.sender, address(this), _amount), \"Token transfer failed\") */\n      tag_117\n      jumpi\n      mload(0x40)\n      0x08c379a000000000000000000000000000000000000000000000000000000000\n      dup2\n      mstore\n      0x04\n      add\n      tag_118\n      swap1\n      tag_84\n      jump\t// in\n    tag_118:\n      mload(0x40)\n      dup1\n      swap2\n      sub\n      swap1\n      revert\n    tag_117:\n        /* \"SLStaking.sol\":1321:1354  balances[msg.sender].add(_amount) */\n      tag_119\n        /* \"SLStaking.sol\":1346:1353  _amount */\n      dup2\n        /* \"SLStaking.sol\":1321:1329  balances */\n      0x07\n        /* \"SLStaking.sol\":1321:1341  balances[msg.sender] */\n      0x00\n        /* \"SLStaking.sol\":1330:1340  msg.sender */\n      caller\n        /* \"SLStaking.sol\":1321:1341  balances[msg.sender] */\n      0xffffffffffffffffffffffffffffffffffffffff\n      and\n      0xffffffffffffffffffffffffffffffffffffffff\n      and\n      dup2\n      mstore\n      0x20\n      add\n      swap1\n      dup2\n      mstore\n      0x20\n      add\n      0x00\n      keccak256\n      sload\n        /* \"SLStaking.sol\":1321:1345  balances[msg.sender].add */\n      tag_68\n      swap1\n        /* \"SLStaking.sol\":1321:1354  balances[msg.sender].add(_amount) */\n      swap2\n      swap1\n      0xffffffff\n      and\n      jump\t// in\n    tag_119:\n        /* \"SLStaking.sol\":1298:1306  balances */\n      0x07\n        /* \"SLStaking.sol\":1298:1318  balances[msg.sender] */\n      0x00\n        /* \"SLStaking.sol\":1307:1317  msg.sender */\n      caller\n        /* \"SLStaking.sol\":1298:1318  balances[msg.sender] */\n      0xffffffffffffffffffffffffffffffffffffffff\n      and\n      0xffffffffffffffffffffffffffffffffffffffff\n      and\n      dup2\n      mstore\n      0x20\n      add\n      swap1\n      dup2\n      mstore\n      0x20\n      add\n      0x00\n      keccak256\n        /* \"SLStaking.sol\":1298:1354  balances[msg.sender] = balances[msg.sender].add(_amount) */\n      dup2\n      swap1\n      sstore\n      pop\n        /* \"SLStaking.sol\":1391:1392  0 */\n      0x00\n        /* \"SLStaking.sol\":1364:1375  stakingTime */\n      0x05\n        /* \"SLStaking.sol\":1364:1387  stakingTime[msg.sender] */\n      0x00\n        /* \"SLStaking.sol\":1376:1386  msg.sender */\n      caller\n        /* \"SLStaking.sol\":1364:1387  stakingTime[msg.sender] */\n      0xffffffffffffffffffffffffffffffffffffffff\n      and\n      0xffffffffffffffffffffffffffffffffffffffff\n      and\n      dup2\n      mstore\n      0x20\n      add\n      swap1\n      dup2\n      mstore\n      0x20\n      add\n      0x00\n      keccak256\n      sload\n        /* \"SLStaking.sol\":1364:1392  stakingTime[msg.sender] == 0 */\n      eq\n        /* \"SLStaking.sol\":1361:1449  if(stakingTime[msg.sender] == 0){... */\n      iszero\n      tag_120\n      jumpi\n        /* \"SLStaking.sol\":1427:1442  block.timestamp */\n      timestamp\n        /* \"SLStaking.sol\":1401:1412  stakingTime */\n      0x05\n        /* \"SLStaking.sol\":1401:1424  stakingTime[msg.sender] */\n      0x00\n        /* \"SLStaking.sol\":1413:1423  msg.sender */\n      caller\n        /* \"SLStaking.sol\":1401:1424  stakingTime[msg.sender] */\n      0xffffffffffffffffffffffffffffffffffffffff\n      and\n      0xffffffffffffffffffffffffffffffffffffffff\n      and\n      dup2\n      mstore\n      0x20\n      add\n      swap1\n      dup2\n      mstore\n      0x20\n      add\n      0x00\n      keccak256\n        /* \"SLStaking.sol\":1401:1442  stakingTime[msg.sender] = block.timestamp */\n      dup2\n      swap1\n      sstore\n      pop\n        /* \"SLStaking.sol\":1361:1449  if(stakingTime[msg.sender] == 0){... */\n    tag_120:\n        /* \"SLStaking.sol\":1466:1476  msg.sender */\n      caller\n        /* \"SLStaking.sol\":1460:1486  Stake(msg.sender, _amount) */\n      0xffffffffffffffffffffffffffffffffffffffff\n      and\n      0xebedb8b3c678666e7f36970bc8f57abf6d8fa2e828c0da91ea5b75bf68ed101a\n        /* \"SLStaking.sol\":1478:1485  _amount */\n      dup3\n        /* \"SLStaking.sol\":1460:1486  Stake(msg.sender, _amount) */\n      mload(0x40)\n      tag_121\n      swap2\n      swap1\n      tag_23\n      jump\t// in\n    tag_121:\n      mload(0x40)\n      dup1\n      swap2\n      sub\n      swap1\n      log2\n        /* \"@openzeppelin/contracts/security/ReentrancyGuard.sol\":2303:2323  _nonReentrantAfter() */\n      tag_122\n        /* \"@openzeppelin/contracts/security/ReentrancyGuard.sol\":2303:2321  _nonReentrantAfter */\n      tag_89\n        /* \"@openzeppelin/contracts/security/ReentrancyGuard.sol\":2303:2323  _nonReentrantAfter() */\n      jump\t// in\n    tag_122:\n        /* \"SLStaking.sol\":1017:1491  function stake(uint256 _amount) external nonReentrant {... */\n      pop\n      jump\t// out\n        /* \"SLStaking.sol\":1928:2091  function setMinStakeAmount(uint256 _amount) external onlyOwner {... */\n    tag_49:\n        /* \"@openzeppelin/contracts/access/Ownable.sol\":1094:1107  _checkOwner() */\n      tag_124\n        /* \"@openzeppelin/contracts/access/Ownable.sol\":1094:1105  _checkOwner */\n      tag_92\n        /* \"@openzeppelin/contracts/access/Ownable.sol\":1094:1107  _checkOwner() */\n      jump\t// in\n    tag_124:\n        /* \"SLStaking.sol\":2016:2017  0 */\n      0x00\n        /* \"SLStaking.sol\":2005:2012  _amount */\n      dup2\n        /* \"SLStaking.sol\":2005:2017  _amount >= 0 */\n      lt\n      iszero\n        /* \"SLStaking.sol\":1997:2056  require(_amount >= 0, \"Amount should be greater than zero\") */\n      tag_126\n      jumpi\n      mload(0x40)\n      0x08c379a000000000000000000000000000000000000000000000000000000000\n      dup2\n      mstore\n      0x04\n      add\n      tag_127\n      swap1\n      tag_128\n      jump\t// in\n    tag_127:\n      mload(0x40)\n      dup1\n      swap2\n      sub\n      swap1\n      revert\n    tag_126:\n        /* \"SLStaking.sol\":2079:2086  _amount */\n      dup1\n        /* \"SLStaking.sol\":2062:2076  minStakeAmount */\n      0x06\n        /* \"SLStaking.sol\":2062:2086  minStakeAmount = _amount */\n      dup2\n      swap1\n      sstore\n      pop\n        /* \"SLStaking.sol\":1928:2091  function setMinStakeAmount(uint256 _amount) external onlyOwner {... */\n      pop\n      jump\t// out\n        /* \"SLStaking.sol\":435:462  uint256 public lockupPeriod */\n    tag_51:\n      sload(0x04)\n      dup2\n      jump\t// out\n        /* \"SLStaking.sol\":583:612  uint256 public minStakeAmount */\n    tag_54:\n      sload(0x06)\n      dup2\n      jump\t// out\n        /* \"@openzeppelin/contracts/access/Ownable.sol\":2081:2279  function transferOwnership(address newOwner) public virtual onlyOwner {... */\n    tag_58:\n        /* \"@openzeppelin/contracts/access/Ownable.sol\":1094:1107  _checkOwner() */\n      tag_130\n        /* \"@openzeppelin/contracts/access/Ownable.sol\":1094:1105  _checkOwner */\n      tag_92\n        /* \"@openzeppelin/contracts/access/Ownable.sol\":1094:1107  _checkOwner() */\n      jump\t// in\n    tag_130:\n        /* \"@openzeppelin/contracts/access/Ownable.sol\":2189:2190  0 */\n      0x00\n        /* \"@openzeppelin/contracts/access/Ownable.sol\":2169:2191  newOwner != address(0) */\n      0xffffffffffffffffffffffffffffffffffffffff\n      and\n        /* \"@openzeppelin/contracts/access/Ownable.sol\":2169:2177  newOwner */\n      dup2\n        /* \"@openzeppelin/contracts/access/Ownable.sol\":2169:2191  newOwner != address(0) */\n      0xffffffffffffffffffffffffffffffffffffffff\n      and\n      eq\n      iszero\n        /* \"@openzeppelin/contracts/access/Ownable.sol\":2161:2234  require(newOwner != address(0), \"Ownable: new owner is the zero address\") */\n      tag_132\n      jumpi\n      mload(0x40)\n      0x08c379a000000000000000000000000000000000000000000000000000000000\n      dup2\n      mstore\n      0x04\n      add\n      tag_133\n      swap1\n      tag_134\n      jump\t// in\n    tag_133:\n      mload(0x40)\n      dup1\n      swap2\n      sub\n      swap1\n      revert\n    tag_132:\n        /* \"@openzeppelin/contracts/access/Ownable.sol\":2244:2272  _transferOwnership(newOwner) */\n      tag_135\n        /* \"@openzeppelin/contracts/access/Ownable.sol\":2263:2271  newOwner */\n      dup2\n        /* \"@openzeppelin/contracts/access/Ownable.sol\":2244:2262  _transferOwnership */\n      tag_95\n        /* \"@openzeppelin/contracts/access/Ownable.sol\":2244:2272  _transferOwnership(newOwner) */\n      jump\t// in\n    tag_135:\n        /* \"@openzeppelin/contracts/access/Ownable.sol\":2081:2279  function transferOwnership(address newOwner) public virtual onlyOwner {... */\n      pop\n      jump\t// out\n        /* \"SLStaking.sol\":376:395  IERC20 public token */\n    tag_60:\n      0x02\n      0x00\n      swap1\n      sload\n      swap1\n      0x0100\n      exp\n      swap1\n      div\n      0xffffffffffffffffffffffffffffffffffffffff\n      and\n      dup2\n      jump\t// out\n        /* \"@openzeppelin/contracts/security/ReentrancyGuard.sol\":2336:2623  function _nonReentrantBefore() private {... */\n    tag_65:\n        /* \"@openzeppelin/contracts/security/ReentrancyGuard.sol\":1759:1760  2 */\n      0x02\n        /* \"@openzeppelin/contracts/security/ReentrancyGuard.sol\":2468:2475  _status */\n      sload(0x01)\n        /* \"@openzeppelin/contracts/security/ReentrancyGuard.sol\":2468:2487  _status != _ENTERED */\n      eq\n      iszero\n        /* \"@openzeppelin/contracts/security/ReentrancyGuard.sol\":2460:2523  require(_status != _ENTERED, \"ReentrancyGuard: reentrant call\") */\n      tag_137\n      jumpi\n      mload(0x40)\n      0x08c379a000000000000000000000000000000000000000000000000000000000\n      dup2\n      mstore\n      0x04\n      add\n      tag_138\n      swap1\n      tag_139\n      jump\t// in\n    tag_138:\n      mload(0x40)\n      dup1\n      swap2\n      sub\n      swap1\n      revert\n    tag_137:\n        /* \"@openzeppelin/contracts/security/ReentrancyGuard.sol\":1759:1760  2 */\n      0x02\n        /* \"@openzeppelin/contracts/security/ReentrancyGuard.sol\":2598:2605  _status */\n      0x01\n        /* \"@openzeppelin/contracts/security/ReentrancyGuard.sol\":2598:2616  _status = _ENTERED */\n      dup2\n      swap1\n      sstore\n      pop\n        /* \"@openzeppelin/contracts/security/ReentrancyGuard.sol\":2336:2623  function _nonReentrantBefore() private {... */\n      jump\t// out\n        /* \"@openzeppelin/contracts/utils/math/SafeMath.sol\":2755:2851  function add(uint256 a, uint256 b) internal pure returns (uint256) {... */\n    tag_68:\n        /* \"@openzeppelin/contracts/utils/math/SafeMath.sol\":2813:2820  uint256 */\n      0x00\n        /* \"@openzeppelin/contracts/utils/math/SafeMath.sol\":2843:2844  b */\n      dup2\n        /* \"@openzeppelin/contracts/utils/math/SafeMath.sol\":2839:2840  a */\n      dup4\n        /* \"@openzeppelin/contracts/utils/math/SafeMath.sol\":2839:2844  a + b */\n      tag_141\n      swap2\n      swap1\n      tag_142\n      jump\t// in\n    tag_141:\n        /* \"@openzeppelin/contracts/utils/math/SafeMath.sol\":2832:2844  return a + b */\n      swap1\n      pop\n        /* \"@openzeppelin/contracts/utils/math/SafeMath.sol\":2755:2851  function add(uint256 a, uint256 b) internal pure returns (uint256) {... */\n      swap3\n      swap2\n      pop\n      pop\n      jump\t// out\n        /* \"@openzeppelin/contracts/utils/math/SafeMath.sol\":3122:3218  function sub(uint256 a, uint256 b) internal pure returns (uint256) {... */\n    tag_86:\n        /* \"@openzeppelin/contracts/utils/math/SafeMath.sol\":3180:3187  uint256 */\n      0x00\n        /* \"@openzeppelin/contracts/utils/math/SafeMath.sol\":3210:3211  b */\n      dup2\n        /* \"@openzeppelin/contracts/utils/math/SafeMath.sol\":3206:3207  a */\n      dup4\n        /* \"@openzeppelin/contracts/utils/math/SafeMath.sol\":3206:3211  a - b */\n      tag_144\n      swap2\n      swap1\n      tag_145\n      jump\t// in\n    tag_144:\n        /* \"@openzeppelin/contracts/utils/math/SafeMath.sol\":3199:3211  return a - b */\n      swap1\n      pop\n        /* \"@openzeppelin/contracts/utils/math/SafeMath.sol\":3122:3218  function sub(uint256 a, uint256 b) internal pure returns (uint256) {... */\n      swap3\n      swap2\n      pop\n      pop\n      jump\t// out\n        /* \"@openzeppelin/contracts/security/ReentrancyGuard.sol\":2629:2838  function _nonReentrantAfter() private {... */\n    tag_89:\n        /* \"@openzeppelin/contracts/security/ReentrancyGuard.sol\":1716:1717  1 */\n      0x01\n        /* \"@openzeppelin/contracts/security/ReentrancyGuard.sol\":2809:2816  _status */\n      dup1\n        /* \"@openzeppelin/contracts/security/ReentrancyGuard.sol\":2809:2831  _status = _NOT_ENTERED */\n      dup2\n      swap1\n      sstore\n      pop\n        /* \"@openzeppelin/contracts/security/ReentrancyGuard.sol\":2629:2838  function _nonReentrantAfter() private {... */\n      jump\t// out\n        /* \"@openzeppelin/contracts/access/Ownable.sol\":1359:1489  function _checkOwner() internal view virtual {... */\n    tag_92:\n        /* \"@openzeppelin/contracts/access/Ownable.sol\":1433:1445  _msgSender() */\n      tag_148\n        /* \"@openzeppelin/contracts/access/Ownable.sol\":1433:1443  _msgSender */\n      tag_149\n        /* \"@openzeppelin/contracts/access/Ownable.sol\":1433:1445  _msgSender() */\n      jump\t// in\n    tag_148:\n        /* \"@openzeppelin/contracts/access/Ownable.sol\":1422:1445  owner() == _msgSender() */\n      0xffffffffffffffffffffffffffffffffffffffff\n      and\n        /* \"@openzeppelin/contracts/access/Ownable.sol\":1422:1429  owner() */\n      tag_150\n        /* \"@openzeppelin/contracts/access/Ownable.sol\":1422:1427  owner */\n      tag_38\n        /* \"@openzeppelin/contracts/access/Ownable.sol\":1422:1429  owner() */\n      jump\t// in\n    tag_150:\n        /* \"@openzeppelin/contracts/access/Ownable.sol\":1422:1445  owner() == _msgSender() */\n      0xffffffffffffffffffffffffffffffffffffffff\n      and\n      eq\n        /* \"@openzeppelin/contracts/access/Ownable.sol\":1414:1482  require(owner() == _msgSender(), \"Ownable: caller is not the owner\") */\n      tag_151\n      jumpi\n      mload(0x40)\n      0x08c379a000000000000000000000000000000000000000000000000000000000\n      dup2\n      mstore\n      0x04\n      add\n      tag_152\n      swap1\n      tag_153\n      jump\t// in\n    tag_152:\n      mload(0x40)\n      dup1\n      swap2\n      sub\n      swap1\n      revert\n    tag_151:\n        /* \"@openzeppelin/contracts/access/Ownable.sol\":1359:1489  function _checkOwner() internal view virtual {... */\n      jump\t// out\n        /* \"@openzeppelin/contracts/access/Ownable.sol\":2433:2620  function _transferOwnership(address newOwner) internal virtual {... */\n    tag_95:\n        /* \"@openzeppelin/contracts/access/Ownable.sol\":2506:2522  address oldOwner */\n      0x00\n        /* \"@openzeppelin/contracts/access/Ownable.sol\":2525:2531  _owner */\n      dup1\n      0x00\n      swap1\n      sload\n      swap1\n      0x0100\n      exp\n      swap1\n      div\n      0xffffffffffffffffffffffffffffffffffffffff\n      and\n        /* \"@openzeppelin/contracts/access/Ownable.sol\":2506:2531  address oldOwner = _owner */\n      swap1\n      pop\n        /* \"@openzeppelin/contracts/access/Ownable.sol\":2550:2558  newOwner */\n      dup2\n        /* \"@openzeppelin/contracts/access/Ownable.sol\":2541:2547  _owner */\n      0x00\n      dup1\n        /* \"@openzeppelin/contracts/access/Ownable.sol\":2541:2558  _owner = newOwner */\n      0x0100\n      exp\n      dup2\n      sload\n      dup2\n      0xffffffffffffffffffffffffffffffffffffffff\n      mul\n      not\n      and\n      swap1\n      dup4\n      0xffffffffffffffffffffffffffffffffffffffff\n      and\n      mul\n      or\n      swap1\n      sstore\n      pop\n        /* \"@openzeppelin/contracts/access/Ownable.sol\":2604:2612  newOwner */\n      dup2\n        /* \"@openzeppelin/contracts/access/Ownable.sol\":2573:2613  OwnershipTransferred(oldOwner, newOwner) */\n      0xffffffffffffffffffffffffffffffffffffffff\n      and\n        /* \"@openzeppelin/contracts/access/Ownable.sol\":2594:2602  oldOwner */\n      dup2\n        /* \"@openzeppelin/contracts/access/Ownable.sol\":2573:2613  OwnershipTransferred(oldOwner, newOwner) */\n      0xffffffffffffffffffffffffffffffffffffffff\n      and\n      0x8be0079c531659141344cd1fd0a4f28419497f9722a3daafe3b4186f6b6457e0\n      mload(0x40)\n      mload(0x40)\n      dup1\n      swap2\n      sub\n      swap1\n      log3\n        /* \"@openzeppelin/contracts/access/Ownable.sol\":2433:2620  function _transferOwnership(address newOwner) internal virtual {... */\n      pop\n      pop\n      jump\t// out\n        /* \"@openzeppelin/contracts/utils/Context.sol\":640:736  function _msgSender() internal view virtual returns (address) {... */\n    tag_149:\n        /* \"@openzeppelin/contracts/utils/Context.sol\":693:700  address */\n      0x00\n        /* \"@openzeppelin/contracts/utils/Context.sol\":719:729  msg.sender */\n      caller\n        /* \"@openzeppelin/contracts/utils/Context.sol\":712:729  return msg.sender */\n      swap1\n      pop\n        /* \"@openzeppelin/contracts/utils/Context.sol\":640:736  function _msgSender() internal view virtual returns (address) {... */\n      swap1\n      jump\t// out\n        /* \"#utility.yul\":7:146   */\n    tag_157:\n      0x00\n        /* \"#utility.yul\":91:97   */\n      dup2\n        /* \"#utility.yul\":78:98   */\n      calldataload\n        /* \"#utility.yul\":69:98   */\n      swap1\n      pop\n        /* \"#utility.yul\":107:140   */\n      tag_159\n        /* \"#utility.yul\":134:139   */\n      dup2\n        /* \"#utility.yul\":107:140   */\n      tag_160\n      jump\t// in\n    tag_159:\n        /* \"#utility.yul\":59:146   */\n      swap3\n      swap2\n      pop\n      pop\n      jump\t// out\n        /* \"#utility.yul\":152:289   */\n    tag_161:\n      0x00\n        /* \"#utility.yul\":237:243   */\n      dup2\n        /* \"#utility.yul\":231:244   */\n      mload\n        /* \"#utility.yul\":222:244   */\n      swap1\n      pop\n        /* \"#utility.yul\":253:283   */\n      tag_163\n        /* \"#utility.yul\":277:282   */\n      dup2\n        /* \"#utility.yul\":253:283   */\n      tag_164\n      jump\t// in\n    tag_163:\n        /* \"#utility.yul\":212:289   */\n      swap3\n      swap2\n      pop\n      pop\n      jump\t// out\n        /* \"#utility.yul\":295:434   */\n    tag_165:\n      0x00\n        /* \"#utility.yul\":379:385   */\n      dup2\n        /* \"#utility.yul\":366:386   */\n      calldataload\n        /* \"#utility.yul\":357:386   */\n      swap1\n      pop\n        /* \"#utility.yul\":395:428   */\n      tag_167\n        /* \"#utility.yul\":422:427   */\n      dup2\n        /* \"#utility.yul\":395:428   */\n      tag_168\n      jump\t// in\n    tag_167:\n        /* \"#utility.yul\":347:434   */\n      swap3\n      swap2\n      pop\n      pop\n      jump\t// out\n        /* \"#utility.yul\":440:583   */\n    tag_169:\n      0x00\n        /* \"#utility.yul\":528:534   */\n      dup2\n        /* \"#utility.yul\":522:535   */\n      mload\n        /* \"#utility.yul\":513:535   */\n      swap1\n      pop\n        /* \"#utility.yul\":544:577   */\n      tag_171\n        /* \"#utility.yul\":571:576   */\n      dup2\n        /* \"#utility.yul\":544:577   */\n      tag_168\n      jump\t// in\n    tag_171:\n        /* \"#utility.yul\":503:583   */\n      swap3\n      swap2\n      pop\n      pop\n      jump\t// out\n        /* \"#utility.yul\":589:851   */\n    tag_20:\n      0x00\n        /* \"#utility.yul\":697:699   */\n      0x20\n        /* \"#utility.yul\":685:694   */\n      dup3\n        /* \"#utility.yul\":676:683   */\n      dup5\n        /* \"#utility.yul\":672:695   */\n      sub\n        /* \"#utility.yul\":668:700   */\n      slt\n        /* \"#utility.yul\":665:667   */\n      iszero\n      tag_173\n      jumpi\n        /* \"#utility.yul\":713:714   */\n      0x00\n        /* \"#utility.yul\":710:711   */\n      dup1\n        /* \"#utility.yul\":703:715   */\n      revert\n        /* \"#utility.yul\":665:667   */\n    tag_173:\n        /* \"#utility.yul\":756:757   */\n      0x00\n        /* \"#utility.yul\":781:834   */\n      tag_174\n        /* \"#utility.yul\":826:833   */\n      dup5\n        /* \"#utility.yul\":817:823   */\n      dup3\n        /* \"#utility.yul\":806:815   */\n      dup6\n        /* \"#utility.yul\":802:824   */\n      add\n        /* \"#utility.yul\":781:834   */\n      tag_157\n      jump\t// in\n    tag_174:\n        /* \"#utility.yul\":771:834   */\n      swap2\n      pop\n        /* \"#utility.yul\":727:844   */\n      pop\n        /* \"#utility.yul\":655:851   */\n      swap3\n      swap2\n      pop\n      pop\n      jump\t// out\n        /* \"#utility.yul\":857:1135   */\n    tag_81:\n      0x00\n        /* \"#utility.yul\":973:975   */\n      0x20\n        /* \"#utility.yul\":961:970   */\n      dup3\n        /* \"#utility.yul\":952:959   */\n      dup5\n        /* \"#utility.yul\":948:971   */\n      sub\n        /* \"#utility.yul\":944:976   */\n      slt\n        /* \"#utility.yul\":941:943   */\n      iszero\n      tag_176\n      jumpi\n        /* \"#utility.yul\":989:990   */\n      0x00\n        /* \"#utility.yul\":986:987   */\n      dup1\n        /* \"#utility.yul\":979:991   */\n      revert\n        /* \"#utility.yul\":941:943   */\n    tag_176:\n        /* \"#utility.yul\":1032:1033   */\n      0x00\n        /* \"#utility.yul\":1057:1118   */\n      tag_177\n        /* \"#utility.yul\":1110:1117   */\n      dup5\n        /* \"#utility.yul\":1101:1107   */\n      dup3\n        /* \"#utility.yul\":1090:1099   */\n      dup6\n        /* \"#utility.yul\":1086:1108   */\n      add\n        /* \"#utility.yul\":1057:1118   */\n      tag_161\n      jump\t// in\n    tag_177:\n        /* \"#utility.yul\":1047:1118   */\n      swap2\n      pop\n        /* \"#utility.yul\":1003:1128   */\n      pop\n        /* \"#utility.yul\":931:1135   */\n      swap3\n      swap2\n      pop\n      pop\n      jump\t// out\n        /* \"#utility.yul\":1141:1403   */\n    tag_30:\n      0x00\n        /* \"#utility.yul\":1249:1251   */\n      0x20\n        /* \"#utility.yul\":1237:1246   */\n      dup3\n        /* \"#utility.yul\":1228:1235   */\n      dup5\n        /* \"#utility.yul\":1224:1247   */\n      sub\n        /* \"#utility.yul\":1220:1252   */\n      slt\n        /* \"#utility.yul\":1217:1219   */\n      iszero\n      tag_179\n      jumpi\n        /* \"#utility.yul\":1265:1266   */\n      0x00\n        /* \"#utility.yul\":1262:1263   */\n      dup1\n        /* \"#utility.yul\":1255:1267   */\n      revert\n        /* \"#utility.yul\":1217:1219   */\n    tag_179:\n        /* \"#utility.yul\":1308:1309   */\n      0x00\n        /* \"#utility.yul\":1333:1386   */\n      tag_180\n        /* \"#utility.yul\":1378:1385   */\n      dup5\n        /* \"#utility.yul\":1369:1375   */\n      dup3\n        /* \"#utility.yul\":1358:1367   */\n      dup6\n        /* \"#utility.yul\":1354:1376   */\n      add\n        /* \"#utility.yul\":1333:1386   */\n      tag_165\n      jump\t// in\n    tag_180:\n        /* \"#utility.yul\":1323:1386   */\n      swap2\n      pop\n        /* \"#utility.yul\":1279:1396   */\n      pop\n        /* \"#utility.yul\":1207:1403   */\n      swap3\n      swap2\n      pop\n      pop\n      jump\t// out\n        /* \"#utility.yul\":1409:1693   */\n    tag_102:\n      0x00\n        /* \"#utility.yul\":1528:1530   */\n      0x20\n        /* \"#utility.yul\":1516:1525   */\n      dup3\n        /* \"#utility.yul\":1507:1514   */\n      dup5\n        /* \"#utility.yul\":1503:1526   */\n      sub\n        /* \"#utility.yul\":1499:1531   */\n      slt\n        /* \"#utility.yul\":1496:1498   */\n      iszero\n      tag_182\n      jumpi\n        /* \"#utility.yul\":1544:1545   */\n      0x00\n        /* \"#utility.yul\":1541:1542   */\n      dup1\n        /* \"#utility.yul\":1534:1546   */\n      revert\n        /* \"#utility.yul\":1496:1498   */\n    tag_182:\n        /* \"#utility.yul\":1587:1588   */\n      0x00\n        /* \"#utility.yul\":1612:1676   */\n      tag_183\n        /* \"#utility.yul\":1668:1675   */\n      dup5\n        /* \"#utility.yul\":1659:1665   */\n      dup3\n        /* \"#utility.yul\":1648:1657   */\n      dup6\n        /* \"#utility.yul\":1644:1666   */\n      add\n        /* \"#utility.yul\":1612:1676   */\n      tag_169\n      jump\t// in\n    tag_183:\n        /* \"#utility.yul\":1602:1676   */\n      swap2\n      pop\n        /* \"#utility.yul\":1558:1686   */\n      pop\n        /* \"#utility.yul\":1486:1693   */\n      swap3\n      swap2\n      pop\n      pop\n      jump\t// out\n        /* \"#utility.yul\":1699:1817   */\n    tag_184:\n        /* \"#utility.yul\":1786:1810   */\n      tag_186\n        /* \"#utility.yul\":1804:1809   */\n      dup2\n        /* \"#utility.yul\":1786:1810   */\n      tag_187\n      jump\t// in\n    tag_186:\n        /* \"#utility.yul\":1781:1784   */\n      dup3\n        /* \"#utility.yul\":1774:1811   */\n      mstore\n        /* \"#utility.yul\":1764:1817   */\n      pop\n      pop\n      jump\t// out\n        /* \"#utility.yul\":1823:1982   */\n    tag_188:\n        /* \"#utility.yul\":1924:1975   */\n      tag_190\n        /* \"#utility.yul\":1969:1974   */\n      dup2\n        /* \"#utility.yul\":1924:1975   */\n      tag_191\n      jump\t// in\n    tag_190:\n        /* \"#utility.yul\":1919:1922   */\n      dup3\n        /* \"#utility.yul\":1912:1976   */\n      mstore\n        /* \"#utility.yul\":1902:1982   */\n      pop\n      pop\n      jump\t// out\n        /* \"#utility.yul\":1988:2353   */\n    tag_192:\n      0x00\n        /* \"#utility.yul\":2151:2217   */\n      tag_194\n        /* \"#utility.yul\":2215:2216   */\n      0x06\n        /* \"#utility.yul\":2210:2213   */\n      dup4\n        /* \"#utility.yul\":2151:2217   */\n      tag_195\n      jump\t// in\n    tag_194:\n        /* \"#utility.yul\":2144:2217   */\n      swap2\n      pop\n        /* \"#utility.yul\":2226:2319   */\n      tag_196\n        /* \"#utility.yul\":2315:2318   */\n      dup3\n        /* \"#utility.yul\":2226:2319   */\n      tag_197\n      jump\t// in\n    tag_196:\n        /* \"#utility.yul\":2344:2346   */\n      0x20\n        /* \"#utility.yul\":2339:2342   */\n      dup3\n        /* \"#utility.yul\":2335:2347   */\n      add\n        /* \"#utility.yul\":2328:2347   */\n      swap1\n      pop\n        /* \"#utility.yul\":2134:2353   */\n      swap2\n      swap1\n      pop\n      jump\t// out\n        /* \"#utility.yul\":2359:2725   */\n    tag_198:\n      0x00\n        /* \"#utility.yul\":2522:2589   */\n      tag_200\n        /* \"#utility.yul\":2586:2588   */\n      0x26\n        /* \"#utility.yul\":2581:2584   */\n      dup4\n        /* \"#utility.yul\":2522:2589   */\n      tag_195\n      jump\t// in\n    tag_200:\n        /* \"#utility.yul\":2515:2589   */\n      swap2\n      pop\n        /* \"#utility.yul\":2598:2691   */\n      tag_201\n        /* \"#utility.yul\":2687:2690   */\n      dup3\n        /* \"#utility.yul\":2598:2691   */\n      tag_202\n      jump\t// in\n    tag_201:\n        /* \"#utility.yul\":2716:2718   */\n      0x40\n        /* \"#utility.yul\":2711:2714   */\n      dup3\n        /* \"#utility.yul\":2707:2719   */\n      add\n        /* \"#utility.yul\":2700:2719   */\n      swap1\n      pop\n        /* \"#utility.yul\":2505:2725   */\n      swap2\n      swap1\n      pop\n      jump\t// out\n        /* \"#utility.yul\":2731:3097   */\n    tag_203:\n      0x00\n        /* \"#utility.yul\":2894:2961   */\n      tag_205\n        /* \"#utility.yul\":2958:2960   */\n      0x14\n        /* \"#utility.yul\":2953:2956   */\n      dup4\n        /* \"#utility.yul\":2894:2961   */\n      tag_195\n      jump\t// in\n    tag_205:\n        /* \"#utility.yul\":2887:2961   */\n      swap2\n      pop\n        /* \"#utility.yul\":2970:3063   */\n      tag_206\n        /* \"#utility.yul\":3059:3062   */\n      dup3\n        /* \"#utility.yul\":2970:3063   */\n      tag_207\n      jump\t// in\n    tag_206:\n        /* \"#utility.yul\":3088:3090   */\n      0x20\n        /* \"#utility.yul\":3083:3086   */\n      dup3\n        /* \"#utility.yul\":3079:3091   */\n      add\n        /* \"#utility.yul\":3072:3091   */\n      swap1\n      pop\n        /* \"#utility.yul\":2877:3097   */\n      swap2\n      swap1\n      pop\n      jump\t// out\n        /* \"#utility.yul\":3103:3469   */\n    tag_208:\n      0x00\n        /* \"#utility.yul\":3266:3333   */\n      tag_210\n        /* \"#utility.yul\":3330:3332   */\n      0x15\n        /* \"#utility.yul\":3325:3328   */\n      dup4\n        /* \"#utility.yul\":3266:3333   */\n      tag_195\n      jump\t// in\n    tag_210:\n        /* \"#utility.yul\":3259:3333   */\n      swap2\n      pop\n        /* \"#utility.yul\":3342:3435   */\n      tag_211\n        /* \"#utility.yul\":3431:3434   */\n      dup3\n        /* \"#utility.yul\":3342:3435   */\n      tag_212\n      jump\t// in\n    tag_211:\n        /* \"#utility.yul\":3460:3462   */\n      0x20\n        /* \"#utility.yul\":3455:3458   */\n      dup3\n        /* \"#utility.yul\":3451:3463   */\n      add\n        /* \"#utility.yul\":3444:3463   */\n      swap1\n      pop\n        /* \"#utility.yul\":3249:3469   */\n      swap2\n      swap1\n      pop\n      jump\t// out\n        /* \"#utility.yul\":3475:3841   */\n    tag_213:\n      0x00\n        /* \"#utility.yul\":3638:3705   */\n      tag_215\n        /* \"#utility.yul\":3702:3704   */\n      0x22\n        /* \"#utility.yul\":3697:3700   */\n      dup4\n        /* \"#utility.yul\":3638:3705   */\n      tag_195\n      jump\t// in\n    tag_215:\n        /* \"#utility.yul\":3631:3705   */\n      swap2\n      pop\n        /* \"#utility.yul\":3714:3807   */\n      tag_216\n        /* \"#utility.yul\":3803:3806   */\n      dup3\n        /* \"#utility.yul\":3714:3807   */\n      tag_217\n      jump\t// in\n    tag_216:\n        /* \"#utility.yul\":3832:3834   */\n      0x40\n        /* \"#utility.yul\":3827:3830   */\n      dup3\n        /* \"#utility.yul\":3823:3835   */\n      add\n        /* \"#utility.yul\":3816:3835   */\n      swap1\n      pop\n        /* \"#utility.yul\":3621:3841   */\n      swap2\n      swap1\n      pop\n      jump\t// out\n        /* \"#utility.yul\":3847:4213   */\n    tag_218:\n      0x00\n        /* \"#utility.yul\":4010:4077   */\n      tag_220\n        /* \"#utility.yul\":4074:4076   */\n      0x20\n        /* \"#utility.yul\":4069:4072   */\n      dup4\n        /* \"#utility.yul\":4010:4077   */\n      tag_195\n      jump\t// in\n    tag_220:\n        /* \"#utility.yul\":4003:4077   */\n      swap2\n      pop\n        /* \"#utility.yul\":4086:4179   */\n      tag_221\n        /* \"#utility.yul\":4175:4178   */\n      dup3\n        /* \"#utility.yul\":4086:4179   */\n      tag_222\n      jump\t// in\n    tag_221:\n        /* \"#utility.yul\":4204:4206   */\n      0x20\n        /* \"#utility.yul\":4199:4202   */\n      dup3\n        /* \"#utility.yul\":4195:4207   */\n      add\n        /* \"#utility.yul\":4188:4207   */\n      swap1\n      pop\n        /* \"#utility.yul\":3993:4213   */\n      swap2\n      swap1\n      pop\n      jump\t// out\n        /* \"#utility.yul\":4219:4585   */\n    tag_223:\n      0x00\n        /* \"#utility.yul\":4382:4449   */\n      tag_225\n        /* \"#utility.yul\":4446:4448   */\n      0x38\n        /* \"#utility.yul\":4441:4444   */\n      dup4\n        /* \"#utility.yul\":4382:4449   */\n      tag_195\n      jump\t// in\n    tag_225:\n        /* \"#utility.yul\":4375:4449   */\n      swap2\n      pop\n        /* \"#utility.yul\":4458:4551   */\n      tag_226\n        /* \"#utility.yul\":4547:4550   */\n      dup3\n        /* \"#utility.yul\":4458:4551   */\n      tag_227\n      jump\t// in\n    tag_226:\n        /* \"#utility.yul\":4576:4578   */\n      0x40\n        /* \"#utility.yul\":4571:4574   */\n      dup3\n        /* \"#utility.yul\":4567:4579   */\n      add\n        /* \"#utility.yul\":4560:4579   */\n      swap1\n      pop\n        /* \"#utility.yul\":4365:4585   */\n      swap2\n      swap1\n      pop\n      jump\t// out\n        /* \"#utility.yul\":4591:4957   */\n    tag_228:\n      0x00\n        /* \"#utility.yul\":4754:4821   */\n      tag_230\n        /* \"#utility.yul\":4818:4820   */\n      0x1f\n        /* \"#utility.yul\":4813:4816   */\n      dup4\n        /* \"#utility.yul\":4754:4821   */\n      tag_195\n      jump\t// in\n    tag_230:\n        /* \"#utility.yul\":4747:4821   */\n      swap2\n      pop\n        /* \"#utility.yul\":4830:4923   */\n      tag_231\n        /* \"#utility.yul\":4919:4922   */\n      dup3\n        /* \"#utility.yul\":4830:4923   */\n      tag_232\n      jump\t// in\n    tag_231:\n        /* \"#utility.yul\":4948:4950   */\n      0x20\n        /* \"#utility.yul\":4943:4946   */\n      dup3\n        /* \"#utility.yul\":4939:4951   */\n      add\n        /* \"#utility.yul\":4932:4951   */\n      swap1\n      pop\n        /* \"#utility.yul\":4737:4957   */\n      swap2\n      swap1\n      pop\n      jump\t// out\n        /* \"#utility.yul\":4963:5081   */\n    tag_233:\n        /* \"#utility.yul\":5050:5074   */\n      tag_235\n        /* \"#utility.yul\":5068:5073   */\n      dup2\n        /* \"#utility.yul\":5050:5074   */\n      tag_236\n      jump\t// in\n    tag_235:\n        /* \"#utility.yul\":5045:5048   */\n      dup3\n        /* \"#utility.yul\":5038:5075   */\n      mstore\n        /* \"#utility.yul\":5028:5081   */\n      pop\n      pop\n      jump\t// out\n        /* \"#utility.yul\":5087:5309   */\n    tag_40:\n      0x00\n        /* \"#utility.yul\":5218:5220   */\n      0x20\n        /* \"#utility.yul\":5207:5216   */\n      dup3\n        /* \"#utility.yul\":5203:5221   */\n      add\n        /* \"#utility.yul\":5195:5221   */\n      swap1\n      pop\n        /* \"#utility.yul\":5231:5302   */\n      tag_238\n        /* \"#utility.yul\":5299:5300   */\n      0x00\n        /* \"#utility.yul\":5288:5297   */\n      dup4\n        /* \"#utility.yul\":5284:5301   */\n      add\n        /* \"#utility.yul\":5275:5281   */\n      dup5\n        /* \"#utility.yul\":5231:5302   */\n      tag_184\n      jump\t// in\n    tag_238:\n        /* \"#utility.yul\":5185:5309   */\n      swap3\n      swap2\n      pop\n      pop\n      jump\t// out\n        /* \"#utility.yul\":5315:5757   */\n    tag_112:\n      0x00\n        /* \"#utility.yul\":5502:5504   */\n      0x60\n        /* \"#utility.yul\":5491:5500   */\n      dup3\n        /* \"#utility.yul\":5487:5505   */\n      add\n        /* \"#utility.yul\":5479:5505   */\n      swap1\n      pop\n        /* \"#utility.yul\":5515:5586   */\n      tag_240\n        /* \"#utility.yul\":5583:5584   */\n      0x00\n        /* \"#utility.yul\":5572:5581   */\n      dup4\n        /* \"#utility.yul\":5568:5585   */\n      add\n        /* \"#utility.yul\":5559:5565   */\n      dup7\n        /* \"#utility.yul\":5515:5586   */\n      tag_184\n      jump\t// in\n    tag_240:\n        /* \"#utility.yul\":5596:5668   */\n      tag_241\n        /* \"#utility.yul\":5664:5666   */\n      0x20\n        /* \"#utility.yul\":5653:5662   */\n      dup4\n        /* \"#utility.yul\":5649:5667   */\n      add\n        /* \"#utility.yul\":5640:5646   */\n      dup6\n        /* \"#utility.yul\":5596:5668   */\n      tag_184\n      jump\t// in\n    tag_241:\n        /* \"#utility.yul\":5678:5750   */\n      tag_242\n        /* \"#utility.yul\":5746:5748   */\n      0x40\n        /* \"#utility.yul\":5735:5744   */\n      dup4\n        /* \"#utility.yul\":5731:5749   */\n      add\n        /* \"#utility.yul\":5722:5728   */\n      dup5\n        /* \"#utility.yul\":5678:5750   */\n      tag_233\n      jump\t// in\n    tag_242:\n        /* \"#utility.yul\":5469:5757   */\n      swap5\n      swap4\n      pop\n      pop\n      pop\n      pop\n      jump\t// out\n        /* \"#utility.yul\":5763:6095   */\n    tag_76:\n      0x00\n        /* \"#utility.yul\":5922:5924   */\n      0x40\n        /* \"#utility.yul\":5911:5920   */\n      dup3\n        /* \"#utility.yul\":5907:5925   */\n      add\n        /* \"#utility.yul\":5899:5925   */\n      swap1\n      pop\n        /* \"#utility.yul\":5935:6006   */\n      tag_244\n        /* \"#utility.yul\":6003:6004   */\n      0x00\n        /* \"#utility.yul\":5992:6001   */\n      dup4\n        /* \"#utility.yul\":5988:6005   */\n      add\n        /* \"#utility.yul\":5979:5985   */\n      dup6\n        /* \"#utility.yul\":5935:6006   */\n      tag_184\n      jump\t// in\n    tag_244:\n        /* \"#utility.yul\":6016:6088   */\n      tag_245\n        /* \"#utility.yul\":6084:6086   */\n      0x20\n        /* \"#utility.yul\":6073:6082   */\n      dup4\n        /* \"#utility.yul\":6069:6087   */\n      add\n        /* \"#utility.yul\":6060:6066   */\n      dup5\n        /* \"#utility.yul\":6016:6088   */\n      tag_233\n      jump\t// in\n    tag_245:\n        /* \"#utility.yul\":5889:6095   */\n      swap4\n      swap3\n      pop\n      pop\n      pop\n      jump\t// out\n        /* \"#utility.yul\":6101:6351   */\n    tag_62:\n      0x00\n        /* \"#utility.yul\":6246:6248   */\n      0x20\n        /* \"#utility.yul\":6235:6244   */\n      dup3\n        /* \"#utility.yul\":6231:6249   */\n      add\n        /* \"#utility.yul\":6223:6249   */\n      swap1\n      pop\n        /* \"#utility.yul\":6259:6344   */\n      tag_247\n        /* \"#utility.yul\":6341:6342   */\n      0x00\n        /* \"#utility.yul\":6330:6339   */\n      dup4\n        /* \"#utility.yul\":6326:6343   */\n      add\n        /* \"#utility.yul\":6317:6323   */\n      dup5\n        /* \"#utility.yul\":6259:6344   */\n      tag_188\n      jump\t// in\n    tag_247:\n        /* \"#utility.yul\":6213:6351   */\n      swap3\n      swap2\n      pop\n      pop\n      jump\t// out\n        /* \"#utility.yul\":6357:6776   */\n    tag_71:\n      0x00\n        /* \"#utility.yul\":6561:6563   */\n      0x20\n        /* \"#utility.yul\":6550:6559   */\n      dup3\n        /* \"#utility.yul\":6546:6564   */\n      add\n        /* \"#utility.yul\":6538:6564   */\n      swap1\n      pop\n        /* \"#utility.yul\":6610:6619   */\n      dup2\n        /* \"#utility.yul\":6604:6608   */\n      dup2\n        /* \"#utility.yul\":6600:6620   */\n      sub\n        /* \"#utility.yul\":6596:6597   */\n      0x00\n        /* \"#utility.yul\":6585:6594   */\n      dup4\n        /* \"#utility.yul\":6581:6598   */\n      add\n        /* \"#utility.yul\":6574:6621   */\n      mstore\n        /* \"#utility.yul\":6638:6769   */\n      tag_249\n        /* \"#utility.yul\":6764:6768   */\n      dup2\n        /* \"#utility.yul\":6638:6769   */\n      tag_192\n      jump\t// in\n    tag_249:\n        /* \"#utility.yul\":6630:6769   */\n      swap1\n      pop\n        /* \"#utility.yul\":6528:6776   */\n      swap2\n      swap1\n      pop\n      jump\t// out\n        /* \"#utility.yul\":6782:7201   */\n    tag_134:\n      0x00\n        /* \"#utility.yul\":6986:6988   */\n      0x20\n        /* \"#utility.yul\":6975:6984   */\n      dup3\n        /* \"#utility.yul\":6971:6989   */\n      add\n        /* \"#utility.yul\":6963:6989   */\n      swap1\n      pop\n        /* \"#utility.yul\":7035:7044   */\n      dup2\n        /* \"#utility.yul\":7029:7033   */\n      dup2\n        /* \"#utility.yul\":7025:7045   */\n      sub\n        /* \"#utility.yul\":7021:7022   */\n      0x00\n        /* \"#utility.yul\":7010:7019   */\n      dup4\n        /* \"#utility.yul\":7006:7023   */\n      add\n        /* \"#utility.yul\":6999:7046   */\n      mstore\n        /* \"#utility.yul\":7063:7194   */\n      tag_251\n        /* \"#utility.yul\":7189:7193   */\n      dup2\n        /* \"#utility.yul\":7063:7194   */\n      tag_198\n      jump\t// in\n    tag_251:\n        /* \"#utility.yul\":7055:7194   */\n      swap1\n      pop\n        /* \"#utility.yul\":6953:7201   */\n      swap2\n      swap1\n      pop\n      jump\t// out\n        /* \"#utility.yul\":7207:7626   */\n    tag_74:\n      0x00\n        /* \"#utility.yul\":7411:7413   */\n      0x20\n        /* \"#utility.yul\":7400:7409   */\n      dup3\n        /* \"#utility.yul\":7396:7414   */\n      add\n        /* \"#utility.yul\":7388:7414   */\n      swap1\n      pop\n        /* \"#utility.yul\":7460:7469   */\n      dup2\n        /* \"#utility.yul\":7454:7458   */\n      dup2\n        /* \"#utility.yul\":7450:7470   */\n      sub\n        /* \"#utility.yul\":7446:7447   */\n      0x00\n        /* \"#utility.yul\":7435:7444   */\n      dup4\n        /* \"#utility.yul\":7431:7448   */\n      add\n        /* \"#utility.yul\":7424:7471   */\n      mstore\n        /* \"#utility.yul\":7488:7619   */\n      tag_253\n        /* \"#utility.yul\":7614:7618   */\n      dup2\n        /* \"#utility.yul\":7488:7619   */\n      tag_203\n      jump\t// in\n    tag_253:\n        /* \"#utility.yul\":7480:7619   */\n      swap1\n      pop\n        /* \"#utility.yul\":7378:7626   */\n      swap2\n      swap1\n      pop\n      jump\t// out\n        /* \"#utility.yul\":7632:8051   */\n    tag_84:\n      0x00\n        /* \"#utility.yul\":7836:7838   */\n      0x20\n        /* \"#utility.yul\":7825:7834   */\n      dup3\n        /* \"#utility.yul\":7821:7839   */\n      add\n        /* \"#utility.yul\":7813:7839   */\n      swap1\n      pop\n        /* \"#utility.yul\":7885:7894   */\n      dup2\n        /* \"#utility.yul\":7879:7883   */\n      dup2\n        /* \"#utility.yul\":7875:7895   */\n      sub\n        /* \"#utility.yul\":7871:7872   */\n      0x00\n        /* \"#utility.yul\":7860:7869   */\n      dup4\n        /* \"#utility.yul\":7856:7873   */\n      add\n        /* \"#utility.yul\":7849:7896   */\n      mstore\n        /* \"#utility.yul\":7913:8044   */\n      tag_255\n        /* \"#utility.yul\":8039:8043   */\n      dup2\n        /* \"#utility.yul\":7913:8044   */\n      tag_208\n      jump\t// in\n    tag_255:\n        /* \"#utility.yul\":7905:8044   */\n      swap1\n      pop\n        /* \"#utility.yul\":7803:8051   */\n      swap2\n      swap1\n      pop\n      jump\t// out\n        /* \"#utility.yul\":8057:8476   */\n    tag_128:\n      0x00\n        /* \"#utility.yul\":8261:8263   */\n      0x20\n        /* \"#utility.yul\":8250:8259   */\n      dup3\n        /* \"#utility.yul\":8246:8264   */\n      add\n        /* \"#utility.yul\":8238:8264   */\n      swap1\n      pop\n        /* \"#utility.yul\":8310:8319   */\n      dup2\n        /* \"#utility.yul\":8304:8308   */\n      dup2\n        /* \"#utility.yul\":8300:8320   */\n      sub\n        /* \"#utility.yul\":8296:8297   */\n      0x00\n        /* \"#utility.yul\":8285:8294   */\n      dup4\n        /* \"#utility.yul\":8281:8298   */\n      add\n        /* \"#utility.yul\":8274:8321   */\n      mstore\n        /* \"#utility.yul\":8338:8469   */\n      tag_257\n        /* \"#utility.yul\":8464:8468   */\n      dup2\n        /* \"#utility.yul\":8338:8469   */\n      tag_213\n      jump\t// in\n    tag_257:\n        /* \"#utility.yul\":8330:8469   */\n      swap1\n      pop\n        /* \"#utility.yul\":8228:8476   */\n      swap2\n      swap1\n      pop\n      jump\t// out\n        /* \"#utility.yul\":8482:8901   */\n    tag_153:\n      0x00\n        /* \"#utility.yul\":8686:8688   */\n      0x20\n        /* \"#utility.yul\":8675:8684   */\n      dup3\n        /* \"#utility.yul\":8671:8689   */\n      add\n        /* \"#utility.yul\":8663:8689   */\n      swap1\n      pop\n        /* \"#utility.yul\":8735:8744   */\n      dup2\n        /* \"#utility.yul\":8729:8733   */\n      dup2\n        /* \"#utility.yul\":8725:8745   */\n      sub\n        /* \"#utility.yul\":8721:8722   */\n      0x00\n        /* \"#utility.yul\":8710:8719   */\n      dup4\n        /* \"#utility.yul\":8706:8723   */\n      add\n        /* \"#utility.yul\":8699:8746   */\n      mstore\n        /* \"#utility.yul\":8763:8894   */\n      tag_259\n        /* \"#utility.yul\":8889:8893   */\n      dup2\n        /* \"#utility.yul\":8763:8894   */\n      tag_218\n      jump\t// in\n    tag_259:\n        /* \"#utility.yul\":8755:8894   */\n      swap1\n      pop\n        /* \"#utility.yul\":8653:8901   */\n      swap2\n      swap1\n      pop\n      jump\t// out\n        /* \"#utility.yul\":8907:9326   */\n    tag_110:\n      0x00\n        /* \"#utility.yul\":9111:9113   */\n      0x20\n        /* \"#utility.yul\":9100:9109   */\n      dup3\n        /* \"#utility.yul\":9096:9114   */\n      add\n        /* \"#utility.yul\":9088:9114   */\n      swap1\n      pop\n        /* \"#utility.yul\":9160:9169   */\n      dup2\n        /* \"#utility.yul\":9154:9158   */\n      dup2\n        /* \"#utility.yul\":9150:9170   */\n      sub\n        /* \"#utility.yul\":9146:9147   */\n      0x00\n        /* \"#utility.yul\":9135:9144   */\n      dup4\n        /* \"#utility.yul\":9131:9148   */\n      add\n        /* \"#utility.yul\":9124:9171   */\n      mstore\n        /* \"#utility.yul\":9188:9319   */\n      tag_261\n        /* \"#utility.yul\":9314:9318   */\n      dup2\n        /* \"#utility.yul\":9188:9319   */\n      tag_223\n      jump\t// in\n    tag_261:\n        /* \"#utility.yul\":9180:9319   */\n      swap1\n      pop\n        /* \"#utility.yul\":9078:9326   */\n      swap2\n      swap1\n      pop\n      jump\t// out\n        /* \"#utility.yul\":9332:9751   */\n    tag_139:\n      0x00\n        /* \"#utility.yul\":9536:9538   */\n      0x20\n        /* \"#utility.yul\":9525:9534   */\n      dup3\n        /* \"#utility.yul\":9521:9539   */\n      add\n        /* \"#utility.yul\":9513:9539   */\n      swap1\n      pop\n        /* \"#utility.yul\":9585:9594   */\n      dup2\n        /* \"#utility.yul\":9579:9583   */\n      dup2\n        /* \"#utility.yul\":9575:9595   */\n      sub\n        /* \"#utility.yul\":9571:9572   */\n      0x00\n        /* \"#utility.yul\":9560:9569   */\n      dup4\n        /* \"#utility.yul\":9556:9573   */\n      add\n        /* \"#utility.yul\":9549:9596   */\n      mstore\n        /* \"#utility.yul\":9613:9744   */\n      tag_263\n        /* \"#utility.yul\":9739:9743   */\n      dup2\n        /* \"#utility.yul\":9613:9744   */\n      tag_228\n      jump\t// in\n    tag_263:\n        /* \"#utility.yul\":9605:9744   */\n      swap1\n      pop\n        /* \"#utility.yul\":9503:9751   */\n      swap2\n      swap1\n      pop\n      jump\t// out\n        /* \"#utility.yul\":9757:9979   */\n    tag_23:\n      0x00\n        /* \"#utility.yul\":9888:9890   */\n      0x20\n        /* \"#utility.yul\":9877:9886   */\n      dup3\n        /* \"#utility.yul\":9873:9891   */\n      add\n        /* \"#utility.yul\":9865:9891   */\n      swap1\n      pop\n        /* \"#utility.yul\":9901:9972   */\n      tag_265\n        /* \"#utility.yul\":9969:9970   */\n      0x00\n        /* \"#utility.yul\":9958:9967   */\n      dup4\n        /* \"#utility.yul\":9954:9971   */\n      add\n        /* \"#utility.yul\":9945:9951   */\n      dup5\n        /* \"#utility.yul\":9901:9972   */\n      tag_233\n      jump\t// in\n    tag_265:\n        /* \"#utility.yul\":9855:9979   */\n      swap3\n      swap2\n      pop\n      pop\n      jump\t// out\n        /* \"#utility.yul\":9985:10154   */\n    tag_195:\n      0x00\n        /* \"#utility.yul\":10103:10109   */\n      dup3\n        /* \"#utility.yul\":10098:10101   */\n      dup3\n        /* \"#utility.yul\":10091:10110   */\n      mstore\n        /* \"#utility.yul\":10143:10147   */\n      0x20\n        /* \"#utility.yul\":10138:10141   */\n      dup3\n        /* \"#utility.yul\":10134:10148   */\n      add\n        /* \"#utility.yul\":10119:10148   */\n      swap1\n      pop\n        /* \"#utility.yul\":10081:10154   */\n      swap3\n      swap2\n      pop\n      pop\n      jump\t// out\n        /* \"#utility.yul\":10160:10465   */\n    tag_142:\n      0x00\n        /* \"#utility.yul\":10219:10239   */\n      tag_268\n        /* \"#utility.yul\":10237:10238   */\n      dup3\n        /* \"#utility.yul\":10219:10239   */\n      tag_236\n      jump\t// in\n    tag_268:\n        /* \"#utility.yul\":10214:10239   */\n      swap2\n      pop\n        /* \"#utility.yul\":10253:10273   */\n      tag_269\n        /* \"#utility.yul\":10271:10272   */\n      dup4\n        /* \"#utility.yul\":10253:10273   */\n      tag_236\n      jump\t// in\n    tag_269:\n        /* \"#utility.yul\":10248:10273   */\n      swap3\n      pop\n        /* \"#utility.yul\":10407:10408   */\n      dup3\n        /* \"#utility.yul\":10339:10405   */\n      0xffffffffffffffffffffffffffffffffffffffffffffffffffffffffffffffff\n        /* \"#utility.yul\":10335:10409   */\n      sub\n        /* \"#utility.yul\":10332:10333   */\n      dup3\n        /* \"#utility.yul\":10329:10410   */\n      gt\n        /* \"#utility.yul\":10326:10328   */\n      iszero\n      tag_270\n      jumpi\n        /* \"#utility.yul\":10413:10431   */\n      tag_271\n      tag_272\n      jump\t// in\n    tag_271:\n        /* \"#utility.yul\":10326:10328   */\n    tag_270:\n        /* \"#utility.yul\":10457:10458   */\n      dup3\n        /* \"#utility.yul\":10454:10455   */\n      dup3\n        /* \"#utility.yul\":10450:10459   */\n      add\n        /* \"#utility.yul\":10443:10459   */\n      swap1\n      pop\n        /* \"#utility.yul\":10204:10465   */\n      swap3\n      swap2\n      pop\n      pop\n      jump\t// out\n        /* \"#utility.yul\":10471:10662   */\n    tag_145:\n      0x00\n        /* \"#utility.yul\":10531:10551   */\n      tag_274\n        /* \"#utility.yul\":10549:10550   */\n      dup3\n        /* \"#utility.yul\":10531:10551   */\n      tag_236\n      jump\t// in\n    tag_274:\n        /* \"#utility.yul\":10526:10551   */\n      swap2\n      pop\n        /* \"#utility.yul\":10565:10585   */\n      tag_275\n        /* \"#utility.yul\":10583:10584   */\n      dup4\n        /* \"#utility.yul\":10565:10585   */\n      tag_236\n      jump\t// in\n    tag_275:\n        /* \"#utility.yul\":10560:10585   */\n      swap3\n      pop\n        /* \"#utility.yul\":10604:10605   */\n      dup3\n        /* \"#utility.yul\":10601:10602   */\n      dup3\n        /* \"#utility.yul\":10598:10606   */\n      lt\n        /* \"#utility.yul\":10595:10597   */\n      iszero\n      tag_276\n      jumpi\n        /* \"#utility.yul\":10609:10627   */\n      tag_277\n      tag_272\n      jump\t// in\n    tag_277:\n        /* \"#utility.yul\":10595:10597   */\n    tag_276:\n        /* \"#utility.yul\":10654:10655   */\n      dup3\n        /* \"#utility.yul\":10651:10652   */\n      dup3\n        /* \"#utility.yul\":10647:10656   */\n      sub\n        /* \"#utility.yul\":10639:10656   */\n      swap1\n      pop\n        /* \"#utility.yul\":10516:10662   */\n      swap3\n      swap2\n      pop\n      pop\n      jump\t// out\n        /* \"#utility.yul\":10668:10764   */\n    tag_187:\n      0x00\n        /* \"#utility.yul\":10734:10758   */\n      tag_279\n        /* \"#utility.yul\":10752:10757   */\n      dup3\n        /* \"#utility.yul\":10734:10758   */\n      tag_280\n      jump\t// in\n    tag_279:\n        /* \"#utility.yul\":10723:10758   */\n      swap1\n      pop\n        /* \"#utility.yul\":10713:10764   */\n      swap2\n      swap1\n      pop\n      jump\t// out\n        /* \"#utility.yul\":10770:10860   */\n    tag_281:\n      0x00\n        /* \"#utility.yul\":10847:10852   */\n      dup2\n        /* \"#utility.yul\":10840:10853   */\n      iszero\n        /* \"#utility.yul\":10833:10854   */\n      iszero\n        /* \"#utility.yul\":10822:10854   */\n      swap1\n      pop\n        /* \"#utility.yul\":10812:10860   */\n      swap2\n      swap1\n      pop\n      jump\t// out\n        /* \"#utility.yul\":10866:10992   */\n    tag_280:\n      0x00\n        /* \"#utility.yul\":10943:10985   */\n      0xffffffffffffffffffffffffffffffffffffffff\n        /* \"#utility.yul\":10936:10941   */\n      dup3\n        /* \"#utility.yul\":10932:10986   */\n      and\n        /* \"#utility.yul\":10921:10986   */\n      swap1\n      pop\n        /* \"#utility.yul\":10911:10992   */\n      swap2\n      swap1\n      pop\n      jump\t// out\n        /* \"#utility.yul\":10998:11075   */\n    tag_236:\n      0x00\n        /* \"#utility.yul\":11064:11069   */\n      dup2\n        /* \"#utility.yul\":11053:11069   */\n      swap1\n      pop\n        /* \"#utility.yul\":11043:11075   */\n      swap2\n      swap1\n      pop\n      jump\t// out\n        /* \"#utility.yul\":11081:11235   */\n    tag_191:\n      0x00\n        /* \"#utility.yul\":11178:11229   */\n      tag_286\n        /* \"#utility.yul\":11223:11228   */\n      dup3\n        /* \"#utility.yul\":11178:11229   */\n      tag_287\n      jump\t// in\n    tag_286:\n        /* \"#utility.yul\":11165:11229   */\n      swap1\n      pop\n        /* \"#utility.yul\":11155:11235   */\n      swap2\n      swap1\n      pop\n      jump\t// out\n        /* \"#utility.yul\":11241:11368   */\n    tag_287:\n      0x00\n        /* \"#utility.yul\":11338:11362   */\n      tag_289\n        /* \"#utility.yul\":11356:11361   */\n      dup3\n        /* \"#utility.yul\":11338:11362   */\n      tag_280\n      jump\t// in\n    tag_289:\n        /* \"#utility.yul\":11325:11362   */\n      swap1\n      pop\n        /* \"#utility.yul\":11315:11368   */\n      swap2\n      swap1\n      pop\n      jump\t// out\n        /* \"#utility.yul\":11374:11554   */\n    tag_272:\n        /* \"#utility.yul\":11422:11499   */\n      0x4e487b7100000000000000000000000000000000000000000000000000000000\n        /* \"#utility.yul\":11419:11420   */\n      0x00\n        /* \"#utility.yul\":11412:11500   */\n      mstore\n        /* \"#utility.yul\":11519:11523   */\n      0x11\n        /* \"#utility.yul\":11516:11517   */\n      0x04\n        /* \"#utility.yul\":11509:11524   */\n      mstore\n        /* \"#utility.yul\":11543:11547   */\n      0x24\n        /* \"#utility.yul\":11540:11541   */\n      0x00\n        /* \"#utility.yul\":11533:11548   */\n      revert\n        /* \"#utility.yul\":11560:11716   */\n    tag_197:\n        /* \"#utility.yul\":11700:11708   */\n      0x4c6f636b65640000000000000000000000000000000000000000000000000000\n        /* \"#utility.yul\":11696:11697   */\n      0x00\n        /* \"#utility.yul\":11688:11694   */\n      dup3\n        /* \"#utility.yul\":11684:11698   */\n      add\n        /* \"#utility.yul\":11677:11709   */\n      mstore\n        /* \"#utility.yul\":11666:11716   */\n      pop\n      jump\t// out\n        /* \"#utility.yul\":11722:11947   */\n    tag_202:\n        /* \"#utility.yul\":11862:11896   */\n      0x4f776e61626c653a206e6577206f776e657220697320746865207a65726f2061\n        /* \"#utility.yul\":11858:11859   */\n      0x00\n        /* \"#utility.yul\":11850:11856   */\n      dup3\n        /* \"#utility.yul\":11846:11860   */\n      add\n        /* \"#utility.yul\":11839:11897   */\n      mstore\n        /* \"#utility.yul\":11931:11939   */\n      0x6464726573730000000000000000000000000000000000000000000000000000\n        /* \"#utility.yul\":11926:11928   */\n      0x20\n        /* \"#utility.yul\":11918:11924   */\n      dup3\n        /* \"#utility.yul\":11914:11929   */\n      add\n        /* \"#utility.yul\":11907:11940   */\n      mstore\n        /* \"#utility.yul\":11828:11947   */\n      pop\n      jump\t// out\n        /* \"#utility.yul\":11953:12123   */\n    tag_207:\n        /* \"#utility.yul\":12093:12115   */\n      0x496e73756666696369656e742062616c616e6365000000000000000000000000\n        /* \"#utility.yul\":12089:12090   */\n      0x00\n        /* \"#utility.yul\":12081:12087   */\n      dup3\n        /* \"#utility.yul\":12077:12091   */\n      add\n        /* \"#utility.yul\":12070:12116   */\n      mstore\n        /* \"#utility.yul\":12059:12123   */\n      pop\n      jump\t// out\n        /* \"#utility.yul\":12129:12300   */\n    tag_212:\n        /* \"#utility.yul\":12269:12292   */\n      0x546f6b656e207472616e73666572206661696c65640000000000000000000000\n        /* \"#utility.yul\":12265:12266   */\n      0x00\n        /* \"#utility.yul\":12257:12263   */\n      dup3\n        /* \"#utility.yul\":12253:12267   */\n      add\n        /* \"#utility.yul\":12246:12293   */\n      mstore\n        /* \"#utility.yul\":12235:12300   */\n      pop\n      jump\t// out\n        /* \"#utility.yul\":12306:12527   */\n    tag_217:\n        /* \"#utility.yul\":12446:12480   */\n      0x416d6f756e742073686f756c642062652067726561746572207468616e207a65\n        /* \"#utility.yul\":12442:12443   */\n      0x00\n        /* \"#utility.yul\":12434:12440   */\n      dup3\n        /* \"#utility.yul\":12430:12444   */\n      add\n        /* \"#utility.yul\":12423:12481   */\n      mstore\n        /* \"#utility.yul\":12515:12519   */\n      0x726f000000000000000000000000000000000000000000000000000000000000\n        /* \"#utility.yul\":12510:12512   */\n      0x20\n        /* \"#utility.yul\":12502:12508   */\n      dup3\n        /* \"#utility.yul\":12498:12513   */\n      add\n        /* \"#utility.yul\":12491:12520   */\n      mstore\n        /* \"#utility.yul\":12412:12527   */\n      pop\n      jump\t// out\n        /* \"#utility.yul\":12533:12715   */\n    tag_222:\n        /* \"#utility.yul\":12673:12707   */\n      0x4f776e61626c653a2063616c6c6572206973206e6f7420746865206f776e6572\n        /* \"#utility.yul\":12669:12670   */\n      0x00\n        /* \"#utility.yul\":12661:12667   */\n      dup3\n        /* \"#utility.yul\":12657:12671   */\n      add\n        /* \"#utility.yul\":12650:12708   */\n      mstore\n        /* \"#utility.yul\":12639:12715   */\n      pop\n      jump\t// out\n        /* \"#utility.yul\":12721:12964   */\n    tag_227:\n        /* \"#utility.yul\":12861:12895   */\n      0x416d6f756e742073686f756c642062652067726561746572207468616e206f72\n        /* \"#utility.yul\":12857:12858   */\n      0x00\n        /* \"#utility.yul\":12849:12855   */\n      dup3\n        /* \"#utility.yul\":12845:12859   */\n      add\n        /* \"#utility.yul\":12838:12896   */\n      mstore\n        /* \"#utility.yul\":12930:12956   */\n      0x20657175616c20746f206d696e5374616b65416d6f756e740000000000000000\n        /* \"#utility.yul\":12925:12927   */\n      0x20\n        /* \"#utility.yul\":12917:12923   */\n      dup3\n        /* \"#utility.yul\":12913:12928   */\n      add\n        /* \"#utility.yul\":12906:12957   */\n      mstore\n        /* \"#utility.yul\":12827:12964   */\n      pop\n      jump\t// out\n        /* \"#utility.yul\":12970:13151   */\n    tag_232:\n        /* \"#utility.yul\":13110:13143   */\n      0x5265656e7472616e637947756172643a207265656e7472616e742063616c6c00\n        /* \"#utility.yul\":13106:13107   */\n      0x00\n        /* \"#utility.yul\":13098:13104   */\n      dup3\n        /* \"#utility.yul\":13094:13108   */\n      add\n        /* \"#utility.yul\":13087:13144   */\n      mstore\n        /* \"#utility.yul\":13076:13151   */\n      pop\n      jump\t// out\n        /* \"#utility.yul\":13157:13279   */\n    tag_160:\n        /* \"#utility.yul\":13230:13254   */\n      tag_300\n        /* \"#utility.yul\":13248:13253   */\n      dup2\n        /* \"#utility.yul\":13230:13254   */\n      tag_187\n      jump\t// in\n    tag_300:\n        /* \"#utility.yul\":13223:13228   */\n      dup2\n        /* \"#utility.yul\":13220:13255   */\n      eq\n        /* \"#utility.yul\":13210:13212   */\n      tag_301\n      jumpi\n        /* \"#utility.yul\":13269:13270   */\n      0x00\n        /* \"#utility.yul\":13266:13267   */\n      dup1\n        /* \"#utility.yul\":13259:13271   */\n      revert\n        /* \"#utility.yul\":13210:13212   */\n    tag_301:\n        /* \"#utility.yul\":13200:13279   */\n      pop\n      jump\t// out\n        /* \"#utility.yul\":13285:13401   */\n    tag_164:\n        /* \"#utility.yul\":13355:13376   */\n      tag_303\n        /* \"#utility.yul\":13370:13375   */\n      dup2\n        /* \"#utility.yul\":13355:13376   */\n      tag_281\n      jump\t// in\n    tag_303:\n        /* \"#utility.yul\":13348:13353   */\n      dup2\n        /* \"#utility.yul\":13345:13377   */\n      eq\n        /* \"#utility.yul\":13335:13337   */\n      tag_304\n      jumpi\n        /* \"#utility.yul\":13391:13392   */\n      0x00\n        /* \"#utility.yul\":13388:13389   */\n      dup1\n        /* \"#utility.yul\":13381:13393   */\n      revert\n        /* \"#utility.yul\":13335:13337   */\n    tag_304:\n        /* \"#utility.yul\":13325:13401   */\n      pop\n      jump\t// out\n        /* \"#utility.yul\":13407:13529   */\n    tag_168:\n        /* \"#utility.yul\":13480:13504   */\n      tag_306\n        /* \"#utility.yul\":13498:13503   */\n      dup2\n        /* \"#utility.yul\":13480:13504   */\n      tag_236\n      jump\t// in\n    tag_306:\n        /* \"#utility.yul\":13473:13478   */\n      dup2\n        /* \"#utility.yul\":13470:13505   */\n      eq\n        /* \"#utility.yul\":13460:13462   */\n      tag_307\n      jumpi\n        /* \"#utility.yul\":13519:13520   */\n      0x00\n        /* \"#utility.yul\":13516:13517   */\n      dup1\n        /* \"#utility.yul\":13509:13521   */\n      revert\n        /* \"#utility.yul\":13460:13462   */\n    tag_307:\n        /* \"#utility.yul\":13450:13529   */\n      pop\n      jump\t// out\n\n    auxdata: 0xa26469706673582212205a7eb1be02e17b958334044928017b4c2fc53b643ea1a13a1d93bfbd855ae96a64736f6c63430008010033\n}\n",
				"bytecode": {
					"linkReferences": {},
					"object": "60806040523480156200001157600080fd5b5060405162001648380380620016488339818101604052810190620000379190620001b0565b620000576200004b620000b660201b60201c565b620000be60201b60201c565b6001808190555082600260006101000a81548173ffffffffffffffffffffffffffffffffffffffff021916908373ffffffffffffffffffffffffffffffffffffffff160217905550816006819055508060048190555050505062000278565b600033905090565b60008060009054906101000a900473ffffffffffffffffffffffffffffffffffffffff169050816000806101000a81548173ffffffffffffffffffffffffffffffffffffffff021916908373ffffffffffffffffffffffffffffffffffffffff1602179055508173ffffffffffffffffffffffffffffffffffffffff168173ffffffffffffffffffffffffffffffffffffffff167f8be0079c531659141344cd1fd0a4f28419497f9722a3daafe3b4186f6b6457e060405160405180910390a35050565b600081519050620001938162000244565b92915050565b600081519050620001aa816200025e565b92915050565b600080600060608486031215620001c657600080fd5b6000620001d68682870162000182565b9350506020620001e98682870162000199565b9250506040620001fc8682870162000199565b9150509250925092565b600062000213826200021a565b9050919050565b600073ffffffffffffffffffffffffffffffffffffffff82169050919050565b6000819050919050565b6200024f8162000206565b81146200025b57600080fd5b50565b62000269816200023a565b81146200027557600080fd5b50565b6113c080620002886000396000f3fe608060405234801561001057600080fd5b50600436106100cf5760003560e01c806394409a561161008c578063ee947a7c11610066578063ee947a7c146101ec578063f18876841461020a578063f2fde38b14610228578063fc0c546a14610244576100cf565b806394409a5614610196578063a694fc3a146101b4578063eb4af045146101d0576100cf565b806327e235e3146100d4578063583d42fd146101045780635d3eea9114610134578063715018a614610150578063817b1cd21461015a5780638da5cb5b14610178575b600080fd5b6100ee60048036038101906100e99190610cbb565b610262565b6040516100fb919061103a565b60405180910390f35b61011e60048036038101906101199190610cbb565b61027a565b60405161012b919061103a565b60405180910390f35b61014e60048036038101906101499190610d0d565b610292565b005b61015861058e565b005b6101626105a2565b60405161016f919061103a565b60405180910390f35b610180610654565b60405161018d9190610ea4565b60405180910390f35b61019e61067d565b6040516101ab919061103a565b60405180910390f35b6101ce60048036038101906101c99190610d0d565b610683565b005b6101ea60048036038101906101e59190610d0d565b61098c565b005b6101f46109e2565b604051610201919061103a565b60405180910390f35b6102126109e8565b60405161021f919061103a565b60405180910390f35b610242600480360381019061023d9190610cbb565b6109ee565b005b61024c610a72565b6040516102599190610f1f565b60405180910390f35b60076020528060005260406000206000915090505481565b60056020528060005260406000206000915090505481565b61029a610a98565b6102ee600454600560003373ffffffffffffffffffffffffffffffffffffffff1673ffffffffffffffffffffffffffffffffffffffff16815260200190815260200160002054610ae890919063ffffffff16565b421015610330576040517f08c379a000000000000000000000000000000000000000000000000000000000815260040161032790610f3a565b60405180910390fd5b80600760003373ffffffffffffffffffffffffffffffffffffffff1673ffffffffffffffffffffffffffffffffffffffff1681526020019081526020016000205410156103b2576040517f08c379a00000000000000000000000000000000000000000000000000000000081526004016103a990610f7a565b60405180910390fd5b600260009054906101000a900473ffffffffffffffffffffffffffffffffffffffff1673ffffffffffffffffffffffffffffffffffffffff1663a9059cbb33836040518363ffffffff1660e01b815260040161040f929190610ef6565b602060405180830381600087803b15801561042957600080fd5b505af115801561043d573d6000803e3d6000fd5b505050506040513d601f19601f820116820180604052508101906104619190610ce4565b6104a0576040517f08c379a000000000000000000000000000000000000000000000000000000000815260040161049790610f9a565b60405180910390fd5b6104f281600760003373ffffffffffffffffffffffffffffffffffffffff1673ffffffffffffffffffffffffffffffffffffffff16815260200190815260200160002054610afe90919063ffffffff16565b600760003373ffffffffffffffffffffffffffffffffffffffff1673ffffffffffffffffffffffffffffffffffffffff168152602001908152602001600020819055503373ffffffffffffffffffffffffffffffffffffffff167fb24546d975e2628748efc9aced80665e0fad66272033e5c0ea25fd3afac997958260405161057b919061103a565b60405180910390a261058b610b14565b50565b610596610b1d565b6105a06000610b9b565b565b6000600260009054906101000a900473ffffffffffffffffffffffffffffffffffffffff1673ffffffffffffffffffffffffffffffffffffffff166370a08231306040518263ffffffff1660e01b81526004016105ff9190610ea4565b60206040518083038186803b15801561061757600080fd5b505afa15801561062b573d6000803e3d6000fd5b505050506040513d601f19601f8201168201806040525081019061064f9190610d36565b905090565b60008060009054906101000a900473ffffffffffffffffffffffffffffffffffffffff16905090565b60035481565b61068b610a98565b6006546106e082600760003373ffffffffffffffffffffffffffffffffffffffff1673ffffffffffffffffffffffffffffffffffffffff16815260200190815260200160002054610ae890919063ffffffff16565b1015610721576040517f08c379a000000000000000000000000000000000000000000000000000000000815260040161071890610ffa565b60405180910390fd5b600260009054906101000a900473ffffffffffffffffffffffffffffffffffffffff1673ffffffffffffffffffffffffffffffffffffffff166323b872dd3330846040518463ffffffff1660e01b815260040161078093929190610ebf565b602060405180830381600087803b15801561079a57600080fd5b505af11580156107ae573d6000803e3d6000fd5b505050506040513d601f19601f820116820180604052508101906107d29190610ce4565b610811576040517f08c379a000000000000000000000000000000000000000000000000000000000815260040161080890610f9a565b60405180910390fd5b61086381600760003373ffffffffffffffffffffffffffffffffffffffff1673ffffffffffffffffffffffffffffffffffffffff16815260200190815260200160002054610ae890919063ffffffff16565b600760003373ffffffffffffffffffffffffffffffffffffffff1673ffffffffffffffffffffffffffffffffffffffff168152602001908152602001600020819055506000600560003373ffffffffffffffffffffffffffffffffffffffff1673ffffffffffffffffffffffffffffffffffffffff1681526020019081526020016000205414156109335742600560003373ffffffffffffffffffffffffffffffffffffffff1673ffffffffffffffffffffffffffffffffffffffff168152602001908152602001600020819055505b3373ffffffffffffffffffffffffffffffffffffffff167febedb8b3c678666e7f36970bc8f57abf6d8fa2e828c0da91ea5b75bf68ed101a82604051610979919061103a565b60405180910390a2610989610b14565b50565b610994610b1d565b60008110156109d8576040517f08c379a00000000000000000000000000000000000000000000000000000000081526004016109cf90610fba565b60405180910390fd5b8060068190555050565b60045481565b60065481565b6109f6610b1d565b600073ffffffffffffffffffffffffffffffffffffffff168173ffffffffffffffffffffffffffffffffffffffff161415610a66576040517f08c379a0000000000000000000000000000000000000000000000000000000008152600401610a5d90610f5a565b60405180910390fd5b610a6f81610b9b565b50565b600260009054906101000a900473ffffffffffffffffffffffffffffffffffffffff1681565b60026001541415610ade576040517f08c379a0000000000000000000000000000000000000000000000000000000008152600401610ad59061101a565b60405180910390fd5b6002600181905550565b60008183610af69190611066565b905092915050565b60008183610b0c91906110bc565b905092915050565b60018081905550565b610b25610c5f565b73ffffffffffffffffffffffffffffffffffffffff16610b43610654565b73ffffffffffffffffffffffffffffffffffffffff1614610b99576040517f08c379a0000000000000000000000000000000000000000000000000000000008152600401610b9090610fda565b60405180910390fd5b565b60008060009054906101000a900473ffffffffffffffffffffffffffffffffffffffff169050816000806101000a81548173ffffffffffffffffffffffffffffffffffffffff021916908373ffffffffffffffffffffffffffffffffffffffff1602179055508173ffffffffffffffffffffffffffffffffffffffff168173ffffffffffffffffffffffffffffffffffffffff167f8be0079c531659141344cd1fd0a4f28419497f9722a3daafe3b4186f6b6457e060405160405180910390a35050565b600033905090565b600081359050610c7681611345565b92915050565b600081519050610c8b8161135c565b92915050565b600081359050610ca081611373565b92915050565b600081519050610cb581611373565b92915050565b600060208284031215610ccd57600080fd5b6000610cdb84828501610c67565b91505092915050565b600060208284031215610cf657600080fd5b6000610d0484828501610c7c565b91505092915050565b600060208284031215610d1f57600080fd5b6000610d2d84828501610c91565b91505092915050565b600060208284031215610d4857600080fd5b6000610d5684828501610ca6565b91505092915050565b610d68816110f0565b82525050565b610d7781611138565b82525050565b6000610d8a600683611055565b9150610d958261118b565b602082019050919050565b6000610dad602683611055565b9150610db8826111b4565b604082019050919050565b6000610dd0601483611055565b9150610ddb82611203565b602082019050919050565b6000610df3601583611055565b9150610dfe8261122c565b602082019050919050565b6000610e16602283611055565b9150610e2182611255565b604082019050919050565b6000610e39602083611055565b9150610e44826112a4565b602082019050919050565b6000610e5c603883611055565b9150610e67826112cd565b604082019050919050565b6000610e7f601f83611055565b9150610e8a8261131c565b602082019050919050565b610e9e8161112e565b82525050565b6000602082019050610eb96000830184610d5f565b92915050565b6000606082019050610ed46000830186610d5f565b610ee16020830185610d5f565b610eee6040830184610e95565b949350505050565b6000604082019050610f0b6000830185610d5f565b610f186020830184610e95565b9392505050565b6000602082019050610f346000830184610d6e565b92915050565b60006020820190508181036000830152610f5381610d7d565b9050919050565b60006020820190508181036000830152610f7381610da0565b9050919050565b60006020820190508181036000830152610f9381610dc3565b9050919050565b60006020820190508181036000830152610fb381610de6565b9050919050565b60006020820190508181036000830152610fd381610e09565b9050919050565b60006020820190508181036000830152610ff381610e2c565b9050919050565b6000602082019050818103600083015261101381610e4f565b9050919050565b6000602082019050818103600083015261103381610e72565b9050919050565b600060208201905061104f6000830184610e95565b92915050565b600082825260208201905092915050565b60006110718261112e565b915061107c8361112e565b9250827fffffffffffffffffffffffffffffffffffffffffffffffffffffffffffffffff038211156110b1576110b061115c565b5b828201905092915050565b60006110c78261112e565b91506110d28361112e565b9250828210156110e5576110e461115c565b5b828203905092915050565b60006110fb8261110e565b9050919050565b60008115159050919050565b600073ffffffffffffffffffffffffffffffffffffffff82169050919050565b6000819050919050565b60006111438261114a565b9050919050565b60006111558261110e565b9050919050565b7f4e487b7100000000000000000000000000000000000000000000000000000000600052601160045260246000fd5b7f4c6f636b65640000000000000000000000000000000000000000000000000000600082015250565b7f4f776e61626c653a206e6577206f776e657220697320746865207a65726f206160008201527f6464726573730000000000000000000000000000000000000000000000000000602082015250565b7f496e73756666696369656e742062616c616e6365000000000000000000000000600082015250565b7f546f6b656e207472616e73666572206661696c65640000000000000000000000600082015250565b7f416d6f756e742073686f756c642062652067726561746572207468616e207a6560008201527f726f000000000000000000000000000000000000000000000000000000000000602082015250565b7f4f776e61626c653a2063616c6c6572206973206e6f7420746865206f776e6572600082015250565b7f416d6f756e742073686f756c642062652067726561746572207468616e206f7260008201527f20657175616c20746f206d696e5374616b65416d6f756e740000000000000000602082015250565b7f5265656e7472616e637947756172643a207265656e7472616e742063616c6c00600082015250565b61134e816110f0565b811461135957600080fd5b50565b61136581611102565b811461137057600080fd5b50565b61137c8161112e565b811461138757600080fd5b5056fea26469706673582212205a7eb1be02e17b958334044928017b4c2fc53b643ea1a13a1d93bfbd855ae96a64736f6c63430008010033",
					"opcodes": "PUSH1 0x80 PUSH1 0x40 MSTORE CALLVALUE DUP1 ISZERO PUSH3 0x11 JUMPI PUSH1 0x0 DUP1 REVERT JUMPDEST POP PUSH1 0x40 MLOAD PUSH3 0x1648 CODESIZE SUB DUP1 PUSH3 0x1648 DUP4 CODECOPY DUP2 DUP2 ADD PUSH1 0x40 MSTORE DUP2 ADD SWAP1 PUSH3 0x37 SWAP2 SWAP1 PUSH3 0x1B0 JUMP JUMPDEST PUSH3 0x57 PUSH3 0x4B PUSH3 0xB6 PUSH1 0x20 SHL PUSH1 0x20 SHR JUMP JUMPDEST PUSH3 0xBE PUSH1 0x20 SHL PUSH1 0x20 SHR JUMP JUMPDEST PUSH1 0x1 DUP1 DUP2 SWAP1 SSTORE POP DUP3 PUSH1 0x2 PUSH1 0x0 PUSH2 0x100 EXP DUP2 SLOAD DUP2 PUSH20 0xFFFFFFFFFFFFFFFFFFFFFFFFFFFFFFFFFFFFFFFF MUL NOT AND SWAP1 DUP4 PUSH20 0xFFFFFFFFFFFFFFFFFFFFFFFFFFFFFFFFFFFFFFFF AND MUL OR SWAP1 SSTORE POP DUP2 PUSH1 0x6 DUP2 SWAP1 SSTORE POP DUP1 PUSH1 0x4 DUP2 SWAP1 SSTORE POP POP POP POP PUSH3 0x278 JUMP JUMPDEST PUSH1 0x0 CALLER SWAP1 POP SWAP1 JUMP JUMPDEST PUSH1 0x0 DUP1 PUSH1 0x0 SWAP1 SLOAD SWAP1 PUSH2 0x100 EXP SWAP1 DIV PUSH20 0xFFFFFFFFFFFFFFFFFFFFFFFFFFFFFFFFFFFFFFFF AND SWAP1 POP DUP2 PUSH1 0x0 DUP1 PUSH2 0x100 EXP DUP2 SLOAD DUP2 PUSH20 0xFFFFFFFFFFFFFFFFFFFFFFFFFFFFFFFFFFFFFFFF MUL NOT AND SWAP1 DUP4 PUSH20 0xFFFFFFFFFFFFFFFFFFFFFFFFFFFFFFFFFFFFFFFF AND MUL OR SWAP1 SSTORE POP DUP2 PUSH20 0xFFFFFFFFFFFFFFFFFFFFFFFFFFFFFFFFFFFFFFFF AND DUP2 PUSH20 0xFFFFFFFFFFFFFFFFFFFFFFFFFFFFFFFFFFFFFFFF AND PUSH32 0x8BE0079C531659141344CD1FD0A4F28419497F9722A3DAAFE3B4186F6B6457E0 PUSH1 0x40 MLOAD PUSH1 0x40 MLOAD DUP1 SWAP2 SUB SWAP1 LOG3 POP POP JUMP JUMPDEST PUSH1 0x0 DUP2 MLOAD SWAP1 POP PUSH3 0x193 DUP2 PUSH3 0x244 JUMP JUMPDEST SWAP3 SWAP2 POP POP JUMP JUMPDEST PUSH1 0x0 DUP2 MLOAD SWAP1 POP PUSH3 0x1AA DUP2 PUSH3 0x25E JUMP JUMPDEST SWAP3 SWAP2 POP POP JUMP JUMPDEST PUSH1 0x0 DUP1 PUSH1 0x0 PUSH1 0x60 DUP5 DUP7 SUB SLT ISZERO PUSH3 0x1C6 JUMPI PUSH1 0x0 DUP1 REVERT JUMPDEST PUSH1 0x0 PUSH3 0x1D6 DUP7 DUP3 DUP8 ADD PUSH3 0x182 JUMP JUMPDEST SWAP4 POP POP PUSH1 0x20 PUSH3 0x1E9 DUP7 DUP3 DUP8 ADD PUSH3 0x199 JUMP JUMPDEST SWAP3 POP POP PUSH1 0x40 PUSH3 0x1FC DUP7 DUP3 DUP8 ADD PUSH3 0x199 JUMP JUMPDEST SWAP2 POP POP SWAP3 POP SWAP3 POP SWAP3 JUMP JUMPDEST PUSH1 0x0 PUSH3 0x213 DUP3 PUSH3 0x21A JUMP JUMPDEST SWAP1 POP SWAP2 SWAP1 POP JUMP JUMPDEST PUSH1 0x0 PUSH20 0xFFFFFFFFFFFFFFFFFFFFFFFFFFFFFFFFFFFFFFFF DUP3 AND SWAP1 POP SWAP2 SWAP1 POP JUMP JUMPDEST PUSH1 0x0 DUP2 SWAP1 POP SWAP2 SWAP1 POP JUMP JUMPDEST PUSH3 0x24F DUP2 PUSH3 0x206 JUMP JUMPDEST DUP2 EQ PUSH3 0x25B JUMPI PUSH1 0x0 DUP1 REVERT JUMPDEST POP JUMP JUMPDEST PUSH3 0x269 DUP2 PUSH3 0x23A JUMP JUMPDEST DUP2 EQ PUSH3 0x275 JUMPI PUSH1 0x0 DUP1 REVERT JUMPDEST POP JUMP JUMPDEST PUSH2 0x13C0 DUP1 PUSH3 0x288 PUSH1 0x0 CODECOPY PUSH1 0x0 RETURN INVALID PUSH1 0x80 PUSH1 0x40 MSTORE CALLVALUE DUP1 ISZERO PUSH2 0x10 JUMPI PUSH1 0x0 DUP1 REVERT JUMPDEST POP PUSH1 0x4 CALLDATASIZE LT PUSH2 0xCF JUMPI PUSH1 0x0 CALLDATALOAD PUSH1 0xE0 SHR DUP1 PUSH4 0x94409A56 GT PUSH2 0x8C JUMPI DUP1 PUSH4 0xEE947A7C GT PUSH2 0x66 JUMPI DUP1 PUSH4 0xEE947A7C EQ PUSH2 0x1EC JUMPI DUP1 PUSH4 0xF1887684 EQ PUSH2 0x20A JUMPI DUP1 PUSH4 0xF2FDE38B EQ PUSH2 0x228 JUMPI DUP1 PUSH4 0xFC0C546A EQ PUSH2 0x244 JUMPI PUSH2 0xCF JUMP JUMPDEST DUP1 PUSH4 0x94409A56 EQ PUSH2 0x196 JUMPI DUP1 PUSH4 0xA694FC3A EQ PUSH2 0x1B4 JUMPI DUP1 PUSH4 0xEB4AF045 EQ PUSH2 0x1D0 JUMPI PUSH2 0xCF JUMP JUMPDEST DUP1 PUSH4 0x27E235E3 EQ PUSH2 0xD4 JUMPI DUP1 PUSH4 0x583D42FD EQ PUSH2 0x104 JUMPI DUP1 PUSH4 0x5D3EEA91 EQ PUSH2 0x134 JUMPI DUP1 PUSH4 0x715018A6 EQ PUSH2 0x150 JUMPI DUP1 PUSH4 0x817B1CD2 EQ PUSH2 0x15A JUMPI DUP1 PUSH4 0x8DA5CB5B EQ PUSH2 0x178 JUMPI JUMPDEST PUSH1 0x0 DUP1 REVERT JUMPDEST PUSH2 0xEE PUSH1 0x4 DUP1 CALLDATASIZE SUB DUP2 ADD SWAP1 PUSH2 0xE9 SWAP2 SWAP1 PUSH2 0xCBB JUMP JUMPDEST PUSH2 0x262 JUMP JUMPDEST PUSH1 0x40 MLOAD PUSH2 0xFB SWAP2 SWAP1 PUSH2 0x103A JUMP JUMPDEST PUSH1 0x40 MLOAD DUP1 SWAP2 SUB SWAP1 RETURN JUMPDEST PUSH2 0x11E PUSH1 0x4 DUP1 CALLDATASIZE SUB DUP2 ADD SWAP1 PUSH2 0x119 SWAP2 SWAP1 PUSH2 0xCBB JUMP JUMPDEST PUSH2 0x27A JUMP JUMPDEST PUSH1 0x40 MLOAD PUSH2 0x12B SWAP2 SWAP1 PUSH2 0x103A JUMP JUMPDEST PUSH1 0x40 MLOAD DUP1 SWAP2 SUB SWAP1 RETURN JUMPDEST PUSH2 0x14E PUSH1 0x4 DUP1 CALLDATASIZE SUB DUP2 ADD SWAP1 PUSH2 0x149 SWAP2 SWAP1 PUSH2 0xD0D JUMP JUMPDEST PUSH2 0x292 JUMP JUMPDEST STOP JUMPDEST PUSH2 0x158 PUSH2 0x58E JUMP JUMPDEST STOP JUMPDEST PUSH2 0x162 PUSH2 0x5A2 JUMP JUMPDEST PUSH1 0x40 MLOAD PUSH2 0x16F SWAP2 SWAP1 PUSH2 0x103A JUMP JUMPDEST PUSH1 0x40 MLOAD DUP1 SWAP2 SUB SWAP1 RETURN JUMPDEST PUSH2 0x180 PUSH2 0x654 JUMP JUMPDEST PUSH1 0x40 MLOAD PUSH2 0x18D SWAP2 SWAP1 PUSH2 0xEA4 JUMP JUMPDEST PUSH1 0x40 MLOAD DUP1 SWAP2 SUB SWAP1 RETURN JUMPDEST PUSH2 0x19E PUSH2 0x67D JUMP JUMPDEST PUSH1 0x40 MLOAD PUSH2 0x1AB SWAP2 SWAP1 PUSH2 0x103A JUMP JUMPDEST PUSH1 0x40 MLOAD DUP1 SWAP2 SUB SWAP1 RETURN JUMPDEST PUSH2 0x1CE PUSH1 0x4 DUP1 CALLDATASIZE SUB DUP2 ADD SWAP1 PUSH2 0x1C9 SWAP2 SWAP1 PUSH2 0xD0D JUMP JUMPDEST PUSH2 0x683 JUMP JUMPDEST STOP JUMPDEST PUSH2 0x1EA PUSH1 0x4 DUP1 CALLDATASIZE SUB DUP2 ADD SWAP1 PUSH2 0x1E5 SWAP2 SWAP1 PUSH2 0xD0D JUMP JUMPDEST PUSH2 0x98C JUMP JUMPDEST STOP JUMPDEST PUSH2 0x1F4 PUSH2 0x9E2 JUMP JUMPDEST PUSH1 0x40 MLOAD PUSH2 0x201 SWAP2 SWAP1 PUSH2 0x103A JUMP JUMPDEST PUSH1 0x40 MLOAD DUP1 SWAP2 SUB SWAP1 RETURN JUMPDEST PUSH2 0x212 PUSH2 0x9E8 JUMP JUMPDEST PUSH1 0x40 MLOAD PUSH2 0x21F SWAP2 SWAP1 PUSH2 0x103A JUMP JUMPDEST PUSH1 0x40 MLOAD DUP1 SWAP2 SUB SWAP1 RETURN JUMPDEST PUSH2 0x242 PUSH1 0x4 DUP1 CALLDATASIZE SUB DUP2 ADD SWAP1 PUSH2 0x23D SWAP2 SWAP1 PUSH2 0xCBB JUMP JUMPDEST PUSH2 0x9EE JUMP JUMPDEST STOP JUMPDEST PUSH2 0x24C PUSH2 0xA72 JUMP JUMPDEST PUSH1 0x40 MLOAD PUSH2 0x259 SWAP2 SWAP1 PUSH2 0xF1F JUMP JUMPDEST PUSH1 0x40 MLOAD DUP1 SWAP2 SUB SWAP1 RETURN JUMPDEST PUSH1 0x7 PUSH1 0x20 MSTORE DUP1 PUSH1 0x0 MSTORE PUSH1 0x40 PUSH1 0x0 KECCAK256 PUSH1 0x0 SWAP2 POP SWAP1 POP SLOAD DUP2 JUMP JUMPDEST PUSH1 0x5 PUSH1 0x20 MSTORE DUP1 PUSH1 0x0 MSTORE PUSH1 0x40 PUSH1 0x0 KECCAK256 PUSH1 0x0 SWAP2 POP SWAP1 POP SLOAD DUP2 JUMP JUMPDEST PUSH2 0x29A PUSH2 0xA98 JUMP JUMPDEST PUSH2 0x2EE PUSH1 0x4 SLOAD PUSH1 0x5 PUSH1 0x0 CALLER PUSH20 0xFFFFFFFFFFFFFFFFFFFFFFFFFFFFFFFFFFFFFFFF AND PUSH20 0xFFFFFFFFFFFFFFFFFFFFFFFFFFFFFFFFFFFFFFFF AND DUP2 MSTORE PUSH1 0x20 ADD SWAP1 DUP2 MSTORE PUSH1 0x20 ADD PUSH1 0x0 KECCAK256 SLOAD PUSH2 0xAE8 SWAP1 SWAP2 SWAP1 PUSH4 0xFFFFFFFF AND JUMP JUMPDEST TIMESTAMP LT ISZERO PUSH2 0x330 JUMPI PUSH1 0x40 MLOAD PUSH32 0x8C379A000000000000000000000000000000000000000000000000000000000 DUP2 MSTORE PUSH1 0x4 ADD PUSH2 0x327 SWAP1 PUSH2 0xF3A JUMP JUMPDEST PUSH1 0x40 MLOAD DUP1 SWAP2 SUB SWAP1 REVERT JUMPDEST DUP1 PUSH1 0x7 PUSH1 0x0 CALLER PUSH20 0xFFFFFFFFFFFFFFFFFFFFFFFFFFFFFFFFFFFFFFFF AND PUSH20 0xFFFFFFFFFFFFFFFFFFFFFFFFFFFFFFFFFFFFFFFF AND DUP2 MSTORE PUSH1 0x20 ADD SWAP1 DUP2 MSTORE PUSH1 0x20 ADD PUSH1 0x0 KECCAK256 SLOAD LT ISZERO PUSH2 0x3B2 JUMPI PUSH1 0x40 MLOAD PUSH32 0x8C379A000000000000000000000000000000000000000000000000000000000 DUP2 MSTORE PUSH1 0x4 ADD PUSH2 0x3A9 SWAP1 PUSH2 0xF7A JUMP JUMPDEST PUSH1 0x40 MLOAD DUP1 SWAP2 SUB SWAP1 REVERT JUMPDEST PUSH1 0x2 PUSH1 0x0 SWAP1 SLOAD SWAP1 PUSH2 0x100 EXP SWAP1 DIV PUSH20 0xFFFFFFFFFFFFFFFFFFFFFFFFFFFFFFFFFFFFFFFF AND PUSH20 0xFFFFFFFFFFFFFFFFFFFFFFFFFFFFFFFFFFFFFFFF AND PUSH4 0xA9059CBB CALLER DUP4 PUSH1 0x40 MLOAD DUP4 PUSH4 0xFFFFFFFF AND PUSH1 0xE0 SHL DUP2 MSTORE PUSH1 0x4 ADD PUSH2 0x40F SWAP3 SWAP2 SWAP1 PUSH2 0xEF6 JUMP JUMPDEST PUSH1 0x20 PUSH1 0x40 MLOAD DUP1 DUP4 SUB DUP2 PUSH1 0x0 DUP8 DUP1 EXTCODESIZE ISZERO DUP1 ISZERO PUSH2 0x429 JUMPI PUSH1 0x0 DUP1 REVERT JUMPDEST POP GAS CALL ISZERO DUP1 ISZERO PUSH2 0x43D JUMPI RETURNDATASIZE PUSH1 0x0 DUP1 RETURNDATACOPY RETURNDATASIZE PUSH1 0x0 REVERT JUMPDEST POP POP POP POP PUSH1 0x40 MLOAD RETURNDATASIZE PUSH1 0x1F NOT PUSH1 0x1F DUP3 ADD AND DUP3 ADD DUP1 PUSH1 0x40 MSTORE POP DUP2 ADD SWAP1 PUSH2 0x461 SWAP2 SWAP1 PUSH2 0xCE4 JUMP JUMPDEST PUSH2 0x4A0 JUMPI PUSH1 0x40 MLOAD PUSH32 0x8C379A000000000000000000000000000000000000000000000000000000000 DUP2 MSTORE PUSH1 0x4 ADD PUSH2 0x497 SWAP1 PUSH2 0xF9A JUMP JUMPDEST PUSH1 0x40 MLOAD DUP1 SWAP2 SUB SWAP1 REVERT JUMPDEST PUSH2 0x4F2 DUP2 PUSH1 0x7 PUSH1 0x0 CALLER PUSH20 0xFFFFFFFFFFFFFFFFFFFFFFFFFFFFFFFFFFFFFFFF AND PUSH20 0xFFFFFFFFFFFFFFFFFFFFFFFFFFFFFFFFFFFFFFFF AND DUP2 MSTORE PUSH1 0x20 ADD SWAP1 DUP2 MSTORE PUSH1 0x20 ADD PUSH1 0x0 KECCAK256 SLOAD PUSH2 0xAFE SWAP1 SWAP2 SWAP1 PUSH4 0xFFFFFFFF AND JUMP JUMPDEST PUSH1 0x7 PUSH1 0x0 CALLER PUSH20 0xFFFFFFFFFFFFFFFFFFFFFFFFFFFFFFFFFFFFFFFF AND PUSH20 0xFFFFFFFFFFFFFFFFFFFFFFFFFFFFFFFFFFFFFFFF AND DUP2 MSTORE PUSH1 0x20 ADD SWAP1 DUP2 MSTORE PUSH1 0x20 ADD PUSH1 0x0 KECCAK256 DUP2 SWAP1 SSTORE POP CALLER PUSH20 0xFFFFFFFFFFFFFFFFFFFFFFFFFFFFFFFFFFFFFFFF AND PUSH32 0xB24546D975E2628748EFC9ACED80665E0FAD66272033E5C0EA25FD3AFAC99795 DUP3 PUSH1 0x40 MLOAD PUSH2 0x57B SWAP2 SWAP1 PUSH2 0x103A JUMP JUMPDEST PUSH1 0x40 MLOAD DUP1 SWAP2 SUB SWAP1 LOG2 PUSH2 0x58B PUSH2 0xB14 JUMP JUMPDEST POP JUMP JUMPDEST PUSH2 0x596 PUSH2 0xB1D JUMP JUMPDEST PUSH2 0x5A0 PUSH1 0x0 PUSH2 0xB9B JUMP JUMPDEST JUMP JUMPDEST PUSH1 0x0 PUSH1 0x2 PUSH1 0x0 SWAP1 SLOAD SWAP1 PUSH2 0x100 EXP SWAP1 DIV PUSH20 0xFFFFFFFFFFFFFFFFFFFFFFFFFFFFFFFFFFFFFFFF AND PUSH20 0xFFFFFFFFFFFFFFFFFFFFFFFFFFFFFFFFFFFFFFFF AND PUSH4 0x70A08231 ADDRESS PUSH1 0x40 MLOAD DUP3 PUSH4 0xFFFFFFFF AND PUSH1 0xE0 SHL DUP2 MSTORE PUSH1 0x4 ADD PUSH2 0x5FF SWAP2 SWAP1 PUSH2 0xEA4 JUMP JUMPDEST PUSH1 0x20 PUSH1 0x40 MLOAD DUP1 DUP4 SUB DUP2 DUP7 DUP1 EXTCODESIZE ISZERO DUP1 ISZERO PUSH2 0x617 JUMPI PUSH1 0x0 DUP1 REVERT JUMPDEST POP GAS STATICCALL ISZERO DUP1 ISZERO PUSH2 0x62B JUMPI RETURNDATASIZE PUSH1 0x0 DUP1 RETURNDATACOPY RETURNDATASIZE PUSH1 0x0 REVERT JUMPDEST POP POP POP POP PUSH1 0x40 MLOAD RETURNDATASIZE PUSH1 0x1F NOT PUSH1 0x1F DUP3 ADD AND DUP3 ADD DUP1 PUSH1 0x40 MSTORE POP DUP2 ADD SWAP1 PUSH2 0x64F SWAP2 SWAP1 PUSH2 0xD36 JUMP JUMPDEST SWAP1 POP SWAP1 JUMP JUMPDEST PUSH1 0x0 DUP1 PUSH1 0x0 SWAP1 SLOAD SWAP1 PUSH2 0x100 EXP SWAP1 DIV PUSH20 0xFFFFFFFFFFFFFFFFFFFFFFFFFFFFFFFFFFFFFFFF AND SWAP1 POP SWAP1 JUMP JUMPDEST PUSH1 0x3 SLOAD DUP2 JUMP JUMPDEST PUSH2 0x68B PUSH2 0xA98 JUMP JUMPDEST PUSH1 0x6 SLOAD PUSH2 0x6E0 DUP3 PUSH1 0x7 PUSH1 0x0 CALLER PUSH20 0xFFFFFFFFFFFFFFFFFFFFFFFFFFFFFFFFFFFFFFFF AND PUSH20 0xFFFFFFFFFFFFFFFFFFFFFFFFFFFFFFFFFFFFFFFF AND DUP2 MSTORE PUSH1 0x20 ADD SWAP1 DUP2 MSTORE PUSH1 0x20 ADD PUSH1 0x0 KECCAK256 SLOAD PUSH2 0xAE8 SWAP1 SWAP2 SWAP1 PUSH4 0xFFFFFFFF AND JUMP JUMPDEST LT ISZERO PUSH2 0x721 JUMPI PUSH1 0x40 MLOAD PUSH32 0x8C379A000000000000000000000000000000000000000000000000000000000 DUP2 MSTORE PUSH1 0x4 ADD PUSH2 0x718 SWAP1 PUSH2 0xFFA JUMP JUMPDEST PUSH1 0x40 MLOAD DUP1 SWAP2 SUB SWAP1 REVERT JUMPDEST PUSH1 0x2 PUSH1 0x0 SWAP1 SLOAD SWAP1 PUSH2 0x100 EXP SWAP1 DIV PUSH20 0xFFFFFFFFFFFFFFFFFFFFFFFFFFFFFFFFFFFFFFFF AND PUSH20 0xFFFFFFFFFFFFFFFFFFFFFFFFFFFFFFFFFFFFFFFF AND PUSH4 0x23B872DD CALLER ADDRESS DUP5 PUSH1 0x40 MLOAD DUP5 PUSH4 0xFFFFFFFF AND PUSH1 0xE0 SHL DUP2 MSTORE PUSH1 0x4 ADD PUSH2 0x780 SWAP4 SWAP3 SWAP2 SWAP1 PUSH2 0xEBF JUMP JUMPDEST PUSH1 0x20 PUSH1 0x40 MLOAD DUP1 DUP4 SUB DUP2 PUSH1 0x0 DUP8 DUP1 EXTCODESIZE ISZERO DUP1 ISZERO PUSH2 0x79A JUMPI PUSH1 0x0 DUP1 REVERT JUMPDEST POP GAS CALL ISZERO DUP1 ISZERO PUSH2 0x7AE JUMPI RETURNDATASIZE PUSH1 0x0 DUP1 RETURNDATACOPY RETURNDATASIZE PUSH1 0x0 REVERT JUMPDEST POP POP POP POP PUSH1 0x40 MLOAD RETURNDATASIZE PUSH1 0x1F NOT PUSH1 0x1F DUP3 ADD AND DUP3 ADD DUP1 PUSH1 0x40 MSTORE POP DUP2 ADD SWAP1 PUSH2 0x7D2 SWAP2 SWAP1 PUSH2 0xCE4 JUMP JUMPDEST PUSH2 0x811 JUMPI PUSH1 0x40 MLOAD PUSH32 0x8C379A000000000000000000000000000000000000000000000000000000000 DUP2 MSTORE PUSH1 0x4 ADD PUSH2 0x808 SWAP1 PUSH2 0xF9A JUMP JUMPDEST PUSH1 0x40 MLOAD DUP1 SWAP2 SUB SWAP1 REVERT JUMPDEST PUSH2 0x863 DUP2 PUSH1 0x7 PUSH1 0x0 CALLER PUSH20 0xFFFFFFFFFFFFFFFFFFFFFFFFFFFFFFFFFFFFFFFF AND PUSH20 0xFFFFFFFFFFFFFFFFFFFFFFFFFFFFFFFFFFFFFFFF AND DUP2 MSTORE PUSH1 0x20 ADD SWAP1 DUP2 MSTORE PUSH1 0x20 ADD PUSH1 0x0 KECCAK256 SLOAD PUSH2 0xAE8 SWAP1 SWAP2 SWAP1 PUSH4 0xFFFFFFFF AND JUMP JUMPDEST PUSH1 0x7 PUSH1 0x0 CALLER PUSH20 0xFFFFFFFFFFFFFFFFFFFFFFFFFFFFFFFFFFFFFFFF AND PUSH20 0xFFFFFFFFFFFFFFFFFFFFFFFFFFFFFFFFFFFFFFFF AND DUP2 MSTORE PUSH1 0x20 ADD SWAP1 DUP2 MSTORE PUSH1 0x20 ADD PUSH1 0x0 KECCAK256 DUP2 SWAP1 SSTORE POP PUSH1 0x0 PUSH1 0x5 PUSH1 0x0 CALLER PUSH20 0xFFFFFFFFFFFFFFFFFFFFFFFFFFFFFFFFFFFFFFFF AND PUSH20 0xFFFFFFFFFFFFFFFFFFFFFFFFFFFFFFFFFFFFFFFF AND DUP2 MSTORE PUSH1 0x20 ADD SWAP1 DUP2 MSTORE PUSH1 0x20 ADD PUSH1 0x0 KECCAK256 SLOAD EQ ISZERO PUSH2 0x933 JUMPI TIMESTAMP PUSH1 0x5 PUSH1 0x0 CALLER PUSH20 0xFFFFFFFFFFFFFFFFFFFFFFFFFFFFFFFFFFFFFFFF AND PUSH20 0xFFFFFFFFFFFFFFFFFFFFFFFFFFFFFFFFFFFFFFFF AND DUP2 MSTORE PUSH1 0x20 ADD SWAP1 DUP2 MSTORE PUSH1 0x20 ADD PUSH1 0x0 KECCAK256 DUP2 SWAP1 SSTORE POP JUMPDEST CALLER PUSH20 0xFFFFFFFFFFFFFFFFFFFFFFFFFFFFFFFFFFFFFFFF AND PUSH32 0xEBEDB8B3C678666E7F36970BC8F57ABF6D8FA2E828C0DA91EA5B75BF68ED101A DUP3 PUSH1 0x40 MLOAD PUSH2 0x979 SWAP2 SWAP1 PUSH2 0x103A JUMP JUMPDEST PUSH1 0x40 MLOAD DUP1 SWAP2 SUB SWAP1 LOG2 PUSH2 0x989 PUSH2 0xB14 JUMP JUMPDEST POP JUMP JUMPDEST PUSH2 0x994 PUSH2 0xB1D JUMP JUMPDEST PUSH1 0x0 DUP2 LT ISZERO PUSH2 0x9D8 JUMPI PUSH1 0x40 MLOAD PUSH32 0x8C379A000000000000000000000000000000000000000000000000000000000 DUP2 MSTORE PUSH1 0x4 ADD PUSH2 0x9CF SWAP1 PUSH2 0xFBA JUMP JUMPDEST PUSH1 0x40 MLOAD DUP1 SWAP2 SUB SWAP1 REVERT JUMPDEST DUP1 PUSH1 0x6 DUP2 SWAP1 SSTORE POP POP JUMP JUMPDEST PUSH1 0x4 SLOAD DUP2 JUMP JUMPDEST PUSH1 0x6 SLOAD DUP2 JUMP JUMPDEST PUSH2 0x9F6 PUSH2 0xB1D JUMP JUMPDEST PUSH1 0x0 PUSH20 0xFFFFFFFFFFFFFFFFFFFFFFFFFFFFFFFFFFFFFFFF AND DUP2 PUSH20 0xFFFFFFFFFFFFFFFFFFFFFFFFFFFFFFFFFFFFFFFF AND EQ ISZERO PUSH2 0xA66 JUMPI PUSH1 0x40 MLOAD PUSH32 0x8C379A000000000000000000000000000000000000000000000000000000000 DUP2 MSTORE PUSH1 0x4 ADD PUSH2 0xA5D SWAP1 PUSH2 0xF5A JUMP JUMPDEST PUSH1 0x40 MLOAD DUP1 SWAP2 SUB SWAP1 REVERT JUMPDEST PUSH2 0xA6F DUP2 PUSH2 0xB9B JUMP JUMPDEST POP JUMP JUMPDEST PUSH1 0x2 PUSH1 0x0 SWAP1 SLOAD SWAP1 PUSH2 0x100 EXP SWAP1 DIV PUSH20 0xFFFFFFFFFFFFFFFFFFFFFFFFFFFFFFFFFFFFFFFF AND DUP2 JUMP JUMPDEST PUSH1 0x2 PUSH1 0x1 SLOAD EQ ISZERO PUSH2 0xADE JUMPI PUSH1 0x40 MLOAD PUSH32 0x8C379A000000000000000000000000000000000000000000000000000000000 DUP2 MSTORE PUSH1 0x4 ADD PUSH2 0xAD5 SWAP1 PUSH2 0x101A JUMP JUMPDEST PUSH1 0x40 MLOAD DUP1 SWAP2 SUB SWAP1 REVERT JUMPDEST PUSH1 0x2 PUSH1 0x1 DUP2 SWAP1 SSTORE POP JUMP JUMPDEST PUSH1 0x0 DUP2 DUP4 PUSH2 0xAF6 SWAP2 SWAP1 PUSH2 0x1066 JUMP JUMPDEST SWAP1 POP SWAP3 SWAP2 POP POP JUMP JUMPDEST PUSH1 0x0 DUP2 DUP4 PUSH2 0xB0C SWAP2 SWAP1 PUSH2 0x10BC JUMP JUMPDEST SWAP1 POP SWAP3 SWAP2 POP POP JUMP JUMPDEST PUSH1 0x1 DUP1 DUP2 SWAP1 SSTORE POP JUMP JUMPDEST PUSH2 0xB25 PUSH2 0xC5F JUMP JUMPDEST PUSH20 0xFFFFFFFFFFFFFFFFFFFFFFFFFFFFFFFFFFFFFFFF AND PUSH2 0xB43 PUSH2 0x654 JUMP JUMPDEST PUSH20 0xFFFFFFFFFFFFFFFFFFFFFFFFFFFFFFFFFFFFFFFF AND EQ PUSH2 0xB99 JUMPI PUSH1 0x40 MLOAD PUSH32 0x8C379A000000000000000000000000000000000000000000000000000000000 DUP2 MSTORE PUSH1 0x4 ADD PUSH2 0xB90 SWAP1 PUSH2 0xFDA JUMP JUMPDEST PUSH1 0x40 MLOAD DUP1 SWAP2 SUB SWAP1 REVERT JUMPDEST JUMP JUMPDEST PUSH1 0x0 DUP1 PUSH1 0x0 SWAP1 SLOAD SWAP1 PUSH2 0x100 EXP SWAP1 DIV PUSH20 0xFFFFFFFFFFFFFFFFFFFFFFFFFFFFFFFFFFFFFFFF AND SWAP1 POP DUP2 PUSH1 0x0 DUP1 PUSH2 0x100 EXP DUP2 SLOAD DUP2 PUSH20 0xFFFFFFFFFFFFFFFFFFFFFFFFFFFFFFFFFFFFFFFF MUL NOT AND SWAP1 DUP4 PUSH20 0xFFFFFFFFFFFFFFFFFFFFFFFFFFFFFFFFFFFFFFFF AND MUL OR SWAP1 SSTORE POP DUP2 PUSH20 0xFFFFFFFFFFFFFFFFFFFFFFFFFFFFFFFFFFFFFFFF AND DUP2 PUSH20 0xFFFFFFFFFFFFFFFFFFFFFFFFFFFFFFFFFFFFFFFF AND PUSH32 0x8BE0079C531659141344CD1FD0A4F28419497F9722A3DAAFE3B4186F6B6457E0 PUSH1 0x40 MLOAD PUSH1 0x40 MLOAD DUP1 SWAP2 SUB SWAP1 LOG3 POP POP JUMP JUMPDEST PUSH1 0x0 CALLER SWAP1 POP SWAP1 JUMP JUMPDEST PUSH1 0x0 DUP2 CALLDATALOAD SWAP1 POP PUSH2 0xC76 DUP2 PUSH2 0x1345 JUMP JUMPDEST SWAP3 SWAP2 POP POP JUMP JUMPDEST PUSH1 0x0 DUP2 MLOAD SWAP1 POP PUSH2 0xC8B DUP2 PUSH2 0x135C JUMP JUMPDEST SWAP3 SWAP2 POP POP JUMP JUMPDEST PUSH1 0x0 DUP2 CALLDATALOAD SWAP1 POP PUSH2 0xCA0 DUP2 PUSH2 0x1373 JUMP JUMPDEST SWAP3 SWAP2 POP POP JUMP JUMPDEST PUSH1 0x0 DUP2 MLOAD SWAP1 POP PUSH2 0xCB5 DUP2 PUSH2 0x1373 JUMP JUMPDEST SWAP3 SWAP2 POP POP JUMP JUMPDEST PUSH1 0x0 PUSH1 0x20 DUP3 DUP5 SUB SLT ISZERO PUSH2 0xCCD JUMPI PUSH1 0x0 DUP1 REVERT JUMPDEST PUSH1 0x0 PUSH2 0xCDB DUP5 DUP3 DUP6 ADD PUSH2 0xC67 JUMP JUMPDEST SWAP2 POP POP SWAP3 SWAP2 POP POP JUMP JUMPDEST PUSH1 0x0 PUSH1 0x20 DUP3 DUP5 SUB SLT ISZERO PUSH2 0xCF6 JUMPI PUSH1 0x0 DUP1 REVERT JUMPDEST PUSH1 0x0 PUSH2 0xD04 DUP5 DUP3 DUP6 ADD PUSH2 0xC7C JUMP JUMPDEST SWAP2 POP POP SWAP3 SWAP2 POP POP JUMP JUMPDEST PUSH1 0x0 PUSH1 0x20 DUP3 DUP5 SUB SLT ISZERO PUSH2 0xD1F JUMPI PUSH1 0x0 DUP1 REVERT JUMPDEST PUSH1 0x0 PUSH2 0xD2D DUP5 DUP3 DUP6 ADD PUSH2 0xC91 JUMP JUMPDEST SWAP2 POP POP SWAP3 SWAP2 POP POP JUMP JUMPDEST PUSH1 0x0 PUSH1 0x20 DUP3 DUP5 SUB SLT ISZERO PUSH2 0xD48 JUMPI PUSH1 0x0 DUP1 REVERT JUMPDEST PUSH1 0x0 PUSH2 0xD56 DUP5 DUP3 DUP6 ADD PUSH2 0xCA6 JUMP JUMPDEST SWAP2 POP POP SWAP3 SWAP2 POP POP JUMP JUMPDEST PUSH2 0xD68 DUP2 PUSH2 0x10F0 JUMP JUMPDEST DUP3 MSTORE POP POP JUMP JUMPDEST PUSH2 0xD77 DUP2 PUSH2 0x1138 JUMP JUMPDEST DUP3 MSTORE POP POP JUMP JUMPDEST PUSH1 0x0 PUSH2 0xD8A PUSH1 0x6 DUP4 PUSH2 0x1055 JUMP JUMPDEST SWAP2 POP PUSH2 0xD95 DUP3 PUSH2 0x118B JUMP JUMPDEST PUSH1 0x20 DUP3 ADD SWAP1 POP SWAP2 SWAP1 POP JUMP JUMPDEST PUSH1 0x0 PUSH2 0xDAD PUSH1 0x26 DUP4 PUSH2 0x1055 JUMP JUMPDEST SWAP2 POP PUSH2 0xDB8 DUP3 PUSH2 0x11B4 JUMP JUMPDEST PUSH1 0x40 DUP3 ADD SWAP1 POP SWAP2 SWAP1 POP JUMP JUMPDEST PUSH1 0x0 PUSH2 0xDD0 PUSH1 0x14 DUP4 PUSH2 0x1055 JUMP JUMPDEST SWAP2 POP PUSH2 0xDDB DUP3 PUSH2 0x1203 JUMP JUMPDEST PUSH1 0x20 DUP3 ADD SWAP1 POP SWAP2 SWAP1 POP JUMP JUMPDEST PUSH1 0x0 PUSH2 0xDF3 PUSH1 0x15 DUP4 PUSH2 0x1055 JUMP JUMPDEST SWAP2 POP PUSH2 0xDFE DUP3 PUSH2 0x122C JUMP JUMPDEST PUSH1 0x20 DUP3 ADD SWAP1 POP SWAP2 SWAP1 POP JUMP JUMPDEST PUSH1 0x0 PUSH2 0xE16 PUSH1 0x22 DUP4 PUSH2 0x1055 JUMP JUMPDEST SWAP2 POP PUSH2 0xE21 DUP3 PUSH2 0x1255 JUMP JUMPDEST PUSH1 0x40 DUP3 ADD SWAP1 POP SWAP2 SWAP1 POP JUMP JUMPDEST PUSH1 0x0 PUSH2 0xE39 PUSH1 0x20 DUP4 PUSH2 0x1055 JUMP JUMPDEST SWAP2 POP PUSH2 0xE44 DUP3 PUSH2 0x12A4 JUMP JUMPDEST PUSH1 0x20 DUP3 ADD SWAP1 POP SWAP2 SWAP1 POP JUMP JUMPDEST PUSH1 0x0 PUSH2 0xE5C PUSH1 0x38 DUP4 PUSH2 0x1055 JUMP JUMPDEST SWAP2 POP PUSH2 0xE67 DUP3 PUSH2 0x12CD JUMP JUMPDEST PUSH1 0x40 DUP3 ADD SWAP1 POP SWAP2 SWAP1 POP JUMP JUMPDEST PUSH1 0x0 PUSH2 0xE7F PUSH1 0x1F DUP4 PUSH2 0x1055 JUMP JUMPDEST SWAP2 POP PUSH2 0xE8A DUP3 PUSH2 0x131C JUMP JUMPDEST PUSH1 0x20 DUP3 ADD SWAP1 POP SWAP2 SWAP1 POP JUMP JUMPDEST PUSH2 0xE9E DUP2 PUSH2 0x112E JUMP JUMPDEST DUP3 MSTORE POP POP JUMP JUMPDEST PUSH1 0x0 PUSH1 0x20 DUP3 ADD SWAP1 POP PUSH2 0xEB9 PUSH1 0x0 DUP4 ADD DUP5 PUSH2 0xD5F JUMP JUMPDEST SWAP3 SWAP2 POP POP JUMP JUMPDEST PUSH1 0x0 PUSH1 0x60 DUP3 ADD SWAP1 POP PUSH2 0xED4 PUSH1 0x0 DUP4 ADD DUP7 PUSH2 0xD5F JUMP JUMPDEST PUSH2 0xEE1 PUSH1 0x20 DUP4 ADD DUP6 PUSH2 0xD5F JUMP JUMPDEST PUSH2 0xEEE PUSH1 0x40 DUP4 ADD DUP5 PUSH2 0xE95 JUMP JUMPDEST SWAP5 SWAP4 POP POP POP POP JUMP JUMPDEST PUSH1 0x0 PUSH1 0x40 DUP3 ADD SWAP1 POP PUSH2 0xF0B PUSH1 0x0 DUP4 ADD DUP6 PUSH2 0xD5F JUMP JUMPDEST PUSH2 0xF18 PUSH1 0x20 DUP4 ADD DUP5 PUSH2 0xE95 JUMP JUMPDEST SWAP4 SWAP3 POP POP POP JUMP JUMPDEST PUSH1 0x0 PUSH1 0x20 DUP3 ADD SWAP1 POP PUSH2 0xF34 PUSH1 0x0 DUP4 ADD DUP5 PUSH2 0xD6E JUMP JUMPDEST SWAP3 SWAP2 POP POP JUMP JUMPDEST PUSH1 0x0 PUSH1 0x20 DUP3 ADD SWAP1 POP DUP2 DUP2 SUB PUSH1 0x0 DUP4 ADD MSTORE PUSH2 0xF53 DUP2 PUSH2 0xD7D JUMP JUMPDEST SWAP1 POP SWAP2 SWAP1 POP JUMP JUMPDEST PUSH1 0x0 PUSH1 0x20 DUP3 ADD SWAP1 POP DUP2 DUP2 SUB PUSH1 0x0 DUP4 ADD MSTORE PUSH2 0xF73 DUP2 PUSH2 0xDA0 JUMP JUMPDEST SWAP1 POP SWAP2 SWAP1 POP JUMP JUMPDEST PUSH1 0x0 PUSH1 0x20 DUP3 ADD SWAP1 POP DUP2 DUP2 SUB PUSH1 0x0 DUP4 ADD MSTORE PUSH2 0xF93 DUP2 PUSH2 0xDC3 JUMP JUMPDEST SWAP1 POP SWAP2 SWAP1 POP JUMP JUMPDEST PUSH1 0x0 PUSH1 0x20 DUP3 ADD SWAP1 POP DUP2 DUP2 SUB PUSH1 0x0 DUP4 ADD MSTORE PUSH2 0xFB3 DUP2 PUSH2 0xDE6 JUMP JUMPDEST SWAP1 POP SWAP2 SWAP1 POP JUMP JUMPDEST PUSH1 0x0 PUSH1 0x20 DUP3 ADD SWAP1 POP DUP2 DUP2 SUB PUSH1 0x0 DUP4 ADD MSTORE PUSH2 0xFD3 DUP2 PUSH2 0xE09 JUMP JUMPDEST SWAP1 POP SWAP2 SWAP1 POP JUMP JUMPDEST PUSH1 0x0 PUSH1 0x20 DUP3 ADD SWAP1 POP DUP2 DUP2 SUB PUSH1 0x0 DUP4 ADD MSTORE PUSH2 0xFF3 DUP2 PUSH2 0xE2C JUMP JUMPDEST SWAP1 POP SWAP2 SWAP1 POP JUMP JUMPDEST PUSH1 0x0 PUSH1 0x20 DUP3 ADD SWAP1 POP DUP2 DUP2 SUB PUSH1 0x0 DUP4 ADD MSTORE PUSH2 0x1013 DUP2 PUSH2 0xE4F JUMP JUMPDEST SWAP1 POP SWAP2 SWAP1 POP JUMP JUMPDEST PUSH1 0x0 PUSH1 0x20 DUP3 ADD SWAP1 POP DUP2 DUP2 SUB PUSH1 0x0 DUP4 ADD MSTORE PUSH2 0x1033 DUP2 PUSH2 0xE72 JUMP JUMPDEST SWAP1 POP SWAP2 SWAP1 POP JUMP JUMPDEST PUSH1 0x0 PUSH1 0x20 DUP3 ADD SWAP1 POP PUSH2 0x104F PUSH1 0x0 DUP4 ADD DUP5 PUSH2 0xE95 JUMP JUMPDEST SWAP3 SWAP2 POP POP JUMP JUMPDEST PUSH1 0x0 DUP3 DUP3 MSTORE PUSH1 0x20 DUP3 ADD SWAP1 POP SWAP3 SWAP2 POP POP JUMP JUMPDEST PUSH1 0x0 PUSH2 0x1071 DUP3 PUSH2 0x112E JUMP JUMPDEST SWAP2 POP PUSH2 0x107C DUP4 PUSH2 0x112E JUMP JUMPDEST SWAP3 POP DUP3 PUSH32 0xFFFFFFFFFFFFFFFFFFFFFFFFFFFFFFFFFFFFFFFFFFFFFFFFFFFFFFFFFFFFFFFF SUB DUP3 GT ISZERO PUSH2 0x10B1 JUMPI PUSH2 0x10B0 PUSH2 0x115C JUMP JUMPDEST JUMPDEST DUP3 DUP3 ADD SWAP1 POP SWAP3 SWAP2 POP POP JUMP JUMPDEST PUSH1 0x0 PUSH2 0x10C7 DUP3 PUSH2 0x112E JUMP JUMPDEST SWAP2 POP PUSH2 0x10D2 DUP4 PUSH2 0x112E JUMP JUMPDEST SWAP3 POP DUP3 DUP3 LT ISZERO PUSH2 0x10E5 JUMPI PUSH2 0x10E4 PUSH2 0x115C JUMP JUMPDEST JUMPDEST DUP3 DUP3 SUB SWAP1 POP SWAP3 SWAP2 POP POP JUMP JUMPDEST PUSH1 0x0 PUSH2 0x10FB DUP3 PUSH2 0x110E JUMP JUMPDEST SWAP1 POP SWAP2 SWAP1 POP JUMP JUMPDEST PUSH1 0x0 DUP2 ISZERO ISZERO SWAP1 POP SWAP2 SWAP1 POP JUMP JUMPDEST PUSH1 0x0 PUSH20 0xFFFFFFFFFFFFFFFFFFFFFFFFFFFFFFFFFFFFFFFF DUP3 AND SWAP1 POP SWAP2 SWAP1 POP JUMP JUMPDEST PUSH1 0x0 DUP2 SWAP1 POP SWAP2 SWAP1 POP JUMP JUMPDEST PUSH1 0x0 PUSH2 0x1143 DUP3 PUSH2 0x114A JUMP JUMPDEST SWAP1 POP SWAP2 SWAP1 POP JUMP JUMPDEST PUSH1 0x0 PUSH2 0x1155 DUP3 PUSH2 0x110E JUMP JUMPDEST SWAP1 POP SWAP2 SWAP1 POP JUMP JUMPDEST PUSH32 0x4E487B7100000000000000000000000000000000000000000000000000000000 PUSH1 0x0 MSTORE PUSH1 0x11 PUSH1 0x4 MSTORE PUSH1 0x24 PUSH1 0x0 REVERT JUMPDEST PUSH32 0x4C6F636B65640000000000000000000000000000000000000000000000000000 PUSH1 0x0 DUP3 ADD MSTORE POP JUMP JUMPDEST PUSH32 0x4F776E61626C653A206E6577206F776E657220697320746865207A65726F2061 PUSH1 0x0 DUP3 ADD MSTORE PUSH32 0x6464726573730000000000000000000000000000000000000000000000000000 PUSH1 0x20 DUP3 ADD MSTORE POP JUMP JUMPDEST PUSH32 0x496E73756666696369656E742062616C616E6365000000000000000000000000 PUSH1 0x0 DUP3 ADD MSTORE POP JUMP JUMPDEST PUSH32 0x546F6B656E207472616E73666572206661696C65640000000000000000000000 PUSH1 0x0 DUP3 ADD MSTORE POP JUMP JUMPDEST PUSH32 0x416D6F756E742073686F756C642062652067726561746572207468616E207A65 PUSH1 0x0 DUP3 ADD MSTORE PUSH32 0x726F000000000000000000000000000000000000000000000000000000000000 PUSH1 0x20 DUP3 ADD MSTORE POP JUMP JUMPDEST PUSH32 0x4F776E61626C653A2063616C6C6572206973206E6F7420746865206F776E6572 PUSH1 0x0 DUP3 ADD MSTORE POP JUMP JUMPDEST PUSH32 0x416D6F756E742073686F756C642062652067726561746572207468616E206F72 PUSH1 0x0 DUP3 ADD MSTORE PUSH32 0x20657175616C20746F206D696E5374616B65416D6F756E740000000000000000 PUSH1 0x20 DUP3 ADD MSTORE POP JUMP JUMPDEST PUSH32 0x5265656E7472616E637947756172643A207265656E7472616E742063616C6C00 PUSH1 0x0 DUP3 ADD MSTORE POP JUMP JUMPDEST PUSH2 0x134E DUP2 PUSH2 0x10F0 JUMP JUMPDEST DUP2 EQ PUSH2 0x1359 JUMPI PUSH1 0x0 DUP1 REVERT JUMPDEST POP JUMP JUMPDEST PUSH2 0x1365 DUP2 PUSH2 0x1102 JUMP JUMPDEST DUP2 EQ PUSH2 0x1370 JUMPI PUSH1 0x0 DUP1 REVERT JUMPDEST POP JUMP JUMPDEST PUSH2 0x137C DUP2 PUSH2 0x112E JUMP JUMPDEST DUP2 EQ PUSH2 0x1387 JUMPI PUSH1 0x0 DUP1 REVERT JUMPDEST POP JUMP INVALID LOG2 PUSH5 0x6970667358 0x22 SLT KECCAK256 GAS PUSH31 0xB1BE02E17B958334044928017B4C2FC53B643EA1A13A1D93BFBD855AE96A64 PUSH20 0x6F6C634300080100330000000000000000000000 "
				},
				"gasEstimates": {
					"creation": {
						"codeDepositCost": "1011200",
						"executionCost": "infinite",
						"totalCost": "infinite"
					},
					"external": {
						"balances(address)": "1515",
						"lockupPeriod()": "1151",
						"minStakeAmount()": "1173",
						"owner()": "1333",
						"renounceOwnership()": "24465",
						"setMinStakeAmount(uint256)": "21477",
						"stake(uint256)": "infinite",
						"stakingTime(address)": "1537",
						"token()": "1345",
						"totalStakeAmount()": "1152",
						"totalStaked()": "infinite",
						"transferOwnership(address)": "24813",
						"unStake(uint256)": "infinite"
					}
				},
				"methodIdentifiers": {
					"balances(address)": "27e235e3",
					"lockupPeriod()": "ee947a7c",
					"minStakeAmount()": "f1887684",
					"owner()": "8da5cb5b",
					"renounceOwnership()": "715018a6",
					"setMinStakeAmount(uint256)": "eb4af045",
					"stake(uint256)": "a694fc3a",
					"stakingTime(address)": "583d42fd",
					"token()": "fc0c546a",
					"totalStakeAmount()": "94409a56",
					"totalStaked()": "817b1cd2",
					"transferOwnership(address)": "f2fde38b",
					"unStake(uint256)": "5d3eea91"
				}
			},
			"storageLayout": {
				"storage": [
					{
						"astId": 7,
						"contract": "SLStaking.sol:SLStakingPool",
						"label": "_owner",
						"offset": 0,
						"slot": "0",
						"type": "t_address"
					},
					{
						"astId": 123,
						"contract": "SLStaking.sol:SLStakingPool",
						"label": "_status",
						"offset": 0,
						"slot": "1",
						"type": "t_uint256"
					},
					{
						"astId": 594,
						"contract": "SLStaking.sol:SLStakingPool",
						"label": "token",
						"offset": 0,
						"slot": "2",
						"type": "t_contract(IERC20)244"
					},
					{
						"astId": 596,
						"contract": "SLStaking.sol:SLStakingPool",
						"label": "totalStakeAmount",
						"offset": 0,
						"slot": "3",
						"type": "t_uint256"
					},
					{
						"astId": 598,
						"contract": "SLStaking.sol:SLStakingPool",
						"label": "lockupPeriod",
						"offset": 0,
						"slot": "4",
						"type": "t_uint256"
					},
					{
						"astId": 602,
						"contract": "SLStaking.sol:SLStakingPool",
						"label": "stakingTime",
						"offset": 0,
						"slot": "5",
						"type": "t_mapping(t_address,t_uint256)"
					},
					{
						"astId": 604,
						"contract": "SLStaking.sol:SLStakingPool",
						"label": "minStakeAmount",
						"offset": 0,
						"slot": "6",
						"type": "t_uint256"
					},
					{
						"astId": 608,
						"contract": "SLStaking.sol:SLStakingPool",
						"label": "balances",
						"offset": 0,
						"slot": "7",
						"type": "t_mapping(t_address,t_uint256)"
					}
				],
				"types": {
					"t_address": {
						"encoding": "inplace",
						"label": "address",
						"numberOfBytes": "20"
					},
					"t_contract(IERC20)244": {
						"encoding": "inplace",
						"label": "contract IERC20",
						"numberOfBytes": "20"
					},
					"t_mapping(t_address,t_uint256)": {
						"encoding": "mapping",
						"key": "t_address",
						"label": "mapping(address => uint256)",
						"numberOfBytes": "32",
						"value": "t_uint256"
					},
					"t_uint256": {
						"encoding": "inplace",
						"label": "uint256",
						"numberOfBytes": "32"
					}
				}
			},
			"userdoc": {
				"kind": "user",
				"methods": {},
				"version": 1
			}
		}
	}
}