{
	"Defi/ClubStaking.sol": {
		"ClubStakingPool": {
			"abi": [
				{
					"inputs": [
						{
							"internalType": "address",
							"name": "_tokenAddress",
							"type": "address"
						},
						{
							"internalType": "uint256",
							"name": "_minStakeAmount",
							"type": "uint256"
						},
						{
							"internalType": "uint256",
							"name": "_lockupPeriod",
							"type": "uint256"
						},
						{
							"internalType": "uint256",
							"name": "_maxAmount",
							"type": "uint256"
						}
					],
					"stateMutability": "nonpayable",
					"type": "constructor"
				},
				{
					"anonymous": false,
					"inputs": [
						{
							"indexed": true,
							"internalType": "address",
							"name": "previousOwner",
							"type": "address"
						},
						{
							"indexed": true,
							"internalType": "address",
							"name": "newOwner",
							"type": "address"
						}
					],
					"name": "OwnershipTransferred",
					"type": "event"
				},
				{
					"anonymous": false,
					"inputs": [
						{
							"indexed": true,
							"internalType": "address",
							"name": "user",
							"type": "address"
						},
						{
							"indexed": false,
							"internalType": "uint256",
							"name": "amount",
							"type": "uint256"
						},
						{
							"indexed": false,
							"internalType": "bool",
							"name": "isClub",
							"type": "bool"
						}
					],
					"name": "Stake",
					"type": "event"
				},
				{
					"anonymous": false,
					"inputs": [
						{
							"indexed": true,
							"internalType": "address",
							"name": "user",
							"type": "address"
						},
						{
							"indexed": false,
							"internalType": "uint256",
							"name": "amount",
							"type": "uint256"
						},
						{
							"indexed": false,
							"internalType": "bool",
							"name": "isClub",
							"type": "bool"
						}
					],
					"name": "UnStake",
					"type": "event"
				},
				{
					"inputs": [
						{
							"internalType": "address",
							"name": "_address",
							"type": "address"
						}
					],
					"name": "balanceOf",
					"outputs": [
						{
							"internalType": "uint256",
							"name": "",
							"type": "uint256"
						}
					],
					"stateMutability": "view",
					"type": "function"
				},
				{
					"inputs": [
						{
							"internalType": "address",
							"name": "",
							"type": "address"
						}
					],
					"name": "balances",
					"outputs": [
						{
							"internalType": "uint256",
							"name": "",
							"type": "uint256"
						}
					],
					"stateMutability": "view",
					"type": "function"
				},
				{
					"inputs": [
						{
							"internalType": "address",
							"name": "",
							"type": "address"
						}
					],
					"name": "isClub",
					"outputs": [
						{
							"internalType": "bool",
							"name": "",
							"type": "bool"
						}
					],
					"stateMutability": "view",
					"type": "function"
				},
				{
					"inputs": [],
					"name": "lockupPeriod",
					"outputs": [
						{
							"internalType": "uint256",
							"name": "",
							"type": "uint256"
						}
					],
					"stateMutability": "view",
					"type": "function"
				},
				{
					"inputs": [],
					"name": "maxAmount",
					"outputs": [
						{
							"internalType": "uint256",
							"name": "",
							"type": "uint256"
						}
					],
					"stateMutability": "view",
					"type": "function"
				},
				{
					"inputs": [],
					"name": "minStakeAmount",
					"outputs": [
						{
							"internalType": "uint256",
							"name": "",
							"type": "uint256"
						}
					],
					"stateMutability": "view",
					"type": "function"
				},
				{
					"inputs": [],
					"name": "owner",
					"outputs": [
						{
							"internalType": "address",
							"name": "",
							"type": "address"
						}
					],
					"stateMutability": "view",
					"type": "function"
				},
				{
					"inputs": [],
					"name": "renounceOwnership",
					"outputs": [],
					"stateMutability": "nonpayable",
					"type": "function"
				},
				{
					"inputs": [
						{
							"internalType": "uint256",
							"name": "_lockupPeriod",
							"type": "uint256"
						}
					],
					"name": "setLockupPeriod",
					"outputs": [],
					"stateMutability": "nonpayable",
					"type": "function"
				},
				{
					"inputs": [
						{
							"internalType": "uint256",
							"name": "_maxAmount",
							"type": "uint256"
						}
					],
					"name": "setMaxAmount",
					"outputs": [],
					"stateMutability": "nonpayable",
					"type": "function"
				},
				{
					"inputs": [
						{
							"internalType": "uint256",
							"name": "_amount",
							"type": "uint256"
						}
					],
					"name": "setMinStakeAmount",
					"outputs": [],
					"stateMutability": "nonpayable",
					"type": "function"
				},
				{
					"inputs": [
						{
							"internalType": "uint256",
							"name": "_stakingStartTime",
							"type": "uint256"
						}
					],
					"name": "setStakingStartTime",
					"outputs": [],
					"stateMutability": "nonpayable",
					"type": "function"
				},
				{
					"inputs": [
						{
							"internalType": "uint256",
							"name": "_amount",
							"type": "uint256"
						}
					],
					"name": "stake",
					"outputs": [],
					"stateMutability": "nonpayable",
					"type": "function"
				},
				{
					"inputs": [],
					"name": "stakingStartTime",
					"outputs": [
						{
							"internalType": "uint256",
							"name": "",
							"type": "uint256"
						}
					],
					"stateMutability": "view",
					"type": "function"
				},
				{
					"inputs": [
						{
							"internalType": "address",
							"name": "",
							"type": "address"
						}
					],
					"name": "stakingTime",
					"outputs": [
						{
							"internalType": "uint256",
							"name": "",
							"type": "uint256"
						}
					],
					"stateMutability": "view",
					"type": "function"
				},
				{
					"inputs": [],
					"name": "token",
					"outputs": [
						{
							"internalType": "contract IERC20",
							"name": "",
							"type": "address"
						}
					],
					"stateMutability": "view",
					"type": "function"
				},
				{
					"inputs": [],
					"name": "totalStakeAmount",
					"outputs": [
						{
							"internalType": "uint256",
							"name": "",
							"type": "uint256"
						}
					],
					"stateMutability": "view",
					"type": "function"
				},
				{
					"inputs": [
						{
							"internalType": "address",
							"name": "newOwner",
							"type": "address"
						}
					],
					"name": "transferOwnership",
					"outputs": [],
					"stateMutability": "nonpayable",
					"type": "function"
				},
				{
					"inputs": [
						{
							"internalType": "uint256",
							"name": "_amount",
							"type": "uint256"
						}
					],
					"name": "unStake",
					"outputs": [],
					"stateMutability": "nonpayable",
					"type": "function"
				}
			],
			"devdoc": {
				"kind": "dev",
				"methods": {
					"owner()": {
						"details": "Returns the address of the current owner."
					},
					"renounceOwnership()": {
						"details": "Leaves the contract without owner. It will not be possible to call `onlyOwner` functions anymore. Can only be called by the current owner. NOTE: Renouncing ownership will leave the contract without an owner, thereby removing any functionality that is only available to the owner."
					},
					"transferOwnership(address)": {
						"details": "Transfers ownership of the contract to a new account (`newOwner`). Can only be called by the current owner."
					}
				},
				"version": 1
			},
			"evm": {
				"assembly": "    /* \"Defi/ClubStaking.sol\":290:3888  contract ClubStakingPool is Ownable, ReentrancyGuard {... */\n  mstore(0x40, 0x80)\n    /* \"Defi/ClubStaking.sol\":1307:1588  constructor(address _tokenAddress, uint256 _minStakeAmount,uint256 _lockupPeriod,uint256 _maxAmount) {... */\n  callvalue\n  dup1\n  iszero\n  tag_1\n  jumpi\n  0x00\n  dup1\n  revert\ntag_1:\n  pop\n  mload(0x40)\n  sub(codesize, bytecodeSize)\n  dup1\n  bytecodeSize\n  dup4\n  codecopy\n  dup2\n  dup2\n  add\n  0x40\n  mstore\n  dup2\n  add\n  swap1\n  tag_2\n  swap2\n  swap1\n  tag_3\n  jump\t// in\ntag_2:\n    /* \"@openzeppelin/contracts/access/Ownable.sol\":936:968  _transferOwnership(_msgSender()) */\n  tag_8\n    /* \"@openzeppelin/contracts/access/Ownable.sol\":955:967  _msgSender() */\n  tag_9\n    /* \"@openzeppelin/contracts/access/Ownable.sol\":955:965  _msgSender */\n  shl(0x20, tag_10)\n    /* \"@openzeppelin/contracts/access/Ownable.sol\":955:967  _msgSender() */\n  0x20\n  shr\n  jump\t// in\ntag_9:\n    /* \"@openzeppelin/contracts/access/Ownable.sol\":936:954  _transferOwnership */\n  shl(0x20, tag_11)\n    /* \"@openzeppelin/contracts/access/Ownable.sol\":936:968  _transferOwnership(_msgSender()) */\n  0x20\n  shr\n  jump\t// in\ntag_8:\n    /* \"@openzeppelin/contracts/security/ReentrancyGuard.sol\":1716:1717  1 */\n  0x01\n    /* \"@openzeppelin/contracts/security/ReentrancyGuard.sol\":1821:1828  _status */\n  dup1\n    /* \"@openzeppelin/contracts/security/ReentrancyGuard.sol\":1821:1843  _status = _NOT_ENTERED */\n  dup2\n  swap1\n  sstore\n  pop\n    /* \"Defi/ClubStaking.sol\":1429:1442  _tokenAddress */\n  dup4\n    /* \"Defi/ClubStaking.sol\":1414:1419  token */\n  0x02\n  0x00\n    /* \"Defi/ClubStaking.sol\":1414:1443  token = IERC20(_tokenAddress) */\n  0x0100\n  exp\n  dup2\n  sload\n  dup2\n  0xffffffffffffffffffffffffffffffffffffffff\n  mul\n  not\n  and\n  swap1\n  dup4\n  0xffffffffffffffffffffffffffffffffffffffff\n  and\n  mul\n  or\n  swap1\n  sstore\n  pop\n    /* \"Defi/ClubStaking.sol\":1466:1481  _minStakeAmount */\n  dup3\n    /* \"Defi/ClubStaking.sol\":1449:1463  minStakeAmount */\n  0x08\n    /* \"Defi/ClubStaking.sol\":1449:1481  minStakeAmount = _minStakeAmount */\n  dup2\n  swap1\n  sstore\n  pop\n    /* \"Defi/ClubStaking.sol\":1502:1515  _lockupPeriod */\n  dup2\n    /* \"Defi/ClubStaking.sol\":1487:1499  lockupPeriod */\n  0x04\n    /* \"Defi/ClubStaking.sol\":1487:1515  lockupPeriod = _lockupPeriod */\n  dup2\n  swap1\n  sstore\n  pop\n    /* \"Defi/ClubStaking.sol\":1533:1543  _maxAmount */\n  dup1\n    /* \"Defi/ClubStaking.sol\":1521:1530  maxAmount */\n  0x03\n    /* \"Defi/ClubStaking.sol\":1521:1543  maxAmount = _maxAmount */\n  dup2\n  swap1\n  sstore\n  pop\n    /* \"Defi/ClubStaking.sol\":1568:1583  block.timestamp */\n  timestamp\n    /* \"Defi/ClubStaking.sol\":1549:1565  stakingStartTime */\n  0x05\n    /* \"Defi/ClubStaking.sol\":1549:1583  stakingStartTime = block.timestamp */\n  dup2\n  swap1\n  sstore\n  pop\n    /* \"Defi/ClubStaking.sol\":1307:1588  constructor(address _tokenAddress, uint256 _minStakeAmount,uint256 _lockupPeriod,uint256 _maxAmount) {... */\n  pop\n  pop\n  pop\n  pop\n    /* \"Defi/ClubStaking.sol\":290:3888  contract ClubStakingPool is Ownable, ReentrancyGuard {... */\n  jump(tag_14)\n    /* \"@openzeppelin/contracts/utils/Context.sol\":640:736  function _msgSender() internal view virtual returns (address) {... */\ntag_10:\n    /* \"@openzeppelin/contracts/utils/Context.sol\":693:700  address */\n  0x00\n    /* \"@openzeppelin/contracts/utils/Context.sol\":719:729  msg.sender */\n  caller\n    /* \"@openzeppelin/contracts/utils/Context.sol\":712:729  return msg.sender */\n  swap1\n  pop\n    /* \"@openzeppelin/contracts/utils/Context.sol\":640:736  function _msgSender() internal view virtual returns (address) {... */\n  swap1\n  jump\t// out\n    /* \"@openzeppelin/contracts/access/Ownable.sol\":2433:2620  function _transferOwnership(address newOwner) internal virtual {... */\ntag_11:\n    /* \"@openzeppelin/contracts/access/Ownable.sol\":2506:2522  address oldOwner */\n  0x00\n    /* \"@openzeppelin/contracts/access/Ownable.sol\":2525:2531  _owner */\n  dup1\n  0x00\n  swap1\n  sload\n  swap1\n  0x0100\n  exp\n  swap1\n  div\n  0xffffffffffffffffffffffffffffffffffffffff\n  and\n    /* \"@openzeppelin/contracts/access/Ownable.sol\":2506:2531  address oldOwner = _owner */\n  swap1\n  pop\n    /* \"@openzeppelin/contracts/access/Ownable.sol\":2550:2558  newOwner */\n  dup2\n    /* \"@openzeppelin/contracts/access/Ownable.sol\":2541:2547  _owner */\n  0x00\n  dup1\n    /* \"@openzeppelin/contracts/access/Ownable.sol\":2541:2558  _owner = newOwner */\n  0x0100\n  exp\n  dup2\n  sload\n  dup2\n  0xffffffffffffffffffffffffffffffffffffffff\n  mul\n  not\n  and\n  swap1\n  dup4\n  0xffffffffffffffffffffffffffffffffffffffff\n  and\n  mul\n  or\n  swap1\n  sstore\n  pop\n    /* \"@openzeppelin/contracts/access/Ownable.sol\":2604:2612  newOwner */\n  dup2\n    /* \"@openzeppelin/contracts/access/Ownable.sol\":2573:2613  OwnershipTransferred(oldOwner, newOwner) */\n  0xffffffffffffffffffffffffffffffffffffffff\n  and\n    /* \"@openzeppelin/contracts/access/Ownable.sol\":2594:2602  oldOwner */\n  dup2\n    /* \"@openzeppelin/contracts/access/Ownable.sol\":2573:2613  OwnershipTransferred(oldOwner, newOwner) */\n  0xffffffffffffffffffffffffffffffffffffffff\n  and\n  0x8be0079c531659141344cd1fd0a4f28419497f9722a3daafe3b4186f6b6457e0\n  mload(0x40)\n  mload(0x40)\n  dup1\n  swap2\n  sub\n  swap1\n  log3\n    /* \"@openzeppelin/contracts/access/Ownable.sol\":2433:2620  function _transferOwnership(address newOwner) internal virtual {... */\n  pop\n  pop\n  jump\t// out\n    /* \"#utility.yul\":7:150   */\ntag_18:\n    /* \"#utility.yul\":64:69   */\n  0x00\n    /* \"#utility.yul\":95:101   */\n  dup2\n    /* \"#utility.yul\":89:102   */\n  mload\n    /* \"#utility.yul\":80:102   */\n  swap1\n  pop\n    /* \"#utility.yul\":111:144   */\n  tag_20\n    /* \"#utility.yul\":138:143   */\n  dup2\n    /* \"#utility.yul\":111:144   */\n  tag_21\n  jump\t// in\ntag_20:\n    /* \"#utility.yul\":70:150   */\n  swap3\n  swap2\n  pop\n  pop\n  jump\t// out\n    /* \"#utility.yul\":156:299   */\ntag_22:\n    /* \"#utility.yul\":213:218   */\n  0x00\n    /* \"#utility.yul\":244:250   */\n  dup2\n    /* \"#utility.yul\":238:251   */\n  mload\n    /* \"#utility.yul\":229:251   */\n  swap1\n  pop\n    /* \"#utility.yul\":260:293   */\n  tag_24\n    /* \"#utility.yul\":287:292   */\n  dup2\n    /* \"#utility.yul\":260:293   */\n  tag_25\n  jump\t// in\ntag_24:\n    /* \"#utility.yul\":219:299   */\n  swap3\n  swap2\n  pop\n  pop\n  jump\t// out\n    /* \"#utility.yul\":305:1058   */\ntag_3:\n    /* \"#utility.yul\":402:408   */\n  0x00\n    /* \"#utility.yul\":410:416   */\n  dup1\n    /* \"#utility.yul\":418:424   */\n  0x00\n    /* \"#utility.yul\":426:432   */\n  dup1\n    /* \"#utility.yul\":475:478   */\n  0x80\n    /* \"#utility.yul\":463:472   */\n  dup6\n    /* \"#utility.yul\":454:461   */\n  dup8\n    /* \"#utility.yul\":450:473   */\n  sub\n    /* \"#utility.yul\":446:479   */\n  slt\n    /* \"#utility.yul\":443:445   */\n  iszero\n  tag_27\n  jumpi\n    /* \"#utility.yul\":492:493   */\n  0x00\n    /* \"#utility.yul\":489:490   */\n  dup1\n    /* \"#utility.yul\":482:494   */\n  revert\n    /* \"#utility.yul\":443:445   */\ntag_27:\n    /* \"#utility.yul\":535:536   */\n  0x00\n    /* \"#utility.yul\":560:624   */\n  tag_28\n    /* \"#utility.yul\":616:623   */\n  dup8\n    /* \"#utility.yul\":607:613   */\n  dup3\n    /* \"#utility.yul\":596:605   */\n  dup9\n    /* \"#utility.yul\":592:614   */\n  add\n    /* \"#utility.yul\":560:624   */\n  tag_18\n  jump\t// in\ntag_28:\n    /* \"#utility.yul\":550:624   */\n  swap5\n  pop\n    /* \"#utility.yul\":506:634   */\n  pop\n    /* \"#utility.yul\":673:675   */\n  0x20\n    /* \"#utility.yul\":699:763   */\n  tag_29\n    /* \"#utility.yul\":755:762   */\n  dup8\n    /* \"#utility.yul\":746:752   */\n  dup3\n    /* \"#utility.yul\":735:744   */\n  dup9\n    /* \"#utility.yul\":731:753   */\n  add\n    /* \"#utility.yul\":699:763   */\n  tag_22\n  jump\t// in\ntag_29:\n    /* \"#utility.yul\":689:763   */\n  swap4\n  pop\n    /* \"#utility.yul\":644:773   */\n  pop\n    /* \"#utility.yul\":812:814   */\n  0x40\n    /* \"#utility.yul\":838:902   */\n  tag_30\n    /* \"#utility.yul\":894:901   */\n  dup8\n    /* \"#utility.yul\":885:891   */\n  dup3\n    /* \"#utility.yul\":874:883   */\n  dup9\n    /* \"#utility.yul\":870:892   */\n  add\n    /* \"#utility.yul\":838:902   */\n  tag_22\n  jump\t// in\ntag_30:\n    /* \"#utility.yul\":828:902   */\n  swap3\n  pop\n    /* \"#utility.yul\":783:912   */\n  pop\n    /* \"#utility.yul\":951:953   */\n  0x60\n    /* \"#utility.yul\":977:1041   */\n  tag_31\n    /* \"#utility.yul\":1033:1040   */\n  dup8\n    /* \"#utility.yul\":1024:1030   */\n  dup3\n    /* \"#utility.yul\":1013:1022   */\n  dup9\n    /* \"#utility.yul\":1009:1031   */\n  add\n    /* \"#utility.yul\":977:1041   */\n  tag_22\n  jump\t// in\ntag_31:\n    /* \"#utility.yul\":967:1041   */\n  swap2\n  pop\n    /* \"#utility.yul\":922:1051   */\n  pop\n    /* \"#utility.yul\":433:1058   */\n  swap3\n  swap6\n  swap2\n  swap5\n  pop\n  swap3\n  pop\n  jump\t// out\n    /* \"#utility.yul\":1064:1160   */\ntag_32:\n    /* \"#utility.yul\":1101:1108   */\n  0x00\n    /* \"#utility.yul\":1130:1154   */\n  tag_34\n    /* \"#utility.yul\":1148:1153   */\n  dup3\n    /* \"#utility.yul\":1130:1154   */\n  tag_35\n  jump\t// in\ntag_34:\n    /* \"#utility.yul\":1119:1154   */\n  swap1\n  pop\n    /* \"#utility.yul\":1109:1160   */\n  swap2\n  swap1\n  pop\n  jump\t// out\n    /* \"#utility.yul\":1166:1292   */\ntag_35:\n    /* \"#utility.yul\":1203:1210   */\n  0x00\n    /* \"#utility.yul\":1243:1285   */\n  0xffffffffffffffffffffffffffffffffffffffff\n    /* \"#utility.yul\":1236:1241   */\n  dup3\n    /* \"#utility.yul\":1232:1286   */\n  and\n    /* \"#utility.yul\":1221:1286   */\n  swap1\n  pop\n    /* \"#utility.yul\":1211:1292   */\n  swap2\n  swap1\n  pop\n  jump\t// out\n    /* \"#utility.yul\":1298:1375   */\ntag_37:\n    /* \"#utility.yul\":1335:1342   */\n  0x00\n    /* \"#utility.yul\":1364:1369   */\n  dup2\n    /* \"#utility.yul\":1353:1369   */\n  swap1\n  pop\n    /* \"#utility.yul\":1343:1375   */\n  swap2\n  swap1\n  pop\n  jump\t// out\n    /* \"#utility.yul\":1381:1503   */\ntag_21:\n    /* \"#utility.yul\":1454:1478   */\n  tag_40\n    /* \"#utility.yul\":1472:1477   */\n  dup2\n    /* \"#utility.yul\":1454:1478   */\n  tag_32\n  jump\t// in\ntag_40:\n    /* \"#utility.yul\":1447:1452   */\n  dup2\n    /* \"#utility.yul\":1444:1479   */\n  eq\n    /* \"#utility.yul\":1434:1436   */\n  tag_41\n  jumpi\n    /* \"#utility.yul\":1493:1494   */\n  0x00\n    /* \"#utility.yul\":1490:1491   */\n  dup1\n    /* \"#utility.yul\":1483:1495   */\n  revert\n    /* \"#utility.yul\":1434:1436   */\ntag_41:\n    /* \"#utility.yul\":1424:1503   */\n  pop\n  jump\t// out\n    /* \"#utility.yul\":1509:1631   */\ntag_25:\n    /* \"#utility.yul\":1582:1606   */\n  tag_43\n    /* \"#utility.yul\":1600:1605   */\n  dup2\n    /* \"#utility.yul\":1582:1606   */\n  tag_37\n  jump\t// in\ntag_43:\n    /* \"#utility.yul\":1575:1580   */\n  dup2\n    /* \"#utility.yul\":1572:1607   */\n  eq\n    /* \"#utility.yul\":1562:1564   */\n  tag_44\n  jumpi\n    /* \"#utility.yul\":1621:1622   */\n  0x00\n    /* \"#utility.yul\":1618:1619   */\n  dup1\n    /* \"#utility.yul\":1611:1623   */\n  revert\n    /* \"#utility.yul\":1562:1564   */\ntag_44:\n    /* \"#utility.yul\":1552:1631   */\n  pop\n  jump\t// out\n    /* \"Defi/ClubStaking.sol\":290:3888  contract ClubStakingPool is Ownable, ReentrancyGuard {... */\ntag_14:\n  dataSize(sub_0)\n  dup1\n  dataOffset(sub_0)\n  0x00\n  codecopy\n  0x00\n  return\nstop\n\nsub_0: assembly {\n        /* \"Defi/ClubStaking.sol\":290:3888  contract ClubStakingPool is Ownable, ReentrancyGuard {... */\n      mstore(0x40, 0x80)\n      callvalue\n      dup1\n      iszero\n      tag_1\n      jumpi\n      0x00\n      dup1\n      revert\n    tag_1:\n      pop\n      jumpi(tag_2, lt(calldatasize, 0x04))\n      shr(0xe0, calldataload(0x00))\n      dup1\n      0x8da5cb5b\n      gt\n      tag_22\n      jumpi\n      dup1\n      0xee947a7c\n      gt\n      tag_23\n      jumpi\n      dup1\n      0xee947a7c\n      eq\n      tag_17\n      jumpi\n      dup1\n      0xf1887684\n      eq\n      tag_18\n      jumpi\n      dup1\n      0xf2fde38b\n      eq\n      tag_19\n      jumpi\n      dup1\n      0xfb5d6be7\n      eq\n      tag_20\n      jumpi\n      dup1\n      0xfc0c546a\n      eq\n      tag_21\n      jumpi\n      jump(tag_2)\n    tag_23:\n      dup1\n      0x8da5cb5b\n      eq\n      tag_12\n      jumpi\n      dup1\n      0x94409a56\n      eq\n      tag_13\n      jumpi\n      dup1\n      0xa694fc3a\n      eq\n      tag_14\n      jumpi\n      dup1\n      0xc771c390\n      eq\n      tag_15\n      jumpi\n      dup1\n      0xeb4af045\n      eq\n      tag_16\n      jumpi\n      jump(tag_2)\n    tag_22:\n      dup1\n      0x5d90bad9\n      gt\n      tag_24\n      jumpi\n      dup1\n      0x5d90bad9\n      eq\n      tag_7\n      jumpi\n      dup1\n      0x5f48f393\n      eq\n      tag_8\n      jumpi\n      dup1\n      0x6abfd183\n      eq\n      tag_9\n      jumpi\n      dup1\n      0x70a08231\n      eq\n      tag_10\n      jumpi\n      dup1\n      0x715018a6\n      eq\n      tag_11\n      jumpi\n      jump(tag_2)\n    tag_24:\n      dup1\n      0x27e235e3\n      eq\n      tag_3\n      jumpi\n      dup1\n      0x4fe47f70\n      eq\n      tag_4\n      jumpi\n      dup1\n      0x583d42fd\n      eq\n      tag_5\n      jumpi\n      dup1\n      0x5d3eea91\n      eq\n      tag_6\n      jumpi\n    tag_2:\n      0x00\n      dup1\n      revert\n        /* \"Defi/ClubStaking.sol\":962:1005  mapping(address => uint256) public balances */\n    tag_3:\n      tag_25\n      0x04\n      dup1\n      calldatasize\n      sub\n      dup2\n      add\n      swap1\n      tag_26\n      swap2\n      swap1\n      tag_27\n      jump\t// in\n    tag_26:\n      tag_28\n      jump\t// in\n    tag_25:\n      mload(0x40)\n      tag_29\n      swap2\n      swap1\n      tag_30\n      jump\t// in\n    tag_29:\n      mload(0x40)\n      dup1\n      swap2\n      sub\n      swap1\n      return\n        /* \"Defi/ClubStaking.sol\":3384:3544  function setMaxAmount(uint256 _maxAmount) external onlyOwner {... */\n    tag_4:\n      tag_31\n      0x04\n      dup1\n      calldatasize\n      sub\n      dup2\n      add\n      swap1\n      tag_32\n      swap2\n      swap1\n      tag_33\n      jump\t// in\n    tag_32:\n      tag_34\n      jump\t// in\n    tag_31:\n      stop\n        /* \"Defi/ClubStaking.sol\":1040:1086  mapping(address => uint256) public stakingTime */\n    tag_5:\n      tag_35\n      0x04\n      dup1\n      calldatasize\n      sub\n      dup2\n      add\n      swap1\n      tag_36\n      swap2\n      swap1\n      tag_27\n      jump\t// in\n    tag_36:\n      tag_37\n      jump\t// in\n    tag_35:\n      mload(0x40)\n      tag_38\n      swap2\n      swap1\n      tag_30\n      jump\t// in\n    tag_38:\n      mload(0x40)\n      dup1\n      swap2\n      sub\n      swap1\n      return\n        /* \"Defi/ClubStaking.sol\":2428:2982  function unStake(uint256 _amount) external nonReentrant {... */\n    tag_6:\n      tag_39\n      0x04\n      dup1\n      calldatasize\n      sub\n      dup2\n      add\n      swap1\n      tag_40\n      swap2\n      swap1\n      tag_33\n      jump\t// in\n    tag_40:\n      tag_41\n      jump\t// in\n    tag_39:\n      stop\n        /* \"Defi/ClubStaking.sol\":3217:3339  function setStakingStartTime(uint256 _stakingStartTime) external onlyOwner {... */\n    tag_7:\n      tag_42\n      0x04\n      dup1\n      calldatasize\n      sub\n      dup2\n      add\n      swap1\n      tag_43\n      swap2\n      swap1\n      tag_33\n      jump\t// in\n    tag_43:\n      tag_44\n      jump\t// in\n    tag_42:\n      stop\n        /* \"Defi/ClubStaking.sol\":401:425  uint256 public maxAmount */\n    tag_8:\n      tag_45\n      tag_46\n      jump\t// in\n    tag_45:\n      mload(0x40)\n      tag_47\n      swap2\n      swap1\n      tag_30\n      jump\t// in\n    tag_47:\n      mload(0x40)\n      dup1\n      swap2\n      sub\n      swap1\n      return\n        /* \"Defi/ClubStaking.sol\":581:612  uint256 public stakingStartTime */\n    tag_9:\n      tag_48\n      tag_49\n      jump\t// in\n    tag_48:\n      mload(0x40)\n      tag_50\n      swap2\n      swap1\n      tag_30\n      jump\t// in\n    tag_50:\n      mload(0x40)\n      dup1\n      swap2\n      sub\n      swap1\n      return\n        /* \"Defi/ClubStaking.sol\":3780:3886  function balanceOf(address _address) external view returns (uint256){... */\n    tag_10:\n      tag_51\n      0x04\n      dup1\n      calldatasize\n      sub\n      dup2\n      add\n      swap1\n      tag_52\n      swap2\n      swap1\n      tag_27\n      jump\t// in\n    tag_52:\n      tag_53\n      jump\t// in\n    tag_51:\n      mload(0x40)\n      tag_54\n      swap2\n      swap1\n      tag_30\n      jump\t// in\n    tag_54:\n      mload(0x40)\n      dup1\n      swap2\n      sub\n      swap1\n      return\n        /* \"@openzeppelin/contracts/access/Ownable.sol\":1831:1932  function renounceOwnership() public virtual onlyOwner {... */\n    tag_11:\n      tag_55\n      tag_56\n      jump\t// in\n    tag_55:\n      stop\n        /* \"@openzeppelin/contracts/access/Ownable.sol\":1201:1286  function owner() public view virtual returns (address) {... */\n    tag_12:\n      tag_57\n      tag_58\n      jump\t// in\n    tag_57:\n      mload(0x40)\n      tag_59\n      swap2\n      swap1\n      tag_60\n      jump\t// in\n    tag_59:\n      mload(0x40)\n      dup1\n      swap2\n      sub\n      swap1\n      return\n        /* \"Defi/ClubStaking.sol\":665:696  uint256 public totalStakeAmount */\n    tag_13:\n      tag_61\n      tag_62\n      jump\t// in\n    tag_61:\n      mload(0x40)\n      tag_63\n      swap2\n      swap1\n      tag_30\n      jump\t// in\n    tag_63:\n      mload(0x40)\n      dup1\n      swap2\n      sub\n      swap1\n      return\n        /* \"Defi/ClubStaking.sol\":1592:2424  function stake(uint256 _amount) external nonReentrant {... */\n    tag_14:\n      tag_64\n      0x04\n      dup1\n      calldatasize\n      sub\n      dup2\n      add\n      swap1\n      tag_65\n      swap2\n      swap1\n      tag_33\n      jump\t// in\n    tag_65:\n      tag_66\n      jump\t// in\n    tag_64:\n      stop\n        /* \"Defi/ClubStaking.sol\":3571:3748  function setLockupPeriod(uint256 _lockupPeriod) external onlyOwner {... */\n    tag_15:\n      tag_67\n      0x04\n      dup1\n      calldatasize\n      sub\n      dup2\n      add\n      swap1\n      tag_68\n      swap2\n      swap1\n      tag_33\n      jump\t// in\n    tag_68:\n      tag_69\n      jump\t// in\n    tag_67:\n      stop\n        /* \"Defi/ClubStaking.sol\":3019:3178  function setMinStakeAmount(uint256 _amount) external onlyOwner {... */\n    tag_16:\n      tag_70\n      0x04\n      dup1\n      calldatasize\n      sub\n      dup2\n      add\n      swap1\n      tag_71\n      swap2\n      swap1\n      tag_33\n      jump\t// in\n    tag_71:\n      tag_72\n      jump\t// in\n    tag_70:\n      stop\n        /* \"Defi/ClubStaking.sol\":494:521  uint256 public lockupPeriod */\n    tag_17:\n      tag_73\n      tag_74\n      jump\t// in\n    tag_73:\n      mload(0x40)\n      tag_75\n      swap2\n      swap1\n      tag_30\n      jump\t// in\n    tag_75:\n      mload(0x40)\n      dup1\n      swap2\n      sub\n      swap1\n      return\n        /* \"Defi/ClubStaking.sol\":833:862  uint256 public minStakeAmount */\n    tag_18:\n      tag_76\n      tag_77\n      jump\t// in\n    tag_76:\n      mload(0x40)\n      tag_78\n      swap2\n      swap1\n      tag_30\n      jump\t// in\n    tag_78:\n      mload(0x40)\n      dup1\n      swap2\n      sub\n      swap1\n      return\n        /* \"@openzeppelin/contracts/access/Ownable.sol\":2081:2279  function transferOwnership(address newOwner) public virtual onlyOwner {... */\n    tag_19:\n      tag_79\n      0x04\n      dup1\n      calldatasize\n      sub\n      dup2\n      add\n      swap1\n      tag_80\n      swap2\n      swap1\n      tag_27\n      jump\t// in\n    tag_80:\n      tag_81\n      jump\t// in\n    tag_79:\n      stop\n        /* \"Defi/ClubStaking.sol\":740:778  mapping(address => bool) public isClub */\n    tag_20:\n      tag_82\n      0x04\n      dup1\n      calldatasize\n      sub\n      dup2\n      add\n      swap1\n      tag_83\n      swap2\n      swap1\n      tag_27\n      jump\t// in\n    tag_83:\n      tag_84\n      jump\t// in\n    tag_82:\n      mload(0x40)\n      tag_85\n      swap2\n      swap1\n      tag_86\n      jump\t// in\n    tag_85:\n      mload(0x40)\n      dup1\n      swap2\n      sub\n      swap1\n      return\n        /* \"Defi/ClubStaking.sol\":377:396  IERC20 public token */\n    tag_21:\n      tag_87\n      tag_88\n      jump\t// in\n    tag_87:\n      mload(0x40)\n      tag_89\n      swap2\n      swap1\n      tag_90\n      jump\t// in\n    tag_89:\n      mload(0x40)\n      dup1\n      swap2\n      sub\n      swap1\n      return\n        /* \"Defi/ClubStaking.sol\":962:1005  mapping(address => uint256) public balances */\n    tag_28:\n      mstore(0x20, 0x09)\n      dup1\n      0x00\n      mstore\n      keccak256(0x00, 0x40)\n      0x00\n      swap2\n      pop\n      swap1\n      pop\n      sload\n      dup2\n      jump\t// out\n        /* \"Defi/ClubStaking.sol\":3384:3544  function setMaxAmount(uint256 _maxAmount) external onlyOwner {... */\n    tag_34:\n        /* \"@openzeppelin/contracts/access/Ownable.sol\":1094:1107  _checkOwner() */\n      tag_92\n        /* \"@openzeppelin/contracts/access/Ownable.sol\":1094:1105  _checkOwner */\n      tag_93\n        /* \"@openzeppelin/contracts/access/Ownable.sol\":1094:1107  _checkOwner() */\n      jump\t// in\n    tag_92:\n        /* \"Defi/ClubStaking.sol\":3472:3473  0 */\n      0x00\n        /* \"Defi/ClubStaking.sol\":3459:3469  _maxAmount */\n      dup2\n        /* \"Defi/ClubStaking.sol\":3459:3473  _maxAmount > 0 */\n      gt\n        /* \"Defi/ClubStaking.sol\":3451:3513  require(_maxAmount > 0, \"Max amount should be greater than 0\") */\n      tag_95\n      jumpi\n      mload(0x40)\n      0x08c379a000000000000000000000000000000000000000000000000000000000\n      dup2\n      mstore\n      0x04\n      add\n      tag_96\n      swap1\n      tag_97\n      jump\t// in\n    tag_96:\n      mload(0x40)\n      dup1\n      swap2\n      sub\n      swap1\n      revert\n    tag_95:\n        /* \"Defi/ClubStaking.sol\":3529:3539  _maxAmount */\n      dup1\n        /* \"Defi/ClubStaking.sol\":3519:3528  maxAmount */\n      0x03\n        /* \"Defi/ClubStaking.sol\":3519:3539  maxAmount=_maxAmount */\n      dup2\n      swap1\n      sstore\n      pop\n        /* \"Defi/ClubStaking.sol\":3384:3544  function setMaxAmount(uint256 _maxAmount) external onlyOwner {... */\n      pop\n      jump\t// out\n        /* \"Defi/ClubStaking.sol\":1040:1086  mapping(address => uint256) public stakingTime */\n    tag_37:\n      mstore(0x20, 0x0a)\n      dup1\n      0x00\n      mstore\n      keccak256(0x00, 0x40)\n      0x00\n      swap2\n      pop\n      swap1\n      pop\n      sload\n      dup2\n      jump\t// out\n        /* \"Defi/ClubStaking.sol\":2428:2982  function unStake(uint256 _amount) external nonReentrant {... */\n    tag_41:\n        /* \"@openzeppelin/contracts/security/ReentrancyGuard.sol\":2261:2282  _nonReentrantBefore() */\n      tag_99\n        /* \"@openzeppelin/contracts/security/ReentrancyGuard.sol\":2261:2280  _nonReentrantBefore */\n      tag_100\n        /* \"@openzeppelin/contracts/security/ReentrancyGuard.sol\":2261:2282  _nonReentrantBefore() */\n      jump\t// in\n    tag_99:\n        /* \"Defi/ClubStaking.sol\":2518:2559  stakingTime[msg.sender].add(lockupPeriod) */\n      tag_102\n        /* \"Defi/ClubStaking.sol\":2546:2558  lockupPeriod */\n      sload(0x04)\n        /* \"Defi/ClubStaking.sol\":2518:2529  stakingTime */\n      0x0a\n        /* \"Defi/ClubStaking.sol\":2518:2541  stakingTime[msg.sender] */\n      0x00\n        /* \"Defi/ClubStaking.sol\":2530:2540  msg.sender */\n      caller\n        /* \"Defi/ClubStaking.sol\":2518:2541  stakingTime[msg.sender] */\n      0xffffffffffffffffffffffffffffffffffffffff\n      and\n      0xffffffffffffffffffffffffffffffffffffffff\n      and\n      dup2\n      mstore\n      0x20\n      add\n      swap1\n      dup2\n      mstore\n      0x20\n      add\n      0x00\n      keccak256\n      sload\n        /* \"Defi/ClubStaking.sol\":2518:2545  stakingTime[msg.sender].add */\n      tag_103\n      swap1\n        /* \"Defi/ClubStaking.sol\":2518:2559  stakingTime[msg.sender].add(lockupPeriod) */\n      swap2\n      swap1\n      0xffffffff\n      and\n      jump\t// in\n    tag_102:\n        /* \"Defi/ClubStaking.sol\":2498:2513  block.timestamp */\n      timestamp\n        /* \"Defi/ClubStaking.sol\":2498:2560  block.timestamp >= (stakingTime[msg.sender].add(lockupPeriod)) */\n      lt\n      iszero\n        /* \"Defi/ClubStaking.sol\":2490:2571  require(block.timestamp >= (stakingTime[msg.sender].add(lockupPeriod)), \"Locked\") */\n      tag_104\n      jumpi\n      mload(0x40)\n      0x08c379a000000000000000000000000000000000000000000000000000000000\n      dup2\n      mstore\n      0x04\n      add\n      tag_105\n      swap1\n      tag_106\n      jump\t// in\n    tag_105:\n      mload(0x40)\n      dup1\n      swap2\n      sub\n      swap1\n      revert\n    tag_104:\n        /* \"Defi/ClubStaking.sol\":2609:2616  _amount */\n      dup1\n        /* \"Defi/ClubStaking.sol\":2585:2593  balances */\n      0x09\n        /* \"Defi/ClubStaking.sol\":2585:2605  balances[msg.sender] */\n      0x00\n        /* \"Defi/ClubStaking.sol\":2594:2604  msg.sender */\n      caller\n        /* \"Defi/ClubStaking.sol\":2585:2605  balances[msg.sender] */\n      0xffffffffffffffffffffffffffffffffffffffff\n      and\n      0xffffffffffffffffffffffffffffffffffffffff\n      and\n      dup2\n      mstore\n      0x20\n      add\n      swap1\n      dup2\n      mstore\n      0x20\n      add\n      0x00\n      keccak256\n      sload\n        /* \"Defi/ClubStaking.sol\":2585:2616  balances[msg.sender] >= _amount */\n      lt\n      iszero\n        /* \"Defi/ClubStaking.sol\":2577:2641  require(balances[msg.sender] >= _amount, \"Insufficient balance\") */\n      tag_107\n      jumpi\n      mload(0x40)\n      0x08c379a000000000000000000000000000000000000000000000000000000000\n      dup2\n      mstore\n      0x04\n      add\n      tag_108\n      swap1\n      tag_109\n      jump\t// in\n    tag_108:\n      mload(0x40)\n      dup1\n      swap2\n      sub\n      swap1\n      revert\n    tag_107:\n        /* \"Defi/ClubStaking.sol\":2655:2660  token */\n      0x02\n      0x00\n      swap1\n      sload\n      swap1\n      0x0100\n      exp\n      swap1\n      div\n      0xffffffffffffffffffffffffffffffffffffffff\n      and\n        /* \"Defi/ClubStaking.sol\":2655:2669  token.transfer */\n      0xffffffffffffffffffffffffffffffffffffffff\n      and\n      0xa9059cbb\n        /* \"Defi/ClubStaking.sol\":2670:2680  msg.sender */\n      caller\n        /* \"Defi/ClubStaking.sol\":2682:2689  _amount */\n      dup4\n        /* \"Defi/ClubStaking.sol\":2655:2690  token.transfer(msg.sender, _amount) */\n      mload(0x40)\n      dup4\n      0xffffffff\n      and\n      0xe0\n      shl\n      dup2\n      mstore\n      0x04\n      add\n      tag_110\n      swap3\n      swap2\n      swap1\n      tag_111\n      jump\t// in\n    tag_110:\n      0x20\n      mload(0x40)\n      dup1\n      dup4\n      sub\n      dup2\n      0x00\n      dup8\n      dup1\n      extcodesize\n      iszero\n      dup1\n      iszero\n      tag_112\n      jumpi\n      0x00\n      dup1\n      revert\n    tag_112:\n      pop\n      gas\n      call\n      iszero\n      dup1\n      iszero\n      tag_114\n      jumpi\n      returndatasize\n      0x00\n      dup1\n      returndatacopy\n      revert(0x00, returndatasize)\n    tag_114:\n      pop\n      pop\n      pop\n      pop\n      mload(0x40)\n      returndatasize\n      not(0x1f)\n      0x1f\n      dup3\n      add\n      and\n      dup3\n      add\n      dup1\n      0x40\n      mstore\n      pop\n      dup2\n      add\n      swap1\n      tag_115\n      swap2\n      swap1\n      tag_116\n      jump\t// in\n    tag_115:\n        /* \"Defi/ClubStaking.sol\":2647:2716  require(token.transfer(msg.sender, _amount), \"Token transfer failed\") */\n      tag_117\n      jumpi\n      mload(0x40)\n      0x08c379a000000000000000000000000000000000000000000000000000000000\n      dup2\n      mstore\n      0x04\n      add\n      tag_118\n      swap1\n      tag_119\n      jump\t// in\n    tag_118:\n      mload(0x40)\n      dup1\n      swap2\n      sub\n      swap1\n      revert\n    tag_117:\n        /* \"Defi/ClubStaking.sol\":2745:2778  balances[msg.sender].sub(_amount) */\n      tag_120\n        /* \"Defi/ClubStaking.sol\":2770:2777  _amount */\n      dup2\n        /* \"Defi/ClubStaking.sol\":2745:2753  balances */\n      0x09\n        /* \"Defi/ClubStaking.sol\":2745:2765  balances[msg.sender] */\n      0x00\n        /* \"Defi/ClubStaking.sol\":2754:2764  msg.sender */\n      caller\n        /* \"Defi/ClubStaking.sol\":2745:2765  balances[msg.sender] */\n      0xffffffffffffffffffffffffffffffffffffffff\n      and\n      0xffffffffffffffffffffffffffffffffffffffff\n      and\n      dup2\n      mstore\n      0x20\n      add\n      swap1\n      dup2\n      mstore\n      0x20\n      add\n      0x00\n      keccak256\n      sload\n        /* \"Defi/ClubStaking.sol\":2745:2769  balances[msg.sender].sub */\n      tag_121\n      swap1\n        /* \"Defi/ClubStaking.sol\":2745:2778  balances[msg.sender].sub(_amount) */\n      swap2\n      swap1\n      0xffffffff\n      and\n      jump\t// in\n    tag_120:\n        /* \"Defi/ClubStaking.sol\":2722:2730  balances */\n      0x09\n        /* \"Defi/ClubStaking.sol\":2722:2742  balances[msg.sender] */\n      0x00\n        /* \"Defi/ClubStaking.sol\":2731:2741  msg.sender */\n      caller\n        /* \"Defi/ClubStaking.sol\":2722:2742  balances[msg.sender] */\n      0xffffffffffffffffffffffffffffffffffffffff\n      and\n      0xffffffffffffffffffffffffffffffffffffffff\n      and\n      dup2\n      mstore\n      0x20\n      add\n      swap1\n      dup2\n      mstore\n      0x20\n      add\n      0x00\n      keccak256\n        /* \"Defi/ClubStaking.sol\":2722:2778  balances[msg.sender] = balances[msg.sender].sub(_amount) */\n      dup2\n      swap1\n      sstore\n      pop\n        /* \"Defi/ClubStaking.sol\":2803:2832  totalStakeAmount.sub(_amount) */\n      tag_122\n        /* \"Defi/ClubStaking.sol\":2824:2831  _amount */\n      dup2\n        /* \"Defi/ClubStaking.sol\":2803:2819  totalStakeAmount */\n      sload(0x06)\n        /* \"Defi/ClubStaking.sol\":2803:2823  totalStakeAmount.sub */\n      tag_121\n      swap1\n        /* \"Defi/ClubStaking.sol\":2803:2832  totalStakeAmount.sub(_amount) */\n      swap2\n      swap1\n      0xffffffff\n      and\n      jump\t// in\n    tag_122:\n        /* \"Defi/ClubStaking.sol\":2784:2800  totalStakeAmount */\n      0x06\n        /* \"Defi/ClubStaking.sol\":2784:2832  totalStakeAmount = totalStakeAmount.sub(_amount) */\n      dup2\n      swap1\n      sstore\n      pop\n        /* \"Defi/ClubStaking.sol\":2864:2878  minStakeAmount */\n      sload(0x08)\n        /* \"Defi/ClubStaking.sol\":2841:2849  balances */\n      0x09\n        /* \"Defi/ClubStaking.sol\":2841:2861  balances[msg.sender] */\n      0x00\n        /* \"Defi/ClubStaking.sol\":2850:2860  msg.sender */\n      caller\n        /* \"Defi/ClubStaking.sol\":2841:2861  balances[msg.sender] */\n      0xffffffffffffffffffffffffffffffffffffffff\n      and\n      0xffffffffffffffffffffffffffffffffffffffff\n      and\n      dup2\n      mstore\n      0x20\n      add\n      swap1\n      dup2\n      mstore\n      0x20\n      add\n      0x00\n      keccak256\n      sload\n        /* \"Defi/ClubStaking.sol\":2841:2878  balances[msg.sender] < minStakeAmount */\n      lt\n        /* \"Defi/ClubStaking.sol\":2838:2920  if(balances[msg.sender] < minStakeAmount){... */\n      iszero\n      tag_123\n      jumpi\n        /* \"Defi/ClubStaking.sol\":2908:2913  false */\n      0x00\n        /* \"Defi/ClubStaking.sol\":2887:2893  isClub */\n      0x07\n        /* \"Defi/ClubStaking.sol\":2887:2905  isClub[msg.sender] */\n      0x00\n        /* \"Defi/ClubStaking.sol\":2894:2904  msg.sender */\n      caller\n        /* \"Defi/ClubStaking.sol\":2887:2905  isClub[msg.sender] */\n      0xffffffffffffffffffffffffffffffffffffffff\n      and\n      0xffffffffffffffffffffffffffffffffffffffff\n      and\n      dup2\n      mstore\n      0x20\n      add\n      swap1\n      dup2\n      mstore\n      0x20\n      add\n      0x00\n      keccak256\n      0x00\n        /* \"Defi/ClubStaking.sol\":2887:2913  isClub[msg.sender] = false */\n      0x0100\n      exp\n      dup2\n      sload\n      dup2\n      0xff\n      mul\n      not\n      and\n      swap1\n      dup4\n      iszero\n      iszero\n      mul\n      or\n      swap1\n      sstore\n      pop\n        /* \"Defi/ClubStaking.sol\":2838:2920  if(balances[msg.sender] < minStakeAmount){... */\n    tag_123:\n        /* \"Defi/ClubStaking.sol\":2938:2948  msg.sender */\n      caller\n        /* \"Defi/ClubStaking.sol\":2930:2977  UnStake(msg.sender, _amount,isClub[msg.sender]) */\n      0xffffffffffffffffffffffffffffffffffffffff\n      and\n      0xa9179ff547f1f0de68e137c5ad5718d07bc192be774041107d8fac3088ba418c\n        /* \"Defi/ClubStaking.sol\":2950:2957  _amount */\n      dup3\n        /* \"Defi/ClubStaking.sol\":2958:2964  isClub */\n      0x07\n        /* \"Defi/ClubStaking.sol\":2958:2976  isClub[msg.sender] */\n      0x00\n        /* \"Defi/ClubStaking.sol\":2965:2975  msg.sender */\n      caller\n        /* \"Defi/ClubStaking.sol\":2958:2976  isClub[msg.sender] */\n      0xffffffffffffffffffffffffffffffffffffffff\n      and\n      0xffffffffffffffffffffffffffffffffffffffff\n      and\n      dup2\n      mstore\n      0x20\n      add\n      swap1\n      dup2\n      mstore\n      0x20\n      add\n      0x00\n      keccak256\n      0x00\n      swap1\n      sload\n      swap1\n      0x0100\n      exp\n      swap1\n      div\n      0xff\n      and\n        /* \"Defi/ClubStaking.sol\":2930:2977  UnStake(msg.sender, _amount,isClub[msg.sender]) */\n      mload(0x40)\n      tag_124\n      swap3\n      swap2\n      swap1\n      tag_125\n      jump\t// in\n    tag_124:\n      mload(0x40)\n      dup1\n      swap2\n      sub\n      swap1\n      log2\n        /* \"@openzeppelin/contracts/security/ReentrancyGuard.sol\":2303:2323  _nonReentrantAfter() */\n      tag_126\n        /* \"@openzeppelin/contracts/security/ReentrancyGuard.sol\":2303:2321  _nonReentrantAfter */\n      tag_127\n        /* \"@openzeppelin/contracts/security/ReentrancyGuard.sol\":2303:2323  _nonReentrantAfter() */\n      jump\t// in\n    tag_126:\n        /* \"Defi/ClubStaking.sol\":2428:2982  function unStake(uint256 _amount) external nonReentrant {... */\n      pop\n      jump\t// out\n        /* \"Defi/ClubStaking.sol\":3217:3339  function setStakingStartTime(uint256 _stakingStartTime) external onlyOwner {... */\n    tag_44:\n        /* \"@openzeppelin/contracts/access/Ownable.sol\":1094:1107  _checkOwner() */\n      tag_129\n        /* \"@openzeppelin/contracts/access/Ownable.sol\":1094:1105  _checkOwner */\n      tag_93\n        /* \"@openzeppelin/contracts/access/Ownable.sol\":1094:1107  _checkOwner() */\n      jump\t// in\n    tag_129:\n        /* \"Defi/ClubStaking.sol\":3317:3334  _stakingStartTime */\n      dup1\n        /* \"Defi/ClubStaking.sol\":3298:3314  stakingStartTime */\n      0x05\n        /* \"Defi/ClubStaking.sol\":3298:3334  stakingStartTime = _stakingStartTime */\n      dup2\n      swap1\n      sstore\n      pop\n        /* \"Defi/ClubStaking.sol\":3217:3339  function setStakingStartTime(uint256 _stakingStartTime) external onlyOwner {... */\n      pop\n      jump\t// out\n        /* \"Defi/ClubStaking.sol\":401:425  uint256 public maxAmount */\n    tag_46:\n      sload(0x03)\n      dup2\n      jump\t// out\n        /* \"Defi/ClubStaking.sol\":581:612  uint256 public stakingStartTime */\n    tag_49:\n      sload(0x05)\n      dup2\n      jump\t// out\n        /* \"Defi/ClubStaking.sol\":3780:3886  function balanceOf(address _address) external view returns (uint256){... */\n    tag_53:\n        /* \"Defi/ClubStaking.sol\":3840:3847  uint256 */\n      0x00\n        /* \"Defi/ClubStaking.sol\":3863:3871  balances */\n      0x09\n        /* \"Defi/ClubStaking.sol\":3863:3881  balances[_address] */\n      0x00\n        /* \"Defi/ClubStaking.sol\":3872:3880  _address */\n      dup4\n        /* \"Defi/ClubStaking.sol\":3863:3881  balances[_address] */\n      0xffffffffffffffffffffffffffffffffffffffff\n      and\n      0xffffffffffffffffffffffffffffffffffffffff\n      and\n      dup2\n      mstore\n      0x20\n      add\n      swap1\n      dup2\n      mstore\n      0x20\n      add\n      0x00\n      keccak256\n      sload\n        /* \"Defi/ClubStaking.sol\":3856:3881  return balances[_address] */\n      swap1\n      pop\n        /* \"Defi/ClubStaking.sol\":3780:3886  function balanceOf(address _address) external view returns (uint256){... */\n      swap2\n      swap1\n      pop\n      jump\t// out\n        /* \"@openzeppelin/contracts/access/Ownable.sol\":1831:1932  function renounceOwnership() public virtual onlyOwner {... */\n    tag_56:\n        /* \"@openzeppelin/contracts/access/Ownable.sol\":1094:1107  _checkOwner() */\n      tag_133\n        /* \"@openzeppelin/contracts/access/Ownable.sol\":1094:1105  _checkOwner */\n      tag_93\n        /* \"@openzeppelin/contracts/access/Ownable.sol\":1094:1107  _checkOwner() */\n      jump\t// in\n    tag_133:\n        /* \"@openzeppelin/contracts/access/Ownable.sol\":1895:1925  _transferOwnership(address(0)) */\n      tag_135\n        /* \"@openzeppelin/contracts/access/Ownable.sol\":1922:1923  0 */\n      0x00\n        /* \"@openzeppelin/contracts/access/Ownable.sol\":1895:1913  _transferOwnership */\n      tag_136\n        /* \"@openzeppelin/contracts/access/Ownable.sol\":1895:1925  _transferOwnership(address(0)) */\n      jump\t// in\n    tag_135:\n        /* \"@openzeppelin/contracts/access/Ownable.sol\":1831:1932  function renounceOwnership() public virtual onlyOwner {... */\n      jump\t// out\n        /* \"@openzeppelin/contracts/access/Ownable.sol\":1201:1286  function owner() public view virtual returns (address) {... */\n    tag_58:\n        /* \"@openzeppelin/contracts/access/Ownable.sol\":1247:1254  address */\n      0x00\n        /* \"@openzeppelin/contracts/access/Ownable.sol\":1273:1279  _owner */\n      dup1\n      0x00\n      swap1\n      sload\n      swap1\n      0x0100\n      exp\n      swap1\n      div\n      0xffffffffffffffffffffffffffffffffffffffff\n      and\n        /* \"@openzeppelin/contracts/access/Ownable.sol\":1266:1279  return _owner */\n      swap1\n      pop\n        /* \"@openzeppelin/contracts/access/Ownable.sol\":1201:1286  function owner() public view virtual returns (address) {... */\n      swap1\n      jump\t// out\n        /* \"Defi/ClubStaking.sol\":665:696  uint256 public totalStakeAmount */\n    tag_62:\n      sload(0x06)\n      dup2\n      jump\t// out\n        /* \"Defi/ClubStaking.sol\":1592:2424  function stake(uint256 _amount) external nonReentrant {... */\n    tag_66:\n        /* \"@openzeppelin/contracts/security/ReentrancyGuard.sol\":2261:2282  _nonReentrantBefore() */\n      tag_139\n        /* \"@openzeppelin/contracts/security/ReentrancyGuard.sol\":2261:2280  _nonReentrantBefore */\n      tag_100\n        /* \"@openzeppelin/contracts/security/ReentrancyGuard.sol\":2261:2282  _nonReentrantBefore() */\n      jump\t// in\n    tag_139:\n        /* \"Defi/ClubStaking.sol\":1693:1705  lockupPeriod */\n      sload(0x04)\n        /* \"Defi/ClubStaking.sol\":1676:1692  stakingStartTime */\n      sload(0x05)\n        /* \"Defi/ClubStaking.sol\":1676:1705  stakingStartTime+lockupPeriod */\n      tag_141\n      swap2\n      swap1\n      tag_142\n      jump\t// in\n    tag_141:\n        /* \"Defi/ClubStaking.sol\":1660:1675  block.timestamp */\n      timestamp\n        /* \"Defi/ClubStaking.sol\":1660:1705  block.timestamp<stakingStartTime+lockupPeriod */\n      lt\n        /* \"Defi/ClubStaking.sol\":1652:1747  require(block.timestamp<stakingStartTime+lockupPeriod,\"The current staking activity has ended\") */\n      tag_143\n      jumpi\n      mload(0x40)\n      0x08c379a000000000000000000000000000000000000000000000000000000000\n      dup2\n      mstore\n      0x04\n      add\n      tag_144\n      swap1\n      tag_145\n      jump\t// in\n    tag_144:\n      mload(0x40)\n      dup1\n      swap2\n      sub\n      swap1\n      revert\n    tag_143:\n        /* \"Defi/ClubStaking.sol\":1796:1825  totalStakeAmount.add(_amount) */\n      tag_146\n        /* \"Defi/ClubStaking.sol\":1817:1824  _amount */\n      dup2\n        /* \"Defi/ClubStaking.sol\":1796:1812  totalStakeAmount */\n      sload(0x06)\n        /* \"Defi/ClubStaking.sol\":1796:1816  totalStakeAmount.add */\n      tag_103\n      swap1\n        /* \"Defi/ClubStaking.sol\":1796:1825  totalStakeAmount.add(_amount) */\n      swap2\n      swap1\n      0xffffffff\n      and\n      jump\t// in\n    tag_146:\n        /* \"Defi/ClubStaking.sol\":1761:1792  totalStakeAmount.add(maxAmount) */\n      tag_147\n        /* \"Defi/ClubStaking.sol\":1782:1791  maxAmount */\n      sload(0x03)\n        /* \"Defi/ClubStaking.sol\":1761:1777  totalStakeAmount */\n      sload(0x06)\n        /* \"Defi/ClubStaking.sol\":1761:1781  totalStakeAmount.add */\n      tag_103\n      swap1\n        /* \"Defi/ClubStaking.sol\":1761:1792  totalStakeAmount.add(maxAmount) */\n      swap2\n      swap1\n      0xffffffff\n      and\n      jump\t// in\n    tag_147:\n        /* \"Defi/ClubStaking.sol\":1761:1825  totalStakeAmount.add(maxAmount) >= totalStakeAmount.add(_amount) */\n      lt\n      iszero\n        /* \"Defi/ClubStaking.sol\":1753:1901  require(totalStakeAmount.add(maxAmount) >= totalStakeAmount.add(_amount),\"Amount exceeds the maximum amount of pool pledges allowed for the period\") */\n      tag_148\n      jumpi\n      mload(0x40)\n      0x08c379a000000000000000000000000000000000000000000000000000000000\n      dup2\n      mstore\n      0x04\n      add\n      tag_149\n      swap1\n      tag_150\n      jump\t// in\n    tag_149:\n      mload(0x40)\n      dup1\n      swap2\n      sub\n      swap1\n      revert\n    tag_148:\n        /* \"Defi/ClubStaking.sol\":1952:1966  minStakeAmount */\n      sload(0x08)\n        /* \"Defi/ClubStaking.sol\":1915:1948  balances[msg.sender].add(_amount) */\n      tag_151\n        /* \"Defi/ClubStaking.sol\":1940:1947  _amount */\n      dup3\n        /* \"Defi/ClubStaking.sol\":1915:1923  balances */\n      0x09\n        /* \"Defi/ClubStaking.sol\":1915:1935  balances[msg.sender] */\n      0x00\n        /* \"Defi/ClubStaking.sol\":1924:1934  msg.sender */\n      caller\n        /* \"Defi/ClubStaking.sol\":1915:1935  balances[msg.sender] */\n      0xffffffffffffffffffffffffffffffffffffffff\n      and\n      0xffffffffffffffffffffffffffffffffffffffff\n      and\n      dup2\n      mstore\n      0x20\n      add\n      swap1\n      dup2\n      mstore\n      0x20\n      add\n      0x00\n      keccak256\n      sload\n        /* \"Defi/ClubStaking.sol\":1915:1939  balances[msg.sender].add */\n      tag_103\n      swap1\n        /* \"Defi/ClubStaking.sol\":1915:1948  balances[msg.sender].add(_amount) */\n      swap2\n      swap1\n      0xffffffff\n      and\n      jump\t// in\n    tag_151:\n        /* \"Defi/ClubStaking.sol\":1915:1966  balances[msg.sender].add(_amount) >= minStakeAmount */\n      lt\n      iszero\n        /* \"Defi/ClubStaking.sol\":1907:2027  require(balances[msg.sender].add(_amount) >= minStakeAmount, \"Amount should be greater than or equal to minStakeAmount\") */\n      tag_152\n      jumpi\n      mload(0x40)\n      0x08c379a000000000000000000000000000000000000000000000000000000000\n      dup2\n      mstore\n      0x04\n      add\n      tag_153\n      swap1\n      tag_154\n      jump\t// in\n    tag_153:\n      mload(0x40)\n      dup1\n      swap2\n      sub\n      swap1\n      revert\n    tag_152:\n        /* \"Defi/ClubStaking.sol\":2041:2046  token */\n      0x02\n      0x00\n      swap1\n      sload\n      swap1\n      0x0100\n      exp\n      swap1\n      div\n      0xffffffffffffffffffffffffffffffffffffffff\n      and\n        /* \"Defi/ClubStaking.sol\":2041:2059  token.transferFrom */\n      0xffffffffffffffffffffffffffffffffffffffff\n      and\n      0x23b872dd\n        /* \"Defi/ClubStaking.sol\":2060:2070  msg.sender */\n      caller\n        /* \"Defi/ClubStaking.sol\":2080:2084  this */\n      address\n        /* \"Defi/ClubStaking.sol\":2087:2094  _amount */\n      dup5\n        /* \"Defi/ClubStaking.sol\":2041:2095  token.transferFrom(msg.sender, address(this), _amount) */\n      mload(0x40)\n      dup5\n      0xffffffff\n      and\n      0xe0\n      shl\n      dup2\n      mstore\n      0x04\n      add\n      tag_155\n      swap4\n      swap3\n      swap2\n      swap1\n      tag_156\n      jump\t// in\n    tag_155:\n      0x20\n      mload(0x40)\n      dup1\n      dup4\n      sub\n      dup2\n      0x00\n      dup8\n      dup1\n      extcodesize\n      iszero\n      dup1\n      iszero\n      tag_157\n      jumpi\n      0x00\n      dup1\n      revert\n    tag_157:\n      pop\n      gas\n      call\n      iszero\n      dup1\n      iszero\n      tag_159\n      jumpi\n      returndatasize\n      0x00\n      dup1\n      returndatacopy\n      revert(0x00, returndatasize)\n    tag_159:\n      pop\n      pop\n      pop\n      pop\n      mload(0x40)\n      returndatasize\n      not(0x1f)\n      0x1f\n      dup3\n      add\n      and\n      dup3\n      add\n      dup1\n      0x40\n      mstore\n      pop\n      dup2\n      add\n      swap1\n      tag_160\n      swap2\n      swap1\n      tag_116\n      jump\t// in\n    tag_160:\n        /* \"Defi/ClubStaking.sol\":2033:2121  require(token.transferFrom(msg.sender, address(this), _amount), \"Token transfer failed\") */\n      tag_161\n      jumpi\n      mload(0x40)\n      0x08c379a000000000000000000000000000000000000000000000000000000000\n      dup2\n      mstore\n      0x04\n      add\n      tag_162\n      swap1\n      tag_119\n      jump\t// in\n    tag_162:\n      mload(0x40)\n      dup1\n      swap2\n      sub\n      swap1\n      revert\n    tag_161:\n        /* \"Defi/ClubStaking.sol\":2150:2183  balances[msg.sender].add(_amount) */\n      tag_163\n        /* \"Defi/ClubStaking.sol\":2175:2182  _amount */\n      dup2\n        /* \"Defi/ClubStaking.sol\":2150:2158  balances */\n      0x09\n        /* \"Defi/ClubStaking.sol\":2150:2170  balances[msg.sender] */\n      0x00\n        /* \"Defi/ClubStaking.sol\":2159:2169  msg.sender */\n      caller\n        /* \"Defi/ClubStaking.sol\":2150:2170  balances[msg.sender] */\n      0xffffffffffffffffffffffffffffffffffffffff\n      and\n      0xffffffffffffffffffffffffffffffffffffffff\n      and\n      dup2\n      mstore\n      0x20\n      add\n      swap1\n      dup2\n      mstore\n      0x20\n      add\n      0x00\n      keccak256\n      sload\n        /* \"Defi/ClubStaking.sol\":2150:2174  balances[msg.sender].add */\n      tag_103\n      swap1\n        /* \"Defi/ClubStaking.sol\":2150:2183  balances[msg.sender].add(_amount) */\n      swap2\n      swap1\n      0xffffffff\n      and\n      jump\t// in\n    tag_163:\n        /* \"Defi/ClubStaking.sol\":2127:2135  balances */\n      0x09\n        /* \"Defi/ClubStaking.sol\":2127:2147  balances[msg.sender] */\n      0x00\n        /* \"Defi/ClubStaking.sol\":2136:2146  msg.sender */\n      caller\n        /* \"Defi/ClubStaking.sol\":2127:2147  balances[msg.sender] */\n      0xffffffffffffffffffffffffffffffffffffffff\n      and\n      0xffffffffffffffffffffffffffffffffffffffff\n      and\n      dup2\n      mstore\n      0x20\n      add\n      swap1\n      dup2\n      mstore\n      0x20\n      add\n      0x00\n      keccak256\n        /* \"Defi/ClubStaking.sol\":2127:2183  balances[msg.sender] = balances[msg.sender].add(_amount) */\n      dup2\n      swap1\n      sstore\n      pop\n        /* \"Defi/ClubStaking.sol\":2208:2237  totalStakeAmount.add(_amount) */\n      tag_164\n        /* \"Defi/ClubStaking.sol\":2229:2236  _amount */\n      dup2\n        /* \"Defi/ClubStaking.sol\":2208:2224  totalStakeAmount */\n      sload(0x06)\n        /* \"Defi/ClubStaking.sol\":2208:2228  totalStakeAmount.add */\n      tag_103\n      swap1\n        /* \"Defi/ClubStaking.sol\":2208:2237  totalStakeAmount.add(_amount) */\n      swap2\n      swap1\n      0xffffffff\n      and\n      jump\t// in\n    tag_164:\n        /* \"Defi/ClubStaking.sol\":2189:2205  totalStakeAmount */\n      0x06\n        /* \"Defi/ClubStaking.sol\":2189:2237  totalStakeAmount = totalStakeAmount.add(_amount) */\n      dup2\n      swap1\n      sstore\n      pop\n        /* \"Defi/ClubStaking.sol\":2310:2325  block.timestamp */\n      timestamp\n        /* \"Defi/ClubStaking.sol\":2284:2295  stakingTime */\n      0x0a\n        /* \"Defi/ClubStaking.sol\":2284:2307  stakingTime[msg.sender] */\n      0x00\n        /* \"Defi/ClubStaking.sol\":2296:2306  msg.sender */\n      caller\n        /* \"Defi/ClubStaking.sol\":2284:2307  stakingTime[msg.sender] */\n      0xffffffffffffffffffffffffffffffffffffffff\n      and\n      0xffffffffffffffffffffffffffffffffffffffff\n      and\n      dup2\n      mstore\n      0x20\n      add\n      swap1\n      dup2\n      mstore\n      0x20\n      add\n      0x00\n      keccak256\n        /* \"Defi/ClubStaking.sol\":2284:2325  stakingTime[msg.sender] = block.timestamp */\n      dup2\n      swap1\n      sstore\n      pop\n        /* \"Defi/ClubStaking.sol\":2359:2363  true */\n      0x01\n        /* \"Defi/ClubStaking.sol\":2340:2346  isClub */\n      0x07\n        /* \"Defi/ClubStaking.sol\":2340:2358  isClub[msg.sender] */\n      0x00\n        /* \"Defi/ClubStaking.sol\":2347:2357  msg.sender */\n      caller\n        /* \"Defi/ClubStaking.sol\":2340:2358  isClub[msg.sender] */\n      0xffffffffffffffffffffffffffffffffffffffff\n      and\n      0xffffffffffffffffffffffffffffffffffffffff\n      and\n      dup2\n      mstore\n      0x20\n      add\n      swap1\n      dup2\n      mstore\n      0x20\n      add\n      0x00\n      keccak256\n      0x00\n        /* \"Defi/ClubStaking.sol\":2340:2363  isClub[msg.sender]=true */\n      0x0100\n      exp\n      dup2\n      sload\n      dup2\n      0xff\n      mul\n      not\n      and\n      swap1\n      dup4\n      iszero\n      iszero\n      mul\n      or\n      swap1\n      sstore\n      pop\n        /* \"Defi/ClubStaking.sol\":2380:2390  msg.sender */\n      caller\n        /* \"Defi/ClubStaking.sol\":2374:2419  Stake(msg.sender, _amount,isClub[msg.sender]) */\n      0xffffffffffffffffffffffffffffffffffffffff\n      and\n      0x20580cc2838cc75cd2cfb9e285a0d4c24078360f4273611af79fcdff9a6a806f\n        /* \"Defi/ClubStaking.sol\":2392:2399  _amount */\n      dup3\n        /* \"Defi/ClubStaking.sol\":2400:2406  isClub */\n      0x07\n        /* \"Defi/ClubStaking.sol\":2400:2418  isClub[msg.sender] */\n      0x00\n        /* \"Defi/ClubStaking.sol\":2407:2417  msg.sender */\n      caller\n        /* \"Defi/ClubStaking.sol\":2400:2418  isClub[msg.sender] */\n      0xffffffffffffffffffffffffffffffffffffffff\n      and\n      0xffffffffffffffffffffffffffffffffffffffff\n      and\n      dup2\n      mstore\n      0x20\n      add\n      swap1\n      dup2\n      mstore\n      0x20\n      add\n      0x00\n      keccak256\n      0x00\n      swap1\n      sload\n      swap1\n      0x0100\n      exp\n      swap1\n      div\n      0xff\n      and\n        /* \"Defi/ClubStaking.sol\":2374:2419  Stake(msg.sender, _amount,isClub[msg.sender]) */\n      mload(0x40)\n      tag_165\n      swap3\n      swap2\n      swap1\n      tag_125\n      jump\t// in\n    tag_165:\n      mload(0x40)\n      dup1\n      swap2\n      sub\n      swap1\n      log2\n        /* \"@openzeppelin/contracts/security/ReentrancyGuard.sol\":2303:2323  _nonReentrantAfter() */\n      tag_166\n        /* \"@openzeppelin/contracts/security/ReentrancyGuard.sol\":2303:2321  _nonReentrantAfter */\n      tag_127\n        /* \"@openzeppelin/contracts/security/ReentrancyGuard.sol\":2303:2323  _nonReentrantAfter() */\n      jump\t// in\n    tag_166:\n        /* \"Defi/ClubStaking.sol\":1592:2424  function stake(uint256 _amount) external nonReentrant {... */\n      pop\n      jump\t// out\n        /* \"Defi/ClubStaking.sol\":3571:3748  function setLockupPeriod(uint256 _lockupPeriod) external onlyOwner {... */\n    tag_69:\n        /* \"@openzeppelin/contracts/access/Ownable.sol\":1094:1107  _checkOwner() */\n      tag_168\n        /* \"@openzeppelin/contracts/access/Ownable.sol\":1094:1105  _checkOwner */\n      tag_93\n        /* \"@openzeppelin/contracts/access/Ownable.sol\":1094:1107  _checkOwner() */\n      jump\t// in\n    tag_168:\n        /* \"Defi/ClubStaking.sol\":3668:3669  0 */\n      0x00\n        /* \"Defi/ClubStaking.sol\":3652:3665  _lockupPeriod */\n      dup2\n        /* \"Defi/ClubStaking.sol\":3652:3669  _lockupPeriod > 0 */\n      gt\n        /* \"Defi/ClubStaking.sol\":3644:3711  require(_lockupPeriod > 0, \"LockupPeriod should be greater than 0\") */\n      tag_170\n      jumpi\n      mload(0x40)\n      0x08c379a000000000000000000000000000000000000000000000000000000000\n      dup2\n      mstore\n      0x04\n      add\n      tag_171\n      swap1\n      tag_172\n      jump\t// in\n    tag_171:\n      mload(0x40)\n      dup1\n      swap2\n      sub\n      swap1\n      revert\n    tag_170:\n        /* \"Defi/ClubStaking.sol\":3730:3743  _lockupPeriod */\n      dup1\n        /* \"Defi/ClubStaking.sol\":3717:3729  lockupPeriod */\n      0x04\n        /* \"Defi/ClubStaking.sol\":3717:3743  lockupPeriod=_lockupPeriod */\n      dup2\n      swap1\n      sstore\n      pop\n        /* \"Defi/ClubStaking.sol\":3571:3748  function setLockupPeriod(uint256 _lockupPeriod) external onlyOwner {... */\n      pop\n      jump\t// out\n        /* \"Defi/ClubStaking.sol\":3019:3178  function setMinStakeAmount(uint256 _amount) external onlyOwner {... */\n    tag_72:\n        /* \"@openzeppelin/contracts/access/Ownable.sol\":1094:1107  _checkOwner() */\n      tag_174\n        /* \"@openzeppelin/contracts/access/Ownable.sol\":1094:1105  _checkOwner */\n      tag_93\n        /* \"@openzeppelin/contracts/access/Ownable.sol\":1094:1107  _checkOwner() */\n      jump\t// in\n    tag_174:\n        /* \"Defi/ClubStaking.sol\":3106:3107  0 */\n      0x00\n        /* \"Defi/ClubStaking.sol\":3096:3103  _amount */\n      dup2\n        /* \"Defi/ClubStaking.sol\":3096:3107  _amount > 0 */\n      gt\n        /* \"Defi/ClubStaking.sol\":3088:3143  require(_amount > 0, \"Amount should be greater than 0\") */\n      tag_176\n      jumpi\n      mload(0x40)\n      0x08c379a000000000000000000000000000000000000000000000000000000000\n      dup2\n      mstore\n      0x04\n      add\n      tag_177\n      swap1\n      tag_178\n      jump\t// in\n    tag_177:\n      mload(0x40)\n      dup1\n      swap2\n      sub\n      swap1\n      revert\n    tag_176:\n        /* \"Defi/ClubStaking.sol\":3166:3173  _amount */\n      dup1\n        /* \"Defi/ClubStaking.sol\":3149:3163  minStakeAmount */\n      0x08\n        /* \"Defi/ClubStaking.sol\":3149:3173  minStakeAmount = _amount */\n      dup2\n      swap1\n      sstore\n      pop\n        /* \"Defi/ClubStaking.sol\":3019:3178  function setMinStakeAmount(uint256 _amount) external onlyOwner {... */\n      pop\n      jump\t// out\n        /* \"Defi/ClubStaking.sol\":494:521  uint256 public lockupPeriod */\n    tag_74:\n      sload(0x04)\n      dup2\n      jump\t// out\n        /* \"Defi/ClubStaking.sol\":833:862  uint256 public minStakeAmount */\n    tag_77:\n      sload(0x08)\n      dup2\n      jump\t// out\n        /* \"@openzeppelin/contracts/access/Ownable.sol\":2081:2279  function transferOwnership(address newOwner) public virtual onlyOwner {... */\n    tag_81:\n        /* \"@openzeppelin/contracts/access/Ownable.sol\":1094:1107  _checkOwner() */\n      tag_180\n        /* \"@openzeppelin/contracts/access/Ownable.sol\":1094:1105  _checkOwner */\n      tag_93\n        /* \"@openzeppelin/contracts/access/Ownable.sol\":1094:1107  _checkOwner() */\n      jump\t// in\n    tag_180:\n        /* \"@openzeppelin/contracts/access/Ownable.sol\":2189:2190  0 */\n      0x00\n        /* \"@openzeppelin/contracts/access/Ownable.sol\":2169:2191  newOwner != address(0) */\n      0xffffffffffffffffffffffffffffffffffffffff\n      and\n        /* \"@openzeppelin/contracts/access/Ownable.sol\":2169:2177  newOwner */\n      dup2\n        /* \"@openzeppelin/contracts/access/Ownable.sol\":2169:2191  newOwner != address(0) */\n      0xffffffffffffffffffffffffffffffffffffffff\n      and\n      eq\n      iszero\n        /* \"@openzeppelin/contracts/access/Ownable.sol\":2161:2234  require(newOwner != address(0), \"Ownable: new owner is the zero address\") */\n      tag_182\n      jumpi\n      mload(0x40)\n      0x08c379a000000000000000000000000000000000000000000000000000000000\n      dup2\n      mstore\n      0x04\n      add\n      tag_183\n      swap1\n      tag_184\n      jump\t// in\n    tag_183:\n      mload(0x40)\n      dup1\n      swap2\n      sub\n      swap1\n      revert\n    tag_182:\n        /* \"@openzeppelin/contracts/access/Ownable.sol\":2244:2272  _transferOwnership(newOwner) */\n      tag_185\n        /* \"@openzeppelin/contracts/access/Ownable.sol\":2263:2271  newOwner */\n      dup2\n        /* \"@openzeppelin/contracts/access/Ownable.sol\":2244:2262  _transferOwnership */\n      tag_136\n        /* \"@openzeppelin/contracts/access/Ownable.sol\":2244:2272  _transferOwnership(newOwner) */\n      jump\t// in\n    tag_185:\n        /* \"@openzeppelin/contracts/access/Ownable.sol\":2081:2279  function transferOwnership(address newOwner) public virtual onlyOwner {... */\n      pop\n      jump\t// out\n        /* \"Defi/ClubStaking.sol\":740:778  mapping(address => bool) public isClub */\n    tag_84:\n      mstore(0x20, 0x07)\n      dup1\n      0x00\n      mstore\n      keccak256(0x00, 0x40)\n      0x00\n      swap2\n      pop\n      sload\n      swap1\n      0x0100\n      exp\n      swap1\n      div\n      0xff\n      and\n      dup2\n      jump\t// out\n        /* \"Defi/ClubStaking.sol\":377:396  IERC20 public token */\n    tag_88:\n      0x02\n      0x00\n      swap1\n      sload\n      swap1\n      0x0100\n      exp\n      swap1\n      div\n      0xffffffffffffffffffffffffffffffffffffffff\n      and\n      dup2\n      jump\t// out\n        /* \"@openzeppelin/contracts/access/Ownable.sol\":1359:1489  function _checkOwner() internal view virtual {... */\n    tag_93:\n        /* \"@openzeppelin/contracts/access/Ownable.sol\":1433:1445  _msgSender() */\n      tag_187\n        /* \"@openzeppelin/contracts/access/Ownable.sol\":1433:1443  _msgSender */\n      tag_188\n        /* \"@openzeppelin/contracts/access/Ownable.sol\":1433:1445  _msgSender() */\n      jump\t// in\n    tag_187:\n        /* \"@openzeppelin/contracts/access/Ownable.sol\":1422:1445  owner() == _msgSender() */\n      0xffffffffffffffffffffffffffffffffffffffff\n      and\n        /* \"@openzeppelin/contracts/access/Ownable.sol\":1422:1429  owner() */\n      tag_189\n        /* \"@openzeppelin/contracts/access/Ownable.sol\":1422:1427  owner */\n      tag_58\n        /* \"@openzeppelin/contracts/access/Ownable.sol\":1422:1429  owner() */\n      jump\t// in\n    tag_189:\n        /* \"@openzeppelin/contracts/access/Ownable.sol\":1422:1445  owner() == _msgSender() */\n      0xffffffffffffffffffffffffffffffffffffffff\n      and\n      eq\n        /* \"@openzeppelin/contracts/access/Ownable.sol\":1414:1482  require(owner() == _msgSender(), \"Ownable: caller is not the owner\") */\n      tag_190\n      jumpi\n      mload(0x40)\n      0x08c379a000000000000000000000000000000000000000000000000000000000\n      dup2\n      mstore\n      0x04\n      add\n      tag_191\n      swap1\n      tag_192\n      jump\t// in\n    tag_191:\n      mload(0x40)\n      dup1\n      swap2\n      sub\n      swap1\n      revert\n    tag_190:\n        /* \"@openzeppelin/contracts/access/Ownable.sol\":1359:1489  function _checkOwner() internal view virtual {... */\n      jump\t// out\n        /* \"@openzeppelin/contracts/security/ReentrancyGuard.sol\":2336:2623  function _nonReentrantBefore() private {... */\n    tag_100:\n        /* \"@openzeppelin/contracts/security/ReentrancyGuard.sol\":1759:1760  2 */\n      0x02\n        /* \"@openzeppelin/contracts/security/ReentrancyGuard.sol\":2468:2475  _status */\n      sload(0x01)\n        /* \"@openzeppelin/contracts/security/ReentrancyGuard.sol\":2468:2487  _status != _ENTERED */\n      eq\n      iszero\n        /* \"@openzeppelin/contracts/security/ReentrancyGuard.sol\":2460:2523  require(_status != _ENTERED, \"ReentrancyGuard: reentrant call\") */\n      tag_194\n      jumpi\n      mload(0x40)\n      0x08c379a000000000000000000000000000000000000000000000000000000000\n      dup2\n      mstore\n      0x04\n      add\n      tag_195\n      swap1\n      tag_196\n      jump\t// in\n    tag_195:\n      mload(0x40)\n      dup1\n      swap2\n      sub\n      swap1\n      revert\n    tag_194:\n        /* \"@openzeppelin/contracts/security/ReentrancyGuard.sol\":1759:1760  2 */\n      0x02\n        /* \"@openzeppelin/contracts/security/ReentrancyGuard.sol\":2598:2605  _status */\n      0x01\n        /* \"@openzeppelin/contracts/security/ReentrancyGuard.sol\":2598:2616  _status = _ENTERED */\n      dup2\n      swap1\n      sstore\n      pop\n        /* \"@openzeppelin/contracts/security/ReentrancyGuard.sol\":2336:2623  function _nonReentrantBefore() private {... */\n      jump\t// out\n        /* \"@openzeppelin/contracts/utils/math/SafeMath.sol\":2755:2851  function add(uint256 a, uint256 b) internal pure returns (uint256) {... */\n    tag_103:\n        /* \"@openzeppelin/contracts/utils/math/SafeMath.sol\":2813:2820  uint256 */\n      0x00\n        /* \"@openzeppelin/contracts/utils/math/SafeMath.sol\":2843:2844  b */\n      dup2\n        /* \"@openzeppelin/contracts/utils/math/SafeMath.sol\":2839:2840  a */\n      dup4\n        /* \"@openzeppelin/contracts/utils/math/SafeMath.sol\":2839:2844  a + b */\n      tag_198\n      swap2\n      swap1\n      tag_142\n      jump\t// in\n    tag_198:\n        /* \"@openzeppelin/contracts/utils/math/SafeMath.sol\":2832:2844  return a + b */\n      swap1\n      pop\n        /* \"@openzeppelin/contracts/utils/math/SafeMath.sol\":2755:2851  function add(uint256 a, uint256 b) internal pure returns (uint256) {... */\n      swap3\n      swap2\n      pop\n      pop\n      jump\t// out\n        /* \"@openzeppelin/contracts/utils/math/SafeMath.sol\":3122:3218  function sub(uint256 a, uint256 b) internal pure returns (uint256) {... */\n    tag_121:\n        /* \"@openzeppelin/contracts/utils/math/SafeMath.sol\":3180:3187  uint256 */\n      0x00\n        /* \"@openzeppelin/contracts/utils/math/SafeMath.sol\":3210:3211  b */\n      dup2\n        /* \"@openzeppelin/contracts/utils/math/SafeMath.sol\":3206:3207  a */\n      dup4\n        /* \"@openzeppelin/contracts/utils/math/SafeMath.sol\":3206:3211  a - b */\n      tag_200\n      swap2\n      swap1\n      tag_201\n      jump\t// in\n    tag_200:\n        /* \"@openzeppelin/contracts/utils/math/SafeMath.sol\":3199:3211  return a - b */\n      swap1\n      pop\n        /* \"@openzeppelin/contracts/utils/math/SafeMath.sol\":3122:3218  function sub(uint256 a, uint256 b) internal pure returns (uint256) {... */\n      swap3\n      swap2\n      pop\n      pop\n      jump\t// out\n        /* \"@openzeppelin/contracts/security/ReentrancyGuard.sol\":2629:2838  function _nonReentrantAfter() private {... */\n    tag_127:\n        /* \"@openzeppelin/contracts/security/ReentrancyGuard.sol\":1716:1717  1 */\n      0x01\n        /* \"@openzeppelin/contracts/security/ReentrancyGuard.sol\":2809:2816  _status */\n      dup1\n        /* \"@openzeppelin/contracts/security/ReentrancyGuard.sol\":2809:2831  _status = _NOT_ENTERED */\n      dup2\n      swap1\n      sstore\n      pop\n        /* \"@openzeppelin/contracts/security/ReentrancyGuard.sol\":2629:2838  function _nonReentrantAfter() private {... */\n      jump\t// out\n        /* \"@openzeppelin/contracts/access/Ownable.sol\":2433:2620  function _transferOwnership(address newOwner) internal virtual {... */\n    tag_136:\n        /* \"@openzeppelin/contracts/access/Ownable.sol\":2506:2522  address oldOwner */\n      0x00\n        /* \"@openzeppelin/contracts/access/Ownable.sol\":2525:2531  _owner */\n      dup1\n      0x00\n      swap1\n      sload\n      swap1\n      0x0100\n      exp\n      swap1\n      div\n      0xffffffffffffffffffffffffffffffffffffffff\n      and\n        /* \"@openzeppelin/contracts/access/Ownable.sol\":2506:2531  address oldOwner = _owner */\n      swap1\n      pop\n        /* \"@openzeppelin/contracts/access/Ownable.sol\":2550:2558  newOwner */\n      dup2\n        /* \"@openzeppelin/contracts/access/Ownable.sol\":2541:2547  _owner */\n      0x00\n      dup1\n        /* \"@openzeppelin/contracts/access/Ownable.sol\":2541:2558  _owner = newOwner */\n      0x0100\n      exp\n      dup2\n      sload\n      dup2\n      0xffffffffffffffffffffffffffffffffffffffff\n      mul\n      not\n      and\n      swap1\n      dup4\n      0xffffffffffffffffffffffffffffffffffffffff\n      and\n      mul\n      or\n      swap1\n      sstore\n      pop\n        /* \"@openzeppelin/contracts/access/Ownable.sol\":2604:2612  newOwner */\n      dup2\n        /* \"@openzeppelin/contracts/access/Ownable.sol\":2573:2613  OwnershipTransferred(oldOwner, newOwner) */\n      0xffffffffffffffffffffffffffffffffffffffff\n      and\n        /* \"@openzeppelin/contracts/access/Ownable.sol\":2594:2602  oldOwner */\n      dup2\n        /* \"@openzeppelin/contracts/access/Ownable.sol\":2573:2613  OwnershipTransferred(oldOwner, newOwner) */\n      0xffffffffffffffffffffffffffffffffffffffff\n      and\n      0x8be0079c531659141344cd1fd0a4f28419497f9722a3daafe3b4186f6b6457e0\n      mload(0x40)\n      mload(0x40)\n      dup1\n      swap2\n      sub\n      swap1\n      log3\n        /* \"@openzeppelin/contracts/access/Ownable.sol\":2433:2620  function _transferOwnership(address newOwner) internal virtual {... */\n      pop\n      pop\n      jump\t// out\n        /* \"@openzeppelin/contracts/utils/Context.sol\":640:736  function _msgSender() internal view virtual returns (address) {... */\n    tag_188:\n        /* \"@openzeppelin/contracts/utils/Context.sol\":693:700  address */\n      0x00\n        /* \"@openzeppelin/contracts/utils/Context.sol\":719:729  msg.sender */\n      caller\n        /* \"@openzeppelin/contracts/utils/Context.sol\":712:729  return msg.sender */\n      swap1\n      pop\n        /* \"@openzeppelin/contracts/utils/Context.sol\":640:736  function _msgSender() internal view virtual returns (address) {... */\n      swap1\n      jump\t// out\n        /* \"#utility.yul\":7:146   */\n    tag_206:\n        /* \"#utility.yul\":53:58   */\n      0x00\n        /* \"#utility.yul\":91:97   */\n      dup2\n        /* \"#utility.yul\":78:98   */\n      calldataload\n        /* \"#utility.yul\":69:98   */\n      swap1\n      pop\n        /* \"#utility.yul\":107:140   */\n      tag_208\n        /* \"#utility.yul\":134:139   */\n      dup2\n        /* \"#utility.yul\":107:140   */\n      tag_209\n      jump\t// in\n    tag_208:\n        /* \"#utility.yul\":59:146   */\n      swap3\n      swap2\n      pop\n      pop\n      jump\t// out\n        /* \"#utility.yul\":152:289   */\n    tag_210:\n        /* \"#utility.yul\":206:211   */\n      0x00\n        /* \"#utility.yul\":237:243   */\n      dup2\n        /* \"#utility.yul\":231:244   */\n      mload\n        /* \"#utility.yul\":222:244   */\n      swap1\n      pop\n        /* \"#utility.yul\":253:283   */\n      tag_212\n        /* \"#utility.yul\":277:282   */\n      dup2\n        /* \"#utility.yul\":253:283   */\n      tag_213\n      jump\t// in\n    tag_212:\n        /* \"#utility.yul\":212:289   */\n      swap3\n      swap2\n      pop\n      pop\n      jump\t// out\n        /* \"#utility.yul\":295:434   */\n    tag_214:\n        /* \"#utility.yul\":341:346   */\n      0x00\n        /* \"#utility.yul\":379:385   */\n      dup2\n        /* \"#utility.yul\":366:386   */\n      calldataload\n        /* \"#utility.yul\":357:386   */\n      swap1\n      pop\n        /* \"#utility.yul\":395:428   */\n      tag_216\n        /* \"#utility.yul\":422:427   */\n      dup2\n        /* \"#utility.yul\":395:428   */\n      tag_217\n      jump\t// in\n    tag_216:\n        /* \"#utility.yul\":347:434   */\n      swap3\n      swap2\n      pop\n      pop\n      jump\t// out\n        /* \"#utility.yul\":440:702   */\n    tag_27:\n        /* \"#utility.yul\":499:505   */\n      0x00\n        /* \"#utility.yul\":548:550   */\n      0x20\n        /* \"#utility.yul\":536:545   */\n      dup3\n        /* \"#utility.yul\":527:534   */\n      dup5\n        /* \"#utility.yul\":523:546   */\n      sub\n        /* \"#utility.yul\":519:551   */\n      slt\n        /* \"#utility.yul\":516:518   */\n      iszero\n      tag_219\n      jumpi\n        /* \"#utility.yul\":564:565   */\n      0x00\n        /* \"#utility.yul\":561:562   */\n      dup1\n        /* \"#utility.yul\":554:566   */\n      revert\n        /* \"#utility.yul\":516:518   */\n    tag_219:\n        /* \"#utility.yul\":607:608   */\n      0x00\n        /* \"#utility.yul\":632:685   */\n      tag_220\n        /* \"#utility.yul\":677:684   */\n      dup5\n        /* \"#utility.yul\":668:674   */\n      dup3\n        /* \"#utility.yul\":657:666   */\n      dup6\n        /* \"#utility.yul\":653:675   */\n      add\n        /* \"#utility.yul\":632:685   */\n      tag_206\n      jump\t// in\n    tag_220:\n        /* \"#utility.yul\":622:685   */\n      swap2\n      pop\n        /* \"#utility.yul\":578:695   */\n      pop\n        /* \"#utility.yul\":506:702   */\n      swap3\n      swap2\n      pop\n      pop\n      jump\t// out\n        /* \"#utility.yul\":708:986   */\n    tag_116:\n        /* \"#utility.yul\":775:781   */\n      0x00\n        /* \"#utility.yul\":824:826   */\n      0x20\n        /* \"#utility.yul\":812:821   */\n      dup3\n        /* \"#utility.yul\":803:810   */\n      dup5\n        /* \"#utility.yul\":799:822   */\n      sub\n        /* \"#utility.yul\":795:827   */\n      slt\n        /* \"#utility.yul\":792:794   */\n      iszero\n      tag_222\n      jumpi\n        /* \"#utility.yul\":840:841   */\n      0x00\n        /* \"#utility.yul\":837:838   */\n      dup1\n        /* \"#utility.yul\":830:842   */\n      revert\n        /* \"#utility.yul\":792:794   */\n    tag_222:\n        /* \"#utility.yul\":883:884   */\n      0x00\n        /* \"#utility.yul\":908:969   */\n      tag_223\n        /* \"#utility.yul\":961:968   */\n      dup5\n        /* \"#utility.yul\":952:958   */\n      dup3\n        /* \"#utility.yul\":941:950   */\n      dup6\n        /* \"#utility.yul\":937:959   */\n      add\n        /* \"#utility.yul\":908:969   */\n      tag_210\n      jump\t// in\n    tag_223:\n        /* \"#utility.yul\":898:969   */\n      swap2\n      pop\n        /* \"#utility.yul\":854:979   */\n      pop\n        /* \"#utility.yul\":782:986   */\n      swap3\n      swap2\n      pop\n      pop\n      jump\t// out\n        /* \"#utility.yul\":992:1254   */\n    tag_33:\n        /* \"#utility.yul\":1051:1057   */\n      0x00\n        /* \"#utility.yul\":1100:1102   */\n      0x20\n        /* \"#utility.yul\":1088:1097   */\n      dup3\n        /* \"#utility.yul\":1079:1086   */\n      dup5\n        /* \"#utility.yul\":1075:1098   */\n      sub\n        /* \"#utility.yul\":1071:1103   */\n      slt\n        /* \"#utility.yul\":1068:1070   */\n      iszero\n      tag_225\n      jumpi\n        /* \"#utility.yul\":1116:1117   */\n      0x00\n        /* \"#utility.yul\":1113:1114   */\n      dup1\n        /* \"#utility.yul\":1106:1118   */\n      revert\n        /* \"#utility.yul\":1068:1070   */\n    tag_225:\n        /* \"#utility.yul\":1159:1160   */\n      0x00\n        /* \"#utility.yul\":1184:1237   */\n      tag_226\n        /* \"#utility.yul\":1229:1236   */\n      dup5\n        /* \"#utility.yul\":1220:1226   */\n      dup3\n        /* \"#utility.yul\":1209:1218   */\n      dup6\n        /* \"#utility.yul\":1205:1227   */\n      add\n        /* \"#utility.yul\":1184:1237   */\n      tag_214\n      jump\t// in\n    tag_226:\n        /* \"#utility.yul\":1174:1237   */\n      swap2\n      pop\n        /* \"#utility.yul\":1130:1247   */\n      pop\n        /* \"#utility.yul\":1058:1254   */\n      swap3\n      swap2\n      pop\n      pop\n      jump\t// out\n        /* \"#utility.yul\":1260:1378   */\n    tag_227:\n        /* \"#utility.yul\":1347:1371   */\n      tag_229\n        /* \"#utility.yul\":1365:1370   */\n      dup2\n        /* \"#utility.yul\":1347:1371   */\n      tag_230\n      jump\t// in\n    tag_229:\n        /* \"#utility.yul\":1342:1345   */\n      dup3\n        /* \"#utility.yul\":1335:1372   */\n      mstore\n        /* \"#utility.yul\":1325:1378   */\n      pop\n      pop\n      jump\t// out\n        /* \"#utility.yul\":1384:1493   */\n    tag_231:\n        /* \"#utility.yul\":1465:1486   */\n      tag_233\n        /* \"#utility.yul\":1480:1485   */\n      dup2\n        /* \"#utility.yul\":1465:1486   */\n      tag_234\n      jump\t// in\n    tag_233:\n        /* \"#utility.yul\":1460:1463   */\n      dup3\n        /* \"#utility.yul\":1453:1487   */\n      mstore\n        /* \"#utility.yul\":1443:1493   */\n      pop\n      pop\n      jump\t// out\n        /* \"#utility.yul\":1499:1658   */\n    tag_235:\n        /* \"#utility.yul\":1600:1651   */\n      tag_237\n        /* \"#utility.yul\":1645:1650   */\n      dup2\n        /* \"#utility.yul\":1600:1651   */\n      tag_238\n      jump\t// in\n    tag_237:\n        /* \"#utility.yul\":1595:1598   */\n      dup3\n        /* \"#utility.yul\":1588:1652   */\n      mstore\n        /* \"#utility.yul\":1578:1658   */\n      pop\n      pop\n      jump\t// out\n        /* \"#utility.yul\":1664:2029   */\n    tag_239:\n        /* \"#utility.yul\":1806:1809   */\n      0x00\n        /* \"#utility.yul\":1827:1893   */\n      tag_241\n        /* \"#utility.yul\":1891:1892   */\n      0x06\n        /* \"#utility.yul\":1886:1889   */\n      dup4\n        /* \"#utility.yul\":1827:1893   */\n      tag_242\n      jump\t// in\n    tag_241:\n        /* \"#utility.yul\":1820:1893   */\n      swap2\n      pop\n        /* \"#utility.yul\":1902:1995   */\n      tag_243\n        /* \"#utility.yul\":1991:1994   */\n      dup3\n        /* \"#utility.yul\":1902:1995   */\n      tag_244\n      jump\t// in\n    tag_243:\n        /* \"#utility.yul\":2020:2022   */\n      0x20\n        /* \"#utility.yul\":2015:2018   */\n      dup3\n        /* \"#utility.yul\":2011:2023   */\n      add\n        /* \"#utility.yul\":2004:2023   */\n      swap1\n      pop\n        /* \"#utility.yul\":1810:2029   */\n      swap2\n      swap1\n      pop\n      jump\t// out\n        /* \"#utility.yul\":2035:2401   */\n    tag_245:\n        /* \"#utility.yul\":2177:2180   */\n      0x00\n        /* \"#utility.yul\":2198:2265   */\n      tag_247\n        /* \"#utility.yul\":2262:2264   */\n      0x26\n        /* \"#utility.yul\":2257:2260   */\n      dup4\n        /* \"#utility.yul\":2198:2265   */\n      tag_242\n      jump\t// in\n    tag_247:\n        /* \"#utility.yul\":2191:2265   */\n      swap2\n      pop\n        /* \"#utility.yul\":2274:2367   */\n      tag_248\n        /* \"#utility.yul\":2363:2366   */\n      dup3\n        /* \"#utility.yul\":2274:2367   */\n      tag_249\n      jump\t// in\n    tag_248:\n        /* \"#utility.yul\":2392:2394   */\n      0x40\n        /* \"#utility.yul\":2387:2390   */\n      dup3\n        /* \"#utility.yul\":2383:2395   */\n      add\n        /* \"#utility.yul\":2376:2395   */\n      swap1\n      pop\n        /* \"#utility.yul\":2181:2401   */\n      swap2\n      swap1\n      pop\n      jump\t// out\n        /* \"#utility.yul\":2407:2773   */\n    tag_250:\n        /* \"#utility.yul\":2549:2552   */\n      0x00\n        /* \"#utility.yul\":2570:2637   */\n      tag_252\n        /* \"#utility.yul\":2634:2636   */\n      0x14\n        /* \"#utility.yul\":2629:2632   */\n      dup4\n        /* \"#utility.yul\":2570:2637   */\n      tag_242\n      jump\t// in\n    tag_252:\n        /* \"#utility.yul\":2563:2637   */\n      swap2\n      pop\n        /* \"#utility.yul\":2646:2739   */\n      tag_253\n        /* \"#utility.yul\":2735:2738   */\n      dup3\n        /* \"#utility.yul\":2646:2739   */\n      tag_254\n      jump\t// in\n    tag_253:\n        /* \"#utility.yul\":2764:2766   */\n      0x20\n        /* \"#utility.yul\":2759:2762   */\n      dup3\n        /* \"#utility.yul\":2755:2767   */\n      add\n        /* \"#utility.yul\":2748:2767   */\n      swap1\n      pop\n        /* \"#utility.yul\":2553:2773   */\n      swap2\n      swap1\n      pop\n      jump\t// out\n        /* \"#utility.yul\":2779:3145   */\n    tag_255:\n        /* \"#utility.yul\":2921:2924   */\n      0x00\n        /* \"#utility.yul\":2942:3009   */\n      tag_257\n        /* \"#utility.yul\":3006:3008   */\n      0x48\n        /* \"#utility.yul\":3001:3004   */\n      dup4\n        /* \"#utility.yul\":2942:3009   */\n      tag_242\n      jump\t// in\n    tag_257:\n        /* \"#utility.yul\":2935:3009   */\n      swap2\n      pop\n        /* \"#utility.yul\":3018:3111   */\n      tag_258\n        /* \"#utility.yul\":3107:3110   */\n      dup3\n        /* \"#utility.yul\":3018:3111   */\n      tag_259\n      jump\t// in\n    tag_258:\n        /* \"#utility.yul\":3136:3138   */\n      0x60\n        /* \"#utility.yul\":3131:3134   */\n      dup3\n        /* \"#utility.yul\":3127:3139   */\n      add\n        /* \"#utility.yul\":3120:3139   */\n      swap1\n      pop\n        /* \"#utility.yul\":2925:3145   */\n      swap2\n      swap1\n      pop\n      jump\t// out\n        /* \"#utility.yul\":3151:3517   */\n    tag_260:\n        /* \"#utility.yul\":3293:3296   */\n      0x00\n        /* \"#utility.yul\":3314:3381   */\n      tag_262\n        /* \"#utility.yul\":3378:3380   */\n      0x15\n        /* \"#utility.yul\":3373:3376   */\n      dup4\n        /* \"#utility.yul\":3314:3381   */\n      tag_242\n      jump\t// in\n    tag_262:\n        /* \"#utility.yul\":3307:3381   */\n      swap2\n      pop\n        /* \"#utility.yul\":3390:3483   */\n      tag_263\n        /* \"#utility.yul\":3479:3482   */\n      dup3\n        /* \"#utility.yul\":3390:3483   */\n      tag_264\n      jump\t// in\n    tag_263:\n        /* \"#utility.yul\":3508:3510   */\n      0x20\n        /* \"#utility.yul\":3503:3506   */\n      dup3\n        /* \"#utility.yul\":3499:3511   */\n      add\n        /* \"#utility.yul\":3492:3511   */\n      swap1\n      pop\n        /* \"#utility.yul\":3297:3517   */\n      swap2\n      swap1\n      pop\n      jump\t// out\n        /* \"#utility.yul\":3523:3889   */\n    tag_265:\n        /* \"#utility.yul\":3665:3668   */\n      0x00\n        /* \"#utility.yul\":3686:3753   */\n      tag_267\n        /* \"#utility.yul\":3750:3752   */\n      0x1f\n        /* \"#utility.yul\":3745:3748   */\n      dup4\n        /* \"#utility.yul\":3686:3753   */\n      tag_242\n      jump\t// in\n    tag_267:\n        /* \"#utility.yul\":3679:3753   */\n      swap2\n      pop\n        /* \"#utility.yul\":3762:3855   */\n      tag_268\n        /* \"#utility.yul\":3851:3854   */\n      dup3\n        /* \"#utility.yul\":3762:3855   */\n      tag_269\n      jump\t// in\n    tag_268:\n        /* \"#utility.yul\":3880:3882   */\n      0x20\n        /* \"#utility.yul\":3875:3878   */\n      dup3\n        /* \"#utility.yul\":3871:3883   */\n      add\n        /* \"#utility.yul\":3864:3883   */\n      swap1\n      pop\n        /* \"#utility.yul\":3669:3889   */\n      swap2\n      swap1\n      pop\n      jump\t// out\n        /* \"#utility.yul\":3895:4261   */\n    tag_270:\n        /* \"#utility.yul\":4037:4040   */\n      0x00\n        /* \"#utility.yul\":4058:4125   */\n      tag_272\n        /* \"#utility.yul\":4122:4124   */\n      0x23\n        /* \"#utility.yul\":4117:4120   */\n      dup4\n        /* \"#utility.yul\":4058:4125   */\n      tag_242\n      jump\t// in\n    tag_272:\n        /* \"#utility.yul\":4051:4125   */\n      swap2\n      pop\n        /* \"#utility.yul\":4134:4227   */\n      tag_273\n        /* \"#utility.yul\":4223:4226   */\n      dup3\n        /* \"#utility.yul\":4134:4227   */\n      tag_274\n      jump\t// in\n    tag_273:\n        /* \"#utility.yul\":4252:4254   */\n      0x40\n        /* \"#utility.yul\":4247:4250   */\n      dup3\n        /* \"#utility.yul\":4243:4255   */\n      add\n        /* \"#utility.yul\":4236:4255   */\n      swap1\n      pop\n        /* \"#utility.yul\":4041:4261   */\n      swap2\n      swap1\n      pop\n      jump\t// out\n        /* \"#utility.yul\":4267:4633   */\n    tag_275:\n        /* \"#utility.yul\":4409:4412   */\n      0x00\n        /* \"#utility.yul\":4430:4497   */\n      tag_277\n        /* \"#utility.yul\":4494:4496   */\n      0x20\n        /* \"#utility.yul\":4489:4492   */\n      dup4\n        /* \"#utility.yul\":4430:4497   */\n      tag_242\n      jump\t// in\n    tag_277:\n        /* \"#utility.yul\":4423:4497   */\n      swap2\n      pop\n        /* \"#utility.yul\":4506:4599   */\n      tag_278\n        /* \"#utility.yul\":4595:4598   */\n      dup3\n        /* \"#utility.yul\":4506:4599   */\n      tag_279\n      jump\t// in\n    tag_278:\n        /* \"#utility.yul\":4624:4626   */\n      0x20\n        /* \"#utility.yul\":4619:4622   */\n      dup3\n        /* \"#utility.yul\":4615:4627   */\n      add\n        /* \"#utility.yul\":4608:4627   */\n      swap1\n      pop\n        /* \"#utility.yul\":4413:4633   */\n      swap2\n      swap1\n      pop\n      jump\t// out\n        /* \"#utility.yul\":4639:5005   */\n    tag_280:\n        /* \"#utility.yul\":4781:4784   */\n      0x00\n        /* \"#utility.yul\":4802:4869   */\n      tag_282\n        /* \"#utility.yul\":4866:4868   */\n      0x26\n        /* \"#utility.yul\":4861:4864   */\n      dup4\n        /* \"#utility.yul\":4802:4869   */\n      tag_242\n      jump\t// in\n    tag_282:\n        /* \"#utility.yul\":4795:4869   */\n      swap2\n      pop\n        /* \"#utility.yul\":4878:4971   */\n      tag_283\n        /* \"#utility.yul\":4967:4970   */\n      dup3\n        /* \"#utility.yul\":4878:4971   */\n      tag_284\n      jump\t// in\n    tag_283:\n        /* \"#utility.yul\":4996:4998   */\n      0x40\n        /* \"#utility.yul\":4991:4994   */\n      dup3\n        /* \"#utility.yul\":4987:4999   */\n      add\n        /* \"#utility.yul\":4980:4999   */\n      swap1\n      pop\n        /* \"#utility.yul\":4785:5005   */\n      swap2\n      swap1\n      pop\n      jump\t// out\n        /* \"#utility.yul\":5011:5377   */\n    tag_285:\n        /* \"#utility.yul\":5153:5156   */\n      0x00\n        /* \"#utility.yul\":5174:5241   */\n      tag_287\n        /* \"#utility.yul\":5238:5240   */\n      0x25\n        /* \"#utility.yul\":5233:5236   */\n      dup4\n        /* \"#utility.yul\":5174:5241   */\n      tag_242\n      jump\t// in\n    tag_287:\n        /* \"#utility.yul\":5167:5241   */\n      swap2\n      pop\n        /* \"#utility.yul\":5250:5343   */\n      tag_288\n        /* \"#utility.yul\":5339:5342   */\n      dup3\n        /* \"#utility.yul\":5250:5343   */\n      tag_289\n      jump\t// in\n    tag_288:\n        /* \"#utility.yul\":5368:5370   */\n      0x40\n        /* \"#utility.yul\":5363:5366   */\n      dup3\n        /* \"#utility.yul\":5359:5371   */\n      add\n        /* \"#utility.yul\":5352:5371   */\n      swap1\n      pop\n        /* \"#utility.yul\":5157:5377   */\n      swap2\n      swap1\n      pop\n      jump\t// out\n        /* \"#utility.yul\":5383:5749   */\n    tag_290:\n        /* \"#utility.yul\":5525:5528   */\n      0x00\n        /* \"#utility.yul\":5546:5613   */\n      tag_292\n        /* \"#utility.yul\":5610:5612   */\n      0x38\n        /* \"#utility.yul\":5605:5608   */\n      dup4\n        /* \"#utility.yul\":5546:5613   */\n      tag_242\n      jump\t// in\n    tag_292:\n        /* \"#utility.yul\":5539:5613   */\n      swap2\n      pop\n        /* \"#utility.yul\":5622:5715   */\n      tag_293\n        /* \"#utility.yul\":5711:5714   */\n      dup3\n        /* \"#utility.yul\":5622:5715   */\n      tag_294\n      jump\t// in\n    tag_293:\n        /* \"#utility.yul\":5740:5742   */\n      0x40\n        /* \"#utility.yul\":5735:5738   */\n      dup3\n        /* \"#utility.yul\":5731:5743   */\n      add\n        /* \"#utility.yul\":5724:5743   */\n      swap1\n      pop\n        /* \"#utility.yul\":5529:5749   */\n      swap2\n      swap1\n      pop\n      jump\t// out\n        /* \"#utility.yul\":5755:6121   */\n    tag_295:\n        /* \"#utility.yul\":5897:5900   */\n      0x00\n        /* \"#utility.yul\":5918:5985   */\n      tag_297\n        /* \"#utility.yul\":5982:5984   */\n      0x1f\n        /* \"#utility.yul\":5977:5980   */\n      dup4\n        /* \"#utility.yul\":5918:5985   */\n      tag_242\n      jump\t// in\n    tag_297:\n        /* \"#utility.yul\":5911:5985   */\n      swap2\n      pop\n        /* \"#utility.yul\":5994:6087   */\n      tag_298\n        /* \"#utility.yul\":6083:6086   */\n      dup3\n        /* \"#utility.yul\":5994:6087   */\n      tag_299\n      jump\t// in\n    tag_298:\n        /* \"#utility.yul\":6112:6114   */\n      0x20\n        /* \"#utility.yul\":6107:6110   */\n      dup3\n        /* \"#utility.yul\":6103:6115   */\n      add\n        /* \"#utility.yul\":6096:6115   */\n      swap1\n      pop\n        /* \"#utility.yul\":5901:6121   */\n      swap2\n      swap1\n      pop\n      jump\t// out\n        /* \"#utility.yul\":6127:6245   */\n    tag_300:\n        /* \"#utility.yul\":6214:6238   */\n      tag_302\n        /* \"#utility.yul\":6232:6237   */\n      dup2\n        /* \"#utility.yul\":6214:6238   */\n      tag_303\n      jump\t// in\n    tag_302:\n        /* \"#utility.yul\":6209:6212   */\n      dup3\n        /* \"#utility.yul\":6202:6239   */\n      mstore\n        /* \"#utility.yul\":6192:6245   */\n      pop\n      pop\n      jump\t// out\n        /* \"#utility.yul\":6251:6473   */\n    tag_60:\n        /* \"#utility.yul\":6344:6348   */\n      0x00\n        /* \"#utility.yul\":6382:6384   */\n      0x20\n        /* \"#utility.yul\":6371:6380   */\n      dup3\n        /* \"#utility.yul\":6367:6385   */\n      add\n        /* \"#utility.yul\":6359:6385   */\n      swap1\n      pop\n        /* \"#utility.yul\":6395:6466   */\n      tag_305\n        /* \"#utility.yul\":6463:6464   */\n      0x00\n        /* \"#utility.yul\":6452:6461   */\n      dup4\n        /* \"#utility.yul\":6448:6465   */\n      add\n        /* \"#utility.yul\":6439:6445   */\n      dup5\n        /* \"#utility.yul\":6395:6466   */\n      tag_227\n      jump\t// in\n    tag_305:\n        /* \"#utility.yul\":6349:6473   */\n      swap3\n      swap2\n      pop\n      pop\n      jump\t// out\n        /* \"#utility.yul\":6479:6921   */\n    tag_156:\n        /* \"#utility.yul\":6628:6632   */\n      0x00\n        /* \"#utility.yul\":6666:6668   */\n      0x60\n        /* \"#utility.yul\":6655:6664   */\n      dup3\n        /* \"#utility.yul\":6651:6669   */\n      add\n        /* \"#utility.yul\":6643:6669   */\n      swap1\n      pop\n        /* \"#utility.yul\":6679:6750   */\n      tag_307\n        /* \"#utility.yul\":6747:6748   */\n      0x00\n        /* \"#utility.yul\":6736:6745   */\n      dup4\n        /* \"#utility.yul\":6732:6749   */\n      add\n        /* \"#utility.yul\":6723:6729   */\n      dup7\n        /* \"#utility.yul\":6679:6750   */\n      tag_227\n      jump\t// in\n    tag_307:\n        /* \"#utility.yul\":6760:6832   */\n      tag_308\n        /* \"#utility.yul\":6828:6830   */\n      0x20\n        /* \"#utility.yul\":6817:6826   */\n      dup4\n        /* \"#utility.yul\":6813:6831   */\n      add\n        /* \"#utility.yul\":6804:6810   */\n      dup6\n        /* \"#utility.yul\":6760:6832   */\n      tag_227\n      jump\t// in\n    tag_308:\n        /* \"#utility.yul\":6842:6914   */\n      tag_309\n        /* \"#utility.yul\":6910:6912   */\n      0x40\n        /* \"#utility.yul\":6899:6908   */\n      dup4\n        /* \"#utility.yul\":6895:6913   */\n      add\n        /* \"#utility.yul\":6886:6892   */\n      dup5\n        /* \"#utility.yul\":6842:6914   */\n      tag_300\n      jump\t// in\n    tag_309:\n        /* \"#utility.yul\":6633:6921   */\n      swap5\n      swap4\n      pop\n      pop\n      pop\n      pop\n      jump\t// out\n        /* \"#utility.yul\":6927:7259   */\n    tag_111:\n        /* \"#utility.yul\":7048:7052   */\n      0x00\n        /* \"#utility.yul\":7086:7088   */\n      0x40\n        /* \"#utility.yul\":7075:7084   */\n      dup3\n        /* \"#utility.yul\":7071:7089   */\n      add\n        /* \"#utility.yul\":7063:7089   */\n      swap1\n      pop\n        /* \"#utility.yul\":7099:7170   */\n      tag_311\n        /* \"#utility.yul\":7167:7168   */\n      0x00\n        /* \"#utility.yul\":7156:7165   */\n      dup4\n        /* \"#utility.yul\":7152:7169   */\n      add\n        /* \"#utility.yul\":7143:7149   */\n      dup6\n        /* \"#utility.yul\":7099:7170   */\n      tag_227\n      jump\t// in\n    tag_311:\n        /* \"#utility.yul\":7180:7252   */\n      tag_312\n        /* \"#utility.yul\":7248:7250   */\n      0x20\n        /* \"#utility.yul\":7237:7246   */\n      dup4\n        /* \"#utility.yul\":7233:7251   */\n      add\n        /* \"#utility.yul\":7224:7230   */\n      dup5\n        /* \"#utility.yul\":7180:7252   */\n      tag_300\n      jump\t// in\n    tag_312:\n        /* \"#utility.yul\":7053:7259   */\n      swap4\n      swap3\n      pop\n      pop\n      pop\n      jump\t// out\n        /* \"#utility.yul\":7265:7475   */\n    tag_86:\n        /* \"#utility.yul\":7352:7356   */\n      0x00\n        /* \"#utility.yul\":7390:7392   */\n      0x20\n        /* \"#utility.yul\":7379:7388   */\n      dup3\n        /* \"#utility.yul\":7375:7393   */\n      add\n        /* \"#utility.yul\":7367:7393   */\n      swap1\n      pop\n        /* \"#utility.yul\":7403:7468   */\n      tag_314\n        /* \"#utility.yul\":7465:7466   */\n      0x00\n        /* \"#utility.yul\":7454:7463   */\n      dup4\n        /* \"#utility.yul\":7450:7467   */\n      add\n        /* \"#utility.yul\":7441:7447   */\n      dup5\n        /* \"#utility.yul\":7403:7468   */\n      tag_231\n      jump\t// in\n    tag_314:\n        /* \"#utility.yul\":7357:7475   */\n      swap3\n      swap2\n      pop\n      pop\n      jump\t// out\n        /* \"#utility.yul\":7481:7731   */\n    tag_90:\n        /* \"#utility.yul\":7588:7592   */\n      0x00\n        /* \"#utility.yul\":7626:7628   */\n      0x20\n        /* \"#utility.yul\":7615:7624   */\n      dup3\n        /* \"#utility.yul\":7611:7629   */\n      add\n        /* \"#utility.yul\":7603:7629   */\n      swap1\n      pop\n        /* \"#utility.yul\":7639:7724   */\n      tag_316\n        /* \"#utility.yul\":7721:7722   */\n      0x00\n        /* \"#utility.yul\":7710:7719   */\n      dup4\n        /* \"#utility.yul\":7706:7723   */\n      add\n        /* \"#utility.yul\":7697:7703   */\n      dup5\n        /* \"#utility.yul\":7639:7724   */\n      tag_235\n      jump\t// in\n    tag_316:\n        /* \"#utility.yul\":7593:7731   */\n      swap3\n      swap2\n      pop\n      pop\n      jump\t// out\n        /* \"#utility.yul\":7737:8156   */\n    tag_106:\n        /* \"#utility.yul\":7903:7907   */\n      0x00\n        /* \"#utility.yul\":7941:7943   */\n      0x20\n        /* \"#utility.yul\":7930:7939   */\n      dup3\n        /* \"#utility.yul\":7926:7944   */\n      add\n        /* \"#utility.yul\":7918:7944   */\n      swap1\n      pop\n        /* \"#utility.yul\":7990:7999   */\n      dup2\n        /* \"#utility.yul\":7984:7988   */\n      dup2\n        /* \"#utility.yul\":7980:8000   */\n      sub\n        /* \"#utility.yul\":7976:7977   */\n      0x00\n        /* \"#utility.yul\":7965:7974   */\n      dup4\n        /* \"#utility.yul\":7961:7978   */\n      add\n        /* \"#utility.yul\":7954:8001   */\n      mstore\n        /* \"#utility.yul\":8018:8149   */\n      tag_318\n        /* \"#utility.yul\":8144:8148   */\n      dup2\n        /* \"#utility.yul\":8018:8149   */\n      tag_239\n      jump\t// in\n    tag_318:\n        /* \"#utility.yul\":8010:8149   */\n      swap1\n      pop\n        /* \"#utility.yul\":7908:8156   */\n      swap2\n      swap1\n      pop\n      jump\t// out\n        /* \"#utility.yul\":8162:8581   */\n    tag_184:\n        /* \"#utility.yul\":8328:8332   */\n      0x00\n        /* \"#utility.yul\":8366:8368   */\n      0x20\n        /* \"#utility.yul\":8355:8364   */\n      dup3\n        /* \"#utility.yul\":8351:8369   */\n      add\n        /* \"#utility.yul\":8343:8369   */\n      swap1\n      pop\n        /* \"#utility.yul\":8415:8424   */\n      dup2\n        /* \"#utility.yul\":8409:8413   */\n      dup2\n        /* \"#utility.yul\":8405:8425   */\n      sub\n        /* \"#utility.yul\":8401:8402   */\n      0x00\n        /* \"#utility.yul\":8390:8399   */\n      dup4\n        /* \"#utility.yul\":8386:8403   */\n      add\n        /* \"#utility.yul\":8379:8426   */\n      mstore\n        /* \"#utility.yul\":8443:8574   */\n      tag_320\n        /* \"#utility.yul\":8569:8573   */\n      dup2\n        /* \"#utility.yul\":8443:8574   */\n      tag_245\n      jump\t// in\n    tag_320:\n        /* \"#utility.yul\":8435:8574   */\n      swap1\n      pop\n        /* \"#utility.yul\":8333:8581   */\n      swap2\n      swap1\n      pop\n      jump\t// out\n        /* \"#utility.yul\":8587:9006   */\n    tag_109:\n        /* \"#utility.yul\":8753:8757   */\n      0x00\n        /* \"#utility.yul\":8791:8793   */\n      0x20\n        /* \"#utility.yul\":8780:8789   */\n      dup3\n        /* \"#utility.yul\":8776:8794   */\n      add\n        /* \"#utility.yul\":8768:8794   */\n      swap1\n      pop\n        /* \"#utility.yul\":8840:8849   */\n      dup2\n        /* \"#utility.yul\":8834:8838   */\n      dup2\n        /* \"#utility.yul\":8830:8850   */\n      sub\n        /* \"#utility.yul\":8826:8827   */\n      0x00\n        /* \"#utility.yul\":8815:8824   */\n      dup4\n        /* \"#utility.yul\":8811:8828   */\n      add\n        /* \"#utility.yul\":8804:8851   */\n      mstore\n        /* \"#utility.yul\":8868:8999   */\n      tag_322\n        /* \"#utility.yul\":8994:8998   */\n      dup2\n        /* \"#utility.yul\":8868:8999   */\n      tag_250\n      jump\t// in\n    tag_322:\n        /* \"#utility.yul\":8860:8999   */\n      swap1\n      pop\n        /* \"#utility.yul\":8758:9006   */\n      swap2\n      swap1\n      pop\n      jump\t// out\n        /* \"#utility.yul\":9012:9431   */\n    tag_150:\n        /* \"#utility.yul\":9178:9182   */\n      0x00\n        /* \"#utility.yul\":9216:9218   */\n      0x20\n        /* \"#utility.yul\":9205:9214   */\n      dup3\n        /* \"#utility.yul\":9201:9219   */\n      add\n        /* \"#utility.yul\":9193:9219   */\n      swap1\n      pop\n        /* \"#utility.yul\":9265:9274   */\n      dup2\n        /* \"#utility.yul\":9259:9263   */\n      dup2\n        /* \"#utility.yul\":9255:9275   */\n      sub\n        /* \"#utility.yul\":9251:9252   */\n      0x00\n        /* \"#utility.yul\":9240:9249   */\n      dup4\n        /* \"#utility.yul\":9236:9253   */\n      add\n        /* \"#utility.yul\":9229:9276   */\n      mstore\n        /* \"#utility.yul\":9293:9424   */\n      tag_324\n        /* \"#utility.yul\":9419:9423   */\n      dup2\n        /* \"#utility.yul\":9293:9424   */\n      tag_255\n      jump\t// in\n    tag_324:\n        /* \"#utility.yul\":9285:9424   */\n      swap1\n      pop\n        /* \"#utility.yul\":9183:9431   */\n      swap2\n      swap1\n      pop\n      jump\t// out\n        /* \"#utility.yul\":9437:9856   */\n    tag_119:\n        /* \"#utility.yul\":9603:9607   */\n      0x00\n        /* \"#utility.yul\":9641:9643   */\n      0x20\n        /* \"#utility.yul\":9630:9639   */\n      dup3\n        /* \"#utility.yul\":9626:9644   */\n      add\n        /* \"#utility.yul\":9618:9644   */\n      swap1\n      pop\n        /* \"#utility.yul\":9690:9699   */\n      dup2\n        /* \"#utility.yul\":9684:9688   */\n      dup2\n        /* \"#utility.yul\":9680:9700   */\n      sub\n        /* \"#utility.yul\":9676:9677   */\n      0x00\n        /* \"#utility.yul\":9665:9674   */\n      dup4\n        /* \"#utility.yul\":9661:9678   */\n      add\n        /* \"#utility.yul\":9654:9701   */\n      mstore\n        /* \"#utility.yul\":9718:9849   */\n      tag_326\n        /* \"#utility.yul\":9844:9848   */\n      dup2\n        /* \"#utility.yul\":9718:9849   */\n      tag_260\n      jump\t// in\n    tag_326:\n        /* \"#utility.yul\":9710:9849   */\n      swap1\n      pop\n        /* \"#utility.yul\":9608:9856   */\n      swap2\n      swap1\n      pop\n      jump\t// out\n        /* \"#utility.yul\":9862:10281   */\n    tag_178:\n        /* \"#utility.yul\":10028:10032   */\n      0x00\n        /* \"#utility.yul\":10066:10068   */\n      0x20\n        /* \"#utility.yul\":10055:10064   */\n      dup3\n        /* \"#utility.yul\":10051:10069   */\n      add\n        /* \"#utility.yul\":10043:10069   */\n      swap1\n      pop\n        /* \"#utility.yul\":10115:10124   */\n      dup2\n        /* \"#utility.yul\":10109:10113   */\n      dup2\n        /* \"#utility.yul\":10105:10125   */\n      sub\n        /* \"#utility.yul\":10101:10102   */\n      0x00\n        /* \"#utility.yul\":10090:10099   */\n      dup4\n        /* \"#utility.yul\":10086:10103   */\n      add\n        /* \"#utility.yul\":10079:10126   */\n      mstore\n        /* \"#utility.yul\":10143:10274   */\n      tag_328\n        /* \"#utility.yul\":10269:10273   */\n      dup2\n        /* \"#utility.yul\":10143:10274   */\n      tag_265\n      jump\t// in\n    tag_328:\n        /* \"#utility.yul\":10135:10274   */\n      swap1\n      pop\n        /* \"#utility.yul\":10033:10281   */\n      swap2\n      swap1\n      pop\n      jump\t// out\n        /* \"#utility.yul\":10287:10706   */\n    tag_97:\n        /* \"#utility.yul\":10453:10457   */\n      0x00\n        /* \"#utility.yul\":10491:10493   */\n      0x20\n        /* \"#utility.yul\":10480:10489   */\n      dup3\n        /* \"#utility.yul\":10476:10494   */\n      add\n        /* \"#utility.yul\":10468:10494   */\n      swap1\n      pop\n        /* \"#utility.yul\":10540:10549   */\n      dup2\n        /* \"#utility.yul\":10534:10538   */\n      dup2\n        /* \"#utility.yul\":10530:10550   */\n      sub\n        /* \"#utility.yul\":10526:10527   */\n      0x00\n        /* \"#utility.yul\":10515:10524   */\n      dup4\n        /* \"#utility.yul\":10511:10528   */\n      add\n        /* \"#utility.yul\":10504:10551   */\n      mstore\n        /* \"#utility.yul\":10568:10699   */\n      tag_330\n        /* \"#utility.yul\":10694:10698   */\n      dup2\n        /* \"#utility.yul\":10568:10699   */\n      tag_270\n      jump\t// in\n    tag_330:\n        /* \"#utility.yul\":10560:10699   */\n      swap1\n      pop\n        /* \"#utility.yul\":10458:10706   */\n      swap2\n      swap1\n      pop\n      jump\t// out\n        /* \"#utility.yul\":10712:11131   */\n    tag_192:\n        /* \"#utility.yul\":10878:10882   */\n      0x00\n        /* \"#utility.yul\":10916:10918   */\n      0x20\n        /* \"#utility.yul\":10905:10914   */\n      dup3\n        /* \"#utility.yul\":10901:10919   */\n      add\n        /* \"#utility.yul\":10893:10919   */\n      swap1\n      pop\n        /* \"#utility.yul\":10965:10974   */\n      dup2\n        /* \"#utility.yul\":10959:10963   */\n      dup2\n        /* \"#utility.yul\":10955:10975   */\n      sub\n        /* \"#utility.yul\":10951:10952   */\n      0x00\n        /* \"#utility.yul\":10940:10949   */\n      dup4\n        /* \"#utility.yul\":10936:10953   */\n      add\n        /* \"#utility.yul\":10929:10976   */\n      mstore\n        /* \"#utility.yul\":10993:11124   */\n      tag_332\n        /* \"#utility.yul\":11119:11123   */\n      dup2\n        /* \"#utility.yul\":10993:11124   */\n      tag_275\n      jump\t// in\n    tag_332:\n        /* \"#utility.yul\":10985:11124   */\n      swap1\n      pop\n        /* \"#utility.yul\":10883:11131   */\n      swap2\n      swap1\n      pop\n      jump\t// out\n        /* \"#utility.yul\":11137:11556   */\n    tag_145:\n        /* \"#utility.yul\":11303:11307   */\n      0x00\n        /* \"#utility.yul\":11341:11343   */\n      0x20\n        /* \"#utility.yul\":11330:11339   */\n      dup3\n        /* \"#utility.yul\":11326:11344   */\n      add\n        /* \"#utility.yul\":11318:11344   */\n      swap1\n      pop\n        /* \"#utility.yul\":11390:11399   */\n      dup2\n        /* \"#utility.yul\":11384:11388   */\n      dup2\n        /* \"#utility.yul\":11380:11400   */\n      sub\n        /* \"#utility.yul\":11376:11377   */\n      0x00\n        /* \"#utility.yul\":11365:11374   */\n      dup4\n        /* \"#utility.yul\":11361:11378   */\n      add\n        /* \"#utility.yul\":11354:11401   */\n      mstore\n        /* \"#utility.yul\":11418:11549   */\n      tag_334\n        /* \"#utility.yul\":11544:11548   */\n      dup2\n        /* \"#utility.yul\":11418:11549   */\n      tag_280\n      jump\t// in\n    tag_334:\n        /* \"#utility.yul\":11410:11549   */\n      swap1\n      pop\n        /* \"#utility.yul\":11308:11556   */\n      swap2\n      swap1\n      pop\n      jump\t// out\n        /* \"#utility.yul\":11562:11981   */\n    tag_172:\n        /* \"#utility.yul\":11728:11732   */\n      0x00\n        /* \"#utility.yul\":11766:11768   */\n      0x20\n        /* \"#utility.yul\":11755:11764   */\n      dup3\n        /* \"#utility.yul\":11751:11769   */\n      add\n        /* \"#utility.yul\":11743:11769   */\n      swap1\n      pop\n        /* \"#utility.yul\":11815:11824   */\n      dup2\n        /* \"#utility.yul\":11809:11813   */\n      dup2\n        /* \"#utility.yul\":11805:11825   */\n      sub\n        /* \"#utility.yul\":11801:11802   */\n      0x00\n        /* \"#utility.yul\":11790:11799   */\n      dup4\n        /* \"#utility.yul\":11786:11803   */\n      add\n        /* \"#utility.yul\":11779:11826   */\n      mstore\n        /* \"#utility.yul\":11843:11974   */\n      tag_336\n        /* \"#utility.yul\":11969:11973   */\n      dup2\n        /* \"#utility.yul\":11843:11974   */\n      tag_285\n      jump\t// in\n    tag_336:\n        /* \"#utility.yul\":11835:11974   */\n      swap1\n      pop\n        /* \"#utility.yul\":11733:11981   */\n      swap2\n      swap1\n      pop\n      jump\t// out\n        /* \"#utility.yul\":11987:12406   */\n    tag_154:\n        /* \"#utility.yul\":12153:12157   */\n      0x00\n        /* \"#utility.yul\":12191:12193   */\n      0x20\n        /* \"#utility.yul\":12180:12189   */\n      dup3\n        /* \"#utility.yul\":12176:12194   */\n      add\n        /* \"#utility.yul\":12168:12194   */\n      swap1\n      pop\n        /* \"#utility.yul\":12240:12249   */\n      dup2\n        /* \"#utility.yul\":12234:12238   */\n      dup2\n        /* \"#utility.yul\":12230:12250   */\n      sub\n        /* \"#utility.yul\":12226:12227   */\n      0x00\n        /* \"#utility.yul\":12215:12224   */\n      dup4\n        /* \"#utility.yul\":12211:12228   */\n      add\n        /* \"#utility.yul\":12204:12251   */\n      mstore\n        /* \"#utility.yul\":12268:12399   */\n      tag_338\n        /* \"#utility.yul\":12394:12398   */\n      dup2\n        /* \"#utility.yul\":12268:12399   */\n      tag_290\n      jump\t// in\n    tag_338:\n        /* \"#utility.yul\":12260:12399   */\n      swap1\n      pop\n        /* \"#utility.yul\":12158:12406   */\n      swap2\n      swap1\n      pop\n      jump\t// out\n        /* \"#utility.yul\":12412:12831   */\n    tag_196:\n        /* \"#utility.yul\":12578:12582   */\n      0x00\n        /* \"#utility.yul\":12616:12618   */\n      0x20\n        /* \"#utility.yul\":12605:12614   */\n      dup3\n        /* \"#utility.yul\":12601:12619   */\n      add\n        /* \"#utility.yul\":12593:12619   */\n      swap1\n      pop\n        /* \"#utility.yul\":12665:12674   */\n      dup2\n        /* \"#utility.yul\":12659:12663   */\n      dup2\n        /* \"#utility.yul\":12655:12675   */\n      sub\n        /* \"#utility.yul\":12651:12652   */\n      0x00\n        /* \"#utility.yul\":12640:12649   */\n      dup4\n        /* \"#utility.yul\":12636:12653   */\n      add\n        /* \"#utility.yul\":12629:12676   */\n      mstore\n        /* \"#utility.yul\":12693:12824   */\n      tag_340\n        /* \"#utility.yul\":12819:12823   */\n      dup2\n        /* \"#utility.yul\":12693:12824   */\n      tag_295\n      jump\t// in\n    tag_340:\n        /* \"#utility.yul\":12685:12824   */\n      swap1\n      pop\n        /* \"#utility.yul\":12583:12831   */\n      swap2\n      swap1\n      pop\n      jump\t// out\n        /* \"#utility.yul\":12837:13059   */\n    tag_30:\n        /* \"#utility.yul\":12930:12934   */\n      0x00\n        /* \"#utility.yul\":12968:12970   */\n      0x20\n        /* \"#utility.yul\":12957:12966   */\n      dup3\n        /* \"#utility.yul\":12953:12971   */\n      add\n        /* \"#utility.yul\":12945:12971   */\n      swap1\n      pop\n        /* \"#utility.yul\":12981:13052   */\n      tag_342\n        /* \"#utility.yul\":13049:13050   */\n      0x00\n        /* \"#utility.yul\":13038:13047   */\n      dup4\n        /* \"#utility.yul\":13034:13051   */\n      add\n        /* \"#utility.yul\":13025:13031   */\n      dup5\n        /* \"#utility.yul\":12981:13052   */\n      tag_300\n      jump\t// in\n    tag_342:\n        /* \"#utility.yul\":12935:13059   */\n      swap3\n      swap2\n      pop\n      pop\n      jump\t// out\n        /* \"#utility.yul\":13065:13385   */\n    tag_125:\n        /* \"#utility.yul\":13180:13184   */\n      0x00\n        /* \"#utility.yul\":13218:13220   */\n      0x40\n        /* \"#utility.yul\":13207:13216   */\n      dup3\n        /* \"#utility.yul\":13203:13221   */\n      add\n        /* \"#utility.yul\":13195:13221   */\n      swap1\n      pop\n        /* \"#utility.yul\":13231:13302   */\n      tag_344\n        /* \"#utility.yul\":13299:13300   */\n      0x00\n        /* \"#utility.yul\":13288:13297   */\n      dup4\n        /* \"#utility.yul\":13284:13301   */\n      add\n        /* \"#utility.yul\":13275:13281   */\n      dup6\n        /* \"#utility.yul\":13231:13302   */\n      tag_300\n      jump\t// in\n    tag_344:\n        /* \"#utility.yul\":13312:13378   */\n      tag_345\n        /* \"#utility.yul\":13374:13376   */\n      0x20\n        /* \"#utility.yul\":13363:13372   */\n      dup4\n        /* \"#utility.yul\":13359:13377   */\n      add\n        /* \"#utility.yul\":13350:13356   */\n      dup5\n        /* \"#utility.yul\":13312:13378   */\n      tag_231\n      jump\t// in\n    tag_345:\n        /* \"#utility.yul\":13185:13385   */\n      swap4\n      swap3\n      pop\n      pop\n      pop\n      jump\t// out\n        /* \"#utility.yul\":13391:13560   */\n    tag_242:\n        /* \"#utility.yul\":13475:13486   */\n      0x00\n        /* \"#utility.yul\":13509:13515   */\n      dup3\n        /* \"#utility.yul\":13504:13507   */\n      dup3\n        /* \"#utility.yul\":13497:13516   */\n      mstore\n        /* \"#utility.yul\":13549:13553   */\n      0x20\n        /* \"#utility.yul\":13544:13547   */\n      dup3\n        /* \"#utility.yul\":13540:13554   */\n      add\n        /* \"#utility.yul\":13525:13554   */\n      swap1\n      pop\n        /* \"#utility.yul\":13487:13560   */\n      swap3\n      swap2\n      pop\n      pop\n      jump\t// out\n        /* \"#utility.yul\":13566:13871   */\n    tag_142:\n        /* \"#utility.yul\":13606:13609   */\n      0x00\n        /* \"#utility.yul\":13625:13645   */\n      tag_348\n        /* \"#utility.yul\":13643:13644   */\n      dup3\n        /* \"#utility.yul\":13625:13645   */\n      tag_303\n      jump\t// in\n    tag_348:\n        /* \"#utility.yul\":13620:13645   */\n      swap2\n      pop\n        /* \"#utility.yul\":13659:13679   */\n      tag_349\n        /* \"#utility.yul\":13677:13678   */\n      dup4\n        /* \"#utility.yul\":13659:13679   */\n      tag_303\n      jump\t// in\n    tag_349:\n        /* \"#utility.yul\":13654:13679   */\n      swap3\n      pop\n        /* \"#utility.yul\":13813:13814   */\n      dup3\n        /* \"#utility.yul\":13745:13811   */\n      0xffffffffffffffffffffffffffffffffffffffffffffffffffffffffffffffff\n        /* \"#utility.yul\":13741:13815   */\n      sub\n        /* \"#utility.yul\":13738:13739   */\n      dup3\n        /* \"#utility.yul\":13735:13816   */\n      gt\n        /* \"#utility.yul\":13732:13734   */\n      iszero\n      tag_350\n      jumpi\n        /* \"#utility.yul\":13819:13837   */\n      tag_351\n      tag_352\n      jump\t// in\n    tag_351:\n        /* \"#utility.yul\":13732:13734   */\n    tag_350:\n        /* \"#utility.yul\":13863:13864   */\n      dup3\n        /* \"#utility.yul\":13860:13861   */\n      dup3\n        /* \"#utility.yul\":13856:13865   */\n      add\n        /* \"#utility.yul\":13849:13865   */\n      swap1\n      pop\n        /* \"#utility.yul\":13610:13871   */\n      swap3\n      swap2\n      pop\n      pop\n      jump\t// out\n        /* \"#utility.yul\":13877:14068   */\n    tag_201:\n        /* \"#utility.yul\":13917:13921   */\n      0x00\n        /* \"#utility.yul\":13937:13957   */\n      tag_354\n        /* \"#utility.yul\":13955:13956   */\n      dup3\n        /* \"#utility.yul\":13937:13957   */\n      tag_303\n      jump\t// in\n    tag_354:\n        /* \"#utility.yul\":13932:13957   */\n      swap2\n      pop\n        /* \"#utility.yul\":13971:13991   */\n      tag_355\n        /* \"#utility.yul\":13989:13990   */\n      dup4\n        /* \"#utility.yul\":13971:13991   */\n      tag_303\n      jump\t// in\n    tag_355:\n        /* \"#utility.yul\":13966:13991   */\n      swap3\n      pop\n        /* \"#utility.yul\":14010:14011   */\n      dup3\n        /* \"#utility.yul\":14007:14008   */\n      dup3\n        /* \"#utility.yul\":14004:14012   */\n      lt\n        /* \"#utility.yul\":14001:14003   */\n      iszero\n      tag_356\n      jumpi\n        /* \"#utility.yul\":14015:14033   */\n      tag_357\n      tag_352\n      jump\t// in\n    tag_357:\n        /* \"#utility.yul\":14001:14003   */\n    tag_356:\n        /* \"#utility.yul\":14060:14061   */\n      dup3\n        /* \"#utility.yul\":14057:14058   */\n      dup3\n        /* \"#utility.yul\":14053:14062   */\n      sub\n        /* \"#utility.yul\":14045:14062   */\n      swap1\n      pop\n        /* \"#utility.yul\":13922:14068   */\n      swap3\n      swap2\n      pop\n      pop\n      jump\t// out\n        /* \"#utility.yul\":14074:14170   */\n    tag_230:\n        /* \"#utility.yul\":14111:14118   */\n      0x00\n        /* \"#utility.yul\":14140:14164   */\n      tag_359\n        /* \"#utility.yul\":14158:14163   */\n      dup3\n        /* \"#utility.yul\":14140:14164   */\n      tag_360\n      jump\t// in\n    tag_359:\n        /* \"#utility.yul\":14129:14164   */\n      swap1\n      pop\n        /* \"#utility.yul\":14119:14170   */\n      swap2\n      swap1\n      pop\n      jump\t// out\n        /* \"#utility.yul\":14176:14266   */\n    tag_234:\n        /* \"#utility.yul\":14210:14217   */\n      0x00\n        /* \"#utility.yul\":14253:14258   */\n      dup2\n        /* \"#utility.yul\":14246:14259   */\n      iszero\n        /* \"#utility.yul\":14239:14260   */\n      iszero\n        /* \"#utility.yul\":14228:14260   */\n      swap1\n      pop\n        /* \"#utility.yul\":14218:14266   */\n      swap2\n      swap1\n      pop\n      jump\t// out\n        /* \"#utility.yul\":14272:14398   */\n    tag_360:\n        /* \"#utility.yul\":14309:14316   */\n      0x00\n        /* \"#utility.yul\":14349:14391   */\n      0xffffffffffffffffffffffffffffffffffffffff\n        /* \"#utility.yul\":14342:14347   */\n      dup3\n        /* \"#utility.yul\":14338:14392   */\n      and\n        /* \"#utility.yul\":14327:14392   */\n      swap1\n      pop\n        /* \"#utility.yul\":14317:14398   */\n      swap2\n      swap1\n      pop\n      jump\t// out\n        /* \"#utility.yul\":14404:14481   */\n    tag_303:\n        /* \"#utility.yul\":14441:14448   */\n      0x00\n        /* \"#utility.yul\":14470:14475   */\n      dup2\n        /* \"#utility.yul\":14459:14475   */\n      swap1\n      pop\n        /* \"#utility.yul\":14449:14481   */\n      swap2\n      swap1\n      pop\n      jump\t// out\n        /* \"#utility.yul\":14487:14641   */\n    tag_238:\n        /* \"#utility.yul\":14551:14560   */\n      0x00\n        /* \"#utility.yul\":14584:14635   */\n      tag_365\n        /* \"#utility.yul\":14629:14634   */\n      dup3\n        /* \"#utility.yul\":14584:14635   */\n      tag_366\n      jump\t// in\n    tag_365:\n        /* \"#utility.yul\":14571:14635   */\n      swap1\n      pop\n        /* \"#utility.yul\":14561:14641   */\n      swap2\n      swap1\n      pop\n      jump\t// out\n        /* \"#utility.yul\":14647:14774   */\n    tag_366:\n        /* \"#utility.yul\":14711:14720   */\n      0x00\n        /* \"#utility.yul\":14744:14768   */\n      tag_368\n        /* \"#utility.yul\":14762:14767   */\n      dup3\n        /* \"#utility.yul\":14744:14768   */\n      tag_360\n      jump\t// in\n    tag_368:\n        /* \"#utility.yul\":14731:14768   */\n      swap1\n      pop\n        /* \"#utility.yul\":14721:14774   */\n      swap2\n      swap1\n      pop\n      jump\t// out\n        /* \"#utility.yul\":14780:14960   */\n    tag_352:\n        /* \"#utility.yul\":14828:14905   */\n      0x4e487b7100000000000000000000000000000000000000000000000000000000\n        /* \"#utility.yul\":14825:14826   */\n      0x00\n        /* \"#utility.yul\":14818:14906   */\n      mstore\n        /* \"#utility.yul\":14925:14929   */\n      0x11\n        /* \"#utility.yul\":14922:14923   */\n      0x04\n        /* \"#utility.yul\":14915:14930   */\n      mstore\n        /* \"#utility.yul\":14949:14953   */\n      0x24\n        /* \"#utility.yul\":14946:14947   */\n      0x00\n        /* \"#utility.yul\":14939:14954   */\n      revert\n        /* \"#utility.yul\":14966:15122   */\n    tag_244:\n        /* \"#utility.yul\":15106:15114   */\n      0x4c6f636b65640000000000000000000000000000000000000000000000000000\n        /* \"#utility.yul\":15102:15103   */\n      0x00\n        /* \"#utility.yul\":15094:15100   */\n      dup3\n        /* \"#utility.yul\":15090:15104   */\n      add\n        /* \"#utility.yul\":15083:15115   */\n      mstore\n        /* \"#utility.yul\":15072:15122   */\n      pop\n      jump\t// out\n        /* \"#utility.yul\":15128:15353   */\n    tag_249:\n        /* \"#utility.yul\":15268:15302   */\n      0x4f776e61626c653a206e6577206f776e657220697320746865207a65726f2061\n        /* \"#utility.yul\":15264:15265   */\n      0x00\n        /* \"#utility.yul\":15256:15262   */\n      dup3\n        /* \"#utility.yul\":15252:15266   */\n      add\n        /* \"#utility.yul\":15245:15303   */\n      mstore\n        /* \"#utility.yul\":15337:15345   */\n      0x6464726573730000000000000000000000000000000000000000000000000000\n        /* \"#utility.yul\":15332:15334   */\n      0x20\n        /* \"#utility.yul\":15324:15330   */\n      dup3\n        /* \"#utility.yul\":15320:15335   */\n      add\n        /* \"#utility.yul\":15313:15346   */\n      mstore\n        /* \"#utility.yul\":15234:15353   */\n      pop\n      jump\t// out\n        /* \"#utility.yul\":15359:15529   */\n    tag_254:\n        /* \"#utility.yul\":15499:15521   */\n      0x496e73756666696369656e742062616c616e6365000000000000000000000000\n        /* \"#utility.yul\":15495:15496   */\n      0x00\n        /* \"#utility.yul\":15487:15493   */\n      dup3\n        /* \"#utility.yul\":15483:15497   */\n      add\n        /* \"#utility.yul\":15476:15522   */\n      mstore\n        /* \"#utility.yul\":15465:15529   */\n      pop\n      jump\t// out\n        /* \"#utility.yul\":15535:15831   */\n    tag_259:\n        /* \"#utility.yul\":15675:15709   */\n      0x416d6f756e74206578636565647320746865206d6178696d756d20616d6f756e\n        /* \"#utility.yul\":15671:15672   */\n      0x00\n        /* \"#utility.yul\":15663:15669   */\n      dup3\n        /* \"#utility.yul\":15659:15673   */\n      add\n        /* \"#utility.yul\":15652:15710   */\n      mstore\n        /* \"#utility.yul\":15744:15778   */\n      0x74206f6620706f6f6c20706c656467657320616c6c6f77656420666f72207468\n        /* \"#utility.yul\":15739:15741   */\n      0x20\n        /* \"#utility.yul\":15731:15737   */\n      dup3\n        /* \"#utility.yul\":15727:15742   */\n      add\n        /* \"#utility.yul\":15720:15779   */\n      mstore\n        /* \"#utility.yul\":15813:15823   */\n      0x6520706572696f64000000000000000000000000000000000000000000000000\n        /* \"#utility.yul\":15808:15810   */\n      0x40\n        /* \"#utility.yul\":15800:15806   */\n      dup3\n        /* \"#utility.yul\":15796:15811   */\n      add\n        /* \"#utility.yul\":15789:15824   */\n      mstore\n        /* \"#utility.yul\":15641:15831   */\n      pop\n      jump\t// out\n        /* \"#utility.yul\":15837:16008   */\n    tag_264:\n        /* \"#utility.yul\":15977:16000   */\n      0x546f6b656e207472616e73666572206661696c65640000000000000000000000\n        /* \"#utility.yul\":15973:15974   */\n      0x00\n        /* \"#utility.yul\":15965:15971   */\n      dup3\n        /* \"#utility.yul\":15961:15975   */\n      add\n        /* \"#utility.yul\":15954:16001   */\n      mstore\n        /* \"#utility.yul\":15943:16008   */\n      pop\n      jump\t// out\n        /* \"#utility.yul\":16014:16195   */\n    tag_269:\n        /* \"#utility.yul\":16154:16187   */\n      0x416d6f756e742073686f756c642062652067726561746572207468616e203000\n        /* \"#utility.yul\":16150:16151   */\n      0x00\n        /* \"#utility.yul\":16142:16148   */\n      dup3\n        /* \"#utility.yul\":16138:16152   */\n      add\n        /* \"#utility.yul\":16131:16188   */\n      mstore\n        /* \"#utility.yul\":16120:16195   */\n      pop\n      jump\t// out\n        /* \"#utility.yul\":16201:16423   */\n    tag_274:\n        /* \"#utility.yul\":16341:16375   */\n      0x4d617820616d6f756e742073686f756c64206265206772656174657220746861\n        /* \"#utility.yul\":16337:16338   */\n      0x00\n        /* \"#utility.yul\":16329:16335   */\n      dup3\n        /* \"#utility.yul\":16325:16339   */\n      add\n        /* \"#utility.yul\":16318:16376   */\n      mstore\n        /* \"#utility.yul\":16410:16415   */\n      0x6e20300000000000000000000000000000000000000000000000000000000000\n        /* \"#utility.yul\":16405:16407   */\n      0x20\n        /* \"#utility.yul\":16397:16403   */\n      dup3\n        /* \"#utility.yul\":16393:16408   */\n      add\n        /* \"#utility.yul\":16386:16416   */\n      mstore\n        /* \"#utility.yul\":16307:16423   */\n      pop\n      jump\t// out\n        /* \"#utility.yul\":16429:16611   */\n    tag_279:\n        /* \"#utility.yul\":16569:16603   */\n      0x4f776e61626c653a2063616c6c6572206973206e6f7420746865206f776e6572\n        /* \"#utility.yul\":16565:16566   */\n      0x00\n        /* \"#utility.yul\":16557:16563   */\n      dup3\n        /* \"#utility.yul\":16553:16567   */\n      add\n        /* \"#utility.yul\":16546:16604   */\n      mstore\n        /* \"#utility.yul\":16535:16611   */\n      pop\n      jump\t// out\n        /* \"#utility.yul\":16617:16842   */\n    tag_284:\n        /* \"#utility.yul\":16757:16791   */\n      0x5468652063757272656e74207374616b696e6720616374697669747920686173\n        /* \"#utility.yul\":16753:16754   */\n      0x00\n        /* \"#utility.yul\":16745:16751   */\n      dup3\n        /* \"#utility.yul\":16741:16755   */\n      add\n        /* \"#utility.yul\":16734:16792   */\n      mstore\n        /* \"#utility.yul\":16826:16834   */\n      0x20656e6465640000000000000000000000000000000000000000000000000000\n        /* \"#utility.yul\":16821:16823   */\n      0x20\n        /* \"#utility.yul\":16813:16819   */\n      dup3\n        /* \"#utility.yul\":16809:16824   */\n      add\n        /* \"#utility.yul\":16802:16835   */\n      mstore\n        /* \"#utility.yul\":16723:16842   */\n      pop\n      jump\t// out\n        /* \"#utility.yul\":16848:17072   */\n    tag_289:\n        /* \"#utility.yul\":16988:17022   */\n      0x4c6f636b7570506572696f642073686f756c6420626520677265617465722074\n        /* \"#utility.yul\":16984:16985   */\n      0x00\n        /* \"#utility.yul\":16976:16982   */\n      dup3\n        /* \"#utility.yul\":16972:16986   */\n      add\n        /* \"#utility.yul\":16965:17023   */\n      mstore\n        /* \"#utility.yul\":17057:17064   */\n      0x68616e2030000000000000000000000000000000000000000000000000000000\n        /* \"#utility.yul\":17052:17054   */\n      0x20\n        /* \"#utility.yul\":17044:17050   */\n      dup3\n        /* \"#utility.yul\":17040:17055   */\n      add\n        /* \"#utility.yul\":17033:17065   */\n      mstore\n        /* \"#utility.yul\":16954:17072   */\n      pop\n      jump\t// out\n        /* \"#utility.yul\":17078:17321   */\n    tag_294:\n        /* \"#utility.yul\":17218:17252   */\n      0x416d6f756e742073686f756c642062652067726561746572207468616e206f72\n        /* \"#utility.yul\":17214:17215   */\n      0x00\n        /* \"#utility.yul\":17206:17212   */\n      dup3\n        /* \"#utility.yul\":17202:17216   */\n      add\n        /* \"#utility.yul\":17195:17253   */\n      mstore\n        /* \"#utility.yul\":17287:17313   */\n      0x20657175616c20746f206d696e5374616b65416d6f756e740000000000000000\n        /* \"#utility.yul\":17282:17284   */\n      0x20\n        /* \"#utility.yul\":17274:17280   */\n      dup3\n        /* \"#utility.yul\":17270:17285   */\n      add\n        /* \"#utility.yul\":17263:17314   */\n      mstore\n        /* \"#utility.yul\":17184:17321   */\n      pop\n      jump\t// out\n        /* \"#utility.yul\":17327:17508   */\n    tag_299:\n        /* \"#utility.yul\":17467:17500   */\n      0x5265656e7472616e637947756172643a207265656e7472616e742063616c6c00\n        /* \"#utility.yul\":17463:17464   */\n      0x00\n        /* \"#utility.yul\":17455:17461   */\n      dup3\n        /* \"#utility.yul\":17451:17465   */\n      add\n        /* \"#utility.yul\":17444:17501   */\n      mstore\n        /* \"#utility.yul\":17433:17508   */\n      pop\n      jump\t// out\n        /* \"#utility.yul\":17514:17636   */\n    tag_209:\n        /* \"#utility.yul\":17587:17611   */\n      tag_383\n        /* \"#utility.yul\":17605:17610   */\n      dup2\n        /* \"#utility.yul\":17587:17611   */\n      tag_230\n      jump\t// in\n    tag_383:\n        /* \"#utility.yul\":17580:17585   */\n      dup2\n        /* \"#utility.yul\":17577:17612   */\n      eq\n        /* \"#utility.yul\":17567:17569   */\n      tag_384\n      jumpi\n        /* \"#utility.yul\":17626:17627   */\n      0x00\n        /* \"#utility.yul\":17623:17624   */\n      dup1\n        /* \"#utility.yul\":17616:17628   */\n      revert\n        /* \"#utility.yul\":17567:17569   */\n    tag_384:\n        /* \"#utility.yul\":17557:17636   */\n      pop\n      jump\t// out\n        /* \"#utility.yul\":17642:17758   */\n    tag_213:\n        /* \"#utility.yul\":17712:17733   */\n      tag_386\n        /* \"#utility.yul\":17727:17732   */\n      dup2\n        /* \"#utility.yul\":17712:17733   */\n      tag_234\n      jump\t// in\n    tag_386:\n        /* \"#utility.yul\":17705:17710   */\n      dup2\n        /* \"#utility.yul\":17702:17734   */\n      eq\n        /* \"#utility.yul\":17692:17694   */\n      tag_387\n      jumpi\n        /* \"#utility.yul\":17748:17749   */\n      0x00\n        /* \"#utility.yul\":17745:17746   */\n      dup1\n        /* \"#utility.yul\":17738:17750   */\n      revert\n        /* \"#utility.yul\":17692:17694   */\n    tag_387:\n        /* \"#utility.yul\":17682:17758   */\n      pop\n      jump\t// out\n        /* \"#utility.yul\":17764:17886   */\n    tag_217:\n        /* \"#utility.yul\":17837:17861   */\n      tag_389\n        /* \"#utility.yul\":17855:17860   */\n      dup2\n        /* \"#utility.yul\":17837:17861   */\n      tag_303\n      jump\t// in\n    tag_389:\n        /* \"#utility.yul\":17830:17835   */\n      dup2\n        /* \"#utility.yul\":17827:17862   */\n      eq\n        /* \"#utility.yul\":17817:17819   */\n      tag_390\n      jumpi\n        /* \"#utility.yul\":17876:17877   */\n      0x00\n        /* \"#utility.yul\":17873:17874   */\n      dup1\n        /* \"#utility.yul\":17866:17878   */\n      revert\n        /* \"#utility.yul\":17817:17819   */\n    tag_390:\n        /* \"#utility.yul\":17807:17886   */\n      pop\n      jump\t// out\n\n    auxdata: 0xa2646970667358221220bbab40c8d68abbc76d5a5118d93874857cf8128d9e3aff005f2cfe83f8f0fc2564736f6c63430008040033\n}\n",
				"bytecode": {
					"linkReferences": {},
					"object": "60806040523480156200001157600080fd5b5060405162001cad38038062001cad8339818101604052810190620000379190620001bf565b620000576200004b620000c560201b60201c565b620000cd60201b60201c565b6001808190555083600260006101000a81548173ffffffffffffffffffffffffffffffffffffffff021916908373ffffffffffffffffffffffffffffffffffffffff16021790555082600881905550816004819055508060038190555042600581905550505050506200029d565b600033905090565b60008060009054906101000a900473ffffffffffffffffffffffffffffffffffffffff169050816000806101000a81548173ffffffffffffffffffffffffffffffffffffffff021916908373ffffffffffffffffffffffffffffffffffffffff1602179055508173ffffffffffffffffffffffffffffffffffffffff168173ffffffffffffffffffffffffffffffffffffffff167f8be0079c531659141344cd1fd0a4f28419497f9722a3daafe3b4186f6b6457e060405160405180910390a35050565b600081519050620001a28162000269565b92915050565b600081519050620001b98162000283565b92915050565b60008060008060808587031215620001d657600080fd5b6000620001e68782880162000191565b9450506020620001f987828801620001a8565b93505060406200020c87828801620001a8565b92505060606200021f87828801620001a8565b91505092959194509250565b600062000238826200023f565b9050919050565b600073ffffffffffffffffffffffffffffffffffffffff82169050919050565b6000819050919050565b62000274816200022b565b81146200028057600080fd5b50565b6200028e816200025f565b81146200029a57600080fd5b50565b611a0080620002ad6000396000f3fe608060405234801561001057600080fd5b50600436106101215760003560e01c80638da5cb5b116100ad578063ee947a7c11610071578063ee947a7c146102e0578063f1887684146102fe578063f2fde38b1461031c578063fb5d6be714610338578063fc0c546a1461036857610121565b80638da5cb5b1461025057806394409a561461026e578063a694fc3a1461028c578063c771c390146102a8578063eb4af045146102c457610121565b80635d90bad9116100f45780635d90bad9146101be5780635f48f393146101da5780636abfd183146101f857806370a0823114610216578063715018a61461024657610121565b806327e235e3146101265780634fe47f7014610156578063583d42fd146101725780635d3eea91146101a2575b600080fd5b610140600480360381019061013b9190611089565b610386565b60405161014d9190611515565b60405180910390f35b610170600480360381019061016b91906110db565b61039e565b005b61018c60048036038101906101879190611089565b6103f3565b6040516101999190611515565b60405180910390f35b6101bc60048036038101906101b791906110db565b61040b565b005b6101d860048036038101906101d391906110db565b610812565b005b6101e2610824565b6040516101ef9190611515565b60405180910390f35b61020061082a565b60405161020d9190611515565b60405180910390f35b610230600480360381019061022b9190611089565b610830565b60405161023d9190611515565b60405180910390f35b61024e610879565b005b61025861088d565b60405161026591906112e4565b60405180910390f35b6102766108b6565b6040516102839190611515565b60405180910390f35b6102a660048036038101906102a191906110db565b6108bc565b005b6102c260048036038101906102bd91906110db565b610cfb565b005b6102de60048036038101906102d991906110db565b610d50565b005b6102e8610da5565b6040516102f59190611515565b60405180910390f35b610306610dab565b6040516103139190611515565b60405180910390f35b61033660048036038101906103319190611089565b610db1565b005b610352600480360381019061034d9190611089565b610e35565b60405161035f919061135f565b60405180910390f35b610370610e55565b60405161037d919061137a565b60405180910390f35b60096020528060005260406000206000915090505481565b6103a6610e7b565b600081116103e9576040517f08c379a00000000000000000000000000000000000000000000000000000000081526004016103e090611455565b60405180910390fd5b8060038190555050565b600a6020528060005260406000206000915090505481565b610413610ef9565b610467600454600a60003373ffffffffffffffffffffffffffffffffffffffff1673ffffffffffffffffffffffffffffffffffffffff16815260200190815260200160002054610f4990919063ffffffff16565b4210156104a9576040517f08c379a00000000000000000000000000000000000000000000000000000000081526004016104a090611395565b60405180910390fd5b80600960003373ffffffffffffffffffffffffffffffffffffffff1673ffffffffffffffffffffffffffffffffffffffff16815260200190815260200160002054101561052b576040517f08c379a0000000000000000000000000000000000000000000000000000000008152600401610522906113d5565b60405180910390fd5b600260009054906101000a900473ffffffffffffffffffffffffffffffffffffffff1673ffffffffffffffffffffffffffffffffffffffff1663a9059cbb33836040518363ffffffff1660e01b8152600401610588929190611336565b602060405180830381600087803b1580156105a257600080fd5b505af11580156105b6573d6000803e3d6000fd5b505050506040513d601f19601f820116820180604052508101906105da91906110b2565b610619576040517f08c379a000000000000000000000000000000000000000000000000000000000815260040161061090611415565b60405180910390fd5b61066b81600960003373ffffffffffffffffffffffffffffffffffffffff1673ffffffffffffffffffffffffffffffffffffffff16815260200190815260200160002054610f5f90919063ffffffff16565b600960003373ffffffffffffffffffffffffffffffffffffffff1673ffffffffffffffffffffffffffffffffffffffff168152602001908152602001600020819055506106c381600654610f5f90919063ffffffff16565b600681905550600854600960003373ffffffffffffffffffffffffffffffffffffffff1673ffffffffffffffffffffffffffffffffffffffff16815260200190815260200160002054101561076b576000600760003373ffffffffffffffffffffffffffffffffffffffff1673ffffffffffffffffffffffffffffffffffffffff16815260200190815260200160002060006101000a81548160ff0219169083151502179055505b3373ffffffffffffffffffffffffffffffffffffffff167fa9179ff547f1f0de68e137c5ad5718d07bc192be774041107d8fac3088ba418c82600760003373ffffffffffffffffffffffffffffffffffffffff1673ffffffffffffffffffffffffffffffffffffffff16815260200190815260200160002060009054906101000a900460ff166040516107ff929190611530565b60405180910390a261080f610f75565b50565b61081a610e7b565b8060058190555050565b60035481565b60055481565b6000600960008373ffffffffffffffffffffffffffffffffffffffff1673ffffffffffffffffffffffffffffffffffffffff168152602001908152602001600020549050919050565b610881610e7b565b61088b6000610f7e565b565b60008060009054906101000a900473ffffffffffffffffffffffffffffffffffffffff16905090565b60065481565b6108c4610ef9565b6004546005546108d4919061156a565b4210610915576040517f08c379a000000000000000000000000000000000000000000000000000000000815260040161090c90611495565b60405180910390fd5b61092a81600654610f4990919063ffffffff16565b610941600354600654610f4990919063ffffffff16565b1015610982576040517f08c379a0000000000000000000000000000000000000000000000000000000008152600401610979906113f5565b60405180910390fd5b6008546109d782600960003373ffffffffffffffffffffffffffffffffffffffff1673ffffffffffffffffffffffffffffffffffffffff16815260200190815260200160002054610f4990919063ffffffff16565b1015610a18576040517f08c379a0000000000000000000000000000000000000000000000000000000008152600401610a0f906114d5565b60405180910390fd5b600260009054906101000a900473ffffffffffffffffffffffffffffffffffffffff1673ffffffffffffffffffffffffffffffffffffffff166323b872dd3330846040518463ffffffff1660e01b8152600401610a77939291906112ff565b602060405180830381600087803b158015610a9157600080fd5b505af1158015610aa5573d6000803e3d6000fd5b505050506040513d601f19601f82011682018060405250810190610ac991906110b2565b610b08576040517f08c379a0000000000000000000000000000000000000000000000000000000008152600401610aff90611415565b60405180910390fd5b610b5a81600960003373ffffffffffffffffffffffffffffffffffffffff1673ffffffffffffffffffffffffffffffffffffffff16815260200190815260200160002054610f4990919063ffffffff16565b600960003373ffffffffffffffffffffffffffffffffffffffff1673ffffffffffffffffffffffffffffffffffffffff16815260200190815260200160002081905550610bb281600654610f4990919063ffffffff16565b60068190555042600a60003373ffffffffffffffffffffffffffffffffffffffff1673ffffffffffffffffffffffffffffffffffffffff168152602001908152602001600020819055506001600760003373ffffffffffffffffffffffffffffffffffffffff1673ffffffffffffffffffffffffffffffffffffffff16815260200190815260200160002060006101000a81548160ff0219169083151502179055503373ffffffffffffffffffffffffffffffffffffffff167f20580cc2838cc75cd2cfb9e285a0d4c24078360f4273611af79fcdff9a6a806f82600760003373ffffffffffffffffffffffffffffffffffffffff1673ffffffffffffffffffffffffffffffffffffffff16815260200190815260200160002060009054906101000a900460ff16604051610ce8929190611530565b60405180910390a2610cf8610f75565b50565b610d03610e7b565b60008111610d46576040517f08c379a0000000000000000000000000000000000000000000000000000000008152600401610d3d906114b5565b60405180910390fd5b8060048190555050565b610d58610e7b565b60008111610d9b576040517f08c379a0000000000000000000000000000000000000000000000000000000008152600401610d9290611435565b60405180910390fd5b8060088190555050565b60045481565b60085481565b610db9610e7b565b600073ffffffffffffffffffffffffffffffffffffffff168173ffffffffffffffffffffffffffffffffffffffff161415610e29576040517f08c379a0000000000000000000000000000000000000000000000000000000008152600401610e20906113b5565b60405180910390fd5b610e3281610f7e565b50565b60076020528060005260406000206000915054906101000a900460ff1681565b600260009054906101000a900473ffffffffffffffffffffffffffffffffffffffff1681565b610e83611042565b73ffffffffffffffffffffffffffffffffffffffff16610ea161088d565b73ffffffffffffffffffffffffffffffffffffffff1614610ef7576040517f08c379a0000000000000000000000000000000000000000000000000000000008152600401610eee90611475565b60405180910390fd5b565b60026001541415610f3f576040517f08c379a0000000000000000000000000000000000000000000000000000000008152600401610f36906114f5565b60405180910390fd5b6002600181905550565b60008183610f57919061156a565b905092915050565b60008183610f6d91906115c0565b905092915050565b60018081905550565b60008060009054906101000a900473ffffffffffffffffffffffffffffffffffffffff169050816000806101000a81548173ffffffffffffffffffffffffffffffffffffffff021916908373ffffffffffffffffffffffffffffffffffffffff1602179055508173ffffffffffffffffffffffffffffffffffffffff168173ffffffffffffffffffffffffffffffffffffffff167f8be0079c531659141344cd1fd0a4f28419497f9722a3daafe3b4186f6b6457e060405160405180910390a35050565b600033905090565b60008135905061105981611985565b92915050565b60008151905061106e8161199c565b92915050565b600081359050611083816119b3565b92915050565b60006020828403121561109b57600080fd5b60006110a98482850161104a565b91505092915050565b6000602082840312156110c457600080fd5b60006110d28482850161105f565b91505092915050565b6000602082840312156110ed57600080fd5b60006110fb84828501611074565b91505092915050565b61110d816115f4565b82525050565b61111c81611606565b82525050565b61112b8161163c565b82525050565b600061113e600683611559565b91506111498261168f565b602082019050919050565b6000611161602683611559565b915061116c826116b8565b604082019050919050565b6000611184601483611559565b915061118f82611707565b602082019050919050565b60006111a7604883611559565b91506111b282611730565b606082019050919050565b60006111ca601583611559565b91506111d5826117a5565b602082019050919050565b60006111ed601f83611559565b91506111f8826117ce565b602082019050919050565b6000611210602383611559565b915061121b826117f7565b604082019050919050565b6000611233602083611559565b915061123e82611846565b602082019050919050565b6000611256602683611559565b91506112618261186f565b604082019050919050565b6000611279602583611559565b9150611284826118be565b604082019050919050565b600061129c603883611559565b91506112a78261190d565b604082019050919050565b60006112bf601f83611559565b91506112ca8261195c565b602082019050919050565b6112de81611632565b82525050565b60006020820190506112f96000830184611104565b92915050565b60006060820190506113146000830186611104565b6113216020830185611104565b61132e60408301846112d5565b949350505050565b600060408201905061134b6000830185611104565b61135860208301846112d5565b9392505050565b60006020820190506113746000830184611113565b92915050565b600060208201905061138f6000830184611122565b92915050565b600060208201905081810360008301526113ae81611131565b9050919050565b600060208201905081810360008301526113ce81611154565b9050919050565b600060208201905081810360008301526113ee81611177565b9050919050565b6000602082019050818103600083015261140e8161119a565b9050919050565b6000602082019050818103600083015261142e816111bd565b9050919050565b6000602082019050818103600083015261144e816111e0565b9050919050565b6000602082019050818103600083015261146e81611203565b9050919050565b6000602082019050818103600083015261148e81611226565b9050919050565b600060208201905081810360008301526114ae81611249565b9050919050565b600060208201905081810360008301526114ce8161126c565b9050919050565b600060208201905081810360008301526114ee8161128f565b9050919050565b6000602082019050818103600083015261150e816112b2565b9050919050565b600060208201905061152a60008301846112d5565b92915050565b600060408201905061154560008301856112d5565b6115526020830184611113565b9392505050565b600082825260208201905092915050565b600061157582611632565b915061158083611632565b9250827fffffffffffffffffffffffffffffffffffffffffffffffffffffffffffffffff038211156115b5576115b4611660565b5b828201905092915050565b60006115cb82611632565b91506115d683611632565b9250828210156115e9576115e8611660565b5b828203905092915050565b60006115ff82611612565b9050919050565b60008115159050919050565b600073ffffffffffffffffffffffffffffffffffffffff82169050919050565b6000819050919050565b60006116478261164e565b9050919050565b600061165982611612565b9050919050565b7f4e487b7100000000000000000000000000000000000000000000000000000000600052601160045260246000fd5b7f4c6f636b65640000000000000000000000000000000000000000000000000000600082015250565b7f4f776e61626c653a206e6577206f776e657220697320746865207a65726f206160008201527f6464726573730000000000000000000000000000000000000000000000000000602082015250565b7f496e73756666696369656e742062616c616e6365000000000000000000000000600082015250565b7f416d6f756e74206578636565647320746865206d6178696d756d20616d6f756e60008201527f74206f6620706f6f6c20706c656467657320616c6c6f77656420666f7220746860208201527f6520706572696f64000000000000000000000000000000000000000000000000604082015250565b7f546f6b656e207472616e73666572206661696c65640000000000000000000000600082015250565b7f416d6f756e742073686f756c642062652067726561746572207468616e203000600082015250565b7f4d617820616d6f756e742073686f756c6420626520677265617465722074686160008201527f6e20300000000000000000000000000000000000000000000000000000000000602082015250565b7f4f776e61626c653a2063616c6c6572206973206e6f7420746865206f776e6572600082015250565b7f5468652063757272656e74207374616b696e672061637469766974792068617360008201527f20656e6465640000000000000000000000000000000000000000000000000000602082015250565b7f4c6f636b7570506572696f642073686f756c642062652067726561746572207460008201527f68616e2030000000000000000000000000000000000000000000000000000000602082015250565b7f416d6f756e742073686f756c642062652067726561746572207468616e206f7260008201527f20657175616c20746f206d696e5374616b65416d6f756e740000000000000000602082015250565b7f5265656e7472616e637947756172643a207265656e7472616e742063616c6c00600082015250565b61198e816115f4565b811461199957600080fd5b50565b6119a581611606565b81146119b057600080fd5b50565b6119bc81611632565b81146119c757600080fd5b5056fea2646970667358221220bbab40c8d68abbc76d5a5118d93874857cf8128d9e3aff005f2cfe83f8f0fc2564736f6c63430008040033",
					"opcodes": "PUSH1 0x80 PUSH1 0x40 MSTORE CALLVALUE DUP1 ISZERO PUSH3 0x11 JUMPI PUSH1 0x0 DUP1 REVERT JUMPDEST POP PUSH1 0x40 MLOAD PUSH3 0x1CAD CODESIZE SUB DUP1 PUSH3 0x1CAD DUP4 CODECOPY DUP2 DUP2 ADD PUSH1 0x40 MSTORE DUP2 ADD SWAP1 PUSH3 0x37 SWAP2 SWAP1 PUSH3 0x1BF JUMP JUMPDEST PUSH3 0x57 PUSH3 0x4B PUSH3 0xC5 PUSH1 0x20 SHL PUSH1 0x20 SHR JUMP JUMPDEST PUSH3 0xCD PUSH1 0x20 SHL PUSH1 0x20 SHR JUMP JUMPDEST PUSH1 0x1 DUP1 DUP2 SWAP1 SSTORE POP DUP4 PUSH1 0x2 PUSH1 0x0 PUSH2 0x100 EXP DUP2 SLOAD DUP2 PUSH20 0xFFFFFFFFFFFFFFFFFFFFFFFFFFFFFFFFFFFFFFFF MUL NOT AND SWAP1 DUP4 PUSH20 0xFFFFFFFFFFFFFFFFFFFFFFFFFFFFFFFFFFFFFFFF AND MUL OR SWAP1 SSTORE POP DUP3 PUSH1 0x8 DUP2 SWAP1 SSTORE POP DUP2 PUSH1 0x4 DUP2 SWAP1 SSTORE POP DUP1 PUSH1 0x3 DUP2 SWAP1 SSTORE POP TIMESTAMP PUSH1 0x5 DUP2 SWAP1 SSTORE POP POP POP POP POP PUSH3 0x29D JUMP JUMPDEST PUSH1 0x0 CALLER SWAP1 POP SWAP1 JUMP JUMPDEST PUSH1 0x0 DUP1 PUSH1 0x0 SWAP1 SLOAD SWAP1 PUSH2 0x100 EXP SWAP1 DIV PUSH20 0xFFFFFFFFFFFFFFFFFFFFFFFFFFFFFFFFFFFFFFFF AND SWAP1 POP DUP2 PUSH1 0x0 DUP1 PUSH2 0x100 EXP DUP2 SLOAD DUP2 PUSH20 0xFFFFFFFFFFFFFFFFFFFFFFFFFFFFFFFFFFFFFFFF MUL NOT AND SWAP1 DUP4 PUSH20 0xFFFFFFFFFFFFFFFFFFFFFFFFFFFFFFFFFFFFFFFF AND MUL OR SWAP1 SSTORE POP DUP2 PUSH20 0xFFFFFFFFFFFFFFFFFFFFFFFFFFFFFFFFFFFFFFFF AND DUP2 PUSH20 0xFFFFFFFFFFFFFFFFFFFFFFFFFFFFFFFFFFFFFFFF AND PUSH32 0x8BE0079C531659141344CD1FD0A4F28419497F9722A3DAAFE3B4186F6B6457E0 PUSH1 0x40 MLOAD PUSH1 0x40 MLOAD DUP1 SWAP2 SUB SWAP1 LOG3 POP POP JUMP JUMPDEST PUSH1 0x0 DUP2 MLOAD SWAP1 POP PUSH3 0x1A2 DUP2 PUSH3 0x269 JUMP JUMPDEST SWAP3 SWAP2 POP POP JUMP JUMPDEST PUSH1 0x0 DUP2 MLOAD SWAP1 POP PUSH3 0x1B9 DUP2 PUSH3 0x283 JUMP JUMPDEST SWAP3 SWAP2 POP POP JUMP JUMPDEST PUSH1 0x0 DUP1 PUSH1 0x0 DUP1 PUSH1 0x80 DUP6 DUP8 SUB SLT ISZERO PUSH3 0x1D6 JUMPI PUSH1 0x0 DUP1 REVERT JUMPDEST PUSH1 0x0 PUSH3 0x1E6 DUP8 DUP3 DUP9 ADD PUSH3 0x191 JUMP JUMPDEST SWAP5 POP POP PUSH1 0x20 PUSH3 0x1F9 DUP8 DUP3 DUP9 ADD PUSH3 0x1A8 JUMP JUMPDEST SWAP4 POP POP PUSH1 0x40 PUSH3 0x20C DUP8 DUP3 DUP9 ADD PUSH3 0x1A8 JUMP JUMPDEST SWAP3 POP POP PUSH1 0x60 PUSH3 0x21F DUP8 DUP3 DUP9 ADD PUSH3 0x1A8 JUMP JUMPDEST SWAP2 POP POP SWAP3 SWAP6 SWAP2 SWAP5 POP SWAP3 POP JUMP JUMPDEST PUSH1 0x0 PUSH3 0x238 DUP3 PUSH3 0x23F JUMP JUMPDEST SWAP1 POP SWAP2 SWAP1 POP JUMP JUMPDEST PUSH1 0x0 PUSH20 0xFFFFFFFFFFFFFFFFFFFFFFFFFFFFFFFFFFFFFFFF DUP3 AND SWAP1 POP SWAP2 SWAP1 POP JUMP JUMPDEST PUSH1 0x0 DUP2 SWAP1 POP SWAP2 SWAP1 POP JUMP JUMPDEST PUSH3 0x274 DUP2 PUSH3 0x22B JUMP JUMPDEST DUP2 EQ PUSH3 0x280 JUMPI PUSH1 0x0 DUP1 REVERT JUMPDEST POP JUMP JUMPDEST PUSH3 0x28E DUP2 PUSH3 0x25F JUMP JUMPDEST DUP2 EQ PUSH3 0x29A JUMPI PUSH1 0x0 DUP1 REVERT JUMPDEST POP JUMP JUMPDEST PUSH2 0x1A00 DUP1 PUSH3 0x2AD PUSH1 0x0 CODECOPY PUSH1 0x0 RETURN INVALID PUSH1 0x80 PUSH1 0x40 MSTORE CALLVALUE DUP1 ISZERO PUSH2 0x10 JUMPI PUSH1 0x0 DUP1 REVERT JUMPDEST POP PUSH1 0x4 CALLDATASIZE LT PUSH2 0x121 JUMPI PUSH1 0x0 CALLDATALOAD PUSH1 0xE0 SHR DUP1 PUSH4 0x8DA5CB5B GT PUSH2 0xAD JUMPI DUP1 PUSH4 0xEE947A7C GT PUSH2 0x71 JUMPI DUP1 PUSH4 0xEE947A7C EQ PUSH2 0x2E0 JUMPI DUP1 PUSH4 0xF1887684 EQ PUSH2 0x2FE JUMPI DUP1 PUSH4 0xF2FDE38B EQ PUSH2 0x31C JUMPI DUP1 PUSH4 0xFB5D6BE7 EQ PUSH2 0x338 JUMPI DUP1 PUSH4 0xFC0C546A EQ PUSH2 0x368 JUMPI PUSH2 0x121 JUMP JUMPDEST DUP1 PUSH4 0x8DA5CB5B EQ PUSH2 0x250 JUMPI DUP1 PUSH4 0x94409A56 EQ PUSH2 0x26E JUMPI DUP1 PUSH4 0xA694FC3A EQ PUSH2 0x28C JUMPI DUP1 PUSH4 0xC771C390 EQ PUSH2 0x2A8 JUMPI DUP1 PUSH4 0xEB4AF045 EQ PUSH2 0x2C4 JUMPI PUSH2 0x121 JUMP JUMPDEST DUP1 PUSH4 0x5D90BAD9 GT PUSH2 0xF4 JUMPI DUP1 PUSH4 0x5D90BAD9 EQ PUSH2 0x1BE JUMPI DUP1 PUSH4 0x5F48F393 EQ PUSH2 0x1DA JUMPI DUP1 PUSH4 0x6ABFD183 EQ PUSH2 0x1F8 JUMPI DUP1 PUSH4 0x70A08231 EQ PUSH2 0x216 JUMPI DUP1 PUSH4 0x715018A6 EQ PUSH2 0x246 JUMPI PUSH2 0x121 JUMP JUMPDEST DUP1 PUSH4 0x27E235E3 EQ PUSH2 0x126 JUMPI DUP1 PUSH4 0x4FE47F70 EQ PUSH2 0x156 JUMPI DUP1 PUSH4 0x583D42FD EQ PUSH2 0x172 JUMPI DUP1 PUSH4 0x5D3EEA91 EQ PUSH2 0x1A2 JUMPI JUMPDEST PUSH1 0x0 DUP1 REVERT JUMPDEST PUSH2 0x140 PUSH1 0x4 DUP1 CALLDATASIZE SUB DUP2 ADD SWAP1 PUSH2 0x13B SWAP2 SWAP1 PUSH2 0x1089 JUMP JUMPDEST PUSH2 0x386 JUMP JUMPDEST PUSH1 0x40 MLOAD PUSH2 0x14D SWAP2 SWAP1 PUSH2 0x1515 JUMP JUMPDEST PUSH1 0x40 MLOAD DUP1 SWAP2 SUB SWAP1 RETURN JUMPDEST PUSH2 0x170 PUSH1 0x4 DUP1 CALLDATASIZE SUB DUP2 ADD SWAP1 PUSH2 0x16B SWAP2 SWAP1 PUSH2 0x10DB JUMP JUMPDEST PUSH2 0x39E JUMP JUMPDEST STOP JUMPDEST PUSH2 0x18C PUSH1 0x4 DUP1 CALLDATASIZE SUB DUP2 ADD SWAP1 PUSH2 0x187 SWAP2 SWAP1 PUSH2 0x1089 JUMP JUMPDEST PUSH2 0x3F3 JUMP JUMPDEST PUSH1 0x40 MLOAD PUSH2 0x199 SWAP2 SWAP1 PUSH2 0x1515 JUMP JUMPDEST PUSH1 0x40 MLOAD DUP1 SWAP2 SUB SWAP1 RETURN JUMPDEST PUSH2 0x1BC PUSH1 0x4 DUP1 CALLDATASIZE SUB DUP2 ADD SWAP1 PUSH2 0x1B7 SWAP2 SWAP1 PUSH2 0x10DB JUMP JUMPDEST PUSH2 0x40B JUMP JUMPDEST STOP JUMPDEST PUSH2 0x1D8 PUSH1 0x4 DUP1 CALLDATASIZE SUB DUP2 ADD SWAP1 PUSH2 0x1D3 SWAP2 SWAP1 PUSH2 0x10DB JUMP JUMPDEST PUSH2 0x812 JUMP JUMPDEST STOP JUMPDEST PUSH2 0x1E2 PUSH2 0x824 JUMP JUMPDEST PUSH1 0x40 MLOAD PUSH2 0x1EF SWAP2 SWAP1 PUSH2 0x1515 JUMP JUMPDEST PUSH1 0x40 MLOAD DUP1 SWAP2 SUB SWAP1 RETURN JUMPDEST PUSH2 0x200 PUSH2 0x82A JUMP JUMPDEST PUSH1 0x40 MLOAD PUSH2 0x20D SWAP2 SWAP1 PUSH2 0x1515 JUMP JUMPDEST PUSH1 0x40 MLOAD DUP1 SWAP2 SUB SWAP1 RETURN JUMPDEST PUSH2 0x230 PUSH1 0x4 DUP1 CALLDATASIZE SUB DUP2 ADD SWAP1 PUSH2 0x22B SWAP2 SWAP1 PUSH2 0x1089 JUMP JUMPDEST PUSH2 0x830 JUMP JUMPDEST PUSH1 0x40 MLOAD PUSH2 0x23D SWAP2 SWAP1 PUSH2 0x1515 JUMP JUMPDEST PUSH1 0x40 MLOAD DUP1 SWAP2 SUB SWAP1 RETURN JUMPDEST PUSH2 0x24E PUSH2 0x879 JUMP JUMPDEST STOP JUMPDEST PUSH2 0x258 PUSH2 0x88D JUMP JUMPDEST PUSH1 0x40 MLOAD PUSH2 0x265 SWAP2 SWAP1 PUSH2 0x12E4 JUMP JUMPDEST PUSH1 0x40 MLOAD DUP1 SWAP2 SUB SWAP1 RETURN JUMPDEST PUSH2 0x276 PUSH2 0x8B6 JUMP JUMPDEST PUSH1 0x40 MLOAD PUSH2 0x283 SWAP2 SWAP1 PUSH2 0x1515 JUMP JUMPDEST PUSH1 0x40 MLOAD DUP1 SWAP2 SUB SWAP1 RETURN JUMPDEST PUSH2 0x2A6 PUSH1 0x4 DUP1 CALLDATASIZE SUB DUP2 ADD SWAP1 PUSH2 0x2A1 SWAP2 SWAP1 PUSH2 0x10DB JUMP JUMPDEST PUSH2 0x8BC JUMP JUMPDEST STOP JUMPDEST PUSH2 0x2C2 PUSH1 0x4 DUP1 CALLDATASIZE SUB DUP2 ADD SWAP1 PUSH2 0x2BD SWAP2 SWAP1 PUSH2 0x10DB JUMP JUMPDEST PUSH2 0xCFB JUMP JUMPDEST STOP JUMPDEST PUSH2 0x2DE PUSH1 0x4 DUP1 CALLDATASIZE SUB DUP2 ADD SWAP1 PUSH2 0x2D9 SWAP2 SWAP1 PUSH2 0x10DB JUMP JUMPDEST PUSH2 0xD50 JUMP JUMPDEST STOP JUMPDEST PUSH2 0x2E8 PUSH2 0xDA5 JUMP JUMPDEST PUSH1 0x40 MLOAD PUSH2 0x2F5 SWAP2 SWAP1 PUSH2 0x1515 JUMP JUMPDEST PUSH1 0x40 MLOAD DUP1 SWAP2 SUB SWAP1 RETURN JUMPDEST PUSH2 0x306 PUSH2 0xDAB JUMP JUMPDEST PUSH1 0x40 MLOAD PUSH2 0x313 SWAP2 SWAP1 PUSH2 0x1515 JUMP JUMPDEST PUSH1 0x40 MLOAD DUP1 SWAP2 SUB SWAP1 RETURN JUMPDEST PUSH2 0x336 PUSH1 0x4 DUP1 CALLDATASIZE SUB DUP2 ADD SWAP1 PUSH2 0x331 SWAP2 SWAP1 PUSH2 0x1089 JUMP JUMPDEST PUSH2 0xDB1 JUMP JUMPDEST STOP JUMPDEST PUSH2 0x352 PUSH1 0x4 DUP1 CALLDATASIZE SUB DUP2 ADD SWAP1 PUSH2 0x34D SWAP2 SWAP1 PUSH2 0x1089 JUMP JUMPDEST PUSH2 0xE35 JUMP JUMPDEST PUSH1 0x40 MLOAD PUSH2 0x35F SWAP2 SWAP1 PUSH2 0x135F JUMP JUMPDEST PUSH1 0x40 MLOAD DUP1 SWAP2 SUB SWAP1 RETURN JUMPDEST PUSH2 0x370 PUSH2 0xE55 JUMP JUMPDEST PUSH1 0x40 MLOAD PUSH2 0x37D SWAP2 SWAP1 PUSH2 0x137A JUMP JUMPDEST PUSH1 0x40 MLOAD DUP1 SWAP2 SUB SWAP1 RETURN JUMPDEST PUSH1 0x9 PUSH1 0x20 MSTORE DUP1 PUSH1 0x0 MSTORE PUSH1 0x40 PUSH1 0x0 KECCAK256 PUSH1 0x0 SWAP2 POP SWAP1 POP SLOAD DUP2 JUMP JUMPDEST PUSH2 0x3A6 PUSH2 0xE7B JUMP JUMPDEST PUSH1 0x0 DUP2 GT PUSH2 0x3E9 JUMPI PUSH1 0x40 MLOAD PUSH32 0x8C379A000000000000000000000000000000000000000000000000000000000 DUP2 MSTORE PUSH1 0x4 ADD PUSH2 0x3E0 SWAP1 PUSH2 0x1455 JUMP JUMPDEST PUSH1 0x40 MLOAD DUP1 SWAP2 SUB SWAP1 REVERT JUMPDEST DUP1 PUSH1 0x3 DUP2 SWAP1 SSTORE POP POP JUMP JUMPDEST PUSH1 0xA PUSH1 0x20 MSTORE DUP1 PUSH1 0x0 MSTORE PUSH1 0x40 PUSH1 0x0 KECCAK256 PUSH1 0x0 SWAP2 POP SWAP1 POP SLOAD DUP2 JUMP JUMPDEST PUSH2 0x413 PUSH2 0xEF9 JUMP JUMPDEST PUSH2 0x467 PUSH1 0x4 SLOAD PUSH1 0xA PUSH1 0x0 CALLER PUSH20 0xFFFFFFFFFFFFFFFFFFFFFFFFFFFFFFFFFFFFFFFF AND PUSH20 0xFFFFFFFFFFFFFFFFFFFFFFFFFFFFFFFFFFFFFFFF AND DUP2 MSTORE PUSH1 0x20 ADD SWAP1 DUP2 MSTORE PUSH1 0x20 ADD PUSH1 0x0 KECCAK256 SLOAD PUSH2 0xF49 SWAP1 SWAP2 SWAP1 PUSH4 0xFFFFFFFF AND JUMP JUMPDEST TIMESTAMP LT ISZERO PUSH2 0x4A9 JUMPI PUSH1 0x40 MLOAD PUSH32 0x8C379A000000000000000000000000000000000000000000000000000000000 DUP2 MSTORE PUSH1 0x4 ADD PUSH2 0x4A0 SWAP1 PUSH2 0x1395 JUMP JUMPDEST PUSH1 0x40 MLOAD DUP1 SWAP2 SUB SWAP1 REVERT JUMPDEST DUP1 PUSH1 0x9 PUSH1 0x0 CALLER PUSH20 0xFFFFFFFFFFFFFFFFFFFFFFFFFFFFFFFFFFFFFFFF AND PUSH20 0xFFFFFFFFFFFFFFFFFFFFFFFFFFFFFFFFFFFFFFFF AND DUP2 MSTORE PUSH1 0x20 ADD SWAP1 DUP2 MSTORE PUSH1 0x20 ADD PUSH1 0x0 KECCAK256 SLOAD LT ISZERO PUSH2 0x52B JUMPI PUSH1 0x40 MLOAD PUSH32 0x8C379A000000000000000000000000000000000000000000000000000000000 DUP2 MSTORE PUSH1 0x4 ADD PUSH2 0x522 SWAP1 PUSH2 0x13D5 JUMP JUMPDEST PUSH1 0x40 MLOAD DUP1 SWAP2 SUB SWAP1 REVERT JUMPDEST PUSH1 0x2 PUSH1 0x0 SWAP1 SLOAD SWAP1 PUSH2 0x100 EXP SWAP1 DIV PUSH20 0xFFFFFFFFFFFFFFFFFFFFFFFFFFFFFFFFFFFFFFFF AND PUSH20 0xFFFFFFFFFFFFFFFFFFFFFFFFFFFFFFFFFFFFFFFF AND PUSH4 0xA9059CBB CALLER DUP4 PUSH1 0x40 MLOAD DUP4 PUSH4 0xFFFFFFFF AND PUSH1 0xE0 SHL DUP2 MSTORE PUSH1 0x4 ADD PUSH2 0x588 SWAP3 SWAP2 SWAP1 PUSH2 0x1336 JUMP JUMPDEST PUSH1 0x20 PUSH1 0x40 MLOAD DUP1 DUP4 SUB DUP2 PUSH1 0x0 DUP8 DUP1 EXTCODESIZE ISZERO DUP1 ISZERO PUSH2 0x5A2 JUMPI PUSH1 0x0 DUP1 REVERT JUMPDEST POP GAS CALL ISZERO DUP1 ISZERO PUSH2 0x5B6 JUMPI RETURNDATASIZE PUSH1 0x0 DUP1 RETURNDATACOPY RETURNDATASIZE PUSH1 0x0 REVERT JUMPDEST POP POP POP POP PUSH1 0x40 MLOAD RETURNDATASIZE PUSH1 0x1F NOT PUSH1 0x1F DUP3 ADD AND DUP3 ADD DUP1 PUSH1 0x40 MSTORE POP DUP2 ADD SWAP1 PUSH2 0x5DA SWAP2 SWAP1 PUSH2 0x10B2 JUMP JUMPDEST PUSH2 0x619 JUMPI PUSH1 0x40 MLOAD PUSH32 0x8C379A000000000000000000000000000000000000000000000000000000000 DUP2 MSTORE PUSH1 0x4 ADD PUSH2 0x610 SWAP1 PUSH2 0x1415 JUMP JUMPDEST PUSH1 0x40 MLOAD DUP1 SWAP2 SUB SWAP1 REVERT JUMPDEST PUSH2 0x66B DUP2 PUSH1 0x9 PUSH1 0x0 CALLER PUSH20 0xFFFFFFFFFFFFFFFFFFFFFFFFFFFFFFFFFFFFFFFF AND PUSH20 0xFFFFFFFFFFFFFFFFFFFFFFFFFFFFFFFFFFFFFFFF AND DUP2 MSTORE PUSH1 0x20 ADD SWAP1 DUP2 MSTORE PUSH1 0x20 ADD PUSH1 0x0 KECCAK256 SLOAD PUSH2 0xF5F SWAP1 SWAP2 SWAP1 PUSH4 0xFFFFFFFF AND JUMP JUMPDEST PUSH1 0x9 PUSH1 0x0 CALLER PUSH20 0xFFFFFFFFFFFFFFFFFFFFFFFFFFFFFFFFFFFFFFFF AND PUSH20 0xFFFFFFFFFFFFFFFFFFFFFFFFFFFFFFFFFFFFFFFF AND DUP2 MSTORE PUSH1 0x20 ADD SWAP1 DUP2 MSTORE PUSH1 0x20 ADD PUSH1 0x0 KECCAK256 DUP2 SWAP1 SSTORE POP PUSH2 0x6C3 DUP2 PUSH1 0x6 SLOAD PUSH2 0xF5F SWAP1 SWAP2 SWAP1 PUSH4 0xFFFFFFFF AND JUMP JUMPDEST PUSH1 0x6 DUP2 SWAP1 SSTORE POP PUSH1 0x8 SLOAD PUSH1 0x9 PUSH1 0x0 CALLER PUSH20 0xFFFFFFFFFFFFFFFFFFFFFFFFFFFFFFFFFFFFFFFF AND PUSH20 0xFFFFFFFFFFFFFFFFFFFFFFFFFFFFFFFFFFFFFFFF AND DUP2 MSTORE PUSH1 0x20 ADD SWAP1 DUP2 MSTORE PUSH1 0x20 ADD PUSH1 0x0 KECCAK256 SLOAD LT ISZERO PUSH2 0x76B JUMPI PUSH1 0x0 PUSH1 0x7 PUSH1 0x0 CALLER PUSH20 0xFFFFFFFFFFFFFFFFFFFFFFFFFFFFFFFFFFFFFFFF AND PUSH20 0xFFFFFFFFFFFFFFFFFFFFFFFFFFFFFFFFFFFFFFFF AND DUP2 MSTORE PUSH1 0x20 ADD SWAP1 DUP2 MSTORE PUSH1 0x20 ADD PUSH1 0x0 KECCAK256 PUSH1 0x0 PUSH2 0x100 EXP DUP2 SLOAD DUP2 PUSH1 0xFF MUL NOT AND SWAP1 DUP4 ISZERO ISZERO MUL OR SWAP1 SSTORE POP JUMPDEST CALLER PUSH20 0xFFFFFFFFFFFFFFFFFFFFFFFFFFFFFFFFFFFFFFFF AND PUSH32 0xA9179FF547F1F0DE68E137C5AD5718D07BC192BE774041107D8FAC3088BA418C DUP3 PUSH1 0x7 PUSH1 0x0 CALLER PUSH20 0xFFFFFFFFFFFFFFFFFFFFFFFFFFFFFFFFFFFFFFFF AND PUSH20 0xFFFFFFFFFFFFFFFFFFFFFFFFFFFFFFFFFFFFFFFF AND DUP2 MSTORE PUSH1 0x20 ADD SWAP1 DUP2 MSTORE PUSH1 0x20 ADD PUSH1 0x0 KECCAK256 PUSH1 0x0 SWAP1 SLOAD SWAP1 PUSH2 0x100 EXP SWAP1 DIV PUSH1 0xFF AND PUSH1 0x40 MLOAD PUSH2 0x7FF SWAP3 SWAP2 SWAP1 PUSH2 0x1530 JUMP JUMPDEST PUSH1 0x40 MLOAD DUP1 SWAP2 SUB SWAP1 LOG2 PUSH2 0x80F PUSH2 0xF75 JUMP JUMPDEST POP JUMP JUMPDEST PUSH2 0x81A PUSH2 0xE7B JUMP JUMPDEST DUP1 PUSH1 0x5 DUP2 SWAP1 SSTORE POP POP JUMP JUMPDEST PUSH1 0x3 SLOAD DUP2 JUMP JUMPDEST PUSH1 0x5 SLOAD DUP2 JUMP JUMPDEST PUSH1 0x0 PUSH1 0x9 PUSH1 0x0 DUP4 PUSH20 0xFFFFFFFFFFFFFFFFFFFFFFFFFFFFFFFFFFFFFFFF AND PUSH20 0xFFFFFFFFFFFFFFFFFFFFFFFFFFFFFFFFFFFFFFFF AND DUP2 MSTORE PUSH1 0x20 ADD SWAP1 DUP2 MSTORE PUSH1 0x20 ADD PUSH1 0x0 KECCAK256 SLOAD SWAP1 POP SWAP2 SWAP1 POP JUMP JUMPDEST PUSH2 0x881 PUSH2 0xE7B JUMP JUMPDEST PUSH2 0x88B PUSH1 0x0 PUSH2 0xF7E JUMP JUMPDEST JUMP JUMPDEST PUSH1 0x0 DUP1 PUSH1 0x0 SWAP1 SLOAD SWAP1 PUSH2 0x100 EXP SWAP1 DIV PUSH20 0xFFFFFFFFFFFFFFFFFFFFFFFFFFFFFFFFFFFFFFFF AND SWAP1 POP SWAP1 JUMP JUMPDEST PUSH1 0x6 SLOAD DUP2 JUMP JUMPDEST PUSH2 0x8C4 PUSH2 0xEF9 JUMP JUMPDEST PUSH1 0x4 SLOAD PUSH1 0x5 SLOAD PUSH2 0x8D4 SWAP2 SWAP1 PUSH2 0x156A JUMP JUMPDEST TIMESTAMP LT PUSH2 0x915 JUMPI PUSH1 0x40 MLOAD PUSH32 0x8C379A000000000000000000000000000000000000000000000000000000000 DUP2 MSTORE PUSH1 0x4 ADD PUSH2 0x90C SWAP1 PUSH2 0x1495 JUMP JUMPDEST PUSH1 0x40 MLOAD DUP1 SWAP2 SUB SWAP1 REVERT JUMPDEST PUSH2 0x92A DUP2 PUSH1 0x6 SLOAD PUSH2 0xF49 SWAP1 SWAP2 SWAP1 PUSH4 0xFFFFFFFF AND JUMP JUMPDEST PUSH2 0x941 PUSH1 0x3 SLOAD PUSH1 0x6 SLOAD PUSH2 0xF49 SWAP1 SWAP2 SWAP1 PUSH4 0xFFFFFFFF AND JUMP JUMPDEST LT ISZERO PUSH2 0x982 JUMPI PUSH1 0x40 MLOAD PUSH32 0x8C379A000000000000000000000000000000000000000000000000000000000 DUP2 MSTORE PUSH1 0x4 ADD PUSH2 0x979 SWAP1 PUSH2 0x13F5 JUMP JUMPDEST PUSH1 0x40 MLOAD DUP1 SWAP2 SUB SWAP1 REVERT JUMPDEST PUSH1 0x8 SLOAD PUSH2 0x9D7 DUP3 PUSH1 0x9 PUSH1 0x0 CALLER PUSH20 0xFFFFFFFFFFFFFFFFFFFFFFFFFFFFFFFFFFFFFFFF AND PUSH20 0xFFFFFFFFFFFFFFFFFFFFFFFFFFFFFFFFFFFFFFFF AND DUP2 MSTORE PUSH1 0x20 ADD SWAP1 DUP2 MSTORE PUSH1 0x20 ADD PUSH1 0x0 KECCAK256 SLOAD PUSH2 0xF49 SWAP1 SWAP2 SWAP1 PUSH4 0xFFFFFFFF AND JUMP JUMPDEST LT ISZERO PUSH2 0xA18 JUMPI PUSH1 0x40 MLOAD PUSH32 0x8C379A000000000000000000000000000000000000000000000000000000000 DUP2 MSTORE PUSH1 0x4 ADD PUSH2 0xA0F SWAP1 PUSH2 0x14D5 JUMP JUMPDEST PUSH1 0x40 MLOAD DUP1 SWAP2 SUB SWAP1 REVERT JUMPDEST PUSH1 0x2 PUSH1 0x0 SWAP1 SLOAD SWAP1 PUSH2 0x100 EXP SWAP1 DIV PUSH20 0xFFFFFFFFFFFFFFFFFFFFFFFFFFFFFFFFFFFFFFFF AND PUSH20 0xFFFFFFFFFFFFFFFFFFFFFFFFFFFFFFFFFFFFFFFF AND PUSH4 0x23B872DD CALLER ADDRESS DUP5 PUSH1 0x40 MLOAD DUP5 PUSH4 0xFFFFFFFF AND PUSH1 0xE0 SHL DUP2 MSTORE PUSH1 0x4 ADD PUSH2 0xA77 SWAP4 SWAP3 SWAP2 SWAP1 PUSH2 0x12FF JUMP JUMPDEST PUSH1 0x20 PUSH1 0x40 MLOAD DUP1 DUP4 SUB DUP2 PUSH1 0x0 DUP8 DUP1 EXTCODESIZE ISZERO DUP1 ISZERO PUSH2 0xA91 JUMPI PUSH1 0x0 DUP1 REVERT JUMPDEST POP GAS CALL ISZERO DUP1 ISZERO PUSH2 0xAA5 JUMPI RETURNDATASIZE PUSH1 0x0 DUP1 RETURNDATACOPY RETURNDATASIZE PUSH1 0x0 REVERT JUMPDEST POP POP POP POP PUSH1 0x40 MLOAD RETURNDATASIZE PUSH1 0x1F NOT PUSH1 0x1F DUP3 ADD AND DUP3 ADD DUP1 PUSH1 0x40 MSTORE POP DUP2 ADD SWAP1 PUSH2 0xAC9 SWAP2 SWAP1 PUSH2 0x10B2 JUMP JUMPDEST PUSH2 0xB08 JUMPI PUSH1 0x40 MLOAD PUSH32 0x8C379A000000000000000000000000000000000000000000000000000000000 DUP2 MSTORE PUSH1 0x4 ADD PUSH2 0xAFF SWAP1 PUSH2 0x1415 JUMP JUMPDEST PUSH1 0x40 MLOAD DUP1 SWAP2 SUB SWAP1 REVERT JUMPDEST PUSH2 0xB5A DUP2 PUSH1 0x9 PUSH1 0x0 CALLER PUSH20 0xFFFFFFFFFFFFFFFFFFFFFFFFFFFFFFFFFFFFFFFF AND PUSH20 0xFFFFFFFFFFFFFFFFFFFFFFFFFFFFFFFFFFFFFFFF AND DUP2 MSTORE PUSH1 0x20 ADD SWAP1 DUP2 MSTORE PUSH1 0x20 ADD PUSH1 0x0 KECCAK256 SLOAD PUSH2 0xF49 SWAP1 SWAP2 SWAP1 PUSH4 0xFFFFFFFF AND JUMP JUMPDEST PUSH1 0x9 PUSH1 0x0 CALLER PUSH20 0xFFFFFFFFFFFFFFFFFFFFFFFFFFFFFFFFFFFFFFFF AND PUSH20 0xFFFFFFFFFFFFFFFFFFFFFFFFFFFFFFFFFFFFFFFF AND DUP2 MSTORE PUSH1 0x20 ADD SWAP1 DUP2 MSTORE PUSH1 0x20 ADD PUSH1 0x0 KECCAK256 DUP2 SWAP1 SSTORE POP PUSH2 0xBB2 DUP2 PUSH1 0x6 SLOAD PUSH2 0xF49 SWAP1 SWAP2 SWAP1 PUSH4 0xFFFFFFFF AND JUMP JUMPDEST PUSH1 0x6 DUP2 SWAP1 SSTORE POP TIMESTAMP PUSH1 0xA PUSH1 0x0 CALLER PUSH20 0xFFFFFFFFFFFFFFFFFFFFFFFFFFFFFFFFFFFFFFFF AND PUSH20 0xFFFFFFFFFFFFFFFFFFFFFFFFFFFFFFFFFFFFFFFF AND DUP2 MSTORE PUSH1 0x20 ADD SWAP1 DUP2 MSTORE PUSH1 0x20 ADD PUSH1 0x0 KECCAK256 DUP2 SWAP1 SSTORE POP PUSH1 0x1 PUSH1 0x7 PUSH1 0x0 CALLER PUSH20 0xFFFFFFFFFFFFFFFFFFFFFFFFFFFFFFFFFFFFFFFF AND PUSH20 0xFFFFFFFFFFFFFFFFFFFFFFFFFFFFFFFFFFFFFFFF AND DUP2 MSTORE PUSH1 0x20 ADD SWAP1 DUP2 MSTORE PUSH1 0x20 ADD PUSH1 0x0 KECCAK256 PUSH1 0x0 PUSH2 0x100 EXP DUP2 SLOAD DUP2 PUSH1 0xFF MUL NOT AND SWAP1 DUP4 ISZERO ISZERO MUL OR SWAP1 SSTORE POP CALLER PUSH20 0xFFFFFFFFFFFFFFFFFFFFFFFFFFFFFFFFFFFFFFFF AND PUSH32 0x20580CC2838CC75CD2CFB9E285A0D4C24078360F4273611AF79FCDFF9A6A806F DUP3 PUSH1 0x7 PUSH1 0x0 CALLER PUSH20 0xFFFFFFFFFFFFFFFFFFFFFFFFFFFFFFFFFFFFFFFF AND PUSH20 0xFFFFFFFFFFFFFFFFFFFFFFFFFFFFFFFFFFFFFFFF AND DUP2 MSTORE PUSH1 0x20 ADD SWAP1 DUP2 MSTORE PUSH1 0x20 ADD PUSH1 0x0 KECCAK256 PUSH1 0x0 SWAP1 SLOAD SWAP1 PUSH2 0x100 EXP SWAP1 DIV PUSH1 0xFF AND PUSH1 0x40 MLOAD PUSH2 0xCE8 SWAP3 SWAP2 SWAP1 PUSH2 0x1530 JUMP JUMPDEST PUSH1 0x40 MLOAD DUP1 SWAP2 SUB SWAP1 LOG2 PUSH2 0xCF8 PUSH2 0xF75 JUMP JUMPDEST POP JUMP JUMPDEST PUSH2 0xD03 PUSH2 0xE7B JUMP JUMPDEST PUSH1 0x0 DUP2 GT PUSH2 0xD46 JUMPI PUSH1 0x40 MLOAD PUSH32 0x8C379A000000000000000000000000000000000000000000000000000000000 DUP2 MSTORE PUSH1 0x4 ADD PUSH2 0xD3D SWAP1 PUSH2 0x14B5 JUMP JUMPDEST PUSH1 0x40 MLOAD DUP1 SWAP2 SUB SWAP1 REVERT JUMPDEST DUP1 PUSH1 0x4 DUP2 SWAP1 SSTORE POP POP JUMP JUMPDEST PUSH2 0xD58 PUSH2 0xE7B JUMP JUMPDEST PUSH1 0x0 DUP2 GT PUSH2 0xD9B JUMPI PUSH1 0x40 MLOAD PUSH32 0x8C379A000000000000000000000000000000000000000000000000000000000 DUP2 MSTORE PUSH1 0x4 ADD PUSH2 0xD92 SWAP1 PUSH2 0x1435 JUMP JUMPDEST PUSH1 0x40 MLOAD DUP1 SWAP2 SUB SWAP1 REVERT JUMPDEST DUP1 PUSH1 0x8 DUP2 SWAP1 SSTORE POP POP JUMP JUMPDEST PUSH1 0x4 SLOAD DUP2 JUMP JUMPDEST PUSH1 0x8 SLOAD DUP2 JUMP JUMPDEST PUSH2 0xDB9 PUSH2 0xE7B JUMP JUMPDEST PUSH1 0x0 PUSH20 0xFFFFFFFFFFFFFFFFFFFFFFFFFFFFFFFFFFFFFFFF AND DUP2 PUSH20 0xFFFFFFFFFFFFFFFFFFFFFFFFFFFFFFFFFFFFFFFF AND EQ ISZERO PUSH2 0xE29 JUMPI PUSH1 0x40 MLOAD PUSH32 0x8C379A000000000000000000000000000000000000000000000000000000000 DUP2 MSTORE PUSH1 0x4 ADD PUSH2 0xE20 SWAP1 PUSH2 0x13B5 JUMP JUMPDEST PUSH1 0x40 MLOAD DUP1 SWAP2 SUB SWAP1 REVERT JUMPDEST PUSH2 0xE32 DUP2 PUSH2 0xF7E JUMP JUMPDEST POP JUMP JUMPDEST PUSH1 0x7 PUSH1 0x20 MSTORE DUP1 PUSH1 0x0 MSTORE PUSH1 0x40 PUSH1 0x0 KECCAK256 PUSH1 0x0 SWAP2 POP SLOAD SWAP1 PUSH2 0x100 EXP SWAP1 DIV PUSH1 0xFF AND DUP2 JUMP JUMPDEST PUSH1 0x2 PUSH1 0x0 SWAP1 SLOAD SWAP1 PUSH2 0x100 EXP SWAP1 DIV PUSH20 0xFFFFFFFFFFFFFFFFFFFFFFFFFFFFFFFFFFFFFFFF AND DUP2 JUMP JUMPDEST PUSH2 0xE83 PUSH2 0x1042 JUMP JUMPDEST PUSH20 0xFFFFFFFFFFFFFFFFFFFFFFFFFFFFFFFFFFFFFFFF AND PUSH2 0xEA1 PUSH2 0x88D JUMP JUMPDEST PUSH20 0xFFFFFFFFFFFFFFFFFFFFFFFFFFFFFFFFFFFFFFFF AND EQ PUSH2 0xEF7 JUMPI PUSH1 0x40 MLOAD PUSH32 0x8C379A000000000000000000000000000000000000000000000000000000000 DUP2 MSTORE PUSH1 0x4 ADD PUSH2 0xEEE SWAP1 PUSH2 0x1475 JUMP JUMPDEST PUSH1 0x40 MLOAD DUP1 SWAP2 SUB SWAP1 REVERT JUMPDEST JUMP JUMPDEST PUSH1 0x2 PUSH1 0x1 SLOAD EQ ISZERO PUSH2 0xF3F JUMPI PUSH1 0x40 MLOAD PUSH32 0x8C379A000000000000000000000000000000000000000000000000000000000 DUP2 MSTORE PUSH1 0x4 ADD PUSH2 0xF36 SWAP1 PUSH2 0x14F5 JUMP JUMPDEST PUSH1 0x40 MLOAD DUP1 SWAP2 SUB SWAP1 REVERT JUMPDEST PUSH1 0x2 PUSH1 0x1 DUP2 SWAP1 SSTORE POP JUMP JUMPDEST PUSH1 0x0 DUP2 DUP4 PUSH2 0xF57 SWAP2 SWAP1 PUSH2 0x156A JUMP JUMPDEST SWAP1 POP SWAP3 SWAP2 POP POP JUMP JUMPDEST PUSH1 0x0 DUP2 DUP4 PUSH2 0xF6D SWAP2 SWAP1 PUSH2 0x15C0 JUMP JUMPDEST SWAP1 POP SWAP3 SWAP2 POP POP JUMP JUMPDEST PUSH1 0x1 DUP1 DUP2 SWAP1 SSTORE POP JUMP JUMPDEST PUSH1 0x0 DUP1 PUSH1 0x0 SWAP1 SLOAD SWAP1 PUSH2 0x100 EXP SWAP1 DIV PUSH20 0xFFFFFFFFFFFFFFFFFFFFFFFFFFFFFFFFFFFFFFFF AND SWAP1 POP DUP2 PUSH1 0x0 DUP1 PUSH2 0x100 EXP DUP2 SLOAD DUP2 PUSH20 0xFFFFFFFFFFFFFFFFFFFFFFFFFFFFFFFFFFFFFFFF MUL NOT AND SWAP1 DUP4 PUSH20 0xFFFFFFFFFFFFFFFFFFFFFFFFFFFFFFFFFFFFFFFF AND MUL OR SWAP1 SSTORE POP DUP2 PUSH20 0xFFFFFFFFFFFFFFFFFFFFFFFFFFFFFFFFFFFFFFFF AND DUP2 PUSH20 0xFFFFFFFFFFFFFFFFFFFFFFFFFFFFFFFFFFFFFFFF AND PUSH32 0x8BE0079C531659141344CD1FD0A4F28419497F9722A3DAAFE3B4186F6B6457E0 PUSH1 0x40 MLOAD PUSH1 0x40 MLOAD DUP1 SWAP2 SUB SWAP1 LOG3 POP POP JUMP JUMPDEST PUSH1 0x0 CALLER SWAP1 POP SWAP1 JUMP JUMPDEST PUSH1 0x0 DUP2 CALLDATALOAD SWAP1 POP PUSH2 0x1059 DUP2 PUSH2 0x1985 JUMP JUMPDEST SWAP3 SWAP2 POP POP JUMP JUMPDEST PUSH1 0x0 DUP2 MLOAD SWAP1 POP PUSH2 0x106E DUP2 PUSH2 0x199C JUMP JUMPDEST SWAP3 SWAP2 POP POP JUMP JUMPDEST PUSH1 0x0 DUP2 CALLDATALOAD SWAP1 POP PUSH2 0x1083 DUP2 PUSH2 0x19B3 JUMP JUMPDEST SWAP3 SWAP2 POP POP JUMP JUMPDEST PUSH1 0x0 PUSH1 0x20 DUP3 DUP5 SUB SLT ISZERO PUSH2 0x109B JUMPI PUSH1 0x0 DUP1 REVERT JUMPDEST PUSH1 0x0 PUSH2 0x10A9 DUP5 DUP3 DUP6 ADD PUSH2 0x104A JUMP JUMPDEST SWAP2 POP POP SWAP3 SWAP2 POP POP JUMP JUMPDEST PUSH1 0x0 PUSH1 0x20 DUP3 DUP5 SUB SLT ISZERO PUSH2 0x10C4 JUMPI PUSH1 0x0 DUP1 REVERT JUMPDEST PUSH1 0x0 PUSH2 0x10D2 DUP5 DUP3 DUP6 ADD PUSH2 0x105F JUMP JUMPDEST SWAP2 POP POP SWAP3 SWAP2 POP POP JUMP JUMPDEST PUSH1 0x0 PUSH1 0x20 DUP3 DUP5 SUB SLT ISZERO PUSH2 0x10ED JUMPI PUSH1 0x0 DUP1 REVERT JUMPDEST PUSH1 0x0 PUSH2 0x10FB DUP5 DUP3 DUP6 ADD PUSH2 0x1074 JUMP JUMPDEST SWAP2 POP POP SWAP3 SWAP2 POP POP JUMP JUMPDEST PUSH2 0x110D DUP2 PUSH2 0x15F4 JUMP JUMPDEST DUP3 MSTORE POP POP JUMP JUMPDEST PUSH2 0x111C DUP2 PUSH2 0x1606 JUMP JUMPDEST DUP3 MSTORE POP POP JUMP JUMPDEST PUSH2 0x112B DUP2 PUSH2 0x163C JUMP JUMPDEST DUP3 MSTORE POP POP JUMP JUMPDEST PUSH1 0x0 PUSH2 0x113E PUSH1 0x6 DUP4 PUSH2 0x1559 JUMP JUMPDEST SWAP2 POP PUSH2 0x1149 DUP3 PUSH2 0x168F JUMP JUMPDEST PUSH1 0x20 DUP3 ADD SWAP1 POP SWAP2 SWAP1 POP JUMP JUMPDEST PUSH1 0x0 PUSH2 0x1161 PUSH1 0x26 DUP4 PUSH2 0x1559 JUMP JUMPDEST SWAP2 POP PUSH2 0x116C DUP3 PUSH2 0x16B8 JUMP JUMPDEST PUSH1 0x40 DUP3 ADD SWAP1 POP SWAP2 SWAP1 POP JUMP JUMPDEST PUSH1 0x0 PUSH2 0x1184 PUSH1 0x14 DUP4 PUSH2 0x1559 JUMP JUMPDEST SWAP2 POP PUSH2 0x118F DUP3 PUSH2 0x1707 JUMP JUMPDEST PUSH1 0x20 DUP3 ADD SWAP1 POP SWAP2 SWAP1 POP JUMP JUMPDEST PUSH1 0x0 PUSH2 0x11A7 PUSH1 0x48 DUP4 PUSH2 0x1559 JUMP JUMPDEST SWAP2 POP PUSH2 0x11B2 DUP3 PUSH2 0x1730 JUMP JUMPDEST PUSH1 0x60 DUP3 ADD SWAP1 POP SWAP2 SWAP1 POP JUMP JUMPDEST PUSH1 0x0 PUSH2 0x11CA PUSH1 0x15 DUP4 PUSH2 0x1559 JUMP JUMPDEST SWAP2 POP PUSH2 0x11D5 DUP3 PUSH2 0x17A5 JUMP JUMPDEST PUSH1 0x20 DUP3 ADD SWAP1 POP SWAP2 SWAP1 POP JUMP JUMPDEST PUSH1 0x0 PUSH2 0x11ED PUSH1 0x1F DUP4 PUSH2 0x1559 JUMP JUMPDEST SWAP2 POP PUSH2 0x11F8 DUP3 PUSH2 0x17CE JUMP JUMPDEST PUSH1 0x20 DUP3 ADD SWAP1 POP SWAP2 SWAP1 POP JUMP JUMPDEST PUSH1 0x0 PUSH2 0x1210 PUSH1 0x23 DUP4 PUSH2 0x1559 JUMP JUMPDEST SWAP2 POP PUSH2 0x121B DUP3 PUSH2 0x17F7 JUMP JUMPDEST PUSH1 0x40 DUP3 ADD SWAP1 POP SWAP2 SWAP1 POP JUMP JUMPDEST PUSH1 0x0 PUSH2 0x1233 PUSH1 0x20 DUP4 PUSH2 0x1559 JUMP JUMPDEST SWAP2 POP PUSH2 0x123E DUP3 PUSH2 0x1846 JUMP JUMPDEST PUSH1 0x20 DUP3 ADD SWAP1 POP SWAP2 SWAP1 POP JUMP JUMPDEST PUSH1 0x0 PUSH2 0x1256 PUSH1 0x26 DUP4 PUSH2 0x1559 JUMP JUMPDEST SWAP2 POP PUSH2 0x1261 DUP3 PUSH2 0x186F JUMP JUMPDEST PUSH1 0x40 DUP3 ADD SWAP1 POP SWAP2 SWAP1 POP JUMP JUMPDEST PUSH1 0x0 PUSH2 0x1279 PUSH1 0x25 DUP4 PUSH2 0x1559 JUMP JUMPDEST SWAP2 POP PUSH2 0x1284 DUP3 PUSH2 0x18BE JUMP JUMPDEST PUSH1 0x40 DUP3 ADD SWAP1 POP SWAP2 SWAP1 POP JUMP JUMPDEST PUSH1 0x0 PUSH2 0x129C PUSH1 0x38 DUP4 PUSH2 0x1559 JUMP JUMPDEST SWAP2 POP PUSH2 0x12A7 DUP3 PUSH2 0x190D JUMP JUMPDEST PUSH1 0x40 DUP3 ADD SWAP1 POP SWAP2 SWAP1 POP JUMP JUMPDEST PUSH1 0x0 PUSH2 0x12BF PUSH1 0x1F DUP4 PUSH2 0x1559 JUMP JUMPDEST SWAP2 POP PUSH2 0x12CA DUP3 PUSH2 0x195C JUMP JUMPDEST PUSH1 0x20 DUP3 ADD SWAP1 POP SWAP2 SWAP1 POP JUMP JUMPDEST PUSH2 0x12DE DUP2 PUSH2 0x1632 JUMP JUMPDEST DUP3 MSTORE POP POP JUMP JUMPDEST PUSH1 0x0 PUSH1 0x20 DUP3 ADD SWAP1 POP PUSH2 0x12F9 PUSH1 0x0 DUP4 ADD DUP5 PUSH2 0x1104 JUMP JUMPDEST SWAP3 SWAP2 POP POP JUMP JUMPDEST PUSH1 0x0 PUSH1 0x60 DUP3 ADD SWAP1 POP PUSH2 0x1314 PUSH1 0x0 DUP4 ADD DUP7 PUSH2 0x1104 JUMP JUMPDEST PUSH2 0x1321 PUSH1 0x20 DUP4 ADD DUP6 PUSH2 0x1104 JUMP JUMPDEST PUSH2 0x132E PUSH1 0x40 DUP4 ADD DUP5 PUSH2 0x12D5 JUMP JUMPDEST SWAP5 SWAP4 POP POP POP POP JUMP JUMPDEST PUSH1 0x0 PUSH1 0x40 DUP3 ADD SWAP1 POP PUSH2 0x134B PUSH1 0x0 DUP4 ADD DUP6 PUSH2 0x1104 JUMP JUMPDEST PUSH2 0x1358 PUSH1 0x20 DUP4 ADD DUP5 PUSH2 0x12D5 JUMP JUMPDEST SWAP4 SWAP3 POP POP POP JUMP JUMPDEST PUSH1 0x0 PUSH1 0x20 DUP3 ADD SWAP1 POP PUSH2 0x1374 PUSH1 0x0 DUP4 ADD DUP5 PUSH2 0x1113 JUMP JUMPDEST SWAP3 SWAP2 POP POP JUMP JUMPDEST PUSH1 0x0 PUSH1 0x20 DUP3 ADD SWAP1 POP PUSH2 0x138F PUSH1 0x0 DUP4 ADD DUP5 PUSH2 0x1122 JUMP JUMPDEST SWAP3 SWAP2 POP POP JUMP JUMPDEST PUSH1 0x0 PUSH1 0x20 DUP3 ADD SWAP1 POP DUP2 DUP2 SUB PUSH1 0x0 DUP4 ADD MSTORE PUSH2 0x13AE DUP2 PUSH2 0x1131 JUMP JUMPDEST SWAP1 POP SWAP2 SWAP1 POP JUMP JUMPDEST PUSH1 0x0 PUSH1 0x20 DUP3 ADD SWAP1 POP DUP2 DUP2 SUB PUSH1 0x0 DUP4 ADD MSTORE PUSH2 0x13CE DUP2 PUSH2 0x1154 JUMP JUMPDEST SWAP1 POP SWAP2 SWAP1 POP JUMP JUMPDEST PUSH1 0x0 PUSH1 0x20 DUP3 ADD SWAP1 POP DUP2 DUP2 SUB PUSH1 0x0 DUP4 ADD MSTORE PUSH2 0x13EE DUP2 PUSH2 0x1177 JUMP JUMPDEST SWAP1 POP SWAP2 SWAP1 POP JUMP JUMPDEST PUSH1 0x0 PUSH1 0x20 DUP3 ADD SWAP1 POP DUP2 DUP2 SUB PUSH1 0x0 DUP4 ADD MSTORE PUSH2 0x140E DUP2 PUSH2 0x119A JUMP JUMPDEST SWAP1 POP SWAP2 SWAP1 POP JUMP JUMPDEST PUSH1 0x0 PUSH1 0x20 DUP3 ADD SWAP1 POP DUP2 DUP2 SUB PUSH1 0x0 DUP4 ADD MSTORE PUSH2 0x142E DUP2 PUSH2 0x11BD JUMP JUMPDEST SWAP1 POP SWAP2 SWAP1 POP JUMP JUMPDEST PUSH1 0x0 PUSH1 0x20 DUP3 ADD SWAP1 POP DUP2 DUP2 SUB PUSH1 0x0 DUP4 ADD MSTORE PUSH2 0x144E DUP2 PUSH2 0x11E0 JUMP JUMPDEST SWAP1 POP SWAP2 SWAP1 POP JUMP JUMPDEST PUSH1 0x0 PUSH1 0x20 DUP3 ADD SWAP1 POP DUP2 DUP2 SUB PUSH1 0x0 DUP4 ADD MSTORE PUSH2 0x146E DUP2 PUSH2 0x1203 JUMP JUMPDEST SWAP1 POP SWAP2 SWAP1 POP JUMP JUMPDEST PUSH1 0x0 PUSH1 0x20 DUP3 ADD SWAP1 POP DUP2 DUP2 SUB PUSH1 0x0 DUP4 ADD MSTORE PUSH2 0x148E DUP2 PUSH2 0x1226 JUMP JUMPDEST SWAP1 POP SWAP2 SWAP1 POP JUMP JUMPDEST PUSH1 0x0 PUSH1 0x20 DUP3 ADD SWAP1 POP DUP2 DUP2 SUB PUSH1 0x0 DUP4 ADD MSTORE PUSH2 0x14AE DUP2 PUSH2 0x1249 JUMP JUMPDEST SWAP1 POP SWAP2 SWAP1 POP JUMP JUMPDEST PUSH1 0x0 PUSH1 0x20 DUP3 ADD SWAP1 POP DUP2 DUP2 SUB PUSH1 0x0 DUP4 ADD MSTORE PUSH2 0x14CE DUP2 PUSH2 0x126C JUMP JUMPDEST SWAP1 POP SWAP2 SWAP1 POP JUMP JUMPDEST PUSH1 0x0 PUSH1 0x20 DUP3 ADD SWAP1 POP DUP2 DUP2 SUB PUSH1 0x0 DUP4 ADD MSTORE PUSH2 0x14EE DUP2 PUSH2 0x128F JUMP JUMPDEST SWAP1 POP SWAP2 SWAP1 POP JUMP JUMPDEST PUSH1 0x0 PUSH1 0x20 DUP3 ADD SWAP1 POP DUP2 DUP2 SUB PUSH1 0x0 DUP4 ADD MSTORE PUSH2 0x150E DUP2 PUSH2 0x12B2 JUMP JUMPDEST SWAP1 POP SWAP2 SWAP1 POP JUMP JUMPDEST PUSH1 0x0 PUSH1 0x20 DUP3 ADD SWAP1 POP PUSH2 0x152A PUSH1 0x0 DUP4 ADD DUP5 PUSH2 0x12D5 JUMP JUMPDEST SWAP3 SWAP2 POP POP JUMP JUMPDEST PUSH1 0x0 PUSH1 0x40 DUP3 ADD SWAP1 POP PUSH2 0x1545 PUSH1 0x0 DUP4 ADD DUP6 PUSH2 0x12D5 JUMP JUMPDEST PUSH2 0x1552 PUSH1 0x20 DUP4 ADD DUP5 PUSH2 0x1113 JUMP JUMPDEST SWAP4 SWAP3 POP POP POP JUMP JUMPDEST PUSH1 0x0 DUP3 DUP3 MSTORE PUSH1 0x20 DUP3 ADD SWAP1 POP SWAP3 SWAP2 POP POP JUMP JUMPDEST PUSH1 0x0 PUSH2 0x1575 DUP3 PUSH2 0x1632 JUMP JUMPDEST SWAP2 POP PUSH2 0x1580 DUP4 PUSH2 0x1632 JUMP JUMPDEST SWAP3 POP DUP3 PUSH32 0xFFFFFFFFFFFFFFFFFFFFFFFFFFFFFFFFFFFFFFFFFFFFFFFFFFFFFFFFFFFFFFFF SUB DUP3 GT ISZERO PUSH2 0x15B5 JUMPI PUSH2 0x15B4 PUSH2 0x1660 JUMP JUMPDEST JUMPDEST DUP3 DUP3 ADD SWAP1 POP SWAP3 SWAP2 POP POP JUMP JUMPDEST PUSH1 0x0 PUSH2 0x15CB DUP3 PUSH2 0x1632 JUMP JUMPDEST SWAP2 POP PUSH2 0x15D6 DUP4 PUSH2 0x1632 JUMP JUMPDEST SWAP3 POP DUP3 DUP3 LT ISZERO PUSH2 0x15E9 JUMPI PUSH2 0x15E8 PUSH2 0x1660 JUMP JUMPDEST JUMPDEST DUP3 DUP3 SUB SWAP1 POP SWAP3 SWAP2 POP POP JUMP JUMPDEST PUSH1 0x0 PUSH2 0x15FF DUP3 PUSH2 0x1612 JUMP JUMPDEST SWAP1 POP SWAP2 SWAP1 POP JUMP JUMPDEST PUSH1 0x0 DUP2 ISZERO ISZERO SWAP1 POP SWAP2 SWAP1 POP JUMP JUMPDEST PUSH1 0x0 PUSH20 0xFFFFFFFFFFFFFFFFFFFFFFFFFFFFFFFFFFFFFFFF DUP3 AND SWAP1 POP SWAP2 SWAP1 POP JUMP JUMPDEST PUSH1 0x0 DUP2 SWAP1 POP SWAP2 SWAP1 POP JUMP JUMPDEST PUSH1 0x0 PUSH2 0x1647 DUP3 PUSH2 0x164E JUMP JUMPDEST SWAP1 POP SWAP2 SWAP1 POP JUMP JUMPDEST PUSH1 0x0 PUSH2 0x1659 DUP3 PUSH2 0x1612 JUMP JUMPDEST SWAP1 POP SWAP2 SWAP1 POP JUMP JUMPDEST PUSH32 0x4E487B7100000000000000000000000000000000000000000000000000000000 PUSH1 0x0 MSTORE PUSH1 0x11 PUSH1 0x4 MSTORE PUSH1 0x24 PUSH1 0x0 REVERT JUMPDEST PUSH32 0x4C6F636B65640000000000000000000000000000000000000000000000000000 PUSH1 0x0 DUP3 ADD MSTORE POP JUMP JUMPDEST PUSH32 0x4F776E61626C653A206E6577206F776E657220697320746865207A65726F2061 PUSH1 0x0 DUP3 ADD MSTORE PUSH32 0x6464726573730000000000000000000000000000000000000000000000000000 PUSH1 0x20 DUP3 ADD MSTORE POP JUMP JUMPDEST PUSH32 0x496E73756666696369656E742062616C616E6365000000000000000000000000 PUSH1 0x0 DUP3 ADD MSTORE POP JUMP JUMPDEST PUSH32 0x416D6F756E74206578636565647320746865206D6178696D756D20616D6F756E PUSH1 0x0 DUP3 ADD MSTORE PUSH32 0x74206F6620706F6F6C20706C656467657320616C6C6F77656420666F72207468 PUSH1 0x20 DUP3 ADD MSTORE PUSH32 0x6520706572696F64000000000000000000000000000000000000000000000000 PUSH1 0x40 DUP3 ADD MSTORE POP JUMP JUMPDEST PUSH32 0x546F6B656E207472616E73666572206661696C65640000000000000000000000 PUSH1 0x0 DUP3 ADD MSTORE POP JUMP JUMPDEST PUSH32 0x416D6F756E742073686F756C642062652067726561746572207468616E203000 PUSH1 0x0 DUP3 ADD MSTORE POP JUMP JUMPDEST PUSH32 0x4D617820616D6F756E742073686F756C64206265206772656174657220746861 PUSH1 0x0 DUP3 ADD MSTORE PUSH32 0x6E20300000000000000000000000000000000000000000000000000000000000 PUSH1 0x20 DUP3 ADD MSTORE POP JUMP JUMPDEST PUSH32 0x4F776E61626C653A2063616C6C6572206973206E6F7420746865206F776E6572 PUSH1 0x0 DUP3 ADD MSTORE POP JUMP JUMPDEST PUSH32 0x5468652063757272656E74207374616B696E6720616374697669747920686173 PUSH1 0x0 DUP3 ADD MSTORE PUSH32 0x20656E6465640000000000000000000000000000000000000000000000000000 PUSH1 0x20 DUP3 ADD MSTORE POP JUMP JUMPDEST PUSH32 0x4C6F636B7570506572696F642073686F756C6420626520677265617465722074 PUSH1 0x0 DUP3 ADD MSTORE PUSH32 0x68616E2030000000000000000000000000000000000000000000000000000000 PUSH1 0x20 DUP3 ADD MSTORE POP JUMP JUMPDEST PUSH32 0x416D6F756E742073686F756C642062652067726561746572207468616E206F72 PUSH1 0x0 DUP3 ADD MSTORE PUSH32 0x20657175616C20746F206D696E5374616B65416D6F756E740000000000000000 PUSH1 0x20 DUP3 ADD MSTORE POP JUMP JUMPDEST PUSH32 0x5265656E7472616E637947756172643A207265656E7472616E742063616C6C00 PUSH1 0x0 DUP3 ADD MSTORE POP JUMP JUMPDEST PUSH2 0x198E DUP2 PUSH2 0x15F4 JUMP JUMPDEST DUP2 EQ PUSH2 0x1999 JUMPI PUSH1 0x0 DUP1 REVERT JUMPDEST POP JUMP JUMPDEST PUSH2 0x19A5 DUP2 PUSH2 0x1606 JUMP JUMPDEST DUP2 EQ PUSH2 0x19B0 JUMPI PUSH1 0x0 DUP1 REVERT JUMPDEST POP JUMP JUMPDEST PUSH2 0x19BC DUP2 PUSH2 0x1632 JUMP JUMPDEST DUP2 EQ PUSH2 0x19C7 JUMPI PUSH1 0x0 DUP1 REVERT JUMPDEST POP JUMP INVALID LOG2 PUSH5 0x6970667358 0x22 SLT KECCAK256 0xBB 0xAB BLOCKHASH 0xC8 0xD6 DUP11 0xBB 0xC7 PUSH14 0x5A5118D93874857CF8128D9E3AFF STOP 0x5F 0x2C INVALID DUP4 0xF8 CREATE 0xFC 0x25 PUSH5 0x736F6C6343 STOP ADDMOD DIV STOP CALLER "
				},
				"gasEstimates": {
					"creation": {
						"codeDepositCost": "1331200",
						"executionCost": "infinite",
						"totalCost": "infinite"
					},
					"external": {
						"balanceOf(address)": "1630",
						"balances(address)": "1538",
						"isClub(address)": "1633",
						"lockupPeriod()": "1151",
						"maxAmount()": "1174",
						"minStakeAmount()": "1173",
						"owner()": "1245",
						"renounceOwnership()": "24509",
						"setLockupPeriod(uint256)": "21496",
						"setMaxAmount(uint256)": "21453",
						"setMinStakeAmount(uint256)": "21518",
						"setStakingStartTime(uint256)": "21407",
						"stake(uint256)": "infinite",
						"stakingStartTime()": "1196",
						"stakingTime(address)": "1582",
						"token()": "1367",
						"totalStakeAmount()": "1174",
						"transferOwnership(address)": "24813",
						"unStake(uint256)": "infinite"
					}
				},
				"methodIdentifiers": {
					"balanceOf(address)": "70a08231",
					"balances(address)": "27e235e3",
					"isClub(address)": "fb5d6be7",
					"lockupPeriod()": "ee947a7c",
					"maxAmount()": "5f48f393",
					"minStakeAmount()": "f1887684",
					"owner()": "8da5cb5b",
					"renounceOwnership()": "715018a6",
					"setLockupPeriod(uint256)": "c771c390",
					"setMaxAmount(uint256)": "4fe47f70",
					"setMinStakeAmount(uint256)": "eb4af045",
					"setStakingStartTime(uint256)": "5d90bad9",
					"stake(uint256)": "a694fc3a",
					"stakingStartTime()": "6abfd183",
					"stakingTime(address)": "583d42fd",
					"token()": "fc0c546a",
					"totalStakeAmount()": "94409a56",
					"transferOwnership(address)": "f2fde38b",
					"unStake(uint256)": "5d3eea91"
				}
			},
			"storageLayout": {
				"storage": [
					{
						"astId": 7,
						"contract": "Defi/ClubStaking.sol:ClubStakingPool",
						"label": "_owner",
						"offset": 0,
						"slot": "0",
						"type": "t_address"
					},
					{
						"astId": 123,
						"contract": "Defi/ClubStaking.sol:ClubStakingPool",
						"label": "_status",
						"offset": 0,
						"slot": "1",
						"type": "t_uint256"
					},
					{
						"astId": 594,
						"contract": "Defi/ClubStaking.sol:ClubStakingPool",
						"label": "token",
						"offset": 0,
						"slot": "2",
						"type": "t_contract(IERC20)244"
					},
					{
						"astId": 596,
						"contract": "Defi/ClubStaking.sol:ClubStakingPool",
						"label": "maxAmount",
						"offset": 0,
						"slot": "3",
						"type": "t_uint256"
					},
					{
						"astId": 598,
						"contract": "Defi/ClubStaking.sol:ClubStakingPool",
						"label": "lockupPeriod",
						"offset": 0,
						"slot": "4",
						"type": "t_uint256"
					},
					{
						"astId": 600,
						"contract": "Defi/ClubStaking.sol:ClubStakingPool",
						"label": "stakingStartTime",
						"offset": 0,
						"slot": "5",
						"type": "t_uint256"
					},
					{
						"astId": 602,
						"contract": "Defi/ClubStaking.sol:ClubStakingPool",
						"label": "totalStakeAmount",
						"offset": 0,
						"slot": "6",
						"type": "t_uint256"
					},
					{
						"astId": 606,
						"contract": "Defi/ClubStaking.sol:ClubStakingPool",
						"label": "isClub",
						"offset": 0,
						"slot": "7",
						"type": "t_mapping(t_address,t_bool)"
					},
					{
						"astId": 608,
						"contract": "Defi/ClubStaking.sol:ClubStakingPool",
						"label": "minStakeAmount",
						"offset": 0,
						"slot": "8",
						"type": "t_uint256"
					},
					{
						"astId": 612,
						"contract": "Defi/ClubStaking.sol:ClubStakingPool",
						"label": "balances",
						"offset": 0,
						"slot": "9",
						"type": "t_mapping(t_address,t_uint256)"
					},
					{
						"astId": 616,
						"contract": "Defi/ClubStaking.sol:ClubStakingPool",
						"label": "stakingTime",
						"offset": 0,
						"slot": "10",
						"type": "t_mapping(t_address,t_uint256)"
					}
				],
				"types": {
					"t_address": {
						"encoding": "inplace",
						"label": "address",
						"numberOfBytes": "20"
					},
					"t_bool": {
						"encoding": "inplace",
						"label": "bool",
						"numberOfBytes": "1"
					},
					"t_contract(IERC20)244": {
						"encoding": "inplace",
						"label": "contract IERC20",
						"numberOfBytes": "20"
					},
					"t_mapping(t_address,t_bool)": {
						"encoding": "mapping",
						"key": "t_address",
						"label": "mapping(address => bool)",
						"numberOfBytes": "32",
						"value": "t_bool"
					},
					"t_mapping(t_address,t_uint256)": {
						"encoding": "mapping",
						"key": "t_address",
						"label": "mapping(address => uint256)",
						"numberOfBytes": "32",
						"value": "t_uint256"
					},
					"t_uint256": {
						"encoding": "inplace",
						"label": "uint256",
						"numberOfBytes": "32"
					}
				}
			},
			"userdoc": {
				"kind": "user",
				"methods": {},
				"version": 1
			}
		}
	}
}