{
	"Defi/StakingPool.sol": {
		"StakingPool": {
			"abi": [
				{
					"inputs": [
						{
							"internalType": "address",
							"name": "_token",
							"type": "address"
						},
						{
							"internalType": "address",
							"name": "_rewardToken",
							"type": "address"
						},
						{
							"internalType": "uint256",
							"name": "_rewardRateInit",
							"type": "uint256"
						},
						{
							"internalType": "uint256",
							"name": "_lockupPeriod",
							"type": "uint256"
						}
					],
					"stateMutability": "nonpayable",
					"type": "constructor"
				},
				{
					"anonymous": false,
					"inputs": [
						{
							"indexed": true,
							"internalType": "address",
							"name": "user",
							"type": "address"
						},
						{
							"indexed": false,
							"internalType": "uint256",
							"name": "amount",
							"type": "uint256"
						}
					],
					"name": "ClaimReward",
					"type": "event"
				},
				{
					"anonymous": false,
					"inputs": [
						{
							"indexed": true,
							"internalType": "address",
							"name": "previousOwner",
							"type": "address"
						},
						{
							"indexed": true,
							"internalType": "address",
							"name": "newOwner",
							"type": "address"
						}
					],
					"name": "OwnershipTransferred",
					"type": "event"
				},
				{
					"anonymous": false,
					"inputs": [
						{
							"indexed": true,
							"internalType": "address",
							"name": "user",
							"type": "address"
						},
						{
							"indexed": false,
							"internalType": "uint256",
							"name": "amount",
							"type": "uint256"
						}
					],
					"name": "Stake",
					"type": "event"
				},
				{
					"anonymous": false,
					"inputs": [
						{
							"indexed": true,
							"internalType": "address",
							"name": "user",
							"type": "address"
						},
						{
							"indexed": false,
							"internalType": "uint256",
							"name": "amount",
							"type": "uint256"
						}
					],
					"name": "UnStake",
					"type": "event"
				},
				{
					"inputs": [
						{
							"internalType": "address",
							"name": "_address",
							"type": "address"
						}
					],
					"name": "balanceOf",
					"outputs": [
						{
							"internalType": "uint256",
							"name": "",
							"type": "uint256"
						}
					],
					"stateMutability": "view",
					"type": "function"
				},
				{
					"inputs": [],
					"name": "claimReward",
					"outputs": [],
					"stateMutability": "nonpayable",
					"type": "function"
				},
				{
					"inputs": [],
					"name": "dayTime",
					"outputs": [
						{
							"internalType": "uint256",
							"name": "",
							"type": "uint256"
						}
					],
					"stateMutability": "view",
					"type": "function"
				},
				{
					"inputs": [],
					"name": "lockupPeriod",
					"outputs": [
						{
							"internalType": "uint256",
							"name": "",
							"type": "uint256"
						}
					],
					"stateMutability": "view",
					"type": "function"
				},
				{
					"inputs": [],
					"name": "owner",
					"outputs": [
						{
							"internalType": "address",
							"name": "",
							"type": "address"
						}
					],
					"stateMutability": "view",
					"type": "function"
				},
				{
					"inputs": [],
					"name": "renounceOwnership",
					"outputs": [],
					"stateMutability": "nonpayable",
					"type": "function"
				},
				{
					"inputs": [],
					"name": "rewardRateInit",
					"outputs": [
						{
							"internalType": "uint256",
							"name": "",
							"type": "uint256"
						}
					],
					"stateMutability": "view",
					"type": "function"
				},
				{
					"inputs": [],
					"name": "rewardToken",
					"outputs": [
						{
							"internalType": "contract IERC20",
							"name": "",
							"type": "address"
						}
					],
					"stateMutability": "view",
					"type": "function"
				},
				{
					"inputs": [
						{
							"internalType": "uint256",
							"name": "_lockupPeriod",
							"type": "uint256"
						}
					],
					"name": "setLockupPeriod",
					"outputs": [],
					"stateMutability": "nonpayable",
					"type": "function"
				},
				{
					"inputs": [
						{
							"internalType": "uint256",
							"name": "_rewardRateInit",
							"type": "uint256"
						}
					],
					"name": "setRewardRateInit",
					"outputs": [],
					"stateMutability": "nonpayable",
					"type": "function"
				},
				{
					"inputs": [
						{
							"internalType": "address",
							"name": "_rewardToken",
							"type": "address"
						}
					],
					"name": "setRewardToken",
					"outputs": [],
					"stateMutability": "nonpayable",
					"type": "function"
				},
				{
					"inputs": [
						{
							"internalType": "uint256",
							"name": "_stakingStartTime",
							"type": "uint256"
						}
					],
					"name": "setStakingStartTime",
					"outputs": [],
					"stateMutability": "nonpayable",
					"type": "function"
				},
				{
					"inputs": [
						{
							"internalType": "uint256",
							"name": "_amount",
							"type": "uint256"
						}
					],
					"name": "stake",
					"outputs": [],
					"stateMutability": "nonpayable",
					"type": "function"
				},
				{
					"inputs": [
						{
							"internalType": "address",
							"name": "",
							"type": "address"
						}
					],
					"name": "stakingBalance",
					"outputs": [
						{
							"internalType": "uint256",
							"name": "",
							"type": "uint256"
						}
					],
					"stateMutability": "view",
					"type": "function"
				},
				{
					"inputs": [
						{
							"internalType": "address",
							"name": "",
							"type": "address"
						}
					],
					"name": "stakingReward",
					"outputs": [
						{
							"internalType": "uint256",
							"name": "",
							"type": "uint256"
						}
					],
					"stateMutability": "view",
					"type": "function"
				},
				{
					"inputs": [],
					"name": "stakingStartTime",
					"outputs": [
						{
							"internalType": "uint256",
							"name": "",
							"type": "uint256"
						}
					],
					"stateMutability": "view",
					"type": "function"
				},
				{
					"inputs": [
						{
							"internalType": "address",
							"name": "",
							"type": "address"
						}
					],
					"name": "stakingTime",
					"outputs": [
						{
							"internalType": "uint256",
							"name": "",
							"type": "uint256"
						}
					],
					"stateMutability": "view",
					"type": "function"
				},
				{
					"inputs": [],
					"name": "token",
					"outputs": [
						{
							"internalType": "contract IERC20",
							"name": "",
							"type": "address"
						}
					],
					"stateMutability": "view",
					"type": "function"
				},
				{
					"inputs": [],
					"name": "totalReward",
					"outputs": [
						{
							"internalType": "uint256",
							"name": "",
							"type": "uint256"
						}
					],
					"stateMutability": "view",
					"type": "function"
				},
				{
					"inputs": [],
					"name": "totalStake",
					"outputs": [
						{
							"internalType": "uint256",
							"name": "",
							"type": "uint256"
						}
					],
					"stateMutability": "view",
					"type": "function"
				},
				{
					"inputs": [
						{
							"internalType": "address",
							"name": "newOwner",
							"type": "address"
						}
					],
					"name": "transferOwnership",
					"outputs": [],
					"stateMutability": "nonpayable",
					"type": "function"
				},
				{
					"inputs": [
						{
							"internalType": "uint256",
							"name": "_amount",
							"type": "uint256"
						}
					],
					"name": "unStake",
					"outputs": [],
					"stateMutability": "nonpayable",
					"type": "function"
				}
			],
			"devdoc": {
				"kind": "dev",
				"methods": {
					"owner()": {
						"details": "Returns the address of the current owner."
					},
					"renounceOwnership()": {
						"details": "Leaves the contract without owner. It will not be possible to call `onlyOwner` functions anymore. Can only be called by the current owner. NOTE: Renouncing ownership will leave the contract without an owner, thereby removing any functionality that is only available to the owner."
					},
					"transferOwnership(address)": {
						"details": "Transfers ownership of the contract to a new account (`newOwner`). Can only be called by the current owner."
					}
				},
				"version": 1
			},
			"evm": {
				"assembly": "    /* \"Defi/StakingPool.sol\":289:4718  contract StakingPool is Ownable, ReentrancyGuard {... */\n  mstore(0x40, 0x80)\n    /* \"Defi/StakingPool.sol\":1155:1160  86400 */\n  0x015180\n    /* \"Defi/StakingPool.sol\":1130:1160  uint256 public dayTime = 86400 */\n  0x0c\n  sstore\n    /* \"Defi/StakingPool.sol\":1370:1675  constructor(address _token, address _rewardToken, uint256 _rewardRateInit, uint256 _lockupPeriod) {... */\n  callvalue\n  dup1\n  iszero\n  tag_1\n  jumpi\n  0x00\n  dup1\n  revert\ntag_1:\n  pop\n  mload(0x40)\n  sub(codesize, bytecodeSize)\n  dup1\n  bytecodeSize\n  dup4\n  codecopy\n  dup2\n  dup2\n  add\n  0x40\n  mstore\n  dup2\n  add\n  swap1\n  tag_2\n  swap2\n  swap1\n  tag_3\n  jump\t// in\ntag_2:\n    /* \"@openzeppelin/contracts/access/Ownable.sol\":936:968  _transferOwnership(_msgSender()) */\n  tag_8\n    /* \"@openzeppelin/contracts/access/Ownable.sol\":955:967  _msgSender() */\n  tag_9\n    /* \"@openzeppelin/contracts/access/Ownable.sol\":955:965  _msgSender */\n  shl(0x20, tag_10)\n    /* \"@openzeppelin/contracts/access/Ownable.sol\":955:967  _msgSender() */\n  0x20\n  shr\n  jump\t// in\ntag_9:\n    /* \"@openzeppelin/contracts/access/Ownable.sol\":936:954  _transferOwnership */\n  shl(0x20, tag_11)\n    /* \"@openzeppelin/contracts/access/Ownable.sol\":936:968  _transferOwnership(_msgSender()) */\n  0x20\n  shr\n  jump\t// in\ntag_8:\n    /* \"@openzeppelin/contracts/security/ReentrancyGuard.sol\":1716:1717  1 */\n  0x01\n    /* \"@openzeppelin/contracts/security/ReentrancyGuard.sol\":1821:1828  _status */\n  dup1\n    /* \"@openzeppelin/contracts/security/ReentrancyGuard.sol\":1821:1843  _status = _NOT_ENTERED */\n  dup2\n  swap1\n  sstore\n  pop\n    /* \"Defi/StakingPool.sol\":1493:1499  _token */\n  dup4\n    /* \"Defi/StakingPool.sol\":1478:1483  token */\n  0x02\n  0x00\n    /* \"Defi/StakingPool.sol\":1478:1500  token = IERC20(_token) */\n  0x0100\n  exp\n  dup2\n  sload\n  dup2\n  0xffffffffffffffffffffffffffffffffffffffff\n  mul\n  not\n  and\n  swap1\n  dup4\n  0xffffffffffffffffffffffffffffffffffffffff\n  and\n  mul\n  or\n  swap1\n  sstore\n  pop\n    /* \"Defi/StakingPool.sol\":1531:1543  _rewardToken */\n  dup3\n    /* \"Defi/StakingPool.sol\":1510:1521  rewardToken */\n  0x03\n  0x00\n    /* \"Defi/StakingPool.sol\":1510:1544  rewardToken = IERC20(_rewardToken) */\n  0x0100\n  exp\n  dup2\n  sload\n  dup2\n  0xffffffffffffffffffffffffffffffffffffffff\n  mul\n  not\n  and\n  swap1\n  dup4\n  0xffffffffffffffffffffffffffffffffffffffff\n  and\n  mul\n  or\n  swap1\n  sstore\n  pop\n    /* \"Defi/StakingPool.sol\":1571:1586  _rewardRateInit */\n  dup2\n    /* \"Defi/StakingPool.sol\":1554:1568  rewardRateInit */\n  0x04\n    /* \"Defi/StakingPool.sol\":1554:1586  rewardRateInit = _rewardRateInit */\n  dup2\n  swap1\n  sstore\n  pop\n    /* \"Defi/StakingPool.sol\":1611:1624  _lockupPeriod */\n  dup1\n    /* \"Defi/StakingPool.sol\":1596:1608  lockupPeriod */\n  0x05\n    /* \"Defi/StakingPool.sol\":1596:1624  lockupPeriod = _lockupPeriod */\n  dup2\n  swap1\n  sstore\n  pop\n    /* \"Defi/StakingPool.sol\":1653:1668  block.timestamp */\n  timestamp\n    /* \"Defi/StakingPool.sol\":1634:1650  stakingStartTime */\n  0x06\n    /* \"Defi/StakingPool.sol\":1634:1668  stakingStartTime = block.timestamp */\n  dup2\n  swap1\n  sstore\n  pop\n    /* \"Defi/StakingPool.sol\":1370:1675  constructor(address _token, address _rewardToken, uint256 _rewardRateInit, uint256 _lockupPeriod) {... */\n  pop\n  pop\n  pop\n  pop\n    /* \"Defi/StakingPool.sol\":289:4718  contract StakingPool is Ownable, ReentrancyGuard {... */\n  jump(tag_14)\n    /* \"@openzeppelin/contracts/utils/Context.sol\":640:736  function _msgSender() internal view virtual returns (address) {... */\ntag_10:\n    /* \"@openzeppelin/contracts/utils/Context.sol\":693:700  address */\n  0x00\n    /* \"@openzeppelin/contracts/utils/Context.sol\":719:729  msg.sender */\n  caller\n    /* \"@openzeppelin/contracts/utils/Context.sol\":712:729  return msg.sender */\n  swap1\n  pop\n    /* \"@openzeppelin/contracts/utils/Context.sol\":640:736  function _msgSender() internal view virtual returns (address) {... */\n  swap1\n  jump\t// out\n    /* \"@openzeppelin/contracts/access/Ownable.sol\":2433:2620  function _transferOwnership(address newOwner) internal virtual {... */\ntag_11:\n    /* \"@openzeppelin/contracts/access/Ownable.sol\":2506:2522  address oldOwner */\n  0x00\n    /* \"@openzeppelin/contracts/access/Ownable.sol\":2525:2531  _owner */\n  dup1\n  0x00\n  swap1\n  sload\n  swap1\n  0x0100\n  exp\n  swap1\n  div\n  0xffffffffffffffffffffffffffffffffffffffff\n  and\n    /* \"@openzeppelin/contracts/access/Ownable.sol\":2506:2531  address oldOwner = _owner */\n  swap1\n  pop\n    /* \"@openzeppelin/contracts/access/Ownable.sol\":2550:2558  newOwner */\n  dup2\n    /* \"@openzeppelin/contracts/access/Ownable.sol\":2541:2547  _owner */\n  0x00\n  dup1\n    /* \"@openzeppelin/contracts/access/Ownable.sol\":2541:2558  _owner = newOwner */\n  0x0100\n  exp\n  dup2\n  sload\n  dup2\n  0xffffffffffffffffffffffffffffffffffffffff\n  mul\n  not\n  and\n  swap1\n  dup4\n  0xffffffffffffffffffffffffffffffffffffffff\n  and\n  mul\n  or\n  swap1\n  sstore\n  pop\n    /* \"@openzeppelin/contracts/access/Ownable.sol\":2604:2612  newOwner */\n  dup2\n    /* \"@openzeppelin/contracts/access/Ownable.sol\":2573:2613  OwnershipTransferred(oldOwner, newOwner) */\n  0xffffffffffffffffffffffffffffffffffffffff\n  and\n    /* \"@openzeppelin/contracts/access/Ownable.sol\":2594:2602  oldOwner */\n  dup2\n    /* \"@openzeppelin/contracts/access/Ownable.sol\":2573:2613  OwnershipTransferred(oldOwner, newOwner) */\n  0xffffffffffffffffffffffffffffffffffffffff\n  and\n  0x8be0079c531659141344cd1fd0a4f28419497f9722a3daafe3b4186f6b6457e0\n  mload(0x40)\n  mload(0x40)\n  dup1\n  swap2\n  sub\n  swap1\n  log3\n    /* \"@openzeppelin/contracts/access/Ownable.sol\":2433:2620  function _transferOwnership(address newOwner) internal virtual {... */\n  pop\n  pop\n  jump\t// out\n    /* \"#utility.yul\":7:150   */\ntag_18:\n    /* \"#utility.yul\":64:69   */\n  0x00\n    /* \"#utility.yul\":95:101   */\n  dup2\n    /* \"#utility.yul\":89:102   */\n  mload\n    /* \"#utility.yul\":80:102   */\n  swap1\n  pop\n    /* \"#utility.yul\":111:144   */\n  tag_20\n    /* \"#utility.yul\":138:143   */\n  dup2\n    /* \"#utility.yul\":111:144   */\n  tag_21\n  jump\t// in\ntag_20:\n    /* \"#utility.yul\":70:150   */\n  swap3\n  swap2\n  pop\n  pop\n  jump\t// out\n    /* \"#utility.yul\":156:299   */\ntag_22:\n    /* \"#utility.yul\":213:218   */\n  0x00\n    /* \"#utility.yul\":244:250   */\n  dup2\n    /* \"#utility.yul\":238:251   */\n  mload\n    /* \"#utility.yul\":229:251   */\n  swap1\n  pop\n    /* \"#utility.yul\":260:293   */\n  tag_24\n    /* \"#utility.yul\":287:292   */\n  dup2\n    /* \"#utility.yul\":260:293   */\n  tag_25\n  jump\t// in\ntag_24:\n    /* \"#utility.yul\":219:299   */\n  swap3\n  swap2\n  pop\n  pop\n  jump\t// out\n    /* \"#utility.yul\":305:1058   */\ntag_3:\n    /* \"#utility.yul\":402:408   */\n  0x00\n    /* \"#utility.yul\":410:416   */\n  dup1\n    /* \"#utility.yul\":418:424   */\n  0x00\n    /* \"#utility.yul\":426:432   */\n  dup1\n    /* \"#utility.yul\":475:478   */\n  0x80\n    /* \"#utility.yul\":463:472   */\n  dup6\n    /* \"#utility.yul\":454:461   */\n  dup8\n    /* \"#utility.yul\":450:473   */\n  sub\n    /* \"#utility.yul\":446:479   */\n  slt\n    /* \"#utility.yul\":443:445   */\n  iszero\n  tag_27\n  jumpi\n    /* \"#utility.yul\":492:493   */\n  0x00\n    /* \"#utility.yul\":489:490   */\n  dup1\n    /* \"#utility.yul\":482:494   */\n  revert\n    /* \"#utility.yul\":443:445   */\ntag_27:\n    /* \"#utility.yul\":535:536   */\n  0x00\n    /* \"#utility.yul\":560:624   */\n  tag_28\n    /* \"#utility.yul\":616:623   */\n  dup8\n    /* \"#utility.yul\":607:613   */\n  dup3\n    /* \"#utility.yul\":596:605   */\n  dup9\n    /* \"#utility.yul\":592:614   */\n  add\n    /* \"#utility.yul\":560:624   */\n  tag_18\n  jump\t// in\ntag_28:\n    /* \"#utility.yul\":550:624   */\n  swap5\n  pop\n    /* \"#utility.yul\":506:634   */\n  pop\n    /* \"#utility.yul\":673:675   */\n  0x20\n    /* \"#utility.yul\":699:763   */\n  tag_29\n    /* \"#utility.yul\":755:762   */\n  dup8\n    /* \"#utility.yul\":746:752   */\n  dup3\n    /* \"#utility.yul\":735:744   */\n  dup9\n    /* \"#utility.yul\":731:753   */\n  add\n    /* \"#utility.yul\":699:763   */\n  tag_18\n  jump\t// in\ntag_29:\n    /* \"#utility.yul\":689:763   */\n  swap4\n  pop\n    /* \"#utility.yul\":644:773   */\n  pop\n    /* \"#utility.yul\":812:814   */\n  0x40\n    /* \"#utility.yul\":838:902   */\n  tag_30\n    /* \"#utility.yul\":894:901   */\n  dup8\n    /* \"#utility.yul\":885:891   */\n  dup3\n    /* \"#utility.yul\":874:883   */\n  dup9\n    /* \"#utility.yul\":870:892   */\n  add\n    /* \"#utility.yul\":838:902   */\n  tag_22\n  jump\t// in\ntag_30:\n    /* \"#utility.yul\":828:902   */\n  swap3\n  pop\n    /* \"#utility.yul\":783:912   */\n  pop\n    /* \"#utility.yul\":951:953   */\n  0x60\n    /* \"#utility.yul\":977:1041   */\n  tag_31\n    /* \"#utility.yul\":1033:1040   */\n  dup8\n    /* \"#utility.yul\":1024:1030   */\n  dup3\n    /* \"#utility.yul\":1013:1022   */\n  dup9\n    /* \"#utility.yul\":1009:1031   */\n  add\n    /* \"#utility.yul\":977:1041   */\n  tag_22\n  jump\t// in\ntag_31:\n    /* \"#utility.yul\":967:1041   */\n  swap2\n  pop\n    /* \"#utility.yul\":922:1051   */\n  pop\n    /* \"#utility.yul\":433:1058   */\n  swap3\n  swap6\n  swap2\n  swap5\n  pop\n  swap3\n  pop\n  jump\t// out\n    /* \"#utility.yul\":1064:1160   */\ntag_32:\n    /* \"#utility.yul\":1101:1108   */\n  0x00\n    /* \"#utility.yul\":1130:1154   */\n  tag_34\n    /* \"#utility.yul\":1148:1153   */\n  dup3\n    /* \"#utility.yul\":1130:1154   */\n  tag_35\n  jump\t// in\ntag_34:\n    /* \"#utility.yul\":1119:1154   */\n  swap1\n  pop\n    /* \"#utility.yul\":1109:1160   */\n  swap2\n  swap1\n  pop\n  jump\t// out\n    /* \"#utility.yul\":1166:1292   */\ntag_35:\n    /* \"#utility.yul\":1203:1210   */\n  0x00\n    /* \"#utility.yul\":1243:1285   */\n  0xffffffffffffffffffffffffffffffffffffffff\n    /* \"#utility.yul\":1236:1241   */\n  dup3\n    /* \"#utility.yul\":1232:1286   */\n  and\n    /* \"#utility.yul\":1221:1286   */\n  swap1\n  pop\n    /* \"#utility.yul\":1211:1292   */\n  swap2\n  swap1\n  pop\n  jump\t// out\n    /* \"#utility.yul\":1298:1375   */\ntag_37:\n    /* \"#utility.yul\":1335:1342   */\n  0x00\n    /* \"#utility.yul\":1364:1369   */\n  dup2\n    /* \"#utility.yul\":1353:1369   */\n  swap1\n  pop\n    /* \"#utility.yul\":1343:1375   */\n  swap2\n  swap1\n  pop\n  jump\t// out\n    /* \"#utility.yul\":1381:1503   */\ntag_21:\n    /* \"#utility.yul\":1454:1478   */\n  tag_40\n    /* \"#utility.yul\":1472:1477   */\n  dup2\n    /* \"#utility.yul\":1454:1478   */\n  tag_32\n  jump\t// in\ntag_40:\n    /* \"#utility.yul\":1447:1452   */\n  dup2\n    /* \"#utility.yul\":1444:1479   */\n  eq\n    /* \"#utility.yul\":1434:1436   */\n  tag_41\n  jumpi\n    /* \"#utility.yul\":1493:1494   */\n  0x00\n    /* \"#utility.yul\":1490:1491   */\n  dup1\n    /* \"#utility.yul\":1483:1495   */\n  revert\n    /* \"#utility.yul\":1434:1436   */\ntag_41:\n    /* \"#utility.yul\":1424:1503   */\n  pop\n  jump\t// out\n    /* \"#utility.yul\":1509:1631   */\ntag_25:\n    /* \"#utility.yul\":1582:1606   */\n  tag_43\n    /* \"#utility.yul\":1600:1605   */\n  dup2\n    /* \"#utility.yul\":1582:1606   */\n  tag_37\n  jump\t// in\ntag_43:\n    /* \"#utility.yul\":1575:1580   */\n  dup2\n    /* \"#utility.yul\":1572:1607   */\n  eq\n    /* \"#utility.yul\":1562:1564   */\n  tag_44\n  jumpi\n    /* \"#utility.yul\":1621:1622   */\n  0x00\n    /* \"#utility.yul\":1618:1619   */\n  dup1\n    /* \"#utility.yul\":1611:1623   */\n  revert\n    /* \"#utility.yul\":1562:1564   */\ntag_44:\n    /* \"#utility.yul\":1552:1631   */\n  pop\n  jump\t// out\n    /* \"Defi/StakingPool.sol\":289:4718  contract StakingPool is Ownable, ReentrancyGuard {... */\ntag_14:\n  dataSize(sub_0)\n  dup1\n  dataOffset(sub_0)\n  0x00\n  codecopy\n  0x00\n  return\nstop\n\nsub_0: assembly {\n        /* \"Defi/StakingPool.sol\":289:4718  contract StakingPool is Ownable, ReentrancyGuard {... */\n      mstore(0x40, 0x80)\n      callvalue\n      dup1\n      iszero\n      tag_1\n      jumpi\n      0x00\n      dup1\n      revert\n    tag_1:\n      pop\n      jumpi(tag_2, lt(calldatasize, 0x04))\n      shr(0xe0, calldataload(0x00))\n      dup1\n      0x8aee8127\n      gt\n      tag_25\n      jumpi\n      dup1\n      0xc771c390\n      gt\n      tag_26\n      jumpi\n      dup1\n      0xc771c390\n      eq\n      tag_19\n      jumpi\n      dup1\n      0xee947a7c\n      eq\n      tag_20\n      jumpi\n      dup1\n      0xf2fde38b\n      eq\n      tag_21\n      jumpi\n      dup1\n      0xf7c618c1\n      eq\n      tag_22\n      jumpi\n      dup1\n      0xfc0c546a\n      eq\n      tag_23\n      jumpi\n      dup1\n      0xfc71ae8c\n      eq\n      tag_24\n      jumpi\n      jump(tag_2)\n    tag_26:\n      dup1\n      0x8aee8127\n      eq\n      tag_14\n      jumpi\n      dup1\n      0x8b0e9f3f\n      eq\n      tag_15\n      jumpi\n      dup1\n      0x8da5cb5b\n      eq\n      tag_16\n      jumpi\n      dup1\n      0xa694fc3a\n      eq\n      tag_17\n      jumpi\n      dup1\n      0xb88a802f\n      eq\n      tag_18\n      jumpi\n      jump(tag_2)\n    tag_25:\n      dup1\n      0x5d90bad9\n      gt\n      tag_27\n      jumpi\n      dup1\n      0x5d90bad9\n      eq\n      tag_8\n      jumpi\n      dup1\n      0x6abfd183\n      eq\n      tag_9\n      jumpi\n      dup1\n      0x70a08231\n      eq\n      tag_10\n      jumpi\n      dup1\n      0x715018a6\n      eq\n      tag_11\n      jumpi\n      dup1\n      0x750142e6\n      eq\n      tag_12\n      jumpi\n      dup1\n      0x80c0976e\n      eq\n      tag_13\n      jumpi\n      jump(tag_2)\n    tag_27:\n      dup1\n      0x154a78b5\n      eq\n      tag_3\n      jumpi\n      dup1\n      0x1683153d\n      eq\n      tag_4\n      jumpi\n      dup1\n      0x45bc78ab\n      eq\n      tag_5\n      jumpi\n      dup1\n      0x583d42fd\n      eq\n      tag_6\n      jumpi\n      dup1\n      0x5d3eea91\n      eq\n      tag_7\n      jumpi\n    tag_2:\n      0x00\n      dup1\n      revert\n        /* \"Defi/StakingPool.sol\":517:546  uint256 public rewardRateInit */\n    tag_3:\n      tag_28\n      tag_29\n      jump\t// in\n    tag_28:\n      mload(0x40)\n      tag_30\n      swap2\n      swap1\n      tag_31\n      jump\t// in\n    tag_30:\n      mload(0x40)\n      dup1\n      swap2\n      sub\n      swap1\n      return\n        /* \"Defi/StakingPool.sol\":912:960  mapping(address => uint256) public stakingReward */\n    tag_4:\n      tag_32\n      0x04\n      dup1\n      calldatasize\n      sub\n      dup2\n      add\n      swap1\n      tag_33\n      swap2\n      swap1\n      tag_34\n      jump\t// in\n    tag_33:\n      tag_35\n      jump\t// in\n    tag_32:\n      mload(0x40)\n      tag_36\n      swap2\n      swap1\n      tag_31\n      jump\t// in\n    tag_36:\n      mload(0x40)\n      dup1\n      swap2\n      sub\n      swap1\n      return\n        /* \"Defi/StakingPool.sol\":732:781  mapping(address => uint256) public stakingBalance */\n    tag_5:\n      tag_37\n      0x04\n      dup1\n      calldatasize\n      sub\n      dup2\n      add\n      swap1\n      tag_38\n      swap2\n      swap1\n      tag_34\n      jump\t// in\n    tag_38:\n      tag_39\n      jump\t// in\n    tag_37:\n      mload(0x40)\n      tag_40\n      swap2\n      swap1\n      tag_31\n      jump\t// in\n    tag_40:\n      mload(0x40)\n      dup1\n      swap2\n      sub\n      swap1\n      return\n        /* \"Defi/StakingPool.sol\":825:871  mapping(address => uint256) public stakingTime */\n    tag_6:\n      tag_41\n      0x04\n      dup1\n      calldatasize\n      sub\n      dup2\n      add\n      swap1\n      tag_42\n      swap2\n      swap1\n      tag_34\n      jump\t// in\n    tag_42:\n      tag_43\n      jump\t// in\n    tag_41:\n      mload(0x40)\n      tag_44\n      swap2\n      swap1\n      tag_31\n      jump\t// in\n    tag_44:\n      mload(0x40)\n      dup1\n      swap2\n      sub\n      swap1\n      return\n        /* \"Defi/StakingPool.sol\":2483:2947  function unStake(uint256 _amount) external nonReentrant {... */\n    tag_7:\n      tag_45\n      0x04\n      dup1\n      calldatasize\n      sub\n      dup2\n      add\n      swap1\n      tag_46\n      swap2\n      swap1\n      tag_47\n      jump\t// in\n    tag_46:\n      tag_48\n      jump\t// in\n    tag_45:\n      stop\n        /* \"Defi/StakingPool.sol\":4118:4246  function setStakingStartTime(uint256 _stakingStartTime) external onlyOwner {... */\n    tag_8:\n      tag_49\n      0x04\n      dup1\n      calldatasize\n      sub\n      dup2\n      add\n      swap1\n      tag_50\n      swap2\n      swap1\n      tag_47\n      jump\t// in\n    tag_50:\n      tag_51\n      jump\t// in\n    tag_49:\n      stop\n        /* \"Defi/StakingPool.sol\":661:692  uint256 public stakingStartTime */\n    tag_9:\n      tag_52\n      tag_53\n      jump\t// in\n    tag_52:\n      mload(0x40)\n      tag_54\n      swap2\n      swap1\n      tag_31\n      jump\t// in\n    tag_54:\n      mload(0x40)\n      dup1\n      swap2\n      sub\n      swap1\n      return\n        /* \"Defi/StakingPool.sol\":4600:4716  function balanceOf(address _address) external view returns (uint256){... */\n    tag_10:\n      tag_55\n      0x04\n      dup1\n      calldatasize\n      sub\n      dup2\n      add\n      swap1\n      tag_56\n      swap2\n      swap1\n      tag_34\n      jump\t// in\n    tag_56:\n      tag_57\n      jump\t// in\n    tag_55:\n      mload(0x40)\n      tag_58\n      swap2\n      swap1\n      tag_31\n      jump\t// in\n    tag_58:\n      mload(0x40)\n      dup1\n      swap2\n      sub\n      swap1\n      return\n        /* \"@openzeppelin/contracts/access/Ownable.sol\":1831:1932  function renounceOwnership() public virtual onlyOwner {... */\n    tag_11:\n      tag_59\n      tag_60\n      jump\t// in\n    tag_59:\n      stop\n        /* \"Defi/StakingPool.sol\":1072:1098  uint256 public totalReward */\n    tag_12:\n      tag_61\n      tag_62\n      jump\t// in\n    tag_61:\n      mload(0x40)\n      tag_63\n      swap2\n      swap1\n      tag_31\n      jump\t// in\n    tag_63:\n      mload(0x40)\n      dup1\n      swap2\n      sub\n      swap1\n      return\n        /* \"Defi/StakingPool.sol\":1130:1160  uint256 public dayTime = 86400 */\n    tag_13:\n      tag_64\n      tag_65\n      jump\t// in\n    tag_64:\n      mload(0x40)\n      tag_66\n      swap2\n      swap1\n      tag_31\n      jump\t// in\n    tag_66:\n      mload(0x40)\n      dup1\n      swap2\n      sub\n      swap1\n      return\n        /* \"Defi/StakingPool.sol\":3958:4074  function setRewardToken(address _rewardToken) external onlyOwner {... */\n    tag_14:\n      tag_67\n      0x04\n      dup1\n      calldatasize\n      sub\n      dup2\n      add\n      swap1\n      tag_68\n      swap2\n      swap1\n      tag_34\n      jump\t// in\n    tag_68:\n      tag_69\n      jump\t// in\n    tag_67:\n      stop\n        /* \"Defi/StakingPool.sol\":1012:1037  uint256 public totalStake */\n    tag_15:\n      tag_70\n      tag_71\n      jump\t// in\n    tag_70:\n      mload(0x40)\n      tag_72\n      swap2\n      swap1\n      tag_31\n      jump\t// in\n    tag_72:\n      mload(0x40)\n      dup1\n      swap2\n      sub\n      swap1\n      return\n        /* \"@openzeppelin/contracts/access/Ownable.sol\":1201:1286  function owner() public view virtual returns (address) {... */\n    tag_16:\n      tag_73\n      tag_74\n      jump\t// in\n    tag_73:\n      mload(0x40)\n      tag_75\n      swap2\n      swap1\n      tag_76\n      jump\t// in\n    tag_75:\n      mload(0x40)\n      dup1\n      swap2\n      sub\n      swap1\n      return\n        /* \"Defi/StakingPool.sol\":1701:2430  function stake(uint256 _amount) external nonReentrant {... */\n    tag_17:\n      tag_77\n      0x04\n      dup1\n      calldatasize\n      sub\n      dup2\n      add\n      swap1\n      tag_78\n      swap2\n      swap1\n      tag_47\n      jump\t// in\n    tag_78:\n      tag_79\n      jump\t// in\n    tag_77:\n      stop\n        /* \"Defi/StakingPool.sol\":2973:3366  function claimReward() external nonReentrant {... */\n    tag_18:\n      tag_80\n      tag_81\n      jump\t// in\n    tag_80:\n      stop\n        /* \"Defi/StakingPool.sol\":4292:4404  function setLockupPeriod(uint256 _lockupPeriod) external onlyOwner {... */\n    tag_19:\n      tag_82\n      0x04\n      dup1\n      calldatasize\n      sub\n      dup2\n      add\n      swap1\n      tag_83\n      swap2\n      swap1\n      tag_47\n      jump\t// in\n    tag_83:\n      tag_84\n      jump\t// in\n    tag_82:\n      stop\n        /* \"Defi/StakingPool.sol\":587:614  uint256 public lockupPeriod */\n    tag_20:\n      tag_85\n      tag_86\n      jump\t// in\n    tag_85:\n      mload(0x40)\n      tag_87\n      swap2\n      swap1\n      tag_31\n      jump\t// in\n    tag_87:\n      mload(0x40)\n      dup1\n      swap2\n      sub\n      swap1\n      return\n        /* \"@openzeppelin/contracts/access/Ownable.sol\":2081:2279  function transferOwnership(address newOwner) public virtual onlyOwner {... */\n    tag_21:\n      tag_88\n      0x04\n      dup1\n      calldatasize\n      sub\n      dup2\n      add\n      swap1\n      tag_89\n      swap2\n      swap1\n      tag_34\n      jump\t// in\n    tag_89:\n      tag_90\n      jump\t// in\n    tag_88:\n      stop\n        /* \"Defi/StakingPool.sol\":442:467  IERC20 public rewardToken */\n    tag_22:\n      tag_91\n      tag_92\n      jump\t// in\n    tag_91:\n      mload(0x40)\n      tag_93\n      swap2\n      swap1\n      tag_94\n      jump\t// in\n    tag_93:\n      mload(0x40)\n      dup1\n      swap2\n      sub\n      swap1\n      return\n        /* \"Defi/StakingPool.sol\":377:396  IERC20 public token */\n    tag_23:\n      tag_95\n      tag_96\n      jump\t// in\n    tag_95:\n      mload(0x40)\n      tag_97\n      swap2\n      swap1\n      tag_94\n      jump\t// in\n    tag_97:\n      mload(0x40)\n      dup1\n      swap2\n      sub\n      swap1\n      return\n        /* \"Defi/StakingPool.sol\":4444:4564  function setRewardRateInit(uint256 _rewardRateInit) external onlyOwner {... */\n    tag_24:\n      tag_98\n      0x04\n      dup1\n      calldatasize\n      sub\n      dup2\n      add\n      swap1\n      tag_99\n      swap2\n      swap1\n      tag_47\n      jump\t// in\n    tag_99:\n      tag_100\n      jump\t// in\n    tag_98:\n      stop\n        /* \"Defi/StakingPool.sol\":517:546  uint256 public rewardRateInit */\n    tag_29:\n      sload(0x04)\n      dup2\n      jump\t// out\n        /* \"Defi/StakingPool.sol\":912:960  mapping(address => uint256) public stakingReward */\n    tag_35:\n      mstore(0x20, 0x09)\n      dup1\n      0x00\n      mstore\n      keccak256(0x00, 0x40)\n      0x00\n      swap2\n      pop\n      swap1\n      pop\n      sload\n      dup2\n      jump\t// out\n        /* \"Defi/StakingPool.sol\":732:781  mapping(address => uint256) public stakingBalance */\n    tag_39:\n      mstore(0x20, 0x07)\n      dup1\n      0x00\n      mstore\n      keccak256(0x00, 0x40)\n      0x00\n      swap2\n      pop\n      swap1\n      pop\n      sload\n      dup2\n      jump\t// out\n        /* \"Defi/StakingPool.sol\":825:871  mapping(address => uint256) public stakingTime */\n    tag_43:\n      mstore(0x20, 0x08)\n      dup1\n      0x00\n      mstore\n      keccak256(0x00, 0x40)\n      0x00\n      swap2\n      pop\n      swap1\n      pop\n      sload\n      dup2\n      jump\t// out\n        /* \"Defi/StakingPool.sol\":2483:2947  function unStake(uint256 _amount) external nonReentrant {... */\n    tag_48:\n        /* \"@openzeppelin/contracts/security/ReentrancyGuard.sol\":2261:2282  _nonReentrantBefore() */\n      tag_102\n        /* \"@openzeppelin/contracts/security/ReentrancyGuard.sol\":2261:2280  _nonReentrantBefore */\n      tag_103\n        /* \"@openzeppelin/contracts/security/ReentrancyGuard.sol\":2261:2282  _nonReentrantBefore() */\n      jump\t// in\n    tag_102:\n        /* \"Defi/StakingPool.sol\":2596:2608  lockupPeriod */\n      sload(0x05)\n        /* \"Defi/StakingPool.sol\":2577:2593  stakingStartTime */\n      sload(0x06)\n        /* \"Defi/StakingPool.sol\":2577:2608  stakingStartTime + lockupPeriod */\n      tag_105\n      swap2\n      swap1\n      tag_106\n      jump\t// in\n    tag_105:\n        /* \"Defi/StakingPool.sol\":2557:2572  block.timestamp */\n      timestamp\n        /* \"Defi/StakingPool.sol\":2557:2609  block.timestamp >= (stakingStartTime + lockupPeriod) */\n      lt\n      iszero\n        /* \"Defi/StakingPool.sol\":2549:2620  require(block.timestamp >= (stakingStartTime + lockupPeriod), \"Locked\") */\n      tag_107\n      jumpi\n      mload(0x40)\n      0x08c379a000000000000000000000000000000000000000000000000000000000\n      dup2\n      mstore\n      0x04\n      add\n      tag_108\n      swap1\n      tag_109\n      jump\t// in\n    tag_108:\n      mload(0x40)\n      dup1\n      swap2\n      sub\n      swap1\n      revert\n    tag_107:\n        /* \"Defi/StakingPool.sol\":2668:2675  _amount */\n      dup1\n        /* \"Defi/StakingPool.sol\":2638:2652  stakingBalance */\n      0x07\n        /* \"Defi/StakingPool.sol\":2638:2664  stakingBalance[msg.sender] */\n      0x00\n        /* \"Defi/StakingPool.sol\":2653:2663  msg.sender */\n      caller\n        /* \"Defi/StakingPool.sol\":2638:2664  stakingBalance[msg.sender] */\n      0xffffffffffffffffffffffffffffffffffffffff\n      and\n      0xffffffffffffffffffffffffffffffffffffffff\n      and\n      dup2\n      mstore\n      0x20\n      add\n      swap1\n      dup2\n      mstore\n      0x20\n      add\n      0x00\n      keccak256\n      sload\n        /* \"Defi/StakingPool.sol\":2638:2675  stakingBalance[msg.sender] >= _amount */\n      lt\n      iszero\n        /* \"Defi/StakingPool.sol\":2630:2700  require(stakingBalance[msg.sender] >= _amount, \"Insufficient balance\") */\n      tag_110\n      jumpi\n      mload(0x40)\n      0x08c379a000000000000000000000000000000000000000000000000000000000\n      dup2\n      mstore\n      0x04\n      add\n      tag_111\n      swap1\n      tag_112\n      jump\t// in\n    tag_111:\n      mload(0x40)\n      dup1\n      swap2\n      sub\n      swap1\n      revert\n    tag_110:\n        /* \"Defi/StakingPool.sol\":2718:2723  token */\n      0x02\n      0x00\n      swap1\n      sload\n      swap1\n      0x0100\n      exp\n      swap1\n      div\n      0xffffffffffffffffffffffffffffffffffffffff\n      and\n        /* \"Defi/StakingPool.sol\":2718:2732  token.transfer */\n      0xffffffffffffffffffffffffffffffffffffffff\n      and\n      0xa9059cbb\n        /* \"Defi/StakingPool.sol\":2733:2743  msg.sender */\n      caller\n        /* \"Defi/StakingPool.sol\":2745:2752  _amount */\n      dup4\n        /* \"Defi/StakingPool.sol\":2718:2753  token.transfer(msg.sender, _amount) */\n      mload(0x40)\n      dup4\n      0xffffffff\n      and\n      0xe0\n      shl\n      dup2\n      mstore\n      0x04\n      add\n      tag_113\n      swap3\n      swap2\n      swap1\n      tag_114\n      jump\t// in\n    tag_113:\n      0x20\n      mload(0x40)\n      dup1\n      dup4\n      sub\n      dup2\n      0x00\n      dup8\n      dup1\n      extcodesize\n      iszero\n      dup1\n      iszero\n      tag_115\n      jumpi\n      0x00\n      dup1\n      revert\n    tag_115:\n      pop\n      gas\n      call\n      iszero\n      dup1\n      iszero\n      tag_117\n      jumpi\n      returndatasize\n      0x00\n      dup1\n      returndatacopy\n      revert(0x00, returndatasize)\n    tag_117:\n      pop\n      pop\n      pop\n      pop\n      mload(0x40)\n      returndatasize\n      not(0x1f)\n      0x1f\n      dup3\n      add\n      and\n      dup3\n      add\n      dup1\n      0x40\n      mstore\n      pop\n      dup2\n      add\n      swap1\n      tag_118\n      swap2\n      swap1\n      tag_119\n      jump\t// in\n    tag_118:\n        /* \"Defi/StakingPool.sol\":2710:2773  require(token.transfer(msg.sender, _amount), \"Transfer failed\") */\n      tag_120\n      jumpi\n      mload(0x40)\n      0x08c379a000000000000000000000000000000000000000000000000000000000\n      dup2\n      mstore\n      0x04\n      add\n      tag_121\n      swap1\n      tag_122\n      jump\t// in\n    tag_121:\n      mload(0x40)\n      dup1\n      swap2\n      sub\n      swap1\n      revert\n    tag_120:\n        /* \"Defi/StakingPool.sol\":2812:2851  stakingBalance[msg.sender].sub(_amount) */\n      tag_123\n        /* \"Defi/StakingPool.sol\":2843:2850  _amount */\n      dup2\n        /* \"Defi/StakingPool.sol\":2812:2826  stakingBalance */\n      0x07\n        /* \"Defi/StakingPool.sol\":2812:2838  stakingBalance[msg.sender] */\n      0x00\n        /* \"Defi/StakingPool.sol\":2827:2837  msg.sender */\n      caller\n        /* \"Defi/StakingPool.sol\":2812:2838  stakingBalance[msg.sender] */\n      0xffffffffffffffffffffffffffffffffffffffff\n      and\n      0xffffffffffffffffffffffffffffffffffffffff\n      and\n      dup2\n      mstore\n      0x20\n      add\n      swap1\n      dup2\n      mstore\n      0x20\n      add\n      0x00\n      keccak256\n      sload\n        /* \"Defi/StakingPool.sol\":2812:2842  stakingBalance[msg.sender].sub */\n      tag_124\n      swap1\n        /* \"Defi/StakingPool.sol\":2812:2851  stakingBalance[msg.sender].sub(_amount) */\n      swap2\n      swap1\n      0xffffffff\n      and\n      jump\t// in\n    tag_123:\n        /* \"Defi/StakingPool.sol\":2783:2797  stakingBalance */\n      0x07\n        /* \"Defi/StakingPool.sol\":2783:2809  stakingBalance[msg.sender] */\n      0x00\n        /* \"Defi/StakingPool.sol\":2798:2808  msg.sender */\n      caller\n        /* \"Defi/StakingPool.sol\":2783:2809  stakingBalance[msg.sender] */\n      0xffffffffffffffffffffffffffffffffffffffff\n      and\n      0xffffffffffffffffffffffffffffffffffffffff\n      and\n      dup2\n      mstore\n      0x20\n      add\n      swap1\n      dup2\n      mstore\n      0x20\n      add\n      0x00\n      keccak256\n        /* \"Defi/StakingPool.sol\":2783:2851  stakingBalance[msg.sender] = stakingBalance[msg.sender].sub(_amount) */\n      dup2\n      swap1\n      sstore\n      pop\n        /* \"Defi/StakingPool.sol\":2874:2897  totalStake.sub(_amount) */\n      tag_125\n        /* \"Defi/StakingPool.sol\":2889:2896  _amount */\n      dup2\n        /* \"Defi/StakingPool.sol\":2874:2884  totalStake */\n      sload(0x0a)\n        /* \"Defi/StakingPool.sol\":2874:2888  totalStake.sub */\n      tag_124\n      swap1\n        /* \"Defi/StakingPool.sol\":2874:2897  totalStake.sub(_amount) */\n      swap2\n      swap1\n      0xffffffff\n      and\n      jump\t// in\n    tag_125:\n        /* \"Defi/StakingPool.sol\":2861:2871  totalStake */\n      0x0a\n        /* \"Defi/StakingPool.sol\":2861:2897  totalStake = totalStake.sub(_amount) */\n      dup2\n      swap1\n      sstore\n      pop\n        /* \"Defi/StakingPool.sol\":2920:2930  msg.sender */\n      caller\n        /* \"Defi/StakingPool.sol\":2912:2940  UnStake(msg.sender, _amount) */\n      0xffffffffffffffffffffffffffffffffffffffff\n      and\n      0xb24546d975e2628748efc9aced80665e0fad66272033e5c0ea25fd3afac99795\n        /* \"Defi/StakingPool.sol\":2932:2939  _amount */\n      dup3\n        /* \"Defi/StakingPool.sol\":2912:2940  UnStake(msg.sender, _amount) */\n      mload(0x40)\n      tag_126\n      swap2\n      swap1\n      tag_31\n      jump\t// in\n    tag_126:\n      mload(0x40)\n      dup1\n      swap2\n      sub\n      swap1\n      log2\n        /* \"@openzeppelin/contracts/security/ReentrancyGuard.sol\":2303:2323  _nonReentrantAfter() */\n      tag_127\n        /* \"@openzeppelin/contracts/security/ReentrancyGuard.sol\":2303:2321  _nonReentrantAfter */\n      tag_128\n        /* \"@openzeppelin/contracts/security/ReentrancyGuard.sol\":2303:2323  _nonReentrantAfter() */\n      jump\t// in\n    tag_127:\n        /* \"Defi/StakingPool.sol\":2483:2947  function unStake(uint256 _amount) external nonReentrant {... */\n      pop\n      jump\t// out\n        /* \"Defi/StakingPool.sol\":4118:4246  function setStakingStartTime(uint256 _stakingStartTime) external onlyOwner {... */\n    tag_51:\n        /* \"@openzeppelin/contracts/access/Ownable.sol\":1094:1107  _checkOwner() */\n      tag_130\n        /* \"@openzeppelin/contracts/access/Ownable.sol\":1094:1105  _checkOwner */\n      tag_131\n        /* \"@openzeppelin/contracts/access/Ownable.sol\":1094:1107  _checkOwner() */\n      jump\t// in\n    tag_130:\n        /* \"Defi/StakingPool.sol\":4222:4239  _stakingStartTime */\n      dup1\n        /* \"Defi/StakingPool.sol\":4203:4219  stakingStartTime */\n      0x06\n        /* \"Defi/StakingPool.sol\":4203:4239  stakingStartTime = _stakingStartTime */\n      dup2\n      swap1\n      sstore\n      pop\n        /* \"Defi/StakingPool.sol\":4118:4246  function setStakingStartTime(uint256 _stakingStartTime) external onlyOwner {... */\n      pop\n      jump\t// out\n        /* \"Defi/StakingPool.sol\":661:692  uint256 public stakingStartTime */\n    tag_53:\n      sload(0x06)\n      dup2\n      jump\t// out\n        /* \"Defi/StakingPool.sol\":4600:4716  function balanceOf(address _address) external view returns (uint256){... */\n    tag_57:\n        /* \"Defi/StakingPool.sol\":4660:4667  uint256 */\n      0x00\n        /* \"Defi/StakingPool.sol\":4685:4699  stakingBalance */\n      0x07\n        /* \"Defi/StakingPool.sol\":4685:4709  stakingBalance[_address] */\n      0x00\n        /* \"Defi/StakingPool.sol\":4700:4708  _address */\n      dup4\n        /* \"Defi/StakingPool.sol\":4685:4709  stakingBalance[_address] */\n      0xffffffffffffffffffffffffffffffffffffffff\n      and\n      0xffffffffffffffffffffffffffffffffffffffff\n      and\n      dup2\n      mstore\n      0x20\n      add\n      swap1\n      dup2\n      mstore\n      0x20\n      add\n      0x00\n      keccak256\n      sload\n        /* \"Defi/StakingPool.sol\":4678:4709  return stakingBalance[_address] */\n      swap1\n      pop\n        /* \"Defi/StakingPool.sol\":4600:4716  function balanceOf(address _address) external view returns (uint256){... */\n      swap2\n      swap1\n      pop\n      jump\t// out\n        /* \"@openzeppelin/contracts/access/Ownable.sol\":1831:1932  function renounceOwnership() public virtual onlyOwner {... */\n    tag_60:\n        /* \"@openzeppelin/contracts/access/Ownable.sol\":1094:1107  _checkOwner() */\n      tag_135\n        /* \"@openzeppelin/contracts/access/Ownable.sol\":1094:1105  _checkOwner */\n      tag_131\n        /* \"@openzeppelin/contracts/access/Ownable.sol\":1094:1107  _checkOwner() */\n      jump\t// in\n    tag_135:\n        /* \"@openzeppelin/contracts/access/Ownable.sol\":1895:1925  _transferOwnership(address(0)) */\n      tag_137\n        /* \"@openzeppelin/contracts/access/Ownable.sol\":1922:1923  0 */\n      0x00\n        /* \"@openzeppelin/contracts/access/Ownable.sol\":1895:1913  _transferOwnership */\n      tag_138\n        /* \"@openzeppelin/contracts/access/Ownable.sol\":1895:1925  _transferOwnership(address(0)) */\n      jump\t// in\n    tag_137:\n        /* \"@openzeppelin/contracts/access/Ownable.sol\":1831:1932  function renounceOwnership() public virtual onlyOwner {... */\n      jump\t// out\n        /* \"Defi/StakingPool.sol\":1072:1098  uint256 public totalReward */\n    tag_62:\n      sload(0x0b)\n      dup2\n      jump\t// out\n        /* \"Defi/StakingPool.sol\":1130:1160  uint256 public dayTime = 86400 */\n    tag_65:\n      sload(0x0c)\n      dup2\n      jump\t// out\n        /* \"Defi/StakingPool.sol\":3958:4074  function setRewardToken(address _rewardToken) external onlyOwner {... */\n    tag_69:\n        /* \"@openzeppelin/contracts/access/Ownable.sol\":1094:1107  _checkOwner() */\n      tag_140\n        /* \"@openzeppelin/contracts/access/Ownable.sol\":1094:1105  _checkOwner */\n      tag_131\n        /* \"@openzeppelin/contracts/access/Ownable.sol\":1094:1107  _checkOwner() */\n      jump\t// in\n    tag_140:\n        /* \"Defi/StakingPool.sol\":4054:4066  _rewardToken */\n      dup1\n        /* \"Defi/StakingPool.sol\":4033:4044  rewardToken */\n      0x03\n      0x00\n        /* \"Defi/StakingPool.sol\":4033:4067  rewardToken = IERC20(_rewardToken) */\n      0x0100\n      exp\n      dup2\n      sload\n      dup2\n      0xffffffffffffffffffffffffffffffffffffffff\n      mul\n      not\n      and\n      swap1\n      dup4\n      0xffffffffffffffffffffffffffffffffffffffff\n      and\n      mul\n      or\n      swap1\n      sstore\n      pop\n        /* \"Defi/StakingPool.sol\":3958:4074  function setRewardToken(address _rewardToken) external onlyOwner {... */\n      pop\n      jump\t// out\n        /* \"Defi/StakingPool.sol\":1012:1037  uint256 public totalStake */\n    tag_71:\n      sload(0x0a)\n      dup2\n      jump\t// out\n        /* \"@openzeppelin/contracts/access/Ownable.sol\":1201:1286  function owner() public view virtual returns (address) {... */\n    tag_74:\n        /* \"@openzeppelin/contracts/access/Ownable.sol\":1247:1254  address */\n      0x00\n        /* \"@openzeppelin/contracts/access/Ownable.sol\":1273:1279  _owner */\n      dup1\n      0x00\n      swap1\n      sload\n      swap1\n      0x0100\n      exp\n      swap1\n      div\n      0xffffffffffffffffffffffffffffffffffffffff\n      and\n        /* \"@openzeppelin/contracts/access/Ownable.sol\":1266:1279  return _owner */\n      swap1\n      pop\n        /* \"@openzeppelin/contracts/access/Ownable.sol\":1201:1286  function owner() public view virtual returns (address) {... */\n      swap1\n      jump\t// out\n        /* \"Defi/StakingPool.sol\":1701:2430  function stake(uint256 _amount) external nonReentrant {... */\n    tag_79:\n        /* \"@openzeppelin/contracts/security/ReentrancyGuard.sol\":2261:2282  _nonReentrantBefore() */\n      tag_144\n        /* \"@openzeppelin/contracts/security/ReentrancyGuard.sol\":2261:2280  _nonReentrantBefore */\n      tag_103\n        /* \"@openzeppelin/contracts/security/ReentrancyGuard.sol\":2261:2282  _nonReentrantBefore() */\n      jump\t// in\n    tag_144:\n        /* \"Defi/StakingPool.sol\":1810:1822  lockupPeriod */\n      sload(0x05)\n        /* \"Defi/StakingPool.sol\":1791:1807  stakingStartTime */\n      sload(0x06)\n        /* \"Defi/StakingPool.sol\":1791:1822  stakingStartTime + lockupPeriod */\n      tag_146\n      swap2\n      swap1\n      tag_106\n      jump\t// in\n    tag_146:\n        /* \"Defi/StakingPool.sol\":1773:1788  block.timestamp */\n      timestamp\n        /* \"Defi/StakingPool.sol\":1773:1822  block.timestamp < stakingStartTime + lockupPeriod */\n      lt\n        /* \"Defi/StakingPool.sol\":1765:1865  require(block.timestamp < stakingStartTime + lockupPeriod, \"The current staking activity has ended\") */\n      tag_147\n      jumpi\n      mload(0x40)\n      0x08c379a000000000000000000000000000000000000000000000000000000000\n      dup2\n      mstore\n      0x04\n      add\n      tag_148\n      swap1\n      tag_149\n      jump\t// in\n    tag_148:\n      mload(0x40)\n      dup1\n      swap2\n      sub\n      swap1\n      revert\n    tag_147:\n        /* \"Defi/StakingPool.sol\":1893:1894  0 */\n      0x00\n        /* \"Defi/StakingPool.sol\":1883:1890  _amount */\n      dup2\n        /* \"Defi/StakingPool.sol\":1883:1894  _amount > 0 */\n      gt\n        /* \"Defi/StakingPool.sol\":1875:1930  require(_amount > 0, \"Amount should greater than zero\") */\n      tag_150\n      jumpi\n      mload(0x40)\n      0x08c379a000000000000000000000000000000000000000000000000000000000\n      dup2\n      mstore\n      0x04\n      add\n      tag_151\n      swap1\n      tag_152\n      jump\t// in\n    tag_151:\n      mload(0x40)\n      dup1\n      swap2\n      sub\n      swap1\n      revert\n    tag_150:\n        /* \"Defi/StakingPool.sol\":1948:1953  token */\n      0x02\n      0x00\n      swap1\n      sload\n      swap1\n      0x0100\n      exp\n      swap1\n      div\n      0xffffffffffffffffffffffffffffffffffffffff\n      and\n        /* \"Defi/StakingPool.sol\":1948:1966  token.transferFrom */\n      0xffffffffffffffffffffffffffffffffffffffff\n      and\n      0x23b872dd\n        /* \"Defi/StakingPool.sol\":1967:1977  msg.sender */\n      caller\n        /* \"Defi/StakingPool.sol\":1987:1991  this */\n      address\n        /* \"Defi/StakingPool.sol\":1994:2001  _amount */\n      dup5\n        /* \"Defi/StakingPool.sol\":1948:2002  token.transferFrom(msg.sender, address(this), _amount) */\n      mload(0x40)\n      dup5\n      0xffffffff\n      and\n      0xe0\n      shl\n      dup2\n      mstore\n      0x04\n      add\n      tag_153\n      swap4\n      swap3\n      swap2\n      swap1\n      tag_154\n      jump\t// in\n    tag_153:\n      0x20\n      mload(0x40)\n      dup1\n      dup4\n      sub\n      dup2\n      0x00\n      dup8\n      dup1\n      extcodesize\n      iszero\n      dup1\n      iszero\n      tag_155\n      jumpi\n      0x00\n      dup1\n      revert\n    tag_155:\n      pop\n      gas\n      call\n      iszero\n      dup1\n      iszero\n      tag_157\n      jumpi\n      returndatasize\n      0x00\n      dup1\n      returndatacopy\n      revert(0x00, returndatasize)\n    tag_157:\n      pop\n      pop\n      pop\n      pop\n      mload(0x40)\n      returndatasize\n      not(0x1f)\n      0x1f\n      dup3\n      add\n      and\n      dup3\n      add\n      dup1\n      0x40\n      mstore\n      pop\n      dup2\n      add\n      swap1\n      tag_158\n      swap2\n      swap1\n      tag_119\n      jump\t// in\n    tag_158:\n        /* \"Defi/StakingPool.sol\":1940:2022  require(token.transferFrom(msg.sender, address(this), _amount), \"Transfer failed\") */\n      tag_159\n      jumpi\n      mload(0x40)\n      0x08c379a000000000000000000000000000000000000000000000000000000000\n      dup2\n      mstore\n      0x04\n      add\n      tag_160\n      swap1\n      tag_122\n      jump\t// in\n    tag_160:\n      mload(0x40)\n      dup1\n      swap2\n      sub\n      swap1\n      revert\n    tag_159:\n        /* \"Defi/StakingPool.sol\":2061:2100  stakingBalance[msg.sender].add(_amount) */\n      tag_161\n        /* \"Defi/StakingPool.sol\":2092:2099  _amount */\n      dup2\n        /* \"Defi/StakingPool.sol\":2061:2075  stakingBalance */\n      0x07\n        /* \"Defi/StakingPool.sol\":2061:2087  stakingBalance[msg.sender] */\n      0x00\n        /* \"Defi/StakingPool.sol\":2076:2086  msg.sender */\n      caller\n        /* \"Defi/StakingPool.sol\":2061:2087  stakingBalance[msg.sender] */\n      0xffffffffffffffffffffffffffffffffffffffff\n      and\n      0xffffffffffffffffffffffffffffffffffffffff\n      and\n      dup2\n      mstore\n      0x20\n      add\n      swap1\n      dup2\n      mstore\n      0x20\n      add\n      0x00\n      keccak256\n      sload\n        /* \"Defi/StakingPool.sol\":2061:2091  stakingBalance[msg.sender].add */\n      tag_162\n      swap1\n        /* \"Defi/StakingPool.sol\":2061:2100  stakingBalance[msg.sender].add(_amount) */\n      swap2\n      swap1\n      0xffffffff\n      and\n      jump\t// in\n    tag_161:\n        /* \"Defi/StakingPool.sol\":2032:2046  stakingBalance */\n      0x07\n        /* \"Defi/StakingPool.sol\":2032:2058  stakingBalance[msg.sender] */\n      0x00\n        /* \"Defi/StakingPool.sol\":2047:2057  msg.sender */\n      caller\n        /* \"Defi/StakingPool.sol\":2032:2058  stakingBalance[msg.sender] */\n      0xffffffffffffffffffffffffffffffffffffffff\n      and\n      0xffffffffffffffffffffffffffffffffffffffff\n      and\n      dup2\n      mstore\n      0x20\n      add\n      swap1\n      dup2\n      mstore\n      0x20\n      add\n      0x00\n      keccak256\n        /* \"Defi/StakingPool.sol\":2032:2100  stakingBalance[msg.sender] = stakingBalance[msg.sender].add(_amount) */\n      dup2\n      swap1\n      sstore\n      pop\n        /* \"Defi/StakingPool.sol\":2136:2151  block.timestamp */\n      timestamp\n        /* \"Defi/StakingPool.sol\":2110:2121  stakingTime */\n      0x08\n        /* \"Defi/StakingPool.sol\":2110:2133  stakingTime[msg.sender] */\n      0x00\n        /* \"Defi/StakingPool.sol\":2122:2132  msg.sender */\n      caller\n        /* \"Defi/StakingPool.sol\":2110:2133  stakingTime[msg.sender] */\n      0xffffffffffffffffffffffffffffffffffffffff\n      and\n      0xffffffffffffffffffffffffffffffffffffffff\n      and\n      dup2\n      mstore\n      0x20\n      add\n      swap1\n      dup2\n      mstore\n      0x20\n      add\n      0x00\n      keccak256\n        /* \"Defi/StakingPool.sol\":2110:2151  stakingTime[msg.sender] = block.timestamp */\n      dup2\n      swap1\n      sstore\n      pop\n        /* \"Defi/StakingPool.sol\":2161:2175  uint256 reward */\n      0x00\n        /* \"Defi/StakingPool.sol\":2178:2214  getRewardForUser(msg.sender,_amount) */\n      tag_163\n        /* \"Defi/StakingPool.sol\":2195:2205  msg.sender */\n      caller\n        /* \"Defi/StakingPool.sol\":2206:2213  _amount */\n      dup4\n        /* \"Defi/StakingPool.sol\":2178:2194  getRewardForUser */\n      tag_164\n        /* \"Defi/StakingPool.sol\":2178:2214  getRewardForUser(msg.sender,_amount) */\n      jump\t// in\n    tag_163:\n        /* \"Defi/StakingPool.sol\":2161:2214  uint256 reward = getRewardForUser(msg.sender,_amount) */\n      swap1\n      pop\n        /* \"Defi/StakingPool.sol\":2252:2289  stakingReward[msg.sender].add(reward) */\n      tag_165\n        /* \"Defi/StakingPool.sol\":2282:2288  reward */\n      dup2\n        /* \"Defi/StakingPool.sol\":2252:2265  stakingReward */\n      0x09\n        /* \"Defi/StakingPool.sol\":2252:2277  stakingReward[msg.sender] */\n      0x00\n        /* \"Defi/StakingPool.sol\":2266:2276  msg.sender */\n      caller\n        /* \"Defi/StakingPool.sol\":2252:2277  stakingReward[msg.sender] */\n      0xffffffffffffffffffffffffffffffffffffffff\n      and\n      0xffffffffffffffffffffffffffffffffffffffff\n      and\n      dup2\n      mstore\n      0x20\n      add\n      swap1\n      dup2\n      mstore\n      0x20\n      add\n      0x00\n      keccak256\n      sload\n        /* \"Defi/StakingPool.sol\":2252:2281  stakingReward[msg.sender].add */\n      tag_162\n      swap1\n        /* \"Defi/StakingPool.sol\":2252:2289  stakingReward[msg.sender].add(reward) */\n      swap2\n      swap1\n      0xffffffff\n      and\n      jump\t// in\n    tag_165:\n        /* \"Defi/StakingPool.sol\":2224:2237  stakingReward */\n      0x09\n        /* \"Defi/StakingPool.sol\":2224:2249  stakingReward[msg.sender] */\n      0x00\n        /* \"Defi/StakingPool.sol\":2238:2248  msg.sender */\n      caller\n        /* \"Defi/StakingPool.sol\":2224:2249  stakingReward[msg.sender] */\n      0xffffffffffffffffffffffffffffffffffffffff\n      and\n      0xffffffffffffffffffffffffffffffffffffffff\n      and\n      dup2\n      mstore\n      0x20\n      add\n      swap1\n      dup2\n      mstore\n      0x20\n      add\n      0x00\n      keccak256\n        /* \"Defi/StakingPool.sol\":2224:2289  stakingReward[msg.sender] = stakingReward[msg.sender].add(reward) */\n      dup2\n      swap1\n      sstore\n      pop\n        /* \"Defi/StakingPool.sol\":2312:2335  totalStake.add(_amount) */\n      tag_166\n        /* \"Defi/StakingPool.sol\":2327:2334  _amount */\n      dup3\n        /* \"Defi/StakingPool.sol\":2312:2322  totalStake */\n      sload(0x0a)\n        /* \"Defi/StakingPool.sol\":2312:2326  totalStake.add */\n      tag_162\n      swap1\n        /* \"Defi/StakingPool.sol\":2312:2335  totalStake.add(_amount) */\n      swap2\n      swap1\n      0xffffffff\n      and\n      jump\t// in\n    tag_166:\n        /* \"Defi/StakingPool.sol\":2299:2309  totalStake */\n      0x0a\n        /* \"Defi/StakingPool.sol\":2299:2335  totalStake = totalStake.add(_amount) */\n      dup2\n      swap1\n      sstore\n      pop\n        /* \"Defi/StakingPool.sol\":2359:2382  totalReward.add(reward) */\n      tag_167\n        /* \"Defi/StakingPool.sol\":2375:2381  reward */\n      dup2\n        /* \"Defi/StakingPool.sol\":2359:2370  totalReward */\n      sload(0x0b)\n        /* \"Defi/StakingPool.sol\":2359:2374  totalReward.add */\n      tag_162\n      swap1\n        /* \"Defi/StakingPool.sol\":2359:2382  totalReward.add(reward) */\n      swap2\n      swap1\n      0xffffffff\n      and\n      jump\t// in\n    tag_167:\n        /* \"Defi/StakingPool.sol\":2345:2356  totalReward */\n      0x0b\n        /* \"Defi/StakingPool.sol\":2345:2382  totalReward = totalReward.add(reward) */\n      dup2\n      swap1\n      sstore\n      pop\n        /* \"Defi/StakingPool.sol\":2403:2413  msg.sender */\n      caller\n        /* \"Defi/StakingPool.sol\":2397:2423  Stake(msg.sender, _amount) */\n      0xffffffffffffffffffffffffffffffffffffffff\n      and\n      0xebedb8b3c678666e7f36970bc8f57abf6d8fa2e828c0da91ea5b75bf68ed101a\n        /* \"Defi/StakingPool.sol\":2415:2422  _amount */\n      dup4\n        /* \"Defi/StakingPool.sol\":2397:2423  Stake(msg.sender, _amount) */\n      mload(0x40)\n      tag_168\n      swap2\n      swap1\n      tag_31\n      jump\t// in\n    tag_168:\n      mload(0x40)\n      dup1\n      swap2\n      sub\n      swap1\n      log2\n        /* \"@openzeppelin/contracts/security/ReentrancyGuard.sol\":2292:2293  _ */\n      pop\n        /* \"@openzeppelin/contracts/security/ReentrancyGuard.sol\":2303:2323  _nonReentrantAfter() */\n      tag_169\n        /* \"@openzeppelin/contracts/security/ReentrancyGuard.sol\":2303:2321  _nonReentrantAfter */\n      tag_128\n        /* \"@openzeppelin/contracts/security/ReentrancyGuard.sol\":2303:2323  _nonReentrantAfter() */\n      jump\t// in\n    tag_169:\n        /* \"Defi/StakingPool.sol\":1701:2430  function stake(uint256 _amount) external nonReentrant {... */\n      pop\n      jump\t// out\n        /* \"Defi/StakingPool.sol\":2973:3366  function claimReward() external nonReentrant {... */\n    tag_81:\n        /* \"@openzeppelin/contracts/security/ReentrancyGuard.sol\":2261:2282  _nonReentrantBefore() */\n      tag_171\n        /* \"@openzeppelin/contracts/security/ReentrancyGuard.sol\":2261:2280  _nonReentrantBefore */\n      tag_103\n        /* \"@openzeppelin/contracts/security/ReentrancyGuard.sol\":2261:2282  _nonReentrantBefore() */\n      jump\t// in\n    tag_171:\n        /* \"Defi/StakingPool.sol\":3075:3087  lockupPeriod */\n      sload(0x05)\n        /* \"Defi/StakingPool.sol\":3056:3072  stakingStartTime */\n      sload(0x06)\n        /* \"Defi/StakingPool.sol\":3056:3087  stakingStartTime + lockupPeriod */\n      tag_173\n      swap2\n      swap1\n      tag_106\n      jump\t// in\n    tag_173:\n        /* \"Defi/StakingPool.sol\":3036:3051  block.timestamp */\n      timestamp\n        /* \"Defi/StakingPool.sol\":3036:3088  block.timestamp >= (stakingStartTime + lockupPeriod) */\n      lt\n      iszero\n        /* \"Defi/StakingPool.sol\":3028:3099  require(block.timestamp >= (stakingStartTime + lockupPeriod), \"Locked\") */\n      tag_174\n      jumpi\n      mload(0x40)\n      0x08c379a000000000000000000000000000000000000000000000000000000000\n      dup2\n      mstore\n      0x04\n      add\n      tag_175\n      swap1\n      tag_109\n      jump\t// in\n    tag_175:\n      mload(0x40)\n      dup1\n      swap2\n      sub\n      swap1\n      revert\n    tag_174:\n        /* \"Defi/StakingPool.sol\":3109:3123  uint256 reward */\n      0x00\n        /* \"Defi/StakingPool.sol\":3126:3139  stakingReward */\n      0x09\n        /* \"Defi/StakingPool.sol\":3126:3151  stakingReward[msg.sender] */\n      0x00\n        /* \"Defi/StakingPool.sol\":3140:3150  msg.sender */\n      caller\n        /* \"Defi/StakingPool.sol\":3126:3151  stakingReward[msg.sender] */\n      0xffffffffffffffffffffffffffffffffffffffff\n      and\n      0xffffffffffffffffffffffffffffffffffffffff\n      and\n      dup2\n      mstore\n      0x20\n      add\n      swap1\n      dup2\n      mstore\n      0x20\n      add\n      0x00\n      keccak256\n      sload\n        /* \"Defi/StakingPool.sol\":3109:3151  uint256 reward = stakingReward[msg.sender] */\n      swap1\n      pop\n        /* \"Defi/StakingPool.sol\":3169:3180  rewardToken */\n      0x03\n      0x00\n      swap1\n      sload\n      swap1\n      0x0100\n      exp\n      swap1\n      div\n      0xffffffffffffffffffffffffffffffffffffffff\n      and\n        /* \"Defi/StakingPool.sol\":3169:3189  rewardToken.transfer */\n      0xffffffffffffffffffffffffffffffffffffffff\n      and\n      0xa9059cbb\n        /* \"Defi/StakingPool.sol\":3190:3200  msg.sender */\n      caller\n        /* \"Defi/StakingPool.sol\":3202:3208  reward */\n      dup4\n        /* \"Defi/StakingPool.sol\":3169:3209  rewardToken.transfer(msg.sender, reward) */\n      mload(0x40)\n      dup4\n      0xffffffff\n      and\n      0xe0\n      shl\n      dup2\n      mstore\n      0x04\n      add\n      tag_176\n      swap3\n      swap2\n      swap1\n      tag_114\n      jump\t// in\n    tag_176:\n      0x20\n      mload(0x40)\n      dup1\n      dup4\n      sub\n      dup2\n      0x00\n      dup8\n      dup1\n      extcodesize\n      iszero\n      dup1\n      iszero\n      tag_177\n      jumpi\n      0x00\n      dup1\n      revert\n    tag_177:\n      pop\n      gas\n      call\n      iszero\n      dup1\n      iszero\n      tag_179\n      jumpi\n      returndatasize\n      0x00\n      dup1\n      returndatacopy\n      revert(0x00, returndatasize)\n    tag_179:\n      pop\n      pop\n      pop\n      pop\n      mload(0x40)\n      returndatasize\n      not(0x1f)\n      0x1f\n      dup3\n      add\n      and\n      dup3\n      add\n      dup1\n      0x40\n      mstore\n      pop\n      dup2\n      add\n      swap1\n      tag_180\n      swap2\n      swap1\n      tag_119\n      jump\t// in\n    tag_180:\n        /* \"Defi/StakingPool.sol\":3161:3229  require(rewardToken.transfer(msg.sender, reward), \"Transfer failed\") */\n      tag_181\n      jumpi\n      mload(0x40)\n      0x08c379a000000000000000000000000000000000000000000000000000000000\n      dup2\n      mstore\n      0x04\n      add\n      tag_182\n      swap1\n      tag_122\n      jump\t// in\n    tag_182:\n      mload(0x40)\n      dup1\n      swap2\n      sub\n      swap1\n      revert\n    tag_181:\n        /* \"Defi/StakingPool.sol\":3265:3266  0 */\n      0x00\n        /* \"Defi/StakingPool.sol\":3239:3252  stakingReward */\n      0x09\n        /* \"Defi/StakingPool.sol\":3239:3264  stakingReward[msg.sender] */\n      0x00\n        /* \"Defi/StakingPool.sol\":3253:3263  msg.sender */\n      caller\n        /* \"Defi/StakingPool.sol\":3239:3264  stakingReward[msg.sender] */\n      0xffffffffffffffffffffffffffffffffffffffff\n      and\n      0xffffffffffffffffffffffffffffffffffffffff\n      and\n      dup2\n      mstore\n      0x20\n      add\n      swap1\n      dup2\n      mstore\n      0x20\n      add\n      0x00\n      keccak256\n        /* \"Defi/StakingPool.sol\":3239:3266  stakingReward[msg.sender]=0 */\n      dup2\n      swap1\n      sstore\n      pop\n        /* \"Defi/StakingPool.sol\":3290:3313  totalReward.sub(reward) */\n      tag_183\n        /* \"Defi/StakingPool.sol\":3306:3312  reward */\n      dup2\n        /* \"Defi/StakingPool.sol\":3290:3301  totalReward */\n      sload(0x0b)\n        /* \"Defi/StakingPool.sol\":3290:3305  totalReward.sub */\n      tag_124\n      swap1\n        /* \"Defi/StakingPool.sol\":3290:3313  totalReward.sub(reward) */\n      swap2\n      swap1\n      0xffffffff\n      and\n      jump\t// in\n    tag_183:\n        /* \"Defi/StakingPool.sol\":3276:3287  totalReward */\n      0x0b\n        /* \"Defi/StakingPool.sol\":3276:3313  totalReward = totalReward.sub(reward) */\n      dup2\n      swap1\n      sstore\n      pop\n        /* \"Defi/StakingPool.sol\":3340:3350  msg.sender */\n      caller\n        /* \"Defi/StakingPool.sol\":3328:3359  ClaimReward(msg.sender, reward) */\n      0xffffffffffffffffffffffffffffffffffffffff\n      and\n      0xba8de60c3403ec381d1d484652ea1980e3c3e56359195c92525bff4ce47ad98e\n        /* \"Defi/StakingPool.sol\":3352:3358  reward */\n      dup3\n        /* \"Defi/StakingPool.sol\":3328:3359  ClaimReward(msg.sender, reward) */\n      mload(0x40)\n      tag_184\n      swap2\n      swap1\n      tag_31\n      jump\t// in\n    tag_184:\n      mload(0x40)\n      dup1\n      swap2\n      sub\n      swap1\n      log2\n        /* \"@openzeppelin/contracts/security/ReentrancyGuard.sol\":2292:2293  _ */\n      pop\n        /* \"@openzeppelin/contracts/security/ReentrancyGuard.sol\":2303:2323  _nonReentrantAfter() */\n      tag_185\n        /* \"@openzeppelin/contracts/security/ReentrancyGuard.sol\":2303:2321  _nonReentrantAfter */\n      tag_128\n        /* \"@openzeppelin/contracts/security/ReentrancyGuard.sol\":2303:2323  _nonReentrantAfter() */\n      jump\t// in\n    tag_185:\n        /* \"Defi/StakingPool.sol\":2973:3366  function claimReward() external nonReentrant {... */\n      jump\t// out\n        /* \"Defi/StakingPool.sol\":4292:4404  function setLockupPeriod(uint256 _lockupPeriod) external onlyOwner {... */\n    tag_84:\n        /* \"@openzeppelin/contracts/access/Ownable.sol\":1094:1107  _checkOwner() */\n      tag_187\n        /* \"@openzeppelin/contracts/access/Ownable.sol\":1094:1105  _checkOwner */\n      tag_131\n        /* \"@openzeppelin/contracts/access/Ownable.sol\":1094:1107  _checkOwner() */\n      jump\t// in\n    tag_187:\n        /* \"Defi/StakingPool.sol\":4384:4397  _lockupPeriod */\n      dup1\n        /* \"Defi/StakingPool.sol\":4369:4381  lockupPeriod */\n      0x05\n        /* \"Defi/StakingPool.sol\":4369:4397  lockupPeriod = _lockupPeriod */\n      dup2\n      swap1\n      sstore\n      pop\n        /* \"Defi/StakingPool.sol\":4292:4404  function setLockupPeriod(uint256 _lockupPeriod) external onlyOwner {... */\n      pop\n      jump\t// out\n        /* \"Defi/StakingPool.sol\":587:614  uint256 public lockupPeriod */\n    tag_86:\n      sload(0x05)\n      dup2\n      jump\t// out\n        /* \"@openzeppelin/contracts/access/Ownable.sol\":2081:2279  function transferOwnership(address newOwner) public virtual onlyOwner {... */\n    tag_90:\n        /* \"@openzeppelin/contracts/access/Ownable.sol\":1094:1107  _checkOwner() */\n      tag_190\n        /* \"@openzeppelin/contracts/access/Ownable.sol\":1094:1105  _checkOwner */\n      tag_131\n        /* \"@openzeppelin/contracts/access/Ownable.sol\":1094:1107  _checkOwner() */\n      jump\t// in\n    tag_190:\n        /* \"@openzeppelin/contracts/access/Ownable.sol\":2189:2190  0 */\n      0x00\n        /* \"@openzeppelin/contracts/access/Ownable.sol\":2169:2191  newOwner != address(0) */\n      0xffffffffffffffffffffffffffffffffffffffff\n      and\n        /* \"@openzeppelin/contracts/access/Ownable.sol\":2169:2177  newOwner */\n      dup2\n        /* \"@openzeppelin/contracts/access/Ownable.sol\":2169:2191  newOwner != address(0) */\n      0xffffffffffffffffffffffffffffffffffffffff\n      and\n      eq\n      iszero\n        /* \"@openzeppelin/contracts/access/Ownable.sol\":2161:2234  require(newOwner != address(0), \"Ownable: new owner is the zero address\") */\n      tag_192\n      jumpi\n      mload(0x40)\n      0x08c379a000000000000000000000000000000000000000000000000000000000\n      dup2\n      mstore\n      0x04\n      add\n      tag_193\n      swap1\n      tag_194\n      jump\t// in\n    tag_193:\n      mload(0x40)\n      dup1\n      swap2\n      sub\n      swap1\n      revert\n    tag_192:\n        /* \"@openzeppelin/contracts/access/Ownable.sol\":2244:2272  _transferOwnership(newOwner) */\n      tag_195\n        /* \"@openzeppelin/contracts/access/Ownable.sol\":2263:2271  newOwner */\n      dup2\n        /* \"@openzeppelin/contracts/access/Ownable.sol\":2244:2262  _transferOwnership */\n      tag_138\n        /* \"@openzeppelin/contracts/access/Ownable.sol\":2244:2272  _transferOwnership(newOwner) */\n      jump\t// in\n    tag_195:\n        /* \"@openzeppelin/contracts/access/Ownable.sol\":2081:2279  function transferOwnership(address newOwner) public virtual onlyOwner {... */\n      pop\n      jump\t// out\n        /* \"Defi/StakingPool.sol\":442:467  IERC20 public rewardToken */\n    tag_92:\n      0x03\n      0x00\n      swap1\n      sload\n      swap1\n      0x0100\n      exp\n      swap1\n      div\n      0xffffffffffffffffffffffffffffffffffffffff\n      and\n      dup2\n      jump\t// out\n        /* \"Defi/StakingPool.sol\":377:396  IERC20 public token */\n    tag_96:\n      0x02\n      0x00\n      swap1\n      sload\n      swap1\n      0x0100\n      exp\n      swap1\n      div\n      0xffffffffffffffffffffffffffffffffffffffff\n      and\n      dup2\n      jump\t// out\n        /* \"Defi/StakingPool.sol\":4444:4564  function setRewardRateInit(uint256 _rewardRateInit) external onlyOwner {... */\n    tag_100:\n        /* \"@openzeppelin/contracts/access/Ownable.sol\":1094:1107  _checkOwner() */\n      tag_197\n        /* \"@openzeppelin/contracts/access/Ownable.sol\":1094:1105  _checkOwner */\n      tag_131\n        /* \"@openzeppelin/contracts/access/Ownable.sol\":1094:1107  _checkOwner() */\n      jump\t// in\n    tag_197:\n        /* \"Defi/StakingPool.sol\":4542:4557  _rewardRateInit */\n      dup1\n        /* \"Defi/StakingPool.sol\":4525:4539  rewardRateInit */\n      0x04\n        /* \"Defi/StakingPool.sol\":4525:4557  rewardRateInit = _rewardRateInit */\n      dup2\n      swap1\n      sstore\n      pop\n        /* \"Defi/StakingPool.sol\":4444:4564  function setRewardRateInit(uint256 _rewardRateInit) external onlyOwner {... */\n      pop\n      jump\t// out\n        /* \"@openzeppelin/contracts/security/ReentrancyGuard.sol\":2336:2623  function _nonReentrantBefore() private {... */\n    tag_103:\n        /* \"@openzeppelin/contracts/security/ReentrancyGuard.sol\":1759:1760  2 */\n      0x02\n        /* \"@openzeppelin/contracts/security/ReentrancyGuard.sol\":2468:2475  _status */\n      sload(0x01)\n        /* \"@openzeppelin/contracts/security/ReentrancyGuard.sol\":2468:2487  _status != _ENTERED */\n      eq\n      iszero\n        /* \"@openzeppelin/contracts/security/ReentrancyGuard.sol\":2460:2523  require(_status != _ENTERED, \"ReentrancyGuard: reentrant call\") */\n      tag_200\n      jumpi\n      mload(0x40)\n      0x08c379a000000000000000000000000000000000000000000000000000000000\n      dup2\n      mstore\n      0x04\n      add\n      tag_201\n      swap1\n      tag_202\n      jump\t// in\n    tag_201:\n      mload(0x40)\n      dup1\n      swap2\n      sub\n      swap1\n      revert\n    tag_200:\n        /* \"@openzeppelin/contracts/security/ReentrancyGuard.sol\":1759:1760  2 */\n      0x02\n        /* \"@openzeppelin/contracts/security/ReentrancyGuard.sol\":2598:2605  _status */\n      0x01\n        /* \"@openzeppelin/contracts/security/ReentrancyGuard.sol\":2598:2616  _status = _ENTERED */\n      dup2\n      swap1\n      sstore\n      pop\n        /* \"@openzeppelin/contracts/security/ReentrancyGuard.sol\":2336:2623  function _nonReentrantBefore() private {... */\n      jump\t// out\n        /* \"@openzeppelin/contracts/utils/math/SafeMath.sol\":3122:3218  function sub(uint256 a, uint256 b) internal pure returns (uint256) {... */\n    tag_124:\n        /* \"@openzeppelin/contracts/utils/math/SafeMath.sol\":3180:3187  uint256 */\n      0x00\n        /* \"@openzeppelin/contracts/utils/math/SafeMath.sol\":3210:3211  b */\n      dup2\n        /* \"@openzeppelin/contracts/utils/math/SafeMath.sol\":3206:3207  a */\n      dup4\n        /* \"@openzeppelin/contracts/utils/math/SafeMath.sol\":3206:3211  a - b */\n      tag_204\n      swap2\n      swap1\n      tag_205\n      jump\t// in\n    tag_204:\n        /* \"@openzeppelin/contracts/utils/math/SafeMath.sol\":3199:3211  return a - b */\n      swap1\n      pop\n        /* \"@openzeppelin/contracts/utils/math/SafeMath.sol\":3122:3218  function sub(uint256 a, uint256 b) internal pure returns (uint256) {... */\n      swap3\n      swap2\n      pop\n      pop\n      jump\t// out\n        /* \"@openzeppelin/contracts/security/ReentrancyGuard.sol\":2629:2838  function _nonReentrantAfter() private {... */\n    tag_128:\n        /* \"@openzeppelin/contracts/security/ReentrancyGuard.sol\":1716:1717  1 */\n      0x01\n        /* \"@openzeppelin/contracts/security/ReentrancyGuard.sol\":2809:2816  _status */\n      dup1\n        /* \"@openzeppelin/contracts/security/ReentrancyGuard.sol\":2809:2831  _status = _NOT_ENTERED */\n      dup2\n      swap1\n      sstore\n      pop\n        /* \"@openzeppelin/contracts/security/ReentrancyGuard.sol\":2629:2838  function _nonReentrantAfter() private {... */\n      jump\t// out\n        /* \"@openzeppelin/contracts/access/Ownable.sol\":1359:1489  function _checkOwner() internal view virtual {... */\n    tag_131:\n        /* \"@openzeppelin/contracts/access/Ownable.sol\":1433:1445  _msgSender() */\n      tag_208\n        /* \"@openzeppelin/contracts/access/Ownable.sol\":1433:1443  _msgSender */\n      tag_209\n        /* \"@openzeppelin/contracts/access/Ownable.sol\":1433:1445  _msgSender() */\n      jump\t// in\n    tag_208:\n        /* \"@openzeppelin/contracts/access/Ownable.sol\":1422:1445  owner() == _msgSender() */\n      0xffffffffffffffffffffffffffffffffffffffff\n      and\n        /* \"@openzeppelin/contracts/access/Ownable.sol\":1422:1429  owner() */\n      tag_210\n        /* \"@openzeppelin/contracts/access/Ownable.sol\":1422:1427  owner */\n      tag_74\n        /* \"@openzeppelin/contracts/access/Ownable.sol\":1422:1429  owner() */\n      jump\t// in\n    tag_210:\n        /* \"@openzeppelin/contracts/access/Ownable.sol\":1422:1445  owner() == _msgSender() */\n      0xffffffffffffffffffffffffffffffffffffffff\n      and\n      eq\n        /* \"@openzeppelin/contracts/access/Ownable.sol\":1414:1482  require(owner() == _msgSender(), \"Ownable: caller is not the owner\") */\n      tag_211\n      jumpi\n      mload(0x40)\n      0x08c379a000000000000000000000000000000000000000000000000000000000\n      dup2\n      mstore\n      0x04\n      add\n      tag_212\n      swap1\n      tag_213\n      jump\t// in\n    tag_212:\n      mload(0x40)\n      dup1\n      swap2\n      sub\n      swap1\n      revert\n    tag_211:\n        /* \"@openzeppelin/contracts/access/Ownable.sol\":1359:1489  function _checkOwner() internal view virtual {... */\n      jump\t// out\n        /* \"@openzeppelin/contracts/access/Ownable.sol\":2433:2620  function _transferOwnership(address newOwner) internal virtual {... */\n    tag_138:\n        /* \"@openzeppelin/contracts/access/Ownable.sol\":2506:2522  address oldOwner */\n      0x00\n        /* \"@openzeppelin/contracts/access/Ownable.sol\":2525:2531  _owner */\n      dup1\n      0x00\n      swap1\n      sload\n      swap1\n      0x0100\n      exp\n      swap1\n      div\n      0xffffffffffffffffffffffffffffffffffffffff\n      and\n        /* \"@openzeppelin/contracts/access/Ownable.sol\":2506:2531  address oldOwner = _owner */\n      swap1\n      pop\n        /* \"@openzeppelin/contracts/access/Ownable.sol\":2550:2558  newOwner */\n      dup2\n        /* \"@openzeppelin/contracts/access/Ownable.sol\":2541:2547  _owner */\n      0x00\n      dup1\n        /* \"@openzeppelin/contracts/access/Ownable.sol\":2541:2558  _owner = newOwner */\n      0x0100\n      exp\n      dup2\n      sload\n      dup2\n      0xffffffffffffffffffffffffffffffffffffffff\n      mul\n      not\n      and\n      swap1\n      dup4\n      0xffffffffffffffffffffffffffffffffffffffff\n      and\n      mul\n      or\n      swap1\n      sstore\n      pop\n        /* \"@openzeppelin/contracts/access/Ownable.sol\":2604:2612  newOwner */\n      dup2\n        /* \"@openzeppelin/contracts/access/Ownable.sol\":2573:2613  OwnershipTransferred(oldOwner, newOwner) */\n      0xffffffffffffffffffffffffffffffffffffffff\n      and\n        /* \"@openzeppelin/contracts/access/Ownable.sol\":2594:2602  oldOwner */\n      dup2\n        /* \"@openzeppelin/contracts/access/Ownable.sol\":2573:2613  OwnershipTransferred(oldOwner, newOwner) */\n      0xffffffffffffffffffffffffffffffffffffffff\n      and\n      0x8be0079c531659141344cd1fd0a4f28419497f9722a3daafe3b4186f6b6457e0\n      mload(0x40)\n      mload(0x40)\n      dup1\n      swap2\n      sub\n      swap1\n      log3\n        /* \"@openzeppelin/contracts/access/Ownable.sol\":2433:2620  function _transferOwnership(address newOwner) internal virtual {... */\n      pop\n      pop\n      jump\t// out\n        /* \"@openzeppelin/contracts/utils/math/SafeMath.sol\":2755:2851  function add(uint256 a, uint256 b) internal pure returns (uint256) {... */\n    tag_162:\n        /* \"@openzeppelin/contracts/utils/math/SafeMath.sol\":2813:2820  uint256 */\n      0x00\n        /* \"@openzeppelin/contracts/utils/math/SafeMath.sol\":2843:2844  b */\n      dup2\n        /* \"@openzeppelin/contracts/utils/math/SafeMath.sol\":2839:2840  a */\n      dup4\n        /* \"@openzeppelin/contracts/utils/math/SafeMath.sol\":2839:2844  a + b */\n      tag_216\n      swap2\n      swap1\n      tag_106\n      jump\t// in\n    tag_216:\n        /* \"@openzeppelin/contracts/utils/math/SafeMath.sol\":2832:2844  return a + b */\n      swap1\n      pop\n        /* \"@openzeppelin/contracts/utils/math/SafeMath.sol\":2755:2851  function add(uint256 a, uint256 b) internal pure returns (uint256) {... */\n      swap3\n      swap2\n      pop\n      pop\n      jump\t// out\n        /* \"Defi/StakingPool.sol\":3428:3920  function getRewardForUser(address account,uint256 _amount) internal view returns (uint256) {... */\n    tag_164:\n        /* \"Defi/StakingPool.sol\":3510:3517  uint256 */\n      0x00\n        /* \"Defi/StakingPool.sol\":3529:3557  uint256 stakingDaysRemaining */\n      dup1\n        /* \"Defi/StakingPool.sol\":3560:3622  (lockupPeriod.add(stakingStartTime)).sub(stakingTime[account]) */\n      tag_218\n        /* \"Defi/StakingPool.sol\":3601:3612  stakingTime */\n      0x08\n        /* \"Defi/StakingPool.sol\":3601:3621  stakingTime[account] */\n      0x00\n        /* \"Defi/StakingPool.sol\":3613:3620  account */\n      dup7\n        /* \"Defi/StakingPool.sol\":3601:3621  stakingTime[account] */\n      0xffffffffffffffffffffffffffffffffffffffff\n      and\n      0xffffffffffffffffffffffffffffffffffffffff\n      and\n      dup2\n      mstore\n      0x20\n      add\n      swap1\n      dup2\n      mstore\n      0x20\n      add\n      0x00\n      keccak256\n      sload\n        /* \"Defi/StakingPool.sol\":3561:3595  lockupPeriod.add(stakingStartTime) */\n      tag_219\n        /* \"Defi/StakingPool.sol\":3578:3594  stakingStartTime */\n      sload(0x06)\n        /* \"Defi/StakingPool.sol\":3561:3573  lockupPeriod */\n      sload(0x05)\n        /* \"Defi/StakingPool.sol\":3561:3577  lockupPeriod.add */\n      tag_162\n      swap1\n        /* \"Defi/StakingPool.sol\":3561:3595  lockupPeriod.add(stakingStartTime) */\n      swap2\n      swap1\n      0xffffffff\n      and\n      jump\t// in\n    tag_219:\n        /* \"Defi/StakingPool.sol\":3560:3600  (lockupPeriod.add(stakingStartTime)).sub */\n      tag_124\n      swap1\n        /* \"Defi/StakingPool.sol\":3560:3622  (lockupPeriod.add(stakingStartTime)).sub(stakingTime[account]) */\n      swap2\n      swap1\n      0xffffffff\n      and\n      jump\t// in\n    tag_218:\n        /* \"Defi/StakingPool.sol\":3529:3622  uint256 stakingDaysRemaining = (lockupPeriod.add(stakingStartTime)).sub(stakingTime[account]) */\n      swap1\n      pop\n        /* \"Defi/StakingPool.sol\":3798:3812  uint256 reward */\n      0x00\n        /* \"Defi/StakingPool.sol\":3815:3890  _amount.div(1e6).mul(rewardRateInit).mul(stakingDaysRemaining).div(dayTime) */\n      tag_220\n        /* \"Defi/StakingPool.sol\":3882:3889  dayTime */\n      sload(0x0c)\n        /* \"Defi/StakingPool.sol\":3815:3877  _amount.div(1e6).mul(rewardRateInit).mul(stakingDaysRemaining) */\n      tag_221\n        /* \"Defi/StakingPool.sol\":3856:3876  stakingDaysRemaining */\n      dup5\n        /* \"Defi/StakingPool.sol\":3815:3851  _amount.div(1e6).mul(rewardRateInit) */\n      tag_222\n        /* \"Defi/StakingPool.sol\":3836:3850  rewardRateInit */\n      sload(0x04)\n        /* \"Defi/StakingPool.sol\":3815:3831  _amount.div(1e6) */\n      tag_223\n        /* \"Defi/StakingPool.sol\":3827:3830  1e6 */\n      0x0f4240\n        /* \"Defi/StakingPool.sol\":3815:3822  _amount */\n      dup12\n        /* \"Defi/StakingPool.sol\":3815:3826  _amount.div */\n      tag_224\n      swap1\n        /* \"Defi/StakingPool.sol\":3815:3831  _amount.div(1e6) */\n      swap2\n      swap1\n      0xffffffff\n      and\n      jump\t// in\n    tag_223:\n        /* \"Defi/StakingPool.sol\":3815:3835  _amount.div(1e6).mul */\n      tag_225\n      swap1\n        /* \"Defi/StakingPool.sol\":3815:3851  _amount.div(1e6).mul(rewardRateInit) */\n      swap2\n      swap1\n      0xffffffff\n      and\n      jump\t// in\n    tag_222:\n        /* \"Defi/StakingPool.sol\":3815:3855  _amount.div(1e6).mul(rewardRateInit).mul */\n      tag_225\n      swap1\n        /* \"Defi/StakingPool.sol\":3815:3877  _amount.div(1e6).mul(rewardRateInit).mul(stakingDaysRemaining) */\n      swap2\n      swap1\n      0xffffffff\n      and\n      jump\t// in\n    tag_221:\n        /* \"Defi/StakingPool.sol\":3815:3881  _amount.div(1e6).mul(rewardRateInit).mul(stakingDaysRemaining).div */\n      tag_224\n      swap1\n        /* \"Defi/StakingPool.sol\":3815:3890  _amount.div(1e6).mul(rewardRateInit).mul(stakingDaysRemaining).div(dayTime) */\n      swap2\n      swap1\n      0xffffffff\n      and\n      jump\t// in\n    tag_220:\n        /* \"Defi/StakingPool.sol\":3798:3890  uint256 reward = _amount.div(1e6).mul(rewardRateInit).mul(stakingDaysRemaining).div(dayTime) */\n      swap1\n      pop\n        /* \"Defi/StakingPool.sol\":3907:3913  reward */\n      dup1\n        /* \"Defi/StakingPool.sol\":3900:3913  return reward */\n      swap3\n      pop\n      pop\n      pop\n        /* \"Defi/StakingPool.sol\":3428:3920  function getRewardForUser(address account,uint256 _amount) internal view returns (uint256) {... */\n      swap3\n      swap2\n      pop\n      pop\n      jump\t// out\n        /* \"@openzeppelin/contracts/utils/Context.sol\":640:736  function _msgSender() internal view virtual returns (address) {... */\n    tag_209:\n        /* \"@openzeppelin/contracts/utils/Context.sol\":693:700  address */\n      0x00\n        /* \"@openzeppelin/contracts/utils/Context.sol\":719:729  msg.sender */\n      caller\n        /* \"@openzeppelin/contracts/utils/Context.sol\":712:729  return msg.sender */\n      swap1\n      pop\n        /* \"@openzeppelin/contracts/utils/Context.sol\":640:736  function _msgSender() internal view virtual returns (address) {... */\n      swap1\n      jump\t// out\n        /* \"@openzeppelin/contracts/utils/math/SafeMath.sol\":3850:3946  function div(uint256 a, uint256 b) internal pure returns (uint256) {... */\n    tag_224:\n        /* \"@openzeppelin/contracts/utils/math/SafeMath.sol\":3908:3915  uint256 */\n      0x00\n        /* \"@openzeppelin/contracts/utils/math/SafeMath.sol\":3938:3939  b */\n      dup2\n        /* \"@openzeppelin/contracts/utils/math/SafeMath.sol\":3934:3935  a */\n      dup4\n        /* \"@openzeppelin/contracts/utils/math/SafeMath.sol\":3934:3939  a / b */\n      tag_228\n      swap2\n      swap1\n      tag_229\n      jump\t// in\n    tag_228:\n        /* \"@openzeppelin/contracts/utils/math/SafeMath.sol\":3927:3939  return a / b */\n      swap1\n      pop\n        /* \"@openzeppelin/contracts/utils/math/SafeMath.sol\":3850:3946  function div(uint256 a, uint256 b) internal pure returns (uint256) {... */\n      swap3\n      swap2\n      pop\n      pop\n      jump\t// out\n        /* \"@openzeppelin/contracts/utils/math/SafeMath.sol\":3465:3561  function mul(uint256 a, uint256 b) internal pure returns (uint256) {... */\n    tag_225:\n        /* \"@openzeppelin/contracts/utils/math/SafeMath.sol\":3523:3530  uint256 */\n      0x00\n        /* \"@openzeppelin/contracts/utils/math/SafeMath.sol\":3553:3554  b */\n      dup2\n        /* \"@openzeppelin/contracts/utils/math/SafeMath.sol\":3549:3550  a */\n      dup4\n        /* \"@openzeppelin/contracts/utils/math/SafeMath.sol\":3549:3554  a * b */\n      tag_231\n      swap2\n      swap1\n      tag_232\n      jump\t// in\n    tag_231:\n        /* \"@openzeppelin/contracts/utils/math/SafeMath.sol\":3542:3554  return a * b */\n      swap1\n      pop\n        /* \"@openzeppelin/contracts/utils/math/SafeMath.sol\":3465:3561  function mul(uint256 a, uint256 b) internal pure returns (uint256) {... */\n      swap3\n      swap2\n      pop\n      pop\n      jump\t// out\n        /* \"#utility.yul\":7:146   */\n    tag_234:\n        /* \"#utility.yul\":53:58   */\n      0x00\n        /* \"#utility.yul\":91:97   */\n      dup2\n        /* \"#utility.yul\":78:98   */\n      calldataload\n        /* \"#utility.yul\":69:98   */\n      swap1\n      pop\n        /* \"#utility.yul\":107:140   */\n      tag_236\n        /* \"#utility.yul\":134:139   */\n      dup2\n        /* \"#utility.yul\":107:140   */\n      tag_237\n      jump\t// in\n    tag_236:\n        /* \"#utility.yul\":59:146   */\n      swap3\n      swap2\n      pop\n      pop\n      jump\t// out\n        /* \"#utility.yul\":152:289   */\n    tag_238:\n        /* \"#utility.yul\":206:211   */\n      0x00\n        /* \"#utility.yul\":237:243   */\n      dup2\n        /* \"#utility.yul\":231:244   */\n      mload\n        /* \"#utility.yul\":222:244   */\n      swap1\n      pop\n        /* \"#utility.yul\":253:283   */\n      tag_240\n        /* \"#utility.yul\":277:282   */\n      dup2\n        /* \"#utility.yul\":253:283   */\n      tag_241\n      jump\t// in\n    tag_240:\n        /* \"#utility.yul\":212:289   */\n      swap3\n      swap2\n      pop\n      pop\n      jump\t// out\n        /* \"#utility.yul\":295:434   */\n    tag_242:\n        /* \"#utility.yul\":341:346   */\n      0x00\n        /* \"#utility.yul\":379:385   */\n      dup2\n        /* \"#utility.yul\":366:386   */\n      calldataload\n        /* \"#utility.yul\":357:386   */\n      swap1\n      pop\n        /* \"#utility.yul\":395:428   */\n      tag_244\n        /* \"#utility.yul\":422:427   */\n      dup2\n        /* \"#utility.yul\":395:428   */\n      tag_245\n      jump\t// in\n    tag_244:\n        /* \"#utility.yul\":347:434   */\n      swap3\n      swap2\n      pop\n      pop\n      jump\t// out\n        /* \"#utility.yul\":440:702   */\n    tag_34:\n        /* \"#utility.yul\":499:505   */\n      0x00\n        /* \"#utility.yul\":548:550   */\n      0x20\n        /* \"#utility.yul\":536:545   */\n      dup3\n        /* \"#utility.yul\":527:534   */\n      dup5\n        /* \"#utility.yul\":523:546   */\n      sub\n        /* \"#utility.yul\":519:551   */\n      slt\n        /* \"#utility.yul\":516:518   */\n      iszero\n      tag_247\n      jumpi\n        /* \"#utility.yul\":564:565   */\n      0x00\n        /* \"#utility.yul\":561:562   */\n      dup1\n        /* \"#utility.yul\":554:566   */\n      revert\n        /* \"#utility.yul\":516:518   */\n    tag_247:\n        /* \"#utility.yul\":607:608   */\n      0x00\n        /* \"#utility.yul\":632:685   */\n      tag_248\n        /* \"#utility.yul\":677:684   */\n      dup5\n        /* \"#utility.yul\":668:674   */\n      dup3\n        /* \"#utility.yul\":657:666   */\n      dup6\n        /* \"#utility.yul\":653:675   */\n      add\n        /* \"#utility.yul\":632:685   */\n      tag_234\n      jump\t// in\n    tag_248:\n        /* \"#utility.yul\":622:685   */\n      swap2\n      pop\n        /* \"#utility.yul\":578:695   */\n      pop\n        /* \"#utility.yul\":506:702   */\n      swap3\n      swap2\n      pop\n      pop\n      jump\t// out\n        /* \"#utility.yul\":708:986   */\n    tag_119:\n        /* \"#utility.yul\":775:781   */\n      0x00\n        /* \"#utility.yul\":824:826   */\n      0x20\n        /* \"#utility.yul\":812:821   */\n      dup3\n        /* \"#utility.yul\":803:810   */\n      dup5\n        /* \"#utility.yul\":799:822   */\n      sub\n        /* \"#utility.yul\":795:827   */\n      slt\n        /* \"#utility.yul\":792:794   */\n      iszero\n      tag_250\n      jumpi\n        /* \"#utility.yul\":840:841   */\n      0x00\n        /* \"#utility.yul\":837:838   */\n      dup1\n        /* \"#utility.yul\":830:842   */\n      revert\n        /* \"#utility.yul\":792:794   */\n    tag_250:\n        /* \"#utility.yul\":883:884   */\n      0x00\n        /* \"#utility.yul\":908:969   */\n      tag_251\n        /* \"#utility.yul\":961:968   */\n      dup5\n        /* \"#utility.yul\":952:958   */\n      dup3\n        /* \"#utility.yul\":941:950   */\n      dup6\n        /* \"#utility.yul\":937:959   */\n      add\n        /* \"#utility.yul\":908:969   */\n      tag_238\n      jump\t// in\n    tag_251:\n        /* \"#utility.yul\":898:969   */\n      swap2\n      pop\n        /* \"#utility.yul\":854:979   */\n      pop\n        /* \"#utility.yul\":782:986   */\n      swap3\n      swap2\n      pop\n      pop\n      jump\t// out\n        /* \"#utility.yul\":992:1254   */\n    tag_47:\n        /* \"#utility.yul\":1051:1057   */\n      0x00\n        /* \"#utility.yul\":1100:1102   */\n      0x20\n        /* \"#utility.yul\":1088:1097   */\n      dup3\n        /* \"#utility.yul\":1079:1086   */\n      dup5\n        /* \"#utility.yul\":1075:1098   */\n      sub\n        /* \"#utility.yul\":1071:1103   */\n      slt\n        /* \"#utility.yul\":1068:1070   */\n      iszero\n      tag_253\n      jumpi\n        /* \"#utility.yul\":1116:1117   */\n      0x00\n        /* \"#utility.yul\":1113:1114   */\n      dup1\n        /* \"#utility.yul\":1106:1118   */\n      revert\n        /* \"#utility.yul\":1068:1070   */\n    tag_253:\n        /* \"#utility.yul\":1159:1160   */\n      0x00\n        /* \"#utility.yul\":1184:1237   */\n      tag_254\n        /* \"#utility.yul\":1229:1236   */\n      dup5\n        /* \"#utility.yul\":1220:1226   */\n      dup3\n        /* \"#utility.yul\":1209:1218   */\n      dup6\n        /* \"#utility.yul\":1205:1227   */\n      add\n        /* \"#utility.yul\":1184:1237   */\n      tag_242\n      jump\t// in\n    tag_254:\n        /* \"#utility.yul\":1174:1237   */\n      swap2\n      pop\n        /* \"#utility.yul\":1130:1247   */\n      pop\n        /* \"#utility.yul\":1058:1254   */\n      swap3\n      swap2\n      pop\n      pop\n      jump\t// out\n        /* \"#utility.yul\":1260:1378   */\n    tag_255:\n        /* \"#utility.yul\":1347:1371   */\n      tag_257\n        /* \"#utility.yul\":1365:1370   */\n      dup2\n        /* \"#utility.yul\":1347:1371   */\n      tag_258\n      jump\t// in\n    tag_257:\n        /* \"#utility.yul\":1342:1345   */\n      dup3\n        /* \"#utility.yul\":1335:1372   */\n      mstore\n        /* \"#utility.yul\":1325:1378   */\n      pop\n      pop\n      jump\t// out\n        /* \"#utility.yul\":1384:1543   */\n    tag_259:\n        /* \"#utility.yul\":1485:1536   */\n      tag_261\n        /* \"#utility.yul\":1530:1535   */\n      dup2\n        /* \"#utility.yul\":1485:1536   */\n      tag_262\n      jump\t// in\n    tag_261:\n        /* \"#utility.yul\":1480:1483   */\n      dup3\n        /* \"#utility.yul\":1473:1537   */\n      mstore\n        /* \"#utility.yul\":1463:1543   */\n      pop\n      pop\n      jump\t// out\n        /* \"#utility.yul\":1549:1914   */\n    tag_263:\n        /* \"#utility.yul\":1691:1694   */\n      0x00\n        /* \"#utility.yul\":1712:1778   */\n      tag_265\n        /* \"#utility.yul\":1776:1777   */\n      0x06\n        /* \"#utility.yul\":1771:1774   */\n      dup4\n        /* \"#utility.yul\":1712:1778   */\n      tag_266\n      jump\t// in\n    tag_265:\n        /* \"#utility.yul\":1705:1778   */\n      swap2\n      pop\n        /* \"#utility.yul\":1787:1880   */\n      tag_267\n        /* \"#utility.yul\":1876:1879   */\n      dup3\n        /* \"#utility.yul\":1787:1880   */\n      tag_268\n      jump\t// in\n    tag_267:\n        /* \"#utility.yul\":1905:1907   */\n      0x20\n        /* \"#utility.yul\":1900:1903   */\n      dup3\n        /* \"#utility.yul\":1896:1908   */\n      add\n        /* \"#utility.yul\":1889:1908   */\n      swap1\n      pop\n        /* \"#utility.yul\":1695:1914   */\n      swap2\n      swap1\n      pop\n      jump\t// out\n        /* \"#utility.yul\":1920:2286   */\n    tag_269:\n        /* \"#utility.yul\":2062:2065   */\n      0x00\n        /* \"#utility.yul\":2083:2150   */\n      tag_271\n        /* \"#utility.yul\":2147:2149   */\n      0x26\n        /* \"#utility.yul\":2142:2145   */\n      dup4\n        /* \"#utility.yul\":2083:2150   */\n      tag_266\n      jump\t// in\n    tag_271:\n        /* \"#utility.yul\":2076:2150   */\n      swap2\n      pop\n        /* \"#utility.yul\":2159:2252   */\n      tag_272\n        /* \"#utility.yul\":2248:2251   */\n      dup3\n        /* \"#utility.yul\":2159:2252   */\n      tag_273\n      jump\t// in\n    tag_272:\n        /* \"#utility.yul\":2277:2279   */\n      0x40\n        /* \"#utility.yul\":2272:2275   */\n      dup3\n        /* \"#utility.yul\":2268:2280   */\n      add\n        /* \"#utility.yul\":2261:2280   */\n      swap1\n      pop\n        /* \"#utility.yul\":2066:2286   */\n      swap2\n      swap1\n      pop\n      jump\t// out\n        /* \"#utility.yul\":2292:2658   */\n    tag_274:\n        /* \"#utility.yul\":2434:2437   */\n      0x00\n        /* \"#utility.yul\":2455:2522   */\n      tag_276\n        /* \"#utility.yul\":2519:2521   */\n      0x0f\n        /* \"#utility.yul\":2514:2517   */\n      dup4\n        /* \"#utility.yul\":2455:2522   */\n      tag_266\n      jump\t// in\n    tag_276:\n        /* \"#utility.yul\":2448:2522   */\n      swap2\n      pop\n        /* \"#utility.yul\":2531:2624   */\n      tag_277\n        /* \"#utility.yul\":2620:2623   */\n      dup3\n        /* \"#utility.yul\":2531:2624   */\n      tag_278\n      jump\t// in\n    tag_277:\n        /* \"#utility.yul\":2649:2651   */\n      0x20\n        /* \"#utility.yul\":2644:2647   */\n      dup3\n        /* \"#utility.yul\":2640:2652   */\n      add\n        /* \"#utility.yul\":2633:2652   */\n      swap1\n      pop\n        /* \"#utility.yul\":2438:2658   */\n      swap2\n      swap1\n      pop\n      jump\t// out\n        /* \"#utility.yul\":2664:3030   */\n    tag_279:\n        /* \"#utility.yul\":2806:2809   */\n      0x00\n        /* \"#utility.yul\":2827:2894   */\n      tag_281\n        /* \"#utility.yul\":2891:2893   */\n      0x14\n        /* \"#utility.yul\":2886:2889   */\n      dup4\n        /* \"#utility.yul\":2827:2894   */\n      tag_266\n      jump\t// in\n    tag_281:\n        /* \"#utility.yul\":2820:2894   */\n      swap2\n      pop\n        /* \"#utility.yul\":2903:2996   */\n      tag_282\n        /* \"#utility.yul\":2992:2995   */\n      dup3\n        /* \"#utility.yul\":2903:2996   */\n      tag_283\n      jump\t// in\n    tag_282:\n        /* \"#utility.yul\":3021:3023   */\n      0x20\n        /* \"#utility.yul\":3016:3019   */\n      dup3\n        /* \"#utility.yul\":3012:3024   */\n      add\n        /* \"#utility.yul\":3005:3024   */\n      swap1\n      pop\n        /* \"#utility.yul\":2810:3030   */\n      swap2\n      swap1\n      pop\n      jump\t// out\n        /* \"#utility.yul\":3036:3402   */\n    tag_284:\n        /* \"#utility.yul\":3178:3181   */\n      0x00\n        /* \"#utility.yul\":3199:3266   */\n      tag_286\n        /* \"#utility.yul\":3263:3265   */\n      0x1f\n        /* \"#utility.yul\":3258:3261   */\n      dup4\n        /* \"#utility.yul\":3199:3266   */\n      tag_266\n      jump\t// in\n    tag_286:\n        /* \"#utility.yul\":3192:3266   */\n      swap2\n      pop\n        /* \"#utility.yul\":3275:3368   */\n      tag_287\n        /* \"#utility.yul\":3364:3367   */\n      dup3\n        /* \"#utility.yul\":3275:3368   */\n      tag_288\n      jump\t// in\n    tag_287:\n        /* \"#utility.yul\":3393:3395   */\n      0x20\n        /* \"#utility.yul\":3388:3391   */\n      dup3\n        /* \"#utility.yul\":3384:3396   */\n      add\n        /* \"#utility.yul\":3377:3396   */\n      swap1\n      pop\n        /* \"#utility.yul\":3182:3402   */\n      swap2\n      swap1\n      pop\n      jump\t// out\n        /* \"#utility.yul\":3408:3774   */\n    tag_289:\n        /* \"#utility.yul\":3550:3553   */\n      0x00\n        /* \"#utility.yul\":3571:3638   */\n      tag_291\n        /* \"#utility.yul\":3635:3637   */\n      0x20\n        /* \"#utility.yul\":3630:3633   */\n      dup4\n        /* \"#utility.yul\":3571:3638   */\n      tag_266\n      jump\t// in\n    tag_291:\n        /* \"#utility.yul\":3564:3638   */\n      swap2\n      pop\n        /* \"#utility.yul\":3647:3740   */\n      tag_292\n        /* \"#utility.yul\":3736:3739   */\n      dup3\n        /* \"#utility.yul\":3647:3740   */\n      tag_293\n      jump\t// in\n    tag_292:\n        /* \"#utility.yul\":3765:3767   */\n      0x20\n        /* \"#utility.yul\":3760:3763   */\n      dup3\n        /* \"#utility.yul\":3756:3768   */\n      add\n        /* \"#utility.yul\":3749:3768   */\n      swap1\n      pop\n        /* \"#utility.yul\":3554:3774   */\n      swap2\n      swap1\n      pop\n      jump\t// out\n        /* \"#utility.yul\":3780:4146   */\n    tag_294:\n        /* \"#utility.yul\":3922:3925   */\n      0x00\n        /* \"#utility.yul\":3943:4010   */\n      tag_296\n        /* \"#utility.yul\":4007:4009   */\n      0x26\n        /* \"#utility.yul\":4002:4005   */\n      dup4\n        /* \"#utility.yul\":3943:4010   */\n      tag_266\n      jump\t// in\n    tag_296:\n        /* \"#utility.yul\":3936:4010   */\n      swap2\n      pop\n        /* \"#utility.yul\":4019:4112   */\n      tag_297\n        /* \"#utility.yul\":4108:4111   */\n      dup3\n        /* \"#utility.yul\":4019:4112   */\n      tag_298\n      jump\t// in\n    tag_297:\n        /* \"#utility.yul\":4137:4139   */\n      0x40\n        /* \"#utility.yul\":4132:4135   */\n      dup3\n        /* \"#utility.yul\":4128:4140   */\n      add\n        /* \"#utility.yul\":4121:4140   */\n      swap1\n      pop\n        /* \"#utility.yul\":3926:4146   */\n      swap2\n      swap1\n      pop\n      jump\t// out\n        /* \"#utility.yul\":4152:4518   */\n    tag_299:\n        /* \"#utility.yul\":4294:4297   */\n      0x00\n        /* \"#utility.yul\":4315:4382   */\n      tag_301\n        /* \"#utility.yul\":4379:4381   */\n      0x1f\n        /* \"#utility.yul\":4374:4377   */\n      dup4\n        /* \"#utility.yul\":4315:4382   */\n      tag_266\n      jump\t// in\n    tag_301:\n        /* \"#utility.yul\":4308:4382   */\n      swap2\n      pop\n        /* \"#utility.yul\":4391:4484   */\n      tag_302\n        /* \"#utility.yul\":4480:4483   */\n      dup3\n        /* \"#utility.yul\":4391:4484   */\n      tag_303\n      jump\t// in\n    tag_302:\n        /* \"#utility.yul\":4509:4511   */\n      0x20\n        /* \"#utility.yul\":4504:4507   */\n      dup3\n        /* \"#utility.yul\":4500:4512   */\n      add\n        /* \"#utility.yul\":4493:4512   */\n      swap1\n      pop\n        /* \"#utility.yul\":4298:4518   */\n      swap2\n      swap1\n      pop\n      jump\t// out\n        /* \"#utility.yul\":4524:4642   */\n    tag_304:\n        /* \"#utility.yul\":4611:4635   */\n      tag_306\n        /* \"#utility.yul\":4629:4634   */\n      dup2\n        /* \"#utility.yul\":4611:4635   */\n      tag_307\n      jump\t// in\n    tag_306:\n        /* \"#utility.yul\":4606:4609   */\n      dup3\n        /* \"#utility.yul\":4599:4636   */\n      mstore\n        /* \"#utility.yul\":4589:4642   */\n      pop\n      pop\n      jump\t// out\n        /* \"#utility.yul\":4648:4870   */\n    tag_76:\n        /* \"#utility.yul\":4741:4745   */\n      0x00\n        /* \"#utility.yul\":4779:4781   */\n      0x20\n        /* \"#utility.yul\":4768:4777   */\n      dup3\n        /* \"#utility.yul\":4764:4782   */\n      add\n        /* \"#utility.yul\":4756:4782   */\n      swap1\n      pop\n        /* \"#utility.yul\":4792:4863   */\n      tag_309\n        /* \"#utility.yul\":4860:4861   */\n      0x00\n        /* \"#utility.yul\":4849:4858   */\n      dup4\n        /* \"#utility.yul\":4845:4862   */\n      add\n        /* \"#utility.yul\":4836:4842   */\n      dup5\n        /* \"#utility.yul\":4792:4863   */\n      tag_255\n      jump\t// in\n    tag_309:\n        /* \"#utility.yul\":4746:4870   */\n      swap3\n      swap2\n      pop\n      pop\n      jump\t// out\n        /* \"#utility.yul\":4876:5318   */\n    tag_154:\n        /* \"#utility.yul\":5025:5029   */\n      0x00\n        /* \"#utility.yul\":5063:5065   */\n      0x60\n        /* \"#utility.yul\":5052:5061   */\n      dup3\n        /* \"#utility.yul\":5048:5066   */\n      add\n        /* \"#utility.yul\":5040:5066   */\n      swap1\n      pop\n        /* \"#utility.yul\":5076:5147   */\n      tag_311\n        /* \"#utility.yul\":5144:5145   */\n      0x00\n        /* \"#utility.yul\":5133:5142   */\n      dup4\n        /* \"#utility.yul\":5129:5146   */\n      add\n        /* \"#utility.yul\":5120:5126   */\n      dup7\n        /* \"#utility.yul\":5076:5147   */\n      tag_255\n      jump\t// in\n    tag_311:\n        /* \"#utility.yul\":5157:5229   */\n      tag_312\n        /* \"#utility.yul\":5225:5227   */\n      0x20\n        /* \"#utility.yul\":5214:5223   */\n      dup4\n        /* \"#utility.yul\":5210:5228   */\n      add\n        /* \"#utility.yul\":5201:5207   */\n      dup6\n        /* \"#utility.yul\":5157:5229   */\n      tag_255\n      jump\t// in\n    tag_312:\n        /* \"#utility.yul\":5239:5311   */\n      tag_313\n        /* \"#utility.yul\":5307:5309   */\n      0x40\n        /* \"#utility.yul\":5296:5305   */\n      dup4\n        /* \"#utility.yul\":5292:5310   */\n      add\n        /* \"#utility.yul\":5283:5289   */\n      dup5\n        /* \"#utility.yul\":5239:5311   */\n      tag_304\n      jump\t// in\n    tag_313:\n        /* \"#utility.yul\":5030:5318   */\n      swap5\n      swap4\n      pop\n      pop\n      pop\n      pop\n      jump\t// out\n        /* \"#utility.yul\":5324:5656   */\n    tag_114:\n        /* \"#utility.yul\":5445:5449   */\n      0x00\n        /* \"#utility.yul\":5483:5485   */\n      0x40\n        /* \"#utility.yul\":5472:5481   */\n      dup3\n        /* \"#utility.yul\":5468:5486   */\n      add\n        /* \"#utility.yul\":5460:5486   */\n      swap1\n      pop\n        /* \"#utility.yul\":5496:5567   */\n      tag_315\n        /* \"#utility.yul\":5564:5565   */\n      0x00\n        /* \"#utility.yul\":5553:5562   */\n      dup4\n        /* \"#utility.yul\":5549:5566   */\n      add\n        /* \"#utility.yul\":5540:5546   */\n      dup6\n        /* \"#utility.yul\":5496:5567   */\n      tag_255\n      jump\t// in\n    tag_315:\n        /* \"#utility.yul\":5577:5649   */\n      tag_316\n        /* \"#utility.yul\":5645:5647   */\n      0x20\n        /* \"#utility.yul\":5634:5643   */\n      dup4\n        /* \"#utility.yul\":5630:5648   */\n      add\n        /* \"#utility.yul\":5621:5627   */\n      dup5\n        /* \"#utility.yul\":5577:5649   */\n      tag_304\n      jump\t// in\n    tag_316:\n        /* \"#utility.yul\":5450:5656   */\n      swap4\n      swap3\n      pop\n      pop\n      pop\n      jump\t// out\n        /* \"#utility.yul\":5662:5912   */\n    tag_94:\n        /* \"#utility.yul\":5769:5773   */\n      0x00\n        /* \"#utility.yul\":5807:5809   */\n      0x20\n        /* \"#utility.yul\":5796:5805   */\n      dup3\n        /* \"#utility.yul\":5792:5810   */\n      add\n        /* \"#utility.yul\":5784:5810   */\n      swap1\n      pop\n        /* \"#utility.yul\":5820:5905   */\n      tag_318\n        /* \"#utility.yul\":5902:5903   */\n      0x00\n        /* \"#utility.yul\":5891:5900   */\n      dup4\n        /* \"#utility.yul\":5887:5904   */\n      add\n        /* \"#utility.yul\":5878:5884   */\n      dup5\n        /* \"#utility.yul\":5820:5905   */\n      tag_259\n      jump\t// in\n    tag_318:\n        /* \"#utility.yul\":5774:5912   */\n      swap3\n      swap2\n      pop\n      pop\n      jump\t// out\n        /* \"#utility.yul\":5918:6337   */\n    tag_109:\n        /* \"#utility.yul\":6084:6088   */\n      0x00\n        /* \"#utility.yul\":6122:6124   */\n      0x20\n        /* \"#utility.yul\":6111:6120   */\n      dup3\n        /* \"#utility.yul\":6107:6125   */\n      add\n        /* \"#utility.yul\":6099:6125   */\n      swap1\n      pop\n        /* \"#utility.yul\":6171:6180   */\n      dup2\n        /* \"#utility.yul\":6165:6169   */\n      dup2\n        /* \"#utility.yul\":6161:6181   */\n      sub\n        /* \"#utility.yul\":6157:6158   */\n      0x00\n        /* \"#utility.yul\":6146:6155   */\n      dup4\n        /* \"#utility.yul\":6142:6159   */\n      add\n        /* \"#utility.yul\":6135:6182   */\n      mstore\n        /* \"#utility.yul\":6199:6330   */\n      tag_320\n        /* \"#utility.yul\":6325:6329   */\n      dup2\n        /* \"#utility.yul\":6199:6330   */\n      tag_263\n      jump\t// in\n    tag_320:\n        /* \"#utility.yul\":6191:6330   */\n      swap1\n      pop\n        /* \"#utility.yul\":6089:6337   */\n      swap2\n      swap1\n      pop\n      jump\t// out\n        /* \"#utility.yul\":6343:6762   */\n    tag_194:\n        /* \"#utility.yul\":6509:6513   */\n      0x00\n        /* \"#utility.yul\":6547:6549   */\n      0x20\n        /* \"#utility.yul\":6536:6545   */\n      dup3\n        /* \"#utility.yul\":6532:6550   */\n      add\n        /* \"#utility.yul\":6524:6550   */\n      swap1\n      pop\n        /* \"#utility.yul\":6596:6605   */\n      dup2\n        /* \"#utility.yul\":6590:6594   */\n      dup2\n        /* \"#utility.yul\":6586:6606   */\n      sub\n        /* \"#utility.yul\":6582:6583   */\n      0x00\n        /* \"#utility.yul\":6571:6580   */\n      dup4\n        /* \"#utility.yul\":6567:6584   */\n      add\n        /* \"#utility.yul\":6560:6607   */\n      mstore\n        /* \"#utility.yul\":6624:6755   */\n      tag_322\n        /* \"#utility.yul\":6750:6754   */\n      dup2\n        /* \"#utility.yul\":6624:6755   */\n      tag_269\n      jump\t// in\n    tag_322:\n        /* \"#utility.yul\":6616:6755   */\n      swap1\n      pop\n        /* \"#utility.yul\":6514:6762   */\n      swap2\n      swap1\n      pop\n      jump\t// out\n        /* \"#utility.yul\":6768:7187   */\n    tag_122:\n        /* \"#utility.yul\":6934:6938   */\n      0x00\n        /* \"#utility.yul\":6972:6974   */\n      0x20\n        /* \"#utility.yul\":6961:6970   */\n      dup3\n        /* \"#utility.yul\":6957:6975   */\n      add\n        /* \"#utility.yul\":6949:6975   */\n      swap1\n      pop\n        /* \"#utility.yul\":7021:7030   */\n      dup2\n        /* \"#utility.yul\":7015:7019   */\n      dup2\n        /* \"#utility.yul\":7011:7031   */\n      sub\n        /* \"#utility.yul\":7007:7008   */\n      0x00\n        /* \"#utility.yul\":6996:7005   */\n      dup4\n        /* \"#utility.yul\":6992:7009   */\n      add\n        /* \"#utility.yul\":6985:7032   */\n      mstore\n        /* \"#utility.yul\":7049:7180   */\n      tag_324\n        /* \"#utility.yul\":7175:7179   */\n      dup2\n        /* \"#utility.yul\":7049:7180   */\n      tag_274\n      jump\t// in\n    tag_324:\n        /* \"#utility.yul\":7041:7180   */\n      swap1\n      pop\n        /* \"#utility.yul\":6939:7187   */\n      swap2\n      swap1\n      pop\n      jump\t// out\n        /* \"#utility.yul\":7193:7612   */\n    tag_112:\n        /* \"#utility.yul\":7359:7363   */\n      0x00\n        /* \"#utility.yul\":7397:7399   */\n      0x20\n        /* \"#utility.yul\":7386:7395   */\n      dup3\n        /* \"#utility.yul\":7382:7400   */\n      add\n        /* \"#utility.yul\":7374:7400   */\n      swap1\n      pop\n        /* \"#utility.yul\":7446:7455   */\n      dup2\n        /* \"#utility.yul\":7440:7444   */\n      dup2\n        /* \"#utility.yul\":7436:7456   */\n      sub\n        /* \"#utility.yul\":7432:7433   */\n      0x00\n        /* \"#utility.yul\":7421:7430   */\n      dup4\n        /* \"#utility.yul\":7417:7434   */\n      add\n        /* \"#utility.yul\":7410:7457   */\n      mstore\n        /* \"#utility.yul\":7474:7605   */\n      tag_326\n        /* \"#utility.yul\":7600:7604   */\n      dup2\n        /* \"#utility.yul\":7474:7605   */\n      tag_279\n      jump\t// in\n    tag_326:\n        /* \"#utility.yul\":7466:7605   */\n      swap1\n      pop\n        /* \"#utility.yul\":7364:7612   */\n      swap2\n      swap1\n      pop\n      jump\t// out\n        /* \"#utility.yul\":7618:8037   */\n    tag_152:\n        /* \"#utility.yul\":7784:7788   */\n      0x00\n        /* \"#utility.yul\":7822:7824   */\n      0x20\n        /* \"#utility.yul\":7811:7820   */\n      dup3\n        /* \"#utility.yul\":7807:7825   */\n      add\n        /* \"#utility.yul\":7799:7825   */\n      swap1\n      pop\n        /* \"#utility.yul\":7871:7880   */\n      dup2\n        /* \"#utility.yul\":7865:7869   */\n      dup2\n        /* \"#utility.yul\":7861:7881   */\n      sub\n        /* \"#utility.yul\":7857:7858   */\n      0x00\n        /* \"#utility.yul\":7846:7855   */\n      dup4\n        /* \"#utility.yul\":7842:7859   */\n      add\n        /* \"#utility.yul\":7835:7882   */\n      mstore\n        /* \"#utility.yul\":7899:8030   */\n      tag_328\n        /* \"#utility.yul\":8025:8029   */\n      dup2\n        /* \"#utility.yul\":7899:8030   */\n      tag_284\n      jump\t// in\n    tag_328:\n        /* \"#utility.yul\":7891:8030   */\n      swap1\n      pop\n        /* \"#utility.yul\":7789:8037   */\n      swap2\n      swap1\n      pop\n      jump\t// out\n        /* \"#utility.yul\":8043:8462   */\n    tag_213:\n        /* \"#utility.yul\":8209:8213   */\n      0x00\n        /* \"#utility.yul\":8247:8249   */\n      0x20\n        /* \"#utility.yul\":8236:8245   */\n      dup3\n        /* \"#utility.yul\":8232:8250   */\n      add\n        /* \"#utility.yul\":8224:8250   */\n      swap1\n      pop\n        /* \"#utility.yul\":8296:8305   */\n      dup2\n        /* \"#utility.yul\":8290:8294   */\n      dup2\n        /* \"#utility.yul\":8286:8306   */\n      sub\n        /* \"#utility.yul\":8282:8283   */\n      0x00\n        /* \"#utility.yul\":8271:8280   */\n      dup4\n        /* \"#utility.yul\":8267:8284   */\n      add\n        /* \"#utility.yul\":8260:8307   */\n      mstore\n        /* \"#utility.yul\":8324:8455   */\n      tag_330\n        /* \"#utility.yul\":8450:8454   */\n      dup2\n        /* \"#utility.yul\":8324:8455   */\n      tag_289\n      jump\t// in\n    tag_330:\n        /* \"#utility.yul\":8316:8455   */\n      swap1\n      pop\n        /* \"#utility.yul\":8214:8462   */\n      swap2\n      swap1\n      pop\n      jump\t// out\n        /* \"#utility.yul\":8468:8887   */\n    tag_149:\n        /* \"#utility.yul\":8634:8638   */\n      0x00\n        /* \"#utility.yul\":8672:8674   */\n      0x20\n        /* \"#utility.yul\":8661:8670   */\n      dup3\n        /* \"#utility.yul\":8657:8675   */\n      add\n        /* \"#utility.yul\":8649:8675   */\n      swap1\n      pop\n        /* \"#utility.yul\":8721:8730   */\n      dup2\n        /* \"#utility.yul\":8715:8719   */\n      dup2\n        /* \"#utility.yul\":8711:8731   */\n      sub\n        /* \"#utility.yul\":8707:8708   */\n      0x00\n        /* \"#utility.yul\":8696:8705   */\n      dup4\n        /* \"#utility.yul\":8692:8709   */\n      add\n        /* \"#utility.yul\":8685:8732   */\n      mstore\n        /* \"#utility.yul\":8749:8880   */\n      tag_332\n        /* \"#utility.yul\":8875:8879   */\n      dup2\n        /* \"#utility.yul\":8749:8880   */\n      tag_294\n      jump\t// in\n    tag_332:\n        /* \"#utility.yul\":8741:8880   */\n      swap1\n      pop\n        /* \"#utility.yul\":8639:8887   */\n      swap2\n      swap1\n      pop\n      jump\t// out\n        /* \"#utility.yul\":8893:9312   */\n    tag_202:\n        /* \"#utility.yul\":9059:9063   */\n      0x00\n        /* \"#utility.yul\":9097:9099   */\n      0x20\n        /* \"#utility.yul\":9086:9095   */\n      dup3\n        /* \"#utility.yul\":9082:9100   */\n      add\n        /* \"#utility.yul\":9074:9100   */\n      swap1\n      pop\n        /* \"#utility.yul\":9146:9155   */\n      dup2\n        /* \"#utility.yul\":9140:9144   */\n      dup2\n        /* \"#utility.yul\":9136:9156   */\n      sub\n        /* \"#utility.yul\":9132:9133   */\n      0x00\n        /* \"#utility.yul\":9121:9130   */\n      dup4\n        /* \"#utility.yul\":9117:9134   */\n      add\n        /* \"#utility.yul\":9110:9157   */\n      mstore\n        /* \"#utility.yul\":9174:9305   */\n      tag_334\n        /* \"#utility.yul\":9300:9304   */\n      dup2\n        /* \"#utility.yul\":9174:9305   */\n      tag_299\n      jump\t// in\n    tag_334:\n        /* \"#utility.yul\":9166:9305   */\n      swap1\n      pop\n        /* \"#utility.yul\":9064:9312   */\n      swap2\n      swap1\n      pop\n      jump\t// out\n        /* \"#utility.yul\":9318:9540   */\n    tag_31:\n        /* \"#utility.yul\":9411:9415   */\n      0x00\n        /* \"#utility.yul\":9449:9451   */\n      0x20\n        /* \"#utility.yul\":9438:9447   */\n      dup3\n        /* \"#utility.yul\":9434:9452   */\n      add\n        /* \"#utility.yul\":9426:9452   */\n      swap1\n      pop\n        /* \"#utility.yul\":9462:9533   */\n      tag_336\n        /* \"#utility.yul\":9530:9531   */\n      0x00\n        /* \"#utility.yul\":9519:9528   */\n      dup4\n        /* \"#utility.yul\":9515:9532   */\n      add\n        /* \"#utility.yul\":9506:9512   */\n      dup5\n        /* \"#utility.yul\":9462:9533   */\n      tag_304\n      jump\t// in\n    tag_336:\n        /* \"#utility.yul\":9416:9540   */\n      swap3\n      swap2\n      pop\n      pop\n      jump\t// out\n        /* \"#utility.yul\":9546:9715   */\n    tag_266:\n        /* \"#utility.yul\":9630:9641   */\n      0x00\n        /* \"#utility.yul\":9664:9670   */\n      dup3\n        /* \"#utility.yul\":9659:9662   */\n      dup3\n        /* \"#utility.yul\":9652:9671   */\n      mstore\n        /* \"#utility.yul\":9704:9708   */\n      0x20\n        /* \"#utility.yul\":9699:9702   */\n      dup3\n        /* \"#utility.yul\":9695:9709   */\n      add\n        /* \"#utility.yul\":9680:9709   */\n      swap1\n      pop\n        /* \"#utility.yul\":9642:9715   */\n      swap3\n      swap2\n      pop\n      pop\n      jump\t// out\n        /* \"#utility.yul\":9721:10026   */\n    tag_106:\n        /* \"#utility.yul\":9761:9764   */\n      0x00\n        /* \"#utility.yul\":9780:9800   */\n      tag_339\n        /* \"#utility.yul\":9798:9799   */\n      dup3\n        /* \"#utility.yul\":9780:9800   */\n      tag_307\n      jump\t// in\n    tag_339:\n        /* \"#utility.yul\":9775:9800   */\n      swap2\n      pop\n        /* \"#utility.yul\":9814:9834   */\n      tag_340\n        /* \"#utility.yul\":9832:9833   */\n      dup4\n        /* \"#utility.yul\":9814:9834   */\n      tag_307\n      jump\t// in\n    tag_340:\n        /* \"#utility.yul\":9809:9834   */\n      swap3\n      pop\n        /* \"#utility.yul\":9968:9969   */\n      dup3\n        /* \"#utility.yul\":9900:9966   */\n      0xffffffffffffffffffffffffffffffffffffffffffffffffffffffffffffffff\n        /* \"#utility.yul\":9896:9970   */\n      sub\n        /* \"#utility.yul\":9893:9894   */\n      dup3\n        /* \"#utility.yul\":9890:9971   */\n      gt\n        /* \"#utility.yul\":9887:9889   */\n      iszero\n      tag_341\n      jumpi\n        /* \"#utility.yul\":9974:9992   */\n      tag_342\n      tag_343\n      jump\t// in\n    tag_342:\n        /* \"#utility.yul\":9887:9889   */\n    tag_341:\n        /* \"#utility.yul\":10018:10019   */\n      dup3\n        /* \"#utility.yul\":10015:10016   */\n      dup3\n        /* \"#utility.yul\":10011:10020   */\n      add\n        /* \"#utility.yul\":10004:10020   */\n      swap1\n      pop\n        /* \"#utility.yul\":9765:10026   */\n      swap3\n      swap2\n      pop\n      pop\n      jump\t// out\n        /* \"#utility.yul\":10032:10217   */\n    tag_229:\n        /* \"#utility.yul\":10072:10073   */\n      0x00\n        /* \"#utility.yul\":10089:10109   */\n      tag_345\n        /* \"#utility.yul\":10107:10108   */\n      dup3\n        /* \"#utility.yul\":10089:10109   */\n      tag_307\n      jump\t// in\n    tag_345:\n        /* \"#utility.yul\":10084:10109   */\n      swap2\n      pop\n        /* \"#utility.yul\":10123:10143   */\n      tag_346\n        /* \"#utility.yul\":10141:10142   */\n      dup4\n        /* \"#utility.yul\":10123:10143   */\n      tag_307\n      jump\t// in\n    tag_346:\n        /* \"#utility.yul\":10118:10143   */\n      swap3\n      pop\n        /* \"#utility.yul\":10162:10163   */\n      dup3\n        /* \"#utility.yul\":10152:10154   */\n      tag_347\n      jumpi\n        /* \"#utility.yul\":10167:10185   */\n      tag_348\n      tag_349\n      jump\t// in\n    tag_348:\n        /* \"#utility.yul\":10152:10154   */\n    tag_347:\n        /* \"#utility.yul\":10209:10210   */\n      dup3\n        /* \"#utility.yul\":10206:10207   */\n      dup3\n        /* \"#utility.yul\":10202:10211   */\n      div\n        /* \"#utility.yul\":10197:10211   */\n      swap1\n      pop\n        /* \"#utility.yul\":10074:10217   */\n      swap3\n      swap2\n      pop\n      pop\n      jump\t// out\n        /* \"#utility.yul\":10223:10571   */\n    tag_232:\n        /* \"#utility.yul\":10263:10270   */\n      0x00\n        /* \"#utility.yul\":10286:10306   */\n      tag_351\n        /* \"#utility.yul\":10304:10305   */\n      dup3\n        /* \"#utility.yul\":10286:10306   */\n      tag_307\n      jump\t// in\n    tag_351:\n        /* \"#utility.yul\":10281:10306   */\n      swap2\n      pop\n        /* \"#utility.yul\":10320:10340   */\n      tag_352\n        /* \"#utility.yul\":10338:10339   */\n      dup4\n        /* \"#utility.yul\":10320:10340   */\n      tag_307\n      jump\t// in\n    tag_352:\n        /* \"#utility.yul\":10315:10340   */\n      swap3\n      pop\n        /* \"#utility.yul\":10508:10509   */\n      dup2\n        /* \"#utility.yul\":10440:10506   */\n      0xffffffffffffffffffffffffffffffffffffffffffffffffffffffffffffffff\n        /* \"#utility.yul\":10436:10510   */\n      div\n        /* \"#utility.yul\":10433:10434   */\n      dup4\n        /* \"#utility.yul\":10430:10511   */\n      gt\n        /* \"#utility.yul\":10425:10426   */\n      dup3\n        /* \"#utility.yul\":10418:10427   */\n      iszero\n        /* \"#utility.yul\":10411:10428   */\n      iszero\n        /* \"#utility.yul\":10407:10512   */\n      and\n        /* \"#utility.yul\":10404:10406   */\n      iszero\n      tag_353\n      jumpi\n        /* \"#utility.yul\":10515:10533   */\n      tag_354\n      tag_343\n      jump\t// in\n    tag_354:\n        /* \"#utility.yul\":10404:10406   */\n    tag_353:\n        /* \"#utility.yul\":10563:10564   */\n      dup3\n        /* \"#utility.yul\":10560:10561   */\n      dup3\n        /* \"#utility.yul\":10556:10565   */\n      mul\n        /* \"#utility.yul\":10545:10565   */\n      swap1\n      pop\n        /* \"#utility.yul\":10271:10571   */\n      swap3\n      swap2\n      pop\n      pop\n      jump\t// out\n        /* \"#utility.yul\":10577:10768   */\n    tag_205:\n        /* \"#utility.yul\":10617:10621   */\n      0x00\n        /* \"#utility.yul\":10637:10657   */\n      tag_356\n        /* \"#utility.yul\":10655:10656   */\n      dup3\n        /* \"#utility.yul\":10637:10657   */\n      tag_307\n      jump\t// in\n    tag_356:\n        /* \"#utility.yul\":10632:10657   */\n      swap2\n      pop\n        /* \"#utility.yul\":10671:10691   */\n      tag_357\n        /* \"#utility.yul\":10689:10690   */\n      dup4\n        /* \"#utility.yul\":10671:10691   */\n      tag_307\n      jump\t// in\n    tag_357:\n        /* \"#utility.yul\":10666:10691   */\n      swap3\n      pop\n        /* \"#utility.yul\":10710:10711   */\n      dup3\n        /* \"#utility.yul\":10707:10708   */\n      dup3\n        /* \"#utility.yul\":10704:10712   */\n      lt\n        /* \"#utility.yul\":10701:10703   */\n      iszero\n      tag_358\n      jumpi\n        /* \"#utility.yul\":10715:10733   */\n      tag_359\n      tag_343\n      jump\t// in\n    tag_359:\n        /* \"#utility.yul\":10701:10703   */\n    tag_358:\n        /* \"#utility.yul\":10760:10761   */\n      dup3\n        /* \"#utility.yul\":10757:10758   */\n      dup3\n        /* \"#utility.yul\":10753:10762   */\n      sub\n        /* \"#utility.yul\":10745:10762   */\n      swap1\n      pop\n        /* \"#utility.yul\":10622:10768   */\n      swap3\n      swap2\n      pop\n      pop\n      jump\t// out\n        /* \"#utility.yul\":10774:10870   */\n    tag_258:\n        /* \"#utility.yul\":10811:10818   */\n      0x00\n        /* \"#utility.yul\":10840:10864   */\n      tag_361\n        /* \"#utility.yul\":10858:10863   */\n      dup3\n        /* \"#utility.yul\":10840:10864   */\n      tag_362\n      jump\t// in\n    tag_361:\n        /* \"#utility.yul\":10829:10864   */\n      swap1\n      pop\n        /* \"#utility.yul\":10819:10870   */\n      swap2\n      swap1\n      pop\n      jump\t// out\n        /* \"#utility.yul\":10876:10966   */\n    tag_363:\n        /* \"#utility.yul\":10910:10917   */\n      0x00\n        /* \"#utility.yul\":10953:10958   */\n      dup2\n        /* \"#utility.yul\":10946:10959   */\n      iszero\n        /* \"#utility.yul\":10939:10960   */\n      iszero\n        /* \"#utility.yul\":10928:10960   */\n      swap1\n      pop\n        /* \"#utility.yul\":10918:10966   */\n      swap2\n      swap1\n      pop\n      jump\t// out\n        /* \"#utility.yul\":10972:11098   */\n    tag_362:\n        /* \"#utility.yul\":11009:11016   */\n      0x00\n        /* \"#utility.yul\":11049:11091   */\n      0xffffffffffffffffffffffffffffffffffffffff\n        /* \"#utility.yul\":11042:11047   */\n      dup3\n        /* \"#utility.yul\":11038:11092   */\n      and\n        /* \"#utility.yul\":11027:11092   */\n      swap1\n      pop\n        /* \"#utility.yul\":11017:11098   */\n      swap2\n      swap1\n      pop\n      jump\t// out\n        /* \"#utility.yul\":11104:11181   */\n    tag_307:\n        /* \"#utility.yul\":11141:11148   */\n      0x00\n        /* \"#utility.yul\":11170:11175   */\n      dup2\n        /* \"#utility.yul\":11159:11175   */\n      swap1\n      pop\n        /* \"#utility.yul\":11149:11181   */\n      swap2\n      swap1\n      pop\n      jump\t// out\n        /* \"#utility.yul\":11187:11341   */\n    tag_262:\n        /* \"#utility.yul\":11251:11260   */\n      0x00\n        /* \"#utility.yul\":11284:11335   */\n      tag_368\n        /* \"#utility.yul\":11329:11334   */\n      dup3\n        /* \"#utility.yul\":11284:11335   */\n      tag_369\n      jump\t// in\n    tag_368:\n        /* \"#utility.yul\":11271:11335   */\n      swap1\n      pop\n        /* \"#utility.yul\":11261:11341   */\n      swap2\n      swap1\n      pop\n      jump\t// out\n        /* \"#utility.yul\":11347:11474   */\n    tag_369:\n        /* \"#utility.yul\":11411:11420   */\n      0x00\n        /* \"#utility.yul\":11444:11468   */\n      tag_371\n        /* \"#utility.yul\":11462:11467   */\n      dup3\n        /* \"#utility.yul\":11444:11468   */\n      tag_362\n      jump\t// in\n    tag_371:\n        /* \"#utility.yul\":11431:11468   */\n      swap1\n      pop\n        /* \"#utility.yul\":11421:11474   */\n      swap2\n      swap1\n      pop\n      jump\t// out\n        /* \"#utility.yul\":11480:11660   */\n    tag_343:\n        /* \"#utility.yul\":11528:11605   */\n      0x4e487b7100000000000000000000000000000000000000000000000000000000\n        /* \"#utility.yul\":11525:11526   */\n      0x00\n        /* \"#utility.yul\":11518:11606   */\n      mstore\n        /* \"#utility.yul\":11625:11629   */\n      0x11\n        /* \"#utility.yul\":11622:11623   */\n      0x04\n        /* \"#utility.yul\":11615:11630   */\n      mstore\n        /* \"#utility.yul\":11649:11653   */\n      0x24\n        /* \"#utility.yul\":11646:11647   */\n      0x00\n        /* \"#utility.yul\":11639:11654   */\n      revert\n        /* \"#utility.yul\":11666:11846   */\n    tag_349:\n        /* \"#utility.yul\":11714:11791   */\n      0x4e487b7100000000000000000000000000000000000000000000000000000000\n        /* \"#utility.yul\":11711:11712   */\n      0x00\n        /* \"#utility.yul\":11704:11792   */\n      mstore\n        /* \"#utility.yul\":11811:11815   */\n      0x12\n        /* \"#utility.yul\":11808:11809   */\n      0x04\n        /* \"#utility.yul\":11801:11816   */\n      mstore\n        /* \"#utility.yul\":11835:11839   */\n      0x24\n        /* \"#utility.yul\":11832:11833   */\n      0x00\n        /* \"#utility.yul\":11825:11840   */\n      revert\n        /* \"#utility.yul\":11852:12008   */\n    tag_268:\n        /* \"#utility.yul\":11992:12000   */\n      0x4c6f636b65640000000000000000000000000000000000000000000000000000\n        /* \"#utility.yul\":11988:11989   */\n      0x00\n        /* \"#utility.yul\":11980:11986   */\n      dup3\n        /* \"#utility.yul\":11976:11990   */\n      add\n        /* \"#utility.yul\":11969:12001   */\n      mstore\n        /* \"#utility.yul\":11958:12008   */\n      pop\n      jump\t// out\n        /* \"#utility.yul\":12014:12239   */\n    tag_273:\n        /* \"#utility.yul\":12154:12188   */\n      0x4f776e61626c653a206e6577206f776e657220697320746865207a65726f2061\n        /* \"#utility.yul\":12150:12151   */\n      0x00\n        /* \"#utility.yul\":12142:12148   */\n      dup3\n        /* \"#utility.yul\":12138:12152   */\n      add\n        /* \"#utility.yul\":12131:12189   */\n      mstore\n        /* \"#utility.yul\":12223:12231   */\n      0x6464726573730000000000000000000000000000000000000000000000000000\n        /* \"#utility.yul\":12218:12220   */\n      0x20\n        /* \"#utility.yul\":12210:12216   */\n      dup3\n        /* \"#utility.yul\":12206:12221   */\n      add\n        /* \"#utility.yul\":12199:12232   */\n      mstore\n        /* \"#utility.yul\":12120:12239   */\n      pop\n      jump\t// out\n        /* \"#utility.yul\":12245:12410   */\n    tag_278:\n        /* \"#utility.yul\":12385:12402   */\n      0x5472616e73666572206661696c65640000000000000000000000000000000000\n        /* \"#utility.yul\":12381:12382   */\n      0x00\n        /* \"#utility.yul\":12373:12379   */\n      dup3\n        /* \"#utility.yul\":12369:12383   */\n      add\n        /* \"#utility.yul\":12362:12403   */\n      mstore\n        /* \"#utility.yul\":12351:12410   */\n      pop\n      jump\t// out\n        /* \"#utility.yul\":12416:12586   */\n    tag_283:\n        /* \"#utility.yul\":12556:12578   */\n      0x496e73756666696369656e742062616c616e6365000000000000000000000000\n        /* \"#utility.yul\":12552:12553   */\n      0x00\n        /* \"#utility.yul\":12544:12550   */\n      dup3\n        /* \"#utility.yul\":12540:12554   */\n      add\n        /* \"#utility.yul\":12533:12579   */\n      mstore\n        /* \"#utility.yul\":12522:12586   */\n      pop\n      jump\t// out\n        /* \"#utility.yul\":12592:12773   */\n    tag_288:\n        /* \"#utility.yul\":12732:12765   */\n      0x416d6f756e742073686f756c642067726561746572207468616e207a65726f00\n        /* \"#utility.yul\":12728:12729   */\n      0x00\n        /* \"#utility.yul\":12720:12726   */\n      dup3\n        /* \"#utility.yul\":12716:12730   */\n      add\n        /* \"#utility.yul\":12709:12766   */\n      mstore\n        /* \"#utility.yul\":12698:12773   */\n      pop\n      jump\t// out\n        /* \"#utility.yul\":12779:12961   */\n    tag_293:\n        /* \"#utility.yul\":12919:12953   */\n      0x4f776e61626c653a2063616c6c6572206973206e6f7420746865206f776e6572\n        /* \"#utility.yul\":12915:12916   */\n      0x00\n        /* \"#utility.yul\":12907:12913   */\n      dup3\n        /* \"#utility.yul\":12903:12917   */\n      add\n        /* \"#utility.yul\":12896:12954   */\n      mstore\n        /* \"#utility.yul\":12885:12961   */\n      pop\n      jump\t// out\n        /* \"#utility.yul\":12967:13192   */\n    tag_298:\n        /* \"#utility.yul\":13107:13141   */\n      0x5468652063757272656e74207374616b696e6720616374697669747920686173\n        /* \"#utility.yul\":13103:13104   */\n      0x00\n        /* \"#utility.yul\":13095:13101   */\n      dup3\n        /* \"#utility.yul\":13091:13105   */\n      add\n        /* \"#utility.yul\":13084:13142   */\n      mstore\n        /* \"#utility.yul\":13176:13184   */\n      0x20656e6465640000000000000000000000000000000000000000000000000000\n        /* \"#utility.yul\":13171:13173   */\n      0x20\n        /* \"#utility.yul\":13163:13169   */\n      dup3\n        /* \"#utility.yul\":13159:13174   */\n      add\n        /* \"#utility.yul\":13152:13185   */\n      mstore\n        /* \"#utility.yul\":13073:13192   */\n      pop\n      jump\t// out\n        /* \"#utility.yul\":13198:13379   */\n    tag_303:\n        /* \"#utility.yul\":13338:13371   */\n      0x5265656e7472616e637947756172643a207265656e7472616e742063616c6c00\n        /* \"#utility.yul\":13334:13335   */\n      0x00\n        /* \"#utility.yul\":13326:13332   */\n      dup3\n        /* \"#utility.yul\":13322:13336   */\n      add\n        /* \"#utility.yul\":13315:13372   */\n      mstore\n        /* \"#utility.yul\":13304:13379   */\n      pop\n      jump\t// out\n        /* \"#utility.yul\":13385:13507   */\n    tag_237:\n        /* \"#utility.yul\":13458:13482   */\n      tag_383\n        /* \"#utility.yul\":13476:13481   */\n      dup2\n        /* \"#utility.yul\":13458:13482   */\n      tag_258\n      jump\t// in\n    tag_383:\n        /* \"#utility.yul\":13451:13456   */\n      dup2\n        /* \"#utility.yul\":13448:13483   */\n      eq\n        /* \"#utility.yul\":13438:13440   */\n      tag_384\n      jumpi\n        /* \"#utility.yul\":13497:13498   */\n      0x00\n        /* \"#utility.yul\":13494:13495   */\n      dup1\n        /* \"#utility.yul\":13487:13499   */\n      revert\n        /* \"#utility.yul\":13438:13440   */\n    tag_384:\n        /* \"#utility.yul\":13428:13507   */\n      pop\n      jump\t// out\n        /* \"#utility.yul\":13513:13629   */\n    tag_241:\n        /* \"#utility.yul\":13583:13604   */\n      tag_386\n        /* \"#utility.yul\":13598:13603   */\n      dup2\n        /* \"#utility.yul\":13583:13604   */\n      tag_363\n      jump\t// in\n    tag_386:\n        /* \"#utility.yul\":13576:13581   */\n      dup2\n        /* \"#utility.yul\":13573:13605   */\n      eq\n        /* \"#utility.yul\":13563:13565   */\n      tag_387\n      jumpi\n        /* \"#utility.yul\":13619:13620   */\n      0x00\n        /* \"#utility.yul\":13616:13617   */\n      dup1\n        /* \"#utility.yul\":13609:13621   */\n      revert\n        /* \"#utility.yul\":13563:13565   */\n    tag_387:\n        /* \"#utility.yul\":13553:13629   */\n      pop\n      jump\t// out\n        /* \"#utility.yul\":13635:13757   */\n    tag_245:\n        /* \"#utility.yul\":13708:13732   */\n      tag_389\n        /* \"#utility.yul\":13726:13731   */\n      dup2\n        /* \"#utility.yul\":13708:13732   */\n      tag_307\n      jump\t// in\n    tag_389:\n        /* \"#utility.yul\":13701:13706   */\n      dup2\n        /* \"#utility.yul\":13698:13733   */\n      eq\n        /* \"#utility.yul\":13688:13690   */\n      tag_390\n      jumpi\n        /* \"#utility.yul\":13747:13748   */\n      0x00\n        /* \"#utility.yul\":13744:13745   */\n      dup1\n        /* \"#utility.yul\":13737:13749   */\n      revert\n        /* \"#utility.yul\":13688:13690   */\n    tag_390:\n        /* \"#utility.yul\":13678:13757   */\n      pop\n      jump\t// out\n\n    auxdata: 0xa2646970667358221220cdae40424d4768ee123e3d278a06c170ce9dedcb6f508ea500bf9311e12512d364736f6c63430008040033\n}\n",
				"bytecode": {
					"linkReferences": {},
					"object": "608060405262015180600c553480156200001857600080fd5b5060405162001c4538038062001c4583398181016040528101906200003e919062000200565b6200005e620000526200010660201b60201c565b6200010e60201b60201c565b6001808190555083600260006101000a81548173ffffffffffffffffffffffffffffffffffffffff021916908373ffffffffffffffffffffffffffffffffffffffff16021790555082600360006101000a81548173ffffffffffffffffffffffffffffffffffffffff021916908373ffffffffffffffffffffffffffffffffffffffff16021790555081600481905550806005819055504260068190555050505050620002de565b600033905090565b60008060009054906101000a900473ffffffffffffffffffffffffffffffffffffffff169050816000806101000a81548173ffffffffffffffffffffffffffffffffffffffff021916908373ffffffffffffffffffffffffffffffffffffffff1602179055508173ffffffffffffffffffffffffffffffffffffffff168173ffffffffffffffffffffffffffffffffffffffff167f8be0079c531659141344cd1fd0a4f28419497f9722a3daafe3b4186f6b6457e060405160405180910390a35050565b600081519050620001e381620002aa565b92915050565b600081519050620001fa81620002c4565b92915050565b600080600080608085870312156200021757600080fd5b60006200022787828801620001d2565b94505060206200023a87828801620001d2565b93505060406200024d87828801620001e9565b92505060606200026087828801620001e9565b91505092959194509250565b6000620002798262000280565b9050919050565b600073ffffffffffffffffffffffffffffffffffffffff82169050919050565b6000819050919050565b620002b5816200026c565b8114620002c157600080fd5b50565b620002cf81620002a0565b8114620002db57600080fd5b50565b61195780620002ee6000396000f3fe608060405234801561001057600080fd5b50600436106101425760003560e01c80638aee8127116100b8578063c771c3901161007c578063c771c3901461033f578063ee947a7c1461035b578063f2fde38b14610379578063f7c618c114610395578063fc0c546a146103b3578063fc71ae8c146103d157610142565b80638aee8127146102c15780638b0e9f3f146102dd5780638da5cb5b146102fb578063a694fc3a14610319578063b88a802f1461033557610142565b80635d90bad91161010a5780635d90bad9146102115780636abfd1831461022d57806370a082311461024b578063715018a61461027b578063750142e61461028557806380c0976e146102a357610142565b8063154a78b5146101475780631683153d1461016557806345bc78ab14610195578063583d42fd146101c55780635d3eea91146101f5575b600080fd5b61014f6103ed565b60405161015c919061153d565b60405180910390f35b61017f600480360381019061017a91906111e7565b6103f3565b60405161018c919061153d565b60405180910390f35b6101af60048036038101906101aa91906111e7565b61040b565b6040516101bc919061153d565b60405180910390f35b6101df60048036038101906101da91906111e7565b610423565b6040516101ec919061153d565b60405180910390f35b61020f600480360381019061020a9190611239565b61043b565b005b61022b60048036038101906102269190611239565b61070e565b005b610235610720565b604051610242919061153d565b60405180910390f35b610265600480360381019061026091906111e7565b610726565b604051610272919061153d565b60405180910390f35b61028361076f565b005b61028d610783565b60405161029a919061153d565b60405180910390f35b6102ab610789565b6040516102b8919061153d565b60405180910390f35b6102db60048036038101906102d691906111e7565b61078f565b005b6102e56107db565b6040516102f2919061153d565b60405180910390f35b6103036107e1565b60405161031091906113a7565b60405180910390f35b610333600480360381019061032e9190611239565b61080a565b005b61033d610ba2565b005b61035960048036038101906103549190611239565b610de7565b005b610363610df9565b604051610370919061153d565b60405180910390f35b610393600480360381019061038e91906111e7565b610dff565b005b61039d610e83565b6040516103aa9190611422565b60405180910390f35b6103bb610ea9565b6040516103c89190611422565b60405180910390f35b6103eb60048036038101906103e69190611239565b610ecf565b005b60045481565b60096020528060005260406000206000915090505481565b60076020528060005260406000206000915090505481565b60086020528060005260406000206000915090505481565b610443610ee1565b6005546006546104539190611569565b421015610495576040517f08c379a000000000000000000000000000000000000000000000000000000000815260040161048c9061143d565b60405180910390fd5b80600760003373ffffffffffffffffffffffffffffffffffffffff1673ffffffffffffffffffffffffffffffffffffffff168152602001908152602001600020541015610517576040517f08c379a000000000000000000000000000000000000000000000000000000000815260040161050e9061149d565b60405180910390fd5b600260009054906101000a900473ffffffffffffffffffffffffffffffffffffffff1673ffffffffffffffffffffffffffffffffffffffff1663a9059cbb33836040518363ffffffff1660e01b81526004016105749291906113f9565b602060405180830381600087803b15801561058e57600080fd5b505af11580156105a2573d6000803e3d6000fd5b505050506040513d601f19601f820116820180604052508101906105c69190611210565b610605576040517f08c379a00000000000000000000000000000000000000000000000000000000081526004016105fc9061147d565b60405180910390fd5b61065781600760003373ffffffffffffffffffffffffffffffffffffffff1673ffffffffffffffffffffffffffffffffffffffff16815260200190815260200160002054610f3190919063ffffffff16565b600760003373ffffffffffffffffffffffffffffffffffffffff1673ffffffffffffffffffffffffffffffffffffffff168152602001908152602001600020819055506106af81600a54610f3190919063ffffffff16565b600a819055503373ffffffffffffffffffffffffffffffffffffffff167fb24546d975e2628748efc9aced80665e0fad66272033e5c0ea25fd3afac99795826040516106fb919061153d565b60405180910390a261070b610f47565b50565b610716610f50565b8060068190555050565b60065481565b6000600760008373ffffffffffffffffffffffffffffffffffffffff1673ffffffffffffffffffffffffffffffffffffffff168152602001908152602001600020549050919050565b610777610f50565b6107816000610fce565b565b600b5481565b600c5481565b610797610f50565b80600360006101000a81548173ffffffffffffffffffffffffffffffffffffffff021916908373ffffffffffffffffffffffffffffffffffffffff16021790555050565b600a5481565b60008060009054906101000a900473ffffffffffffffffffffffffffffffffffffffff16905090565b610812610ee1565b6005546006546108229190611569565b4210610863576040517f08c379a000000000000000000000000000000000000000000000000000000000815260040161085a906114fd565b60405180910390fd5b600081116108a6576040517f08c379a000000000000000000000000000000000000000000000000000000000815260040161089d906114bd565b60405180910390fd5b600260009054906101000a900473ffffffffffffffffffffffffffffffffffffffff1673ffffffffffffffffffffffffffffffffffffffff166323b872dd3330846040518463ffffffff1660e01b8152600401610905939291906113c2565b602060405180830381600087803b15801561091f57600080fd5b505af1158015610933573d6000803e3d6000fd5b505050506040513d601f19601f820116820180604052508101906109579190611210565b610996576040517f08c379a000000000000000000000000000000000000000000000000000000000815260040161098d9061147d565b60405180910390fd5b6109e881600760003373ffffffffffffffffffffffffffffffffffffffff1673ffffffffffffffffffffffffffffffffffffffff1681526020019081526020016000205461109290919063ffffffff16565b600760003373ffffffffffffffffffffffffffffffffffffffff1673ffffffffffffffffffffffffffffffffffffffff1681526020019081526020016000208190555042600860003373ffffffffffffffffffffffffffffffffffffffff1673ffffffffffffffffffffffffffffffffffffffff168152602001908152602001600020819055506000610a7b33836110a8565b9050610acf81600960003373ffffffffffffffffffffffffffffffffffffffff1673ffffffffffffffffffffffffffffffffffffffff1681526020019081526020016000205461109290919063ffffffff16565b600960003373ffffffffffffffffffffffffffffffffffffffff1673ffffffffffffffffffffffffffffffffffffffff16815260200190815260200160002081905550610b2782600a5461109290919063ffffffff16565b600a81905550610b4281600b5461109290919063ffffffff16565b600b819055503373ffffffffffffffffffffffffffffffffffffffff167febedb8b3c678666e7f36970bc8f57abf6d8fa2e828c0da91ea5b75bf68ed101a83604051610b8e919061153d565b60405180910390a250610b9f610f47565b50565b610baa610ee1565b600554600654610bba9190611569565b421015610bfc576040517f08c379a0000000000000000000000000000000000000000000000000000000008152600401610bf39061143d565b60405180910390fd5b6000600960003373ffffffffffffffffffffffffffffffffffffffff1673ffffffffffffffffffffffffffffffffffffffff168152602001908152602001600020549050600360009054906101000a900473ffffffffffffffffffffffffffffffffffffffff1673ffffffffffffffffffffffffffffffffffffffff1663a9059cbb33836040518363ffffffff1660e01b8152600401610c9d9291906113f9565b602060405180830381600087803b158015610cb757600080fd5b505af1158015610ccb573d6000803e3d6000fd5b505050506040513d601f19601f82011682018060405250810190610cef9190611210565b610d2e576040517f08c379a0000000000000000000000000000000000000000000000000000000008152600401610d259061147d565b60405180910390fd5b6000600960003373ffffffffffffffffffffffffffffffffffffffff1673ffffffffffffffffffffffffffffffffffffffff16815260200190815260200160002081905550610d8881600b54610f3190919063ffffffff16565b600b819055503373ffffffffffffffffffffffffffffffffffffffff167fba8de60c3403ec381d1d484652ea1980e3c3e56359195c92525bff4ce47ad98e82604051610dd4919061153d565b60405180910390a250610de5610f47565b565b610def610f50565b8060058190555050565b60055481565b610e07610f50565b600073ffffffffffffffffffffffffffffffffffffffff168173ffffffffffffffffffffffffffffffffffffffff161415610e77576040517f08c379a0000000000000000000000000000000000000000000000000000000008152600401610e6e9061145d565b60405180910390fd5b610e8081610fce565b50565b600360009054906101000a900473ffffffffffffffffffffffffffffffffffffffff1681565b600260009054906101000a900473ffffffffffffffffffffffffffffffffffffffff1681565b610ed7610f50565b8060048190555050565b60026001541415610f27576040517f08c379a0000000000000000000000000000000000000000000000000000000008152600401610f1e9061151d565b60405180910390fd5b6002600181905550565b60008183610f3f919061164a565b905092915050565b60018081905550565b610f58611174565b73ffffffffffffffffffffffffffffffffffffffff16610f766107e1565b73ffffffffffffffffffffffffffffffffffffffff1614610fcc576040517f08c379a0000000000000000000000000000000000000000000000000000000008152600401610fc3906114dd565b60405180910390fd5b565b60008060009054906101000a900473ffffffffffffffffffffffffffffffffffffffff169050816000806101000a81548173ffffffffffffffffffffffffffffffffffffffff021916908373ffffffffffffffffffffffffffffffffffffffff1602179055508173ffffffffffffffffffffffffffffffffffffffff168173ffffffffffffffffffffffffffffffffffffffff167f8be0079c531659141344cd1fd0a4f28419497f9722a3daafe3b4186f6b6457e060405160405180910390a35050565b600081836110a09190611569565b905092915050565b600080611113600860008673ffffffffffffffffffffffffffffffffffffffff1673ffffffffffffffffffffffffffffffffffffffff1681526020019081526020016000205461110560065460055461109290919063ffffffff16565b610f3190919063ffffffff16565b90506000611167600c546111598461114b60045461113d620f42408b61117c90919063ffffffff16565b61119290919063ffffffff16565b61119290919063ffffffff16565b61117c90919063ffffffff16565b9050809250505092915050565b600033905090565b6000818361118a91906115bf565b905092915050565b600081836111a091906115f0565b905092915050565b6000813590506111b7816118dc565b92915050565b6000815190506111cc816118f3565b92915050565b6000813590506111e18161190a565b92915050565b6000602082840312156111f957600080fd5b6000611207848285016111a8565b91505092915050565b60006020828403121561122257600080fd5b6000611230848285016111bd565b91505092915050565b60006020828403121561124b57600080fd5b6000611259848285016111d2565b91505092915050565b61126b8161167e565b82525050565b61127a816116c6565b82525050565b600061128d600683611558565b915061129882611748565b602082019050919050565b60006112b0602683611558565b91506112bb82611771565b604082019050919050565b60006112d3600f83611558565b91506112de826117c0565b602082019050919050565b60006112f6601483611558565b9150611301826117e9565b602082019050919050565b6000611319601f83611558565b915061132482611812565b602082019050919050565b600061133c602083611558565b91506113478261183b565b602082019050919050565b600061135f602683611558565b915061136a82611864565b604082019050919050565b6000611382601f83611558565b915061138d826118b3565b602082019050919050565b6113a1816116bc565b82525050565b60006020820190506113bc6000830184611262565b92915050565b60006060820190506113d76000830186611262565b6113e46020830185611262565b6113f16040830184611398565b949350505050565b600060408201905061140e6000830185611262565b61141b6020830184611398565b9392505050565b60006020820190506114376000830184611271565b92915050565b6000602082019050818103600083015261145681611280565b9050919050565b60006020820190508181036000830152611476816112a3565b9050919050565b60006020820190508181036000830152611496816112c6565b9050919050565b600060208201905081810360008301526114b6816112e9565b9050919050565b600060208201905081810360008301526114d68161130c565b9050919050565b600060208201905081810360008301526114f68161132f565b9050919050565b6000602082019050818103600083015261151681611352565b9050919050565b6000602082019050818103600083015261153681611375565b9050919050565b60006020820190506115526000830184611398565b92915050565b600082825260208201905092915050565b6000611574826116bc565b915061157f836116bc565b9250827fffffffffffffffffffffffffffffffffffffffffffffffffffffffffffffffff038211156115b4576115b36116ea565b5b828201905092915050565b60006115ca826116bc565b91506115d5836116bc565b9250826115e5576115e4611719565b5b828204905092915050565b60006115fb826116bc565b9150611606836116bc565b9250817fffffffffffffffffffffffffffffffffffffffffffffffffffffffffffffffff048311821515161561163f5761163e6116ea565b5b828202905092915050565b6000611655826116bc565b9150611660836116bc565b925082821015611673576116726116ea565b5b828203905092915050565b60006116898261169c565b9050919050565b60008115159050919050565b600073ffffffffffffffffffffffffffffffffffffffff82169050919050565b6000819050919050565b60006116d1826116d8565b9050919050565b60006116e38261169c565b9050919050565b7f4e487b7100000000000000000000000000000000000000000000000000000000600052601160045260246000fd5b7f4e487b7100000000000000000000000000000000000000000000000000000000600052601260045260246000fd5b7f4c6f636b65640000000000000000000000000000000000000000000000000000600082015250565b7f4f776e61626c653a206e6577206f776e657220697320746865207a65726f206160008201527f6464726573730000000000000000000000000000000000000000000000000000602082015250565b7f5472616e73666572206661696c65640000000000000000000000000000000000600082015250565b7f496e73756666696369656e742062616c616e6365000000000000000000000000600082015250565b7f416d6f756e742073686f756c642067726561746572207468616e207a65726f00600082015250565b7f4f776e61626c653a2063616c6c6572206973206e6f7420746865206f776e6572600082015250565b7f5468652063757272656e74207374616b696e672061637469766974792068617360008201527f20656e6465640000000000000000000000000000000000000000000000000000602082015250565b7f5265656e7472616e637947756172643a207265656e7472616e742063616c6c00600082015250565b6118e58161167e565b81146118f057600080fd5b50565b6118fc81611690565b811461190757600080fd5b50565b611913816116bc565b811461191e57600080fd5b5056fea2646970667358221220cdae40424d4768ee123e3d278a06c170ce9dedcb6f508ea500bf9311e12512d364736f6c63430008040033",
					"opcodes": "PUSH1 0x80 PUSH1 0x40 MSTORE PUSH3 0x15180 PUSH1 0xC SSTORE CALLVALUE DUP1 ISZERO PUSH3 0x18 JUMPI PUSH1 0x0 DUP1 REVERT JUMPDEST POP PUSH1 0x40 MLOAD PUSH3 0x1C45 CODESIZE SUB DUP1 PUSH3 0x1C45 DUP4 CODECOPY DUP2 DUP2 ADD PUSH1 0x40 MSTORE DUP2 ADD SWAP1 PUSH3 0x3E SWAP2 SWAP1 PUSH3 0x200 JUMP JUMPDEST PUSH3 0x5E PUSH3 0x52 PUSH3 0x106 PUSH1 0x20 SHL PUSH1 0x20 SHR JUMP JUMPDEST PUSH3 0x10E PUSH1 0x20 SHL PUSH1 0x20 SHR JUMP JUMPDEST PUSH1 0x1 DUP1 DUP2 SWAP1 SSTORE POP DUP4 PUSH1 0x2 PUSH1 0x0 PUSH2 0x100 EXP DUP2 SLOAD DUP2 PUSH20 0xFFFFFFFFFFFFFFFFFFFFFFFFFFFFFFFFFFFFFFFF MUL NOT AND SWAP1 DUP4 PUSH20 0xFFFFFFFFFFFFFFFFFFFFFFFFFFFFFFFFFFFFFFFF AND MUL OR SWAP1 SSTORE POP DUP3 PUSH1 0x3 PUSH1 0x0 PUSH2 0x100 EXP DUP2 SLOAD DUP2 PUSH20 0xFFFFFFFFFFFFFFFFFFFFFFFFFFFFFFFFFFFFFFFF MUL NOT AND SWAP1 DUP4 PUSH20 0xFFFFFFFFFFFFFFFFFFFFFFFFFFFFFFFFFFFFFFFF AND MUL OR SWAP1 SSTORE POP DUP2 PUSH1 0x4 DUP2 SWAP1 SSTORE POP DUP1 PUSH1 0x5 DUP2 SWAP1 SSTORE POP TIMESTAMP PUSH1 0x6 DUP2 SWAP1 SSTORE POP POP POP POP POP PUSH3 0x2DE JUMP JUMPDEST PUSH1 0x0 CALLER SWAP1 POP SWAP1 JUMP JUMPDEST PUSH1 0x0 DUP1 PUSH1 0x0 SWAP1 SLOAD SWAP1 PUSH2 0x100 EXP SWAP1 DIV PUSH20 0xFFFFFFFFFFFFFFFFFFFFFFFFFFFFFFFFFFFFFFFF AND SWAP1 POP DUP2 PUSH1 0x0 DUP1 PUSH2 0x100 EXP DUP2 SLOAD DUP2 PUSH20 0xFFFFFFFFFFFFFFFFFFFFFFFFFFFFFFFFFFFFFFFF MUL NOT AND SWAP1 DUP4 PUSH20 0xFFFFFFFFFFFFFFFFFFFFFFFFFFFFFFFFFFFFFFFF AND MUL OR SWAP1 SSTORE POP DUP2 PUSH20 0xFFFFFFFFFFFFFFFFFFFFFFFFFFFFFFFFFFFFFFFF AND DUP2 PUSH20 0xFFFFFFFFFFFFFFFFFFFFFFFFFFFFFFFFFFFFFFFF AND PUSH32 0x8BE0079C531659141344CD1FD0A4F28419497F9722A3DAAFE3B4186F6B6457E0 PUSH1 0x40 MLOAD PUSH1 0x40 MLOAD DUP1 SWAP2 SUB SWAP1 LOG3 POP POP JUMP JUMPDEST PUSH1 0x0 DUP2 MLOAD SWAP1 POP PUSH3 0x1E3 DUP2 PUSH3 0x2AA JUMP JUMPDEST SWAP3 SWAP2 POP POP JUMP JUMPDEST PUSH1 0x0 DUP2 MLOAD SWAP1 POP PUSH3 0x1FA DUP2 PUSH3 0x2C4 JUMP JUMPDEST SWAP3 SWAP2 POP POP JUMP JUMPDEST PUSH1 0x0 DUP1 PUSH1 0x0 DUP1 PUSH1 0x80 DUP6 DUP8 SUB SLT ISZERO PUSH3 0x217 JUMPI PUSH1 0x0 DUP1 REVERT JUMPDEST PUSH1 0x0 PUSH3 0x227 DUP8 DUP3 DUP9 ADD PUSH3 0x1D2 JUMP JUMPDEST SWAP5 POP POP PUSH1 0x20 PUSH3 0x23A DUP8 DUP3 DUP9 ADD PUSH3 0x1D2 JUMP JUMPDEST SWAP4 POP POP PUSH1 0x40 PUSH3 0x24D DUP8 DUP3 DUP9 ADD PUSH3 0x1E9 JUMP JUMPDEST SWAP3 POP POP PUSH1 0x60 PUSH3 0x260 DUP8 DUP3 DUP9 ADD PUSH3 0x1E9 JUMP JUMPDEST SWAP2 POP POP SWAP3 SWAP6 SWAP2 SWAP5 POP SWAP3 POP JUMP JUMPDEST PUSH1 0x0 PUSH3 0x279 DUP3 PUSH3 0x280 JUMP JUMPDEST SWAP1 POP SWAP2 SWAP1 POP JUMP JUMPDEST PUSH1 0x0 PUSH20 0xFFFFFFFFFFFFFFFFFFFFFFFFFFFFFFFFFFFFFFFF DUP3 AND SWAP1 POP SWAP2 SWAP1 POP JUMP JUMPDEST PUSH1 0x0 DUP2 SWAP1 POP SWAP2 SWAP1 POP JUMP JUMPDEST PUSH3 0x2B5 DUP2 PUSH3 0x26C JUMP JUMPDEST DUP2 EQ PUSH3 0x2C1 JUMPI PUSH1 0x0 DUP1 REVERT JUMPDEST POP JUMP JUMPDEST PUSH3 0x2CF DUP2 PUSH3 0x2A0 JUMP JUMPDEST DUP2 EQ PUSH3 0x2DB JUMPI PUSH1 0x0 DUP1 REVERT JUMPDEST POP JUMP JUMPDEST PUSH2 0x1957 DUP1 PUSH3 0x2EE PUSH1 0x0 CODECOPY PUSH1 0x0 RETURN INVALID PUSH1 0x80 PUSH1 0x40 MSTORE CALLVALUE DUP1 ISZERO PUSH2 0x10 JUMPI PUSH1 0x0 DUP1 REVERT JUMPDEST POP PUSH1 0x4 CALLDATASIZE LT PUSH2 0x142 JUMPI PUSH1 0x0 CALLDATALOAD PUSH1 0xE0 SHR DUP1 PUSH4 0x8AEE8127 GT PUSH2 0xB8 JUMPI DUP1 PUSH4 0xC771C390 GT PUSH2 0x7C JUMPI DUP1 PUSH4 0xC771C390 EQ PUSH2 0x33F JUMPI DUP1 PUSH4 0xEE947A7C EQ PUSH2 0x35B JUMPI DUP1 PUSH4 0xF2FDE38B EQ PUSH2 0x379 JUMPI DUP1 PUSH4 0xF7C618C1 EQ PUSH2 0x395 JUMPI DUP1 PUSH4 0xFC0C546A EQ PUSH2 0x3B3 JUMPI DUP1 PUSH4 0xFC71AE8C EQ PUSH2 0x3D1 JUMPI PUSH2 0x142 JUMP JUMPDEST DUP1 PUSH4 0x8AEE8127 EQ PUSH2 0x2C1 JUMPI DUP1 PUSH4 0x8B0E9F3F EQ PUSH2 0x2DD JUMPI DUP1 PUSH4 0x8DA5CB5B EQ PUSH2 0x2FB JUMPI DUP1 PUSH4 0xA694FC3A EQ PUSH2 0x319 JUMPI DUP1 PUSH4 0xB88A802F EQ PUSH2 0x335 JUMPI PUSH2 0x142 JUMP JUMPDEST DUP1 PUSH4 0x5D90BAD9 GT PUSH2 0x10A JUMPI DUP1 PUSH4 0x5D90BAD9 EQ PUSH2 0x211 JUMPI DUP1 PUSH4 0x6ABFD183 EQ PUSH2 0x22D JUMPI DUP1 PUSH4 0x70A08231 EQ PUSH2 0x24B JUMPI DUP1 PUSH4 0x715018A6 EQ PUSH2 0x27B JUMPI DUP1 PUSH4 0x750142E6 EQ PUSH2 0x285 JUMPI DUP1 PUSH4 0x80C0976E EQ PUSH2 0x2A3 JUMPI PUSH2 0x142 JUMP JUMPDEST DUP1 PUSH4 0x154A78B5 EQ PUSH2 0x147 JUMPI DUP1 PUSH4 0x1683153D EQ PUSH2 0x165 JUMPI DUP1 PUSH4 0x45BC78AB EQ PUSH2 0x195 JUMPI DUP1 PUSH4 0x583D42FD EQ PUSH2 0x1C5 JUMPI DUP1 PUSH4 0x5D3EEA91 EQ PUSH2 0x1F5 JUMPI JUMPDEST PUSH1 0x0 DUP1 REVERT JUMPDEST PUSH2 0x14F PUSH2 0x3ED JUMP JUMPDEST PUSH1 0x40 MLOAD PUSH2 0x15C SWAP2 SWAP1 PUSH2 0x153D JUMP JUMPDEST PUSH1 0x40 MLOAD DUP1 SWAP2 SUB SWAP1 RETURN JUMPDEST PUSH2 0x17F PUSH1 0x4 DUP1 CALLDATASIZE SUB DUP2 ADD SWAP1 PUSH2 0x17A SWAP2 SWAP1 PUSH2 0x11E7 JUMP JUMPDEST PUSH2 0x3F3 JUMP JUMPDEST PUSH1 0x40 MLOAD PUSH2 0x18C SWAP2 SWAP1 PUSH2 0x153D JUMP JUMPDEST PUSH1 0x40 MLOAD DUP1 SWAP2 SUB SWAP1 RETURN JUMPDEST PUSH2 0x1AF PUSH1 0x4 DUP1 CALLDATASIZE SUB DUP2 ADD SWAP1 PUSH2 0x1AA SWAP2 SWAP1 PUSH2 0x11E7 JUMP JUMPDEST PUSH2 0x40B JUMP JUMPDEST PUSH1 0x40 MLOAD PUSH2 0x1BC SWAP2 SWAP1 PUSH2 0x153D JUMP JUMPDEST PUSH1 0x40 MLOAD DUP1 SWAP2 SUB SWAP1 RETURN JUMPDEST PUSH2 0x1DF PUSH1 0x4 DUP1 CALLDATASIZE SUB DUP2 ADD SWAP1 PUSH2 0x1DA SWAP2 SWAP1 PUSH2 0x11E7 JUMP JUMPDEST PUSH2 0x423 JUMP JUMPDEST PUSH1 0x40 MLOAD PUSH2 0x1EC SWAP2 SWAP1 PUSH2 0x153D JUMP JUMPDEST PUSH1 0x40 MLOAD DUP1 SWAP2 SUB SWAP1 RETURN JUMPDEST PUSH2 0x20F PUSH1 0x4 DUP1 CALLDATASIZE SUB DUP2 ADD SWAP1 PUSH2 0x20A SWAP2 SWAP1 PUSH2 0x1239 JUMP JUMPDEST PUSH2 0x43B JUMP JUMPDEST STOP JUMPDEST PUSH2 0x22B PUSH1 0x4 DUP1 CALLDATASIZE SUB DUP2 ADD SWAP1 PUSH2 0x226 SWAP2 SWAP1 PUSH2 0x1239 JUMP JUMPDEST PUSH2 0x70E JUMP JUMPDEST STOP JUMPDEST PUSH2 0x235 PUSH2 0x720 JUMP JUMPDEST PUSH1 0x40 MLOAD PUSH2 0x242 SWAP2 SWAP1 PUSH2 0x153D JUMP JUMPDEST PUSH1 0x40 MLOAD DUP1 SWAP2 SUB SWAP1 RETURN JUMPDEST PUSH2 0x265 PUSH1 0x4 DUP1 CALLDATASIZE SUB DUP2 ADD SWAP1 PUSH2 0x260 SWAP2 SWAP1 PUSH2 0x11E7 JUMP JUMPDEST PUSH2 0x726 JUMP JUMPDEST PUSH1 0x40 MLOAD PUSH2 0x272 SWAP2 SWAP1 PUSH2 0x153D JUMP JUMPDEST PUSH1 0x40 MLOAD DUP1 SWAP2 SUB SWAP1 RETURN JUMPDEST PUSH2 0x283 PUSH2 0x76F JUMP JUMPDEST STOP JUMPDEST PUSH2 0x28D PUSH2 0x783 JUMP JUMPDEST PUSH1 0x40 MLOAD PUSH2 0x29A SWAP2 SWAP1 PUSH2 0x153D JUMP JUMPDEST PUSH1 0x40 MLOAD DUP1 SWAP2 SUB SWAP1 RETURN JUMPDEST PUSH2 0x2AB PUSH2 0x789 JUMP JUMPDEST PUSH1 0x40 MLOAD PUSH2 0x2B8 SWAP2 SWAP1 PUSH2 0x153D JUMP JUMPDEST PUSH1 0x40 MLOAD DUP1 SWAP2 SUB SWAP1 RETURN JUMPDEST PUSH2 0x2DB PUSH1 0x4 DUP1 CALLDATASIZE SUB DUP2 ADD SWAP1 PUSH2 0x2D6 SWAP2 SWAP1 PUSH2 0x11E7 JUMP JUMPDEST PUSH2 0x78F JUMP JUMPDEST STOP JUMPDEST PUSH2 0x2E5 PUSH2 0x7DB JUMP JUMPDEST PUSH1 0x40 MLOAD PUSH2 0x2F2 SWAP2 SWAP1 PUSH2 0x153D JUMP JUMPDEST PUSH1 0x40 MLOAD DUP1 SWAP2 SUB SWAP1 RETURN JUMPDEST PUSH2 0x303 PUSH2 0x7E1 JUMP JUMPDEST PUSH1 0x40 MLOAD PUSH2 0x310 SWAP2 SWAP1 PUSH2 0x13A7 JUMP JUMPDEST PUSH1 0x40 MLOAD DUP1 SWAP2 SUB SWAP1 RETURN JUMPDEST PUSH2 0x333 PUSH1 0x4 DUP1 CALLDATASIZE SUB DUP2 ADD SWAP1 PUSH2 0x32E SWAP2 SWAP1 PUSH2 0x1239 JUMP JUMPDEST PUSH2 0x80A JUMP JUMPDEST STOP JUMPDEST PUSH2 0x33D PUSH2 0xBA2 JUMP JUMPDEST STOP JUMPDEST PUSH2 0x359 PUSH1 0x4 DUP1 CALLDATASIZE SUB DUP2 ADD SWAP1 PUSH2 0x354 SWAP2 SWAP1 PUSH2 0x1239 JUMP JUMPDEST PUSH2 0xDE7 JUMP JUMPDEST STOP JUMPDEST PUSH2 0x363 PUSH2 0xDF9 JUMP JUMPDEST PUSH1 0x40 MLOAD PUSH2 0x370 SWAP2 SWAP1 PUSH2 0x153D JUMP JUMPDEST PUSH1 0x40 MLOAD DUP1 SWAP2 SUB SWAP1 RETURN JUMPDEST PUSH2 0x393 PUSH1 0x4 DUP1 CALLDATASIZE SUB DUP2 ADD SWAP1 PUSH2 0x38E SWAP2 SWAP1 PUSH2 0x11E7 JUMP JUMPDEST PUSH2 0xDFF JUMP JUMPDEST STOP JUMPDEST PUSH2 0x39D PUSH2 0xE83 JUMP JUMPDEST PUSH1 0x40 MLOAD PUSH2 0x3AA SWAP2 SWAP1 PUSH2 0x1422 JUMP JUMPDEST PUSH1 0x40 MLOAD DUP1 SWAP2 SUB SWAP1 RETURN JUMPDEST PUSH2 0x3BB PUSH2 0xEA9 JUMP JUMPDEST PUSH1 0x40 MLOAD PUSH2 0x3C8 SWAP2 SWAP1 PUSH2 0x1422 JUMP JUMPDEST PUSH1 0x40 MLOAD DUP1 SWAP2 SUB SWAP1 RETURN JUMPDEST PUSH2 0x3EB PUSH1 0x4 DUP1 CALLDATASIZE SUB DUP2 ADD SWAP1 PUSH2 0x3E6 SWAP2 SWAP1 PUSH2 0x1239 JUMP JUMPDEST PUSH2 0xECF JUMP JUMPDEST STOP JUMPDEST PUSH1 0x4 SLOAD DUP2 JUMP JUMPDEST PUSH1 0x9 PUSH1 0x20 MSTORE DUP1 PUSH1 0x0 MSTORE PUSH1 0x40 PUSH1 0x0 KECCAK256 PUSH1 0x0 SWAP2 POP SWAP1 POP SLOAD DUP2 JUMP JUMPDEST PUSH1 0x7 PUSH1 0x20 MSTORE DUP1 PUSH1 0x0 MSTORE PUSH1 0x40 PUSH1 0x0 KECCAK256 PUSH1 0x0 SWAP2 POP SWAP1 POP SLOAD DUP2 JUMP JUMPDEST PUSH1 0x8 PUSH1 0x20 MSTORE DUP1 PUSH1 0x0 MSTORE PUSH1 0x40 PUSH1 0x0 KECCAK256 PUSH1 0x0 SWAP2 POP SWAP1 POP SLOAD DUP2 JUMP JUMPDEST PUSH2 0x443 PUSH2 0xEE1 JUMP JUMPDEST PUSH1 0x5 SLOAD PUSH1 0x6 SLOAD PUSH2 0x453 SWAP2 SWAP1 PUSH2 0x1569 JUMP JUMPDEST TIMESTAMP LT ISZERO PUSH2 0x495 JUMPI PUSH1 0x40 MLOAD PUSH32 0x8C379A000000000000000000000000000000000000000000000000000000000 DUP2 MSTORE PUSH1 0x4 ADD PUSH2 0x48C SWAP1 PUSH2 0x143D JUMP JUMPDEST PUSH1 0x40 MLOAD DUP1 SWAP2 SUB SWAP1 REVERT JUMPDEST DUP1 PUSH1 0x7 PUSH1 0x0 CALLER PUSH20 0xFFFFFFFFFFFFFFFFFFFFFFFFFFFFFFFFFFFFFFFF AND PUSH20 0xFFFFFFFFFFFFFFFFFFFFFFFFFFFFFFFFFFFFFFFF AND DUP2 MSTORE PUSH1 0x20 ADD SWAP1 DUP2 MSTORE PUSH1 0x20 ADD PUSH1 0x0 KECCAK256 SLOAD LT ISZERO PUSH2 0x517 JUMPI PUSH1 0x40 MLOAD PUSH32 0x8C379A000000000000000000000000000000000000000000000000000000000 DUP2 MSTORE PUSH1 0x4 ADD PUSH2 0x50E SWAP1 PUSH2 0x149D JUMP JUMPDEST PUSH1 0x40 MLOAD DUP1 SWAP2 SUB SWAP1 REVERT JUMPDEST PUSH1 0x2 PUSH1 0x0 SWAP1 SLOAD SWAP1 PUSH2 0x100 EXP SWAP1 DIV PUSH20 0xFFFFFFFFFFFFFFFFFFFFFFFFFFFFFFFFFFFFFFFF AND PUSH20 0xFFFFFFFFFFFFFFFFFFFFFFFFFFFFFFFFFFFFFFFF AND PUSH4 0xA9059CBB CALLER DUP4 PUSH1 0x40 MLOAD DUP4 PUSH4 0xFFFFFFFF AND PUSH1 0xE0 SHL DUP2 MSTORE PUSH1 0x4 ADD PUSH2 0x574 SWAP3 SWAP2 SWAP1 PUSH2 0x13F9 JUMP JUMPDEST PUSH1 0x20 PUSH1 0x40 MLOAD DUP1 DUP4 SUB DUP2 PUSH1 0x0 DUP8 DUP1 EXTCODESIZE ISZERO DUP1 ISZERO PUSH2 0x58E JUMPI PUSH1 0x0 DUP1 REVERT JUMPDEST POP GAS CALL ISZERO DUP1 ISZERO PUSH2 0x5A2 JUMPI RETURNDATASIZE PUSH1 0x0 DUP1 RETURNDATACOPY RETURNDATASIZE PUSH1 0x0 REVERT JUMPDEST POP POP POP POP PUSH1 0x40 MLOAD RETURNDATASIZE PUSH1 0x1F NOT PUSH1 0x1F DUP3 ADD AND DUP3 ADD DUP1 PUSH1 0x40 MSTORE POP DUP2 ADD SWAP1 PUSH2 0x5C6 SWAP2 SWAP1 PUSH2 0x1210 JUMP JUMPDEST PUSH2 0x605 JUMPI PUSH1 0x40 MLOAD PUSH32 0x8C379A000000000000000000000000000000000000000000000000000000000 DUP2 MSTORE PUSH1 0x4 ADD PUSH2 0x5FC SWAP1 PUSH2 0x147D JUMP JUMPDEST PUSH1 0x40 MLOAD DUP1 SWAP2 SUB SWAP1 REVERT JUMPDEST PUSH2 0x657 DUP2 PUSH1 0x7 PUSH1 0x0 CALLER PUSH20 0xFFFFFFFFFFFFFFFFFFFFFFFFFFFFFFFFFFFFFFFF AND PUSH20 0xFFFFFFFFFFFFFFFFFFFFFFFFFFFFFFFFFFFFFFFF AND DUP2 MSTORE PUSH1 0x20 ADD SWAP1 DUP2 MSTORE PUSH1 0x20 ADD PUSH1 0x0 KECCAK256 SLOAD PUSH2 0xF31 SWAP1 SWAP2 SWAP1 PUSH4 0xFFFFFFFF AND JUMP JUMPDEST PUSH1 0x7 PUSH1 0x0 CALLER PUSH20 0xFFFFFFFFFFFFFFFFFFFFFFFFFFFFFFFFFFFFFFFF AND PUSH20 0xFFFFFFFFFFFFFFFFFFFFFFFFFFFFFFFFFFFFFFFF AND DUP2 MSTORE PUSH1 0x20 ADD SWAP1 DUP2 MSTORE PUSH1 0x20 ADD PUSH1 0x0 KECCAK256 DUP2 SWAP1 SSTORE POP PUSH2 0x6AF DUP2 PUSH1 0xA SLOAD PUSH2 0xF31 SWAP1 SWAP2 SWAP1 PUSH4 0xFFFFFFFF AND JUMP JUMPDEST PUSH1 0xA DUP2 SWAP1 SSTORE POP CALLER PUSH20 0xFFFFFFFFFFFFFFFFFFFFFFFFFFFFFFFFFFFFFFFF AND PUSH32 0xB24546D975E2628748EFC9ACED80665E0FAD66272033E5C0EA25FD3AFAC99795 DUP3 PUSH1 0x40 MLOAD PUSH2 0x6FB SWAP2 SWAP1 PUSH2 0x153D JUMP JUMPDEST PUSH1 0x40 MLOAD DUP1 SWAP2 SUB SWAP1 LOG2 PUSH2 0x70B PUSH2 0xF47 JUMP JUMPDEST POP JUMP JUMPDEST PUSH2 0x716 PUSH2 0xF50 JUMP JUMPDEST DUP1 PUSH1 0x6 DUP2 SWAP1 SSTORE POP POP JUMP JUMPDEST PUSH1 0x6 SLOAD DUP2 JUMP JUMPDEST PUSH1 0x0 PUSH1 0x7 PUSH1 0x0 DUP4 PUSH20 0xFFFFFFFFFFFFFFFFFFFFFFFFFFFFFFFFFFFFFFFF AND PUSH20 0xFFFFFFFFFFFFFFFFFFFFFFFFFFFFFFFFFFFFFFFF AND DUP2 MSTORE PUSH1 0x20 ADD SWAP1 DUP2 MSTORE PUSH1 0x20 ADD PUSH1 0x0 KECCAK256 SLOAD SWAP1 POP SWAP2 SWAP1 POP JUMP JUMPDEST PUSH2 0x777 PUSH2 0xF50 JUMP JUMPDEST PUSH2 0x781 PUSH1 0x0 PUSH2 0xFCE JUMP JUMPDEST JUMP JUMPDEST PUSH1 0xB SLOAD DUP2 JUMP JUMPDEST PUSH1 0xC SLOAD DUP2 JUMP JUMPDEST PUSH2 0x797 PUSH2 0xF50 JUMP JUMPDEST DUP1 PUSH1 0x3 PUSH1 0x0 PUSH2 0x100 EXP DUP2 SLOAD DUP2 PUSH20 0xFFFFFFFFFFFFFFFFFFFFFFFFFFFFFFFFFFFFFFFF MUL NOT AND SWAP1 DUP4 PUSH20 0xFFFFFFFFFFFFFFFFFFFFFFFFFFFFFFFFFFFFFFFF AND MUL OR SWAP1 SSTORE POP POP JUMP JUMPDEST PUSH1 0xA SLOAD DUP2 JUMP JUMPDEST PUSH1 0x0 DUP1 PUSH1 0x0 SWAP1 SLOAD SWAP1 PUSH2 0x100 EXP SWAP1 DIV PUSH20 0xFFFFFFFFFFFFFFFFFFFFFFFFFFFFFFFFFFFFFFFF AND SWAP1 POP SWAP1 JUMP JUMPDEST PUSH2 0x812 PUSH2 0xEE1 JUMP JUMPDEST PUSH1 0x5 SLOAD PUSH1 0x6 SLOAD PUSH2 0x822 SWAP2 SWAP1 PUSH2 0x1569 JUMP JUMPDEST TIMESTAMP LT PUSH2 0x863 JUMPI PUSH1 0x40 MLOAD PUSH32 0x8C379A000000000000000000000000000000000000000000000000000000000 DUP2 MSTORE PUSH1 0x4 ADD PUSH2 0x85A SWAP1 PUSH2 0x14FD JUMP JUMPDEST PUSH1 0x40 MLOAD DUP1 SWAP2 SUB SWAP1 REVERT JUMPDEST PUSH1 0x0 DUP2 GT PUSH2 0x8A6 JUMPI PUSH1 0x40 MLOAD PUSH32 0x8C379A000000000000000000000000000000000000000000000000000000000 DUP2 MSTORE PUSH1 0x4 ADD PUSH2 0x89D SWAP1 PUSH2 0x14BD JUMP JUMPDEST PUSH1 0x40 MLOAD DUP1 SWAP2 SUB SWAP1 REVERT JUMPDEST PUSH1 0x2 PUSH1 0x0 SWAP1 SLOAD SWAP1 PUSH2 0x100 EXP SWAP1 DIV PUSH20 0xFFFFFFFFFFFFFFFFFFFFFFFFFFFFFFFFFFFFFFFF AND PUSH20 0xFFFFFFFFFFFFFFFFFFFFFFFFFFFFFFFFFFFFFFFF AND PUSH4 0x23B872DD CALLER ADDRESS DUP5 PUSH1 0x40 MLOAD DUP5 PUSH4 0xFFFFFFFF AND PUSH1 0xE0 SHL DUP2 MSTORE PUSH1 0x4 ADD PUSH2 0x905 SWAP4 SWAP3 SWAP2 SWAP1 PUSH2 0x13C2 JUMP JUMPDEST PUSH1 0x20 PUSH1 0x40 MLOAD DUP1 DUP4 SUB DUP2 PUSH1 0x0 DUP8 DUP1 EXTCODESIZE ISZERO DUP1 ISZERO PUSH2 0x91F JUMPI PUSH1 0x0 DUP1 REVERT JUMPDEST POP GAS CALL ISZERO DUP1 ISZERO PUSH2 0x933 JUMPI RETURNDATASIZE PUSH1 0x0 DUP1 RETURNDATACOPY RETURNDATASIZE PUSH1 0x0 REVERT JUMPDEST POP POP POP POP PUSH1 0x40 MLOAD RETURNDATASIZE PUSH1 0x1F NOT PUSH1 0x1F DUP3 ADD AND DUP3 ADD DUP1 PUSH1 0x40 MSTORE POP DUP2 ADD SWAP1 PUSH2 0x957 SWAP2 SWAP1 PUSH2 0x1210 JUMP JUMPDEST PUSH2 0x996 JUMPI PUSH1 0x40 MLOAD PUSH32 0x8C379A000000000000000000000000000000000000000000000000000000000 DUP2 MSTORE PUSH1 0x4 ADD PUSH2 0x98D SWAP1 PUSH2 0x147D JUMP JUMPDEST PUSH1 0x40 MLOAD DUP1 SWAP2 SUB SWAP1 REVERT JUMPDEST PUSH2 0x9E8 DUP2 PUSH1 0x7 PUSH1 0x0 CALLER PUSH20 0xFFFFFFFFFFFFFFFFFFFFFFFFFFFFFFFFFFFFFFFF AND PUSH20 0xFFFFFFFFFFFFFFFFFFFFFFFFFFFFFFFFFFFFFFFF AND DUP2 MSTORE PUSH1 0x20 ADD SWAP1 DUP2 MSTORE PUSH1 0x20 ADD PUSH1 0x0 KECCAK256 SLOAD PUSH2 0x1092 SWAP1 SWAP2 SWAP1 PUSH4 0xFFFFFFFF AND JUMP JUMPDEST PUSH1 0x7 PUSH1 0x0 CALLER PUSH20 0xFFFFFFFFFFFFFFFFFFFFFFFFFFFFFFFFFFFFFFFF AND PUSH20 0xFFFFFFFFFFFFFFFFFFFFFFFFFFFFFFFFFFFFFFFF AND DUP2 MSTORE PUSH1 0x20 ADD SWAP1 DUP2 MSTORE PUSH1 0x20 ADD PUSH1 0x0 KECCAK256 DUP2 SWAP1 SSTORE POP TIMESTAMP PUSH1 0x8 PUSH1 0x0 CALLER PUSH20 0xFFFFFFFFFFFFFFFFFFFFFFFFFFFFFFFFFFFFFFFF AND PUSH20 0xFFFFFFFFFFFFFFFFFFFFFFFFFFFFFFFFFFFFFFFF AND DUP2 MSTORE PUSH1 0x20 ADD SWAP1 DUP2 MSTORE PUSH1 0x20 ADD PUSH1 0x0 KECCAK256 DUP2 SWAP1 SSTORE POP PUSH1 0x0 PUSH2 0xA7B CALLER DUP4 PUSH2 0x10A8 JUMP JUMPDEST SWAP1 POP PUSH2 0xACF DUP2 PUSH1 0x9 PUSH1 0x0 CALLER PUSH20 0xFFFFFFFFFFFFFFFFFFFFFFFFFFFFFFFFFFFFFFFF AND PUSH20 0xFFFFFFFFFFFFFFFFFFFFFFFFFFFFFFFFFFFFFFFF AND DUP2 MSTORE PUSH1 0x20 ADD SWAP1 DUP2 MSTORE PUSH1 0x20 ADD PUSH1 0x0 KECCAK256 SLOAD PUSH2 0x1092 SWAP1 SWAP2 SWAP1 PUSH4 0xFFFFFFFF AND JUMP JUMPDEST PUSH1 0x9 PUSH1 0x0 CALLER PUSH20 0xFFFFFFFFFFFFFFFFFFFFFFFFFFFFFFFFFFFFFFFF AND PUSH20 0xFFFFFFFFFFFFFFFFFFFFFFFFFFFFFFFFFFFFFFFF AND DUP2 MSTORE PUSH1 0x20 ADD SWAP1 DUP2 MSTORE PUSH1 0x20 ADD PUSH1 0x0 KECCAK256 DUP2 SWAP1 SSTORE POP PUSH2 0xB27 DUP3 PUSH1 0xA SLOAD PUSH2 0x1092 SWAP1 SWAP2 SWAP1 PUSH4 0xFFFFFFFF AND JUMP JUMPDEST PUSH1 0xA DUP2 SWAP1 SSTORE POP PUSH2 0xB42 DUP2 PUSH1 0xB SLOAD PUSH2 0x1092 SWAP1 SWAP2 SWAP1 PUSH4 0xFFFFFFFF AND JUMP JUMPDEST PUSH1 0xB DUP2 SWAP1 SSTORE POP CALLER PUSH20 0xFFFFFFFFFFFFFFFFFFFFFFFFFFFFFFFFFFFFFFFF AND PUSH32 0xEBEDB8B3C678666E7F36970BC8F57ABF6D8FA2E828C0DA91EA5B75BF68ED101A DUP4 PUSH1 0x40 MLOAD PUSH2 0xB8E SWAP2 SWAP1 PUSH2 0x153D JUMP JUMPDEST PUSH1 0x40 MLOAD DUP1 SWAP2 SUB SWAP1 LOG2 POP PUSH2 0xB9F PUSH2 0xF47 JUMP JUMPDEST POP JUMP JUMPDEST PUSH2 0xBAA PUSH2 0xEE1 JUMP JUMPDEST PUSH1 0x5 SLOAD PUSH1 0x6 SLOAD PUSH2 0xBBA SWAP2 SWAP1 PUSH2 0x1569 JUMP JUMPDEST TIMESTAMP LT ISZERO PUSH2 0xBFC JUMPI PUSH1 0x40 MLOAD PUSH32 0x8C379A000000000000000000000000000000000000000000000000000000000 DUP2 MSTORE PUSH1 0x4 ADD PUSH2 0xBF3 SWAP1 PUSH2 0x143D JUMP JUMPDEST PUSH1 0x40 MLOAD DUP1 SWAP2 SUB SWAP1 REVERT JUMPDEST PUSH1 0x0 PUSH1 0x9 PUSH1 0x0 CALLER PUSH20 0xFFFFFFFFFFFFFFFFFFFFFFFFFFFFFFFFFFFFFFFF AND PUSH20 0xFFFFFFFFFFFFFFFFFFFFFFFFFFFFFFFFFFFFFFFF AND DUP2 MSTORE PUSH1 0x20 ADD SWAP1 DUP2 MSTORE PUSH1 0x20 ADD PUSH1 0x0 KECCAK256 SLOAD SWAP1 POP PUSH1 0x3 PUSH1 0x0 SWAP1 SLOAD SWAP1 PUSH2 0x100 EXP SWAP1 DIV PUSH20 0xFFFFFFFFFFFFFFFFFFFFFFFFFFFFFFFFFFFFFFFF AND PUSH20 0xFFFFFFFFFFFFFFFFFFFFFFFFFFFFFFFFFFFFFFFF AND PUSH4 0xA9059CBB CALLER DUP4 PUSH1 0x40 MLOAD DUP4 PUSH4 0xFFFFFFFF AND PUSH1 0xE0 SHL DUP2 MSTORE PUSH1 0x4 ADD PUSH2 0xC9D SWAP3 SWAP2 SWAP1 PUSH2 0x13F9 JUMP JUMPDEST PUSH1 0x20 PUSH1 0x40 MLOAD DUP1 DUP4 SUB DUP2 PUSH1 0x0 DUP8 DUP1 EXTCODESIZE ISZERO DUP1 ISZERO PUSH2 0xCB7 JUMPI PUSH1 0x0 DUP1 REVERT JUMPDEST POP GAS CALL ISZERO DUP1 ISZERO PUSH2 0xCCB JUMPI RETURNDATASIZE PUSH1 0x0 DUP1 RETURNDATACOPY RETURNDATASIZE PUSH1 0x0 REVERT JUMPDEST POP POP POP POP PUSH1 0x40 MLOAD RETURNDATASIZE PUSH1 0x1F NOT PUSH1 0x1F DUP3 ADD AND DUP3 ADD DUP1 PUSH1 0x40 MSTORE POP DUP2 ADD SWAP1 PUSH2 0xCEF SWAP2 SWAP1 PUSH2 0x1210 JUMP JUMPDEST PUSH2 0xD2E JUMPI PUSH1 0x40 MLOAD PUSH32 0x8C379A000000000000000000000000000000000000000000000000000000000 DUP2 MSTORE PUSH1 0x4 ADD PUSH2 0xD25 SWAP1 PUSH2 0x147D JUMP JUMPDEST PUSH1 0x40 MLOAD DUP1 SWAP2 SUB SWAP1 REVERT JUMPDEST PUSH1 0x0 PUSH1 0x9 PUSH1 0x0 CALLER PUSH20 0xFFFFFFFFFFFFFFFFFFFFFFFFFFFFFFFFFFFFFFFF AND PUSH20 0xFFFFFFFFFFFFFFFFFFFFFFFFFFFFFFFFFFFFFFFF AND DUP2 MSTORE PUSH1 0x20 ADD SWAP1 DUP2 MSTORE PUSH1 0x20 ADD PUSH1 0x0 KECCAK256 DUP2 SWAP1 SSTORE POP PUSH2 0xD88 DUP2 PUSH1 0xB SLOAD PUSH2 0xF31 SWAP1 SWAP2 SWAP1 PUSH4 0xFFFFFFFF AND JUMP JUMPDEST PUSH1 0xB DUP2 SWAP1 SSTORE POP CALLER PUSH20 0xFFFFFFFFFFFFFFFFFFFFFFFFFFFFFFFFFFFFFFFF AND PUSH32 0xBA8DE60C3403EC381D1D484652EA1980E3C3E56359195C92525BFF4CE47AD98E DUP3 PUSH1 0x40 MLOAD PUSH2 0xDD4 SWAP2 SWAP1 PUSH2 0x153D JUMP JUMPDEST PUSH1 0x40 MLOAD DUP1 SWAP2 SUB SWAP1 LOG2 POP PUSH2 0xDE5 PUSH2 0xF47 JUMP JUMPDEST JUMP JUMPDEST PUSH2 0xDEF PUSH2 0xF50 JUMP JUMPDEST DUP1 PUSH1 0x5 DUP2 SWAP1 SSTORE POP POP JUMP JUMPDEST PUSH1 0x5 SLOAD DUP2 JUMP JUMPDEST PUSH2 0xE07 PUSH2 0xF50 JUMP JUMPDEST PUSH1 0x0 PUSH20 0xFFFFFFFFFFFFFFFFFFFFFFFFFFFFFFFFFFFFFFFF AND DUP2 PUSH20 0xFFFFFFFFFFFFFFFFFFFFFFFFFFFFFFFFFFFFFFFF AND EQ ISZERO PUSH2 0xE77 JUMPI PUSH1 0x40 MLOAD PUSH32 0x8C379A000000000000000000000000000000000000000000000000000000000 DUP2 MSTORE PUSH1 0x4 ADD PUSH2 0xE6E SWAP1 PUSH2 0x145D JUMP JUMPDEST PUSH1 0x40 MLOAD DUP1 SWAP2 SUB SWAP1 REVERT JUMPDEST PUSH2 0xE80 DUP2 PUSH2 0xFCE JUMP JUMPDEST POP JUMP JUMPDEST PUSH1 0x3 PUSH1 0x0 SWAP1 SLOAD SWAP1 PUSH2 0x100 EXP SWAP1 DIV PUSH20 0xFFFFFFFFFFFFFFFFFFFFFFFFFFFFFFFFFFFFFFFF AND DUP2 JUMP JUMPDEST PUSH1 0x2 PUSH1 0x0 SWAP1 SLOAD SWAP1 PUSH2 0x100 EXP SWAP1 DIV PUSH20 0xFFFFFFFFFFFFFFFFFFFFFFFFFFFFFFFFFFFFFFFF AND DUP2 JUMP JUMPDEST PUSH2 0xED7 PUSH2 0xF50 JUMP JUMPDEST DUP1 PUSH1 0x4 DUP2 SWAP1 SSTORE POP POP JUMP JUMPDEST PUSH1 0x2 PUSH1 0x1 SLOAD EQ ISZERO PUSH2 0xF27 JUMPI PUSH1 0x40 MLOAD PUSH32 0x8C379A000000000000000000000000000000000000000000000000000000000 DUP2 MSTORE PUSH1 0x4 ADD PUSH2 0xF1E SWAP1 PUSH2 0x151D JUMP JUMPDEST PUSH1 0x40 MLOAD DUP1 SWAP2 SUB SWAP1 REVERT JUMPDEST PUSH1 0x2 PUSH1 0x1 DUP2 SWAP1 SSTORE POP JUMP JUMPDEST PUSH1 0x0 DUP2 DUP4 PUSH2 0xF3F SWAP2 SWAP1 PUSH2 0x164A JUMP JUMPDEST SWAP1 POP SWAP3 SWAP2 POP POP JUMP JUMPDEST PUSH1 0x1 DUP1 DUP2 SWAP1 SSTORE POP JUMP JUMPDEST PUSH2 0xF58 PUSH2 0x1174 JUMP JUMPDEST PUSH20 0xFFFFFFFFFFFFFFFFFFFFFFFFFFFFFFFFFFFFFFFF AND PUSH2 0xF76 PUSH2 0x7E1 JUMP JUMPDEST PUSH20 0xFFFFFFFFFFFFFFFFFFFFFFFFFFFFFFFFFFFFFFFF AND EQ PUSH2 0xFCC JUMPI PUSH1 0x40 MLOAD PUSH32 0x8C379A000000000000000000000000000000000000000000000000000000000 DUP2 MSTORE PUSH1 0x4 ADD PUSH2 0xFC3 SWAP1 PUSH2 0x14DD JUMP JUMPDEST PUSH1 0x40 MLOAD DUP1 SWAP2 SUB SWAP1 REVERT JUMPDEST JUMP JUMPDEST PUSH1 0x0 DUP1 PUSH1 0x0 SWAP1 SLOAD SWAP1 PUSH2 0x100 EXP SWAP1 DIV PUSH20 0xFFFFFFFFFFFFFFFFFFFFFFFFFFFFFFFFFFFFFFFF AND SWAP1 POP DUP2 PUSH1 0x0 DUP1 PUSH2 0x100 EXP DUP2 SLOAD DUP2 PUSH20 0xFFFFFFFFFFFFFFFFFFFFFFFFFFFFFFFFFFFFFFFF MUL NOT AND SWAP1 DUP4 PUSH20 0xFFFFFFFFFFFFFFFFFFFFFFFFFFFFFFFFFFFFFFFF AND MUL OR SWAP1 SSTORE POP DUP2 PUSH20 0xFFFFFFFFFFFFFFFFFFFFFFFFFFFFFFFFFFFFFFFF AND DUP2 PUSH20 0xFFFFFFFFFFFFFFFFFFFFFFFFFFFFFFFFFFFFFFFF AND PUSH32 0x8BE0079C531659141344CD1FD0A4F28419497F9722A3DAAFE3B4186F6B6457E0 PUSH1 0x40 MLOAD PUSH1 0x40 MLOAD DUP1 SWAP2 SUB SWAP1 LOG3 POP POP JUMP JUMPDEST PUSH1 0x0 DUP2 DUP4 PUSH2 0x10A0 SWAP2 SWAP1 PUSH2 0x1569 JUMP JUMPDEST SWAP1 POP SWAP3 SWAP2 POP POP JUMP JUMPDEST PUSH1 0x0 DUP1 PUSH2 0x1113 PUSH1 0x8 PUSH1 0x0 DUP7 PUSH20 0xFFFFFFFFFFFFFFFFFFFFFFFFFFFFFFFFFFFFFFFF AND PUSH20 0xFFFFFFFFFFFFFFFFFFFFFFFFFFFFFFFFFFFFFFFF AND DUP2 MSTORE PUSH1 0x20 ADD SWAP1 DUP2 MSTORE PUSH1 0x20 ADD PUSH1 0x0 KECCAK256 SLOAD PUSH2 0x1105 PUSH1 0x6 SLOAD PUSH1 0x5 SLOAD PUSH2 0x1092 SWAP1 SWAP2 SWAP1 PUSH4 0xFFFFFFFF AND JUMP JUMPDEST PUSH2 0xF31 SWAP1 SWAP2 SWAP1 PUSH4 0xFFFFFFFF AND JUMP JUMPDEST SWAP1 POP PUSH1 0x0 PUSH2 0x1167 PUSH1 0xC SLOAD PUSH2 0x1159 DUP5 PUSH2 0x114B PUSH1 0x4 SLOAD PUSH2 0x113D PUSH3 0xF4240 DUP12 PUSH2 0x117C SWAP1 SWAP2 SWAP1 PUSH4 0xFFFFFFFF AND JUMP JUMPDEST PUSH2 0x1192 SWAP1 SWAP2 SWAP1 PUSH4 0xFFFFFFFF AND JUMP JUMPDEST PUSH2 0x1192 SWAP1 SWAP2 SWAP1 PUSH4 0xFFFFFFFF AND JUMP JUMPDEST PUSH2 0x117C SWAP1 SWAP2 SWAP1 PUSH4 0xFFFFFFFF AND JUMP JUMPDEST SWAP1 POP DUP1 SWAP3 POP POP POP SWAP3 SWAP2 POP POP JUMP JUMPDEST PUSH1 0x0 CALLER SWAP1 POP SWAP1 JUMP JUMPDEST PUSH1 0x0 DUP2 DUP4 PUSH2 0x118A SWAP2 SWAP1 PUSH2 0x15BF JUMP JUMPDEST SWAP1 POP SWAP3 SWAP2 POP POP JUMP JUMPDEST PUSH1 0x0 DUP2 DUP4 PUSH2 0x11A0 SWAP2 SWAP1 PUSH2 0x15F0 JUMP JUMPDEST SWAP1 POP SWAP3 SWAP2 POP POP JUMP JUMPDEST PUSH1 0x0 DUP2 CALLDATALOAD SWAP1 POP PUSH2 0x11B7 DUP2 PUSH2 0x18DC JUMP JUMPDEST SWAP3 SWAP2 POP POP JUMP JUMPDEST PUSH1 0x0 DUP2 MLOAD SWAP1 POP PUSH2 0x11CC DUP2 PUSH2 0x18F3 JUMP JUMPDEST SWAP3 SWAP2 POP POP JUMP JUMPDEST PUSH1 0x0 DUP2 CALLDATALOAD SWAP1 POP PUSH2 0x11E1 DUP2 PUSH2 0x190A JUMP JUMPDEST SWAP3 SWAP2 POP POP JUMP JUMPDEST PUSH1 0x0 PUSH1 0x20 DUP3 DUP5 SUB SLT ISZERO PUSH2 0x11F9 JUMPI PUSH1 0x0 DUP1 REVERT JUMPDEST PUSH1 0x0 PUSH2 0x1207 DUP5 DUP3 DUP6 ADD PUSH2 0x11A8 JUMP JUMPDEST SWAP2 POP POP SWAP3 SWAP2 POP POP JUMP JUMPDEST PUSH1 0x0 PUSH1 0x20 DUP3 DUP5 SUB SLT ISZERO PUSH2 0x1222 JUMPI PUSH1 0x0 DUP1 REVERT JUMPDEST PUSH1 0x0 PUSH2 0x1230 DUP5 DUP3 DUP6 ADD PUSH2 0x11BD JUMP JUMPDEST SWAP2 POP POP SWAP3 SWAP2 POP POP JUMP JUMPDEST PUSH1 0x0 PUSH1 0x20 DUP3 DUP5 SUB SLT ISZERO PUSH2 0x124B JUMPI PUSH1 0x0 DUP1 REVERT JUMPDEST PUSH1 0x0 PUSH2 0x1259 DUP5 DUP3 DUP6 ADD PUSH2 0x11D2 JUMP JUMPDEST SWAP2 POP POP SWAP3 SWAP2 POP POP JUMP JUMPDEST PUSH2 0x126B DUP2 PUSH2 0x167E JUMP JUMPDEST DUP3 MSTORE POP POP JUMP JUMPDEST PUSH2 0x127A DUP2 PUSH2 0x16C6 JUMP JUMPDEST DUP3 MSTORE POP POP JUMP JUMPDEST PUSH1 0x0 PUSH2 0x128D PUSH1 0x6 DUP4 PUSH2 0x1558 JUMP JUMPDEST SWAP2 POP PUSH2 0x1298 DUP3 PUSH2 0x1748 JUMP JUMPDEST PUSH1 0x20 DUP3 ADD SWAP1 POP SWAP2 SWAP1 POP JUMP JUMPDEST PUSH1 0x0 PUSH2 0x12B0 PUSH1 0x26 DUP4 PUSH2 0x1558 JUMP JUMPDEST SWAP2 POP PUSH2 0x12BB DUP3 PUSH2 0x1771 JUMP JUMPDEST PUSH1 0x40 DUP3 ADD SWAP1 POP SWAP2 SWAP1 POP JUMP JUMPDEST PUSH1 0x0 PUSH2 0x12D3 PUSH1 0xF DUP4 PUSH2 0x1558 JUMP JUMPDEST SWAP2 POP PUSH2 0x12DE DUP3 PUSH2 0x17C0 JUMP JUMPDEST PUSH1 0x20 DUP3 ADD SWAP1 POP SWAP2 SWAP1 POP JUMP JUMPDEST PUSH1 0x0 PUSH2 0x12F6 PUSH1 0x14 DUP4 PUSH2 0x1558 JUMP JUMPDEST SWAP2 POP PUSH2 0x1301 DUP3 PUSH2 0x17E9 JUMP JUMPDEST PUSH1 0x20 DUP3 ADD SWAP1 POP SWAP2 SWAP1 POP JUMP JUMPDEST PUSH1 0x0 PUSH2 0x1319 PUSH1 0x1F DUP4 PUSH2 0x1558 JUMP JUMPDEST SWAP2 POP PUSH2 0x1324 DUP3 PUSH2 0x1812 JUMP JUMPDEST PUSH1 0x20 DUP3 ADD SWAP1 POP SWAP2 SWAP1 POP JUMP JUMPDEST PUSH1 0x0 PUSH2 0x133C PUSH1 0x20 DUP4 PUSH2 0x1558 JUMP JUMPDEST SWAP2 POP PUSH2 0x1347 DUP3 PUSH2 0x183B JUMP JUMPDEST PUSH1 0x20 DUP3 ADD SWAP1 POP SWAP2 SWAP1 POP JUMP JUMPDEST PUSH1 0x0 PUSH2 0x135F PUSH1 0x26 DUP4 PUSH2 0x1558 JUMP JUMPDEST SWAP2 POP PUSH2 0x136A DUP3 PUSH2 0x1864 JUMP JUMPDEST PUSH1 0x40 DUP3 ADD SWAP1 POP SWAP2 SWAP1 POP JUMP JUMPDEST PUSH1 0x0 PUSH2 0x1382 PUSH1 0x1F DUP4 PUSH2 0x1558 JUMP JUMPDEST SWAP2 POP PUSH2 0x138D DUP3 PUSH2 0x18B3 JUMP JUMPDEST PUSH1 0x20 DUP3 ADD SWAP1 POP SWAP2 SWAP1 POP JUMP JUMPDEST PUSH2 0x13A1 DUP2 PUSH2 0x16BC JUMP JUMPDEST DUP3 MSTORE POP POP JUMP JUMPDEST PUSH1 0x0 PUSH1 0x20 DUP3 ADD SWAP1 POP PUSH2 0x13BC PUSH1 0x0 DUP4 ADD DUP5 PUSH2 0x1262 JUMP JUMPDEST SWAP3 SWAP2 POP POP JUMP JUMPDEST PUSH1 0x0 PUSH1 0x60 DUP3 ADD SWAP1 POP PUSH2 0x13D7 PUSH1 0x0 DUP4 ADD DUP7 PUSH2 0x1262 JUMP JUMPDEST PUSH2 0x13E4 PUSH1 0x20 DUP4 ADD DUP6 PUSH2 0x1262 JUMP JUMPDEST PUSH2 0x13F1 PUSH1 0x40 DUP4 ADD DUP5 PUSH2 0x1398 JUMP JUMPDEST SWAP5 SWAP4 POP POP POP POP JUMP JUMPDEST PUSH1 0x0 PUSH1 0x40 DUP3 ADD SWAP1 POP PUSH2 0x140E PUSH1 0x0 DUP4 ADD DUP6 PUSH2 0x1262 JUMP JUMPDEST PUSH2 0x141B PUSH1 0x20 DUP4 ADD DUP5 PUSH2 0x1398 JUMP JUMPDEST SWAP4 SWAP3 POP POP POP JUMP JUMPDEST PUSH1 0x0 PUSH1 0x20 DUP3 ADD SWAP1 POP PUSH2 0x1437 PUSH1 0x0 DUP4 ADD DUP5 PUSH2 0x1271 JUMP JUMPDEST SWAP3 SWAP2 POP POP JUMP JUMPDEST PUSH1 0x0 PUSH1 0x20 DUP3 ADD SWAP1 POP DUP2 DUP2 SUB PUSH1 0x0 DUP4 ADD MSTORE PUSH2 0x1456 DUP2 PUSH2 0x1280 JUMP JUMPDEST SWAP1 POP SWAP2 SWAP1 POP JUMP JUMPDEST PUSH1 0x0 PUSH1 0x20 DUP3 ADD SWAP1 POP DUP2 DUP2 SUB PUSH1 0x0 DUP4 ADD MSTORE PUSH2 0x1476 DUP2 PUSH2 0x12A3 JUMP JUMPDEST SWAP1 POP SWAP2 SWAP1 POP JUMP JUMPDEST PUSH1 0x0 PUSH1 0x20 DUP3 ADD SWAP1 POP DUP2 DUP2 SUB PUSH1 0x0 DUP4 ADD MSTORE PUSH2 0x1496 DUP2 PUSH2 0x12C6 JUMP JUMPDEST SWAP1 POP SWAP2 SWAP1 POP JUMP JUMPDEST PUSH1 0x0 PUSH1 0x20 DUP3 ADD SWAP1 POP DUP2 DUP2 SUB PUSH1 0x0 DUP4 ADD MSTORE PUSH2 0x14B6 DUP2 PUSH2 0x12E9 JUMP JUMPDEST SWAP1 POP SWAP2 SWAP1 POP JUMP JUMPDEST PUSH1 0x0 PUSH1 0x20 DUP3 ADD SWAP1 POP DUP2 DUP2 SUB PUSH1 0x0 DUP4 ADD MSTORE PUSH2 0x14D6 DUP2 PUSH2 0x130C JUMP JUMPDEST SWAP1 POP SWAP2 SWAP1 POP JUMP JUMPDEST PUSH1 0x0 PUSH1 0x20 DUP3 ADD SWAP1 POP DUP2 DUP2 SUB PUSH1 0x0 DUP4 ADD MSTORE PUSH2 0x14F6 DUP2 PUSH2 0x132F JUMP JUMPDEST SWAP1 POP SWAP2 SWAP1 POP JUMP JUMPDEST PUSH1 0x0 PUSH1 0x20 DUP3 ADD SWAP1 POP DUP2 DUP2 SUB PUSH1 0x0 DUP4 ADD MSTORE PUSH2 0x1516 DUP2 PUSH2 0x1352 JUMP JUMPDEST SWAP1 POP SWAP2 SWAP1 POP JUMP JUMPDEST PUSH1 0x0 PUSH1 0x20 DUP3 ADD SWAP1 POP DUP2 DUP2 SUB PUSH1 0x0 DUP4 ADD MSTORE PUSH2 0x1536 DUP2 PUSH2 0x1375 JUMP JUMPDEST SWAP1 POP SWAP2 SWAP1 POP JUMP JUMPDEST PUSH1 0x0 PUSH1 0x20 DUP3 ADD SWAP1 POP PUSH2 0x1552 PUSH1 0x0 DUP4 ADD DUP5 PUSH2 0x1398 JUMP JUMPDEST SWAP3 SWAP2 POP POP JUMP JUMPDEST PUSH1 0x0 DUP3 DUP3 MSTORE PUSH1 0x20 DUP3 ADD SWAP1 POP SWAP3 SWAP2 POP POP JUMP JUMPDEST PUSH1 0x0 PUSH2 0x1574 DUP3 PUSH2 0x16BC JUMP JUMPDEST SWAP2 POP PUSH2 0x157F DUP4 PUSH2 0x16BC JUMP JUMPDEST SWAP3 POP DUP3 PUSH32 0xFFFFFFFFFFFFFFFFFFFFFFFFFFFFFFFFFFFFFFFFFFFFFFFFFFFFFFFFFFFFFFFF SUB DUP3 GT ISZERO PUSH2 0x15B4 JUMPI PUSH2 0x15B3 PUSH2 0x16EA JUMP JUMPDEST JUMPDEST DUP3 DUP3 ADD SWAP1 POP SWAP3 SWAP2 POP POP JUMP JUMPDEST PUSH1 0x0 PUSH2 0x15CA DUP3 PUSH2 0x16BC JUMP JUMPDEST SWAP2 POP PUSH2 0x15D5 DUP4 PUSH2 0x16BC JUMP JUMPDEST SWAP3 POP DUP3 PUSH2 0x15E5 JUMPI PUSH2 0x15E4 PUSH2 0x1719 JUMP JUMPDEST JUMPDEST DUP3 DUP3 DIV SWAP1 POP SWAP3 SWAP2 POP POP JUMP JUMPDEST PUSH1 0x0 PUSH2 0x15FB DUP3 PUSH2 0x16BC JUMP JUMPDEST SWAP2 POP PUSH2 0x1606 DUP4 PUSH2 0x16BC JUMP JUMPDEST SWAP3 POP DUP2 PUSH32 0xFFFFFFFFFFFFFFFFFFFFFFFFFFFFFFFFFFFFFFFFFFFFFFFFFFFFFFFFFFFFFFFF DIV DUP4 GT DUP3 ISZERO ISZERO AND ISZERO PUSH2 0x163F JUMPI PUSH2 0x163E PUSH2 0x16EA JUMP JUMPDEST JUMPDEST DUP3 DUP3 MUL SWAP1 POP SWAP3 SWAP2 POP POP JUMP JUMPDEST PUSH1 0x0 PUSH2 0x1655 DUP3 PUSH2 0x16BC JUMP JUMPDEST SWAP2 POP PUSH2 0x1660 DUP4 PUSH2 0x16BC JUMP JUMPDEST SWAP3 POP DUP3 DUP3 LT ISZERO PUSH2 0x1673 JUMPI PUSH2 0x1672 PUSH2 0x16EA JUMP JUMPDEST JUMPDEST DUP3 DUP3 SUB SWAP1 POP SWAP3 SWAP2 POP POP JUMP JUMPDEST PUSH1 0x0 PUSH2 0x1689 DUP3 PUSH2 0x169C JUMP JUMPDEST SWAP1 POP SWAP2 SWAP1 POP JUMP JUMPDEST PUSH1 0x0 DUP2 ISZERO ISZERO SWAP1 POP SWAP2 SWAP1 POP JUMP JUMPDEST PUSH1 0x0 PUSH20 0xFFFFFFFFFFFFFFFFFFFFFFFFFFFFFFFFFFFFFFFF DUP3 AND SWAP1 POP SWAP2 SWAP1 POP JUMP JUMPDEST PUSH1 0x0 DUP2 SWAP1 POP SWAP2 SWAP1 POP JUMP JUMPDEST PUSH1 0x0 PUSH2 0x16D1 DUP3 PUSH2 0x16D8 JUMP JUMPDEST SWAP1 POP SWAP2 SWAP1 POP JUMP JUMPDEST PUSH1 0x0 PUSH2 0x16E3 DUP3 PUSH2 0x169C JUMP JUMPDEST SWAP1 POP SWAP2 SWAP1 POP JUMP JUMPDEST PUSH32 0x4E487B7100000000000000000000000000000000000000000000000000000000 PUSH1 0x0 MSTORE PUSH1 0x11 PUSH1 0x4 MSTORE PUSH1 0x24 PUSH1 0x0 REVERT JUMPDEST PUSH32 0x4E487B7100000000000000000000000000000000000000000000000000000000 PUSH1 0x0 MSTORE PUSH1 0x12 PUSH1 0x4 MSTORE PUSH1 0x24 PUSH1 0x0 REVERT JUMPDEST PUSH32 0x4C6F636B65640000000000000000000000000000000000000000000000000000 PUSH1 0x0 DUP3 ADD MSTORE POP JUMP JUMPDEST PUSH32 0x4F776E61626C653A206E6577206F776E657220697320746865207A65726F2061 PUSH1 0x0 DUP3 ADD MSTORE PUSH32 0x6464726573730000000000000000000000000000000000000000000000000000 PUSH1 0x20 DUP3 ADD MSTORE POP JUMP JUMPDEST PUSH32 0x5472616E73666572206661696C65640000000000000000000000000000000000 PUSH1 0x0 DUP3 ADD MSTORE POP JUMP JUMPDEST PUSH32 0x496E73756666696369656E742062616C616E6365000000000000000000000000 PUSH1 0x0 DUP3 ADD MSTORE POP JUMP JUMPDEST PUSH32 0x416D6F756E742073686F756C642067726561746572207468616E207A65726F00 PUSH1 0x0 DUP3 ADD MSTORE POP JUMP JUMPDEST PUSH32 0x4F776E61626C653A2063616C6C6572206973206E6F7420746865206F776E6572 PUSH1 0x0 DUP3 ADD MSTORE POP JUMP JUMPDEST PUSH32 0x5468652063757272656E74207374616B696E6720616374697669747920686173 PUSH1 0x0 DUP3 ADD MSTORE PUSH32 0x20656E6465640000000000000000000000000000000000000000000000000000 PUSH1 0x20 DUP3 ADD MSTORE POP JUMP JUMPDEST PUSH32 0x5265656E7472616E637947756172643A207265656E7472616E742063616C6C00 PUSH1 0x0 DUP3 ADD MSTORE POP JUMP JUMPDEST PUSH2 0x18E5 DUP2 PUSH2 0x167E JUMP JUMPDEST DUP2 EQ PUSH2 0x18F0 JUMPI PUSH1 0x0 DUP1 REVERT JUMPDEST POP JUMP JUMPDEST PUSH2 0x18FC DUP2 PUSH2 0x1690 JUMP JUMPDEST DUP2 EQ PUSH2 0x1907 JUMPI PUSH1 0x0 DUP1 REVERT JUMPDEST POP JUMP JUMPDEST PUSH2 0x1913 DUP2 PUSH2 0x16BC JUMP JUMPDEST DUP2 EQ PUSH2 0x191E JUMPI PUSH1 0x0 DUP1 REVERT JUMPDEST POP JUMP INVALID LOG2 PUSH5 0x6970667358 0x22 SLT KECCAK256 0xCD 0xAE BLOCKHASH TIMESTAMP 0x4D SELFBALANCE PUSH9 0xEE123E3D278A06C170 0xCE SWAP14 0xED 0xCB PUSH16 0x508EA500BF9311E12512D364736F6C63 NUMBER STOP ADDMOD DIV STOP CALLER "
				},
				"gasEstimates": {
					"creation": {
						"codeDepositCost": "1297400",
						"executionCost": "infinite",
						"totalCost": "infinite"
					},
					"external": {
						"balanceOf(address)": "1608",
						"claimReward()": "infinite",
						"dayTime()": "1262",
						"lockupPeriod()": "1173",
						"owner()": "1289",
						"renounceOwnership()": "24487",
						"rewardRateInit()": "1153",
						"rewardToken()": "1345",
						"setLockupPeriod(uint256)": "21406",
						"setRewardRateInit(uint256)": "21516",
						"setRewardToken(address)": "22309",
						"setStakingStartTime(uint256)": "21407",
						"stake(uint256)": "infinite",
						"stakingBalance(address)": "1582",
						"stakingReward(address)": "1560",
						"stakingStartTime()": "1174",
						"stakingTime(address)": "1604",
						"token()": "1367",
						"totalReward()": "1240",
						"totalStake()": "1174",
						"transferOwnership(address)": "24813",
						"unStake(uint256)": "infinite"
					},
					"internal": {
						"getRewardForUser(address,uint256)": "infinite"
					}
				},
				"methodIdentifiers": {
					"balanceOf(address)": "70a08231",
					"claimReward()": "b88a802f",
					"dayTime()": "80c0976e",
					"lockupPeriod()": "ee947a7c",
					"owner()": "8da5cb5b",
					"renounceOwnership()": "715018a6",
					"rewardRateInit()": "154a78b5",
					"rewardToken()": "f7c618c1",
					"setLockupPeriod(uint256)": "c771c390",
					"setRewardRateInit(uint256)": "fc71ae8c",
					"setRewardToken(address)": "8aee8127",
					"setStakingStartTime(uint256)": "5d90bad9",
					"stake(uint256)": "a694fc3a",
					"stakingBalance(address)": "45bc78ab",
					"stakingReward(address)": "1683153d",
					"stakingStartTime()": "6abfd183",
					"stakingTime(address)": "583d42fd",
					"token()": "fc0c546a",
					"totalReward()": "750142e6",
					"totalStake()": "8b0e9f3f",
					"transferOwnership(address)": "f2fde38b",
					"unStake(uint256)": "5d3eea91"
				}
			},
			"storageLayout": {
				"storage": [
					{
						"astId": 7,
						"contract": "Defi/StakingPool.sol:StakingPool",
						"label": "_owner",
						"offset": 0,
						"slot": "0",
						"type": "t_address"
					},
					{
						"astId": 123,
						"contract": "Defi/StakingPool.sol:StakingPool",
						"label": "_status",
						"offset": 0,
						"slot": "1",
						"type": "t_uint256"
					},
					{
						"astId": 594,
						"contract": "Defi/StakingPool.sol:StakingPool",
						"label": "token",
						"offset": 0,
						"slot": "2",
						"type": "t_contract(IERC20)244"
					},
					{
						"astId": 597,
						"contract": "Defi/StakingPool.sol:StakingPool",
						"label": "rewardToken",
						"offset": 0,
						"slot": "3",
						"type": "t_contract(IERC20)244"
					},
					{
						"astId": 599,
						"contract": "Defi/StakingPool.sol:StakingPool",
						"label": "rewardRateInit",
						"offset": 0,
						"slot": "4",
						"type": "t_uint256"
					},
					{
						"astId": 601,
						"contract": "Defi/StakingPool.sol:StakingPool",
						"label": "lockupPeriod",
						"offset": 0,
						"slot": "5",
						"type": "t_uint256"
					},
					{
						"astId": 603,
						"contract": "Defi/StakingPool.sol:StakingPool",
						"label": "stakingStartTime",
						"offset": 0,
						"slot": "6",
						"type": "t_uint256"
					},
					{
						"astId": 607,
						"contract": "Defi/StakingPool.sol:StakingPool",
						"label": "stakingBalance",
						"offset": 0,
						"slot": "7",
						"type": "t_mapping(t_address,t_uint256)"
					},
					{
						"astId": 611,
						"contract": "Defi/StakingPool.sol:StakingPool",
						"label": "stakingTime",
						"offset": 0,
						"slot": "8",
						"type": "t_mapping(t_address,t_uint256)"
					},
					{
						"astId": 615,
						"contract": "Defi/StakingPool.sol:StakingPool",
						"label": "stakingReward",
						"offset": 0,
						"slot": "9",
						"type": "t_mapping(t_address,t_uint256)"
					},
					{
						"astId": 617,
						"contract": "Defi/StakingPool.sol:StakingPool",
						"label": "totalStake",
						"offset": 0,
						"slot": "10",
						"type": "t_uint256"
					},
					{
						"astId": 619,
						"contract": "Defi/StakingPool.sol:StakingPool",
						"label": "totalReward",
						"offset": 0,
						"slot": "11",
						"type": "t_uint256"
					},
					{
						"astId": 622,
						"contract": "Defi/StakingPool.sol:StakingPool",
						"label": "dayTime",
						"offset": 0,
						"slot": "12",
						"type": "t_uint256"
					}
				],
				"types": {
					"t_address": {
						"encoding": "inplace",
						"label": "address",
						"numberOfBytes": "20"
					},
					"t_contract(IERC20)244": {
						"encoding": "inplace",
						"label": "contract IERC20",
						"numberOfBytes": "20"
					},
					"t_mapping(t_address,t_uint256)": {
						"encoding": "mapping",
						"key": "t_address",
						"label": "mapping(address => uint256)",
						"numberOfBytes": "32",
						"value": "t_uint256"
					},
					"t_uint256": {
						"encoding": "inplace",
						"label": "uint256",
						"numberOfBytes": "32"
					}
				}
			},
			"userdoc": {
				"kind": "user",
				"methods": {},
				"version": 1
			}
		}
	}
}