{
	"StakingPool.sol": {
		"StakingPool": {
			"abi": [
				{
					"inputs": [
						{
							"internalType": "address",
							"name": "_token",
							"type": "address"
						},
						{
							"internalType": "address",
							"name": "_rewardToken",
							"type": "address"
						},
						{
							"internalType": "uint256",
							"name": "_rewardRateInit",
							"type": "uint256"
						},
						{
							"internalType": "uint256",
							"name": "_lockupPeriod",
							"type": "uint256"
						}
					],
					"stateMutability": "nonpayable",
					"type": "constructor"
				},
				{
					"anonymous": false,
					"inputs": [
						{
							"indexed": true,
							"internalType": "address",
							"name": "user",
							"type": "address"
						},
						{
							"indexed": false,
							"internalType": "uint256",
							"name": "amount",
							"type": "uint256"
						}
					],
					"name": "ClaimReward",
					"type": "event"
				},
				{
					"anonymous": false,
					"inputs": [
						{
							"indexed": true,
							"internalType": "address",
							"name": "previousOwner",
							"type": "address"
						},
						{
							"indexed": true,
							"internalType": "address",
							"name": "newOwner",
							"type": "address"
						}
					],
					"name": "OwnershipTransferred",
					"type": "event"
				},
				{
					"anonymous": false,
					"inputs": [
						{
							"indexed": true,
							"internalType": "address",
							"name": "user",
							"type": "address"
						},
						{
							"indexed": false,
							"internalType": "uint256",
							"name": "amount",
							"type": "uint256"
						}
					],
					"name": "Stake",
					"type": "event"
				},
				{
					"anonymous": false,
					"inputs": [
						{
							"indexed": true,
							"internalType": "address",
							"name": "user",
							"type": "address"
						},
						{
							"indexed": false,
							"internalType": "uint256",
							"name": "amount",
							"type": "uint256"
						}
					],
					"name": "UnStake",
					"type": "event"
				},
				{
					"inputs": [],
					"name": "claimReward",
					"outputs": [],
					"stateMutability": "nonpayable",
					"type": "function"
				},
				{
					"inputs": [],
					"name": "dayTime",
					"outputs": [
						{
							"internalType": "uint256",
							"name": "",
							"type": "uint256"
						}
					],
					"stateMutability": "view",
					"type": "function"
				},
				{
					"inputs": [],
					"name": "lockupPeriod",
					"outputs": [
						{
							"internalType": "uint256",
							"name": "",
							"type": "uint256"
						}
					],
					"stateMutability": "view",
					"type": "function"
				},
				{
					"inputs": [],
					"name": "owner",
					"outputs": [
						{
							"internalType": "address",
							"name": "",
							"type": "address"
						}
					],
					"stateMutability": "view",
					"type": "function"
				},
				{
					"inputs": [],
					"name": "renounceOwnership",
					"outputs": [],
					"stateMutability": "nonpayable",
					"type": "function"
				},
				{
					"inputs": [],
					"name": "rewardRateInit",
					"outputs": [
						{
							"internalType": "uint256",
							"name": "",
							"type": "uint256"
						}
					],
					"stateMutability": "view",
					"type": "function"
				},
				{
					"inputs": [],
					"name": "rewardToken",
					"outputs": [
						{
							"internalType": "contract IERC20",
							"name": "",
							"type": "address"
						}
					],
					"stateMutability": "view",
					"type": "function"
				},
				{
					"inputs": [
						{
							"internalType": "uint256",
							"name": "_rewardRateInit",
							"type": "uint256"
						}
					],
					"name": "setRewardRateInit",
					"outputs": [],
					"stateMutability": "nonpayable",
					"type": "function"
				},
				{
					"inputs": [
						{
							"internalType": "address",
							"name": "_rewardToken",
							"type": "address"
						}
					],
					"name": "setRewardToken",
					"outputs": [],
					"stateMutability": "nonpayable",
					"type": "function"
				},
				{
					"inputs": [
						{
							"internalType": "uint256",
							"name": "_stakingStartTime",
							"type": "uint256"
						}
					],
					"name": "setStakingStartTime",
					"outputs": [],
					"stateMutability": "nonpayable",
					"type": "function"
				},
				{
					"inputs": [
						{
							"internalType": "uint256",
							"name": "_amount",
							"type": "uint256"
						}
					],
					"name": "stake",
					"outputs": [],
					"stateMutability": "nonpayable",
					"type": "function"
				},
				{
					"inputs": [
						{
							"internalType": "address",
							"name": "",
							"type": "address"
						}
					],
					"name": "stakingBalance",
					"outputs": [
						{
							"internalType": "uint256",
							"name": "",
							"type": "uint256"
						}
					],
					"stateMutability": "view",
					"type": "function"
				},
				{
					"inputs": [
						{
							"internalType": "address",
							"name": "",
							"type": "address"
						}
					],
					"name": "stakingReward",
					"outputs": [
						{
							"internalType": "uint256",
							"name": "",
							"type": "uint256"
						}
					],
					"stateMutability": "view",
					"type": "function"
				},
				{
					"inputs": [],
					"name": "stakingStartTime",
					"outputs": [
						{
							"internalType": "uint256",
							"name": "",
							"type": "uint256"
						}
					],
					"stateMutability": "view",
					"type": "function"
				},
				{
					"inputs": [
						{
							"internalType": "address",
							"name": "",
							"type": "address"
						}
					],
					"name": "stakingTime",
					"outputs": [
						{
							"internalType": "uint256",
							"name": "",
							"type": "uint256"
						}
					],
					"stateMutability": "view",
					"type": "function"
				},
				{
					"inputs": [],
					"name": "token",
					"outputs": [
						{
							"internalType": "contract IERC20",
							"name": "",
							"type": "address"
						}
					],
					"stateMutability": "view",
					"type": "function"
				},
				{
					"inputs": [],
					"name": "totalReward",
					"outputs": [
						{
							"internalType": "uint256",
							"name": "",
							"type": "uint256"
						}
					],
					"stateMutability": "view",
					"type": "function"
				},
				{
					"inputs": [],
					"name": "totalStake",
					"outputs": [
						{
							"internalType": "uint256",
							"name": "",
							"type": "uint256"
						}
					],
					"stateMutability": "view",
					"type": "function"
				},
				{
					"inputs": [
						{
							"internalType": "address",
							"name": "newOwner",
							"type": "address"
						}
					],
					"name": "transferOwnership",
					"outputs": [],
					"stateMutability": "nonpayable",
					"type": "function"
				},
				{
					"inputs": [
						{
							"internalType": "uint256",
							"name": "_amount",
							"type": "uint256"
						}
					],
					"name": "unStake",
					"outputs": [],
					"stateMutability": "nonpayable",
					"type": "function"
				}
			],
			"devdoc": {
				"kind": "dev",
				"methods": {
					"owner()": {
						"details": "Returns the address of the current owner."
					},
					"renounceOwnership()": {
						"details": "Leaves the contract without owner. It will not be possible to call `onlyOwner` functions anymore. Can only be called by the current owner. NOTE: Renouncing ownership will leave the contract without an owner, thereby removing any functionality that is only available to the owner."
					},
					"transferOwnership(address)": {
						"details": "Transfers ownership of the contract to a new account (`newOwner`). Can only be called by the current owner."
					}
				},
				"version": 1
			},
			"evm": {
				"assembly": "    /* \"StakingPool.sol\":289:4396  contract StakingPool is Ownable, ReentrancyGuard {... */\n  mstore(0x40, 0x80)\n    /* \"StakingPool.sol\":1155:1160  86400 */\n  0x015180\n    /* \"StakingPool.sol\":1130:1160  uint256 public dayTime = 86400 */\n  0x0c\n  sstore\n    /* \"StakingPool.sol\":1370:1675  constructor(address _token, address _rewardToken, uint256 _rewardRateInit, uint256 _lockupPeriod) {... */\n  callvalue\n  dup1\n  iszero\n  tag_1\n  jumpi\n  0x00\n  dup1\n  revert\ntag_1:\n  pop\n  mload(0x40)\n  sub(codesize, bytecodeSize)\n  dup1\n  bytecodeSize\n  dup4\n  codecopy\n  dup2\n  dup2\n  add\n  0x40\n  mstore\n  dup2\n  add\n  swap1\n  tag_2\n  swap2\n  swap1\n  tag_3\n  jump\t// in\ntag_2:\n    /* \"@openzeppelin/contracts/access/Ownable.sol\":936:968  _transferOwnership(_msgSender()) */\n  tag_8\n    /* \"@openzeppelin/contracts/access/Ownable.sol\":955:967  _msgSender() */\n  tag_9\n    /* \"@openzeppelin/contracts/access/Ownable.sol\":955:965  _msgSender */\n  shl(0x20, tag_10)\n    /* \"@openzeppelin/contracts/access/Ownable.sol\":955:967  _msgSender() */\n  0x20\n  shr\n  jump\t// in\ntag_9:\n    /* \"@openzeppelin/contracts/access/Ownable.sol\":936:954  _transferOwnership */\n  shl(0x20, tag_11)\n    /* \"@openzeppelin/contracts/access/Ownable.sol\":936:968  _transferOwnership(_msgSender()) */\n  0x20\n  shr\n  jump\t// in\ntag_8:\n    /* \"@openzeppelin/contracts/security/ReentrancyGuard.sol\":1716:1717  1 */\n  0x01\n    /* \"@openzeppelin/contracts/security/ReentrancyGuard.sol\":1821:1828  _status */\n  dup1\n    /* \"@openzeppelin/contracts/security/ReentrancyGuard.sol\":1821:1843  _status = _NOT_ENTERED */\n  dup2\n  swap1\n  sstore\n  pop\n    /* \"StakingPool.sol\":1493:1499  _token */\n  dup4\n    /* \"StakingPool.sol\":1478:1483  token */\n  0x02\n  0x00\n    /* \"StakingPool.sol\":1478:1500  token = IERC20(_token) */\n  0x0100\n  exp\n  dup2\n  sload\n  dup2\n  0xffffffffffffffffffffffffffffffffffffffff\n  mul\n  not\n  and\n  swap1\n  dup4\n  0xffffffffffffffffffffffffffffffffffffffff\n  and\n  mul\n  or\n  swap1\n  sstore\n  pop\n    /* \"StakingPool.sol\":1531:1543  _rewardToken */\n  dup3\n    /* \"StakingPool.sol\":1510:1521  rewardToken */\n  0x03\n  0x00\n    /* \"StakingPool.sol\":1510:1544  rewardToken = IERC20(_rewardToken) */\n  0x0100\n  exp\n  dup2\n  sload\n  dup2\n  0xffffffffffffffffffffffffffffffffffffffff\n  mul\n  not\n  and\n  swap1\n  dup4\n  0xffffffffffffffffffffffffffffffffffffffff\n  and\n  mul\n  or\n  swap1\n  sstore\n  pop\n    /* \"StakingPool.sol\":1571:1586  _rewardRateInit */\n  dup2\n    /* \"StakingPool.sol\":1554:1568  rewardRateInit */\n  0x04\n    /* \"StakingPool.sol\":1554:1586  rewardRateInit = _rewardRateInit */\n  dup2\n  swap1\n  sstore\n  pop\n    /* \"StakingPool.sol\":1611:1624  _lockupPeriod */\n  dup1\n    /* \"StakingPool.sol\":1596:1608  lockupPeriod */\n  0x05\n    /* \"StakingPool.sol\":1596:1624  lockupPeriod = _lockupPeriod */\n  dup2\n  swap1\n  sstore\n  pop\n    /* \"StakingPool.sol\":1653:1668  block.timestamp */\n  timestamp\n    /* \"StakingPool.sol\":1634:1650  stakingStartTime */\n  0x06\n    /* \"StakingPool.sol\":1634:1668  stakingStartTime = block.timestamp */\n  dup2\n  swap1\n  sstore\n  pop\n    /* \"StakingPool.sol\":1370:1675  constructor(address _token, address _rewardToken, uint256 _rewardRateInit, uint256 _lockupPeriod) {... */\n  pop\n  pop\n  pop\n  pop\n    /* \"StakingPool.sol\":289:4396  contract StakingPool is Ownable, ReentrancyGuard {... */\n  jump(tag_14)\n    /* \"@openzeppelin/contracts/utils/Context.sol\":640:736  function _msgSender() internal view virtual returns (address) {... */\ntag_10:\n    /* \"@openzeppelin/contracts/utils/Context.sol\":693:700  address */\n  0x00\n    /* \"@openzeppelin/contracts/utils/Context.sol\":719:729  msg.sender */\n  caller\n    /* \"@openzeppelin/contracts/utils/Context.sol\":712:729  return msg.sender */\n  swap1\n  pop\n    /* \"@openzeppelin/contracts/utils/Context.sol\":640:736  function _msgSender() internal view virtual returns (address) {... */\n  swap1\n  jump\t// out\n    /* \"@openzeppelin/contracts/access/Ownable.sol\":2433:2620  function _transferOwnership(address newOwner) internal virtual {... */\ntag_11:\n    /* \"@openzeppelin/contracts/access/Ownable.sol\":2506:2522  address oldOwner */\n  0x00\n    /* \"@openzeppelin/contracts/access/Ownable.sol\":2525:2531  _owner */\n  dup1\n  0x00\n  swap1\n  sload\n  swap1\n  0x0100\n  exp\n  swap1\n  div\n  0xffffffffffffffffffffffffffffffffffffffff\n  and\n    /* \"@openzeppelin/contracts/access/Ownable.sol\":2506:2531  address oldOwner = _owner */\n  swap1\n  pop\n    /* \"@openzeppelin/contracts/access/Ownable.sol\":2550:2558  newOwner */\n  dup2\n    /* \"@openzeppelin/contracts/access/Ownable.sol\":2541:2547  _owner */\n  0x00\n  dup1\n    /* \"@openzeppelin/contracts/access/Ownable.sol\":2541:2558  _owner = newOwner */\n  0x0100\n  exp\n  dup2\n  sload\n  dup2\n  0xffffffffffffffffffffffffffffffffffffffff\n  mul\n  not\n  and\n  swap1\n  dup4\n  0xffffffffffffffffffffffffffffffffffffffff\n  and\n  mul\n  or\n  swap1\n  sstore\n  pop\n    /* \"@openzeppelin/contracts/access/Ownable.sol\":2604:2612  newOwner */\n  dup2\n    /* \"@openzeppelin/contracts/access/Ownable.sol\":2573:2613  OwnershipTransferred(oldOwner, newOwner) */\n  0xffffffffffffffffffffffffffffffffffffffff\n  and\n    /* \"@openzeppelin/contracts/access/Ownable.sol\":2594:2602  oldOwner */\n  dup2\n    /* \"@openzeppelin/contracts/access/Ownable.sol\":2573:2613  OwnershipTransferred(oldOwner, newOwner) */\n  0xffffffffffffffffffffffffffffffffffffffff\n  and\n  0x8be0079c531659141344cd1fd0a4f28419497f9722a3daafe3b4186f6b6457e0\n  mload(0x40)\n  mload(0x40)\n  dup1\n  swap2\n  sub\n  swap1\n  log3\n    /* \"@openzeppelin/contracts/access/Ownable.sol\":2433:2620  function _transferOwnership(address newOwner) internal virtual {... */\n  pop\n  pop\n  jump\t// out\n    /* \"#utility.yul\":7:150   */\ntag_18:\n  0x00\n    /* \"#utility.yul\":95:101   */\n  dup2\n    /* \"#utility.yul\":89:102   */\n  mload\n    /* \"#utility.yul\":80:102   */\n  swap1\n  pop\n    /* \"#utility.yul\":111:144   */\n  tag_20\n    /* \"#utility.yul\":138:143   */\n  dup2\n    /* \"#utility.yul\":111:144   */\n  tag_21\n  jump\t// in\ntag_20:\n    /* \"#utility.yul\":70:150   */\n  swap3\n  swap2\n  pop\n  pop\n  jump\t// out\n    /* \"#utility.yul\":156:299   */\ntag_22:\n  0x00\n    /* \"#utility.yul\":244:250   */\n  dup2\n    /* \"#utility.yul\":238:251   */\n  mload\n    /* \"#utility.yul\":229:251   */\n  swap1\n  pop\n    /* \"#utility.yul\":260:293   */\n  tag_24\n    /* \"#utility.yul\":287:292   */\n  dup2\n    /* \"#utility.yul\":260:293   */\n  tag_25\n  jump\t// in\ntag_24:\n    /* \"#utility.yul\":219:299   */\n  swap3\n  swap2\n  pop\n  pop\n  jump\t// out\n    /* \"#utility.yul\":305:1058   */\ntag_3:\n  0x00\n  dup1\n  0x00\n  dup1\n    /* \"#utility.yul\":475:478   */\n  0x80\n    /* \"#utility.yul\":463:472   */\n  dup6\n    /* \"#utility.yul\":454:461   */\n  dup8\n    /* \"#utility.yul\":450:473   */\n  sub\n    /* \"#utility.yul\":446:479   */\n  slt\n    /* \"#utility.yul\":443:445   */\n  iszero\n  tag_27\n  jumpi\n    /* \"#utility.yul\":492:493   */\n  0x00\n    /* \"#utility.yul\":489:490   */\n  dup1\n    /* \"#utility.yul\":482:494   */\n  revert\n    /* \"#utility.yul\":443:445   */\ntag_27:\n    /* \"#utility.yul\":535:536   */\n  0x00\n    /* \"#utility.yul\":560:624   */\n  tag_28\n    /* \"#utility.yul\":616:623   */\n  dup8\n    /* \"#utility.yul\":607:613   */\n  dup3\n    /* \"#utility.yul\":596:605   */\n  dup9\n    /* \"#utility.yul\":592:614   */\n  add\n    /* \"#utility.yul\":560:624   */\n  tag_18\n  jump\t// in\ntag_28:\n    /* \"#utility.yul\":550:624   */\n  swap5\n  pop\n    /* \"#utility.yul\":506:634   */\n  pop\n    /* \"#utility.yul\":673:675   */\n  0x20\n    /* \"#utility.yul\":699:763   */\n  tag_29\n    /* \"#utility.yul\":755:762   */\n  dup8\n    /* \"#utility.yul\":746:752   */\n  dup3\n    /* \"#utility.yul\":735:744   */\n  dup9\n    /* \"#utility.yul\":731:753   */\n  add\n    /* \"#utility.yul\":699:763   */\n  tag_18\n  jump\t// in\ntag_29:\n    /* \"#utility.yul\":689:763   */\n  swap4\n  pop\n    /* \"#utility.yul\":644:773   */\n  pop\n    /* \"#utility.yul\":812:814   */\n  0x40\n    /* \"#utility.yul\":838:902   */\n  tag_30\n    /* \"#utility.yul\":894:901   */\n  dup8\n    /* \"#utility.yul\":885:891   */\n  dup3\n    /* \"#utility.yul\":874:883   */\n  dup9\n    /* \"#utility.yul\":870:892   */\n  add\n    /* \"#utility.yul\":838:902   */\n  tag_22\n  jump\t// in\ntag_30:\n    /* \"#utility.yul\":828:902   */\n  swap3\n  pop\n    /* \"#utility.yul\":783:912   */\n  pop\n    /* \"#utility.yul\":951:953   */\n  0x60\n    /* \"#utility.yul\":977:1041   */\n  tag_31\n    /* \"#utility.yul\":1033:1040   */\n  dup8\n    /* \"#utility.yul\":1024:1030   */\n  dup3\n    /* \"#utility.yul\":1013:1022   */\n  dup9\n    /* \"#utility.yul\":1009:1031   */\n  add\n    /* \"#utility.yul\":977:1041   */\n  tag_22\n  jump\t// in\ntag_31:\n    /* \"#utility.yul\":967:1041   */\n  swap2\n  pop\n    /* \"#utility.yul\":922:1051   */\n  pop\n    /* \"#utility.yul\":433:1058   */\n  swap3\n  swap6\n  swap2\n  swap5\n  pop\n  swap3\n  pop\n  jump\t// out\n    /* \"#utility.yul\":1064:1160   */\ntag_32:\n  0x00\n    /* \"#utility.yul\":1130:1154   */\n  tag_34\n    /* \"#utility.yul\":1148:1153   */\n  dup3\n    /* \"#utility.yul\":1130:1154   */\n  tag_35\n  jump\t// in\ntag_34:\n    /* \"#utility.yul\":1119:1154   */\n  swap1\n  pop\n    /* \"#utility.yul\":1109:1160   */\n  swap2\n  swap1\n  pop\n  jump\t// out\n    /* \"#utility.yul\":1166:1292   */\ntag_35:\n  0x00\n    /* \"#utility.yul\":1243:1285   */\n  0xffffffffffffffffffffffffffffffffffffffff\n    /* \"#utility.yul\":1236:1241   */\n  dup3\n    /* \"#utility.yul\":1232:1286   */\n  and\n    /* \"#utility.yul\":1221:1286   */\n  swap1\n  pop\n    /* \"#utility.yul\":1211:1292   */\n  swap2\n  swap1\n  pop\n  jump\t// out\n    /* \"#utility.yul\":1298:1375   */\ntag_37:\n  0x00\n    /* \"#utility.yul\":1364:1369   */\n  dup2\n    /* \"#utility.yul\":1353:1369   */\n  swap1\n  pop\n    /* \"#utility.yul\":1343:1375   */\n  swap2\n  swap1\n  pop\n  jump\t// out\n    /* \"#utility.yul\":1381:1503   */\ntag_21:\n    /* \"#utility.yul\":1454:1478   */\n  tag_40\n    /* \"#utility.yul\":1472:1477   */\n  dup2\n    /* \"#utility.yul\":1454:1478   */\n  tag_32\n  jump\t// in\ntag_40:\n    /* \"#utility.yul\":1447:1452   */\n  dup2\n    /* \"#utility.yul\":1444:1479   */\n  eq\n    /* \"#utility.yul\":1434:1436   */\n  tag_41\n  jumpi\n    /* \"#utility.yul\":1493:1494   */\n  0x00\n    /* \"#utility.yul\":1490:1491   */\n  dup1\n    /* \"#utility.yul\":1483:1495   */\n  revert\n    /* \"#utility.yul\":1434:1436   */\ntag_41:\n    /* \"#utility.yul\":1424:1503   */\n  pop\n  jump\t// out\n    /* \"#utility.yul\":1509:1631   */\ntag_25:\n    /* \"#utility.yul\":1582:1606   */\n  tag_43\n    /* \"#utility.yul\":1600:1605   */\n  dup2\n    /* \"#utility.yul\":1582:1606   */\n  tag_37\n  jump\t// in\ntag_43:\n    /* \"#utility.yul\":1575:1580   */\n  dup2\n    /* \"#utility.yul\":1572:1607   */\n  eq\n    /* \"#utility.yul\":1562:1564   */\n  tag_44\n  jumpi\n    /* \"#utility.yul\":1621:1622   */\n  0x00\n    /* \"#utility.yul\":1618:1619   */\n  dup1\n    /* \"#utility.yul\":1611:1623   */\n  revert\n    /* \"#utility.yul\":1562:1564   */\ntag_44:\n    /* \"#utility.yul\":1552:1631   */\n  pop\n  jump\t// out\n    /* \"StakingPool.sol\":289:4396  contract StakingPool is Ownable, ReentrancyGuard {... */\ntag_14:\n  dataSize(sub_0)\n  dup1\n  dataOffset(sub_0)\n  0x00\n  codecopy\n  0x00\n  return\nstop\n\nsub_0: assembly {\n        /* \"StakingPool.sol\":289:4396  contract StakingPool is Ownable, ReentrancyGuard {... */\n      mstore(0x40, 0x80)\n      callvalue\n      dup1\n      iszero\n      tag_1\n      jumpi\n      0x00\n      dup1\n      revert\n    tag_1:\n      pop\n      jumpi(tag_2, lt(calldatasize, 0x04))\n      shr(0xe0, calldataload(0x00))\n      dup1\n      0x8aee8127\n      gt\n      tag_23\n      jumpi\n      dup1\n      0xee947a7c\n      gt\n      tag_24\n      jumpi\n      dup1\n      0xee947a7c\n      eq\n      tag_18\n      jumpi\n      dup1\n      0xf2fde38b\n      eq\n      tag_19\n      jumpi\n      dup1\n      0xf7c618c1\n      eq\n      tag_20\n      jumpi\n      dup1\n      0xfc0c546a\n      eq\n      tag_21\n      jumpi\n      dup1\n      0xfc71ae8c\n      eq\n      tag_22\n      jumpi\n      jump(tag_2)\n    tag_24:\n      dup1\n      0x8aee8127\n      eq\n      tag_13\n      jumpi\n      dup1\n      0x8b0e9f3f\n      eq\n      tag_14\n      jumpi\n      dup1\n      0x8da5cb5b\n      eq\n      tag_15\n      jumpi\n      dup1\n      0xa694fc3a\n      eq\n      tag_16\n      jumpi\n      dup1\n      0xb88a802f\n      eq\n      tag_17\n      jumpi\n      jump(tag_2)\n    tag_23:\n      dup1\n      0x5d90bad9\n      gt\n      tag_25\n      jumpi\n      dup1\n      0x5d90bad9\n      eq\n      tag_8\n      jumpi\n      dup1\n      0x6abfd183\n      eq\n      tag_9\n      jumpi\n      dup1\n      0x715018a6\n      eq\n      tag_10\n      jumpi\n      dup1\n      0x750142e6\n      eq\n      tag_11\n      jumpi\n      dup1\n      0x80c0976e\n      eq\n      tag_12\n      jumpi\n      jump(tag_2)\n    tag_25:\n      dup1\n      0x154a78b5\n      eq\n      tag_3\n      jumpi\n      dup1\n      0x1683153d\n      eq\n      tag_4\n      jumpi\n      dup1\n      0x45bc78ab\n      eq\n      tag_5\n      jumpi\n      dup1\n      0x583d42fd\n      eq\n      tag_6\n      jumpi\n      dup1\n      0x5d3eea91\n      eq\n      tag_7\n      jumpi\n    tag_2:\n      0x00\n      dup1\n      revert\n        /* \"StakingPool.sol\":517:546  uint256 public rewardRateInit */\n    tag_3:\n      tag_26\n      tag_27\n      jump\t// in\n    tag_26:\n      mload(0x40)\n      tag_28\n      swap2\n      swap1\n      tag_29\n      jump\t// in\n    tag_28:\n      mload(0x40)\n      dup1\n      swap2\n      sub\n      swap1\n      return\n        /* \"StakingPool.sol\":912:960  mapping(address => uint256) public stakingReward */\n    tag_4:\n      tag_30\n      0x04\n      dup1\n      calldatasize\n      sub\n      dup2\n      add\n      swap1\n      tag_31\n      swap2\n      swap1\n      tag_32\n      jump\t// in\n    tag_31:\n      tag_33\n      jump\t// in\n    tag_30:\n      mload(0x40)\n      tag_34\n      swap2\n      swap1\n      tag_29\n      jump\t// in\n    tag_34:\n      mload(0x40)\n      dup1\n      swap2\n      sub\n      swap1\n      return\n        /* \"StakingPool.sol\":732:781  mapping(address => uint256) public stakingBalance */\n    tag_5:\n      tag_35\n      0x04\n      dup1\n      calldatasize\n      sub\n      dup2\n      add\n      swap1\n      tag_36\n      swap2\n      swap1\n      tag_32\n      jump\t// in\n    tag_36:\n      tag_37\n      jump\t// in\n    tag_35:\n      mload(0x40)\n      tag_38\n      swap2\n      swap1\n      tag_29\n      jump\t// in\n    tag_38:\n      mload(0x40)\n      dup1\n      swap2\n      sub\n      swap1\n      return\n        /* \"StakingPool.sol\":825:871  mapping(address => uint256) public stakingTime */\n    tag_6:\n      tag_39\n      0x04\n      dup1\n      calldatasize\n      sub\n      dup2\n      add\n      swap1\n      tag_40\n      swap2\n      swap1\n      tag_32\n      jump\t// in\n    tag_40:\n      tag_41\n      jump\t// in\n    tag_39:\n      mload(0x40)\n      tag_42\n      swap2\n      swap1\n      tag_29\n      jump\t// in\n    tag_42:\n      mload(0x40)\n      dup1\n      swap2\n      sub\n      swap1\n      return\n        /* \"StakingPool.sol\":2475:2939  function unStake(uint256 _amount) external nonReentrant {... */\n    tag_7:\n      tag_43\n      0x04\n      dup1\n      calldatasize\n      sub\n      dup2\n      add\n      swap1\n      tag_44\n      swap2\n      swap1\n      tag_45\n      jump\t// in\n    tag_44:\n      tag_46\n      jump\t// in\n    tag_43:\n      stop\n        /* \"StakingPool.sol\":4101:4229  function setStakingStartTime(uint256 _stakingStartTime) external onlyOwner {... */\n    tag_8:\n      tag_47\n      0x04\n      dup1\n      calldatasize\n      sub\n      dup2\n      add\n      swap1\n      tag_48\n      swap2\n      swap1\n      tag_45\n      jump\t// in\n    tag_48:\n      tag_49\n      jump\t// in\n    tag_47:\n      stop\n        /* \"StakingPool.sol\":661:692  uint256 public stakingStartTime */\n    tag_9:\n      tag_50\n      tag_51\n      jump\t// in\n    tag_50:\n      mload(0x40)\n      tag_52\n      swap2\n      swap1\n      tag_29\n      jump\t// in\n    tag_52:\n      mload(0x40)\n      dup1\n      swap2\n      sub\n      swap1\n      return\n        /* \"@openzeppelin/contracts/access/Ownable.sol\":1831:1932  function renounceOwnership() public virtual onlyOwner {... */\n    tag_10:\n      tag_53\n      tag_54\n      jump\t// in\n    tag_53:\n      stop\n        /* \"StakingPool.sol\":1072:1098  uint256 public totalReward */\n    tag_11:\n      tag_55\n      tag_56\n      jump\t// in\n    tag_55:\n      mload(0x40)\n      tag_57\n      swap2\n      swap1\n      tag_29\n      jump\t// in\n    tag_57:\n      mload(0x40)\n      dup1\n      swap2\n      sub\n      swap1\n      return\n        /* \"StakingPool.sol\":1130:1160  uint256 public dayTime = 86400 */\n    tag_12:\n      tag_58\n      tag_59\n      jump\t// in\n    tag_58:\n      mload(0x40)\n      tag_60\n      swap2\n      swap1\n      tag_29\n      jump\t// in\n    tag_60:\n      mload(0x40)\n      dup1\n      swap2\n      sub\n      swap1\n      return\n        /* \"StakingPool.sol\":3941:4057  function setRewardToken(address _rewardToken) external onlyOwner {... */\n    tag_13:\n      tag_61\n      0x04\n      dup1\n      calldatasize\n      sub\n      dup2\n      add\n      swap1\n      tag_62\n      swap2\n      swap1\n      tag_32\n      jump\t// in\n    tag_62:\n      tag_63\n      jump\t// in\n    tag_61:\n      stop\n        /* \"StakingPool.sol\":1012:1037  uint256 public totalStake */\n    tag_14:\n      tag_64\n      tag_65\n      jump\t// in\n    tag_64:\n      mload(0x40)\n      tag_66\n      swap2\n      swap1\n      tag_29\n      jump\t// in\n    tag_66:\n      mload(0x40)\n      dup1\n      swap2\n      sub\n      swap1\n      return\n        /* \"@openzeppelin/contracts/access/Ownable.sol\":1201:1286  function owner() public view virtual returns (address) {... */\n    tag_15:\n      tag_67\n      tag_68\n      jump\t// in\n    tag_67:\n      mload(0x40)\n      tag_69\n      swap2\n      swap1\n      tag_70\n      jump\t// in\n    tag_69:\n      mload(0x40)\n      dup1\n      swap2\n      sub\n      swap1\n      return\n        /* \"StakingPool.sol\":1701:2422  function stake(uint256 _amount) external nonReentrant {... */\n    tag_16:\n      tag_71\n      0x04\n      dup1\n      calldatasize\n      sub\n      dup2\n      add\n      swap1\n      tag_72\n      swap2\n      swap1\n      tag_45\n      jump\t// in\n    tag_72:\n      tag_73\n      jump\t// in\n    tag_71:\n      stop\n        /* \"StakingPool.sol\":2965:3349  function claimReward() external nonReentrant {... */\n    tag_17:\n      tag_74\n      tag_75\n      jump\t// in\n    tag_74:\n      stop\n        /* \"StakingPool.sol\":587:614  uint256 public lockupPeriod */\n    tag_18:\n      tag_76\n      tag_77\n      jump\t// in\n    tag_76:\n      mload(0x40)\n      tag_78\n      swap2\n      swap1\n      tag_29\n      jump\t// in\n    tag_78:\n      mload(0x40)\n      dup1\n      swap2\n      sub\n      swap1\n      return\n        /* \"@openzeppelin/contracts/access/Ownable.sol\":2081:2279  function transferOwnership(address newOwner) public virtual onlyOwner {... */\n    tag_19:\n      tag_79\n      0x04\n      dup1\n      calldatasize\n      sub\n      dup2\n      add\n      swap1\n      tag_80\n      swap2\n      swap1\n      tag_32\n      jump\t// in\n    tag_80:\n      tag_81\n      jump\t// in\n    tag_79:\n      stop\n        /* \"StakingPool.sol\":442:467  IERC20 public rewardToken */\n    tag_20:\n      tag_82\n      tag_83\n      jump\t// in\n    tag_82:\n      mload(0x40)\n      tag_84\n      swap2\n      swap1\n      tag_85\n      jump\t// in\n    tag_84:\n      mload(0x40)\n      dup1\n      swap2\n      sub\n      swap1\n      return\n        /* \"StakingPool.sol\":377:396  IERC20 public token */\n    tag_21:\n      tag_86\n      tag_87\n      jump\t// in\n    tag_86:\n      mload(0x40)\n      tag_88\n      swap2\n      swap1\n      tag_85\n      jump\t// in\n    tag_88:\n      mload(0x40)\n      dup1\n      swap2\n      sub\n      swap1\n      return\n        /* \"StakingPool.sol\":4269:4389  function setRewardRateInit(uint256 _rewardRateInit) external onlyOwner {... */\n    tag_22:\n      tag_89\n      0x04\n      dup1\n      calldatasize\n      sub\n      dup2\n      add\n      swap1\n      tag_90\n      swap2\n      swap1\n      tag_45\n      jump\t// in\n    tag_90:\n      tag_91\n      jump\t// in\n    tag_89:\n      stop\n        /* \"StakingPool.sol\":517:546  uint256 public rewardRateInit */\n    tag_27:\n      sload(0x04)\n      dup2\n      jump\t// out\n        /* \"StakingPool.sol\":912:960  mapping(address => uint256) public stakingReward */\n    tag_33:\n      mstore(0x20, 0x09)\n      dup1\n      0x00\n      mstore\n      keccak256(0x00, 0x40)\n      0x00\n      swap2\n      pop\n      swap1\n      pop\n      sload\n      dup2\n      jump\t// out\n        /* \"StakingPool.sol\":732:781  mapping(address => uint256) public stakingBalance */\n    tag_37:\n      mstore(0x20, 0x07)\n      dup1\n      0x00\n      mstore\n      keccak256(0x00, 0x40)\n      0x00\n      swap2\n      pop\n      swap1\n      pop\n      sload\n      dup2\n      jump\t// out\n        /* \"StakingPool.sol\":825:871  mapping(address => uint256) public stakingTime */\n    tag_41:\n      mstore(0x20, 0x08)\n      dup1\n      0x00\n      mstore\n      keccak256(0x00, 0x40)\n      0x00\n      swap2\n      pop\n      swap1\n      pop\n      sload\n      dup2\n      jump\t// out\n        /* \"StakingPool.sol\":2475:2939  function unStake(uint256 _amount) external nonReentrant {... */\n    tag_46:\n        /* \"@openzeppelin/contracts/security/ReentrancyGuard.sol\":2261:2282  _nonReentrantBefore() */\n      tag_93\n        /* \"@openzeppelin/contracts/security/ReentrancyGuard.sol\":2261:2280  _nonReentrantBefore */\n      tag_94\n        /* \"@openzeppelin/contracts/security/ReentrancyGuard.sol\":2261:2282  _nonReentrantBefore() */\n      jump\t// in\n    tag_93:\n        /* \"StakingPool.sol\":2588:2600  lockupPeriod */\n      sload(0x05)\n        /* \"StakingPool.sol\":2569:2585  stakingStartTime */\n      sload(0x06)\n        /* \"StakingPool.sol\":2569:2600  stakingStartTime + lockupPeriod */\n      tag_96\n      swap2\n      swap1\n      tag_97\n      jump\t// in\n    tag_96:\n        /* \"StakingPool.sol\":2549:2564  block.timestamp */\n      timestamp\n        /* \"StakingPool.sol\":2549:2601  block.timestamp >= (stakingStartTime + lockupPeriod) */\n      lt\n      iszero\n        /* \"StakingPool.sol\":2541:2612  require(block.timestamp >= (stakingStartTime + lockupPeriod), \"Locked\") */\n      tag_98\n      jumpi\n      mload(0x40)\n      0x08c379a000000000000000000000000000000000000000000000000000000000\n      dup2\n      mstore\n      0x04\n      add\n      tag_99\n      swap1\n      tag_100\n      jump\t// in\n    tag_99:\n      mload(0x40)\n      dup1\n      swap2\n      sub\n      swap1\n      revert\n    tag_98:\n        /* \"StakingPool.sol\":2660:2667  _amount */\n      dup1\n        /* \"StakingPool.sol\":2630:2644  stakingBalance */\n      0x07\n        /* \"StakingPool.sol\":2630:2656  stakingBalance[msg.sender] */\n      0x00\n        /* \"StakingPool.sol\":2645:2655  msg.sender */\n      caller\n        /* \"StakingPool.sol\":2630:2656  stakingBalance[msg.sender] */\n      0xffffffffffffffffffffffffffffffffffffffff\n      and\n      0xffffffffffffffffffffffffffffffffffffffff\n      and\n      dup2\n      mstore\n      0x20\n      add\n      swap1\n      dup2\n      mstore\n      0x20\n      add\n      0x00\n      keccak256\n      sload\n        /* \"StakingPool.sol\":2630:2667  stakingBalance[msg.sender] >= _amount */\n      lt\n      iszero\n        /* \"StakingPool.sol\":2622:2692  require(stakingBalance[msg.sender] >= _amount, \"Insufficient balance\") */\n      tag_101\n      jumpi\n      mload(0x40)\n      0x08c379a000000000000000000000000000000000000000000000000000000000\n      dup2\n      mstore\n      0x04\n      add\n      tag_102\n      swap1\n      tag_103\n      jump\t// in\n    tag_102:\n      mload(0x40)\n      dup1\n      swap2\n      sub\n      swap1\n      revert\n    tag_101:\n        /* \"StakingPool.sol\":2710:2715  token */\n      0x02\n      0x00\n      swap1\n      sload\n      swap1\n      0x0100\n      exp\n      swap1\n      div\n      0xffffffffffffffffffffffffffffffffffffffff\n      and\n        /* \"StakingPool.sol\":2710:2724  token.transfer */\n      0xffffffffffffffffffffffffffffffffffffffff\n      and\n      0xa9059cbb\n        /* \"StakingPool.sol\":2725:2735  msg.sender */\n      caller\n        /* \"StakingPool.sol\":2737:2744  _amount */\n      dup4\n        /* \"StakingPool.sol\":2710:2745  token.transfer(msg.sender, _amount) */\n      mload(0x40)\n      dup4\n      0xffffffff\n      and\n      0xe0\n      shl\n      dup2\n      mstore\n      0x04\n      add\n      tag_104\n      swap3\n      swap2\n      swap1\n      tag_105\n      jump\t// in\n    tag_104:\n      0x20\n      mload(0x40)\n      dup1\n      dup4\n      sub\n      dup2\n      0x00\n      dup8\n      dup1\n      extcodesize\n      iszero\n      dup1\n      iszero\n      tag_106\n      jumpi\n      0x00\n      dup1\n      revert\n    tag_106:\n      pop\n      gas\n      call\n      iszero\n      dup1\n      iszero\n      tag_108\n      jumpi\n      returndatasize\n      0x00\n      dup1\n      returndatacopy\n      revert(0x00, returndatasize)\n    tag_108:\n      pop\n      pop\n      pop\n      pop\n      mload(0x40)\n      returndatasize\n      not(0x1f)\n      0x1f\n      dup3\n      add\n      and\n      dup3\n      add\n      dup1\n      0x40\n      mstore\n      pop\n      dup2\n      add\n      swap1\n      tag_109\n      swap2\n      swap1\n      tag_110\n      jump\t// in\n    tag_109:\n        /* \"StakingPool.sol\":2702:2765  require(token.transfer(msg.sender, _amount), \"Transfer failed\") */\n      tag_111\n      jumpi\n      mload(0x40)\n      0x08c379a000000000000000000000000000000000000000000000000000000000\n      dup2\n      mstore\n      0x04\n      add\n      tag_112\n      swap1\n      tag_113\n      jump\t// in\n    tag_112:\n      mload(0x40)\n      dup1\n      swap2\n      sub\n      swap1\n      revert\n    tag_111:\n        /* \"StakingPool.sol\":2804:2843  stakingBalance[msg.sender].sub(_amount) */\n      tag_114\n        /* \"StakingPool.sol\":2835:2842  _amount */\n      dup2\n        /* \"StakingPool.sol\":2804:2818  stakingBalance */\n      0x07\n        /* \"StakingPool.sol\":2804:2830  stakingBalance[msg.sender] */\n      0x00\n        /* \"StakingPool.sol\":2819:2829  msg.sender */\n      caller\n        /* \"StakingPool.sol\":2804:2830  stakingBalance[msg.sender] */\n      0xffffffffffffffffffffffffffffffffffffffff\n      and\n      0xffffffffffffffffffffffffffffffffffffffff\n      and\n      dup2\n      mstore\n      0x20\n      add\n      swap1\n      dup2\n      mstore\n      0x20\n      add\n      0x00\n      keccak256\n      sload\n        /* \"StakingPool.sol\":2804:2834  stakingBalance[msg.sender].sub */\n      tag_115\n      swap1\n        /* \"StakingPool.sol\":2804:2843  stakingBalance[msg.sender].sub(_amount) */\n      swap2\n      swap1\n      0xffffffff\n      and\n      jump\t// in\n    tag_114:\n        /* \"StakingPool.sol\":2775:2789  stakingBalance */\n      0x07\n        /* \"StakingPool.sol\":2775:2801  stakingBalance[msg.sender] */\n      0x00\n        /* \"StakingPool.sol\":2790:2800  msg.sender */\n      caller\n        /* \"StakingPool.sol\":2775:2801  stakingBalance[msg.sender] */\n      0xffffffffffffffffffffffffffffffffffffffff\n      and\n      0xffffffffffffffffffffffffffffffffffffffff\n      and\n      dup2\n      mstore\n      0x20\n      add\n      swap1\n      dup2\n      mstore\n      0x20\n      add\n      0x00\n      keccak256\n        /* \"StakingPool.sol\":2775:2843  stakingBalance[msg.sender] = stakingBalance[msg.sender].sub(_amount) */\n      dup2\n      swap1\n      sstore\n      pop\n        /* \"StakingPool.sol\":2866:2889  totalStake.sub(_amount) */\n      tag_116\n        /* \"StakingPool.sol\":2881:2888  _amount */\n      dup2\n        /* \"StakingPool.sol\":2866:2876  totalStake */\n      sload(0x0a)\n        /* \"StakingPool.sol\":2866:2880  totalStake.sub */\n      tag_115\n      swap1\n        /* \"StakingPool.sol\":2866:2889  totalStake.sub(_amount) */\n      swap2\n      swap1\n      0xffffffff\n      and\n      jump\t// in\n    tag_116:\n        /* \"StakingPool.sol\":2853:2863  totalStake */\n      0x0a\n        /* \"StakingPool.sol\":2853:2889  totalStake = totalStake.sub(_amount) */\n      dup2\n      swap1\n      sstore\n      pop\n        /* \"StakingPool.sol\":2912:2922  msg.sender */\n      caller\n        /* \"StakingPool.sol\":2904:2932  UnStake(msg.sender, _amount) */\n      0xffffffffffffffffffffffffffffffffffffffff\n      and\n      0xb24546d975e2628748efc9aced80665e0fad66272033e5c0ea25fd3afac99795\n        /* \"StakingPool.sol\":2924:2931  _amount */\n      dup3\n        /* \"StakingPool.sol\":2904:2932  UnStake(msg.sender, _amount) */\n      mload(0x40)\n      tag_117\n      swap2\n      swap1\n      tag_29\n      jump\t// in\n    tag_117:\n      mload(0x40)\n      dup1\n      swap2\n      sub\n      swap1\n      log2\n        /* \"@openzeppelin/contracts/security/ReentrancyGuard.sol\":2303:2323  _nonReentrantAfter() */\n      tag_118\n        /* \"@openzeppelin/contracts/security/ReentrancyGuard.sol\":2303:2321  _nonReentrantAfter */\n      tag_119\n        /* \"@openzeppelin/contracts/security/ReentrancyGuard.sol\":2303:2323  _nonReentrantAfter() */\n      jump\t// in\n    tag_118:\n        /* \"StakingPool.sol\":2475:2939  function unStake(uint256 _amount) external nonReentrant {... */\n      pop\n      jump\t// out\n        /* \"StakingPool.sol\":4101:4229  function setStakingStartTime(uint256 _stakingStartTime) external onlyOwner {... */\n    tag_49:\n        /* \"@openzeppelin/contracts/access/Ownable.sol\":1094:1107  _checkOwner() */\n      tag_121\n        /* \"@openzeppelin/contracts/access/Ownable.sol\":1094:1105  _checkOwner */\n      tag_122\n        /* \"@openzeppelin/contracts/access/Ownable.sol\":1094:1107  _checkOwner() */\n      jump\t// in\n    tag_121:\n        /* \"StakingPool.sol\":4205:4222  _stakingStartTime */\n      dup1\n        /* \"StakingPool.sol\":4186:4202  stakingStartTime */\n      0x06\n        /* \"StakingPool.sol\":4186:4222  stakingStartTime = _stakingStartTime */\n      dup2\n      swap1\n      sstore\n      pop\n        /* \"StakingPool.sol\":4101:4229  function setStakingStartTime(uint256 _stakingStartTime) external onlyOwner {... */\n      pop\n      jump\t// out\n        /* \"StakingPool.sol\":661:692  uint256 public stakingStartTime */\n    tag_51:\n      sload(0x06)\n      dup2\n      jump\t// out\n        /* \"@openzeppelin/contracts/access/Ownable.sol\":1831:1932  function renounceOwnership() public virtual onlyOwner {... */\n    tag_54:\n        /* \"@openzeppelin/contracts/access/Ownable.sol\":1094:1107  _checkOwner() */\n      tag_125\n        /* \"@openzeppelin/contracts/access/Ownable.sol\":1094:1105  _checkOwner */\n      tag_122\n        /* \"@openzeppelin/contracts/access/Ownable.sol\":1094:1107  _checkOwner() */\n      jump\t// in\n    tag_125:\n        /* \"@openzeppelin/contracts/access/Ownable.sol\":1895:1925  _transferOwnership(address(0)) */\n      tag_127\n        /* \"@openzeppelin/contracts/access/Ownable.sol\":1922:1923  0 */\n      0x00\n        /* \"@openzeppelin/contracts/access/Ownable.sol\":1895:1913  _transferOwnership */\n      tag_128\n        /* \"@openzeppelin/contracts/access/Ownable.sol\":1895:1925  _transferOwnership(address(0)) */\n      jump\t// in\n    tag_127:\n        /* \"@openzeppelin/contracts/access/Ownable.sol\":1831:1932  function renounceOwnership() public virtual onlyOwner {... */\n      jump\t// out\n        /* \"StakingPool.sol\":1072:1098  uint256 public totalReward */\n    tag_56:\n      sload(0x0b)\n      dup2\n      jump\t// out\n        /* \"StakingPool.sol\":1130:1160  uint256 public dayTime = 86400 */\n    tag_59:\n      sload(0x0c)\n      dup2\n      jump\t// out\n        /* \"StakingPool.sol\":3941:4057  function setRewardToken(address _rewardToken) external onlyOwner {... */\n    tag_63:\n        /* \"@openzeppelin/contracts/access/Ownable.sol\":1094:1107  _checkOwner() */\n      tag_130\n        /* \"@openzeppelin/contracts/access/Ownable.sol\":1094:1105  _checkOwner */\n      tag_122\n        /* \"@openzeppelin/contracts/access/Ownable.sol\":1094:1107  _checkOwner() */\n      jump\t// in\n    tag_130:\n        /* \"StakingPool.sol\":4037:4049  _rewardToken */\n      dup1\n        /* \"StakingPool.sol\":4016:4027  rewardToken */\n      0x03\n      0x00\n        /* \"StakingPool.sol\":4016:4050  rewardToken = IERC20(_rewardToken) */\n      0x0100\n      exp\n      dup2\n      sload\n      dup2\n      0xffffffffffffffffffffffffffffffffffffffff\n      mul\n      not\n      and\n      swap1\n      dup4\n      0xffffffffffffffffffffffffffffffffffffffff\n      and\n      mul\n      or\n      swap1\n      sstore\n      pop\n        /* \"StakingPool.sol\":3941:4057  function setRewardToken(address _rewardToken) external onlyOwner {... */\n      pop\n      jump\t// out\n        /* \"StakingPool.sol\":1012:1037  uint256 public totalStake */\n    tag_65:\n      sload(0x0a)\n      dup2\n      jump\t// out\n        /* \"@openzeppelin/contracts/access/Ownable.sol\":1201:1286  function owner() public view virtual returns (address) {... */\n    tag_68:\n        /* \"@openzeppelin/contracts/access/Ownable.sol\":1247:1254  address */\n      0x00\n        /* \"@openzeppelin/contracts/access/Ownable.sol\":1273:1279  _owner */\n      dup1\n      0x00\n      swap1\n      sload\n      swap1\n      0x0100\n      exp\n      swap1\n      div\n      0xffffffffffffffffffffffffffffffffffffffff\n      and\n        /* \"@openzeppelin/contracts/access/Ownable.sol\":1266:1279  return _owner */\n      swap1\n      pop\n        /* \"@openzeppelin/contracts/access/Ownable.sol\":1201:1286  function owner() public view virtual returns (address) {... */\n      swap1\n      jump\t// out\n        /* \"StakingPool.sol\":1701:2422  function stake(uint256 _amount) external nonReentrant {... */\n    tag_73:\n        /* \"@openzeppelin/contracts/security/ReentrancyGuard.sol\":2261:2282  _nonReentrantBefore() */\n      tag_134\n        /* \"@openzeppelin/contracts/security/ReentrancyGuard.sol\":2261:2280  _nonReentrantBefore */\n      tag_94\n        /* \"@openzeppelin/contracts/security/ReentrancyGuard.sol\":2261:2282  _nonReentrantBefore() */\n      jump\t// in\n    tag_134:\n        /* \"StakingPool.sol\":1810:1822  lockupPeriod */\n      sload(0x05)\n        /* \"StakingPool.sol\":1791:1807  stakingStartTime */\n      sload(0x06)\n        /* \"StakingPool.sol\":1791:1822  stakingStartTime + lockupPeriod */\n      tag_136\n      swap2\n      swap1\n      tag_97\n      jump\t// in\n    tag_136:\n        /* \"StakingPool.sol\":1773:1788  block.timestamp */\n      timestamp\n        /* \"StakingPool.sol\":1773:1822  block.timestamp < stakingStartTime + lockupPeriod */\n      lt\n        /* \"StakingPool.sol\":1765:1865  require(block.timestamp < stakingStartTime + lockupPeriod, \"The current staking activity has ended\") */\n      tag_137\n      jumpi\n      mload(0x40)\n      0x08c379a000000000000000000000000000000000000000000000000000000000\n      dup2\n      mstore\n      0x04\n      add\n      tag_138\n      swap1\n      tag_139\n      jump\t// in\n    tag_138:\n      mload(0x40)\n      dup1\n      swap2\n      sub\n      swap1\n      revert\n    tag_137:\n        /* \"StakingPool.sol\":1893:1894  0 */\n      0x00\n        /* \"StakingPool.sol\":1883:1890  _amount */\n      dup2\n        /* \"StakingPool.sol\":1883:1894  _amount > 0 */\n      gt\n        /* \"StakingPool.sol\":1875:1930  require(_amount > 0, \"Amount should greater than zero\") */\n      tag_140\n      jumpi\n      mload(0x40)\n      0x08c379a000000000000000000000000000000000000000000000000000000000\n      dup2\n      mstore\n      0x04\n      add\n      tag_141\n      swap1\n      tag_142\n      jump\t// in\n    tag_141:\n      mload(0x40)\n      dup1\n      swap2\n      sub\n      swap1\n      revert\n    tag_140:\n        /* \"StakingPool.sol\":1948:1953  token */\n      0x02\n      0x00\n      swap1\n      sload\n      swap1\n      0x0100\n      exp\n      swap1\n      div\n      0xffffffffffffffffffffffffffffffffffffffff\n      and\n        /* \"StakingPool.sol\":1948:1966  token.transferFrom */\n      0xffffffffffffffffffffffffffffffffffffffff\n      and\n      0x23b872dd\n        /* \"StakingPool.sol\":1967:1977  msg.sender */\n      caller\n        /* \"StakingPool.sol\":1987:1991  this */\n      address\n        /* \"StakingPool.sol\":1994:2001  _amount */\n      dup5\n        /* \"StakingPool.sol\":1948:2002  token.transferFrom(msg.sender, address(this), _amount) */\n      mload(0x40)\n      dup5\n      0xffffffff\n      and\n      0xe0\n      shl\n      dup2\n      mstore\n      0x04\n      add\n      tag_143\n      swap4\n      swap3\n      swap2\n      swap1\n      tag_144\n      jump\t// in\n    tag_143:\n      0x20\n      mload(0x40)\n      dup1\n      dup4\n      sub\n      dup2\n      0x00\n      dup8\n      dup1\n      extcodesize\n      iszero\n      dup1\n      iszero\n      tag_145\n      jumpi\n      0x00\n      dup1\n      revert\n    tag_145:\n      pop\n      gas\n      call\n      iszero\n      dup1\n      iszero\n      tag_147\n      jumpi\n      returndatasize\n      0x00\n      dup1\n      returndatacopy\n      revert(0x00, returndatasize)\n    tag_147:\n      pop\n      pop\n      pop\n      pop\n      mload(0x40)\n      returndatasize\n      not(0x1f)\n      0x1f\n      dup3\n      add\n      and\n      dup3\n      add\n      dup1\n      0x40\n      mstore\n      pop\n      dup2\n      add\n      swap1\n      tag_148\n      swap2\n      swap1\n      tag_110\n      jump\t// in\n    tag_148:\n        /* \"StakingPool.sol\":1940:2022  require(token.transferFrom(msg.sender, address(this), _amount), \"Transfer failed\") */\n      tag_149\n      jumpi\n      mload(0x40)\n      0x08c379a000000000000000000000000000000000000000000000000000000000\n      dup2\n      mstore\n      0x04\n      add\n      tag_150\n      swap1\n      tag_113\n      jump\t// in\n    tag_150:\n      mload(0x40)\n      dup1\n      swap2\n      sub\n      swap1\n      revert\n    tag_149:\n        /* \"StakingPool.sol\":2061:2100  stakingBalance[msg.sender].add(_amount) */\n      tag_151\n        /* \"StakingPool.sol\":2092:2099  _amount */\n      dup2\n        /* \"StakingPool.sol\":2061:2075  stakingBalance */\n      0x07\n        /* \"StakingPool.sol\":2061:2087  stakingBalance[msg.sender] */\n      0x00\n        /* \"StakingPool.sol\":2076:2086  msg.sender */\n      caller\n        /* \"StakingPool.sol\":2061:2087  stakingBalance[msg.sender] */\n      0xffffffffffffffffffffffffffffffffffffffff\n      and\n      0xffffffffffffffffffffffffffffffffffffffff\n      and\n      dup2\n      mstore\n      0x20\n      add\n      swap1\n      dup2\n      mstore\n      0x20\n      add\n      0x00\n      keccak256\n      sload\n        /* \"StakingPool.sol\":2061:2091  stakingBalance[msg.sender].add */\n      tag_152\n      swap1\n        /* \"StakingPool.sol\":2061:2100  stakingBalance[msg.sender].add(_amount) */\n      swap2\n      swap1\n      0xffffffff\n      and\n      jump\t// in\n    tag_151:\n        /* \"StakingPool.sol\":2032:2046  stakingBalance */\n      0x07\n        /* \"StakingPool.sol\":2032:2058  stakingBalance[msg.sender] */\n      0x00\n        /* \"StakingPool.sol\":2047:2057  msg.sender */\n      caller\n        /* \"StakingPool.sol\":2032:2058  stakingBalance[msg.sender] */\n      0xffffffffffffffffffffffffffffffffffffffff\n      and\n      0xffffffffffffffffffffffffffffffffffffffff\n      and\n      dup2\n      mstore\n      0x20\n      add\n      swap1\n      dup2\n      mstore\n      0x20\n      add\n      0x00\n      keccak256\n        /* \"StakingPool.sol\":2032:2100  stakingBalance[msg.sender] = stakingBalance[msg.sender].add(_amount) */\n      dup2\n      swap1\n      sstore\n      pop\n        /* \"StakingPool.sol\":2136:2151  block.timestamp */\n      timestamp\n        /* \"StakingPool.sol\":2110:2121  stakingTime */\n      0x08\n        /* \"StakingPool.sol\":2110:2133  stakingTime[msg.sender] */\n      0x00\n        /* \"StakingPool.sol\":2122:2132  msg.sender */\n      caller\n        /* \"StakingPool.sol\":2110:2133  stakingTime[msg.sender] */\n      0xffffffffffffffffffffffffffffffffffffffff\n      and\n      0xffffffffffffffffffffffffffffffffffffffff\n      and\n      dup2\n      mstore\n      0x20\n      add\n      swap1\n      dup2\n      mstore\n      0x20\n      add\n      0x00\n      keccak256\n        /* \"StakingPool.sol\":2110:2151  stakingTime[msg.sender] = block.timestamp */\n      dup2\n      swap1\n      sstore\n      pop\n        /* \"StakingPool.sol\":2161:2175  uint256 reward */\n      0x00\n        /* \"StakingPool.sol\":2178:2206  getRewardForUser(msg.sender) */\n      tag_153\n        /* \"StakingPool.sol\":2195:2205  msg.sender */\n      caller\n        /* \"StakingPool.sol\":2178:2194  getRewardForUser */\n      tag_154\n        /* \"StakingPool.sol\":2178:2206  getRewardForUser(msg.sender) */\n      jump\t// in\n    tag_153:\n        /* \"StakingPool.sol\":2161:2206  uint256 reward = getRewardForUser(msg.sender) */\n      swap1\n      pop\n        /* \"StakingPool.sol\":2244:2281  stakingReward[msg.sender].add(reward) */\n      tag_155\n        /* \"StakingPool.sol\":2274:2280  reward */\n      dup2\n        /* \"StakingPool.sol\":2244:2257  stakingReward */\n      0x09\n        /* \"StakingPool.sol\":2244:2269  stakingReward[msg.sender] */\n      0x00\n        /* \"StakingPool.sol\":2258:2268  msg.sender */\n      caller\n        /* \"StakingPool.sol\":2244:2269  stakingReward[msg.sender] */\n      0xffffffffffffffffffffffffffffffffffffffff\n      and\n      0xffffffffffffffffffffffffffffffffffffffff\n      and\n      dup2\n      mstore\n      0x20\n      add\n      swap1\n      dup2\n      mstore\n      0x20\n      add\n      0x00\n      keccak256\n      sload\n        /* \"StakingPool.sol\":2244:2273  stakingReward[msg.sender].add */\n      tag_152\n      swap1\n        /* \"StakingPool.sol\":2244:2281  stakingReward[msg.sender].add(reward) */\n      swap2\n      swap1\n      0xffffffff\n      and\n      jump\t// in\n    tag_155:\n        /* \"StakingPool.sol\":2216:2229  stakingReward */\n      0x09\n        /* \"StakingPool.sol\":2216:2241  stakingReward[msg.sender] */\n      0x00\n        /* \"StakingPool.sol\":2230:2240  msg.sender */\n      caller\n        /* \"StakingPool.sol\":2216:2241  stakingReward[msg.sender] */\n      0xffffffffffffffffffffffffffffffffffffffff\n      and\n      0xffffffffffffffffffffffffffffffffffffffff\n      and\n      dup2\n      mstore\n      0x20\n      add\n      swap1\n      dup2\n      mstore\n      0x20\n      add\n      0x00\n      keccak256\n        /* \"StakingPool.sol\":2216:2281  stakingReward[msg.sender] = stakingReward[msg.sender].add(reward) */\n      dup2\n      swap1\n      sstore\n      pop\n        /* \"StakingPool.sol\":2304:2327  totalStake.add(_amount) */\n      tag_156\n        /* \"StakingPool.sol\":2319:2326  _amount */\n      dup3\n        /* \"StakingPool.sol\":2304:2314  totalStake */\n      sload(0x0a)\n        /* \"StakingPool.sol\":2304:2318  totalStake.add */\n      tag_152\n      swap1\n        /* \"StakingPool.sol\":2304:2327  totalStake.add(_amount) */\n      swap2\n      swap1\n      0xffffffff\n      and\n      jump\t// in\n    tag_156:\n        /* \"StakingPool.sol\":2291:2301  totalStake */\n      0x0a\n        /* \"StakingPool.sol\":2291:2327  totalStake = totalStake.add(_amount) */\n      dup2\n      swap1\n      sstore\n      pop\n        /* \"StakingPool.sol\":2351:2374  totalReward.add(reward) */\n      tag_157\n        /* \"StakingPool.sol\":2367:2373  reward */\n      dup2\n        /* \"StakingPool.sol\":2351:2362  totalReward */\n      sload(0x0b)\n        /* \"StakingPool.sol\":2351:2366  totalReward.add */\n      tag_152\n      swap1\n        /* \"StakingPool.sol\":2351:2374  totalReward.add(reward) */\n      swap2\n      swap1\n      0xffffffff\n      and\n      jump\t// in\n    tag_157:\n        /* \"StakingPool.sol\":2337:2348  totalReward */\n      0x0b\n        /* \"StakingPool.sol\":2337:2374  totalReward = totalReward.add(reward) */\n      dup2\n      swap1\n      sstore\n      pop\n        /* \"StakingPool.sol\":2395:2405  msg.sender */\n      caller\n        /* \"StakingPool.sol\":2389:2415  Stake(msg.sender, _amount) */\n      0xffffffffffffffffffffffffffffffffffffffff\n      and\n      0xebedb8b3c678666e7f36970bc8f57abf6d8fa2e828c0da91ea5b75bf68ed101a\n        /* \"StakingPool.sol\":2407:2414  _amount */\n      dup4\n        /* \"StakingPool.sol\":2389:2415  Stake(msg.sender, _amount) */\n      mload(0x40)\n      tag_158\n      swap2\n      swap1\n      tag_29\n      jump\t// in\n    tag_158:\n      mload(0x40)\n      dup1\n      swap2\n      sub\n      swap1\n      log2\n        /* \"@openzeppelin/contracts/security/ReentrancyGuard.sol\":2292:2293  _ */\n      pop\n        /* \"@openzeppelin/contracts/security/ReentrancyGuard.sol\":2303:2323  _nonReentrantAfter() */\n      tag_159\n        /* \"@openzeppelin/contracts/security/ReentrancyGuard.sol\":2303:2321  _nonReentrantAfter */\n      tag_119\n        /* \"@openzeppelin/contracts/security/ReentrancyGuard.sol\":2303:2323  _nonReentrantAfter() */\n      jump\t// in\n    tag_159:\n        /* \"StakingPool.sol\":1701:2422  function stake(uint256 _amount) external nonReentrant {... */\n      pop\n      jump\t// out\n        /* \"StakingPool.sol\":2965:3349  function claimReward() external nonReentrant {... */\n    tag_75:\n        /* \"@openzeppelin/contracts/security/ReentrancyGuard.sol\":2261:2282  _nonReentrantBefore() */\n      tag_161\n        /* \"@openzeppelin/contracts/security/ReentrancyGuard.sol\":2261:2280  _nonReentrantBefore */\n      tag_94\n        /* \"@openzeppelin/contracts/security/ReentrancyGuard.sol\":2261:2282  _nonReentrantBefore() */\n      jump\t// in\n    tag_161:\n        /* \"StakingPool.sol\":3054:3055  0 */\n      0x00\n        /* \"StakingPool.sol\":3028:3039  stakingTime */\n      0x08\n        /* \"StakingPool.sol\":3028:3051  stakingTime[msg.sender] */\n      0x00\n        /* \"StakingPool.sol\":3040:3050  msg.sender */\n      caller\n        /* \"StakingPool.sol\":3028:3051  stakingTime[msg.sender] */\n      0xffffffffffffffffffffffffffffffffffffffff\n      and\n      0xffffffffffffffffffffffffffffffffffffffff\n      and\n      dup2\n      mstore\n      0x20\n      add\n      swap1\n      dup2\n      mstore\n      0x20\n      add\n      0x00\n      keccak256\n      sload\n        /* \"StakingPool.sol\":3028:3055  stakingTime[msg.sender] > 0 */\n      gt\n        /* \"StakingPool.sol\":3020:3082  require(stakingTime[msg.sender] > 0, \"Address was not staked\") */\n      tag_163\n      jumpi\n      mload(0x40)\n      0x08c379a000000000000000000000000000000000000000000000000000000000\n      dup2\n      mstore\n      0x04\n      add\n      tag_164\n      swap1\n      tag_165\n      jump\t// in\n    tag_164:\n      mload(0x40)\n      dup1\n      swap2\n      sub\n      swap1\n      revert\n    tag_163:\n        /* \"StakingPool.sol\":3092:3106  uint256 reward */\n      0x00\n        /* \"StakingPool.sol\":3109:3122  stakingReward */\n      0x09\n        /* \"StakingPool.sol\":3109:3134  stakingReward[msg.sender] */\n      0x00\n        /* \"StakingPool.sol\":3123:3133  msg.sender */\n      caller\n        /* \"StakingPool.sol\":3109:3134  stakingReward[msg.sender] */\n      0xffffffffffffffffffffffffffffffffffffffff\n      and\n      0xffffffffffffffffffffffffffffffffffffffff\n      and\n      dup2\n      mstore\n      0x20\n      add\n      swap1\n      dup2\n      mstore\n      0x20\n      add\n      0x00\n      keccak256\n      sload\n        /* \"StakingPool.sol\":3092:3134  uint256 reward = stakingReward[msg.sender] */\n      swap1\n      pop\n        /* \"StakingPool.sol\":3152:3163  rewardToken */\n      0x03\n      0x00\n      swap1\n      sload\n      swap1\n      0x0100\n      exp\n      swap1\n      div\n      0xffffffffffffffffffffffffffffffffffffffff\n      and\n        /* \"StakingPool.sol\":3152:3172  rewardToken.transfer */\n      0xffffffffffffffffffffffffffffffffffffffff\n      and\n      0xa9059cbb\n        /* \"StakingPool.sol\":3173:3183  msg.sender */\n      caller\n        /* \"StakingPool.sol\":3185:3191  reward */\n      dup4\n        /* \"StakingPool.sol\":3152:3192  rewardToken.transfer(msg.sender, reward) */\n      mload(0x40)\n      dup4\n      0xffffffff\n      and\n      0xe0\n      shl\n      dup2\n      mstore\n      0x04\n      add\n      tag_166\n      swap3\n      swap2\n      swap1\n      tag_105\n      jump\t// in\n    tag_166:\n      0x20\n      mload(0x40)\n      dup1\n      dup4\n      sub\n      dup2\n      0x00\n      dup8\n      dup1\n      extcodesize\n      iszero\n      dup1\n      iszero\n      tag_167\n      jumpi\n      0x00\n      dup1\n      revert\n    tag_167:\n      pop\n      gas\n      call\n      iszero\n      dup1\n      iszero\n      tag_169\n      jumpi\n      returndatasize\n      0x00\n      dup1\n      returndatacopy\n      revert(0x00, returndatasize)\n    tag_169:\n      pop\n      pop\n      pop\n      pop\n      mload(0x40)\n      returndatasize\n      not(0x1f)\n      0x1f\n      dup3\n      add\n      and\n      dup3\n      add\n      dup1\n      0x40\n      mstore\n      pop\n      dup2\n      add\n      swap1\n      tag_170\n      swap2\n      swap1\n      tag_110\n      jump\t// in\n    tag_170:\n        /* \"StakingPool.sol\":3144:3212  require(rewardToken.transfer(msg.sender, reward), \"Transfer failed\") */\n      tag_171\n      jumpi\n      mload(0x40)\n      0x08c379a000000000000000000000000000000000000000000000000000000000\n      dup2\n      mstore\n      0x04\n      add\n      tag_172\n      swap1\n      tag_113\n      jump\t// in\n    tag_172:\n      mload(0x40)\n      dup1\n      swap2\n      sub\n      swap1\n      revert\n    tag_171:\n        /* \"StakingPool.sol\":3248:3249  0 */\n      0x00\n        /* \"StakingPool.sol\":3222:3235  stakingReward */\n      0x09\n        /* \"StakingPool.sol\":3222:3247  stakingReward[msg.sender] */\n      0x00\n        /* \"StakingPool.sol\":3236:3246  msg.sender */\n      caller\n        /* \"StakingPool.sol\":3222:3247  stakingReward[msg.sender] */\n      0xffffffffffffffffffffffffffffffffffffffff\n      and\n      0xffffffffffffffffffffffffffffffffffffffff\n      and\n      dup2\n      mstore\n      0x20\n      add\n      swap1\n      dup2\n      mstore\n      0x20\n      add\n      0x00\n      keccak256\n        /* \"StakingPool.sol\":3222:3249  stakingReward[msg.sender]=0 */\n      dup2\n      swap1\n      sstore\n      pop\n        /* \"StakingPool.sol\":3273:3296  totalReward.sub(reward) */\n      tag_173\n        /* \"StakingPool.sol\":3289:3295  reward */\n      dup2\n        /* \"StakingPool.sol\":3273:3284  totalReward */\n      sload(0x0b)\n        /* \"StakingPool.sol\":3273:3288  totalReward.sub */\n      tag_115\n      swap1\n        /* \"StakingPool.sol\":3273:3296  totalReward.sub(reward) */\n      swap2\n      swap1\n      0xffffffff\n      and\n      jump\t// in\n    tag_173:\n        /* \"StakingPool.sol\":3259:3270  totalReward */\n      0x0b\n        /* \"StakingPool.sol\":3259:3296  totalReward = totalReward.sub(reward) */\n      dup2\n      swap1\n      sstore\n      pop\n        /* \"StakingPool.sol\":3323:3333  msg.sender */\n      caller\n        /* \"StakingPool.sol\":3311:3342  ClaimReward(msg.sender, reward) */\n      0xffffffffffffffffffffffffffffffffffffffff\n      and\n      0xba8de60c3403ec381d1d484652ea1980e3c3e56359195c92525bff4ce47ad98e\n        /* \"StakingPool.sol\":3335:3341  reward */\n      dup3\n        /* \"StakingPool.sol\":3311:3342  ClaimReward(msg.sender, reward) */\n      mload(0x40)\n      tag_174\n      swap2\n      swap1\n      tag_29\n      jump\t// in\n    tag_174:\n      mload(0x40)\n      dup1\n      swap2\n      sub\n      swap1\n      log2\n        /* \"@openzeppelin/contracts/security/ReentrancyGuard.sol\":2292:2293  _ */\n      pop\n        /* \"@openzeppelin/contracts/security/ReentrancyGuard.sol\":2303:2323  _nonReentrantAfter() */\n      tag_175\n        /* \"@openzeppelin/contracts/security/ReentrancyGuard.sol\":2303:2321  _nonReentrantAfter */\n      tag_119\n        /* \"@openzeppelin/contracts/security/ReentrancyGuard.sol\":2303:2323  _nonReentrantAfter() */\n      jump\t// in\n    tag_175:\n        /* \"StakingPool.sol\":2965:3349  function claimReward() external nonReentrant {... */\n      jump\t// out\n        /* \"StakingPool.sol\":587:614  uint256 public lockupPeriod */\n    tag_77:\n      sload(0x05)\n      dup2\n      jump\t// out\n        /* \"@openzeppelin/contracts/access/Ownable.sol\":2081:2279  function transferOwnership(address newOwner) public virtual onlyOwner {... */\n    tag_81:\n        /* \"@openzeppelin/contracts/access/Ownable.sol\":1094:1107  _checkOwner() */\n      tag_177\n        /* \"@openzeppelin/contracts/access/Ownable.sol\":1094:1105  _checkOwner */\n      tag_122\n        /* \"@openzeppelin/contracts/access/Ownable.sol\":1094:1107  _checkOwner() */\n      jump\t// in\n    tag_177:\n        /* \"@openzeppelin/contracts/access/Ownable.sol\":2189:2190  0 */\n      0x00\n        /* \"@openzeppelin/contracts/access/Ownable.sol\":2169:2191  newOwner != address(0) */\n      0xffffffffffffffffffffffffffffffffffffffff\n      and\n        /* \"@openzeppelin/contracts/access/Ownable.sol\":2169:2177  newOwner */\n      dup2\n        /* \"@openzeppelin/contracts/access/Ownable.sol\":2169:2191  newOwner != address(0) */\n      0xffffffffffffffffffffffffffffffffffffffff\n      and\n      eq\n      iszero\n        /* \"@openzeppelin/contracts/access/Ownable.sol\":2161:2234  require(newOwner != address(0), \"Ownable: new owner is the zero address\") */\n      tag_179\n      jumpi\n      mload(0x40)\n      0x08c379a000000000000000000000000000000000000000000000000000000000\n      dup2\n      mstore\n      0x04\n      add\n      tag_180\n      swap1\n      tag_181\n      jump\t// in\n    tag_180:\n      mload(0x40)\n      dup1\n      swap2\n      sub\n      swap1\n      revert\n    tag_179:\n        /* \"@openzeppelin/contracts/access/Ownable.sol\":2244:2272  _transferOwnership(newOwner) */\n      tag_182\n        /* \"@openzeppelin/contracts/access/Ownable.sol\":2263:2271  newOwner */\n      dup2\n        /* \"@openzeppelin/contracts/access/Ownable.sol\":2244:2262  _transferOwnership */\n      tag_128\n        /* \"@openzeppelin/contracts/access/Ownable.sol\":2244:2272  _transferOwnership(newOwner) */\n      jump\t// in\n    tag_182:\n        /* \"@openzeppelin/contracts/access/Ownable.sol\":2081:2279  function transferOwnership(address newOwner) public virtual onlyOwner {... */\n      pop\n      jump\t// out\n        /* \"StakingPool.sol\":442:467  IERC20 public rewardToken */\n    tag_83:\n      0x03\n      0x00\n      swap1\n      sload\n      swap1\n      0x0100\n      exp\n      swap1\n      div\n      0xffffffffffffffffffffffffffffffffffffffff\n      and\n      dup2\n      jump\t// out\n        /* \"StakingPool.sol\":377:396  IERC20 public token */\n    tag_87:\n      0x02\n      0x00\n      swap1\n      sload\n      swap1\n      0x0100\n      exp\n      swap1\n      div\n      0xffffffffffffffffffffffffffffffffffffffff\n      and\n      dup2\n      jump\t// out\n        /* \"StakingPool.sol\":4269:4389  function setRewardRateInit(uint256 _rewardRateInit) external onlyOwner {... */\n    tag_91:\n        /* \"@openzeppelin/contracts/access/Ownable.sol\":1094:1107  _checkOwner() */\n      tag_184\n        /* \"@openzeppelin/contracts/access/Ownable.sol\":1094:1105  _checkOwner */\n      tag_122\n        /* \"@openzeppelin/contracts/access/Ownable.sol\":1094:1107  _checkOwner() */\n      jump\t// in\n    tag_184:\n        /* \"StakingPool.sol\":4367:4382  _rewardRateInit */\n      dup1\n        /* \"StakingPool.sol\":4350:4364  rewardRateInit */\n      0x04\n        /* \"StakingPool.sol\":4350:4382  rewardRateInit = _rewardRateInit */\n      dup2\n      swap1\n      sstore\n      pop\n        /* \"StakingPool.sol\":4269:4389  function setRewardRateInit(uint256 _rewardRateInit) external onlyOwner {... */\n      pop\n      jump\t// out\n        /* \"@openzeppelin/contracts/security/ReentrancyGuard.sol\":2336:2623  function _nonReentrantBefore() private {... */\n    tag_94:\n        /* \"@openzeppelin/contracts/security/ReentrancyGuard.sol\":1759:1760  2 */\n      0x02\n        /* \"@openzeppelin/contracts/security/ReentrancyGuard.sol\":2468:2475  _status */\n      sload(0x01)\n        /* \"@openzeppelin/contracts/security/ReentrancyGuard.sol\":2468:2487  _status != _ENTERED */\n      eq\n      iszero\n        /* \"@openzeppelin/contracts/security/ReentrancyGuard.sol\":2460:2523  require(_status != _ENTERED, \"ReentrancyGuard: reentrant call\") */\n      tag_187\n      jumpi\n      mload(0x40)\n      0x08c379a000000000000000000000000000000000000000000000000000000000\n      dup2\n      mstore\n      0x04\n      add\n      tag_188\n      swap1\n      tag_189\n      jump\t// in\n    tag_188:\n      mload(0x40)\n      dup1\n      swap2\n      sub\n      swap1\n      revert\n    tag_187:\n        /* \"@openzeppelin/contracts/security/ReentrancyGuard.sol\":1759:1760  2 */\n      0x02\n        /* \"@openzeppelin/contracts/security/ReentrancyGuard.sol\":2598:2605  _status */\n      0x01\n        /* \"@openzeppelin/contracts/security/ReentrancyGuard.sol\":2598:2616  _status = _ENTERED */\n      dup2\n      swap1\n      sstore\n      pop\n        /* \"@openzeppelin/contracts/security/ReentrancyGuard.sol\":2336:2623  function _nonReentrantBefore() private {... */\n      jump\t// out\n        /* \"@openzeppelin/contracts/utils/math/SafeMath.sol\":3122:3218  function sub(uint256 a, uint256 b) internal pure returns (uint256) {... */\n    tag_115:\n        /* \"@openzeppelin/contracts/utils/math/SafeMath.sol\":3180:3187  uint256 */\n      0x00\n        /* \"@openzeppelin/contracts/utils/math/SafeMath.sol\":3210:3211  b */\n      dup2\n        /* \"@openzeppelin/contracts/utils/math/SafeMath.sol\":3206:3207  a */\n      dup4\n        /* \"@openzeppelin/contracts/utils/math/SafeMath.sol\":3206:3211  a - b */\n      tag_191\n      swap2\n      swap1\n      tag_192\n      jump\t// in\n    tag_191:\n        /* \"@openzeppelin/contracts/utils/math/SafeMath.sol\":3199:3211  return a - b */\n      swap1\n      pop\n        /* \"@openzeppelin/contracts/utils/math/SafeMath.sol\":3122:3218  function sub(uint256 a, uint256 b) internal pure returns (uint256) {... */\n      swap3\n      swap2\n      pop\n      pop\n      jump\t// out\n        /* \"@openzeppelin/contracts/security/ReentrancyGuard.sol\":2629:2838  function _nonReentrantAfter() private {... */\n    tag_119:\n        /* \"@openzeppelin/contracts/security/ReentrancyGuard.sol\":1716:1717  1 */\n      0x01\n        /* \"@openzeppelin/contracts/security/ReentrancyGuard.sol\":2809:2816  _status */\n      dup1\n        /* \"@openzeppelin/contracts/security/ReentrancyGuard.sol\":2809:2831  _status = _NOT_ENTERED */\n      dup2\n      swap1\n      sstore\n      pop\n        /* \"@openzeppelin/contracts/security/ReentrancyGuard.sol\":2629:2838  function _nonReentrantAfter() private {... */\n      jump\t// out\n        /* \"@openzeppelin/contracts/access/Ownable.sol\":1359:1489  function _checkOwner() internal view virtual {... */\n    tag_122:\n        /* \"@openzeppelin/contracts/access/Ownable.sol\":1433:1445  _msgSender() */\n      tag_195\n        /* \"@openzeppelin/contracts/access/Ownable.sol\":1433:1443  _msgSender */\n      tag_196\n        /* \"@openzeppelin/contracts/access/Ownable.sol\":1433:1445  _msgSender() */\n      jump\t// in\n    tag_195:\n        /* \"@openzeppelin/contracts/access/Ownable.sol\":1422:1445  owner() == _msgSender() */\n      0xffffffffffffffffffffffffffffffffffffffff\n      and\n        /* \"@openzeppelin/contracts/access/Ownable.sol\":1422:1429  owner() */\n      tag_197\n        /* \"@openzeppelin/contracts/access/Ownable.sol\":1422:1427  owner */\n      tag_68\n        /* \"@openzeppelin/contracts/access/Ownable.sol\":1422:1429  owner() */\n      jump\t// in\n    tag_197:\n        /* \"@openzeppelin/contracts/access/Ownable.sol\":1422:1445  owner() == _msgSender() */\n      0xffffffffffffffffffffffffffffffffffffffff\n      and\n      eq\n        /* \"@openzeppelin/contracts/access/Ownable.sol\":1414:1482  require(owner() == _msgSender(), \"Ownable: caller is not the owner\") */\n      tag_198\n      jumpi\n      mload(0x40)\n      0x08c379a000000000000000000000000000000000000000000000000000000000\n      dup2\n      mstore\n      0x04\n      add\n      tag_199\n      swap1\n      tag_200\n      jump\t// in\n    tag_199:\n      mload(0x40)\n      dup1\n      swap2\n      sub\n      swap1\n      revert\n    tag_198:\n        /* \"@openzeppelin/contracts/access/Ownable.sol\":1359:1489  function _checkOwner() internal view virtual {... */\n      jump\t// out\n        /* \"@openzeppelin/contracts/access/Ownable.sol\":2433:2620  function _transferOwnership(address newOwner) internal virtual {... */\n    tag_128:\n        /* \"@openzeppelin/contracts/access/Ownable.sol\":2506:2522  address oldOwner */\n      0x00\n        /* \"@openzeppelin/contracts/access/Ownable.sol\":2525:2531  _owner */\n      dup1\n      0x00\n      swap1\n      sload\n      swap1\n      0x0100\n      exp\n      swap1\n      div\n      0xffffffffffffffffffffffffffffffffffffffff\n      and\n        /* \"@openzeppelin/contracts/access/Ownable.sol\":2506:2531  address oldOwner = _owner */\n      swap1\n      pop\n        /* \"@openzeppelin/contracts/access/Ownable.sol\":2550:2558  newOwner */\n      dup2\n        /* \"@openzeppelin/contracts/access/Ownable.sol\":2541:2547  _owner */\n      0x00\n      dup1\n        /* \"@openzeppelin/contracts/access/Ownable.sol\":2541:2558  _owner = newOwner */\n      0x0100\n      exp\n      dup2\n      sload\n      dup2\n      0xffffffffffffffffffffffffffffffffffffffff\n      mul\n      not\n      and\n      swap1\n      dup4\n      0xffffffffffffffffffffffffffffffffffffffff\n      and\n      mul\n      or\n      swap1\n      sstore\n      pop\n        /* \"@openzeppelin/contracts/access/Ownable.sol\":2604:2612  newOwner */\n      dup2\n        /* \"@openzeppelin/contracts/access/Ownable.sol\":2573:2613  OwnershipTransferred(oldOwner, newOwner) */\n      0xffffffffffffffffffffffffffffffffffffffff\n      and\n        /* \"@openzeppelin/contracts/access/Ownable.sol\":2594:2602  oldOwner */\n      dup2\n        /* \"@openzeppelin/contracts/access/Ownable.sol\":2573:2613  OwnershipTransferred(oldOwner, newOwner) */\n      0xffffffffffffffffffffffffffffffffffffffff\n      and\n      0x8be0079c531659141344cd1fd0a4f28419497f9722a3daafe3b4186f6b6457e0\n      mload(0x40)\n      mload(0x40)\n      dup1\n      swap2\n      sub\n      swap1\n      log3\n        /* \"@openzeppelin/contracts/access/Ownable.sol\":2433:2620  function _transferOwnership(address newOwner) internal virtual {... */\n      pop\n      pop\n      jump\t// out\n        /* \"@openzeppelin/contracts/utils/math/SafeMath.sol\":2755:2851  function add(uint256 a, uint256 b) internal pure returns (uint256) {... */\n    tag_152:\n        /* \"@openzeppelin/contracts/utils/math/SafeMath.sol\":2813:2820  uint256 */\n      0x00\n        /* \"@openzeppelin/contracts/utils/math/SafeMath.sol\":2843:2844  b */\n      dup2\n        /* \"@openzeppelin/contracts/utils/math/SafeMath.sol\":2839:2840  a */\n      dup4\n        /* \"@openzeppelin/contracts/utils/math/SafeMath.sol\":2839:2844  a + b */\n      tag_203\n      swap2\n      swap1\n      tag_97\n      jump\t// in\n    tag_203:\n        /* \"@openzeppelin/contracts/utils/math/SafeMath.sol\":2832:2844  return a + b */\n      swap1\n      pop\n        /* \"@openzeppelin/contracts/utils/math/SafeMath.sol\":2755:2851  function add(uint256 a, uint256 b) internal pure returns (uint256) {... */\n      swap3\n      swap2\n      pop\n      pop\n      jump\t// out\n        /* \"StakingPool.sol\":3411:3903  function getRewardForUser(address account) internal view returns (uint256) {... */\n    tag_154:\n        /* \"StakingPool.sol\":3477:3484  uint256 */\n      0x00\n        /* \"StakingPool.sol\":3496:3524  uint256 stakingDaysRemaining */\n      dup1\n        /* \"StakingPool.sol\":3527:3589  (lockupPeriod.add(stakingStartTime)).sub(stakingTime[account]) */\n      tag_205\n        /* \"StakingPool.sol\":3568:3579  stakingTime */\n      0x08\n        /* \"StakingPool.sol\":3568:3588  stakingTime[account] */\n      0x00\n        /* \"StakingPool.sol\":3580:3587  account */\n      dup6\n        /* \"StakingPool.sol\":3568:3588  stakingTime[account] */\n      0xffffffffffffffffffffffffffffffffffffffff\n      and\n      0xffffffffffffffffffffffffffffffffffffffff\n      and\n      dup2\n      mstore\n      0x20\n      add\n      swap1\n      dup2\n      mstore\n      0x20\n      add\n      0x00\n      keccak256\n      sload\n        /* \"StakingPool.sol\":3528:3562  lockupPeriod.add(stakingStartTime) */\n      tag_206\n        /* \"StakingPool.sol\":3545:3561  stakingStartTime */\n      sload(0x06)\n        /* \"StakingPool.sol\":3528:3540  lockupPeriod */\n      sload(0x05)\n        /* \"StakingPool.sol\":3528:3544  lockupPeriod.add */\n      tag_152\n      swap1\n        /* \"StakingPool.sol\":3528:3562  lockupPeriod.add(stakingStartTime) */\n      swap2\n      swap1\n      0xffffffff\n      and\n      jump\t// in\n    tag_206:\n        /* \"StakingPool.sol\":3527:3567  (lockupPeriod.add(stakingStartTime)).sub */\n      tag_115\n      swap1\n        /* \"StakingPool.sol\":3527:3589  (lockupPeriod.add(stakingStartTime)).sub(stakingTime[account]) */\n      swap2\n      swap1\n      0xffffffff\n      and\n      jump\t// in\n    tag_205:\n        /* \"StakingPool.sol\":3496:3589  uint256 stakingDaysRemaining = (lockupPeriod.add(stakingStartTime)).sub(stakingTime[account]) */\n      swap1\n      pop\n        /* \"StakingPool.sol\":3765:3779  uint256 reward */\n      0x00\n        /* \"StakingPool.sol\":3782:3873  stakingBalance[account].div(1e6).mul(rewardRateInit).mul(stakingDaysRemaining).div(dayTime) */\n      tag_207\n        /* \"StakingPool.sol\":3865:3872  dayTime */\n      sload(0x0c)\n        /* \"StakingPool.sol\":3782:3860  stakingBalance[account].div(1e6).mul(rewardRateInit).mul(stakingDaysRemaining) */\n      tag_208\n        /* \"StakingPool.sol\":3839:3859  stakingDaysRemaining */\n      dup5\n        /* \"StakingPool.sol\":3782:3834  stakingBalance[account].div(1e6).mul(rewardRateInit) */\n      tag_209\n        /* \"StakingPool.sol\":3819:3833  rewardRateInit */\n      sload(0x04)\n        /* \"StakingPool.sol\":3782:3814  stakingBalance[account].div(1e6) */\n      tag_210\n        /* \"StakingPool.sol\":3810:3813  1e6 */\n      0x0f4240\n        /* \"StakingPool.sol\":3782:3796  stakingBalance */\n      0x07\n        /* \"StakingPool.sol\":3782:3805  stakingBalance[account] */\n      0x00\n        /* \"StakingPool.sol\":3797:3804  account */\n      dup14\n        /* \"StakingPool.sol\":3782:3805  stakingBalance[account] */\n      0xffffffffffffffffffffffffffffffffffffffff\n      and\n      0xffffffffffffffffffffffffffffffffffffffff\n      and\n      dup2\n      mstore\n      0x20\n      add\n      swap1\n      dup2\n      mstore\n      0x20\n      add\n      0x00\n      keccak256\n      sload\n        /* \"StakingPool.sol\":3782:3809  stakingBalance[account].div */\n      tag_211\n      swap1\n        /* \"StakingPool.sol\":3782:3814  stakingBalance[account].div(1e6) */\n      swap2\n      swap1\n      0xffffffff\n      and\n      jump\t// in\n    tag_210:\n        /* \"StakingPool.sol\":3782:3818  stakingBalance[account].div(1e6).mul */\n      tag_212\n      swap1\n        /* \"StakingPool.sol\":3782:3834  stakingBalance[account].div(1e6).mul(rewardRateInit) */\n      swap2\n      swap1\n      0xffffffff\n      and\n      jump\t// in\n    tag_209:\n        /* \"StakingPool.sol\":3782:3838  stakingBalance[account].div(1e6).mul(rewardRateInit).mul */\n      tag_212\n      swap1\n        /* \"StakingPool.sol\":3782:3860  stakingBalance[account].div(1e6).mul(rewardRateInit).mul(stakingDaysRemaining) */\n      swap2\n      swap1\n      0xffffffff\n      and\n      jump\t// in\n    tag_208:\n        /* \"StakingPool.sol\":3782:3864  stakingBalance[account].div(1e6).mul(rewardRateInit).mul(stakingDaysRemaining).div */\n      tag_211\n      swap1\n        /* \"StakingPool.sol\":3782:3873  stakingBalance[account].div(1e6).mul(rewardRateInit).mul(stakingDaysRemaining).div(dayTime) */\n      swap2\n      swap1\n      0xffffffff\n      and\n      jump\t// in\n    tag_207:\n        /* \"StakingPool.sol\":3765:3873  uint256 reward = stakingBalance[account].div(1e6).mul(rewardRateInit).mul(stakingDaysRemaining).div(dayTime) */\n      swap1\n      pop\n        /* \"StakingPool.sol\":3890:3896  reward */\n      dup1\n        /* \"StakingPool.sol\":3883:3896  return reward */\n      swap3\n      pop\n      pop\n      pop\n        /* \"StakingPool.sol\":3411:3903  function getRewardForUser(address account) internal view returns (uint256) {... */\n      swap2\n      swap1\n      pop\n      jump\t// out\n        /* \"@openzeppelin/contracts/utils/Context.sol\":640:736  function _msgSender() internal view virtual returns (address) {... */\n    tag_196:\n        /* \"@openzeppelin/contracts/utils/Context.sol\":693:700  address */\n      0x00\n        /* \"@openzeppelin/contracts/utils/Context.sol\":719:729  msg.sender */\n      caller\n        /* \"@openzeppelin/contracts/utils/Context.sol\":712:729  return msg.sender */\n      swap1\n      pop\n        /* \"@openzeppelin/contracts/utils/Context.sol\":640:736  function _msgSender() internal view virtual returns (address) {... */\n      swap1\n      jump\t// out\n        /* \"@openzeppelin/contracts/utils/math/SafeMath.sol\":3850:3946  function div(uint256 a, uint256 b) internal pure returns (uint256) {... */\n    tag_211:\n        /* \"@openzeppelin/contracts/utils/math/SafeMath.sol\":3908:3915  uint256 */\n      0x00\n        /* \"@openzeppelin/contracts/utils/math/SafeMath.sol\":3938:3939  b */\n      dup2\n        /* \"@openzeppelin/contracts/utils/math/SafeMath.sol\":3934:3935  a */\n      dup4\n        /* \"@openzeppelin/contracts/utils/math/SafeMath.sol\":3934:3939  a / b */\n      tag_215\n      swap2\n      swap1\n      tag_216\n      jump\t// in\n    tag_215:\n        /* \"@openzeppelin/contracts/utils/math/SafeMath.sol\":3927:3939  return a / b */\n      swap1\n      pop\n        /* \"@openzeppelin/contracts/utils/math/SafeMath.sol\":3850:3946  function div(uint256 a, uint256 b) internal pure returns (uint256) {... */\n      swap3\n      swap2\n      pop\n      pop\n      jump\t// out\n        /* \"@openzeppelin/contracts/utils/math/SafeMath.sol\":3465:3561  function mul(uint256 a, uint256 b) internal pure returns (uint256) {... */\n    tag_212:\n        /* \"@openzeppelin/contracts/utils/math/SafeMath.sol\":3523:3530  uint256 */\n      0x00\n        /* \"@openzeppelin/contracts/utils/math/SafeMath.sol\":3553:3554  b */\n      dup2\n        /* \"@openzeppelin/contracts/utils/math/SafeMath.sol\":3549:3550  a */\n      dup4\n        /* \"@openzeppelin/contracts/utils/math/SafeMath.sol\":3549:3554  a * b */\n      tag_218\n      swap2\n      swap1\n      tag_219\n      jump\t// in\n    tag_218:\n        /* \"@openzeppelin/contracts/utils/math/SafeMath.sol\":3542:3554  return a * b */\n      swap1\n      pop\n        /* \"@openzeppelin/contracts/utils/math/SafeMath.sol\":3465:3561  function mul(uint256 a, uint256 b) internal pure returns (uint256) {... */\n      swap3\n      swap2\n      pop\n      pop\n      jump\t// out\n        /* \"#utility.yul\":7:146   */\n    tag_221:\n      0x00\n        /* \"#utility.yul\":91:97   */\n      dup2\n        /* \"#utility.yul\":78:98   */\n      calldataload\n        /* \"#utility.yul\":69:98   */\n      swap1\n      pop\n        /* \"#utility.yul\":107:140   */\n      tag_223\n        /* \"#utility.yul\":134:139   */\n      dup2\n        /* \"#utility.yul\":107:140   */\n      tag_224\n      jump\t// in\n    tag_223:\n        /* \"#utility.yul\":59:146   */\n      swap3\n      swap2\n      pop\n      pop\n      jump\t// out\n        /* \"#utility.yul\":152:289   */\n    tag_225:\n      0x00\n        /* \"#utility.yul\":237:243   */\n      dup2\n        /* \"#utility.yul\":231:244   */\n      mload\n        /* \"#utility.yul\":222:244   */\n      swap1\n      pop\n        /* \"#utility.yul\":253:283   */\n      tag_227\n        /* \"#utility.yul\":277:282   */\n      dup2\n        /* \"#utility.yul\":253:283   */\n      tag_228\n      jump\t// in\n    tag_227:\n        /* \"#utility.yul\":212:289   */\n      swap3\n      swap2\n      pop\n      pop\n      jump\t// out\n        /* \"#utility.yul\":295:434   */\n    tag_229:\n      0x00\n        /* \"#utility.yul\":379:385   */\n      dup2\n        /* \"#utility.yul\":366:386   */\n      calldataload\n        /* \"#utility.yul\":357:386   */\n      swap1\n      pop\n        /* \"#utility.yul\":395:428   */\n      tag_231\n        /* \"#utility.yul\":422:427   */\n      dup2\n        /* \"#utility.yul\":395:428   */\n      tag_232\n      jump\t// in\n    tag_231:\n        /* \"#utility.yul\":347:434   */\n      swap3\n      swap2\n      pop\n      pop\n      jump\t// out\n        /* \"#utility.yul\":440:702   */\n    tag_32:\n      0x00\n        /* \"#utility.yul\":548:550   */\n      0x20\n        /* \"#utility.yul\":536:545   */\n      dup3\n        /* \"#utility.yul\":527:534   */\n      dup5\n        /* \"#utility.yul\":523:546   */\n      sub\n        /* \"#utility.yul\":519:551   */\n      slt\n        /* \"#utility.yul\":516:518   */\n      iszero\n      tag_234\n      jumpi\n        /* \"#utility.yul\":564:565   */\n      0x00\n        /* \"#utility.yul\":561:562   */\n      dup1\n        /* \"#utility.yul\":554:566   */\n      revert\n        /* \"#utility.yul\":516:518   */\n    tag_234:\n        /* \"#utility.yul\":607:608   */\n      0x00\n        /* \"#utility.yul\":632:685   */\n      tag_235\n        /* \"#utility.yul\":677:684   */\n      dup5\n        /* \"#utility.yul\":668:674   */\n      dup3\n        /* \"#utility.yul\":657:666   */\n      dup6\n        /* \"#utility.yul\":653:675   */\n      add\n        /* \"#utility.yul\":632:685   */\n      tag_221\n      jump\t// in\n    tag_235:\n        /* \"#utility.yul\":622:685   */\n      swap2\n      pop\n        /* \"#utility.yul\":578:695   */\n      pop\n        /* \"#utility.yul\":506:702   */\n      swap3\n      swap2\n      pop\n      pop\n      jump\t// out\n        /* \"#utility.yul\":708:986   */\n    tag_110:\n      0x00\n        /* \"#utility.yul\":824:826   */\n      0x20\n        /* \"#utility.yul\":812:821   */\n      dup3\n        /* \"#utility.yul\":803:810   */\n      dup5\n        /* \"#utility.yul\":799:822   */\n      sub\n        /* \"#utility.yul\":795:827   */\n      slt\n        /* \"#utility.yul\":792:794   */\n      iszero\n      tag_237\n      jumpi\n        /* \"#utility.yul\":840:841   */\n      0x00\n        /* \"#utility.yul\":837:838   */\n      dup1\n        /* \"#utility.yul\":830:842   */\n      revert\n        /* \"#utility.yul\":792:794   */\n    tag_237:\n        /* \"#utility.yul\":883:884   */\n      0x00\n        /* \"#utility.yul\":908:969   */\n      tag_238\n        /* \"#utility.yul\":961:968   */\n      dup5\n        /* \"#utility.yul\":952:958   */\n      dup3\n        /* \"#utility.yul\":941:950   */\n      dup6\n        /* \"#utility.yul\":937:959   */\n      add\n        /* \"#utility.yul\":908:969   */\n      tag_225\n      jump\t// in\n    tag_238:\n        /* \"#utility.yul\":898:969   */\n      swap2\n      pop\n        /* \"#utility.yul\":854:979   */\n      pop\n        /* \"#utility.yul\":782:986   */\n      swap3\n      swap2\n      pop\n      pop\n      jump\t// out\n        /* \"#utility.yul\":992:1254   */\n    tag_45:\n      0x00\n        /* \"#utility.yul\":1100:1102   */\n      0x20\n        /* \"#utility.yul\":1088:1097   */\n      dup3\n        /* \"#utility.yul\":1079:1086   */\n      dup5\n        /* \"#utility.yul\":1075:1098   */\n      sub\n        /* \"#utility.yul\":1071:1103   */\n      slt\n        /* \"#utility.yul\":1068:1070   */\n      iszero\n      tag_240\n      jumpi\n        /* \"#utility.yul\":1116:1117   */\n      0x00\n        /* \"#utility.yul\":1113:1114   */\n      dup1\n        /* \"#utility.yul\":1106:1118   */\n      revert\n        /* \"#utility.yul\":1068:1070   */\n    tag_240:\n        /* \"#utility.yul\":1159:1160   */\n      0x00\n        /* \"#utility.yul\":1184:1237   */\n      tag_241\n        /* \"#utility.yul\":1229:1236   */\n      dup5\n        /* \"#utility.yul\":1220:1226   */\n      dup3\n        /* \"#utility.yul\":1209:1218   */\n      dup6\n        /* \"#utility.yul\":1205:1227   */\n      add\n        /* \"#utility.yul\":1184:1237   */\n      tag_229\n      jump\t// in\n    tag_241:\n        /* \"#utility.yul\":1174:1237   */\n      swap2\n      pop\n        /* \"#utility.yul\":1130:1247   */\n      pop\n        /* \"#utility.yul\":1058:1254   */\n      swap3\n      swap2\n      pop\n      pop\n      jump\t// out\n        /* \"#utility.yul\":1260:1378   */\n    tag_242:\n        /* \"#utility.yul\":1347:1371   */\n      tag_244\n        /* \"#utility.yul\":1365:1370   */\n      dup2\n        /* \"#utility.yul\":1347:1371   */\n      tag_245\n      jump\t// in\n    tag_244:\n        /* \"#utility.yul\":1342:1345   */\n      dup3\n        /* \"#utility.yul\":1335:1372   */\n      mstore\n        /* \"#utility.yul\":1325:1378   */\n      pop\n      pop\n      jump\t// out\n        /* \"#utility.yul\":1384:1543   */\n    tag_246:\n        /* \"#utility.yul\":1485:1536   */\n      tag_248\n        /* \"#utility.yul\":1530:1535   */\n      dup2\n        /* \"#utility.yul\":1485:1536   */\n      tag_249\n      jump\t// in\n    tag_248:\n        /* \"#utility.yul\":1480:1483   */\n      dup3\n        /* \"#utility.yul\":1473:1537   */\n      mstore\n        /* \"#utility.yul\":1463:1543   */\n      pop\n      pop\n      jump\t// out\n        /* \"#utility.yul\":1549:1915   */\n    tag_250:\n      0x00\n        /* \"#utility.yul\":1712:1779   */\n      tag_252\n        /* \"#utility.yul\":1776:1778   */\n      0x16\n        /* \"#utility.yul\":1771:1774   */\n      dup4\n        /* \"#utility.yul\":1712:1779   */\n      tag_253\n      jump\t// in\n    tag_252:\n        /* \"#utility.yul\":1705:1779   */\n      swap2\n      pop\n        /* \"#utility.yul\":1788:1881   */\n      tag_254\n        /* \"#utility.yul\":1877:1880   */\n      dup3\n        /* \"#utility.yul\":1788:1881   */\n      tag_255\n      jump\t// in\n    tag_254:\n        /* \"#utility.yul\":1906:1908   */\n      0x20\n        /* \"#utility.yul\":1901:1904   */\n      dup3\n        /* \"#utility.yul\":1897:1909   */\n      add\n        /* \"#utility.yul\":1890:1909   */\n      swap1\n      pop\n        /* \"#utility.yul\":1695:1915   */\n      swap2\n      swap1\n      pop\n      jump\t// out\n        /* \"#utility.yul\":1921:2286   */\n    tag_256:\n      0x00\n        /* \"#utility.yul\":2084:2150   */\n      tag_258\n        /* \"#utility.yul\":2148:2149   */\n      0x06\n        /* \"#utility.yul\":2143:2146   */\n      dup4\n        /* \"#utility.yul\":2084:2150   */\n      tag_253\n      jump\t// in\n    tag_258:\n        /* \"#utility.yul\":2077:2150   */\n      swap2\n      pop\n        /* \"#utility.yul\":2159:2252   */\n      tag_259\n        /* \"#utility.yul\":2248:2251   */\n      dup3\n        /* \"#utility.yul\":2159:2252   */\n      tag_260\n      jump\t// in\n    tag_259:\n        /* \"#utility.yul\":2277:2279   */\n      0x20\n        /* \"#utility.yul\":2272:2275   */\n      dup3\n        /* \"#utility.yul\":2268:2280   */\n      add\n        /* \"#utility.yul\":2261:2280   */\n      swap1\n      pop\n        /* \"#utility.yul\":2067:2286   */\n      swap2\n      swap1\n      pop\n      jump\t// out\n        /* \"#utility.yul\":2292:2658   */\n    tag_261:\n      0x00\n        /* \"#utility.yul\":2455:2522   */\n      tag_263\n        /* \"#utility.yul\":2519:2521   */\n      0x26\n        /* \"#utility.yul\":2514:2517   */\n      dup4\n        /* \"#utility.yul\":2455:2522   */\n      tag_253\n      jump\t// in\n    tag_263:\n        /* \"#utility.yul\":2448:2522   */\n      swap2\n      pop\n        /* \"#utility.yul\":2531:2624   */\n      tag_264\n        /* \"#utility.yul\":2620:2623   */\n      dup3\n        /* \"#utility.yul\":2531:2624   */\n      tag_265\n      jump\t// in\n    tag_264:\n        /* \"#utility.yul\":2649:2651   */\n      0x40\n        /* \"#utility.yul\":2644:2647   */\n      dup3\n        /* \"#utility.yul\":2640:2652   */\n      add\n        /* \"#utility.yul\":2633:2652   */\n      swap1\n      pop\n        /* \"#utility.yul\":2438:2658   */\n      swap2\n      swap1\n      pop\n      jump\t// out\n        /* \"#utility.yul\":2664:3030   */\n    tag_266:\n      0x00\n        /* \"#utility.yul\":2827:2894   */\n      tag_268\n        /* \"#utility.yul\":2891:2893   */\n      0x0f\n        /* \"#utility.yul\":2886:2889   */\n      dup4\n        /* \"#utility.yul\":2827:2894   */\n      tag_253\n      jump\t// in\n    tag_268:\n        /* \"#utility.yul\":2820:2894   */\n      swap2\n      pop\n        /* \"#utility.yul\":2903:2996   */\n      tag_269\n        /* \"#utility.yul\":2992:2995   */\n      dup3\n        /* \"#utility.yul\":2903:2996   */\n      tag_270\n      jump\t// in\n    tag_269:\n        /* \"#utility.yul\":3021:3023   */\n      0x20\n        /* \"#utility.yul\":3016:3019   */\n      dup3\n        /* \"#utility.yul\":3012:3024   */\n      add\n        /* \"#utility.yul\":3005:3024   */\n      swap1\n      pop\n        /* \"#utility.yul\":2810:3030   */\n      swap2\n      swap1\n      pop\n      jump\t// out\n        /* \"#utility.yul\":3036:3402   */\n    tag_271:\n      0x00\n        /* \"#utility.yul\":3199:3266   */\n      tag_273\n        /* \"#utility.yul\":3263:3265   */\n      0x14\n        /* \"#utility.yul\":3258:3261   */\n      dup4\n        /* \"#utility.yul\":3199:3266   */\n      tag_253\n      jump\t// in\n    tag_273:\n        /* \"#utility.yul\":3192:3266   */\n      swap2\n      pop\n        /* \"#utility.yul\":3275:3368   */\n      tag_274\n        /* \"#utility.yul\":3364:3367   */\n      dup3\n        /* \"#utility.yul\":3275:3368   */\n      tag_275\n      jump\t// in\n    tag_274:\n        /* \"#utility.yul\":3393:3395   */\n      0x20\n        /* \"#utility.yul\":3388:3391   */\n      dup3\n        /* \"#utility.yul\":3384:3396   */\n      add\n        /* \"#utility.yul\":3377:3396   */\n      swap1\n      pop\n        /* \"#utility.yul\":3182:3402   */\n      swap2\n      swap1\n      pop\n      jump\t// out\n        /* \"#utility.yul\":3408:3774   */\n    tag_276:\n      0x00\n        /* \"#utility.yul\":3571:3638   */\n      tag_278\n        /* \"#utility.yul\":3635:3637   */\n      0x1f\n        /* \"#utility.yul\":3630:3633   */\n      dup4\n        /* \"#utility.yul\":3571:3638   */\n      tag_253\n      jump\t// in\n    tag_278:\n        /* \"#utility.yul\":3564:3638   */\n      swap2\n      pop\n        /* \"#utility.yul\":3647:3740   */\n      tag_279\n        /* \"#utility.yul\":3736:3739   */\n      dup3\n        /* \"#utility.yul\":3647:3740   */\n      tag_280\n      jump\t// in\n    tag_279:\n        /* \"#utility.yul\":3765:3767   */\n      0x20\n        /* \"#utility.yul\":3760:3763   */\n      dup3\n        /* \"#utility.yul\":3756:3768   */\n      add\n        /* \"#utility.yul\":3749:3768   */\n      swap1\n      pop\n        /* \"#utility.yul\":3554:3774   */\n      swap2\n      swap1\n      pop\n      jump\t// out\n        /* \"#utility.yul\":3780:4146   */\n    tag_281:\n      0x00\n        /* \"#utility.yul\":3943:4010   */\n      tag_283\n        /* \"#utility.yul\":4007:4009   */\n      0x20\n        /* \"#utility.yul\":4002:4005   */\n      dup4\n        /* \"#utility.yul\":3943:4010   */\n      tag_253\n      jump\t// in\n    tag_283:\n        /* \"#utility.yul\":3936:4010   */\n      swap2\n      pop\n        /* \"#utility.yul\":4019:4112   */\n      tag_284\n        /* \"#utility.yul\":4108:4111   */\n      dup3\n        /* \"#utility.yul\":4019:4112   */\n      tag_285\n      jump\t// in\n    tag_284:\n        /* \"#utility.yul\":4137:4139   */\n      0x20\n        /* \"#utility.yul\":4132:4135   */\n      dup3\n        /* \"#utility.yul\":4128:4140   */\n      add\n        /* \"#utility.yul\":4121:4140   */\n      swap1\n      pop\n        /* \"#utility.yul\":3926:4146   */\n      swap2\n      swap1\n      pop\n      jump\t// out\n        /* \"#utility.yul\":4152:4518   */\n    tag_286:\n      0x00\n        /* \"#utility.yul\":4315:4382   */\n      tag_288\n        /* \"#utility.yul\":4379:4381   */\n      0x26\n        /* \"#utility.yul\":4374:4377   */\n      dup4\n        /* \"#utility.yul\":4315:4382   */\n      tag_253\n      jump\t// in\n    tag_288:\n        /* \"#utility.yul\":4308:4382   */\n      swap2\n      pop\n        /* \"#utility.yul\":4391:4484   */\n      tag_289\n        /* \"#utility.yul\":4480:4483   */\n      dup3\n        /* \"#utility.yul\":4391:4484   */\n      tag_290\n      jump\t// in\n    tag_289:\n        /* \"#utility.yul\":4509:4511   */\n      0x40\n        /* \"#utility.yul\":4504:4507   */\n      dup3\n        /* \"#utility.yul\":4500:4512   */\n      add\n        /* \"#utility.yul\":4493:4512   */\n      swap1\n      pop\n        /* \"#utility.yul\":4298:4518   */\n      swap2\n      swap1\n      pop\n      jump\t// out\n        /* \"#utility.yul\":4524:4890   */\n    tag_291:\n      0x00\n        /* \"#utility.yul\":4687:4754   */\n      tag_293\n        /* \"#utility.yul\":4751:4753   */\n      0x1f\n        /* \"#utility.yul\":4746:4749   */\n      dup4\n        /* \"#utility.yul\":4687:4754   */\n      tag_253\n      jump\t// in\n    tag_293:\n        /* \"#utility.yul\":4680:4754   */\n      swap2\n      pop\n        /* \"#utility.yul\":4763:4856   */\n      tag_294\n        /* \"#utility.yul\":4852:4855   */\n      dup3\n        /* \"#utility.yul\":4763:4856   */\n      tag_295\n      jump\t// in\n    tag_294:\n        /* \"#utility.yul\":4881:4883   */\n      0x20\n        /* \"#utility.yul\":4876:4879   */\n      dup3\n        /* \"#utility.yul\":4872:4884   */\n      add\n        /* \"#utility.yul\":4865:4884   */\n      swap1\n      pop\n        /* \"#utility.yul\":4670:4890   */\n      swap2\n      swap1\n      pop\n      jump\t// out\n        /* \"#utility.yul\":4896:5014   */\n    tag_296:\n        /* \"#utility.yul\":4983:5007   */\n      tag_298\n        /* \"#utility.yul\":5001:5006   */\n      dup2\n        /* \"#utility.yul\":4983:5007   */\n      tag_299\n      jump\t// in\n    tag_298:\n        /* \"#utility.yul\":4978:4981   */\n      dup3\n        /* \"#utility.yul\":4971:5008   */\n      mstore\n        /* \"#utility.yul\":4961:5014   */\n      pop\n      pop\n      jump\t// out\n        /* \"#utility.yul\":5020:5242   */\n    tag_70:\n      0x00\n        /* \"#utility.yul\":5151:5153   */\n      0x20\n        /* \"#utility.yul\":5140:5149   */\n      dup3\n        /* \"#utility.yul\":5136:5154   */\n      add\n        /* \"#utility.yul\":5128:5154   */\n      swap1\n      pop\n        /* \"#utility.yul\":5164:5235   */\n      tag_301\n        /* \"#utility.yul\":5232:5233   */\n      0x00\n        /* \"#utility.yul\":5221:5230   */\n      dup4\n        /* \"#utility.yul\":5217:5234   */\n      add\n        /* \"#utility.yul\":5208:5214   */\n      dup5\n        /* \"#utility.yul\":5164:5235   */\n      tag_242\n      jump\t// in\n    tag_301:\n        /* \"#utility.yul\":5118:5242   */\n      swap3\n      swap2\n      pop\n      pop\n      jump\t// out\n        /* \"#utility.yul\":5248:5690   */\n    tag_144:\n      0x00\n        /* \"#utility.yul\":5435:5437   */\n      0x60\n        /* \"#utility.yul\":5424:5433   */\n      dup3\n        /* \"#utility.yul\":5420:5438   */\n      add\n        /* \"#utility.yul\":5412:5438   */\n      swap1\n      pop\n        /* \"#utility.yul\":5448:5519   */\n      tag_303\n        /* \"#utility.yul\":5516:5517   */\n      0x00\n        /* \"#utility.yul\":5505:5514   */\n      dup4\n        /* \"#utility.yul\":5501:5518   */\n      add\n        /* \"#utility.yul\":5492:5498   */\n      dup7\n        /* \"#utility.yul\":5448:5519   */\n      tag_242\n      jump\t// in\n    tag_303:\n        /* \"#utility.yul\":5529:5601   */\n      tag_304\n        /* \"#utility.yul\":5597:5599   */\n      0x20\n        /* \"#utility.yul\":5586:5595   */\n      dup4\n        /* \"#utility.yul\":5582:5600   */\n      add\n        /* \"#utility.yul\":5573:5579   */\n      dup6\n        /* \"#utility.yul\":5529:5601   */\n      tag_242\n      jump\t// in\n    tag_304:\n        /* \"#utility.yul\":5611:5683   */\n      tag_305\n        /* \"#utility.yul\":5679:5681   */\n      0x40\n        /* \"#utility.yul\":5668:5677   */\n      dup4\n        /* \"#utility.yul\":5664:5682   */\n      add\n        /* \"#utility.yul\":5655:5661   */\n      dup5\n        /* \"#utility.yul\":5611:5683   */\n      tag_296\n      jump\t// in\n    tag_305:\n        /* \"#utility.yul\":5402:5690   */\n      swap5\n      swap4\n      pop\n      pop\n      pop\n      pop\n      jump\t// out\n        /* \"#utility.yul\":5696:6028   */\n    tag_105:\n      0x00\n        /* \"#utility.yul\":5855:5857   */\n      0x40\n        /* \"#utility.yul\":5844:5853   */\n      dup3\n        /* \"#utility.yul\":5840:5858   */\n      add\n        /* \"#utility.yul\":5832:5858   */\n      swap1\n      pop\n        /* \"#utility.yul\":5868:5939   */\n      tag_307\n        /* \"#utility.yul\":5936:5937   */\n      0x00\n        /* \"#utility.yul\":5925:5934   */\n      dup4\n        /* \"#utility.yul\":5921:5938   */\n      add\n        /* \"#utility.yul\":5912:5918   */\n      dup6\n        /* \"#utility.yul\":5868:5939   */\n      tag_242\n      jump\t// in\n    tag_307:\n        /* \"#utility.yul\":5949:6021   */\n      tag_308\n        /* \"#utility.yul\":6017:6019   */\n      0x20\n        /* \"#utility.yul\":6006:6015   */\n      dup4\n        /* \"#utility.yul\":6002:6020   */\n      add\n        /* \"#utility.yul\":5993:5999   */\n      dup5\n        /* \"#utility.yul\":5949:6021   */\n      tag_296\n      jump\t// in\n    tag_308:\n        /* \"#utility.yul\":5822:6028   */\n      swap4\n      swap3\n      pop\n      pop\n      pop\n      jump\t// out\n        /* \"#utility.yul\":6034:6284   */\n    tag_85:\n      0x00\n        /* \"#utility.yul\":6179:6181   */\n      0x20\n        /* \"#utility.yul\":6168:6177   */\n      dup3\n        /* \"#utility.yul\":6164:6182   */\n      add\n        /* \"#utility.yul\":6156:6182   */\n      swap1\n      pop\n        /* \"#utility.yul\":6192:6277   */\n      tag_310\n        /* \"#utility.yul\":6274:6275   */\n      0x00\n        /* \"#utility.yul\":6263:6272   */\n      dup4\n        /* \"#utility.yul\":6259:6276   */\n      add\n        /* \"#utility.yul\":6250:6256   */\n      dup5\n        /* \"#utility.yul\":6192:6277   */\n      tag_246\n      jump\t// in\n    tag_310:\n        /* \"#utility.yul\":6146:6284   */\n      swap3\n      swap2\n      pop\n      pop\n      jump\t// out\n        /* \"#utility.yul\":6290:6709   */\n    tag_165:\n      0x00\n        /* \"#utility.yul\":6494:6496   */\n      0x20\n        /* \"#utility.yul\":6483:6492   */\n      dup3\n        /* \"#utility.yul\":6479:6497   */\n      add\n        /* \"#utility.yul\":6471:6497   */\n      swap1\n      pop\n        /* \"#utility.yul\":6543:6552   */\n      dup2\n        /* \"#utility.yul\":6537:6541   */\n      dup2\n        /* \"#utility.yul\":6533:6553   */\n      sub\n        /* \"#utility.yul\":6529:6530   */\n      0x00\n        /* \"#utility.yul\":6518:6527   */\n      dup4\n        /* \"#utility.yul\":6514:6531   */\n      add\n        /* \"#utility.yul\":6507:6554   */\n      mstore\n        /* \"#utility.yul\":6571:6702   */\n      tag_312\n        /* \"#utility.yul\":6697:6701   */\n      dup2\n        /* \"#utility.yul\":6571:6702   */\n      tag_250\n      jump\t// in\n    tag_312:\n        /* \"#utility.yul\":6563:6702   */\n      swap1\n      pop\n        /* \"#utility.yul\":6461:6709   */\n      swap2\n      swap1\n      pop\n      jump\t// out\n        /* \"#utility.yul\":6715:7134   */\n    tag_100:\n      0x00\n        /* \"#utility.yul\":6919:6921   */\n      0x20\n        /* \"#utility.yul\":6908:6917   */\n      dup3\n        /* \"#utility.yul\":6904:6922   */\n      add\n        /* \"#utility.yul\":6896:6922   */\n      swap1\n      pop\n        /* \"#utility.yul\":6968:6977   */\n      dup2\n        /* \"#utility.yul\":6962:6966   */\n      dup2\n        /* \"#utility.yul\":6958:6978   */\n      sub\n        /* \"#utility.yul\":6954:6955   */\n      0x00\n        /* \"#utility.yul\":6943:6952   */\n      dup4\n        /* \"#utility.yul\":6939:6956   */\n      add\n        /* \"#utility.yul\":6932:6979   */\n      mstore\n        /* \"#utility.yul\":6996:7127   */\n      tag_314\n        /* \"#utility.yul\":7122:7126   */\n      dup2\n        /* \"#utility.yul\":6996:7127   */\n      tag_256\n      jump\t// in\n    tag_314:\n        /* \"#utility.yul\":6988:7127   */\n      swap1\n      pop\n        /* \"#utility.yul\":6886:7134   */\n      swap2\n      swap1\n      pop\n      jump\t// out\n        /* \"#utility.yul\":7140:7559   */\n    tag_181:\n      0x00\n        /* \"#utility.yul\":7344:7346   */\n      0x20\n        /* \"#utility.yul\":7333:7342   */\n      dup3\n        /* \"#utility.yul\":7329:7347   */\n      add\n        /* \"#utility.yul\":7321:7347   */\n      swap1\n      pop\n        /* \"#utility.yul\":7393:7402   */\n      dup2\n        /* \"#utility.yul\":7387:7391   */\n      dup2\n        /* \"#utility.yul\":7383:7403   */\n      sub\n        /* \"#utility.yul\":7379:7380   */\n      0x00\n        /* \"#utility.yul\":7368:7377   */\n      dup4\n        /* \"#utility.yul\":7364:7381   */\n      add\n        /* \"#utility.yul\":7357:7404   */\n      mstore\n        /* \"#utility.yul\":7421:7552   */\n      tag_316\n        /* \"#utility.yul\":7547:7551   */\n      dup2\n        /* \"#utility.yul\":7421:7552   */\n      tag_261\n      jump\t// in\n    tag_316:\n        /* \"#utility.yul\":7413:7552   */\n      swap1\n      pop\n        /* \"#utility.yul\":7311:7559   */\n      swap2\n      swap1\n      pop\n      jump\t// out\n        /* \"#utility.yul\":7565:7984   */\n    tag_113:\n      0x00\n        /* \"#utility.yul\":7769:7771   */\n      0x20\n        /* \"#utility.yul\":7758:7767   */\n      dup3\n        /* \"#utility.yul\":7754:7772   */\n      add\n        /* \"#utility.yul\":7746:7772   */\n      swap1\n      pop\n        /* \"#utility.yul\":7818:7827   */\n      dup2\n        /* \"#utility.yul\":7812:7816   */\n      dup2\n        /* \"#utility.yul\":7808:7828   */\n      sub\n        /* \"#utility.yul\":7804:7805   */\n      0x00\n        /* \"#utility.yul\":7793:7802   */\n      dup4\n        /* \"#utility.yul\":7789:7806   */\n      add\n        /* \"#utility.yul\":7782:7829   */\n      mstore\n        /* \"#utility.yul\":7846:7977   */\n      tag_318\n        /* \"#utility.yul\":7972:7976   */\n      dup2\n        /* \"#utility.yul\":7846:7977   */\n      tag_266\n      jump\t// in\n    tag_318:\n        /* \"#utility.yul\":7838:7977   */\n      swap1\n      pop\n        /* \"#utility.yul\":7736:7984   */\n      swap2\n      swap1\n      pop\n      jump\t// out\n        /* \"#utility.yul\":7990:8409   */\n    tag_103:\n      0x00\n        /* \"#utility.yul\":8194:8196   */\n      0x20\n        /* \"#utility.yul\":8183:8192   */\n      dup3\n        /* \"#utility.yul\":8179:8197   */\n      add\n        /* \"#utility.yul\":8171:8197   */\n      swap1\n      pop\n        /* \"#utility.yul\":8243:8252   */\n      dup2\n        /* \"#utility.yul\":8237:8241   */\n      dup2\n        /* \"#utility.yul\":8233:8253   */\n      sub\n        /* \"#utility.yul\":8229:8230   */\n      0x00\n        /* \"#utility.yul\":8218:8227   */\n      dup4\n        /* \"#utility.yul\":8214:8231   */\n      add\n        /* \"#utility.yul\":8207:8254   */\n      mstore\n        /* \"#utility.yul\":8271:8402   */\n      tag_320\n        /* \"#utility.yul\":8397:8401   */\n      dup2\n        /* \"#utility.yul\":8271:8402   */\n      tag_271\n      jump\t// in\n    tag_320:\n        /* \"#utility.yul\":8263:8402   */\n      swap1\n      pop\n        /* \"#utility.yul\":8161:8409   */\n      swap2\n      swap1\n      pop\n      jump\t// out\n        /* \"#utility.yul\":8415:8834   */\n    tag_142:\n      0x00\n        /* \"#utility.yul\":8619:8621   */\n      0x20\n        /* \"#utility.yul\":8608:8617   */\n      dup3\n        /* \"#utility.yul\":8604:8622   */\n      add\n        /* \"#utility.yul\":8596:8622   */\n      swap1\n      pop\n        /* \"#utility.yul\":8668:8677   */\n      dup2\n        /* \"#utility.yul\":8662:8666   */\n      dup2\n        /* \"#utility.yul\":8658:8678   */\n      sub\n        /* \"#utility.yul\":8654:8655   */\n      0x00\n        /* \"#utility.yul\":8643:8652   */\n      dup4\n        /* \"#utility.yul\":8639:8656   */\n      add\n        /* \"#utility.yul\":8632:8679   */\n      mstore\n        /* \"#utility.yul\":8696:8827   */\n      tag_322\n        /* \"#utility.yul\":8822:8826   */\n      dup2\n        /* \"#utility.yul\":8696:8827   */\n      tag_276\n      jump\t// in\n    tag_322:\n        /* \"#utility.yul\":8688:8827   */\n      swap1\n      pop\n        /* \"#utility.yul\":8586:8834   */\n      swap2\n      swap1\n      pop\n      jump\t// out\n        /* \"#utility.yul\":8840:9259   */\n    tag_200:\n      0x00\n        /* \"#utility.yul\":9044:9046   */\n      0x20\n        /* \"#utility.yul\":9033:9042   */\n      dup3\n        /* \"#utility.yul\":9029:9047   */\n      add\n        /* \"#utility.yul\":9021:9047   */\n      swap1\n      pop\n        /* \"#utility.yul\":9093:9102   */\n      dup2\n        /* \"#utility.yul\":9087:9091   */\n      dup2\n        /* \"#utility.yul\":9083:9103   */\n      sub\n        /* \"#utility.yul\":9079:9080   */\n      0x00\n        /* \"#utility.yul\":9068:9077   */\n      dup4\n        /* \"#utility.yul\":9064:9081   */\n      add\n        /* \"#utility.yul\":9057:9104   */\n      mstore\n        /* \"#utility.yul\":9121:9252   */\n      tag_324\n        /* \"#utility.yul\":9247:9251   */\n      dup2\n        /* \"#utility.yul\":9121:9252   */\n      tag_281\n      jump\t// in\n    tag_324:\n        /* \"#utility.yul\":9113:9252   */\n      swap1\n      pop\n        /* \"#utility.yul\":9011:9259   */\n      swap2\n      swap1\n      pop\n      jump\t// out\n        /* \"#utility.yul\":9265:9684   */\n    tag_139:\n      0x00\n        /* \"#utility.yul\":9469:9471   */\n      0x20\n        /* \"#utility.yul\":9458:9467   */\n      dup3\n        /* \"#utility.yul\":9454:9472   */\n      add\n        /* \"#utility.yul\":9446:9472   */\n      swap1\n      pop\n        /* \"#utility.yul\":9518:9527   */\n      dup2\n        /* \"#utility.yul\":9512:9516   */\n      dup2\n        /* \"#utility.yul\":9508:9528   */\n      sub\n        /* \"#utility.yul\":9504:9505   */\n      0x00\n        /* \"#utility.yul\":9493:9502   */\n      dup4\n        /* \"#utility.yul\":9489:9506   */\n      add\n        /* \"#utility.yul\":9482:9529   */\n      mstore\n        /* \"#utility.yul\":9546:9677   */\n      tag_326\n        /* \"#utility.yul\":9672:9676   */\n      dup2\n        /* \"#utility.yul\":9546:9677   */\n      tag_286\n      jump\t// in\n    tag_326:\n        /* \"#utility.yul\":9538:9677   */\n      swap1\n      pop\n        /* \"#utility.yul\":9436:9684   */\n      swap2\n      swap1\n      pop\n      jump\t// out\n        /* \"#utility.yul\":9690:10109   */\n    tag_189:\n      0x00\n        /* \"#utility.yul\":9894:9896   */\n      0x20\n        /* \"#utility.yul\":9883:9892   */\n      dup3\n        /* \"#utility.yul\":9879:9897   */\n      add\n        /* \"#utility.yul\":9871:9897   */\n      swap1\n      pop\n        /* \"#utility.yul\":9943:9952   */\n      dup2\n        /* \"#utility.yul\":9937:9941   */\n      dup2\n        /* \"#utility.yul\":9933:9953   */\n      sub\n        /* \"#utility.yul\":9929:9930   */\n      0x00\n        /* \"#utility.yul\":9918:9927   */\n      dup4\n        /* \"#utility.yul\":9914:9931   */\n      add\n        /* \"#utility.yul\":9907:9954   */\n      mstore\n        /* \"#utility.yul\":9971:10102   */\n      tag_328\n        /* \"#utility.yul\":10097:10101   */\n      dup2\n        /* \"#utility.yul\":9971:10102   */\n      tag_291\n      jump\t// in\n    tag_328:\n        /* \"#utility.yul\":9963:10102   */\n      swap1\n      pop\n        /* \"#utility.yul\":9861:10109   */\n      swap2\n      swap1\n      pop\n      jump\t// out\n        /* \"#utility.yul\":10115:10337   */\n    tag_29:\n      0x00\n        /* \"#utility.yul\":10246:10248   */\n      0x20\n        /* \"#utility.yul\":10235:10244   */\n      dup3\n        /* \"#utility.yul\":10231:10249   */\n      add\n        /* \"#utility.yul\":10223:10249   */\n      swap1\n      pop\n        /* \"#utility.yul\":10259:10330   */\n      tag_330\n        /* \"#utility.yul\":10327:10328   */\n      0x00\n        /* \"#utility.yul\":10316:10325   */\n      dup4\n        /* \"#utility.yul\":10312:10329   */\n      add\n        /* \"#utility.yul\":10303:10309   */\n      dup5\n        /* \"#utility.yul\":10259:10330   */\n      tag_296\n      jump\t// in\n    tag_330:\n        /* \"#utility.yul\":10213:10337   */\n      swap3\n      swap2\n      pop\n      pop\n      jump\t// out\n        /* \"#utility.yul\":10343:10512   */\n    tag_253:\n      0x00\n        /* \"#utility.yul\":10461:10467   */\n      dup3\n        /* \"#utility.yul\":10456:10459   */\n      dup3\n        /* \"#utility.yul\":10449:10468   */\n      mstore\n        /* \"#utility.yul\":10501:10505   */\n      0x20\n        /* \"#utility.yul\":10496:10499   */\n      dup3\n        /* \"#utility.yul\":10492:10506   */\n      add\n        /* \"#utility.yul\":10477:10506   */\n      swap1\n      pop\n        /* \"#utility.yul\":10439:10512   */\n      swap3\n      swap2\n      pop\n      pop\n      jump\t// out\n        /* \"#utility.yul\":10518:10823   */\n    tag_97:\n      0x00\n        /* \"#utility.yul\":10577:10597   */\n      tag_333\n        /* \"#utility.yul\":10595:10596   */\n      dup3\n        /* \"#utility.yul\":10577:10597   */\n      tag_299\n      jump\t// in\n    tag_333:\n        /* \"#utility.yul\":10572:10597   */\n      swap2\n      pop\n        /* \"#utility.yul\":10611:10631   */\n      tag_334\n        /* \"#utility.yul\":10629:10630   */\n      dup4\n        /* \"#utility.yul\":10611:10631   */\n      tag_299\n      jump\t// in\n    tag_334:\n        /* \"#utility.yul\":10606:10631   */\n      swap3\n      pop\n        /* \"#utility.yul\":10765:10766   */\n      dup3\n        /* \"#utility.yul\":10697:10763   */\n      0xffffffffffffffffffffffffffffffffffffffffffffffffffffffffffffffff\n        /* \"#utility.yul\":10693:10767   */\n      sub\n        /* \"#utility.yul\":10690:10691   */\n      dup3\n        /* \"#utility.yul\":10687:10768   */\n      gt\n        /* \"#utility.yul\":10684:10686   */\n      iszero\n      tag_335\n      jumpi\n        /* \"#utility.yul\":10771:10789   */\n      tag_336\n      tag_337\n      jump\t// in\n    tag_336:\n        /* \"#utility.yul\":10684:10686   */\n    tag_335:\n        /* \"#utility.yul\":10815:10816   */\n      dup3\n        /* \"#utility.yul\":10812:10813   */\n      dup3\n        /* \"#utility.yul\":10808:10817   */\n      add\n        /* \"#utility.yul\":10801:10817   */\n      swap1\n      pop\n        /* \"#utility.yul\":10562:10823   */\n      swap3\n      swap2\n      pop\n      pop\n      jump\t// out\n        /* \"#utility.yul\":10829:11014   */\n    tag_216:\n      0x00\n        /* \"#utility.yul\":10886:10906   */\n      tag_339\n        /* \"#utility.yul\":10904:10905   */\n      dup3\n        /* \"#utility.yul\":10886:10906   */\n      tag_299\n      jump\t// in\n    tag_339:\n        /* \"#utility.yul\":10881:10906   */\n      swap2\n      pop\n        /* \"#utility.yul\":10920:10940   */\n      tag_340\n        /* \"#utility.yul\":10938:10939   */\n      dup4\n        /* \"#utility.yul\":10920:10940   */\n      tag_299\n      jump\t// in\n    tag_340:\n        /* \"#utility.yul\":10915:10940   */\n      swap3\n      pop\n        /* \"#utility.yul\":10959:10960   */\n      dup3\n        /* \"#utility.yul\":10949:10951   */\n      tag_341\n      jumpi\n        /* \"#utility.yul\":10964:10982   */\n      tag_342\n      tag_343\n      jump\t// in\n    tag_342:\n        /* \"#utility.yul\":10949:10951   */\n    tag_341:\n        /* \"#utility.yul\":11006:11007   */\n      dup3\n        /* \"#utility.yul\":11003:11004   */\n      dup3\n        /* \"#utility.yul\":10999:11008   */\n      div\n        /* \"#utility.yul\":10994:11008   */\n      swap1\n      pop\n        /* \"#utility.yul\":10871:11014   */\n      swap3\n      swap2\n      pop\n      pop\n      jump\t// out\n        /* \"#utility.yul\":11020:11368   */\n    tag_219:\n      0x00\n        /* \"#utility.yul\":11083:11103   */\n      tag_345\n        /* \"#utility.yul\":11101:11102   */\n      dup3\n        /* \"#utility.yul\":11083:11103   */\n      tag_299\n      jump\t// in\n    tag_345:\n        /* \"#utility.yul\":11078:11103   */\n      swap2\n      pop\n        /* \"#utility.yul\":11117:11137   */\n      tag_346\n        /* \"#utility.yul\":11135:11136   */\n      dup4\n        /* \"#utility.yul\":11117:11137   */\n      tag_299\n      jump\t// in\n    tag_346:\n        /* \"#utility.yul\":11112:11137   */\n      swap3\n      pop\n        /* \"#utility.yul\":11305:11306   */\n      dup2\n        /* \"#utility.yul\":11237:11303   */\n      0xffffffffffffffffffffffffffffffffffffffffffffffffffffffffffffffff\n        /* \"#utility.yul\":11233:11307   */\n      div\n        /* \"#utility.yul\":11230:11231   */\n      dup4\n        /* \"#utility.yul\":11227:11308   */\n      gt\n        /* \"#utility.yul\":11222:11223   */\n      dup3\n        /* \"#utility.yul\":11215:11224   */\n      iszero\n        /* \"#utility.yul\":11208:11225   */\n      iszero\n        /* \"#utility.yul\":11204:11309   */\n      and\n        /* \"#utility.yul\":11201:11203   */\n      iszero\n      tag_347\n      jumpi\n        /* \"#utility.yul\":11312:11330   */\n      tag_348\n      tag_337\n      jump\t// in\n    tag_348:\n        /* \"#utility.yul\":11201:11203   */\n    tag_347:\n        /* \"#utility.yul\":11360:11361   */\n      dup3\n        /* \"#utility.yul\":11357:11358   */\n      dup3\n        /* \"#utility.yul\":11353:11362   */\n      mul\n        /* \"#utility.yul\":11342:11362   */\n      swap1\n      pop\n        /* \"#utility.yul\":11068:11368   */\n      swap3\n      swap2\n      pop\n      pop\n      jump\t// out\n        /* \"#utility.yul\":11374:11565   */\n    tag_192:\n      0x00\n        /* \"#utility.yul\":11434:11454   */\n      tag_350\n        /* \"#utility.yul\":11452:11453   */\n      dup3\n        /* \"#utility.yul\":11434:11454   */\n      tag_299\n      jump\t// in\n    tag_350:\n        /* \"#utility.yul\":11429:11454   */\n      swap2\n      pop\n        /* \"#utility.yul\":11468:11488   */\n      tag_351\n        /* \"#utility.yul\":11486:11487   */\n      dup4\n        /* \"#utility.yul\":11468:11488   */\n      tag_299\n      jump\t// in\n    tag_351:\n        /* \"#utility.yul\":11463:11488   */\n      swap3\n      pop\n        /* \"#utility.yul\":11507:11508   */\n      dup3\n        /* \"#utility.yul\":11504:11505   */\n      dup3\n        /* \"#utility.yul\":11501:11509   */\n      lt\n        /* \"#utility.yul\":11498:11500   */\n      iszero\n      tag_352\n      jumpi\n        /* \"#utility.yul\":11512:11530   */\n      tag_353\n      tag_337\n      jump\t// in\n    tag_353:\n        /* \"#utility.yul\":11498:11500   */\n    tag_352:\n        /* \"#utility.yul\":11557:11558   */\n      dup3\n        /* \"#utility.yul\":11554:11555   */\n      dup3\n        /* \"#utility.yul\":11550:11559   */\n      sub\n        /* \"#utility.yul\":11542:11559   */\n      swap1\n      pop\n        /* \"#utility.yul\":11419:11565   */\n      swap3\n      swap2\n      pop\n      pop\n      jump\t// out\n        /* \"#utility.yul\":11571:11667   */\n    tag_245:\n      0x00\n        /* \"#utility.yul\":11637:11661   */\n      tag_355\n        /* \"#utility.yul\":11655:11660   */\n      dup3\n        /* \"#utility.yul\":11637:11661   */\n      tag_356\n      jump\t// in\n    tag_355:\n        /* \"#utility.yul\":11626:11661   */\n      swap1\n      pop\n        /* \"#utility.yul\":11616:11667   */\n      swap2\n      swap1\n      pop\n      jump\t// out\n        /* \"#utility.yul\":11673:11763   */\n    tag_357:\n      0x00\n        /* \"#utility.yul\":11750:11755   */\n      dup2\n        /* \"#utility.yul\":11743:11756   */\n      iszero\n        /* \"#utility.yul\":11736:11757   */\n      iszero\n        /* \"#utility.yul\":11725:11757   */\n      swap1\n      pop\n        /* \"#utility.yul\":11715:11763   */\n      swap2\n      swap1\n      pop\n      jump\t// out\n        /* \"#utility.yul\":11769:11895   */\n    tag_356:\n      0x00\n        /* \"#utility.yul\":11846:11888   */\n      0xffffffffffffffffffffffffffffffffffffffff\n        /* \"#utility.yul\":11839:11844   */\n      dup3\n        /* \"#utility.yul\":11835:11889   */\n      and\n        /* \"#utility.yul\":11824:11889   */\n      swap1\n      pop\n        /* \"#utility.yul\":11814:11895   */\n      swap2\n      swap1\n      pop\n      jump\t// out\n        /* \"#utility.yul\":11901:11978   */\n    tag_299:\n      0x00\n        /* \"#utility.yul\":11967:11972   */\n      dup2\n        /* \"#utility.yul\":11956:11972   */\n      swap1\n      pop\n        /* \"#utility.yul\":11946:11978   */\n      swap2\n      swap1\n      pop\n      jump\t// out\n        /* \"#utility.yul\":11984:12138   */\n    tag_249:\n      0x00\n        /* \"#utility.yul\":12081:12132   */\n      tag_362\n        /* \"#utility.yul\":12126:12131   */\n      dup3\n        /* \"#utility.yul\":12081:12132   */\n      tag_363\n      jump\t// in\n    tag_362:\n        /* \"#utility.yul\":12068:12132   */\n      swap1\n      pop\n        /* \"#utility.yul\":12058:12138   */\n      swap2\n      swap1\n      pop\n      jump\t// out\n        /* \"#utility.yul\":12144:12271   */\n    tag_363:\n      0x00\n        /* \"#utility.yul\":12241:12265   */\n      tag_365\n        /* \"#utility.yul\":12259:12264   */\n      dup3\n        /* \"#utility.yul\":12241:12265   */\n      tag_356\n      jump\t// in\n    tag_365:\n        /* \"#utility.yul\":12228:12265   */\n      swap1\n      pop\n        /* \"#utility.yul\":12218:12271   */\n      swap2\n      swap1\n      pop\n      jump\t// out\n        /* \"#utility.yul\":12277:12457   */\n    tag_337:\n        /* \"#utility.yul\":12325:12402   */\n      0x4e487b7100000000000000000000000000000000000000000000000000000000\n        /* \"#utility.yul\":12322:12323   */\n      0x00\n        /* \"#utility.yul\":12315:12403   */\n      mstore\n        /* \"#utility.yul\":12422:12426   */\n      0x11\n        /* \"#utility.yul\":12419:12420   */\n      0x04\n        /* \"#utility.yul\":12412:12427   */\n      mstore\n        /* \"#utility.yul\":12446:12450   */\n      0x24\n        /* \"#utility.yul\":12443:12444   */\n      0x00\n        /* \"#utility.yul\":12436:12451   */\n      revert\n        /* \"#utility.yul\":12463:12643   */\n    tag_343:\n        /* \"#utility.yul\":12511:12588   */\n      0x4e487b7100000000000000000000000000000000000000000000000000000000\n        /* \"#utility.yul\":12508:12509   */\n      0x00\n        /* \"#utility.yul\":12501:12589   */\n      mstore\n        /* \"#utility.yul\":12608:12612   */\n      0x12\n        /* \"#utility.yul\":12605:12606   */\n      0x04\n        /* \"#utility.yul\":12598:12613   */\n      mstore\n        /* \"#utility.yul\":12632:12636   */\n      0x24\n        /* \"#utility.yul\":12629:12630   */\n      0x00\n        /* \"#utility.yul\":12622:12637   */\n      revert\n        /* \"#utility.yul\":12649:12821   */\n    tag_255:\n        /* \"#utility.yul\":12789:12813   */\n      0x4164647265737320776173206e6f74207374616b656400000000000000000000\n        /* \"#utility.yul\":12785:12786   */\n      0x00\n        /* \"#utility.yul\":12777:12783   */\n      dup3\n        /* \"#utility.yul\":12773:12787   */\n      add\n        /* \"#utility.yul\":12766:12814   */\n      mstore\n        /* \"#utility.yul\":12755:12821   */\n      pop\n      jump\t// out\n        /* \"#utility.yul\":12827:12983   */\n    tag_260:\n        /* \"#utility.yul\":12967:12975   */\n      0x4c6f636b65640000000000000000000000000000000000000000000000000000\n        /* \"#utility.yul\":12963:12964   */\n      0x00\n        /* \"#utility.yul\":12955:12961   */\n      dup3\n        /* \"#utility.yul\":12951:12965   */\n      add\n        /* \"#utility.yul\":12944:12976   */\n      mstore\n        /* \"#utility.yul\":12933:12983   */\n      pop\n      jump\t// out\n        /* \"#utility.yul\":12989:13214   */\n    tag_265:\n        /* \"#utility.yul\":13129:13163   */\n      0x4f776e61626c653a206e6577206f776e657220697320746865207a65726f2061\n        /* \"#utility.yul\":13125:13126   */\n      0x00\n        /* \"#utility.yul\":13117:13123   */\n      dup3\n        /* \"#utility.yul\":13113:13127   */\n      add\n        /* \"#utility.yul\":13106:13164   */\n      mstore\n        /* \"#utility.yul\":13198:13206   */\n      0x6464726573730000000000000000000000000000000000000000000000000000\n        /* \"#utility.yul\":13193:13195   */\n      0x20\n        /* \"#utility.yul\":13185:13191   */\n      dup3\n        /* \"#utility.yul\":13181:13196   */\n      add\n        /* \"#utility.yul\":13174:13207   */\n      mstore\n        /* \"#utility.yul\":13095:13214   */\n      pop\n      jump\t// out\n        /* \"#utility.yul\":13220:13385   */\n    tag_270:\n        /* \"#utility.yul\":13360:13377   */\n      0x5472616e73666572206661696c65640000000000000000000000000000000000\n        /* \"#utility.yul\":13356:13357   */\n      0x00\n        /* \"#utility.yul\":13348:13354   */\n      dup3\n        /* \"#utility.yul\":13344:13358   */\n      add\n        /* \"#utility.yul\":13337:13378   */\n      mstore\n        /* \"#utility.yul\":13326:13385   */\n      pop\n      jump\t// out\n        /* \"#utility.yul\":13391:13561   */\n    tag_275:\n        /* \"#utility.yul\":13531:13553   */\n      0x496e73756666696369656e742062616c616e6365000000000000000000000000\n        /* \"#utility.yul\":13527:13528   */\n      0x00\n        /* \"#utility.yul\":13519:13525   */\n      dup3\n        /* \"#utility.yul\":13515:13529   */\n      add\n        /* \"#utility.yul\":13508:13554   */\n      mstore\n        /* \"#utility.yul\":13497:13561   */\n      pop\n      jump\t// out\n        /* \"#utility.yul\":13567:13748   */\n    tag_280:\n        /* \"#utility.yul\":13707:13740   */\n      0x416d6f756e742073686f756c642067726561746572207468616e207a65726f00\n        /* \"#utility.yul\":13703:13704   */\n      0x00\n        /* \"#utility.yul\":13695:13701   */\n      dup3\n        /* \"#utility.yul\":13691:13705   */\n      add\n        /* \"#utility.yul\":13684:13741   */\n      mstore\n        /* \"#utility.yul\":13673:13748   */\n      pop\n      jump\t// out\n        /* \"#utility.yul\":13754:13936   */\n    tag_285:\n        /* \"#utility.yul\":13894:13928   */\n      0x4f776e61626c653a2063616c6c6572206973206e6f7420746865206f776e6572\n        /* \"#utility.yul\":13890:13891   */\n      0x00\n        /* \"#utility.yul\":13882:13888   */\n      dup3\n        /* \"#utility.yul\":13878:13892   */\n      add\n        /* \"#utility.yul\":13871:13929   */\n      mstore\n        /* \"#utility.yul\":13860:13936   */\n      pop\n      jump\t// out\n        /* \"#utility.yul\":13942:14167   */\n    tag_290:\n        /* \"#utility.yul\":14082:14116   */\n      0x5468652063757272656e74207374616b696e6720616374697669747920686173\n        /* \"#utility.yul\":14078:14079   */\n      0x00\n        /* \"#utility.yul\":14070:14076   */\n      dup3\n        /* \"#utility.yul\":14066:14080   */\n      add\n        /* \"#utility.yul\":14059:14117   */\n      mstore\n        /* \"#utility.yul\":14151:14159   */\n      0x20656e6465640000000000000000000000000000000000000000000000000000\n        /* \"#utility.yul\":14146:14148   */\n      0x20\n        /* \"#utility.yul\":14138:14144   */\n      dup3\n        /* \"#utility.yul\":14134:14149   */\n      add\n        /* \"#utility.yul\":14127:14160   */\n      mstore\n        /* \"#utility.yul\":14048:14167   */\n      pop\n      jump\t// out\n        /* \"#utility.yul\":14173:14354   */\n    tag_295:\n        /* \"#utility.yul\":14313:14346   */\n      0x5265656e7472616e637947756172643a207265656e7472616e742063616c6c00\n        /* \"#utility.yul\":14309:14310   */\n      0x00\n        /* \"#utility.yul\":14301:14307   */\n      dup3\n        /* \"#utility.yul\":14297:14311   */\n      add\n        /* \"#utility.yul\":14290:14347   */\n      mstore\n        /* \"#utility.yul\":14279:14354   */\n      pop\n      jump\t// out\n        /* \"#utility.yul\":14360:14482   */\n    tag_224:\n        /* \"#utility.yul\":14433:14457   */\n      tag_378\n        /* \"#utility.yul\":14451:14456   */\n      dup2\n        /* \"#utility.yul\":14433:14457   */\n      tag_245\n      jump\t// in\n    tag_378:\n        /* \"#utility.yul\":14426:14431   */\n      dup2\n        /* \"#utility.yul\":14423:14458   */\n      eq\n        /* \"#utility.yul\":14413:14415   */\n      tag_379\n      jumpi\n        /* \"#utility.yul\":14472:14473   */\n      0x00\n        /* \"#utility.yul\":14469:14470   */\n      dup1\n        /* \"#utility.yul\":14462:14474   */\n      revert\n        /* \"#utility.yul\":14413:14415   */\n    tag_379:\n        /* \"#utility.yul\":14403:14482   */\n      pop\n      jump\t// out\n        /* \"#utility.yul\":14488:14604   */\n    tag_228:\n        /* \"#utility.yul\":14558:14579   */\n      tag_381\n        /* \"#utility.yul\":14573:14578   */\n      dup2\n        /* \"#utility.yul\":14558:14579   */\n      tag_357\n      jump\t// in\n    tag_381:\n        /* \"#utility.yul\":14551:14556   */\n      dup2\n        /* \"#utility.yul\":14548:14580   */\n      eq\n        /* \"#utility.yul\":14538:14540   */\n      tag_382\n      jumpi\n        /* \"#utility.yul\":14594:14595   */\n      0x00\n        /* \"#utility.yul\":14591:14592   */\n      dup1\n        /* \"#utility.yul\":14584:14596   */\n      revert\n        /* \"#utility.yul\":14538:14540   */\n    tag_382:\n        /* \"#utility.yul\":14528:14604   */\n      pop\n      jump\t// out\n        /* \"#utility.yul\":14610:14732   */\n    tag_232:\n        /* \"#utility.yul\":14683:14707   */\n      tag_384\n        /* \"#utility.yul\":14701:14706   */\n      dup2\n        /* \"#utility.yul\":14683:14707   */\n      tag_299\n      jump\t// in\n    tag_384:\n        /* \"#utility.yul\":14676:14681   */\n      dup2\n        /* \"#utility.yul\":14673:14708   */\n      eq\n        /* \"#utility.yul\":14663:14665   */\n      tag_385\n      jumpi\n        /* \"#utility.yul\":14722:14723   */\n      0x00\n        /* \"#utility.yul\":14719:14720   */\n      dup1\n        /* \"#utility.yul\":14712:14724   */\n      revert\n        /* \"#utility.yul\":14663:14665   */\n    tag_385:\n        /* \"#utility.yul\":14653:14732   */\n      pop\n      jump\t// out\n\n    auxdata: 0xa264697066735822122078ac86065fed6dfb0293c59edee0f441711d57c23b37542aa816a1a3bf5a750764736f6c63430008010033\n}\n",
				"bytecode": {
					"linkReferences": {},
					"object": "608060405262015180600c553480156200001857600080fd5b5060405162001c6138038062001c6183398181016040528101906200003e919062000200565b6200005e620000526200010660201b60201c565b6200010e60201b60201c565b6001808190555083600260006101000a81548173ffffffffffffffffffffffffffffffffffffffff021916908373ffffffffffffffffffffffffffffffffffffffff16021790555082600360006101000a81548173ffffffffffffffffffffffffffffffffffffffff021916908373ffffffffffffffffffffffffffffffffffffffff16021790555081600481905550806005819055504260068190555050505050620002de565b600033905090565b60008060009054906101000a900473ffffffffffffffffffffffffffffffffffffffff169050816000806101000a81548173ffffffffffffffffffffffffffffffffffffffff021916908373ffffffffffffffffffffffffffffffffffffffff1602179055508173ffffffffffffffffffffffffffffffffffffffff168173ffffffffffffffffffffffffffffffffffffffff167f8be0079c531659141344cd1fd0a4f28419497f9722a3daafe3b4186f6b6457e060405160405180910390a35050565b600081519050620001e381620002aa565b92915050565b600081519050620001fa81620002c4565b92915050565b600080600080608085870312156200021757600080fd5b60006200022787828801620001d2565b94505060206200023a87828801620001d2565b93505060406200024d87828801620001e9565b92505060606200026087828801620001e9565b91505092959194509250565b6000620002798262000280565b9050919050565b600073ffffffffffffffffffffffffffffffffffffffff82169050919050565b6000819050919050565b620002b5816200026c565b8114620002c157600080fd5b50565b620002cf81620002a0565b8114620002db57600080fd5b50565b61197380620002ee6000396000f3fe608060405234801561001057600080fd5b506004361061012c5760003560e01c80638aee8127116100ad578063ee947a7c11610071578063ee947a7c146102f9578063f2fde38b14610317578063f7c618c114610333578063fc0c546a14610351578063fc71ae8c1461036f5761012c565b80638aee81271461027b5780638b0e9f3f146102975780638da5cb5b146102b5578063a694fc3a146102d3578063b88a802f146102ef5761012c565b80635d90bad9116100f45780635d90bad9146101fb5780636abfd18314610217578063715018a614610235578063750142e61461023f57806380c0976e1461025d5761012c565b8063154a78b5146101315780631683153d1461014f57806345bc78ab1461017f578063583d42fd146101af5780635d3eea91146101df575b600080fd5b61013961038b565b6040516101469190611530565b60405180910390f35b61016960048036038101906101649190611197565b610391565b6040516101769190611530565b60405180910390f35b61019960048036038101906101949190611197565b6103a9565b6040516101a69190611530565b60405180910390f35b6101c960048036038101906101c49190611197565b6103c1565b6040516101d69190611530565b60405180910390f35b6101f960048036038101906101f491906111e9565b6103d9565b005b610215600480360381019061021091906111e9565b6106ac565b005b61021f6106be565b60405161022c9190611530565b60405180910390f35b61023d6106c4565b005b6102476106d8565b6040516102549190611530565b60405180910390f35b6102656106de565b6040516102729190611530565b60405180910390f35b61029560048036038101906102909190611197565b6106e4565b005b61029f610730565b6040516102ac9190611530565b60405180910390f35b6102bd610736565b6040516102ca919061137a565b60405180910390f35b6102ed60048036038101906102e891906111e9565b61075f565b005b6102f7610af6565b005b610301610d6b565b60405161030e9190611530565b60405180910390f35b610331600480360381019061032c9190611197565b610d71565b005b61033b610df5565b60405161034891906113f5565b60405180910390f35b610359610e1b565b60405161036691906113f5565b60405180910390f35b610389600480360381019061038491906111e9565b610e41565b005b60045481565b60096020528060005260406000206000915090505481565b60076020528060005260406000206000915090505481565b60086020528060005260406000206000915090505481565b6103e1610e53565b6005546006546103f1919061155c565b421015610433576040517f08c379a000000000000000000000000000000000000000000000000000000000815260040161042a90611430565b60405180910390fd5b80600760003373ffffffffffffffffffffffffffffffffffffffff1673ffffffffffffffffffffffffffffffffffffffff1681526020019081526020016000205410156104b5576040517f08c379a00000000000000000000000000000000000000000000000000000000081526004016104ac90611490565b60405180910390fd5b600260009054906101000a900473ffffffffffffffffffffffffffffffffffffffff1673ffffffffffffffffffffffffffffffffffffffff1663a9059cbb33836040518363ffffffff1660e01b81526004016105129291906113cc565b602060405180830381600087803b15801561052c57600080fd5b505af1158015610540573d6000803e3d6000fd5b505050506040513d601f19601f8201168201806040525081019061056491906111c0565b6105a3576040517f08c379a000000000000000000000000000000000000000000000000000000000815260040161059a90611470565b60405180910390fd5b6105f581600760003373ffffffffffffffffffffffffffffffffffffffff1673ffffffffffffffffffffffffffffffffffffffff16815260200190815260200160002054610ea390919063ffffffff16565b600760003373ffffffffffffffffffffffffffffffffffffffff1673ffffffffffffffffffffffffffffffffffffffff1681526020019081526020016000208190555061064d81600a54610ea390919063ffffffff16565b600a819055503373ffffffffffffffffffffffffffffffffffffffff167fb24546d975e2628748efc9aced80665e0fad66272033e5c0ea25fd3afac99795826040516106999190611530565b60405180910390a26106a9610eb9565b50565b6106b4610ec2565b8060068190555050565b60065481565b6106cc610ec2565b6106d66000610f40565b565b600b5481565b600c5481565b6106ec610ec2565b80600360006101000a81548173ffffffffffffffffffffffffffffffffffffffff021916908373ffffffffffffffffffffffffffffffffffffffff16021790555050565b600a5481565b60008060009054906101000a900473ffffffffffffffffffffffffffffffffffffffff16905090565b610767610e53565b600554600654610777919061155c565b42106107b8576040517f08c379a00000000000000000000000000000000000000000000000000000000081526004016107af906114f0565b60405180910390fd5b600081116107fb576040517f08c379a00000000000000000000000000000000000000000000000000000000081526004016107f2906114b0565b60405180910390fd5b600260009054906101000a900473ffffffffffffffffffffffffffffffffffffffff1673ffffffffffffffffffffffffffffffffffffffff166323b872dd3330846040518463ffffffff1660e01b815260040161085a93929190611395565b602060405180830381600087803b15801561087457600080fd5b505af1158015610888573d6000803e3d6000fd5b505050506040513d601f19601f820116820180604052508101906108ac91906111c0565b6108eb576040517f08c379a00000000000000000000000000000000000000000000000000000000081526004016108e290611470565b60405180910390fd5b61093d81600760003373ffffffffffffffffffffffffffffffffffffffff1673ffffffffffffffffffffffffffffffffffffffff1681526020019081526020016000205461100490919063ffffffff16565b600760003373ffffffffffffffffffffffffffffffffffffffff1673ffffffffffffffffffffffffffffffffffffffff1681526020019081526020016000208190555042600860003373ffffffffffffffffffffffffffffffffffffffff1673ffffffffffffffffffffffffffffffffffffffff1681526020019081526020016000208190555060006109cf3361101a565b9050610a2381600960003373ffffffffffffffffffffffffffffffffffffffff1673ffffffffffffffffffffffffffffffffffffffff1681526020019081526020016000205461100490919063ffffffff16565b600960003373ffffffffffffffffffffffffffffffffffffffff1673ffffffffffffffffffffffffffffffffffffffff16815260200190815260200160002081905550610a7b82600a5461100490919063ffffffff16565b600a81905550610a9681600b5461100490919063ffffffff16565b600b819055503373ffffffffffffffffffffffffffffffffffffffff167febedb8b3c678666e7f36970bc8f57abf6d8fa2e828c0da91ea5b75bf68ed101a83604051610ae29190611530565b60405180910390a250610af3610eb9565b50565b610afe610e53565b6000600860003373ffffffffffffffffffffffffffffffffffffffff1673ffffffffffffffffffffffffffffffffffffffff1681526020019081526020016000205411610b80576040517f08c379a0000000000000000000000000000000000000000000000000000000008152600401610b7790611410565b60405180910390fd5b6000600960003373ffffffffffffffffffffffffffffffffffffffff1673ffffffffffffffffffffffffffffffffffffffff168152602001908152602001600020549050600360009054906101000a900473ffffffffffffffffffffffffffffffffffffffff1673ffffffffffffffffffffffffffffffffffffffff1663a9059cbb33836040518363ffffffff1660e01b8152600401610c219291906113cc565b602060405180830381600087803b158015610c3b57600080fd5b505af1158015610c4f573d6000803e3d6000fd5b505050506040513d601f19601f82011682018060405250810190610c7391906111c0565b610cb2576040517f08c379a0000000000000000000000000000000000000000000000000000000008152600401610ca990611470565b60405180910390fd5b6000600960003373ffffffffffffffffffffffffffffffffffffffff1673ffffffffffffffffffffffffffffffffffffffff16815260200190815260200160002081905550610d0c81600b54610ea390919063ffffffff16565b600b819055503373ffffffffffffffffffffffffffffffffffffffff167fba8de60c3403ec381d1d484652ea1980e3c3e56359195c92525bff4ce47ad98e82604051610d589190611530565b60405180910390a250610d69610eb9565b565b60055481565b610d79610ec2565b600073ffffffffffffffffffffffffffffffffffffffff168173ffffffffffffffffffffffffffffffffffffffff161415610de9576040517f08c379a0000000000000000000000000000000000000000000000000000000008152600401610de090611450565b60405180910390fd5b610df281610f40565b50565b600360009054906101000a900473ffffffffffffffffffffffffffffffffffffffff1681565b600260009054906101000a900473ffffffffffffffffffffffffffffffffffffffff1681565b610e49610ec2565b8060048190555050565b60026001541415610e99576040517f08c379a0000000000000000000000000000000000000000000000000000000008152600401610e9090611510565b60405180910390fd5b6002600181905550565b60008183610eb1919061163d565b905092915050565b60018081905550565b610eca611124565b73ffffffffffffffffffffffffffffffffffffffff16610ee8610736565b73ffffffffffffffffffffffffffffffffffffffff1614610f3e576040517f08c379a0000000000000000000000000000000000000000000000000000000008152600401610f35906114d0565b60405180910390fd5b565b60008060009054906101000a900473ffffffffffffffffffffffffffffffffffffffff169050816000806101000a81548173ffffffffffffffffffffffffffffffffffffffff021916908373ffffffffffffffffffffffffffffffffffffffff1602179055508173ffffffffffffffffffffffffffffffffffffffff168173ffffffffffffffffffffffffffffffffffffffff167f8be0079c531659141344cd1fd0a4f28419497f9722a3daafe3b4186f6b6457e060405160405180910390a35050565b60008183611012919061155c565b905092915050565b600080611085600860008573ffffffffffffffffffffffffffffffffffffffff1673ffffffffffffffffffffffffffffffffffffffff1681526020019081526020016000205461107760065460055461100490919063ffffffff16565b610ea390919063ffffffff16565b90506000611118600c5461110a846110fc6004546110ee620f4240600760008d73ffffffffffffffffffffffffffffffffffffffff1673ffffffffffffffffffffffffffffffffffffffff1681526020019081526020016000205461112c90919063ffffffff16565b61114290919063ffffffff16565b61114290919063ffffffff16565b61112c90919063ffffffff16565b90508092505050919050565b600033905090565b6000818361113a91906115b2565b905092915050565b6000818361115091906115e3565b905092915050565b600081359050611167816118f8565b92915050565b60008151905061117c8161190f565b92915050565b60008135905061119181611926565b92915050565b6000602082840312156111a957600080fd5b60006111b784828501611158565b91505092915050565b6000602082840312156111d257600080fd5b60006111e08482850161116d565b91505092915050565b6000602082840312156111fb57600080fd5b600061120984828501611182565b91505092915050565b61121b81611671565b82525050565b61122a816116b9565b82525050565b600061123d60168361154b565b91506112488261173b565b602082019050919050565b600061126060068361154b565b915061126b82611764565b602082019050919050565b600061128360268361154b565b915061128e8261178d565b604082019050919050565b60006112a6600f8361154b565b91506112b1826117dc565b602082019050919050565b60006112c960148361154b565b91506112d482611805565b602082019050919050565b60006112ec601f8361154b565b91506112f78261182e565b602082019050919050565b600061130f60208361154b565b915061131a82611857565b602082019050919050565b600061133260268361154b565b915061133d82611880565b604082019050919050565b6000611355601f8361154b565b9150611360826118cf565b602082019050919050565b611374816116af565b82525050565b600060208201905061138f6000830184611212565b92915050565b60006060820190506113aa6000830186611212565b6113b76020830185611212565b6113c4604083018461136b565b949350505050565b60006040820190506113e16000830185611212565b6113ee602083018461136b565b9392505050565b600060208201905061140a6000830184611221565b92915050565b6000602082019050818103600083015261142981611230565b9050919050565b6000602082019050818103600083015261144981611253565b9050919050565b6000602082019050818103600083015261146981611276565b9050919050565b6000602082019050818103600083015261148981611299565b9050919050565b600060208201905081810360008301526114a9816112bc565b9050919050565b600060208201905081810360008301526114c9816112df565b9050919050565b600060208201905081810360008301526114e981611302565b9050919050565b6000602082019050818103600083015261150981611325565b9050919050565b6000602082019050818103600083015261152981611348565b9050919050565b6000602082019050611545600083018461136b565b92915050565b600082825260208201905092915050565b6000611567826116af565b9150611572836116af565b9250827fffffffffffffffffffffffffffffffffffffffffffffffffffffffffffffffff038211156115a7576115a66116dd565b5b828201905092915050565b60006115bd826116af565b91506115c8836116af565b9250826115d8576115d761170c565b5b828204905092915050565b60006115ee826116af565b91506115f9836116af565b9250817fffffffffffffffffffffffffffffffffffffffffffffffffffffffffffffffff0483118215151615611632576116316116dd565b5b828202905092915050565b6000611648826116af565b9150611653836116af565b925082821015611666576116656116dd565b5b828203905092915050565b600061167c8261168f565b9050919050565b60008115159050919050565b600073ffffffffffffffffffffffffffffffffffffffff82169050919050565b6000819050919050565b60006116c4826116cb565b9050919050565b60006116d68261168f565b9050919050565b7f4e487b7100000000000000000000000000000000000000000000000000000000600052601160045260246000fd5b7f4e487b7100000000000000000000000000000000000000000000000000000000600052601260045260246000fd5b7f4164647265737320776173206e6f74207374616b656400000000000000000000600082015250565b7f4c6f636b65640000000000000000000000000000000000000000000000000000600082015250565b7f4f776e61626c653a206e6577206f776e657220697320746865207a65726f206160008201527f6464726573730000000000000000000000000000000000000000000000000000602082015250565b7f5472616e73666572206661696c65640000000000000000000000000000000000600082015250565b7f496e73756666696369656e742062616c616e6365000000000000000000000000600082015250565b7f416d6f756e742073686f756c642067726561746572207468616e207a65726f00600082015250565b7f4f776e61626c653a2063616c6c6572206973206e6f7420746865206f776e6572600082015250565b7f5468652063757272656e74207374616b696e672061637469766974792068617360008201527f20656e6465640000000000000000000000000000000000000000000000000000602082015250565b7f5265656e7472616e637947756172643a207265656e7472616e742063616c6c00600082015250565b61190181611671565b811461190c57600080fd5b50565b61191881611683565b811461192357600080fd5b50565b61192f816116af565b811461193a57600080fd5b5056fea264697066735822122078ac86065fed6dfb0293c59edee0f441711d57c23b37542aa816a1a3bf5a750764736f6c63430008010033",
					"opcodes": "PUSH1 0x80 PUSH1 0x40 MSTORE PUSH3 0x15180 PUSH1 0xC SSTORE CALLVALUE DUP1 ISZERO PUSH3 0x18 JUMPI PUSH1 0x0 DUP1 REVERT JUMPDEST POP PUSH1 0x40 MLOAD PUSH3 0x1C61 CODESIZE SUB DUP1 PUSH3 0x1C61 DUP4 CODECOPY DUP2 DUP2 ADD PUSH1 0x40 MSTORE DUP2 ADD SWAP1 PUSH3 0x3E SWAP2 SWAP1 PUSH3 0x200 JUMP JUMPDEST PUSH3 0x5E PUSH3 0x52 PUSH3 0x106 PUSH1 0x20 SHL PUSH1 0x20 SHR JUMP JUMPDEST PUSH3 0x10E PUSH1 0x20 SHL PUSH1 0x20 SHR JUMP JUMPDEST PUSH1 0x1 DUP1 DUP2 SWAP1 SSTORE POP DUP4 PUSH1 0x2 PUSH1 0x0 PUSH2 0x100 EXP DUP2 SLOAD DUP2 PUSH20 0xFFFFFFFFFFFFFFFFFFFFFFFFFFFFFFFFFFFFFFFF MUL NOT AND SWAP1 DUP4 PUSH20 0xFFFFFFFFFFFFFFFFFFFFFFFFFFFFFFFFFFFFFFFF AND MUL OR SWAP1 SSTORE POP DUP3 PUSH1 0x3 PUSH1 0x0 PUSH2 0x100 EXP DUP2 SLOAD DUP2 PUSH20 0xFFFFFFFFFFFFFFFFFFFFFFFFFFFFFFFFFFFFFFFF MUL NOT AND SWAP1 DUP4 PUSH20 0xFFFFFFFFFFFFFFFFFFFFFFFFFFFFFFFFFFFFFFFF AND MUL OR SWAP1 SSTORE POP DUP2 PUSH1 0x4 DUP2 SWAP1 SSTORE POP DUP1 PUSH1 0x5 DUP2 SWAP1 SSTORE POP TIMESTAMP PUSH1 0x6 DUP2 SWAP1 SSTORE POP POP POP POP POP PUSH3 0x2DE JUMP JUMPDEST PUSH1 0x0 CALLER SWAP1 POP SWAP1 JUMP JUMPDEST PUSH1 0x0 DUP1 PUSH1 0x0 SWAP1 SLOAD SWAP1 PUSH2 0x100 EXP SWAP1 DIV PUSH20 0xFFFFFFFFFFFFFFFFFFFFFFFFFFFFFFFFFFFFFFFF AND SWAP1 POP DUP2 PUSH1 0x0 DUP1 PUSH2 0x100 EXP DUP2 SLOAD DUP2 PUSH20 0xFFFFFFFFFFFFFFFFFFFFFFFFFFFFFFFFFFFFFFFF MUL NOT AND SWAP1 DUP4 PUSH20 0xFFFFFFFFFFFFFFFFFFFFFFFFFFFFFFFFFFFFFFFF AND MUL OR SWAP1 SSTORE POP DUP2 PUSH20 0xFFFFFFFFFFFFFFFFFFFFFFFFFFFFFFFFFFFFFFFF AND DUP2 PUSH20 0xFFFFFFFFFFFFFFFFFFFFFFFFFFFFFFFFFFFFFFFF AND PUSH32 0x8BE0079C531659141344CD1FD0A4F28419497F9722A3DAAFE3B4186F6B6457E0 PUSH1 0x40 MLOAD PUSH1 0x40 MLOAD DUP1 SWAP2 SUB SWAP1 LOG3 POP POP JUMP JUMPDEST PUSH1 0x0 DUP2 MLOAD SWAP1 POP PUSH3 0x1E3 DUP2 PUSH3 0x2AA JUMP JUMPDEST SWAP3 SWAP2 POP POP JUMP JUMPDEST PUSH1 0x0 DUP2 MLOAD SWAP1 POP PUSH3 0x1FA DUP2 PUSH3 0x2C4 JUMP JUMPDEST SWAP3 SWAP2 POP POP JUMP JUMPDEST PUSH1 0x0 DUP1 PUSH1 0x0 DUP1 PUSH1 0x80 DUP6 DUP8 SUB SLT ISZERO PUSH3 0x217 JUMPI PUSH1 0x0 DUP1 REVERT JUMPDEST PUSH1 0x0 PUSH3 0x227 DUP8 DUP3 DUP9 ADD PUSH3 0x1D2 JUMP JUMPDEST SWAP5 POP POP PUSH1 0x20 PUSH3 0x23A DUP8 DUP3 DUP9 ADD PUSH3 0x1D2 JUMP JUMPDEST SWAP4 POP POP PUSH1 0x40 PUSH3 0x24D DUP8 DUP3 DUP9 ADD PUSH3 0x1E9 JUMP JUMPDEST SWAP3 POP POP PUSH1 0x60 PUSH3 0x260 DUP8 DUP3 DUP9 ADD PUSH3 0x1E9 JUMP JUMPDEST SWAP2 POP POP SWAP3 SWAP6 SWAP2 SWAP5 POP SWAP3 POP JUMP JUMPDEST PUSH1 0x0 PUSH3 0x279 DUP3 PUSH3 0x280 JUMP JUMPDEST SWAP1 POP SWAP2 SWAP1 POP JUMP JUMPDEST PUSH1 0x0 PUSH20 0xFFFFFFFFFFFFFFFFFFFFFFFFFFFFFFFFFFFFFFFF DUP3 AND SWAP1 POP SWAP2 SWAP1 POP JUMP JUMPDEST PUSH1 0x0 DUP2 SWAP1 POP SWAP2 SWAP1 POP JUMP JUMPDEST PUSH3 0x2B5 DUP2 PUSH3 0x26C JUMP JUMPDEST DUP2 EQ PUSH3 0x2C1 JUMPI PUSH1 0x0 DUP1 REVERT JUMPDEST POP JUMP JUMPDEST PUSH3 0x2CF DUP2 PUSH3 0x2A0 JUMP JUMPDEST DUP2 EQ PUSH3 0x2DB JUMPI PUSH1 0x0 DUP1 REVERT JUMPDEST POP JUMP JUMPDEST PUSH2 0x1973 DUP1 PUSH3 0x2EE PUSH1 0x0 CODECOPY PUSH1 0x0 RETURN INVALID PUSH1 0x80 PUSH1 0x40 MSTORE CALLVALUE DUP1 ISZERO PUSH2 0x10 JUMPI PUSH1 0x0 DUP1 REVERT JUMPDEST POP PUSH1 0x4 CALLDATASIZE LT PUSH2 0x12C JUMPI PUSH1 0x0 CALLDATALOAD PUSH1 0xE0 SHR DUP1 PUSH4 0x8AEE8127 GT PUSH2 0xAD JUMPI DUP1 PUSH4 0xEE947A7C GT PUSH2 0x71 JUMPI DUP1 PUSH4 0xEE947A7C EQ PUSH2 0x2F9 JUMPI DUP1 PUSH4 0xF2FDE38B EQ PUSH2 0x317 JUMPI DUP1 PUSH4 0xF7C618C1 EQ PUSH2 0x333 JUMPI DUP1 PUSH4 0xFC0C546A EQ PUSH2 0x351 JUMPI DUP1 PUSH4 0xFC71AE8C EQ PUSH2 0x36F JUMPI PUSH2 0x12C JUMP JUMPDEST DUP1 PUSH4 0x8AEE8127 EQ PUSH2 0x27B JUMPI DUP1 PUSH4 0x8B0E9F3F EQ PUSH2 0x297 JUMPI DUP1 PUSH4 0x8DA5CB5B EQ PUSH2 0x2B5 JUMPI DUP1 PUSH4 0xA694FC3A EQ PUSH2 0x2D3 JUMPI DUP1 PUSH4 0xB88A802F EQ PUSH2 0x2EF JUMPI PUSH2 0x12C JUMP JUMPDEST DUP1 PUSH4 0x5D90BAD9 GT PUSH2 0xF4 JUMPI DUP1 PUSH4 0x5D90BAD9 EQ PUSH2 0x1FB JUMPI DUP1 PUSH4 0x6ABFD183 EQ PUSH2 0x217 JUMPI DUP1 PUSH4 0x715018A6 EQ PUSH2 0x235 JUMPI DUP1 PUSH4 0x750142E6 EQ PUSH2 0x23F JUMPI DUP1 PUSH4 0x80C0976E EQ PUSH2 0x25D JUMPI PUSH2 0x12C JUMP JUMPDEST DUP1 PUSH4 0x154A78B5 EQ PUSH2 0x131 JUMPI DUP1 PUSH4 0x1683153D EQ PUSH2 0x14F JUMPI DUP1 PUSH4 0x45BC78AB EQ PUSH2 0x17F JUMPI DUP1 PUSH4 0x583D42FD EQ PUSH2 0x1AF JUMPI DUP1 PUSH4 0x5D3EEA91 EQ PUSH2 0x1DF JUMPI JUMPDEST PUSH1 0x0 DUP1 REVERT JUMPDEST PUSH2 0x139 PUSH2 0x38B JUMP JUMPDEST PUSH1 0x40 MLOAD PUSH2 0x146 SWAP2 SWAP1 PUSH2 0x1530 JUMP JUMPDEST PUSH1 0x40 MLOAD DUP1 SWAP2 SUB SWAP1 RETURN JUMPDEST PUSH2 0x169 PUSH1 0x4 DUP1 CALLDATASIZE SUB DUP2 ADD SWAP1 PUSH2 0x164 SWAP2 SWAP1 PUSH2 0x1197 JUMP JUMPDEST PUSH2 0x391 JUMP JUMPDEST PUSH1 0x40 MLOAD PUSH2 0x176 SWAP2 SWAP1 PUSH2 0x1530 JUMP JUMPDEST PUSH1 0x40 MLOAD DUP1 SWAP2 SUB SWAP1 RETURN JUMPDEST PUSH2 0x199 PUSH1 0x4 DUP1 CALLDATASIZE SUB DUP2 ADD SWAP1 PUSH2 0x194 SWAP2 SWAP1 PUSH2 0x1197 JUMP JUMPDEST PUSH2 0x3A9 JUMP JUMPDEST PUSH1 0x40 MLOAD PUSH2 0x1A6 SWAP2 SWAP1 PUSH2 0x1530 JUMP JUMPDEST PUSH1 0x40 MLOAD DUP1 SWAP2 SUB SWAP1 RETURN JUMPDEST PUSH2 0x1C9 PUSH1 0x4 DUP1 CALLDATASIZE SUB DUP2 ADD SWAP1 PUSH2 0x1C4 SWAP2 SWAP1 PUSH2 0x1197 JUMP JUMPDEST PUSH2 0x3C1 JUMP JUMPDEST PUSH1 0x40 MLOAD PUSH2 0x1D6 SWAP2 SWAP1 PUSH2 0x1530 JUMP JUMPDEST PUSH1 0x40 MLOAD DUP1 SWAP2 SUB SWAP1 RETURN JUMPDEST PUSH2 0x1F9 PUSH1 0x4 DUP1 CALLDATASIZE SUB DUP2 ADD SWAP1 PUSH2 0x1F4 SWAP2 SWAP1 PUSH2 0x11E9 JUMP JUMPDEST PUSH2 0x3D9 JUMP JUMPDEST STOP JUMPDEST PUSH2 0x215 PUSH1 0x4 DUP1 CALLDATASIZE SUB DUP2 ADD SWAP1 PUSH2 0x210 SWAP2 SWAP1 PUSH2 0x11E9 JUMP JUMPDEST PUSH2 0x6AC JUMP JUMPDEST STOP JUMPDEST PUSH2 0x21F PUSH2 0x6BE JUMP JUMPDEST PUSH1 0x40 MLOAD PUSH2 0x22C SWAP2 SWAP1 PUSH2 0x1530 JUMP JUMPDEST PUSH1 0x40 MLOAD DUP1 SWAP2 SUB SWAP1 RETURN JUMPDEST PUSH2 0x23D PUSH2 0x6C4 JUMP JUMPDEST STOP JUMPDEST PUSH2 0x247 PUSH2 0x6D8 JUMP JUMPDEST PUSH1 0x40 MLOAD PUSH2 0x254 SWAP2 SWAP1 PUSH2 0x1530 JUMP JUMPDEST PUSH1 0x40 MLOAD DUP1 SWAP2 SUB SWAP1 RETURN JUMPDEST PUSH2 0x265 PUSH2 0x6DE JUMP JUMPDEST PUSH1 0x40 MLOAD PUSH2 0x272 SWAP2 SWAP1 PUSH2 0x1530 JUMP JUMPDEST PUSH1 0x40 MLOAD DUP1 SWAP2 SUB SWAP1 RETURN JUMPDEST PUSH2 0x295 PUSH1 0x4 DUP1 CALLDATASIZE SUB DUP2 ADD SWAP1 PUSH2 0x290 SWAP2 SWAP1 PUSH2 0x1197 JUMP JUMPDEST PUSH2 0x6E4 JUMP JUMPDEST STOP JUMPDEST PUSH2 0x29F PUSH2 0x730 JUMP JUMPDEST PUSH1 0x40 MLOAD PUSH2 0x2AC SWAP2 SWAP1 PUSH2 0x1530 JUMP JUMPDEST PUSH1 0x40 MLOAD DUP1 SWAP2 SUB SWAP1 RETURN JUMPDEST PUSH2 0x2BD PUSH2 0x736 JUMP JUMPDEST PUSH1 0x40 MLOAD PUSH2 0x2CA SWAP2 SWAP1 PUSH2 0x137A JUMP JUMPDEST PUSH1 0x40 MLOAD DUP1 SWAP2 SUB SWAP1 RETURN JUMPDEST PUSH2 0x2ED PUSH1 0x4 DUP1 CALLDATASIZE SUB DUP2 ADD SWAP1 PUSH2 0x2E8 SWAP2 SWAP1 PUSH2 0x11E9 JUMP JUMPDEST PUSH2 0x75F JUMP JUMPDEST STOP JUMPDEST PUSH2 0x2F7 PUSH2 0xAF6 JUMP JUMPDEST STOP JUMPDEST PUSH2 0x301 PUSH2 0xD6B JUMP JUMPDEST PUSH1 0x40 MLOAD PUSH2 0x30E SWAP2 SWAP1 PUSH2 0x1530 JUMP JUMPDEST PUSH1 0x40 MLOAD DUP1 SWAP2 SUB SWAP1 RETURN JUMPDEST PUSH2 0x331 PUSH1 0x4 DUP1 CALLDATASIZE SUB DUP2 ADD SWAP1 PUSH2 0x32C SWAP2 SWAP1 PUSH2 0x1197 JUMP JUMPDEST PUSH2 0xD71 JUMP JUMPDEST STOP JUMPDEST PUSH2 0x33B PUSH2 0xDF5 JUMP JUMPDEST PUSH1 0x40 MLOAD PUSH2 0x348 SWAP2 SWAP1 PUSH2 0x13F5 JUMP JUMPDEST PUSH1 0x40 MLOAD DUP1 SWAP2 SUB SWAP1 RETURN JUMPDEST PUSH2 0x359 PUSH2 0xE1B JUMP JUMPDEST PUSH1 0x40 MLOAD PUSH2 0x366 SWAP2 SWAP1 PUSH2 0x13F5 JUMP JUMPDEST PUSH1 0x40 MLOAD DUP1 SWAP2 SUB SWAP1 RETURN JUMPDEST PUSH2 0x389 PUSH1 0x4 DUP1 CALLDATASIZE SUB DUP2 ADD SWAP1 PUSH2 0x384 SWAP2 SWAP1 PUSH2 0x11E9 JUMP JUMPDEST PUSH2 0xE41 JUMP JUMPDEST STOP JUMPDEST PUSH1 0x4 SLOAD DUP2 JUMP JUMPDEST PUSH1 0x9 PUSH1 0x20 MSTORE DUP1 PUSH1 0x0 MSTORE PUSH1 0x40 PUSH1 0x0 KECCAK256 PUSH1 0x0 SWAP2 POP SWAP1 POP SLOAD DUP2 JUMP JUMPDEST PUSH1 0x7 PUSH1 0x20 MSTORE DUP1 PUSH1 0x0 MSTORE PUSH1 0x40 PUSH1 0x0 KECCAK256 PUSH1 0x0 SWAP2 POP SWAP1 POP SLOAD DUP2 JUMP JUMPDEST PUSH1 0x8 PUSH1 0x20 MSTORE DUP1 PUSH1 0x0 MSTORE PUSH1 0x40 PUSH1 0x0 KECCAK256 PUSH1 0x0 SWAP2 POP SWAP1 POP SLOAD DUP2 JUMP JUMPDEST PUSH2 0x3E1 PUSH2 0xE53 JUMP JUMPDEST PUSH1 0x5 SLOAD PUSH1 0x6 SLOAD PUSH2 0x3F1 SWAP2 SWAP1 PUSH2 0x155C JUMP JUMPDEST TIMESTAMP LT ISZERO PUSH2 0x433 JUMPI PUSH1 0x40 MLOAD PUSH32 0x8C379A000000000000000000000000000000000000000000000000000000000 DUP2 MSTORE PUSH1 0x4 ADD PUSH2 0x42A SWAP1 PUSH2 0x1430 JUMP JUMPDEST PUSH1 0x40 MLOAD DUP1 SWAP2 SUB SWAP1 REVERT JUMPDEST DUP1 PUSH1 0x7 PUSH1 0x0 CALLER PUSH20 0xFFFFFFFFFFFFFFFFFFFFFFFFFFFFFFFFFFFFFFFF AND PUSH20 0xFFFFFFFFFFFFFFFFFFFFFFFFFFFFFFFFFFFFFFFF AND DUP2 MSTORE PUSH1 0x20 ADD SWAP1 DUP2 MSTORE PUSH1 0x20 ADD PUSH1 0x0 KECCAK256 SLOAD LT ISZERO PUSH2 0x4B5 JUMPI PUSH1 0x40 MLOAD PUSH32 0x8C379A000000000000000000000000000000000000000000000000000000000 DUP2 MSTORE PUSH1 0x4 ADD PUSH2 0x4AC SWAP1 PUSH2 0x1490 JUMP JUMPDEST PUSH1 0x40 MLOAD DUP1 SWAP2 SUB SWAP1 REVERT JUMPDEST PUSH1 0x2 PUSH1 0x0 SWAP1 SLOAD SWAP1 PUSH2 0x100 EXP SWAP1 DIV PUSH20 0xFFFFFFFFFFFFFFFFFFFFFFFFFFFFFFFFFFFFFFFF AND PUSH20 0xFFFFFFFFFFFFFFFFFFFFFFFFFFFFFFFFFFFFFFFF AND PUSH4 0xA9059CBB CALLER DUP4 PUSH1 0x40 MLOAD DUP4 PUSH4 0xFFFFFFFF AND PUSH1 0xE0 SHL DUP2 MSTORE PUSH1 0x4 ADD PUSH2 0x512 SWAP3 SWAP2 SWAP1 PUSH2 0x13CC JUMP JUMPDEST PUSH1 0x20 PUSH1 0x40 MLOAD DUP1 DUP4 SUB DUP2 PUSH1 0x0 DUP8 DUP1 EXTCODESIZE ISZERO DUP1 ISZERO PUSH2 0x52C JUMPI PUSH1 0x0 DUP1 REVERT JUMPDEST POP GAS CALL ISZERO DUP1 ISZERO PUSH2 0x540 JUMPI RETURNDATASIZE PUSH1 0x0 DUP1 RETURNDATACOPY RETURNDATASIZE PUSH1 0x0 REVERT JUMPDEST POP POP POP POP PUSH1 0x40 MLOAD RETURNDATASIZE PUSH1 0x1F NOT PUSH1 0x1F DUP3 ADD AND DUP3 ADD DUP1 PUSH1 0x40 MSTORE POP DUP2 ADD SWAP1 PUSH2 0x564 SWAP2 SWAP1 PUSH2 0x11C0 JUMP JUMPDEST PUSH2 0x5A3 JUMPI PUSH1 0x40 MLOAD PUSH32 0x8C379A000000000000000000000000000000000000000000000000000000000 DUP2 MSTORE PUSH1 0x4 ADD PUSH2 0x59A SWAP1 PUSH2 0x1470 JUMP JUMPDEST PUSH1 0x40 MLOAD DUP1 SWAP2 SUB SWAP1 REVERT JUMPDEST PUSH2 0x5F5 DUP2 PUSH1 0x7 PUSH1 0x0 CALLER PUSH20 0xFFFFFFFFFFFFFFFFFFFFFFFFFFFFFFFFFFFFFFFF AND PUSH20 0xFFFFFFFFFFFFFFFFFFFFFFFFFFFFFFFFFFFFFFFF AND DUP2 MSTORE PUSH1 0x20 ADD SWAP1 DUP2 MSTORE PUSH1 0x20 ADD PUSH1 0x0 KECCAK256 SLOAD PUSH2 0xEA3 SWAP1 SWAP2 SWAP1 PUSH4 0xFFFFFFFF AND JUMP JUMPDEST PUSH1 0x7 PUSH1 0x0 CALLER PUSH20 0xFFFFFFFFFFFFFFFFFFFFFFFFFFFFFFFFFFFFFFFF AND PUSH20 0xFFFFFFFFFFFFFFFFFFFFFFFFFFFFFFFFFFFFFFFF AND DUP2 MSTORE PUSH1 0x20 ADD SWAP1 DUP2 MSTORE PUSH1 0x20 ADD PUSH1 0x0 KECCAK256 DUP2 SWAP1 SSTORE POP PUSH2 0x64D DUP2 PUSH1 0xA SLOAD PUSH2 0xEA3 SWAP1 SWAP2 SWAP1 PUSH4 0xFFFFFFFF AND JUMP JUMPDEST PUSH1 0xA DUP2 SWAP1 SSTORE POP CALLER PUSH20 0xFFFFFFFFFFFFFFFFFFFFFFFFFFFFFFFFFFFFFFFF AND PUSH32 0xB24546D975E2628748EFC9ACED80665E0FAD66272033E5C0EA25FD3AFAC99795 DUP3 PUSH1 0x40 MLOAD PUSH2 0x699 SWAP2 SWAP1 PUSH2 0x1530 JUMP JUMPDEST PUSH1 0x40 MLOAD DUP1 SWAP2 SUB SWAP1 LOG2 PUSH2 0x6A9 PUSH2 0xEB9 JUMP JUMPDEST POP JUMP JUMPDEST PUSH2 0x6B4 PUSH2 0xEC2 JUMP JUMPDEST DUP1 PUSH1 0x6 DUP2 SWAP1 SSTORE POP POP JUMP JUMPDEST PUSH1 0x6 SLOAD DUP2 JUMP JUMPDEST PUSH2 0x6CC PUSH2 0xEC2 JUMP JUMPDEST PUSH2 0x6D6 PUSH1 0x0 PUSH2 0xF40 JUMP JUMPDEST JUMP JUMPDEST PUSH1 0xB SLOAD DUP2 JUMP JUMPDEST PUSH1 0xC SLOAD DUP2 JUMP JUMPDEST PUSH2 0x6EC PUSH2 0xEC2 JUMP JUMPDEST DUP1 PUSH1 0x3 PUSH1 0x0 PUSH2 0x100 EXP DUP2 SLOAD DUP2 PUSH20 0xFFFFFFFFFFFFFFFFFFFFFFFFFFFFFFFFFFFFFFFF MUL NOT AND SWAP1 DUP4 PUSH20 0xFFFFFFFFFFFFFFFFFFFFFFFFFFFFFFFFFFFFFFFF AND MUL OR SWAP1 SSTORE POP POP JUMP JUMPDEST PUSH1 0xA SLOAD DUP2 JUMP JUMPDEST PUSH1 0x0 DUP1 PUSH1 0x0 SWAP1 SLOAD SWAP1 PUSH2 0x100 EXP SWAP1 DIV PUSH20 0xFFFFFFFFFFFFFFFFFFFFFFFFFFFFFFFFFFFFFFFF AND SWAP1 POP SWAP1 JUMP JUMPDEST PUSH2 0x767 PUSH2 0xE53 JUMP JUMPDEST PUSH1 0x5 SLOAD PUSH1 0x6 SLOAD PUSH2 0x777 SWAP2 SWAP1 PUSH2 0x155C JUMP JUMPDEST TIMESTAMP LT PUSH2 0x7B8 JUMPI PUSH1 0x40 MLOAD PUSH32 0x8C379A000000000000000000000000000000000000000000000000000000000 DUP2 MSTORE PUSH1 0x4 ADD PUSH2 0x7AF SWAP1 PUSH2 0x14F0 JUMP JUMPDEST PUSH1 0x40 MLOAD DUP1 SWAP2 SUB SWAP1 REVERT JUMPDEST PUSH1 0x0 DUP2 GT PUSH2 0x7FB JUMPI PUSH1 0x40 MLOAD PUSH32 0x8C379A000000000000000000000000000000000000000000000000000000000 DUP2 MSTORE PUSH1 0x4 ADD PUSH2 0x7F2 SWAP1 PUSH2 0x14B0 JUMP JUMPDEST PUSH1 0x40 MLOAD DUP1 SWAP2 SUB SWAP1 REVERT JUMPDEST PUSH1 0x2 PUSH1 0x0 SWAP1 SLOAD SWAP1 PUSH2 0x100 EXP SWAP1 DIV PUSH20 0xFFFFFFFFFFFFFFFFFFFFFFFFFFFFFFFFFFFFFFFF AND PUSH20 0xFFFFFFFFFFFFFFFFFFFFFFFFFFFFFFFFFFFFFFFF AND PUSH4 0x23B872DD CALLER ADDRESS DUP5 PUSH1 0x40 MLOAD DUP5 PUSH4 0xFFFFFFFF AND PUSH1 0xE0 SHL DUP2 MSTORE PUSH1 0x4 ADD PUSH2 0x85A SWAP4 SWAP3 SWAP2 SWAP1 PUSH2 0x1395 JUMP JUMPDEST PUSH1 0x20 PUSH1 0x40 MLOAD DUP1 DUP4 SUB DUP2 PUSH1 0x0 DUP8 DUP1 EXTCODESIZE ISZERO DUP1 ISZERO PUSH2 0x874 JUMPI PUSH1 0x0 DUP1 REVERT JUMPDEST POP GAS CALL ISZERO DUP1 ISZERO PUSH2 0x888 JUMPI RETURNDATASIZE PUSH1 0x0 DUP1 RETURNDATACOPY RETURNDATASIZE PUSH1 0x0 REVERT JUMPDEST POP POP POP POP PUSH1 0x40 MLOAD RETURNDATASIZE PUSH1 0x1F NOT PUSH1 0x1F DUP3 ADD AND DUP3 ADD DUP1 PUSH1 0x40 MSTORE POP DUP2 ADD SWAP1 PUSH2 0x8AC SWAP2 SWAP1 PUSH2 0x11C0 JUMP JUMPDEST PUSH2 0x8EB JUMPI PUSH1 0x40 MLOAD PUSH32 0x8C379A000000000000000000000000000000000000000000000000000000000 DUP2 MSTORE PUSH1 0x4 ADD PUSH2 0x8E2 SWAP1 PUSH2 0x1470 JUMP JUMPDEST PUSH1 0x40 MLOAD DUP1 SWAP2 SUB SWAP1 REVERT JUMPDEST PUSH2 0x93D DUP2 PUSH1 0x7 PUSH1 0x0 CALLER PUSH20 0xFFFFFFFFFFFFFFFFFFFFFFFFFFFFFFFFFFFFFFFF AND PUSH20 0xFFFFFFFFFFFFFFFFFFFFFFFFFFFFFFFFFFFFFFFF AND DUP2 MSTORE PUSH1 0x20 ADD SWAP1 DUP2 MSTORE PUSH1 0x20 ADD PUSH1 0x0 KECCAK256 SLOAD PUSH2 0x1004 SWAP1 SWAP2 SWAP1 PUSH4 0xFFFFFFFF AND JUMP JUMPDEST PUSH1 0x7 PUSH1 0x0 CALLER PUSH20 0xFFFFFFFFFFFFFFFFFFFFFFFFFFFFFFFFFFFFFFFF AND PUSH20 0xFFFFFFFFFFFFFFFFFFFFFFFFFFFFFFFFFFFFFFFF AND DUP2 MSTORE PUSH1 0x20 ADD SWAP1 DUP2 MSTORE PUSH1 0x20 ADD PUSH1 0x0 KECCAK256 DUP2 SWAP1 SSTORE POP TIMESTAMP PUSH1 0x8 PUSH1 0x0 CALLER PUSH20 0xFFFFFFFFFFFFFFFFFFFFFFFFFFFFFFFFFFFFFFFF AND PUSH20 0xFFFFFFFFFFFFFFFFFFFFFFFFFFFFFFFFFFFFFFFF AND DUP2 MSTORE PUSH1 0x20 ADD SWAP1 DUP2 MSTORE PUSH1 0x20 ADD PUSH1 0x0 KECCAK256 DUP2 SWAP1 SSTORE POP PUSH1 0x0 PUSH2 0x9CF CALLER PUSH2 0x101A JUMP JUMPDEST SWAP1 POP PUSH2 0xA23 DUP2 PUSH1 0x9 PUSH1 0x0 CALLER PUSH20 0xFFFFFFFFFFFFFFFFFFFFFFFFFFFFFFFFFFFFFFFF AND PUSH20 0xFFFFFFFFFFFFFFFFFFFFFFFFFFFFFFFFFFFFFFFF AND DUP2 MSTORE PUSH1 0x20 ADD SWAP1 DUP2 MSTORE PUSH1 0x20 ADD PUSH1 0x0 KECCAK256 SLOAD PUSH2 0x1004 SWAP1 SWAP2 SWAP1 PUSH4 0xFFFFFFFF AND JUMP JUMPDEST PUSH1 0x9 PUSH1 0x0 CALLER PUSH20 0xFFFFFFFFFFFFFFFFFFFFFFFFFFFFFFFFFFFFFFFF AND PUSH20 0xFFFFFFFFFFFFFFFFFFFFFFFFFFFFFFFFFFFFFFFF AND DUP2 MSTORE PUSH1 0x20 ADD SWAP1 DUP2 MSTORE PUSH1 0x20 ADD PUSH1 0x0 KECCAK256 DUP2 SWAP1 SSTORE POP PUSH2 0xA7B DUP3 PUSH1 0xA SLOAD PUSH2 0x1004 SWAP1 SWAP2 SWAP1 PUSH4 0xFFFFFFFF AND JUMP JUMPDEST PUSH1 0xA DUP2 SWAP1 SSTORE POP PUSH2 0xA96 DUP2 PUSH1 0xB SLOAD PUSH2 0x1004 SWAP1 SWAP2 SWAP1 PUSH4 0xFFFFFFFF AND JUMP JUMPDEST PUSH1 0xB DUP2 SWAP1 SSTORE POP CALLER PUSH20 0xFFFFFFFFFFFFFFFFFFFFFFFFFFFFFFFFFFFFFFFF AND PUSH32 0xEBEDB8B3C678666E7F36970BC8F57ABF6D8FA2E828C0DA91EA5B75BF68ED101A DUP4 PUSH1 0x40 MLOAD PUSH2 0xAE2 SWAP2 SWAP1 PUSH2 0x1530 JUMP JUMPDEST PUSH1 0x40 MLOAD DUP1 SWAP2 SUB SWAP1 LOG2 POP PUSH2 0xAF3 PUSH2 0xEB9 JUMP JUMPDEST POP JUMP JUMPDEST PUSH2 0xAFE PUSH2 0xE53 JUMP JUMPDEST PUSH1 0x0 PUSH1 0x8 PUSH1 0x0 CALLER PUSH20 0xFFFFFFFFFFFFFFFFFFFFFFFFFFFFFFFFFFFFFFFF AND PUSH20 0xFFFFFFFFFFFFFFFFFFFFFFFFFFFFFFFFFFFFFFFF AND DUP2 MSTORE PUSH1 0x20 ADD SWAP1 DUP2 MSTORE PUSH1 0x20 ADD PUSH1 0x0 KECCAK256 SLOAD GT PUSH2 0xB80 JUMPI PUSH1 0x40 MLOAD PUSH32 0x8C379A000000000000000000000000000000000000000000000000000000000 DUP2 MSTORE PUSH1 0x4 ADD PUSH2 0xB77 SWAP1 PUSH2 0x1410 JUMP JUMPDEST PUSH1 0x40 MLOAD DUP1 SWAP2 SUB SWAP1 REVERT JUMPDEST PUSH1 0x0 PUSH1 0x9 PUSH1 0x0 CALLER PUSH20 0xFFFFFFFFFFFFFFFFFFFFFFFFFFFFFFFFFFFFFFFF AND PUSH20 0xFFFFFFFFFFFFFFFFFFFFFFFFFFFFFFFFFFFFFFFF AND DUP2 MSTORE PUSH1 0x20 ADD SWAP1 DUP2 MSTORE PUSH1 0x20 ADD PUSH1 0x0 KECCAK256 SLOAD SWAP1 POP PUSH1 0x3 PUSH1 0x0 SWAP1 SLOAD SWAP1 PUSH2 0x100 EXP SWAP1 DIV PUSH20 0xFFFFFFFFFFFFFFFFFFFFFFFFFFFFFFFFFFFFFFFF AND PUSH20 0xFFFFFFFFFFFFFFFFFFFFFFFFFFFFFFFFFFFFFFFF AND PUSH4 0xA9059CBB CALLER DUP4 PUSH1 0x40 MLOAD DUP4 PUSH4 0xFFFFFFFF AND PUSH1 0xE0 SHL DUP2 MSTORE PUSH1 0x4 ADD PUSH2 0xC21 SWAP3 SWAP2 SWAP1 PUSH2 0x13CC JUMP JUMPDEST PUSH1 0x20 PUSH1 0x40 MLOAD DUP1 DUP4 SUB DUP2 PUSH1 0x0 DUP8 DUP1 EXTCODESIZE ISZERO DUP1 ISZERO PUSH2 0xC3B JUMPI PUSH1 0x0 DUP1 REVERT JUMPDEST POP GAS CALL ISZERO DUP1 ISZERO PUSH2 0xC4F JUMPI RETURNDATASIZE PUSH1 0x0 DUP1 RETURNDATACOPY RETURNDATASIZE PUSH1 0x0 REVERT JUMPDEST POP POP POP POP PUSH1 0x40 MLOAD RETURNDATASIZE PUSH1 0x1F NOT PUSH1 0x1F DUP3 ADD AND DUP3 ADD DUP1 PUSH1 0x40 MSTORE POP DUP2 ADD SWAP1 PUSH2 0xC73 SWAP2 SWAP1 PUSH2 0x11C0 JUMP JUMPDEST PUSH2 0xCB2 JUMPI PUSH1 0x40 MLOAD PUSH32 0x8C379A000000000000000000000000000000000000000000000000000000000 DUP2 MSTORE PUSH1 0x4 ADD PUSH2 0xCA9 SWAP1 PUSH2 0x1470 JUMP JUMPDEST PUSH1 0x40 MLOAD DUP1 SWAP2 SUB SWAP1 REVERT JUMPDEST PUSH1 0x0 PUSH1 0x9 PUSH1 0x0 CALLER PUSH20 0xFFFFFFFFFFFFFFFFFFFFFFFFFFFFFFFFFFFFFFFF AND PUSH20 0xFFFFFFFFFFFFFFFFFFFFFFFFFFFFFFFFFFFFFFFF AND DUP2 MSTORE PUSH1 0x20 ADD SWAP1 DUP2 MSTORE PUSH1 0x20 ADD PUSH1 0x0 KECCAK256 DUP2 SWAP1 SSTORE POP PUSH2 0xD0C DUP2 PUSH1 0xB SLOAD PUSH2 0xEA3 SWAP1 SWAP2 SWAP1 PUSH4 0xFFFFFFFF AND JUMP JUMPDEST PUSH1 0xB DUP2 SWAP1 SSTORE POP CALLER PUSH20 0xFFFFFFFFFFFFFFFFFFFFFFFFFFFFFFFFFFFFFFFF AND PUSH32 0xBA8DE60C3403EC381D1D484652EA1980E3C3E56359195C92525BFF4CE47AD98E DUP3 PUSH1 0x40 MLOAD PUSH2 0xD58 SWAP2 SWAP1 PUSH2 0x1530 JUMP JUMPDEST PUSH1 0x40 MLOAD DUP1 SWAP2 SUB SWAP1 LOG2 POP PUSH2 0xD69 PUSH2 0xEB9 JUMP JUMPDEST JUMP JUMPDEST PUSH1 0x5 SLOAD DUP2 JUMP JUMPDEST PUSH2 0xD79 PUSH2 0xEC2 JUMP JUMPDEST PUSH1 0x0 PUSH20 0xFFFFFFFFFFFFFFFFFFFFFFFFFFFFFFFFFFFFFFFF AND DUP2 PUSH20 0xFFFFFFFFFFFFFFFFFFFFFFFFFFFFFFFFFFFFFFFF AND EQ ISZERO PUSH2 0xDE9 JUMPI PUSH1 0x40 MLOAD PUSH32 0x8C379A000000000000000000000000000000000000000000000000000000000 DUP2 MSTORE PUSH1 0x4 ADD PUSH2 0xDE0 SWAP1 PUSH2 0x1450 JUMP JUMPDEST PUSH1 0x40 MLOAD DUP1 SWAP2 SUB SWAP1 REVERT JUMPDEST PUSH2 0xDF2 DUP2 PUSH2 0xF40 JUMP JUMPDEST POP JUMP JUMPDEST PUSH1 0x3 PUSH1 0x0 SWAP1 SLOAD SWAP1 PUSH2 0x100 EXP SWAP1 DIV PUSH20 0xFFFFFFFFFFFFFFFFFFFFFFFFFFFFFFFFFFFFFFFF AND DUP2 JUMP JUMPDEST PUSH1 0x2 PUSH1 0x0 SWAP1 SLOAD SWAP1 PUSH2 0x100 EXP SWAP1 DIV PUSH20 0xFFFFFFFFFFFFFFFFFFFFFFFFFFFFFFFFFFFFFFFF AND DUP2 JUMP JUMPDEST PUSH2 0xE49 PUSH2 0xEC2 JUMP JUMPDEST DUP1 PUSH1 0x4 DUP2 SWAP1 SSTORE POP POP JUMP JUMPDEST PUSH1 0x2 PUSH1 0x1 SLOAD EQ ISZERO PUSH2 0xE99 JUMPI PUSH1 0x40 MLOAD PUSH32 0x8C379A000000000000000000000000000000000000000000000000000000000 DUP2 MSTORE PUSH1 0x4 ADD PUSH2 0xE90 SWAP1 PUSH2 0x1510 JUMP JUMPDEST PUSH1 0x40 MLOAD DUP1 SWAP2 SUB SWAP1 REVERT JUMPDEST PUSH1 0x2 PUSH1 0x1 DUP2 SWAP1 SSTORE POP JUMP JUMPDEST PUSH1 0x0 DUP2 DUP4 PUSH2 0xEB1 SWAP2 SWAP1 PUSH2 0x163D JUMP JUMPDEST SWAP1 POP SWAP3 SWAP2 POP POP JUMP JUMPDEST PUSH1 0x1 DUP1 DUP2 SWAP1 SSTORE POP JUMP JUMPDEST PUSH2 0xECA PUSH2 0x1124 JUMP JUMPDEST PUSH20 0xFFFFFFFFFFFFFFFFFFFFFFFFFFFFFFFFFFFFFFFF AND PUSH2 0xEE8 PUSH2 0x736 JUMP JUMPDEST PUSH20 0xFFFFFFFFFFFFFFFFFFFFFFFFFFFFFFFFFFFFFFFF AND EQ PUSH2 0xF3E JUMPI PUSH1 0x40 MLOAD PUSH32 0x8C379A000000000000000000000000000000000000000000000000000000000 DUP2 MSTORE PUSH1 0x4 ADD PUSH2 0xF35 SWAP1 PUSH2 0x14D0 JUMP JUMPDEST PUSH1 0x40 MLOAD DUP1 SWAP2 SUB SWAP1 REVERT JUMPDEST JUMP JUMPDEST PUSH1 0x0 DUP1 PUSH1 0x0 SWAP1 SLOAD SWAP1 PUSH2 0x100 EXP SWAP1 DIV PUSH20 0xFFFFFFFFFFFFFFFFFFFFFFFFFFFFFFFFFFFFFFFF AND SWAP1 POP DUP2 PUSH1 0x0 DUP1 PUSH2 0x100 EXP DUP2 SLOAD DUP2 PUSH20 0xFFFFFFFFFFFFFFFFFFFFFFFFFFFFFFFFFFFFFFFF MUL NOT AND SWAP1 DUP4 PUSH20 0xFFFFFFFFFFFFFFFFFFFFFFFFFFFFFFFFFFFFFFFF AND MUL OR SWAP1 SSTORE POP DUP2 PUSH20 0xFFFFFFFFFFFFFFFFFFFFFFFFFFFFFFFFFFFFFFFF AND DUP2 PUSH20 0xFFFFFFFFFFFFFFFFFFFFFFFFFFFFFFFFFFFFFFFF AND PUSH32 0x8BE0079C531659141344CD1FD0A4F28419497F9722A3DAAFE3B4186F6B6457E0 PUSH1 0x40 MLOAD PUSH1 0x40 MLOAD DUP1 SWAP2 SUB SWAP1 LOG3 POP POP JUMP JUMPDEST PUSH1 0x0 DUP2 DUP4 PUSH2 0x1012 SWAP2 SWAP1 PUSH2 0x155C JUMP JUMPDEST SWAP1 POP SWAP3 SWAP2 POP POP JUMP JUMPDEST PUSH1 0x0 DUP1 PUSH2 0x1085 PUSH1 0x8 PUSH1 0x0 DUP6 PUSH20 0xFFFFFFFFFFFFFFFFFFFFFFFFFFFFFFFFFFFFFFFF AND PUSH20 0xFFFFFFFFFFFFFFFFFFFFFFFFFFFFFFFFFFFFFFFF AND DUP2 MSTORE PUSH1 0x20 ADD SWAP1 DUP2 MSTORE PUSH1 0x20 ADD PUSH1 0x0 KECCAK256 SLOAD PUSH2 0x1077 PUSH1 0x6 SLOAD PUSH1 0x5 SLOAD PUSH2 0x1004 SWAP1 SWAP2 SWAP1 PUSH4 0xFFFFFFFF AND JUMP JUMPDEST PUSH2 0xEA3 SWAP1 SWAP2 SWAP1 PUSH4 0xFFFFFFFF AND JUMP JUMPDEST SWAP1 POP PUSH1 0x0 PUSH2 0x1118 PUSH1 0xC SLOAD PUSH2 0x110A DUP5 PUSH2 0x10FC PUSH1 0x4 SLOAD PUSH2 0x10EE PUSH3 0xF4240 PUSH1 0x7 PUSH1 0x0 DUP14 PUSH20 0xFFFFFFFFFFFFFFFFFFFFFFFFFFFFFFFFFFFFFFFF AND PUSH20 0xFFFFFFFFFFFFFFFFFFFFFFFFFFFFFFFFFFFFFFFF AND DUP2 MSTORE PUSH1 0x20 ADD SWAP1 DUP2 MSTORE PUSH1 0x20 ADD PUSH1 0x0 KECCAK256 SLOAD PUSH2 0x112C SWAP1 SWAP2 SWAP1 PUSH4 0xFFFFFFFF AND JUMP JUMPDEST PUSH2 0x1142 SWAP1 SWAP2 SWAP1 PUSH4 0xFFFFFFFF AND JUMP JUMPDEST PUSH2 0x1142 SWAP1 SWAP2 SWAP1 PUSH4 0xFFFFFFFF AND JUMP JUMPDEST PUSH2 0x112C SWAP1 SWAP2 SWAP1 PUSH4 0xFFFFFFFF AND JUMP JUMPDEST SWAP1 POP DUP1 SWAP3 POP POP POP SWAP2 SWAP1 POP JUMP JUMPDEST PUSH1 0x0 CALLER SWAP1 POP SWAP1 JUMP JUMPDEST PUSH1 0x0 DUP2 DUP4 PUSH2 0x113A SWAP2 SWAP1 PUSH2 0x15B2 JUMP JUMPDEST SWAP1 POP SWAP3 SWAP2 POP POP JUMP JUMPDEST PUSH1 0x0 DUP2 DUP4 PUSH2 0x1150 SWAP2 SWAP1 PUSH2 0x15E3 JUMP JUMPDEST SWAP1 POP SWAP3 SWAP2 POP POP JUMP JUMPDEST PUSH1 0x0 DUP2 CALLDATALOAD SWAP1 POP PUSH2 0x1167 DUP2 PUSH2 0x18F8 JUMP JUMPDEST SWAP3 SWAP2 POP POP JUMP JUMPDEST PUSH1 0x0 DUP2 MLOAD SWAP1 POP PUSH2 0x117C DUP2 PUSH2 0x190F JUMP JUMPDEST SWAP3 SWAP2 POP POP JUMP JUMPDEST PUSH1 0x0 DUP2 CALLDATALOAD SWAP1 POP PUSH2 0x1191 DUP2 PUSH2 0x1926 JUMP JUMPDEST SWAP3 SWAP2 POP POP JUMP JUMPDEST PUSH1 0x0 PUSH1 0x20 DUP3 DUP5 SUB SLT ISZERO PUSH2 0x11A9 JUMPI PUSH1 0x0 DUP1 REVERT JUMPDEST PUSH1 0x0 PUSH2 0x11B7 DUP5 DUP3 DUP6 ADD PUSH2 0x1158 JUMP JUMPDEST SWAP2 POP POP SWAP3 SWAP2 POP POP JUMP JUMPDEST PUSH1 0x0 PUSH1 0x20 DUP3 DUP5 SUB SLT ISZERO PUSH2 0x11D2 JUMPI PUSH1 0x0 DUP1 REVERT JUMPDEST PUSH1 0x0 PUSH2 0x11E0 DUP5 DUP3 DUP6 ADD PUSH2 0x116D JUMP JUMPDEST SWAP2 POP POP SWAP3 SWAP2 POP POP JUMP JUMPDEST PUSH1 0x0 PUSH1 0x20 DUP3 DUP5 SUB SLT ISZERO PUSH2 0x11FB JUMPI PUSH1 0x0 DUP1 REVERT JUMPDEST PUSH1 0x0 PUSH2 0x1209 DUP5 DUP3 DUP6 ADD PUSH2 0x1182 JUMP JUMPDEST SWAP2 POP POP SWAP3 SWAP2 POP POP JUMP JUMPDEST PUSH2 0x121B DUP2 PUSH2 0x1671 JUMP JUMPDEST DUP3 MSTORE POP POP JUMP JUMPDEST PUSH2 0x122A DUP2 PUSH2 0x16B9 JUMP JUMPDEST DUP3 MSTORE POP POP JUMP JUMPDEST PUSH1 0x0 PUSH2 0x123D PUSH1 0x16 DUP4 PUSH2 0x154B JUMP JUMPDEST SWAP2 POP PUSH2 0x1248 DUP3 PUSH2 0x173B JUMP JUMPDEST PUSH1 0x20 DUP3 ADD SWAP1 POP SWAP2 SWAP1 POP JUMP JUMPDEST PUSH1 0x0 PUSH2 0x1260 PUSH1 0x6 DUP4 PUSH2 0x154B JUMP JUMPDEST SWAP2 POP PUSH2 0x126B DUP3 PUSH2 0x1764 JUMP JUMPDEST PUSH1 0x20 DUP3 ADD SWAP1 POP SWAP2 SWAP1 POP JUMP JUMPDEST PUSH1 0x0 PUSH2 0x1283 PUSH1 0x26 DUP4 PUSH2 0x154B JUMP JUMPDEST SWAP2 POP PUSH2 0x128E DUP3 PUSH2 0x178D JUMP JUMPDEST PUSH1 0x40 DUP3 ADD SWAP1 POP SWAP2 SWAP1 POP JUMP JUMPDEST PUSH1 0x0 PUSH2 0x12A6 PUSH1 0xF DUP4 PUSH2 0x154B JUMP JUMPDEST SWAP2 POP PUSH2 0x12B1 DUP3 PUSH2 0x17DC JUMP JUMPDEST PUSH1 0x20 DUP3 ADD SWAP1 POP SWAP2 SWAP1 POP JUMP JUMPDEST PUSH1 0x0 PUSH2 0x12C9 PUSH1 0x14 DUP4 PUSH2 0x154B JUMP JUMPDEST SWAP2 POP PUSH2 0x12D4 DUP3 PUSH2 0x1805 JUMP JUMPDEST PUSH1 0x20 DUP3 ADD SWAP1 POP SWAP2 SWAP1 POP JUMP JUMPDEST PUSH1 0x0 PUSH2 0x12EC PUSH1 0x1F DUP4 PUSH2 0x154B JUMP JUMPDEST SWAP2 POP PUSH2 0x12F7 DUP3 PUSH2 0x182E JUMP JUMPDEST PUSH1 0x20 DUP3 ADD SWAP1 POP SWAP2 SWAP1 POP JUMP JUMPDEST PUSH1 0x0 PUSH2 0x130F PUSH1 0x20 DUP4 PUSH2 0x154B JUMP JUMPDEST SWAP2 POP PUSH2 0x131A DUP3 PUSH2 0x1857 JUMP JUMPDEST PUSH1 0x20 DUP3 ADD SWAP1 POP SWAP2 SWAP1 POP JUMP JUMPDEST PUSH1 0x0 PUSH2 0x1332 PUSH1 0x26 DUP4 PUSH2 0x154B JUMP JUMPDEST SWAP2 POP PUSH2 0x133D DUP3 PUSH2 0x1880 JUMP JUMPDEST PUSH1 0x40 DUP3 ADD SWAP1 POP SWAP2 SWAP1 POP JUMP JUMPDEST PUSH1 0x0 PUSH2 0x1355 PUSH1 0x1F DUP4 PUSH2 0x154B JUMP JUMPDEST SWAP2 POP PUSH2 0x1360 DUP3 PUSH2 0x18CF JUMP JUMPDEST PUSH1 0x20 DUP3 ADD SWAP1 POP SWAP2 SWAP1 POP JUMP JUMPDEST PUSH2 0x1374 DUP2 PUSH2 0x16AF JUMP JUMPDEST DUP3 MSTORE POP POP JUMP JUMPDEST PUSH1 0x0 PUSH1 0x20 DUP3 ADD SWAP1 POP PUSH2 0x138F PUSH1 0x0 DUP4 ADD DUP5 PUSH2 0x1212 JUMP JUMPDEST SWAP3 SWAP2 POP POP JUMP JUMPDEST PUSH1 0x0 PUSH1 0x60 DUP3 ADD SWAP1 POP PUSH2 0x13AA PUSH1 0x0 DUP4 ADD DUP7 PUSH2 0x1212 JUMP JUMPDEST PUSH2 0x13B7 PUSH1 0x20 DUP4 ADD DUP6 PUSH2 0x1212 JUMP JUMPDEST PUSH2 0x13C4 PUSH1 0x40 DUP4 ADD DUP5 PUSH2 0x136B JUMP JUMPDEST SWAP5 SWAP4 POP POP POP POP JUMP JUMPDEST PUSH1 0x0 PUSH1 0x40 DUP3 ADD SWAP1 POP PUSH2 0x13E1 PUSH1 0x0 DUP4 ADD DUP6 PUSH2 0x1212 JUMP JUMPDEST PUSH2 0x13EE PUSH1 0x20 DUP4 ADD DUP5 PUSH2 0x136B JUMP JUMPDEST SWAP4 SWAP3 POP POP POP JUMP JUMPDEST PUSH1 0x0 PUSH1 0x20 DUP3 ADD SWAP1 POP PUSH2 0x140A PUSH1 0x0 DUP4 ADD DUP5 PUSH2 0x1221 JUMP JUMPDEST SWAP3 SWAP2 POP POP JUMP JUMPDEST PUSH1 0x0 PUSH1 0x20 DUP3 ADD SWAP1 POP DUP2 DUP2 SUB PUSH1 0x0 DUP4 ADD MSTORE PUSH2 0x1429 DUP2 PUSH2 0x1230 JUMP JUMPDEST SWAP1 POP SWAP2 SWAP1 POP JUMP JUMPDEST PUSH1 0x0 PUSH1 0x20 DUP3 ADD SWAP1 POP DUP2 DUP2 SUB PUSH1 0x0 DUP4 ADD MSTORE PUSH2 0x1449 DUP2 PUSH2 0x1253 JUMP JUMPDEST SWAP1 POP SWAP2 SWAP1 POP JUMP JUMPDEST PUSH1 0x0 PUSH1 0x20 DUP3 ADD SWAP1 POP DUP2 DUP2 SUB PUSH1 0x0 DUP4 ADD MSTORE PUSH2 0x1469 DUP2 PUSH2 0x1276 JUMP JUMPDEST SWAP1 POP SWAP2 SWAP1 POP JUMP JUMPDEST PUSH1 0x0 PUSH1 0x20 DUP3 ADD SWAP1 POP DUP2 DUP2 SUB PUSH1 0x0 DUP4 ADD MSTORE PUSH2 0x1489 DUP2 PUSH2 0x1299 JUMP JUMPDEST SWAP1 POP SWAP2 SWAP1 POP JUMP JUMPDEST PUSH1 0x0 PUSH1 0x20 DUP3 ADD SWAP1 POP DUP2 DUP2 SUB PUSH1 0x0 DUP4 ADD MSTORE PUSH2 0x14A9 DUP2 PUSH2 0x12BC JUMP JUMPDEST SWAP1 POP SWAP2 SWAP1 POP JUMP JUMPDEST PUSH1 0x0 PUSH1 0x20 DUP3 ADD SWAP1 POP DUP2 DUP2 SUB PUSH1 0x0 DUP4 ADD MSTORE PUSH2 0x14C9 DUP2 PUSH2 0x12DF JUMP JUMPDEST SWAP1 POP SWAP2 SWAP1 POP JUMP JUMPDEST PUSH1 0x0 PUSH1 0x20 DUP3 ADD SWAP1 POP DUP2 DUP2 SUB PUSH1 0x0 DUP4 ADD MSTORE PUSH2 0x14E9 DUP2 PUSH2 0x1302 JUMP JUMPDEST SWAP1 POP SWAP2 SWAP1 POP JUMP JUMPDEST PUSH1 0x0 PUSH1 0x20 DUP3 ADD SWAP1 POP DUP2 DUP2 SUB PUSH1 0x0 DUP4 ADD MSTORE PUSH2 0x1509 DUP2 PUSH2 0x1325 JUMP JUMPDEST SWAP1 POP SWAP2 SWAP1 POP JUMP JUMPDEST PUSH1 0x0 PUSH1 0x20 DUP3 ADD SWAP1 POP DUP2 DUP2 SUB PUSH1 0x0 DUP4 ADD MSTORE PUSH2 0x1529 DUP2 PUSH2 0x1348 JUMP JUMPDEST SWAP1 POP SWAP2 SWAP1 POP JUMP JUMPDEST PUSH1 0x0 PUSH1 0x20 DUP3 ADD SWAP1 POP PUSH2 0x1545 PUSH1 0x0 DUP4 ADD DUP5 PUSH2 0x136B JUMP JUMPDEST SWAP3 SWAP2 POP POP JUMP JUMPDEST PUSH1 0x0 DUP3 DUP3 MSTORE PUSH1 0x20 DUP3 ADD SWAP1 POP SWAP3 SWAP2 POP POP JUMP JUMPDEST PUSH1 0x0 PUSH2 0x1567 DUP3 PUSH2 0x16AF JUMP JUMPDEST SWAP2 POP PUSH2 0x1572 DUP4 PUSH2 0x16AF JUMP JUMPDEST SWAP3 POP DUP3 PUSH32 0xFFFFFFFFFFFFFFFFFFFFFFFFFFFFFFFFFFFFFFFFFFFFFFFFFFFFFFFFFFFFFFFF SUB DUP3 GT ISZERO PUSH2 0x15A7 JUMPI PUSH2 0x15A6 PUSH2 0x16DD JUMP JUMPDEST JUMPDEST DUP3 DUP3 ADD SWAP1 POP SWAP3 SWAP2 POP POP JUMP JUMPDEST PUSH1 0x0 PUSH2 0x15BD DUP3 PUSH2 0x16AF JUMP JUMPDEST SWAP2 POP PUSH2 0x15C8 DUP4 PUSH2 0x16AF JUMP JUMPDEST SWAP3 POP DUP3 PUSH2 0x15D8 JUMPI PUSH2 0x15D7 PUSH2 0x170C JUMP JUMPDEST JUMPDEST DUP3 DUP3 DIV SWAP1 POP SWAP3 SWAP2 POP POP JUMP JUMPDEST PUSH1 0x0 PUSH2 0x15EE DUP3 PUSH2 0x16AF JUMP JUMPDEST SWAP2 POP PUSH2 0x15F9 DUP4 PUSH2 0x16AF JUMP JUMPDEST SWAP3 POP DUP2 PUSH32 0xFFFFFFFFFFFFFFFFFFFFFFFFFFFFFFFFFFFFFFFFFFFFFFFFFFFFFFFFFFFFFFFF DIV DUP4 GT DUP3 ISZERO ISZERO AND ISZERO PUSH2 0x1632 JUMPI PUSH2 0x1631 PUSH2 0x16DD JUMP JUMPDEST JUMPDEST DUP3 DUP3 MUL SWAP1 POP SWAP3 SWAP2 POP POP JUMP JUMPDEST PUSH1 0x0 PUSH2 0x1648 DUP3 PUSH2 0x16AF JUMP JUMPDEST SWAP2 POP PUSH2 0x1653 DUP4 PUSH2 0x16AF JUMP JUMPDEST SWAP3 POP DUP3 DUP3 LT ISZERO PUSH2 0x1666 JUMPI PUSH2 0x1665 PUSH2 0x16DD JUMP JUMPDEST JUMPDEST DUP3 DUP3 SUB SWAP1 POP SWAP3 SWAP2 POP POP JUMP JUMPDEST PUSH1 0x0 PUSH2 0x167C DUP3 PUSH2 0x168F JUMP JUMPDEST SWAP1 POP SWAP2 SWAP1 POP JUMP JUMPDEST PUSH1 0x0 DUP2 ISZERO ISZERO SWAP1 POP SWAP2 SWAP1 POP JUMP JUMPDEST PUSH1 0x0 PUSH20 0xFFFFFFFFFFFFFFFFFFFFFFFFFFFFFFFFFFFFFFFF DUP3 AND SWAP1 POP SWAP2 SWAP1 POP JUMP JUMPDEST PUSH1 0x0 DUP2 SWAP1 POP SWAP2 SWAP1 POP JUMP JUMPDEST PUSH1 0x0 PUSH2 0x16C4 DUP3 PUSH2 0x16CB JUMP JUMPDEST SWAP1 POP SWAP2 SWAP1 POP JUMP JUMPDEST PUSH1 0x0 PUSH2 0x16D6 DUP3 PUSH2 0x168F JUMP JUMPDEST SWAP1 POP SWAP2 SWAP1 POP JUMP JUMPDEST PUSH32 0x4E487B7100000000000000000000000000000000000000000000000000000000 PUSH1 0x0 MSTORE PUSH1 0x11 PUSH1 0x4 MSTORE PUSH1 0x24 PUSH1 0x0 REVERT JUMPDEST PUSH32 0x4E487B7100000000000000000000000000000000000000000000000000000000 PUSH1 0x0 MSTORE PUSH1 0x12 PUSH1 0x4 MSTORE PUSH1 0x24 PUSH1 0x0 REVERT JUMPDEST PUSH32 0x4164647265737320776173206E6F74207374616B656400000000000000000000 PUSH1 0x0 DUP3 ADD MSTORE POP JUMP JUMPDEST PUSH32 0x4C6F636B65640000000000000000000000000000000000000000000000000000 PUSH1 0x0 DUP3 ADD MSTORE POP JUMP JUMPDEST PUSH32 0x4F776E61626C653A206E6577206F776E657220697320746865207A65726F2061 PUSH1 0x0 DUP3 ADD MSTORE PUSH32 0x6464726573730000000000000000000000000000000000000000000000000000 PUSH1 0x20 DUP3 ADD MSTORE POP JUMP JUMPDEST PUSH32 0x5472616E73666572206661696C65640000000000000000000000000000000000 PUSH1 0x0 DUP3 ADD MSTORE POP JUMP JUMPDEST PUSH32 0x496E73756666696369656E742062616C616E6365000000000000000000000000 PUSH1 0x0 DUP3 ADD MSTORE POP JUMP JUMPDEST PUSH32 0x416D6F756E742073686F756C642067726561746572207468616E207A65726F00 PUSH1 0x0 DUP3 ADD MSTORE POP JUMP JUMPDEST PUSH32 0x4F776E61626C653A2063616C6C6572206973206E6F7420746865206F776E6572 PUSH1 0x0 DUP3 ADD MSTORE POP JUMP JUMPDEST PUSH32 0x5468652063757272656E74207374616B696E6720616374697669747920686173 PUSH1 0x0 DUP3 ADD MSTORE PUSH32 0x20656E6465640000000000000000000000000000000000000000000000000000 PUSH1 0x20 DUP3 ADD MSTORE POP JUMP JUMPDEST PUSH32 0x5265656E7472616E637947756172643A207265656E7472616E742063616C6C00 PUSH1 0x0 DUP3 ADD MSTORE POP JUMP JUMPDEST PUSH2 0x1901 DUP2 PUSH2 0x1671 JUMP JUMPDEST DUP2 EQ PUSH2 0x190C JUMPI PUSH1 0x0 DUP1 REVERT JUMPDEST POP JUMP JUMPDEST PUSH2 0x1918 DUP2 PUSH2 0x1683 JUMP JUMPDEST DUP2 EQ PUSH2 0x1923 JUMPI PUSH1 0x0 DUP1 REVERT JUMPDEST POP JUMP JUMPDEST PUSH2 0x192F DUP2 PUSH2 0x16AF JUMP JUMPDEST DUP2 EQ PUSH2 0x193A JUMPI PUSH1 0x0 DUP1 REVERT JUMPDEST POP JUMP INVALID LOG2 PUSH5 0x6970667358 0x22 SLT KECCAK256 PUSH25 0xAC86065FED6DFB0293C59EDEE0F441711D57C23B37542AA816 LOG1 LOG3 0xBF GAS PUSH22 0x764736F6C6343000801003300000000000000000000 "
				},
				"gasEstimates": {
					"creation": {
						"codeDepositCost": "1303000",
						"executionCost": "infinite",
						"totalCost": "infinite"
					},
					"external": {
						"claimReward()": "infinite",
						"dayTime()": "1240",
						"lockupPeriod()": "1151",
						"owner()": "1289",
						"renounceOwnership()": "24465",
						"rewardRateInit()": "1153",
						"rewardToken()": "1323",
						"setRewardRateInit(uint256)": "21494",
						"setRewardToken(address)": "22309",
						"setStakingStartTime(uint256)": "21407",
						"stake(uint256)": "infinite",
						"stakingBalance(address)": "1582",
						"stakingReward(address)": "1560",
						"stakingStartTime()": "1174",
						"stakingTime(address)": "1604",
						"token()": "1345",
						"totalReward()": "1218",
						"totalStake()": "1174",
						"transferOwnership(address)": "24791",
						"unStake(uint256)": "infinite"
					},
					"internal": {
						"getRewardForUser(address)": "infinite"
					}
				},
				"methodIdentifiers": {
					"claimReward()": "b88a802f",
					"dayTime()": "80c0976e",
					"lockupPeriod()": "ee947a7c",
					"owner()": "8da5cb5b",
					"renounceOwnership()": "715018a6",
					"rewardRateInit()": "154a78b5",
					"rewardToken()": "f7c618c1",
					"setRewardRateInit(uint256)": "fc71ae8c",
					"setRewardToken(address)": "8aee8127",
					"setStakingStartTime(uint256)": "5d90bad9",
					"stake(uint256)": "a694fc3a",
					"stakingBalance(address)": "45bc78ab",
					"stakingReward(address)": "1683153d",
					"stakingStartTime()": "6abfd183",
					"stakingTime(address)": "583d42fd",
					"token()": "fc0c546a",
					"totalReward()": "750142e6",
					"totalStake()": "8b0e9f3f",
					"transferOwnership(address)": "f2fde38b",
					"unStake(uint256)": "5d3eea91"
				}
			},
			"storageLayout": {
				"storage": [
					{
						"astId": 7,
						"contract": "StakingPool.sol:StakingPool",
						"label": "_owner",
						"offset": 0,
						"slot": "0",
						"type": "t_address"
					},
					{
						"astId": 123,
						"contract": "StakingPool.sol:StakingPool",
						"label": "_status",
						"offset": 0,
						"slot": "1",
						"type": "t_uint256"
					},
					{
						"astId": 594,
						"contract": "StakingPool.sol:StakingPool",
						"label": "token",
						"offset": 0,
						"slot": "2",
						"type": "t_contract(IERC20)244"
					},
					{
						"astId": 597,
						"contract": "StakingPool.sol:StakingPool",
						"label": "rewardToken",
						"offset": 0,
						"slot": "3",
						"type": "t_contract(IERC20)244"
					},
					{
						"astId": 599,
						"contract": "StakingPool.sol:StakingPool",
						"label": "rewardRateInit",
						"offset": 0,
						"slot": "4",
						"type": "t_uint256"
					},
					{
						"astId": 601,
						"contract": "StakingPool.sol:StakingPool",
						"label": "lockupPeriod",
						"offset": 0,
						"slot": "5",
						"type": "t_uint256"
					},
					{
						"astId": 603,
						"contract": "StakingPool.sol:StakingPool",
						"label": "stakingStartTime",
						"offset": 0,
						"slot": "6",
						"type": "t_uint256"
					},
					{
						"astId": 607,
						"contract": "StakingPool.sol:StakingPool",
						"label": "stakingBalance",
						"offset": 0,
						"slot": "7",
						"type": "t_mapping(t_address,t_uint256)"
					},
					{
						"astId": 611,
						"contract": "StakingPool.sol:StakingPool",
						"label": "stakingTime",
						"offset": 0,
						"slot": "8",
						"type": "t_mapping(t_address,t_uint256)"
					},
					{
						"astId": 615,
						"contract": "StakingPool.sol:StakingPool",
						"label": "stakingReward",
						"offset": 0,
						"slot": "9",
						"type": "t_mapping(t_address,t_uint256)"
					},
					{
						"astId": 617,
						"contract": "StakingPool.sol:StakingPool",
						"label": "totalStake",
						"offset": 0,
						"slot": "10",
						"type": "t_uint256"
					},
					{
						"astId": 619,
						"contract": "StakingPool.sol:StakingPool",
						"label": "totalReward",
						"offset": 0,
						"slot": "11",
						"type": "t_uint256"
					},
					{
						"astId": 622,
						"contract": "StakingPool.sol:StakingPool",
						"label": "dayTime",
						"offset": 0,
						"slot": "12",
						"type": "t_uint256"
					}
				],
				"types": {
					"t_address": {
						"encoding": "inplace",
						"label": "address",
						"numberOfBytes": "20"
					},
					"t_contract(IERC20)244": {
						"encoding": "inplace",
						"label": "contract IERC20",
						"numberOfBytes": "20"
					},
					"t_mapping(t_address,t_uint256)": {
						"encoding": "mapping",
						"key": "t_address",
						"label": "mapping(address => uint256)",
						"numberOfBytes": "32",
						"value": "t_uint256"
					},
					"t_uint256": {
						"encoding": "inplace",
						"label": "uint256",
						"numberOfBytes": "32"
					}
				}
			},
			"userdoc": {
				"kind": "user",
				"methods": {},
				"version": 1
			}
		}
	}
}