{
	"evic/EVIC.sol": {
		"EvicToken": {
			"abi": [
				{
					"inputs": [
						{
							"internalType": "address",
							"name": "_usdtAddress",
							"type": "address"
						},
						{
							"internalType": "uint256",
							"name": "_evicPrice",
							"type": "uint256"
						}
					],
					"stateMutability": "nonpayable",
					"type": "constructor"
				},
				{
					"anonymous": false,
					"inputs": [
						{
							"indexed": true,
							"internalType": "address",
							"name": "owner",
							"type": "address"
						},
						{
							"indexed": true,
							"internalType": "address",
							"name": "spender",
							"type": "address"
						},
						{
							"indexed": false,
							"internalType": "uint256",
							"name": "value",
							"type": "uint256"
						}
					],
					"name": "Approval",
					"type": "event"
				},
				{
					"anonymous": false,
					"inputs": [
						{
							"indexed": true,
							"internalType": "address",
							"name": "buyer",
							"type": "address"
						},
						{
							"indexed": false,
							"internalType": "uint256",
							"name": "amount",
							"type": "uint256"
						},
						{
							"indexed": false,
							"internalType": "uint256",
							"name": "tokensBought",
							"type": "uint256"
						}
					],
					"name": "BuyEvic",
					"type": "event"
				},
				{
					"anonymous": false,
					"inputs": [
						{
							"indexed": true,
							"internalType": "address",
							"name": "from",
							"type": "address"
						},
						{
							"indexed": true,
							"internalType": "address",
							"name": "to",
							"type": "address"
						},
						{
							"indexed": false,
							"internalType": "uint256",
							"name": "value",
							"type": "uint256"
						}
					],
					"name": "Transfer",
					"type": "event"
				},
				{
					"anonymous": false,
					"inputs": [
						{
							"indexed": true,
							"internalType": "address",
							"name": "owner",
							"type": "address"
						},
						{
							"indexed": false,
							"internalType": "uint256",
							"name": "amount",
							"type": "uint256"
						},
						{
							"indexed": false,
							"internalType": "uint256",
							"name": "usdtReceived",
							"type": "uint256"
						}
					],
					"name": "WithDrawEvic",
					"type": "event"
				},
				{
					"inputs": [
						{
							"internalType": "address",
							"name": "owner",
							"type": "address"
						},
						{
							"internalType": "address",
							"name": "spender",
							"type": "address"
						}
					],
					"name": "allowance",
					"outputs": [
						{
							"internalType": "uint256",
							"name": "",
							"type": "uint256"
						}
					],
					"stateMutability": "view",
					"type": "function"
				},
				{
					"inputs": [
						{
							"internalType": "address",
							"name": "",
							"type": "address"
						},
						{
							"internalType": "address",
							"name": "",
							"type": "address"
						}
					],
					"name": "allowances",
					"outputs": [
						{
							"internalType": "uint256",
							"name": "",
							"type": "uint256"
						}
					],
					"stateMutability": "view",
					"type": "function"
				},
				{
					"inputs": [
						{
							"internalType": "address",
							"name": "spender",
							"type": "address"
						},
						{
							"internalType": "uint256",
							"name": "amount",
							"type": "uint256"
						}
					],
					"name": "approve",
					"outputs": [
						{
							"internalType": "bool",
							"name": "",
							"type": "bool"
						}
					],
					"stateMutability": "nonpayable",
					"type": "function"
				},
				{
					"inputs": [
						{
							"internalType": "address",
							"name": "account",
							"type": "address"
						}
					],
					"name": "balanceOf",
					"outputs": [
						{
							"internalType": "uint256",
							"name": "",
							"type": "uint256"
						}
					],
					"stateMutability": "view",
					"type": "function"
				},
				{
					"inputs": [
						{
							"internalType": "address",
							"name": "",
							"type": "address"
						}
					],
					"name": "balances",
					"outputs": [
						{
							"internalType": "uint256",
							"name": "",
							"type": "uint256"
						}
					],
					"stateMutability": "view",
					"type": "function"
				},
				{
					"inputs": [
						{
							"internalType": "uint256",
							"name": "usdtAmount",
							"type": "uint256"
						}
					],
					"name": "buyEvic",
					"outputs": [],
					"stateMutability": "nonpayable",
					"type": "function"
				},
				{
					"inputs": [],
					"name": "decimals",
					"outputs": [
						{
							"internalType": "uint256",
							"name": "",
							"type": "uint256"
						}
					],
					"stateMutability": "view",
					"type": "function"
				},
				{
					"inputs": [],
					"name": "evicPrice",
					"outputs": [
						{
							"internalType": "uint256",
							"name": "",
							"type": "uint256"
						}
					],
					"stateMutability": "view",
					"type": "function"
				},
				{
					"inputs": [],
					"name": "name",
					"outputs": [
						{
							"internalType": "string",
							"name": "",
							"type": "string"
						}
					],
					"stateMutability": "view",
					"type": "function"
				},
				{
					"inputs": [],
					"name": "owner",
					"outputs": [
						{
							"internalType": "address",
							"name": "",
							"type": "address"
						}
					],
					"stateMutability": "view",
					"type": "function"
				},
				{
					"inputs": [],
					"name": "symbol",
					"outputs": [
						{
							"internalType": "string",
							"name": "",
							"type": "string"
						}
					],
					"stateMutability": "view",
					"type": "function"
				},
				{
					"inputs": [],
					"name": "totalSupply",
					"outputs": [
						{
							"internalType": "uint256",
							"name": "",
							"type": "uint256"
						}
					],
					"stateMutability": "view",
					"type": "function"
				},
				{
					"inputs": [
						{
							"internalType": "address",
							"name": "recipient",
							"type": "address"
						},
						{
							"internalType": "uint256",
							"name": "amount",
							"type": "uint256"
						}
					],
					"name": "transfer",
					"outputs": [
						{
							"internalType": "bool",
							"name": "",
							"type": "bool"
						}
					],
					"stateMutability": "nonpayable",
					"type": "function"
				},
				{
					"inputs": [
						{
							"internalType": "address",
							"name": "sender",
							"type": "address"
						},
						{
							"internalType": "address",
							"name": "recipient",
							"type": "address"
						},
						{
							"internalType": "uint256",
							"name": "amount",
							"type": "uint256"
						}
					],
					"name": "transferFrom",
					"outputs": [
						{
							"internalType": "bool",
							"name": "",
							"type": "bool"
						}
					],
					"stateMutability": "nonpayable",
					"type": "function"
				},
				{
					"inputs": [],
					"name": "usdt",
					"outputs": [
						{
							"internalType": "contract IERC20",
							"name": "",
							"type": "address"
						}
					],
					"stateMutability": "view",
					"type": "function"
				},
				{
					"inputs": [
						{
							"internalType": "uint256",
							"name": "amount",
							"type": "uint256"
						}
					],
					"name": "withDrawEvic",
					"outputs": [],
					"stateMutability": "nonpayable",
					"type": "function"
				}
			],
			"devdoc": {
				"kind": "dev",
				"methods": {},
				"version": 1
			},
			"evm": {
				"assembly": "    /* \"evic/EVIC.sol\":240:3850  contract EvicToken {... */\n  mstore(0x40, 0x80)\n    /* \"evic/EVIC.sol\":375:408  string public name = \"EVIC Token\" */\n  mload(0x40)\n  dup1\n  0x40\n  add\n  0x40\n  mstore\n  dup1\n  0x0a\n  dup2\n  mstore\n  0x20\n  add\n  0x4556494320546f6b656e00000000000000000000000000000000000000000000\n  dup2\n  mstore\n  pop\n  0x01\n  swap1\n  dup1\n  mload\n  swap1\n  0x20\n  add\n  swap1\n  tag_1\n  swap3\n  swap2\n  swap1\n  tag_2\n  jump\t// in\ntag_1:\n  pop\n    /* \"evic/EVIC.sol\":414:443  string public symbol = \"EVIC\" */\n  mload(0x40)\n  dup1\n  0x40\n  add\n  0x40\n  mstore\n  dup1\n  0x04\n  dup2\n  mstore\n  0x20\n  add\n  0x4556494300000000000000000000000000000000000000000000000000000000\n  dup2\n  mstore\n  pop\n  0x02\n  swap1\n  dup1\n  mload\n  swap1\n  0x20\n  add\n  swap1\n  tag_3\n  swap3\n  swap2\n  swap1\n  tag_2\n  jump\t// in\ntag_3:\n  pop\n    /* \"evic/EVIC.sol\":475:477  18 */\n  0x12\n    /* \"evic/EVIC.sol\":449:477  uint256 public decimals = 18 */\n  0x03\n  sstore\n    /* \"evic/EVIC.sol\":1042:1200  constructor(address _usdtAddress, uint256 _evicPrice) {... */\n  callvalue\n  dup1\n  iszero\n  tag_4\n  jumpi\n  0x00\n  dup1\n  revert\ntag_4:\n  pop\n  mload(0x40)\n  sub(codesize, bytecodeSize)\n  dup1\n  bytecodeSize\n  dup4\n  codecopy\n  dup2\n  dup2\n  add\n  0x40\n  mstore\n  dup2\n  add\n  swap1\n  tag_5\n  swap2\n  swap1\n  tag_6\n  jump\t// in\ntag_5:\n    /* \"evic/EVIC.sol\":1114:1124  msg.sender */\n  caller\n    /* \"evic/EVIC.sol\":1106:1111  owner */\n  0x06\n  0x00\n    /* \"evic/EVIC.sol\":1106:1124  owner = msg.sender */\n  0x0100\n  exp\n  dup2\n  sload\n  dup2\n  0xffffffffffffffffffffffffffffffffffffffff\n  mul\n  not\n  and\n  swap1\n  dup4\n  0xffffffffffffffffffffffffffffffffffffffff\n  and\n  mul\n  or\n  swap1\n  sstore\n  pop\n    /* \"evic/EVIC.sol\":1148:1160  _usdtAddress */\n  dup2\n    /* \"evic/EVIC.sol\":1134:1138  usdt */\n  0x00\n  dup1\n    /* \"evic/EVIC.sol\":1134:1161  usdt = IERC20(_usdtAddress) */\n  0x0100\n  exp\n  dup2\n  sload\n  dup2\n  0xffffffffffffffffffffffffffffffffffffffff\n  mul\n  not\n  and\n  swap1\n  dup4\n  0xffffffffffffffffffffffffffffffffffffffff\n  and\n  mul\n  or\n  swap1\n  sstore\n  pop\n    /* \"evic/EVIC.sol\":1183:1193  _evicPrice */\n  dup1\n    /* \"evic/EVIC.sol\":1171:1180  evicPrice */\n  0x05\n    /* \"evic/EVIC.sol\":1171:1193  evicPrice = _evicPrice */\n  dup2\n  swap1\n  sstore\n  pop\n    /* \"evic/EVIC.sol\":1042:1200  constructor(address _usdtAddress, uint256 _evicPrice) {... */\n  pop\n  pop\n    /* \"evic/EVIC.sol\":240:3850  contract EvicToken {... */\n  jump(tag_9)\ntag_2:\n  dup3\n  dup1\n  sload\n  tag_10\n  swap1\n  tag_11\n  jump\t// in\ntag_10:\n  swap1\n  0x00\n  mstore\n  keccak256(0x00, 0x20)\n  swap1\n  0x1f\n  add\n  0x20\n  swap1\n  div\n  dup2\n  add\n  swap3\n  dup3\n  tag_13\n  jumpi\n  0x00\n  dup6\n  sstore\n  jump(tag_12)\ntag_13:\n  dup3\n  0x1f\n  lt\n  tag_14\n  jumpi\n  dup1\n  mload\n  not(0xff)\n  and\n  dup4\n  dup1\n  add\n  or\n  dup6\n  sstore\n  jump(tag_12)\ntag_14:\n  dup3\n  dup1\n  add\n  0x01\n  add\n  dup6\n  sstore\n  dup3\n  iszero\n  tag_12\n  jumpi\n  swap2\n  dup3\n  add\ntag_15:\n  dup3\n  dup2\n  gt\n  iszero\n  tag_16\n  jumpi\n  dup3\n  mload\n  dup3\n  sstore\n  swap2\n  0x20\n  add\n  swap2\n  swap1\n  0x01\n  add\n  swap1\n  jump(tag_15)\ntag_16:\ntag_12:\n  pop\n  swap1\n  pop\n  tag_17\n  swap2\n  swap1\n  tag_18\n  jump\t// in\ntag_17:\n  pop\n  swap1\n  jump\t// out\ntag_18:\ntag_19:\n  dup1\n  dup3\n  gt\n  iszero\n  tag_20\n  jumpi\n  0x00\n  dup2\n  0x00\n  swap1\n  sstore\n  pop\n  0x01\n  add\n  jump(tag_19)\ntag_20:\n  pop\n  swap1\n  jump\t// out\n    /* \"#utility.yul\":7:150   */\ntag_22:\n    /* \"#utility.yul\":64:69   */\n  0x00\n    /* \"#utility.yul\":95:101   */\n  dup2\n    /* \"#utility.yul\":89:102   */\n  mload\n    /* \"#utility.yul\":80:102   */\n  swap1\n  pop\n    /* \"#utility.yul\":111:144   */\n  tag_24\n    /* \"#utility.yul\":138:143   */\n  dup2\n    /* \"#utility.yul\":111:144   */\n  tag_25\n  jump\t// in\ntag_24:\n    /* \"#utility.yul\":70:150   */\n  swap3\n  swap2\n  pop\n  pop\n  jump\t// out\n    /* \"#utility.yul\":156:299   */\ntag_26:\n    /* \"#utility.yul\":213:218   */\n  0x00\n    /* \"#utility.yul\":244:250   */\n  dup2\n    /* \"#utility.yul\":238:251   */\n  mload\n    /* \"#utility.yul\":229:251   */\n  swap1\n  pop\n    /* \"#utility.yul\":260:293   */\n  tag_28\n    /* \"#utility.yul\":287:292   */\n  dup2\n    /* \"#utility.yul\":260:293   */\n  tag_29\n  jump\t// in\ntag_28:\n    /* \"#utility.yul\":219:299   */\n  swap3\n  swap2\n  pop\n  pop\n  jump\t// out\n    /* \"#utility.yul\":305:745   */\ntag_6:\n    /* \"#utility.yul\":384:390   */\n  0x00\n    /* \"#utility.yul\":392:398   */\n  dup1\n    /* \"#utility.yul\":441:443   */\n  0x40\n    /* \"#utility.yul\":429:438   */\n  dup4\n    /* \"#utility.yul\":420:427   */\n  dup6\n    /* \"#utility.yul\":416:439   */\n  sub\n    /* \"#utility.yul\":412:444   */\n  slt\n    /* \"#utility.yul\":409:411   */\n  iszero\n  tag_31\n  jumpi\n    /* \"#utility.yul\":457:458   */\n  0x00\n    /* \"#utility.yul\":454:455   */\n  dup1\n    /* \"#utility.yul\":447:459   */\n  revert\n    /* \"#utility.yul\":409:411   */\ntag_31:\n    /* \"#utility.yul\":500:501   */\n  0x00\n    /* \"#utility.yul\":525:589   */\n  tag_32\n    /* \"#utility.yul\":581:588   */\n  dup6\n    /* \"#utility.yul\":572:578   */\n  dup3\n    /* \"#utility.yul\":561:570   */\n  dup7\n    /* \"#utility.yul\":557:579   */\n  add\n    /* \"#utility.yul\":525:589   */\n  tag_22\n  jump\t// in\ntag_32:\n    /* \"#utility.yul\":515:589   */\n  swap3\n  pop\n    /* \"#utility.yul\":471:599   */\n  pop\n    /* \"#utility.yul\":638:640   */\n  0x20\n    /* \"#utility.yul\":664:728   */\n  tag_33\n    /* \"#utility.yul\":720:727   */\n  dup6\n    /* \"#utility.yul\":711:717   */\n  dup3\n    /* \"#utility.yul\":700:709   */\n  dup7\n    /* \"#utility.yul\":696:718   */\n  add\n    /* \"#utility.yul\":664:728   */\n  tag_26\n  jump\t// in\ntag_33:\n    /* \"#utility.yul\":654:728   */\n  swap2\n  pop\n    /* \"#utility.yul\":609:738   */\n  pop\n    /* \"#utility.yul\":399:745   */\n  swap3\n  pop\n  swap3\n  swap1\n  pop\n  jump\t// out\n    /* \"#utility.yul\":751:847   */\ntag_34:\n    /* \"#utility.yul\":788:795   */\n  0x00\n    /* \"#utility.yul\":817:841   */\n  tag_36\n    /* \"#utility.yul\":835:840   */\n  dup3\n    /* \"#utility.yul\":817:841   */\n  tag_37\n  jump\t// in\ntag_36:\n    /* \"#utility.yul\":806:841   */\n  swap1\n  pop\n    /* \"#utility.yul\":796:847   */\n  swap2\n  swap1\n  pop\n  jump\t// out\n    /* \"#utility.yul\":853:979   */\ntag_37:\n    /* \"#utility.yul\":890:897   */\n  0x00\n    /* \"#utility.yul\":930:972   */\n  0xffffffffffffffffffffffffffffffffffffffff\n    /* \"#utility.yul\":923:928   */\n  dup3\n    /* \"#utility.yul\":919:973   */\n  and\n    /* \"#utility.yul\":908:973   */\n  swap1\n  pop\n    /* \"#utility.yul\":898:979   */\n  swap2\n  swap1\n  pop\n  jump\t// out\n    /* \"#utility.yul\":985:1062   */\ntag_39:\n    /* \"#utility.yul\":1022:1029   */\n  0x00\n    /* \"#utility.yul\":1051:1056   */\n  dup2\n    /* \"#utility.yul\":1040:1056   */\n  swap1\n  pop\n    /* \"#utility.yul\":1030:1062   */\n  swap2\n  swap1\n  pop\n  jump\t// out\n    /* \"#utility.yul\":1068:1388   */\ntag_11:\n    /* \"#utility.yul\":1112:1118   */\n  0x00\n    /* \"#utility.yul\":1149:1150   */\n  0x02\n    /* \"#utility.yul\":1143:1147   */\n  dup3\n    /* \"#utility.yul\":1139:1151   */\n  div\n    /* \"#utility.yul\":1129:1151   */\n  swap1\n  pop\n    /* \"#utility.yul\":1196:1197   */\n  0x01\n    /* \"#utility.yul\":1190:1194   */\n  dup3\n    /* \"#utility.yul\":1186:1198   */\n  and\n    /* \"#utility.yul\":1217:1235   */\n  dup1\n    /* \"#utility.yul\":1207:1209   */\n  tag_42\n  jumpi\n    /* \"#utility.yul\":1273:1277   */\n  0x7f\n    /* \"#utility.yul\":1265:1271   */\n  dup3\n    /* \"#utility.yul\":1261:1278   */\n  and\n    /* \"#utility.yul\":1251:1278   */\n  swap2\n  pop\n    /* \"#utility.yul\":1207:1209   */\ntag_42:\n    /* \"#utility.yul\":1335:1337   */\n  0x20\n    /* \"#utility.yul\":1327:1333   */\n  dup3\n    /* \"#utility.yul\":1324:1338   */\n  lt\n    /* \"#utility.yul\":1304:1322   */\n  dup2\n    /* \"#utility.yul\":1301:1339   */\n  eq\n    /* \"#utility.yul\":1298:1300   */\n  iszero\n  tag_43\n  jumpi\n    /* \"#utility.yul\":1354:1372   */\n  tag_44\n  tag_45\n  jump\t// in\ntag_44:\n    /* \"#utility.yul\":1298:1300   */\ntag_43:\n    /* \"#utility.yul\":1119:1388   */\n  pop\n  swap2\n  swap1\n  pop\n  jump\t// out\n    /* \"#utility.yul\":1394:1574   */\ntag_45:\n    /* \"#utility.yul\":1442:1519   */\n  0x4e487b7100000000000000000000000000000000000000000000000000000000\n    /* \"#utility.yul\":1439:1440   */\n  0x00\n    /* \"#utility.yul\":1432:1520   */\n  mstore\n    /* \"#utility.yul\":1539:1543   */\n  0x22\n    /* \"#utility.yul\":1536:1537   */\n  0x04\n    /* \"#utility.yul\":1529:1544   */\n  mstore\n    /* \"#utility.yul\":1563:1567   */\n  0x24\n    /* \"#utility.yul\":1560:1561   */\n  0x00\n    /* \"#utility.yul\":1553:1568   */\n  revert\n    /* \"#utility.yul\":1580:1702   */\ntag_25:\n    /* \"#utility.yul\":1653:1677   */\n  tag_48\n    /* \"#utility.yul\":1671:1676   */\n  dup2\n    /* \"#utility.yul\":1653:1677   */\n  tag_34\n  jump\t// in\ntag_48:\n    /* \"#utility.yul\":1646:1651   */\n  dup2\n    /* \"#utility.yul\":1643:1678   */\n  eq\n    /* \"#utility.yul\":1633:1635   */\n  tag_49\n  jumpi\n    /* \"#utility.yul\":1692:1693   */\n  0x00\n    /* \"#utility.yul\":1689:1690   */\n  dup1\n    /* \"#utility.yul\":1682:1694   */\n  revert\n    /* \"#utility.yul\":1633:1635   */\ntag_49:\n    /* \"#utility.yul\":1623:1702   */\n  pop\n  jump\t// out\n    /* \"#utility.yul\":1708:1830   */\ntag_29:\n    /* \"#utility.yul\":1781:1805   */\n  tag_51\n    /* \"#utility.yul\":1799:1804   */\n  dup2\n    /* \"#utility.yul\":1781:1805   */\n  tag_39\n  jump\t// in\ntag_51:\n    /* \"#utility.yul\":1774:1779   */\n  dup2\n    /* \"#utility.yul\":1771:1806   */\n  eq\n    /* \"#utility.yul\":1761:1763   */\n  tag_52\n  jumpi\n    /* \"#utility.yul\":1820:1821   */\n  0x00\n    /* \"#utility.yul\":1817:1818   */\n  dup1\n    /* \"#utility.yul\":1810:1822   */\n  revert\n    /* \"#utility.yul\":1761:1763   */\ntag_52:\n    /* \"#utility.yul\":1751:1830   */\n  pop\n  jump\t// out\n    /* \"evic/EVIC.sol\":240:3850  contract EvicToken {... */\ntag_9:\n  dataSize(sub_0)\n  dup1\n  dataOffset(sub_0)\n  0x00\n  codecopy\n  0x00\n  return\nstop\n\nsub_0: assembly {\n        /* \"evic/EVIC.sol\":240:3850  contract EvicToken {... */\n      mstore(0x40, 0x80)\n      callvalue\n      dup1\n      iszero\n      tag_1\n      jumpi\n      0x00\n      dup1\n      revert\n    tag_1:\n      pop\n      jumpi(tag_2, lt(calldatasize, 0x04))\n      shr(0xe0, calldataload(0x00))\n      dup1\n      0x70a08231\n      gt\n      tag_19\n      jumpi\n      dup1\n      0xa604f570\n      gt\n      tag_20\n      jumpi\n      dup1\n      0xa604f570\n      eq\n      tag_15\n      jumpi\n      dup1\n      0xa9059cbb\n      eq\n      tag_16\n      jumpi\n      dup1\n      0xdd62ed3e\n      eq\n      tag_17\n      jumpi\n      dup1\n      0xef1f4b84\n      eq\n      tag_18\n      jumpi\n      jump(tag_2)\n    tag_20:\n      dup1\n      0x70a08231\n      eq\n      tag_11\n      jumpi\n      dup1\n      0x8da5cb5b\n      eq\n      tag_12\n      jumpi\n      dup1\n      0x954724b4\n      eq\n      tag_13\n      jumpi\n      dup1\n      0x95d89b41\n      eq\n      tag_14\n      jumpi\n      jump(tag_2)\n    tag_19:\n      dup1\n      0x27e235e3\n      gt\n      tag_21\n      jumpi\n      dup1\n      0x27e235e3\n      eq\n      tag_7\n      jumpi\n      dup1\n      0x2f48ab7d\n      eq\n      tag_8\n      jumpi\n      dup1\n      0x313ce567\n      eq\n      tag_9\n      jumpi\n      dup1\n      0x55b6ed5c\n      eq\n      tag_10\n      jumpi\n      jump(tag_2)\n    tag_21:\n      dup1\n      0x06fdde03\n      eq\n      tag_3\n      jumpi\n      dup1\n      0x095ea7b3\n      eq\n      tag_4\n      jumpi\n      dup1\n      0x18160ddd\n      eq\n      tag_5\n      jumpi\n      dup1\n      0x23b872dd\n      eq\n      tag_6\n      jumpi\n    tag_2:\n      0x00\n      dup1\n      revert\n        /* \"evic/EVIC.sol\":375:408  string public name = \"EVIC Token\" */\n    tag_3:\n      tag_22\n      tag_23\n      jump\t// in\n    tag_22:\n      mload(0x40)\n      tag_24\n      swap2\n      swap1\n      tag_25\n      jump\t// in\n    tag_24:\n      mload(0x40)\n      dup1\n      swap2\n      sub\n      swap1\n      return\n        /* \"evic/EVIC.sol\":2292:2504  function approve(address spender, uint256 amount) external virtual returns (bool) {... */\n    tag_4:\n      tag_26\n      0x04\n      dup1\n      calldatasize\n      sub\n      dup2\n      add\n      swap1\n      tag_27\n      swap2\n      swap1\n      tag_28\n      jump\t// in\n    tag_27:\n      tag_29\n      jump\t// in\n    tag_26:\n      mload(0x40)\n      tag_30\n      swap2\n      swap1\n      tag_31\n      jump\t// in\n    tag_30:\n      mload(0x40)\n      dup1\n      swap2\n      sub\n      swap1\n      return\n        /* \"evic/EVIC.sol\":483:509  uint256 public totalSupply */\n    tag_5:\n      tag_32\n      tag_33\n      jump\t// in\n    tag_32:\n      mload(0x40)\n      tag_34\n      swap2\n      swap1\n      tag_35\n      jump\t// in\n    tag_34:\n      mload(0x40)\n      dup1\n      swap2\n      sub\n      swap1\n      return\n        /* \"evic/EVIC.sol\":2679:3028  function transferFrom(address sender, address recipient, uint256 amount) external virtual returns (bool) {... */\n    tag_6:\n      tag_36\n      0x04\n      dup1\n      calldatasize\n      sub\n      dup2\n      add\n      swap1\n      tag_37\n      swap2\n      swap1\n      tag_38\n      jump\t// in\n    tag_37:\n      tag_39\n      jump\t// in\n    tag_36:\n      mload(0x40)\n      tag_40\n      swap2\n      swap1\n      tag_31\n      jump\t// in\n    tag_40:\n      mload(0x40)\n      dup1\n      swap2\n      sub\n      swap1\n      return\n        /* \"evic/EVIC.sol\":594:637  mapping(address => uint256) public balances */\n    tag_7:\n      tag_41\n      0x04\n      dup1\n      calldatasize\n      sub\n      dup2\n      add\n      swap1\n      tag_42\n      swap2\n      swap1\n      tag_43\n      jump\t// in\n    tag_42:\n      tag_44\n      jump\t// in\n    tag_41:\n      mload(0x40)\n      tag_45\n      swap2\n      swap1\n      tag_35\n      jump\t// in\n    tag_45:\n      mload(0x40)\n      dup1\n      swap2\n      sub\n      swap1\n      return\n        /* \"evic/EVIC.sol\":329:347  IERC20 public usdt */\n    tag_8:\n      tag_46\n      tag_47\n      jump\t// in\n    tag_46:\n      mload(0x40)\n      tag_48\n      swap2\n      swap1\n      tag_49\n      jump\t// in\n    tag_48:\n      mload(0x40)\n      dup1\n      swap2\n      sub\n      swap1\n      return\n        /* \"evic/EVIC.sol\":449:477  uint256 public decimals = 18 */\n    tag_9:\n      tag_50\n      tag_51\n      jump\t// in\n    tag_50:\n      mload(0x40)\n      tag_52\n      swap2\n      swap1\n      tag_35\n      jump\t// in\n    tag_52:\n      mload(0x40)\n      dup1\n      swap2\n      sub\n      swap1\n      return\n        /* \"evic/EVIC.sol\":643:708  mapping(address => mapping(address => uint256)) public allowances */\n    tag_10:\n      tag_53\n      0x04\n      dup1\n      calldatasize\n      sub\n      dup2\n      add\n      swap1\n      tag_54\n      swap2\n      swap1\n      tag_55\n      jump\t// in\n    tag_54:\n      tag_56\n      jump\t// in\n    tag_53:\n      mload(0x40)\n      tag_57\n      swap2\n      swap1\n      tag_35\n      jump\t// in\n    tag_57:\n      mload(0x40)\n      dup1\n      swap2\n      sub\n      swap1\n      return\n        /* \"evic/EVIC.sol\":3583:3700  function balanceOf(address account) external view virtual returns (uint256) {... */\n    tag_11:\n      tag_58\n      0x04\n      dup1\n      calldatasize\n      sub\n      dup2\n      add\n      swap1\n      tag_59\n      swap2\n      swap1\n      tag_43\n      jump\t// in\n    tag_59:\n      tag_60\n      jump\t// in\n    tag_58:\n      mload(0x40)\n      tag_61\n      swap2\n      swap1\n      tag_35\n      jump\t// in\n    tag_61:\n      mload(0x40)\n      dup1\n      swap2\n      sub\n      swap1\n      return\n        /* \"evic/EVIC.sol\":567:587  address public owner */\n    tag_12:\n      tag_62\n      tag_63\n      jump\t// in\n    tag_62:\n      mload(0x40)\n      tag_64\n      swap2\n      swap1\n      tag_65\n      jump\t// in\n    tag_64:\n      mload(0x40)\n      dup1\n      swap2\n      sub\n      swap1\n      return\n        /* \"evic/EVIC.sol\":1206:1779  function buyEvic(uint256 usdtAmount) external {... */\n    tag_13:\n      tag_66\n      0x04\n      dup1\n      calldatasize\n      sub\n      dup2\n      add\n      swap1\n      tag_67\n      swap2\n      swap1\n      tag_68\n      jump\t// in\n    tag_67:\n      tag_69\n      jump\t// in\n    tag_66:\n      stop\n        /* \"evic/EVIC.sol\":414:443  string public symbol = \"EVIC\" */\n    tag_14:\n      tag_70\n      tag_71\n      jump\t// in\n    tag_70:\n      mload(0x40)\n      tag_72\n      swap2\n      swap1\n      tag_25\n      jump\t// in\n    tag_72:\n      mload(0x40)\n      dup1\n      swap2\n      sub\n      swap1\n      return\n        /* \"evic/EVIC.sol\":1785:2286  function withDrawEvic(uint256 amount) external {... */\n    tag_15:\n      tag_73\n      0x04\n      dup1\n      calldatasize\n      sub\n      dup2\n      add\n      swap1\n      tag_74\n      swap2\n      swap1\n      tag_68\n      jump\t// in\n    tag_74:\n      tag_75\n      jump\t// in\n    tag_73:\n      stop\n        /* \"evic/EVIC.sol\":2510:2673  function transfer(address recipient, uint256 amount) external virtual returns (bool) {... */\n    tag_16:\n      tag_76\n      0x04\n      dup1\n      calldatasize\n      sub\n      dup2\n      add\n      swap1\n      tag_77\n      swap2\n      swap1\n      tag_28\n      jump\t// in\n    tag_77:\n      tag_78\n      jump\t// in\n    tag_76:\n      mload(0x40)\n      tag_79\n      swap2\n      swap1\n      tag_31\n      jump\t// in\n    tag_79:\n      mload(0x40)\n      dup1\n      swap2\n      sub\n      swap1\n      return\n        /* \"evic/EVIC.sol\":3706:3847  function allowance(address owner, address spender) external view virtual returns (uint256) {... */\n    tag_17:\n      tag_80\n      0x04\n      dup1\n      calldatasize\n      sub\n      dup2\n      add\n      swap1\n      tag_81\n      swap2\n      swap1\n      tag_55\n      jump\t// in\n    tag_81:\n      tag_82\n      jump\t// in\n    tag_80:\n      mload(0x40)\n      tag_83\n      swap2\n      swap1\n      tag_35\n      jump\t// in\n    tag_83:\n      mload(0x40)\n      dup1\n      swap2\n      sub\n      swap1\n      return\n        /* \"evic/EVIC.sol\":515:539  uint256 public evicPrice */\n    tag_18:\n      tag_84\n      tag_85\n      jump\t// in\n    tag_84:\n      mload(0x40)\n      tag_86\n      swap2\n      swap1\n      tag_35\n      jump\t// in\n    tag_86:\n      mload(0x40)\n      dup1\n      swap2\n      sub\n      swap1\n      return\n        /* \"evic/EVIC.sol\":375:408  string public name = \"EVIC Token\" */\n    tag_23:\n      0x01\n      dup1\n      sload\n      tag_87\n      swap1\n      tag_88\n      jump\t// in\n    tag_87:\n      dup1\n      0x1f\n      add\n      0x20\n      dup1\n      swap2\n      div\n      mul\n      0x20\n      add\n      mload(0x40)\n      swap1\n      dup2\n      add\n      0x40\n      mstore\n      dup1\n      swap3\n      swap2\n      swap1\n      dup2\n      dup2\n      mstore\n      0x20\n      add\n      dup3\n      dup1\n      sload\n      tag_89\n      swap1\n      tag_88\n      jump\t// in\n    tag_89:\n      dup1\n      iszero\n      tag_90\n      jumpi\n      dup1\n      0x1f\n      lt\n      tag_91\n      jumpi\n      0x0100\n      dup1\n      dup4\n      sload\n      div\n      mul\n      dup4\n      mstore\n      swap2\n      0x20\n      add\n      swap2\n      jump(tag_90)\n    tag_91:\n      dup3\n      add\n      swap2\n      swap1\n      0x00\n      mstore\n      keccak256(0x00, 0x20)\n      swap1\n    tag_92:\n      dup2\n      sload\n      dup2\n      mstore\n      swap1\n      0x01\n      add\n      swap1\n      0x20\n      add\n      dup1\n      dup4\n      gt\n      tag_92\n      jumpi\n      dup3\n      swap1\n      sub\n      0x1f\n      and\n      dup3\n      add\n      swap2\n    tag_90:\n      pop\n      pop\n      pop\n      pop\n      pop\n      dup2\n      jump\t// out\n        /* \"evic/EVIC.sol\":2292:2504  function approve(address spender, uint256 amount) external virtual returns (bool) {... */\n    tag_29:\n        /* \"evic/EVIC.sol\":2368:2372  bool */\n      0x00\n        /* \"evic/EVIC.sol\":2418:2424  amount */\n      dup2\n        /* \"evic/EVIC.sol\":2384:2394  allowances */\n      0x08\n        /* \"evic/EVIC.sol\":2384:2406  allowances[msg.sender] */\n      0x00\n        /* \"evic/EVIC.sol\":2395:2405  msg.sender */\n      caller\n        /* \"evic/EVIC.sol\":2384:2406  allowances[msg.sender] */\n      0xffffffffffffffffffffffffffffffffffffffff\n      and\n      0xffffffffffffffffffffffffffffffffffffffff\n      and\n      dup2\n      mstore\n      0x20\n      add\n      swap1\n      dup2\n      mstore\n      0x20\n      add\n      0x00\n      keccak256\n        /* \"evic/EVIC.sol\":2384:2415  allowances[msg.sender][spender] */\n      0x00\n        /* \"evic/EVIC.sol\":2407:2414  spender */\n      dup6\n        /* \"evic/EVIC.sol\":2384:2415  allowances[msg.sender][spender] */\n      0xffffffffffffffffffffffffffffffffffffffff\n      and\n      0xffffffffffffffffffffffffffffffffffffffff\n      and\n      dup2\n      mstore\n      0x20\n      add\n      swap1\n      dup2\n      mstore\n      0x20\n      add\n      0x00\n      keccak256\n        /* \"evic/EVIC.sol\":2384:2424  allowances[msg.sender][spender] = amount */\n      dup2\n      swap1\n      sstore\n      pop\n        /* \"evic/EVIC.sol\":2460:2467  spender */\n      dup3\n        /* \"evic/EVIC.sol\":2439:2476  Approval(msg.sender, spender, amount) */\n      0xffffffffffffffffffffffffffffffffffffffff\n      and\n        /* \"evic/EVIC.sol\":2448:2458  msg.sender */\n      caller\n        /* \"evic/EVIC.sol\":2439:2476  Approval(msg.sender, spender, amount) */\n      0xffffffffffffffffffffffffffffffffffffffff\n      and\n      0x8c5be1e5ebec7d5bd14f71427d1e84f3dd0314c0f7b2291e5b200ac8c7c3b925\n        /* \"evic/EVIC.sol\":2469:2475  amount */\n      dup5\n        /* \"evic/EVIC.sol\":2439:2476  Approval(msg.sender, spender, amount) */\n      mload(0x40)\n      tag_94\n      swap2\n      swap1\n      tag_35\n      jump\t// in\n    tag_94:\n      mload(0x40)\n      dup1\n      swap2\n      sub\n      swap1\n      log3\n        /* \"evic/EVIC.sol\":2493:2497  true */\n      0x01\n        /* \"evic/EVIC.sol\":2486:2497  return true */\n      swap1\n      pop\n        /* \"evic/EVIC.sol\":2292:2504  function approve(address spender, uint256 amount) external virtual returns (bool) {... */\n      swap3\n      swap2\n      pop\n      pop\n      jump\t// out\n        /* \"evic/EVIC.sol\":483:509  uint256 public totalSupply */\n    tag_33:\n      sload(0x04)\n      dup2\n      jump\t// out\n        /* \"evic/EVIC.sol\":2679:3028  function transferFrom(address sender, address recipient, uint256 amount) external virtual returns (bool) {... */\n    tag_39:\n        /* \"evic/EVIC.sol\":2778:2782  bool */\n      0x00\n        /* \"evic/EVIC.sol\":2836:2842  amount */\n      dup2\n        /* \"evic/EVIC.sol\":2802:2812  allowances */\n      0x08\n        /* \"evic/EVIC.sol\":2802:2820  allowances[sender] */\n      0x00\n        /* \"evic/EVIC.sol\":2813:2819  sender */\n      dup7\n        /* \"evic/EVIC.sol\":2802:2820  allowances[sender] */\n      0xffffffffffffffffffffffffffffffffffffffff\n      and\n      0xffffffffffffffffffffffffffffffffffffffff\n      and\n      dup2\n      mstore\n      0x20\n      add\n      swap1\n      dup2\n      mstore\n      0x20\n      add\n      0x00\n      keccak256\n        /* \"evic/EVIC.sol\":2802:2832  allowances[sender][msg.sender] */\n      0x00\n        /* \"evic/EVIC.sol\":2821:2831  msg.sender */\n      caller\n        /* \"evic/EVIC.sol\":2802:2832  allowances[sender][msg.sender] */\n      0xffffffffffffffffffffffffffffffffffffffff\n      and\n      0xffffffffffffffffffffffffffffffffffffffff\n      and\n      dup2\n      mstore\n      0x20\n      add\n      swap1\n      dup2\n      mstore\n      0x20\n      add\n      0x00\n      keccak256\n      sload\n        /* \"evic/EVIC.sol\":2802:2842  allowances[sender][msg.sender] >= amount */\n      lt\n      iszero\n        /* \"evic/EVIC.sol\":2794:2869  require(allowances[sender][msg.sender] >= amount, \"Insufficient allowance\") */\n      tag_96\n      jumpi\n      mload(0x40)\n      0x08c379a000000000000000000000000000000000000000000000000000000000\n      dup2\n      mstore\n      0x04\n      add\n      tag_97\n      swap1\n      tag_98\n      jump\t// in\n    tag_97:\n      mload(0x40)\n      dup1\n      swap2\n      sub\n      swap1\n      revert\n    tag_96:\n        /* \"evic/EVIC.sol\":2912:2954  allowances[sender][msg.sender].sub(amount) */\n      tag_99\n        /* \"evic/EVIC.sol\":2947:2953  amount */\n      dup3\n        /* \"evic/EVIC.sol\":2912:2922  allowances */\n      0x08\n        /* \"evic/EVIC.sol\":2912:2930  allowances[sender] */\n      0x00\n        /* \"evic/EVIC.sol\":2923:2929  sender */\n      dup8\n        /* \"evic/EVIC.sol\":2912:2930  allowances[sender] */\n      0xffffffffffffffffffffffffffffffffffffffff\n      and\n      0xffffffffffffffffffffffffffffffffffffffff\n      and\n      dup2\n      mstore\n      0x20\n      add\n      swap1\n      dup2\n      mstore\n      0x20\n      add\n      0x00\n      keccak256\n        /* \"evic/EVIC.sol\":2912:2942  allowances[sender][msg.sender] */\n      0x00\n        /* \"evic/EVIC.sol\":2931:2941  msg.sender */\n      caller\n        /* \"evic/EVIC.sol\":2912:2942  allowances[sender][msg.sender] */\n      0xffffffffffffffffffffffffffffffffffffffff\n      and\n      0xffffffffffffffffffffffffffffffffffffffff\n      and\n      dup2\n      mstore\n      0x20\n      add\n      swap1\n      dup2\n      mstore\n      0x20\n      add\n      0x00\n      keccak256\n      sload\n        /* \"evic/EVIC.sol\":2912:2946  allowances[sender][msg.sender].sub */\n      tag_100\n      swap1\n        /* \"evic/EVIC.sol\":2912:2954  allowances[sender][msg.sender].sub(amount) */\n      swap2\n      swap1\n      0xffffffff\n      and\n      jump\t// in\n    tag_99:\n        /* \"evic/EVIC.sol\":2879:2889  allowances */\n      0x08\n        /* \"evic/EVIC.sol\":2879:2897  allowances[sender] */\n      0x00\n        /* \"evic/EVIC.sol\":2890:2896  sender */\n      dup7\n        /* \"evic/EVIC.sol\":2879:2897  allowances[sender] */\n      0xffffffffffffffffffffffffffffffffffffffff\n      and\n      0xffffffffffffffffffffffffffffffffffffffff\n      and\n      dup2\n      mstore\n      0x20\n      add\n      swap1\n      dup2\n      mstore\n      0x20\n      add\n      0x00\n      keccak256\n        /* \"evic/EVIC.sol\":2879:2909  allowances[sender][msg.sender] */\n      0x00\n        /* \"evic/EVIC.sol\":2898:2908  msg.sender */\n      caller\n        /* \"evic/EVIC.sol\":2879:2909  allowances[sender][msg.sender] */\n      0xffffffffffffffffffffffffffffffffffffffff\n      and\n      0xffffffffffffffffffffffffffffffffffffffff\n      and\n      dup2\n      mstore\n      0x20\n      add\n      swap1\n      dup2\n      mstore\n      0x20\n      add\n      0x00\n      keccak256\n        /* \"evic/EVIC.sol\":2879:2954  allowances[sender][msg.sender] = allowances[sender][msg.sender].sub(amount) */\n      dup2\n      swap1\n      sstore\n      pop\n        /* \"evic/EVIC.sol\":2964:3000  _transfer(sender, recipient, amount) */\n      tag_101\n        /* \"evic/EVIC.sol\":2974:2980  sender */\n      dup5\n        /* \"evic/EVIC.sol\":2982:2991  recipient */\n      dup5\n        /* \"evic/EVIC.sol\":2993:2999  amount */\n      dup5\n        /* \"evic/EVIC.sol\":2964:2973  _transfer */\n      tag_102\n        /* \"evic/EVIC.sol\":2964:3000  _transfer(sender, recipient, amount) */\n      jump\t// in\n    tag_101:\n        /* \"evic/EVIC.sol\":3017:3021  true */\n      0x01\n        /* \"evic/EVIC.sol\":3010:3021  return true */\n      swap1\n      pop\n        /* \"evic/EVIC.sol\":2679:3028  function transferFrom(address sender, address recipient, uint256 amount) external virtual returns (bool) {... */\n      swap4\n      swap3\n      pop\n      pop\n      pop\n      jump\t// out\n        /* \"evic/EVIC.sol\":594:637  mapping(address => uint256) public balances */\n    tag_44:\n      mstore(0x20, 0x07)\n      dup1\n      0x00\n      mstore\n      keccak256(0x00, 0x40)\n      0x00\n      swap2\n      pop\n      swap1\n      pop\n      sload\n      dup2\n      jump\t// out\n        /* \"evic/EVIC.sol\":329:347  IERC20 public usdt */\n    tag_47:\n      0x00\n      dup1\n      sload\n      swap1\n      0x0100\n      exp\n      swap1\n      div\n      0xffffffffffffffffffffffffffffffffffffffff\n      and\n      dup2\n      jump\t// out\n        /* \"evic/EVIC.sol\":449:477  uint256 public decimals = 18 */\n    tag_51:\n      sload(0x03)\n      dup2\n      jump\t// out\n        /* \"evic/EVIC.sol\":643:708  mapping(address => mapping(address => uint256)) public allowances */\n    tag_56:\n      mstore(0x20, 0x08)\n      dup2\n      0x00\n      mstore\n      mstore(0x20, keccak256(0x00, 0x40))\n      dup1\n      0x00\n      mstore\n      keccak256(0x00, 0x40)\n      0x00\n      swap2\n      pop\n      swap2\n      pop\n      pop\n      sload\n      dup2\n      jump\t// out\n        /* \"evic/EVIC.sol\":3583:3700  function balanceOf(address account) external view virtual returns (uint256) {... */\n    tag_60:\n        /* \"evic/EVIC.sol\":3650:3657  uint256 */\n      0x00\n        /* \"evic/EVIC.sol\":3676:3684  balances */\n      0x07\n        /* \"evic/EVIC.sol\":3676:3693  balances[account] */\n      0x00\n        /* \"evic/EVIC.sol\":3685:3692  account */\n      dup4\n        /* \"evic/EVIC.sol\":3676:3693  balances[account] */\n      0xffffffffffffffffffffffffffffffffffffffff\n      and\n      0xffffffffffffffffffffffffffffffffffffffff\n      and\n      dup2\n      mstore\n      0x20\n      add\n      swap1\n      dup2\n      mstore\n      0x20\n      add\n      0x00\n      keccak256\n      sload\n        /* \"evic/EVIC.sol\":3669:3693  return balances[account] */\n      swap1\n      pop\n        /* \"evic/EVIC.sol\":3583:3700  function balanceOf(address account) external view virtual returns (uint256) {... */\n      swap2\n      swap1\n      pop\n      jump\t// out\n        /* \"evic/EVIC.sol\":567:587  address public owner */\n    tag_63:\n      0x06\n      0x00\n      swap1\n      sload\n      swap1\n      0x0100\n      exp\n      swap1\n      div\n      0xffffffffffffffffffffffffffffffffffffffff\n      and\n      dup2\n      jump\t// out\n        /* \"evic/EVIC.sol\":1206:1779  function buyEvic(uint256 usdtAmount) external {... */\n    tag_69:\n        /* \"evic/EVIC.sol\":1262:1276  uint256 amount */\n      0x00\n        /* \"evic/EVIC.sol\":1279:1304  usdtAmount.mul(evicPrice) */\n      tag_105\n        /* \"evic/EVIC.sol\":1294:1303  evicPrice */\n      sload(0x05)\n        /* \"evic/EVIC.sol\":1279:1289  usdtAmount */\n      dup4\n        /* \"evic/EVIC.sol\":1279:1293  usdtAmount.mul */\n      tag_106\n      swap1\n        /* \"evic/EVIC.sol\":1279:1304  usdtAmount.mul(evicPrice) */\n      swap2\n      swap1\n      0xffffffff\n      and\n      jump\t// in\n    tag_105:\n        /* \"evic/EVIC.sol\":1262:1304  uint256 amount = usdtAmount.mul(evicPrice) */\n      swap1\n      pop\n        /* \"evic/EVIC.sol\":1383:1393  usdtAmount */\n      dup2\n        /* \"evic/EVIC.sol\":1338:1342  usdt */\n      0x00\n      dup1\n      sload\n      swap1\n      0x0100\n      exp\n      swap1\n      div\n      0xffffffffffffffffffffffffffffffffffffffff\n      and\n        /* \"evic/EVIC.sol\":1338:1352  usdt.allowance */\n      0xffffffffffffffffffffffffffffffffffffffff\n      and\n      0xdd62ed3e\n        /* \"evic/EVIC.sol\":1353:1363  msg.sender */\n      caller\n        /* \"evic/EVIC.sol\":1373:1377  this */\n      address\n        /* \"evic/EVIC.sol\":1338:1379  usdt.allowance(msg.sender, address(this)) */\n      mload(0x40)\n      dup4\n      0xffffffff\n      and\n      0xe0\n      shl\n      dup2\n      mstore\n      0x04\n      add\n      tag_107\n      swap3\n      swap2\n      swap1\n      tag_108\n      jump\t// in\n    tag_107:\n      0x20\n      mload(0x40)\n      dup1\n      dup4\n      sub\n      dup2\n      dup7\n      dup1\n      extcodesize\n      iszero\n      dup1\n      iszero\n      tag_109\n      jumpi\n      0x00\n      dup1\n      revert\n    tag_109:\n      pop\n      gas\n      staticcall\n      iszero\n      dup1\n      iszero\n      tag_111\n      jumpi\n      returndatasize\n      0x00\n      dup1\n      returndatacopy\n      revert(0x00, returndatasize)\n    tag_111:\n      pop\n      pop\n      pop\n      pop\n      mload(0x40)\n      returndatasize\n      not(0x1f)\n      0x1f\n      dup3\n      add\n      and\n      dup3\n      add\n      dup1\n      0x40\n      mstore\n      pop\n      dup2\n      add\n      swap1\n      tag_112\n      swap2\n      swap1\n      tag_113\n      jump\t// in\n    tag_112:\n        /* \"evic/EVIC.sol\":1338:1393  usdt.allowance(msg.sender, address(this)) >= usdtAmount */\n      lt\n      iszero\n        /* \"evic/EVIC.sol\":1330:1420  require(usdt.allowance(msg.sender, address(this)) >= usdtAmount, \"Insufficient allowance\") */\n      tag_114\n      jumpi\n      mload(0x40)\n      0x08c379a000000000000000000000000000000000000000000000000000000000\n      dup2\n      mstore\n      0x04\n      add\n      tag_115\n      swap1\n      tag_98\n      jump\t// in\n    tag_115:\n      mload(0x40)\n      dup1\n      swap2\n      sub\n      swap1\n      revert\n    tag_114:\n        /* \"evic/EVIC.sol\":1438:1442  usdt */\n      0x00\n      dup1\n      sload\n      swap1\n      0x0100\n      exp\n      swap1\n      div\n      0xffffffffffffffffffffffffffffffffffffffff\n      and\n        /* \"evic/EVIC.sol\":1438:1455  usdt.transferFrom */\n      0xffffffffffffffffffffffffffffffffffffffff\n      and\n      0x23b872dd\n        /* \"evic/EVIC.sol\":1456:1466  msg.sender */\n      caller\n        /* \"evic/EVIC.sol\":1476:1480  this */\n      address\n        /* \"evic/EVIC.sol\":1483:1493  usdtAmount */\n      dup6\n        /* \"evic/EVIC.sol\":1438:1494  usdt.transferFrom(msg.sender, address(this), usdtAmount) */\n      mload(0x40)\n      dup5\n      0xffffffff\n      and\n      0xe0\n      shl\n      dup2\n      mstore\n      0x04\n      add\n      tag_116\n      swap4\n      swap3\n      swap2\n      swap1\n      tag_117\n      jump\t// in\n    tag_116:\n      0x20\n      mload(0x40)\n      dup1\n      dup4\n      sub\n      dup2\n      0x00\n      dup8\n      dup1\n      extcodesize\n      iszero\n      dup1\n      iszero\n      tag_118\n      jumpi\n      0x00\n      dup1\n      revert\n    tag_118:\n      pop\n      gas\n      call\n      iszero\n      dup1\n      iszero\n      tag_120\n      jumpi\n      returndatasize\n      0x00\n      dup1\n      returndatacopy\n      revert(0x00, returndatasize)\n    tag_120:\n      pop\n      pop\n      pop\n      pop\n      mload(0x40)\n      returndatasize\n      not(0x1f)\n      0x1f\n      dup3\n      add\n      and\n      dup3\n      add\n      dup1\n      0x40\n      mstore\n      pop\n      dup2\n      add\n      swap1\n      tag_121\n      swap2\n      swap1\n      tag_122\n      jump\t// in\n    tag_121:\n        /* \"evic/EVIC.sol\":1430:1519  require(usdt.transferFrom(msg.sender, address(this), usdtAmount), \"USDT transfer failed\") */\n      tag_123\n      jumpi\n      mload(0x40)\n      0x08c379a000000000000000000000000000000000000000000000000000000000\n      dup2\n      mstore\n      0x04\n      add\n      tag_124\n      swap1\n      tag_125\n      jump\t// in\n    tag_124:\n      mload(0x40)\n      dup1\n      swap2\n      sub\n      swap1\n      revert\n    tag_123:\n        /* \"evic/EVIC.sol\":1552:1584  balances[msg.sender].add(amount) */\n      tag_126\n        /* \"evic/EVIC.sol\":1577:1583  amount */\n      dup2\n        /* \"evic/EVIC.sol\":1552:1560  balances */\n      0x07\n        /* \"evic/EVIC.sol\":1552:1572  balances[msg.sender] */\n      0x00\n        /* \"evic/EVIC.sol\":1561:1571  msg.sender */\n      caller\n        /* \"evic/EVIC.sol\":1552:1572  balances[msg.sender] */\n      0xffffffffffffffffffffffffffffffffffffffff\n      and\n      0xffffffffffffffffffffffffffffffffffffffff\n      and\n      dup2\n      mstore\n      0x20\n      add\n      swap1\n      dup2\n      mstore\n      0x20\n      add\n      0x00\n      keccak256\n      sload\n        /* \"evic/EVIC.sol\":1552:1576  balances[msg.sender].add */\n      tag_127\n      swap1\n        /* \"evic/EVIC.sol\":1552:1584  balances[msg.sender].add(amount) */\n      swap2\n      swap1\n      0xffffffff\n      and\n      jump\t// in\n    tag_126:\n        /* \"evic/EVIC.sol\":1529:1537  balances */\n      0x07\n        /* \"evic/EVIC.sol\":1529:1549  balances[msg.sender] */\n      0x00\n        /* \"evic/EVIC.sol\":1538:1548  msg.sender */\n      caller\n        /* \"evic/EVIC.sol\":1529:1549  balances[msg.sender] */\n      0xffffffffffffffffffffffffffffffffffffffff\n      and\n      0xffffffffffffffffffffffffffffffffffffffff\n      and\n      dup2\n      mstore\n      0x20\n      add\n      swap1\n      dup2\n      mstore\n      0x20\n      add\n      0x00\n      keccak256\n        /* \"evic/EVIC.sol\":1529:1584  balances[msg.sender] = balances[msg.sender].add(amount) */\n      dup2\n      swap1\n      sstore\n      pop\n        /* \"evic/EVIC.sol\":1624:1647  totalSupply.add(amount) */\n      tag_128\n        /* \"evic/EVIC.sol\":1640:1646  amount */\n      dup2\n        /* \"evic/EVIC.sol\":1624:1635  totalSupply */\n      sload(0x04)\n        /* \"evic/EVIC.sol\":1624:1639  totalSupply.add */\n      tag_127\n      swap1\n        /* \"evic/EVIC.sol\":1624:1647  totalSupply.add(amount) */\n      swap2\n      swap1\n      0xffffffff\n      and\n      jump\t// in\n    tag_128:\n        /* \"evic/EVIC.sol\":1610:1621  totalSupply */\n      0x04\n        /* \"evic/EVIC.sol\":1610:1647  totalSupply = totalSupply.add(amount) */\n      dup2\n      swap1\n      sstore\n      pop\n        /* \"evic/EVIC.sol\":1699:1709  msg.sender */\n      caller\n        /* \"evic/EVIC.sol\":1678:1718  Transfer(address(0), msg.sender, amount) */\n      0xffffffffffffffffffffffffffffffffffffffff\n      and\n        /* \"evic/EVIC.sol\":1695:1696  0 */\n      0x00\n        /* \"evic/EVIC.sol\":1678:1718  Transfer(address(0), msg.sender, amount) */\n      0xffffffffffffffffffffffffffffffffffffffff\n      and\n      0xddf252ad1be2c89b69c2b068fc378daa952ba7f163c4a11628f55a4df523b3ef\n        /* \"evic/EVIC.sol\":1711:1717  amount */\n      dup4\n        /* \"evic/EVIC.sol\":1678:1718  Transfer(address(0), msg.sender, amount) */\n      mload(0x40)\n      tag_129\n      swap2\n      swap1\n      tag_35\n      jump\t// in\n    tag_129:\n      mload(0x40)\n      dup1\n      swap2\n      sub\n      swap1\n      log3\n        /* \"evic/EVIC.sol\":1741:1751  msg.sender */\n      caller\n        /* \"evic/EVIC.sol\":1733:1772  BuyEvic(msg.sender, usdtAmount, amount) */\n      0xffffffffffffffffffffffffffffffffffffffff\n      and\n      0xe290c002cbac2415677ae4cc3941e55c4d4c03145539bc16eb9516662c806b51\n        /* \"evic/EVIC.sol\":1753:1763  usdtAmount */\n      dup4\n        /* \"evic/EVIC.sol\":1765:1771  amount */\n      dup4\n        /* \"evic/EVIC.sol\":1733:1772  BuyEvic(msg.sender, usdtAmount, amount) */\n      mload(0x40)\n      tag_130\n      swap3\n      swap2\n      swap1\n      tag_131\n      jump\t// in\n    tag_130:\n      mload(0x40)\n      dup1\n      swap2\n      sub\n      swap1\n      log2\n        /* \"evic/EVIC.sol\":1206:1779  function buyEvic(uint256 usdtAmount) external {... */\n      pop\n      pop\n      jump\t// out\n        /* \"evic/EVIC.sol\":414:443  string public symbol = \"EVIC\" */\n    tag_71:\n      0x02\n      dup1\n      sload\n      tag_132\n      swap1\n      tag_88\n      jump\t// in\n    tag_132:\n      dup1\n      0x1f\n      add\n      0x20\n      dup1\n      swap2\n      div\n      mul\n      0x20\n      add\n      mload(0x40)\n      swap1\n      dup2\n      add\n      0x40\n      mstore\n      dup1\n      swap3\n      swap2\n      swap1\n      dup2\n      dup2\n      mstore\n      0x20\n      add\n      dup3\n      dup1\n      sload\n      tag_133\n      swap1\n      tag_88\n      jump\t// in\n    tag_133:\n      dup1\n      iszero\n      tag_134\n      jumpi\n      dup1\n      0x1f\n      lt\n      tag_135\n      jumpi\n      0x0100\n      dup1\n      dup4\n      sload\n      div\n      mul\n      dup4\n      mstore\n      swap2\n      0x20\n      add\n      swap2\n      jump(tag_134)\n    tag_135:\n      dup3\n      add\n      swap2\n      swap1\n      0x00\n      mstore\n      keccak256(0x00, 0x20)\n      swap1\n    tag_136:\n      dup2\n      sload\n      dup2\n      mstore\n      swap1\n      0x01\n      add\n      swap1\n      0x20\n      add\n      dup1\n      dup4\n      gt\n      tag_136\n      jumpi\n      dup3\n      swap1\n      sub\n      0x1f\n      and\n      dup3\n      add\n      swap2\n    tag_134:\n      pop\n      pop\n      pop\n      pop\n      pop\n      dup2\n      jump\t// out\n        /* \"evic/EVIC.sol\":1785:2286  function withDrawEvic(uint256 amount) external {... */\n    tag_75:\n        /* \"evic/EVIC.sol\":1874:1880  amount */\n      dup1\n        /* \"evic/EVIC.sol\":1850:1858  balances */\n      0x07\n        /* \"evic/EVIC.sol\":1850:1870  balances[msg.sender] */\n      0x00\n        /* \"evic/EVIC.sol\":1859:1869  msg.sender */\n      caller\n        /* \"evic/EVIC.sol\":1850:1870  balances[msg.sender] */\n      0xffffffffffffffffffffffffffffffffffffffff\n      and\n      0xffffffffffffffffffffffffffffffffffffffff\n      and\n      dup2\n      mstore\n      0x20\n      add\n      swap1\n      dup2\n      mstore\n      0x20\n      add\n      0x00\n      keccak256\n      sload\n        /* \"evic/EVIC.sol\":1850:1880  balances[msg.sender] >= amount */\n      lt\n      iszero\n        /* \"evic/EVIC.sol\":1842:1905  require(balances[msg.sender] >= amount, \"Insufficient balance\") */\n      tag_138\n      jumpi\n      mload(0x40)\n      0x08c379a000000000000000000000000000000000000000000000000000000000\n      dup2\n      mstore\n      0x04\n      add\n      tag_139\n      swap1\n      tag_140\n      jump\t// in\n    tag_139:\n      mload(0x40)\n      dup1\n      swap2\n      sub\n      swap1\n      revert\n    tag_138:\n        /* \"evic/EVIC.sol\":1938:1970  balances[msg.sender].sub(amount) */\n      tag_141\n        /* \"evic/EVIC.sol\":1963:1969  amount */\n      dup2\n        /* \"evic/EVIC.sol\":1938:1946  balances */\n      0x07\n        /* \"evic/EVIC.sol\":1938:1958  balances[msg.sender] */\n      0x00\n        /* \"evic/EVIC.sol\":1947:1957  msg.sender */\n      caller\n        /* \"evic/EVIC.sol\":1938:1958  balances[msg.sender] */\n      0xffffffffffffffffffffffffffffffffffffffff\n      and\n      0xffffffffffffffffffffffffffffffffffffffff\n      and\n      dup2\n      mstore\n      0x20\n      add\n      swap1\n      dup2\n      mstore\n      0x20\n      add\n      0x00\n      keccak256\n      sload\n        /* \"evic/EVIC.sol\":1938:1962  balances[msg.sender].sub */\n      tag_100\n      swap1\n        /* \"evic/EVIC.sol\":1938:1970  balances[msg.sender].sub(amount) */\n      swap2\n      swap1\n      0xffffffff\n      and\n      jump\t// in\n    tag_141:\n        /* \"evic/EVIC.sol\":1915:1923  balances */\n      0x07\n        /* \"evic/EVIC.sol\":1915:1935  balances[msg.sender] */\n      0x00\n        /* \"evic/EVIC.sol\":1924:1934  msg.sender */\n      caller\n        /* \"evic/EVIC.sol\":1915:1935  balances[msg.sender] */\n      0xffffffffffffffffffffffffffffffffffffffff\n      and\n      0xffffffffffffffffffffffffffffffffffffffff\n      and\n      dup2\n      mstore\n      0x20\n      add\n      swap1\n      dup2\n      mstore\n      0x20\n      add\n      0x00\n      keccak256\n        /* \"evic/EVIC.sol\":1915:1970  balances[msg.sender] = balances[msg.sender].sub(amount) */\n      dup2\n      swap1\n      sstore\n      pop\n        /* \"evic/EVIC.sol\":1994:2017  totalSupply.sub(amount) */\n      tag_142\n        /* \"evic/EVIC.sol\":2010:2016  amount */\n      dup2\n        /* \"evic/EVIC.sol\":1994:2005  totalSupply */\n      sload(0x04)\n        /* \"evic/EVIC.sol\":1994:2009  totalSupply.sub */\n      tag_100\n      swap1\n        /* \"evic/EVIC.sol\":1994:2017  totalSupply.sub(amount) */\n      swap2\n      swap1\n      0xffffffff\n      and\n      jump\t// in\n    tag_142:\n        /* \"evic/EVIC.sol\":1980:1991  totalSupply */\n      0x04\n        /* \"evic/EVIC.sol\":1980:2017  totalSupply = totalSupply.sub(amount) */\n      dup2\n      swap1\n      sstore\n      pop\n        /* \"evic/EVIC.sol\":2027:2045  uint256 usdtAmount */\n      0x00\n        /* \"evic/EVIC.sol\":2048:2069  amount.div(evicPrice) */\n      tag_143\n        /* \"evic/EVIC.sol\":2059:2068  evicPrice */\n      sload(0x05)\n        /* \"evic/EVIC.sol\":2048:2054  amount */\n      dup4\n        /* \"evic/EVIC.sol\":2048:2058  amount.div */\n      tag_144\n      swap1\n        /* \"evic/EVIC.sol\":2048:2069  amount.div(evicPrice) */\n      swap2\n      swap1\n      0xffffffff\n      and\n      jump\t// in\n    tag_143:\n        /* \"evic/EVIC.sol\":2027:2069  uint256 usdtAmount = amount.div(evicPrice) */\n      swap1\n      pop\n        /* \"evic/EVIC.sol\":2103:2107  usdt */\n      0x00\n      dup1\n      sload\n      swap1\n      0x0100\n      exp\n      swap1\n      div\n      0xffffffffffffffffffffffffffffffffffffffff\n      and\n        /* \"evic/EVIC.sol\":2103:2116  usdt.transfer */\n      0xffffffffffffffffffffffffffffffffffffffff\n      and\n      0xa9059cbb\n        /* \"evic/EVIC.sol\":2117:2127  msg.sender */\n      caller\n        /* \"evic/EVIC.sol\":2129:2139  usdtAmount */\n      dup4\n        /* \"evic/EVIC.sol\":2103:2140  usdt.transfer(msg.sender, usdtAmount) */\n      mload(0x40)\n      dup4\n      0xffffffff\n      and\n      0xe0\n      shl\n      dup2\n      mstore\n      0x04\n      add\n      tag_145\n      swap3\n      swap2\n      swap1\n      tag_146\n      jump\t// in\n    tag_145:\n      0x20\n      mload(0x40)\n      dup1\n      dup4\n      sub\n      dup2\n      0x00\n      dup8\n      dup1\n      extcodesize\n      iszero\n      dup1\n      iszero\n      tag_147\n      jumpi\n      0x00\n      dup1\n      revert\n    tag_147:\n      pop\n      gas\n      call\n      iszero\n      dup1\n      iszero\n      tag_149\n      jumpi\n      returndatasize\n      0x00\n      dup1\n      returndatacopy\n      revert(0x00, returndatasize)\n    tag_149:\n      pop\n      pop\n      pop\n      pop\n      mload(0x40)\n      returndatasize\n      not(0x1f)\n      0x1f\n      dup3\n      add\n      and\n      dup3\n      add\n      dup1\n      0x40\n      mstore\n      pop\n      dup2\n      add\n      swap1\n      tag_150\n      swap2\n      swap1\n      tag_122\n      jump\t// in\n    tag_150:\n        /* \"evic/EVIC.sol\":2095:2165  require(usdt.transfer(msg.sender, usdtAmount), \"USDT transfer failed\") */\n      tag_151\n      jumpi\n      mload(0x40)\n      0x08c379a000000000000000000000000000000000000000000000000000000000\n      dup2\n      mstore\n      0x04\n      add\n      tag_152\n      swap1\n      tag_125\n      jump\t// in\n    tag_152:\n      mload(0x40)\n      dup1\n      swap2\n      sub\n      swap1\n      revert\n    tag_151:\n        /* \"evic/EVIC.sol\":2209:2210  0 */\n      0x00\n        /* \"evic/EVIC.sol\":2180:2220  Transfer(msg.sender, address(0), amount) */\n      0xffffffffffffffffffffffffffffffffffffffff\n      and\n        /* \"evic/EVIC.sol\":2189:2199  msg.sender */\n      caller\n        /* \"evic/EVIC.sol\":2180:2220  Transfer(msg.sender, address(0), amount) */\n      0xffffffffffffffffffffffffffffffffffffffff\n      and\n      0xddf252ad1be2c89b69c2b068fc378daa952ba7f163c4a11628f55a4df523b3ef\n        /* \"evic/EVIC.sol\":2213:2219  amount */\n      dup5\n        /* \"evic/EVIC.sol\":2180:2220  Transfer(msg.sender, address(0), amount) */\n      mload(0x40)\n      tag_153\n      swap2\n      swap1\n      tag_35\n      jump\t// in\n    tag_153:\n      mload(0x40)\n      dup1\n      swap2\n      sub\n      swap1\n      log3\n        /* \"evic/EVIC.sol\":2248:2258  msg.sender */\n      caller\n        /* \"evic/EVIC.sol\":2235:2279  WithDrawEvic(msg.sender, amount, usdtAmount) */\n      0xffffffffffffffffffffffffffffffffffffffff\n      and\n      0x9b9a581d969359be3d456613e9e95901b643c75b7b9f369f45494e7151deb03f\n        /* \"evic/EVIC.sol\":2260:2266  amount */\n      dup4\n        /* \"evic/EVIC.sol\":2268:2278  usdtAmount */\n      dup4\n        /* \"evic/EVIC.sol\":2235:2279  WithDrawEvic(msg.sender, amount, usdtAmount) */\n      mload(0x40)\n      tag_154\n      swap3\n      swap2\n      swap1\n      tag_131\n      jump\t// in\n    tag_154:\n      mload(0x40)\n      dup1\n      swap2\n      sub\n      swap1\n      log2\n        /* \"evic/EVIC.sol\":1785:2286  function withDrawEvic(uint256 amount) external {... */\n      pop\n      pop\n      jump\t// out\n        /* \"evic/EVIC.sol\":2510:2673  function transfer(address recipient, uint256 amount) external virtual returns (bool) {... */\n    tag_78:\n        /* \"evic/EVIC.sol\":2589:2593  bool */\n      0x00\n        /* \"evic/EVIC.sol\":2605:2645  _transfer(msg.sender, recipient, amount) */\n      tag_156\n        /* \"evic/EVIC.sol\":2615:2625  msg.sender */\n      caller\n        /* \"evic/EVIC.sol\":2627:2636  recipient */\n      dup5\n        /* \"evic/EVIC.sol\":2638:2644  amount */\n      dup5\n        /* \"evic/EVIC.sol\":2605:2614  _transfer */\n      tag_102\n        /* \"evic/EVIC.sol\":2605:2645  _transfer(msg.sender, recipient, amount) */\n      jump\t// in\n    tag_156:\n        /* \"evic/EVIC.sol\":2662:2666  true */\n      0x01\n        /* \"evic/EVIC.sol\":2655:2666  return true */\n      swap1\n      pop\n        /* \"evic/EVIC.sol\":2510:2673  function transfer(address recipient, uint256 amount) external virtual returns (bool) {... */\n      swap3\n      swap2\n      pop\n      pop\n      jump\t// out\n        /* \"evic/EVIC.sol\":3706:3847  function allowance(address owner, address spender) external view virtual returns (uint256) {... */\n    tag_82:\n        /* \"evic/EVIC.sol\":3788:3795  uint256 */\n      0x00\n        /* \"evic/EVIC.sol\":3814:3824  allowances */\n      0x08\n        /* \"evic/EVIC.sol\":3814:3831  allowances[owner] */\n      0x00\n        /* \"evic/EVIC.sol\":3825:3830  owner */\n      dup5\n        /* \"evic/EVIC.sol\":3814:3831  allowances[owner] */\n      0xffffffffffffffffffffffffffffffffffffffff\n      and\n      0xffffffffffffffffffffffffffffffffffffffff\n      and\n      dup2\n      mstore\n      0x20\n      add\n      swap1\n      dup2\n      mstore\n      0x20\n      add\n      0x00\n      keccak256\n        /* \"evic/EVIC.sol\":3814:3840  allowances[owner][spender] */\n      0x00\n        /* \"evic/EVIC.sol\":3832:3839  spender */\n      dup4\n        /* \"evic/EVIC.sol\":3814:3840  allowances[owner][spender] */\n      0xffffffffffffffffffffffffffffffffffffffff\n      and\n      0xffffffffffffffffffffffffffffffffffffffff\n      and\n      dup2\n      mstore\n      0x20\n      add\n      swap1\n      dup2\n      mstore\n      0x20\n      add\n      0x00\n      keccak256\n      sload\n        /* \"evic/EVIC.sol\":3807:3840  return allowances[owner][spender] */\n      swap1\n      pop\n        /* \"evic/EVIC.sol\":3706:3847  function allowance(address owner, address spender) external view virtual returns (uint256) {... */\n      swap3\n      swap2\n      pop\n      pop\n      jump\t// out\n        /* \"evic/EVIC.sol\":515:539  uint256 public evicPrice */\n    tag_85:\n      sload(0x05)\n      dup2\n      jump\t// out\n        /* \"@openzeppelin/contracts/utils/math/SafeMath.sol\":3122:3218  function sub(uint256 a, uint256 b) internal pure returns (uint256) {... */\n    tag_100:\n        /* \"@openzeppelin/contracts/utils/math/SafeMath.sol\":3180:3187  uint256 */\n      0x00\n        /* \"@openzeppelin/contracts/utils/math/SafeMath.sol\":3210:3211  b */\n      dup2\n        /* \"@openzeppelin/contracts/utils/math/SafeMath.sol\":3206:3207  a */\n      dup4\n        /* \"@openzeppelin/contracts/utils/math/SafeMath.sol\":3206:3211  a - b */\n      tag_159\n      swap2\n      swap1\n      tag_160\n      jump\t// in\n    tag_159:\n        /* \"@openzeppelin/contracts/utils/math/SafeMath.sol\":3199:3211  return a - b */\n      swap1\n      pop\n        /* \"@openzeppelin/contracts/utils/math/SafeMath.sol\":3122:3218  function sub(uint256 a, uint256 b) internal pure returns (uint256) {... */\n      swap3\n      swap2\n      pop\n      pop\n      jump\t// out\n        /* \"evic/EVIC.sol\":3034:3578  function _transfer(address sender, address recipient, uint256 amount) internal virtual {... */\n    tag_102:\n        /* \"evic/EVIC.sol\":3157:3158  0 */\n      0x00\n        /* \"evic/EVIC.sol\":3139:3159  sender != address(0) */\n      0xffffffffffffffffffffffffffffffffffffffff\n      and\n        /* \"evic/EVIC.sol\":3139:3145  sender */\n      dup4\n        /* \"evic/EVIC.sol\":3139:3159  sender != address(0) */\n      0xffffffffffffffffffffffffffffffffffffffff\n      and\n      eq\n      iszero\n        /* \"evic/EVIC.sol\":3131:3190  require(sender != address(0), \"Transfer from zero address\") */\n      tag_162\n      jumpi\n      mload(0x40)\n      0x08c379a000000000000000000000000000000000000000000000000000000000\n      dup2\n      mstore\n      0x04\n      add\n      tag_163\n      swap1\n      tag_164\n      jump\t// in\n    tag_163:\n      mload(0x40)\n      dup1\n      swap2\n      sub\n      swap1\n      revert\n    tag_162:\n        /* \"evic/EVIC.sol\":3229:3230  0 */\n      0x00\n        /* \"evic/EVIC.sol\":3208:3231  recipient != address(0) */\n      0xffffffffffffffffffffffffffffffffffffffff\n      and\n        /* \"evic/EVIC.sol\":3208:3217  recipient */\n      dup3\n        /* \"evic/EVIC.sol\":3208:3231  recipient != address(0) */\n      0xffffffffffffffffffffffffffffffffffffffff\n      and\n      eq\n      iszero\n        /* \"evic/EVIC.sol\":3200:3260  require(recipient != address(0), \"Transfer to zero address\") */\n      tag_165\n      jumpi\n      mload(0x40)\n      0x08c379a000000000000000000000000000000000000000000000000000000000\n      dup2\n      mstore\n      0x04\n      add\n      tag_166\n      swap1\n      tag_167\n      jump\t// in\n    tag_166:\n      mload(0x40)\n      dup1\n      swap2\n      sub\n      swap1\n      revert\n    tag_165:\n        /* \"evic/EVIC.sol\":3270:3291  uint256 senderBalance */\n      0x00\n        /* \"evic/EVIC.sol\":3294:3302  balances */\n      0x07\n        /* \"evic/EVIC.sol\":3294:3310  balances[sender] */\n      0x00\n        /* \"evic/EVIC.sol\":3303:3309  sender */\n      dup6\n        /* \"evic/EVIC.sol\":3294:3310  balances[sender] */\n      0xffffffffffffffffffffffffffffffffffffffff\n      and\n      0xffffffffffffffffffffffffffffffffffffffff\n      and\n      dup2\n      mstore\n      0x20\n      add\n      swap1\n      dup2\n      mstore\n      0x20\n      add\n      0x00\n      keccak256\n      sload\n        /* \"evic/EVIC.sol\":3270:3310  uint256 senderBalance = balances[sender] */\n      swap1\n      pop\n        /* \"evic/EVIC.sol\":3345:3351  amount */\n      dup2\n        /* \"evic/EVIC.sol\":3328:3341  senderBalance */\n      dup2\n        /* \"evic/EVIC.sol\":3328:3351  senderBalance >= amount */\n      lt\n      iszero\n        /* \"evic/EVIC.sol\":3320:3376  require(senderBalance >= amount, \"Insufficient balance\") */\n      tag_168\n      jumpi\n      mload(0x40)\n      0x08c379a000000000000000000000000000000000000000000000000000000000\n      dup2\n      mstore\n      0x04\n      add\n      tag_169\n      swap1\n      tag_140\n      jump\t// in\n    tag_169:\n      mload(0x40)\n      dup1\n      swap2\n      sub\n      swap1\n      revert\n    tag_168:\n        /* \"evic/EVIC.sol\":3405:3430  senderBalance.sub(amount) */\n      tag_170\n        /* \"evic/EVIC.sol\":3423:3429  amount */\n      dup3\n        /* \"evic/EVIC.sol\":3405:3418  senderBalance */\n      dup3\n        /* \"evic/EVIC.sol\":3405:3422  senderBalance.sub */\n      tag_100\n      swap1\n        /* \"evic/EVIC.sol\":3405:3430  senderBalance.sub(amount) */\n      swap2\n      swap1\n      0xffffffff\n      and\n      jump\t// in\n    tag_170:\n        /* \"evic/EVIC.sol\":3386:3394  balances */\n      0x07\n        /* \"evic/EVIC.sol\":3386:3402  balances[sender] */\n      0x00\n        /* \"evic/EVIC.sol\":3395:3401  sender */\n      dup7\n        /* \"evic/EVIC.sol\":3386:3402  balances[sender] */\n      0xffffffffffffffffffffffffffffffffffffffff\n      and\n      0xffffffffffffffffffffffffffffffffffffffff\n      and\n      dup2\n      mstore\n      0x20\n      add\n      swap1\n      dup2\n      mstore\n      0x20\n      add\n      0x00\n      keccak256\n        /* \"evic/EVIC.sol\":3386:3430  balances[sender] = senderBalance.sub(amount) */\n      dup2\n      swap1\n      sstore\n      pop\n        /* \"evic/EVIC.sol\":3463:3494  balances[recipient].add(amount) */\n      tag_171\n        /* \"evic/EVIC.sol\":3487:3493  amount */\n      dup3\n        /* \"evic/EVIC.sol\":3463:3471  balances */\n      0x07\n        /* \"evic/EVIC.sol\":3463:3482  balances[recipient] */\n      0x00\n        /* \"evic/EVIC.sol\":3472:3481  recipient */\n      dup7\n        /* \"evic/EVIC.sol\":3463:3482  balances[recipient] */\n      0xffffffffffffffffffffffffffffffffffffffff\n      and\n      0xffffffffffffffffffffffffffffffffffffffff\n      and\n      dup2\n      mstore\n      0x20\n      add\n      swap1\n      dup2\n      mstore\n      0x20\n      add\n      0x00\n      keccak256\n      sload\n        /* \"evic/EVIC.sol\":3463:3486  balances[recipient].add */\n      tag_127\n      swap1\n        /* \"evic/EVIC.sol\":3463:3494  balances[recipient].add(amount) */\n      swap2\n      swap1\n      0xffffffff\n      and\n      jump\t// in\n    tag_171:\n        /* \"evic/EVIC.sol\":3441:3449  balances */\n      0x07\n        /* \"evic/EVIC.sol\":3441:3460  balances[recipient] */\n      0x00\n        /* \"evic/EVIC.sol\":3450:3459  recipient */\n      dup6\n        /* \"evic/EVIC.sol\":3441:3460  balances[recipient] */\n      0xffffffffffffffffffffffffffffffffffffffff\n      and\n      0xffffffffffffffffffffffffffffffffffffffff\n      and\n      dup2\n      mstore\n      0x20\n      add\n      swap1\n      dup2\n      mstore\n      0x20\n      add\n      0x00\n      keccak256\n        /* \"evic/EVIC.sol\":3441:3494  balances[recipient] = balances[recipient].add(amount) */\n      dup2\n      swap1\n      sstore\n      pop\n        /* \"evic/EVIC.sol\":3552:3561  recipient */\n      dup3\n        /* \"evic/EVIC.sol\":3535:3570  Transfer(sender, recipient, amount) */\n      0xffffffffffffffffffffffffffffffffffffffff\n      and\n        /* \"evic/EVIC.sol\":3544:3550  sender */\n      dup5\n        /* \"evic/EVIC.sol\":3535:3570  Transfer(sender, recipient, amount) */\n      0xffffffffffffffffffffffffffffffffffffffff\n      and\n      0xddf252ad1be2c89b69c2b068fc378daa952ba7f163c4a11628f55a4df523b3ef\n        /* \"evic/EVIC.sol\":3563:3569  amount */\n      dup5\n        /* \"evic/EVIC.sol\":3535:3570  Transfer(sender, recipient, amount) */\n      mload(0x40)\n      tag_172\n      swap2\n      swap1\n      tag_35\n      jump\t// in\n    tag_172:\n      mload(0x40)\n      dup1\n      swap2\n      sub\n      swap1\n      log3\n        /* \"evic/EVIC.sol\":3034:3578  function _transfer(address sender, address recipient, uint256 amount) internal virtual {... */\n      pop\n      pop\n      pop\n      pop\n      jump\t// out\n        /* \"@openzeppelin/contracts/utils/math/SafeMath.sol\":3465:3561  function mul(uint256 a, uint256 b) internal pure returns (uint256) {... */\n    tag_106:\n        /* \"@openzeppelin/contracts/utils/math/SafeMath.sol\":3523:3530  uint256 */\n      0x00\n        /* \"@openzeppelin/contracts/utils/math/SafeMath.sol\":3553:3554  b */\n      dup2\n        /* \"@openzeppelin/contracts/utils/math/SafeMath.sol\":3549:3550  a */\n      dup4\n        /* \"@openzeppelin/contracts/utils/math/SafeMath.sol\":3549:3554  a * b */\n      tag_174\n      swap2\n      swap1\n      tag_175\n      jump\t// in\n    tag_174:\n        /* \"@openzeppelin/contracts/utils/math/SafeMath.sol\":3542:3554  return a * b */\n      swap1\n      pop\n        /* \"@openzeppelin/contracts/utils/math/SafeMath.sol\":3465:3561  function mul(uint256 a, uint256 b) internal pure returns (uint256) {... */\n      swap3\n      swap2\n      pop\n      pop\n      jump\t// out\n        /* \"@openzeppelin/contracts/utils/math/SafeMath.sol\":2755:2851  function add(uint256 a, uint256 b) internal pure returns (uint256) {... */\n    tag_127:\n        /* \"@openzeppelin/contracts/utils/math/SafeMath.sol\":2813:2820  uint256 */\n      0x00\n        /* \"@openzeppelin/contracts/utils/math/SafeMath.sol\":2843:2844  b */\n      dup2\n        /* \"@openzeppelin/contracts/utils/math/SafeMath.sol\":2839:2840  a */\n      dup4\n        /* \"@openzeppelin/contracts/utils/math/SafeMath.sol\":2839:2844  a + b */\n      tag_177\n      swap2\n      swap1\n      tag_178\n      jump\t// in\n    tag_177:\n        /* \"@openzeppelin/contracts/utils/math/SafeMath.sol\":2832:2844  return a + b */\n      swap1\n      pop\n        /* \"@openzeppelin/contracts/utils/math/SafeMath.sol\":2755:2851  function add(uint256 a, uint256 b) internal pure returns (uint256) {... */\n      swap3\n      swap2\n      pop\n      pop\n      jump\t// out\n        /* \"@openzeppelin/contracts/utils/math/SafeMath.sol\":3850:3946  function div(uint256 a, uint256 b) internal pure returns (uint256) {... */\n    tag_144:\n        /* \"@openzeppelin/contracts/utils/math/SafeMath.sol\":3908:3915  uint256 */\n      0x00\n        /* \"@openzeppelin/contracts/utils/math/SafeMath.sol\":3938:3939  b */\n      dup2\n        /* \"@openzeppelin/contracts/utils/math/SafeMath.sol\":3934:3935  a */\n      dup4\n        /* \"@openzeppelin/contracts/utils/math/SafeMath.sol\":3934:3939  a / b */\n      tag_180\n      swap2\n      swap1\n      tag_181\n      jump\t// in\n    tag_180:\n        /* \"@openzeppelin/contracts/utils/math/SafeMath.sol\":3927:3939  return a / b */\n      swap1\n      pop\n        /* \"@openzeppelin/contracts/utils/math/SafeMath.sol\":3850:3946  function div(uint256 a, uint256 b) internal pure returns (uint256) {... */\n      swap3\n      swap2\n      pop\n      pop\n      jump\t// out\n        /* \"#utility.yul\":7:146   */\n    tag_183:\n        /* \"#utility.yul\":53:58   */\n      0x00\n        /* \"#utility.yul\":91:97   */\n      dup2\n        /* \"#utility.yul\":78:98   */\n      calldataload\n        /* \"#utility.yul\":69:98   */\n      swap1\n      pop\n        /* \"#utility.yul\":107:140   */\n      tag_185\n        /* \"#utility.yul\":134:139   */\n      dup2\n        /* \"#utility.yul\":107:140   */\n      tag_186\n      jump\t// in\n    tag_185:\n        /* \"#utility.yul\":59:146   */\n      swap3\n      swap2\n      pop\n      pop\n      jump\t// out\n        /* \"#utility.yul\":152:289   */\n    tag_187:\n        /* \"#utility.yul\":206:211   */\n      0x00\n        /* \"#utility.yul\":237:243   */\n      dup2\n        /* \"#utility.yul\":231:244   */\n      mload\n        /* \"#utility.yul\":222:244   */\n      swap1\n      pop\n        /* \"#utility.yul\":253:283   */\n      tag_189\n        /* \"#utility.yul\":277:282   */\n      dup2\n        /* \"#utility.yul\":253:283   */\n      tag_190\n      jump\t// in\n    tag_189:\n        /* \"#utility.yul\":212:289   */\n      swap3\n      swap2\n      pop\n      pop\n      jump\t// out\n        /* \"#utility.yul\":295:434   */\n    tag_191:\n        /* \"#utility.yul\":341:346   */\n      0x00\n        /* \"#utility.yul\":379:385   */\n      dup2\n        /* \"#utility.yul\":366:386   */\n      calldataload\n        /* \"#utility.yul\":357:386   */\n      swap1\n      pop\n        /* \"#utility.yul\":395:428   */\n      tag_193\n        /* \"#utility.yul\":422:427   */\n      dup2\n        /* \"#utility.yul\":395:428   */\n      tag_194\n      jump\t// in\n    tag_193:\n        /* \"#utility.yul\":347:434   */\n      swap3\n      swap2\n      pop\n      pop\n      jump\t// out\n        /* \"#utility.yul\":440:583   */\n    tag_195:\n        /* \"#utility.yul\":497:502   */\n      0x00\n        /* \"#utility.yul\":528:534   */\n      dup2\n        /* \"#utility.yul\":522:535   */\n      mload\n        /* \"#utility.yul\":513:535   */\n      swap1\n      pop\n        /* \"#utility.yul\":544:577   */\n      tag_197\n        /* \"#utility.yul\":571:576   */\n      dup2\n        /* \"#utility.yul\":544:577   */\n      tag_194\n      jump\t// in\n    tag_197:\n        /* \"#utility.yul\":503:583   */\n      swap3\n      swap2\n      pop\n      pop\n      jump\t// out\n        /* \"#utility.yul\":589:851   */\n    tag_43:\n        /* \"#utility.yul\":648:654   */\n      0x00\n        /* \"#utility.yul\":697:699   */\n      0x20\n        /* \"#utility.yul\":685:694   */\n      dup3\n        /* \"#utility.yul\":676:683   */\n      dup5\n        /* \"#utility.yul\":672:695   */\n      sub\n        /* \"#utility.yul\":668:700   */\n      slt\n        /* \"#utility.yul\":665:667   */\n      iszero\n      tag_199\n      jumpi\n        /* \"#utility.yul\":713:714   */\n      0x00\n        /* \"#utility.yul\":710:711   */\n      dup1\n        /* \"#utility.yul\":703:715   */\n      revert\n        /* \"#utility.yul\":665:667   */\n    tag_199:\n        /* \"#utility.yul\":756:757   */\n      0x00\n        /* \"#utility.yul\":781:834   */\n      tag_200\n        /* \"#utility.yul\":826:833   */\n      dup5\n        /* \"#utility.yul\":817:823   */\n      dup3\n        /* \"#utility.yul\":806:815   */\n      dup6\n        /* \"#utility.yul\":802:824   */\n      add\n        /* \"#utility.yul\":781:834   */\n      tag_183\n      jump\t// in\n    tag_200:\n        /* \"#utility.yul\":771:834   */\n      swap2\n      pop\n        /* \"#utility.yul\":727:844   */\n      pop\n        /* \"#utility.yul\":655:851   */\n      swap3\n      swap2\n      pop\n      pop\n      jump\t// out\n        /* \"#utility.yul\":857:1264   */\n    tag_55:\n        /* \"#utility.yul\":925:931   */\n      0x00\n        /* \"#utility.yul\":933:939   */\n      dup1\n        /* \"#utility.yul\":982:984   */\n      0x40\n        /* \"#utility.yul\":970:979   */\n      dup4\n        /* \"#utility.yul\":961:968   */\n      dup6\n        /* \"#utility.yul\":957:980   */\n      sub\n        /* \"#utility.yul\":953:985   */\n      slt\n        /* \"#utility.yul\":950:952   */\n      iszero\n      tag_202\n      jumpi\n        /* \"#utility.yul\":998:999   */\n      0x00\n        /* \"#utility.yul\":995:996   */\n      dup1\n        /* \"#utility.yul\":988:1000   */\n      revert\n        /* \"#utility.yul\":950:952   */\n    tag_202:\n        /* \"#utility.yul\":1041:1042   */\n      0x00\n        /* \"#utility.yul\":1066:1119   */\n      tag_203\n        /* \"#utility.yul\":1111:1118   */\n      dup6\n        /* \"#utility.yul\":1102:1108   */\n      dup3\n        /* \"#utility.yul\":1091:1100   */\n      dup7\n        /* \"#utility.yul\":1087:1109   */\n      add\n        /* \"#utility.yul\":1066:1119   */\n      tag_183\n      jump\t// in\n    tag_203:\n        /* \"#utility.yul\":1056:1119   */\n      swap3\n      pop\n        /* \"#utility.yul\":1012:1129   */\n      pop\n        /* \"#utility.yul\":1168:1170   */\n      0x20\n        /* \"#utility.yul\":1194:1247   */\n      tag_204\n        /* \"#utility.yul\":1239:1246   */\n      dup6\n        /* \"#utility.yul\":1230:1236   */\n      dup3\n        /* \"#utility.yul\":1219:1228   */\n      dup7\n        /* \"#utility.yul\":1215:1237   */\n      add\n        /* \"#utility.yul\":1194:1247   */\n      tag_183\n      jump\t// in\n    tag_204:\n        /* \"#utility.yul\":1184:1247   */\n      swap2\n      pop\n        /* \"#utility.yul\":1139:1257   */\n      pop\n        /* \"#utility.yul\":940:1264   */\n      swap3\n      pop\n      swap3\n      swap1\n      pop\n      jump\t// out\n        /* \"#utility.yul\":1270:1822   */\n    tag_38:\n        /* \"#utility.yul\":1347:1353   */\n      0x00\n        /* \"#utility.yul\":1355:1361   */\n      dup1\n        /* \"#utility.yul\":1363:1369   */\n      0x00\n        /* \"#utility.yul\":1412:1414   */\n      0x60\n        /* \"#utility.yul\":1400:1409   */\n      dup5\n        /* \"#utility.yul\":1391:1398   */\n      dup7\n        /* \"#utility.yul\":1387:1410   */\n      sub\n        /* \"#utility.yul\":1383:1415   */\n      slt\n        /* \"#utility.yul\":1380:1382   */\n      iszero\n      tag_206\n      jumpi\n        /* \"#utility.yul\":1428:1429   */\n      0x00\n        /* \"#utility.yul\":1425:1426   */\n      dup1\n        /* \"#utility.yul\":1418:1430   */\n      revert\n        /* \"#utility.yul\":1380:1382   */\n    tag_206:\n        /* \"#utility.yul\":1471:1472   */\n      0x00\n        /* \"#utility.yul\":1496:1549   */\n      tag_207\n        /* \"#utility.yul\":1541:1548   */\n      dup7\n        /* \"#utility.yul\":1532:1538   */\n      dup3\n        /* \"#utility.yul\":1521:1530   */\n      dup8\n        /* \"#utility.yul\":1517:1539   */\n      add\n        /* \"#utility.yul\":1496:1549   */\n      tag_183\n      jump\t// in\n    tag_207:\n        /* \"#utility.yul\":1486:1549   */\n      swap4\n      pop\n        /* \"#utility.yul\":1442:1559   */\n      pop\n        /* \"#utility.yul\":1598:1600   */\n      0x20\n        /* \"#utility.yul\":1624:1677   */\n      tag_208\n        /* \"#utility.yul\":1669:1676   */\n      dup7\n        /* \"#utility.yul\":1660:1666   */\n      dup3\n        /* \"#utility.yul\":1649:1658   */\n      dup8\n        /* \"#utility.yul\":1645:1667   */\n      add\n        /* \"#utility.yul\":1624:1677   */\n      tag_183\n      jump\t// in\n    tag_208:\n        /* \"#utility.yul\":1614:1677   */\n      swap3\n      pop\n        /* \"#utility.yul\":1569:1687   */\n      pop\n        /* \"#utility.yul\":1726:1728   */\n      0x40\n        /* \"#utility.yul\":1752:1805   */\n      tag_209\n        /* \"#utility.yul\":1797:1804   */\n      dup7\n        /* \"#utility.yul\":1788:1794   */\n      dup3\n        /* \"#utility.yul\":1777:1786   */\n      dup8\n        /* \"#utility.yul\":1773:1795   */\n      add\n        /* \"#utility.yul\":1752:1805   */\n      tag_191\n      jump\t// in\n    tag_209:\n        /* \"#utility.yul\":1742:1805   */\n      swap2\n      pop\n        /* \"#utility.yul\":1697:1815   */\n      pop\n        /* \"#utility.yul\":1370:1822   */\n      swap3\n      pop\n      swap3\n      pop\n      swap3\n      jump\t// out\n        /* \"#utility.yul\":1828:2235   */\n    tag_28:\n        /* \"#utility.yul\":1896:1902   */\n      0x00\n        /* \"#utility.yul\":1904:1910   */\n      dup1\n        /* \"#utility.yul\":1953:1955   */\n      0x40\n        /* \"#utility.yul\":1941:1950   */\n      dup4\n        /* \"#utility.yul\":1932:1939   */\n      dup6\n        /* \"#utility.yul\":1928:1951   */\n      sub\n        /* \"#utility.yul\":1924:1956   */\n      slt\n        /* \"#utility.yul\":1921:1923   */\n      iszero\n      tag_211\n      jumpi\n        /* \"#utility.yul\":1969:1970   */\n      0x00\n        /* \"#utility.yul\":1966:1967   */\n      dup1\n        /* \"#utility.yul\":1959:1971   */\n      revert\n        /* \"#utility.yul\":1921:1923   */\n    tag_211:\n        /* \"#utility.yul\":2012:2013   */\n      0x00\n        /* \"#utility.yul\":2037:2090   */\n      tag_212\n        /* \"#utility.yul\":2082:2089   */\n      dup6\n        /* \"#utility.yul\":2073:2079   */\n      dup3\n        /* \"#utility.yul\":2062:2071   */\n      dup7\n        /* \"#utility.yul\":2058:2080   */\n      add\n        /* \"#utility.yul\":2037:2090   */\n      tag_183\n      jump\t// in\n    tag_212:\n        /* \"#utility.yul\":2027:2090   */\n      swap3\n      pop\n        /* \"#utility.yul\":1983:2100   */\n      pop\n        /* \"#utility.yul\":2139:2141   */\n      0x20\n        /* \"#utility.yul\":2165:2218   */\n      tag_213\n        /* \"#utility.yul\":2210:2217   */\n      dup6\n        /* \"#utility.yul\":2201:2207   */\n      dup3\n        /* \"#utility.yul\":2190:2199   */\n      dup7\n        /* \"#utility.yul\":2186:2208   */\n      add\n        /* \"#utility.yul\":2165:2218   */\n      tag_191\n      jump\t// in\n    tag_213:\n        /* \"#utility.yul\":2155:2218   */\n      swap2\n      pop\n        /* \"#utility.yul\":2110:2228   */\n      pop\n        /* \"#utility.yul\":1911:2235   */\n      swap3\n      pop\n      swap3\n      swap1\n      pop\n      jump\t// out\n        /* \"#utility.yul\":2241:2519   */\n    tag_122:\n        /* \"#utility.yul\":2308:2314   */\n      0x00\n        /* \"#utility.yul\":2357:2359   */\n      0x20\n        /* \"#utility.yul\":2345:2354   */\n      dup3\n        /* \"#utility.yul\":2336:2343   */\n      dup5\n        /* \"#utility.yul\":2332:2355   */\n      sub\n        /* \"#utility.yul\":2328:2360   */\n      slt\n        /* \"#utility.yul\":2325:2327   */\n      iszero\n      tag_215\n      jumpi\n        /* \"#utility.yul\":2373:2374   */\n      0x00\n        /* \"#utility.yul\":2370:2371   */\n      dup1\n        /* \"#utility.yul\":2363:2375   */\n      revert\n        /* \"#utility.yul\":2325:2327   */\n    tag_215:\n        /* \"#utility.yul\":2416:2417   */\n      0x00\n        /* \"#utility.yul\":2441:2502   */\n      tag_216\n        /* \"#utility.yul\":2494:2501   */\n      dup5\n        /* \"#utility.yul\":2485:2491   */\n      dup3\n        /* \"#utility.yul\":2474:2483   */\n      dup6\n        /* \"#utility.yul\":2470:2492   */\n      add\n        /* \"#utility.yul\":2441:2502   */\n      tag_187\n      jump\t// in\n    tag_216:\n        /* \"#utility.yul\":2431:2502   */\n      swap2\n      pop\n        /* \"#utility.yul\":2387:2512   */\n      pop\n        /* \"#utility.yul\":2315:2519   */\n      swap3\n      swap2\n      pop\n      pop\n      jump\t// out\n        /* \"#utility.yul\":2525:2787   */\n    tag_68:\n        /* \"#utility.yul\":2584:2590   */\n      0x00\n        /* \"#utility.yul\":2633:2635   */\n      0x20\n        /* \"#utility.yul\":2621:2630   */\n      dup3\n        /* \"#utility.yul\":2612:2619   */\n      dup5\n        /* \"#utility.yul\":2608:2631   */\n      sub\n        /* \"#utility.yul\":2604:2636   */\n      slt\n        /* \"#utility.yul\":2601:2603   */\n      iszero\n      tag_218\n      jumpi\n        /* \"#utility.yul\":2649:2650   */\n      0x00\n        /* \"#utility.yul\":2646:2647   */\n      dup1\n        /* \"#utility.yul\":2639:2651   */\n      revert\n        /* \"#utility.yul\":2601:2603   */\n    tag_218:\n        /* \"#utility.yul\":2692:2693   */\n      0x00\n        /* \"#utility.yul\":2717:2770   */\n      tag_219\n        /* \"#utility.yul\":2762:2769   */\n      dup5\n        /* \"#utility.yul\":2753:2759   */\n      dup3\n        /* \"#utility.yul\":2742:2751   */\n      dup6\n        /* \"#utility.yul\":2738:2760   */\n      add\n        /* \"#utility.yul\":2717:2770   */\n      tag_191\n      jump\t// in\n    tag_219:\n        /* \"#utility.yul\":2707:2770   */\n      swap2\n      pop\n        /* \"#utility.yul\":2663:2780   */\n      pop\n        /* \"#utility.yul\":2591:2787   */\n      swap3\n      swap2\n      pop\n      pop\n      jump\t// out\n        /* \"#utility.yul\":2793:3077   */\n    tag_113:\n        /* \"#utility.yul\":2863:2869   */\n      0x00\n        /* \"#utility.yul\":2912:2914   */\n      0x20\n        /* \"#utility.yul\":2900:2909   */\n      dup3\n        /* \"#utility.yul\":2891:2898   */\n      dup5\n        /* \"#utility.yul\":2887:2910   */\n      sub\n        /* \"#utility.yul\":2883:2915   */\n      slt\n        /* \"#utility.yul\":2880:2882   */\n      iszero\n      tag_221\n      jumpi\n        /* \"#utility.yul\":2928:2929   */\n      0x00\n        /* \"#utility.yul\":2925:2926   */\n      dup1\n        /* \"#utility.yul\":2918:2930   */\n      revert\n        /* \"#utility.yul\":2880:2882   */\n    tag_221:\n        /* \"#utility.yul\":2971:2972   */\n      0x00\n        /* \"#utility.yul\":2996:3060   */\n      tag_222\n        /* \"#utility.yul\":3052:3059   */\n      dup5\n        /* \"#utility.yul\":3043:3049   */\n      dup3\n        /* \"#utility.yul\":3032:3041   */\n      dup6\n        /* \"#utility.yul\":3028:3050   */\n      add\n        /* \"#utility.yul\":2996:3060   */\n      tag_195\n      jump\t// in\n    tag_222:\n        /* \"#utility.yul\":2986:3060   */\n      swap2\n      pop\n        /* \"#utility.yul\":2942:3070   */\n      pop\n        /* \"#utility.yul\":2870:3077   */\n      swap3\n      swap2\n      pop\n      pop\n      jump\t// out\n        /* \"#utility.yul\":3083:3201   */\n    tag_223:\n        /* \"#utility.yul\":3170:3194   */\n      tag_225\n        /* \"#utility.yul\":3188:3193   */\n      dup2\n        /* \"#utility.yul\":3170:3194   */\n      tag_226\n      jump\t// in\n    tag_225:\n        /* \"#utility.yul\":3165:3168   */\n      dup3\n        /* \"#utility.yul\":3158:3195   */\n      mstore\n        /* \"#utility.yul\":3148:3201   */\n      pop\n      pop\n      jump\t// out\n        /* \"#utility.yul\":3207:3316   */\n    tag_227:\n        /* \"#utility.yul\":3288:3309   */\n      tag_229\n        /* \"#utility.yul\":3303:3308   */\n      dup2\n        /* \"#utility.yul\":3288:3309   */\n      tag_230\n      jump\t// in\n    tag_229:\n        /* \"#utility.yul\":3283:3286   */\n      dup3\n        /* \"#utility.yul\":3276:3310   */\n      mstore\n        /* \"#utility.yul\":3266:3316   */\n      pop\n      pop\n      jump\t// out\n        /* \"#utility.yul\":3322:3479   */\n    tag_231:\n        /* \"#utility.yul\":3422:3472   */\n      tag_233\n        /* \"#utility.yul\":3466:3471   */\n      dup2\n        /* \"#utility.yul\":3422:3472   */\n      tag_234\n      jump\t// in\n    tag_233:\n        /* \"#utility.yul\":3417:3420   */\n      dup3\n        /* \"#utility.yul\":3410:3473   */\n      mstore\n        /* \"#utility.yul\":3400:3479   */\n      pop\n      pop\n      jump\t// out\n        /* \"#utility.yul\":3485:3849   */\n    tag_235:\n        /* \"#utility.yul\":3573:3576   */\n      0x00\n        /* \"#utility.yul\":3601:3640   */\n      tag_237\n        /* \"#utility.yul\":3634:3639   */\n      dup3\n        /* \"#utility.yul\":3601:3640   */\n      tag_238\n      jump\t// in\n    tag_237:\n        /* \"#utility.yul\":3656:3727   */\n      tag_239\n        /* \"#utility.yul\":3720:3726   */\n      dup2\n        /* \"#utility.yul\":3715:3718   */\n      dup6\n        /* \"#utility.yul\":3656:3727   */\n      tag_240\n      jump\t// in\n    tag_239:\n        /* \"#utility.yul\":3649:3727   */\n      swap4\n      pop\n        /* \"#utility.yul\":3736:3788   */\n      tag_241\n        /* \"#utility.yul\":3781:3787   */\n      dup2\n        /* \"#utility.yul\":3776:3779   */\n      dup6\n        /* \"#utility.yul\":3769:3773   */\n      0x20\n        /* \"#utility.yul\":3762:3767   */\n      dup7\n        /* \"#utility.yul\":3758:3774   */\n      add\n        /* \"#utility.yul\":3736:3788   */\n      tag_242\n      jump\t// in\n    tag_241:\n        /* \"#utility.yul\":3813:3842   */\n      tag_243\n        /* \"#utility.yul\":3835:3841   */\n      dup2\n        /* \"#utility.yul\":3813:3842   */\n      tag_244\n      jump\t// in\n    tag_243:\n        /* \"#utility.yul\":3808:3811   */\n      dup5\n        /* \"#utility.yul\":3804:3843   */\n      add\n        /* \"#utility.yul\":3797:3843   */\n      swap2\n      pop\n        /* \"#utility.yul\":3577:3849   */\n      pop\n      swap3\n      swap2\n      pop\n      pop\n      jump\t// out\n        /* \"#utility.yul\":3855:4221   */\n    tag_245:\n        /* \"#utility.yul\":3997:4000   */\n      0x00\n        /* \"#utility.yul\":4018:4085   */\n      tag_247\n        /* \"#utility.yul\":4082:4084   */\n      0x16\n        /* \"#utility.yul\":4077:4080   */\n      dup4\n        /* \"#utility.yul\":4018:4085   */\n      tag_240\n      jump\t// in\n    tag_247:\n        /* \"#utility.yul\":4011:4085   */\n      swap2\n      pop\n        /* \"#utility.yul\":4094:4187   */\n      tag_248\n        /* \"#utility.yul\":4183:4186   */\n      dup3\n        /* \"#utility.yul\":4094:4187   */\n      tag_249\n      jump\t// in\n    tag_248:\n        /* \"#utility.yul\":4212:4214   */\n      0x20\n        /* \"#utility.yul\":4207:4210   */\n      dup3\n        /* \"#utility.yul\":4203:4215   */\n      add\n        /* \"#utility.yul\":4196:4215   */\n      swap1\n      pop\n        /* \"#utility.yul\":4001:4221   */\n      swap2\n      swap1\n      pop\n      jump\t// out\n        /* \"#utility.yul\":4227:4593   */\n    tag_250:\n        /* \"#utility.yul\":4369:4372   */\n      0x00\n        /* \"#utility.yul\":4390:4457   */\n      tag_252\n        /* \"#utility.yul\":4454:4456   */\n      0x14\n        /* \"#utility.yul\":4449:4452   */\n      dup4\n        /* \"#utility.yul\":4390:4457   */\n      tag_240\n      jump\t// in\n    tag_252:\n        /* \"#utility.yul\":4383:4457   */\n      swap2\n      pop\n        /* \"#utility.yul\":4466:4559   */\n      tag_253\n        /* \"#utility.yul\":4555:4558   */\n      dup3\n        /* \"#utility.yul\":4466:4559   */\n      tag_254\n      jump\t// in\n    tag_253:\n        /* \"#utility.yul\":4584:4586   */\n      0x20\n        /* \"#utility.yul\":4579:4582   */\n      dup3\n        /* \"#utility.yul\":4575:4587   */\n      add\n        /* \"#utility.yul\":4568:4587   */\n      swap1\n      pop\n        /* \"#utility.yul\":4373:4593   */\n      swap2\n      swap1\n      pop\n      jump\t// out\n        /* \"#utility.yul\":4599:4965   */\n    tag_255:\n        /* \"#utility.yul\":4741:4744   */\n      0x00\n        /* \"#utility.yul\":4762:4829   */\n      tag_257\n        /* \"#utility.yul\":4826:4828   */\n      0x1a\n        /* \"#utility.yul\":4821:4824   */\n      dup4\n        /* \"#utility.yul\":4762:4829   */\n      tag_240\n      jump\t// in\n    tag_257:\n        /* \"#utility.yul\":4755:4829   */\n      swap2\n      pop\n        /* \"#utility.yul\":4838:4931   */\n      tag_258\n        /* \"#utility.yul\":4927:4930   */\n      dup3\n        /* \"#utility.yul\":4838:4931   */\n      tag_259\n      jump\t// in\n    tag_258:\n        /* \"#utility.yul\":4956:4958   */\n      0x20\n        /* \"#utility.yul\":4951:4954   */\n      dup3\n        /* \"#utility.yul\":4947:4959   */\n      add\n        /* \"#utility.yul\":4940:4959   */\n      swap1\n      pop\n        /* \"#utility.yul\":4745:4965   */\n      swap2\n      swap1\n      pop\n      jump\t// out\n        /* \"#utility.yul\":4971:5337   */\n    tag_260:\n        /* \"#utility.yul\":5113:5116   */\n      0x00\n        /* \"#utility.yul\":5134:5201   */\n      tag_262\n        /* \"#utility.yul\":5198:5200   */\n      0x14\n        /* \"#utility.yul\":5193:5196   */\n      dup4\n        /* \"#utility.yul\":5134:5201   */\n      tag_240\n      jump\t// in\n    tag_262:\n        /* \"#utility.yul\":5127:5201   */\n      swap2\n      pop\n        /* \"#utility.yul\":5210:5303   */\n      tag_263\n        /* \"#utility.yul\":5299:5302   */\n      dup3\n        /* \"#utility.yul\":5210:5303   */\n      tag_264\n      jump\t// in\n    tag_263:\n        /* \"#utility.yul\":5328:5330   */\n      0x20\n        /* \"#utility.yul\":5323:5326   */\n      dup3\n        /* \"#utility.yul\":5319:5331   */\n      add\n        /* \"#utility.yul\":5312:5331   */\n      swap1\n      pop\n        /* \"#utility.yul\":5117:5337   */\n      swap2\n      swap1\n      pop\n      jump\t// out\n        /* \"#utility.yul\":5343:5709   */\n    tag_265:\n        /* \"#utility.yul\":5485:5488   */\n      0x00\n        /* \"#utility.yul\":5506:5573   */\n      tag_267\n        /* \"#utility.yul\":5570:5572   */\n      0x18\n        /* \"#utility.yul\":5565:5568   */\n      dup4\n        /* \"#utility.yul\":5506:5573   */\n      tag_240\n      jump\t// in\n    tag_267:\n        /* \"#utility.yul\":5499:5573   */\n      swap2\n      pop\n        /* \"#utility.yul\":5582:5675   */\n      tag_268\n        /* \"#utility.yul\":5671:5674   */\n      dup3\n        /* \"#utility.yul\":5582:5675   */\n      tag_269\n      jump\t// in\n    tag_268:\n        /* \"#utility.yul\":5700:5702   */\n      0x20\n        /* \"#utility.yul\":5695:5698   */\n      dup3\n        /* \"#utility.yul\":5691:5703   */\n      add\n        /* \"#utility.yul\":5684:5703   */\n      swap1\n      pop\n        /* \"#utility.yul\":5489:5709   */\n      swap2\n      swap1\n      pop\n      jump\t// out\n        /* \"#utility.yul\":5715:5833   */\n    tag_270:\n        /* \"#utility.yul\":5802:5826   */\n      tag_272\n        /* \"#utility.yul\":5820:5825   */\n      dup2\n        /* \"#utility.yul\":5802:5826   */\n      tag_273\n      jump\t// in\n    tag_272:\n        /* \"#utility.yul\":5797:5800   */\n      dup3\n        /* \"#utility.yul\":5790:5827   */\n      mstore\n        /* \"#utility.yul\":5780:5833   */\n      pop\n      pop\n      jump\t// out\n        /* \"#utility.yul\":5839:6061   */\n    tag_65:\n        /* \"#utility.yul\":5932:5936   */\n      0x00\n        /* \"#utility.yul\":5970:5972   */\n      0x20\n        /* \"#utility.yul\":5959:5968   */\n      dup3\n        /* \"#utility.yul\":5955:5973   */\n      add\n        /* \"#utility.yul\":5947:5973   */\n      swap1\n      pop\n        /* \"#utility.yul\":5983:6054   */\n      tag_275\n        /* \"#utility.yul\":6051:6052   */\n      0x00\n        /* \"#utility.yul\":6040:6049   */\n      dup4\n        /* \"#utility.yul\":6036:6053   */\n      add\n        /* \"#utility.yul\":6027:6033   */\n      dup5\n        /* \"#utility.yul\":5983:6054   */\n      tag_223\n      jump\t// in\n    tag_275:\n        /* \"#utility.yul\":5937:6061   */\n      swap3\n      swap2\n      pop\n      pop\n      jump\t// out\n        /* \"#utility.yul\":6067:6399   */\n    tag_108:\n        /* \"#utility.yul\":6188:6192   */\n      0x00\n        /* \"#utility.yul\":6226:6228   */\n      0x40\n        /* \"#utility.yul\":6215:6224   */\n      dup3\n        /* \"#utility.yul\":6211:6229   */\n      add\n        /* \"#utility.yul\":6203:6229   */\n      swap1\n      pop\n        /* \"#utility.yul\":6239:6310   */\n      tag_277\n        /* \"#utility.yul\":6307:6308   */\n      0x00\n        /* \"#utility.yul\":6296:6305   */\n      dup4\n        /* \"#utility.yul\":6292:6309   */\n      add\n        /* \"#utility.yul\":6283:6289   */\n      dup6\n        /* \"#utility.yul\":6239:6310   */\n      tag_223\n      jump\t// in\n    tag_277:\n        /* \"#utility.yul\":6320:6392   */\n      tag_278\n        /* \"#utility.yul\":6388:6390   */\n      0x20\n        /* \"#utility.yul\":6377:6386   */\n      dup4\n        /* \"#utility.yul\":6373:6391   */\n      add\n        /* \"#utility.yul\":6364:6370   */\n      dup5\n        /* \"#utility.yul\":6320:6392   */\n      tag_223\n      jump\t// in\n    tag_278:\n        /* \"#utility.yul\":6193:6399   */\n      swap4\n      swap3\n      pop\n      pop\n      pop\n      jump\t// out\n        /* \"#utility.yul\":6405:6847   */\n    tag_117:\n        /* \"#utility.yul\":6554:6558   */\n      0x00\n        /* \"#utility.yul\":6592:6594   */\n      0x60\n        /* \"#utility.yul\":6581:6590   */\n      dup3\n        /* \"#utility.yul\":6577:6595   */\n      add\n        /* \"#utility.yul\":6569:6595   */\n      swap1\n      pop\n        /* \"#utility.yul\":6605:6676   */\n      tag_280\n        /* \"#utility.yul\":6673:6674   */\n      0x00\n        /* \"#utility.yul\":6662:6671   */\n      dup4\n        /* \"#utility.yul\":6658:6675   */\n      add\n        /* \"#utility.yul\":6649:6655   */\n      dup7\n        /* \"#utility.yul\":6605:6676   */\n      tag_223\n      jump\t// in\n    tag_280:\n        /* \"#utility.yul\":6686:6758   */\n      tag_281\n        /* \"#utility.yul\":6754:6756   */\n      0x20\n        /* \"#utility.yul\":6743:6752   */\n      dup4\n        /* \"#utility.yul\":6739:6757   */\n      add\n        /* \"#utility.yul\":6730:6736   */\n      dup6\n        /* \"#utility.yul\":6686:6758   */\n      tag_223\n      jump\t// in\n    tag_281:\n        /* \"#utility.yul\":6768:6840   */\n      tag_282\n        /* \"#utility.yul\":6836:6838   */\n      0x40\n        /* \"#utility.yul\":6825:6834   */\n      dup4\n        /* \"#utility.yul\":6821:6839   */\n      add\n        /* \"#utility.yul\":6812:6818   */\n      dup5\n        /* \"#utility.yul\":6768:6840   */\n      tag_270\n      jump\t// in\n    tag_282:\n        /* \"#utility.yul\":6559:6847   */\n      swap5\n      swap4\n      pop\n      pop\n      pop\n      pop\n      jump\t// out\n        /* \"#utility.yul\":6853:7185   */\n    tag_146:\n        /* \"#utility.yul\":6974:6978   */\n      0x00\n        /* \"#utility.yul\":7012:7014   */\n      0x40\n        /* \"#utility.yul\":7001:7010   */\n      dup3\n        /* \"#utility.yul\":6997:7015   */\n      add\n        /* \"#utility.yul\":6989:7015   */\n      swap1\n      pop\n        /* \"#utility.yul\":7025:7096   */\n      tag_284\n        /* \"#utility.yul\":7093:7094   */\n      0x00\n        /* \"#utility.yul\":7082:7091   */\n      dup4\n        /* \"#utility.yul\":7078:7095   */\n      add\n        /* \"#utility.yul\":7069:7075   */\n      dup6\n        /* \"#utility.yul\":7025:7096   */\n      tag_223\n      jump\t// in\n    tag_284:\n        /* \"#utility.yul\":7106:7178   */\n      tag_285\n        /* \"#utility.yul\":7174:7176   */\n      0x20\n        /* \"#utility.yul\":7163:7172   */\n      dup4\n        /* \"#utility.yul\":7159:7177   */\n      add\n        /* \"#utility.yul\":7150:7156   */\n      dup5\n        /* \"#utility.yul\":7106:7178   */\n      tag_270\n      jump\t// in\n    tag_285:\n        /* \"#utility.yul\":6979:7185   */\n      swap4\n      swap3\n      pop\n      pop\n      pop\n      jump\t// out\n        /* \"#utility.yul\":7191:7401   */\n    tag_31:\n        /* \"#utility.yul\":7278:7282   */\n      0x00\n        /* \"#utility.yul\":7316:7318   */\n      0x20\n        /* \"#utility.yul\":7305:7314   */\n      dup3\n        /* \"#utility.yul\":7301:7319   */\n      add\n        /* \"#utility.yul\":7293:7319   */\n      swap1\n      pop\n        /* \"#utility.yul\":7329:7394   */\n      tag_287\n        /* \"#utility.yul\":7391:7392   */\n      0x00\n        /* \"#utility.yul\":7380:7389   */\n      dup4\n        /* \"#utility.yul\":7376:7393   */\n      add\n        /* \"#utility.yul\":7367:7373   */\n      dup5\n        /* \"#utility.yul\":7329:7394   */\n      tag_227\n      jump\t// in\n    tag_287:\n        /* \"#utility.yul\":7283:7401   */\n      swap3\n      swap2\n      pop\n      pop\n      jump\t// out\n        /* \"#utility.yul\":7407:7655   */\n    tag_49:\n        /* \"#utility.yul\":7513:7517   */\n      0x00\n        /* \"#utility.yul\":7551:7553   */\n      0x20\n        /* \"#utility.yul\":7540:7549   */\n      dup3\n        /* \"#utility.yul\":7536:7554   */\n      add\n        /* \"#utility.yul\":7528:7554   */\n      swap1\n      pop\n        /* \"#utility.yul\":7564:7648   */\n      tag_289\n        /* \"#utility.yul\":7645:7646   */\n      0x00\n        /* \"#utility.yul\":7634:7643   */\n      dup4\n        /* \"#utility.yul\":7630:7647   */\n      add\n        /* \"#utility.yul\":7621:7627   */\n      dup5\n        /* \"#utility.yul\":7564:7648   */\n      tag_231\n      jump\t// in\n    tag_289:\n        /* \"#utility.yul\":7518:7655   */\n      swap3\n      swap2\n      pop\n      pop\n      jump\t// out\n        /* \"#utility.yul\":7661:7974   */\n    tag_25:\n        /* \"#utility.yul\":7774:7778   */\n      0x00\n        /* \"#utility.yul\":7812:7814   */\n      0x20\n        /* \"#utility.yul\":7801:7810   */\n      dup3\n        /* \"#utility.yul\":7797:7815   */\n      add\n        /* \"#utility.yul\":7789:7815   */\n      swap1\n      pop\n        /* \"#utility.yul\":7861:7870   */\n      dup2\n        /* \"#utility.yul\":7855:7859   */\n      dup2\n        /* \"#utility.yul\":7851:7871   */\n      sub\n        /* \"#utility.yul\":7847:7848   */\n      0x00\n        /* \"#utility.yul\":7836:7845   */\n      dup4\n        /* \"#utility.yul\":7832:7849   */\n      add\n        /* \"#utility.yul\":7825:7872   */\n      mstore\n        /* \"#utility.yul\":7889:7967   */\n      tag_291\n        /* \"#utility.yul\":7962:7966   */\n      dup2\n        /* \"#utility.yul\":7953:7959   */\n      dup5\n        /* \"#utility.yul\":7889:7967   */\n      tag_235\n      jump\t// in\n    tag_291:\n        /* \"#utility.yul\":7881:7967   */\n      swap1\n      pop\n        /* \"#utility.yul\":7779:7974   */\n      swap3\n      swap2\n      pop\n      pop\n      jump\t// out\n        /* \"#utility.yul\":7980:8399   */\n    tag_98:\n        /* \"#utility.yul\":8146:8150   */\n      0x00\n        /* \"#utility.yul\":8184:8186   */\n      0x20\n        /* \"#utility.yul\":8173:8182   */\n      dup3\n        /* \"#utility.yul\":8169:8187   */\n      add\n        /* \"#utility.yul\":8161:8187   */\n      swap1\n      pop\n        /* \"#utility.yul\":8233:8242   */\n      dup2\n        /* \"#utility.yul\":8227:8231   */\n      dup2\n        /* \"#utility.yul\":8223:8243   */\n      sub\n        /* \"#utility.yul\":8219:8220   */\n      0x00\n        /* \"#utility.yul\":8208:8217   */\n      dup4\n        /* \"#utility.yul\":8204:8221   */\n      add\n        /* \"#utility.yul\":8197:8244   */\n      mstore\n        /* \"#utility.yul\":8261:8392   */\n      tag_293\n        /* \"#utility.yul\":8387:8391   */\n      dup2\n        /* \"#utility.yul\":8261:8392   */\n      tag_245\n      jump\t// in\n    tag_293:\n        /* \"#utility.yul\":8253:8392   */\n      swap1\n      pop\n        /* \"#utility.yul\":8151:8399   */\n      swap2\n      swap1\n      pop\n      jump\t// out\n        /* \"#utility.yul\":8405:8824   */\n    tag_140:\n        /* \"#utility.yul\":8571:8575   */\n      0x00\n        /* \"#utility.yul\":8609:8611   */\n      0x20\n        /* \"#utility.yul\":8598:8607   */\n      dup3\n        /* \"#utility.yul\":8594:8612   */\n      add\n        /* \"#utility.yul\":8586:8612   */\n      swap1\n      pop\n        /* \"#utility.yul\":8658:8667   */\n      dup2\n        /* \"#utility.yul\":8652:8656   */\n      dup2\n        /* \"#utility.yul\":8648:8668   */\n      sub\n        /* \"#utility.yul\":8644:8645   */\n      0x00\n        /* \"#utility.yul\":8633:8642   */\n      dup4\n        /* \"#utility.yul\":8629:8646   */\n      add\n        /* \"#utility.yul\":8622:8669   */\n      mstore\n        /* \"#utility.yul\":8686:8817   */\n      tag_295\n        /* \"#utility.yul\":8812:8816   */\n      dup2\n        /* \"#utility.yul\":8686:8817   */\n      tag_250\n      jump\t// in\n    tag_295:\n        /* \"#utility.yul\":8678:8817   */\n      swap1\n      pop\n        /* \"#utility.yul\":8576:8824   */\n      swap2\n      swap1\n      pop\n      jump\t// out\n        /* \"#utility.yul\":8830:9249   */\n    tag_164:\n        /* \"#utility.yul\":8996:9000   */\n      0x00\n        /* \"#utility.yul\":9034:9036   */\n      0x20\n        /* \"#utility.yul\":9023:9032   */\n      dup3\n        /* \"#utility.yul\":9019:9037   */\n      add\n        /* \"#utility.yul\":9011:9037   */\n      swap1\n      pop\n        /* \"#utility.yul\":9083:9092   */\n      dup2\n        /* \"#utility.yul\":9077:9081   */\n      dup2\n        /* \"#utility.yul\":9073:9093   */\n      sub\n        /* \"#utility.yul\":9069:9070   */\n      0x00\n        /* \"#utility.yul\":9058:9067   */\n      dup4\n        /* \"#utility.yul\":9054:9071   */\n      add\n        /* \"#utility.yul\":9047:9094   */\n      mstore\n        /* \"#utility.yul\":9111:9242   */\n      tag_297\n        /* \"#utility.yul\":9237:9241   */\n      dup2\n        /* \"#utility.yul\":9111:9242   */\n      tag_255\n      jump\t// in\n    tag_297:\n        /* \"#utility.yul\":9103:9242   */\n      swap1\n      pop\n        /* \"#utility.yul\":9001:9249   */\n      swap2\n      swap1\n      pop\n      jump\t// out\n        /* \"#utility.yul\":9255:9674   */\n    tag_125:\n        /* \"#utility.yul\":9421:9425   */\n      0x00\n        /* \"#utility.yul\":9459:9461   */\n      0x20\n        /* \"#utility.yul\":9448:9457   */\n      dup3\n        /* \"#utility.yul\":9444:9462   */\n      add\n        /* \"#utility.yul\":9436:9462   */\n      swap1\n      pop\n        /* \"#utility.yul\":9508:9517   */\n      dup2\n        /* \"#utility.yul\":9502:9506   */\n      dup2\n        /* \"#utility.yul\":9498:9518   */\n      sub\n        /* \"#utility.yul\":9494:9495   */\n      0x00\n        /* \"#utility.yul\":9483:9492   */\n      dup4\n        /* \"#utility.yul\":9479:9496   */\n      add\n        /* \"#utility.yul\":9472:9519   */\n      mstore\n        /* \"#utility.yul\":9536:9667   */\n      tag_299\n        /* \"#utility.yul\":9662:9666   */\n      dup2\n        /* \"#utility.yul\":9536:9667   */\n      tag_260\n      jump\t// in\n    tag_299:\n        /* \"#utility.yul\":9528:9667   */\n      swap1\n      pop\n        /* \"#utility.yul\":9426:9674   */\n      swap2\n      swap1\n      pop\n      jump\t// out\n        /* \"#utility.yul\":9680:10099   */\n    tag_167:\n        /* \"#utility.yul\":9846:9850   */\n      0x00\n        /* \"#utility.yul\":9884:9886   */\n      0x20\n        /* \"#utility.yul\":9873:9882   */\n      dup3\n        /* \"#utility.yul\":9869:9887   */\n      add\n        /* \"#utility.yul\":9861:9887   */\n      swap1\n      pop\n        /* \"#utility.yul\":9933:9942   */\n      dup2\n        /* \"#utility.yul\":9927:9931   */\n      dup2\n        /* \"#utility.yul\":9923:9943   */\n      sub\n        /* \"#utility.yul\":9919:9920   */\n      0x00\n        /* \"#utility.yul\":9908:9917   */\n      dup4\n        /* \"#utility.yul\":9904:9921   */\n      add\n        /* \"#utility.yul\":9897:9944   */\n      mstore\n        /* \"#utility.yul\":9961:10092   */\n      tag_301\n        /* \"#utility.yul\":10087:10091   */\n      dup2\n        /* \"#utility.yul\":9961:10092   */\n      tag_265\n      jump\t// in\n    tag_301:\n        /* \"#utility.yul\":9953:10092   */\n      swap1\n      pop\n        /* \"#utility.yul\":9851:10099   */\n      swap2\n      swap1\n      pop\n      jump\t// out\n        /* \"#utility.yul\":10105:10327   */\n    tag_35:\n        /* \"#utility.yul\":10198:10202   */\n      0x00\n        /* \"#utility.yul\":10236:10238   */\n      0x20\n        /* \"#utility.yul\":10225:10234   */\n      dup3\n        /* \"#utility.yul\":10221:10239   */\n      add\n        /* \"#utility.yul\":10213:10239   */\n      swap1\n      pop\n        /* \"#utility.yul\":10249:10320   */\n      tag_303\n        /* \"#utility.yul\":10317:10318   */\n      0x00\n        /* \"#utility.yul\":10306:10315   */\n      dup4\n        /* \"#utility.yul\":10302:10319   */\n      add\n        /* \"#utility.yul\":10293:10299   */\n      dup5\n        /* \"#utility.yul\":10249:10320   */\n      tag_270\n      jump\t// in\n    tag_303:\n        /* \"#utility.yul\":10203:10327   */\n      swap3\n      swap2\n      pop\n      pop\n      jump\t// out\n        /* \"#utility.yul\":10333:10665   */\n    tag_131:\n        /* \"#utility.yul\":10454:10458   */\n      0x00\n        /* \"#utility.yul\":10492:10494   */\n      0x40\n        /* \"#utility.yul\":10481:10490   */\n      dup3\n        /* \"#utility.yul\":10477:10495   */\n      add\n        /* \"#utility.yul\":10469:10495   */\n      swap1\n      pop\n        /* \"#utility.yul\":10505:10576   */\n      tag_305\n        /* \"#utility.yul\":10573:10574   */\n      0x00\n        /* \"#utility.yul\":10562:10571   */\n      dup4\n        /* \"#utility.yul\":10558:10575   */\n      add\n        /* \"#utility.yul\":10549:10555   */\n      dup6\n        /* \"#utility.yul\":10505:10576   */\n      tag_270\n      jump\t// in\n    tag_305:\n        /* \"#utility.yul\":10586:10658   */\n      tag_306\n        /* \"#utility.yul\":10654:10656   */\n      0x20\n        /* \"#utility.yul\":10643:10652   */\n      dup4\n        /* \"#utility.yul\":10639:10657   */\n      add\n        /* \"#utility.yul\":10630:10636   */\n      dup5\n        /* \"#utility.yul\":10586:10658   */\n      tag_270\n      jump\t// in\n    tag_306:\n        /* \"#utility.yul\":10459:10665   */\n      swap4\n      swap3\n      pop\n      pop\n      pop\n      jump\t// out\n        /* \"#utility.yul\":10671:10770   */\n    tag_238:\n        /* \"#utility.yul\":10723:10729   */\n      0x00\n        /* \"#utility.yul\":10757:10762   */\n      dup2\n        /* \"#utility.yul\":10751:10763   */\n      mload\n        /* \"#utility.yul\":10741:10763   */\n      swap1\n      pop\n        /* \"#utility.yul\":10730:10770   */\n      swap2\n      swap1\n      pop\n      jump\t// out\n        /* \"#utility.yul\":10776:10945   */\n    tag_240:\n        /* \"#utility.yul\":10860:10871   */\n      0x00\n        /* \"#utility.yul\":10894:10900   */\n      dup3\n        /* \"#utility.yul\":10889:10892   */\n      dup3\n        /* \"#utility.yul\":10882:10901   */\n      mstore\n        /* \"#utility.yul\":10934:10938   */\n      0x20\n        /* \"#utility.yul\":10929:10932   */\n      dup3\n        /* \"#utility.yul\":10925:10939   */\n      add\n        /* \"#utility.yul\":10910:10939   */\n      swap1\n      pop\n        /* \"#utility.yul\":10872:10945   */\n      swap3\n      swap2\n      pop\n      pop\n      jump\t// out\n        /* \"#utility.yul\":10951:11256   */\n    tag_178:\n        /* \"#utility.yul\":10991:10994   */\n      0x00\n        /* \"#utility.yul\":11010:11030   */\n      tag_310\n        /* \"#utility.yul\":11028:11029   */\n      dup3\n        /* \"#utility.yul\":11010:11030   */\n      tag_273\n      jump\t// in\n    tag_310:\n        /* \"#utility.yul\":11005:11030   */\n      swap2\n      pop\n        /* \"#utility.yul\":11044:11064   */\n      tag_311\n        /* \"#utility.yul\":11062:11063   */\n      dup4\n        /* \"#utility.yul\":11044:11064   */\n      tag_273\n      jump\t// in\n    tag_311:\n        /* \"#utility.yul\":11039:11064   */\n      swap3\n      pop\n        /* \"#utility.yul\":11198:11199   */\n      dup3\n        /* \"#utility.yul\":11130:11196   */\n      0xffffffffffffffffffffffffffffffffffffffffffffffffffffffffffffffff\n        /* \"#utility.yul\":11126:11200   */\n      sub\n        /* \"#utility.yul\":11123:11124   */\n      dup3\n        /* \"#utility.yul\":11120:11201   */\n      gt\n        /* \"#utility.yul\":11117:11119   */\n      iszero\n      tag_312\n      jumpi\n        /* \"#utility.yul\":11204:11222   */\n      tag_313\n      tag_314\n      jump\t// in\n    tag_313:\n        /* \"#utility.yul\":11117:11119   */\n    tag_312:\n        /* \"#utility.yul\":11248:11249   */\n      dup3\n        /* \"#utility.yul\":11245:11246   */\n      dup3\n        /* \"#utility.yul\":11241:11250   */\n      add\n        /* \"#utility.yul\":11234:11250   */\n      swap1\n      pop\n        /* \"#utility.yul\":10995:11256   */\n      swap3\n      swap2\n      pop\n      pop\n      jump\t// out\n        /* \"#utility.yul\":11262:11447   */\n    tag_181:\n        /* \"#utility.yul\":11302:11303   */\n      0x00\n        /* \"#utility.yul\":11319:11339   */\n      tag_316\n        /* \"#utility.yul\":11337:11338   */\n      dup3\n        /* \"#utility.yul\":11319:11339   */\n      tag_273\n      jump\t// in\n    tag_316:\n        /* \"#utility.yul\":11314:11339   */\n      swap2\n      pop\n        /* \"#utility.yul\":11353:11373   */\n      tag_317\n        /* \"#utility.yul\":11371:11372   */\n      dup4\n        /* \"#utility.yul\":11353:11373   */\n      tag_273\n      jump\t// in\n    tag_317:\n        /* \"#utility.yul\":11348:11373   */\n      swap3\n      pop\n        /* \"#utility.yul\":11392:11393   */\n      dup3\n        /* \"#utility.yul\":11382:11384   */\n      tag_318\n      jumpi\n        /* \"#utility.yul\":11397:11415   */\n      tag_319\n      tag_320\n      jump\t// in\n    tag_319:\n        /* \"#utility.yul\":11382:11384   */\n    tag_318:\n        /* \"#utility.yul\":11439:11440   */\n      dup3\n        /* \"#utility.yul\":11436:11437   */\n      dup3\n        /* \"#utility.yul\":11432:11441   */\n      div\n        /* \"#utility.yul\":11427:11441   */\n      swap1\n      pop\n        /* \"#utility.yul\":11304:11447   */\n      swap3\n      swap2\n      pop\n      pop\n      jump\t// out\n        /* \"#utility.yul\":11453:11801   */\n    tag_175:\n        /* \"#utility.yul\":11493:11500   */\n      0x00\n        /* \"#utility.yul\":11516:11536   */\n      tag_322\n        /* \"#utility.yul\":11534:11535   */\n      dup3\n        /* \"#utility.yul\":11516:11536   */\n      tag_273\n      jump\t// in\n    tag_322:\n        /* \"#utility.yul\":11511:11536   */\n      swap2\n      pop\n        /* \"#utility.yul\":11550:11570   */\n      tag_323\n        /* \"#utility.yul\":11568:11569   */\n      dup4\n        /* \"#utility.yul\":11550:11570   */\n      tag_273\n      jump\t// in\n    tag_323:\n        /* \"#utility.yul\":11545:11570   */\n      swap3\n      pop\n        /* \"#utility.yul\":11738:11739   */\n      dup2\n        /* \"#utility.yul\":11670:11736   */\n      0xffffffffffffffffffffffffffffffffffffffffffffffffffffffffffffffff\n        /* \"#utility.yul\":11666:11740   */\n      div\n        /* \"#utility.yul\":11663:11664   */\n      dup4\n        /* \"#utility.yul\":11660:11741   */\n      gt\n        /* \"#utility.yul\":11655:11656   */\n      dup3\n        /* \"#utility.yul\":11648:11657   */\n      iszero\n        /* \"#utility.yul\":11641:11658   */\n      iszero\n        /* \"#utility.yul\":11637:11742   */\n      and\n        /* \"#utility.yul\":11634:11636   */\n      iszero\n      tag_324\n      jumpi\n        /* \"#utility.yul\":11745:11763   */\n      tag_325\n      tag_314\n      jump\t// in\n    tag_325:\n        /* \"#utility.yul\":11634:11636   */\n    tag_324:\n        /* \"#utility.yul\":11793:11794   */\n      dup3\n        /* \"#utility.yul\":11790:11791   */\n      dup3\n        /* \"#utility.yul\":11786:11795   */\n      mul\n        /* \"#utility.yul\":11775:11795   */\n      swap1\n      pop\n        /* \"#utility.yul\":11501:11801   */\n      swap3\n      swap2\n      pop\n      pop\n      jump\t// out\n        /* \"#utility.yul\":11807:11998   */\n    tag_160:\n        /* \"#utility.yul\":11847:11851   */\n      0x00\n        /* \"#utility.yul\":11867:11887   */\n      tag_327\n        /* \"#utility.yul\":11885:11886   */\n      dup3\n        /* \"#utility.yul\":11867:11887   */\n      tag_273\n      jump\t// in\n    tag_327:\n        /* \"#utility.yul\":11862:11887   */\n      swap2\n      pop\n        /* \"#utility.yul\":11901:11921   */\n      tag_328\n        /* \"#utility.yul\":11919:11920   */\n      dup4\n        /* \"#utility.yul\":11901:11921   */\n      tag_273\n      jump\t// in\n    tag_328:\n        /* \"#utility.yul\":11896:11921   */\n      swap3\n      pop\n        /* \"#utility.yul\":11940:11941   */\n      dup3\n        /* \"#utility.yul\":11937:11938   */\n      dup3\n        /* \"#utility.yul\":11934:11942   */\n      lt\n        /* \"#utility.yul\":11931:11933   */\n      iszero\n      tag_329\n      jumpi\n        /* \"#utility.yul\":11945:11963   */\n      tag_330\n      tag_314\n      jump\t// in\n    tag_330:\n        /* \"#utility.yul\":11931:11933   */\n    tag_329:\n        /* \"#utility.yul\":11990:11991   */\n      dup3\n        /* \"#utility.yul\":11987:11988   */\n      dup3\n        /* \"#utility.yul\":11983:11992   */\n      sub\n        /* \"#utility.yul\":11975:11992   */\n      swap1\n      pop\n        /* \"#utility.yul\":11852:11998   */\n      swap3\n      swap2\n      pop\n      pop\n      jump\t// out\n        /* \"#utility.yul\":12004:12100   */\n    tag_226:\n        /* \"#utility.yul\":12041:12048   */\n      0x00\n        /* \"#utility.yul\":12070:12094   */\n      tag_332\n        /* \"#utility.yul\":12088:12093   */\n      dup3\n        /* \"#utility.yul\":12070:12094   */\n      tag_333\n      jump\t// in\n    tag_332:\n        /* \"#utility.yul\":12059:12094   */\n      swap1\n      pop\n        /* \"#utility.yul\":12049:12100   */\n      swap2\n      swap1\n      pop\n      jump\t// out\n        /* \"#utility.yul\":12106:12196   */\n    tag_230:\n        /* \"#utility.yul\":12140:12147   */\n      0x00\n        /* \"#utility.yul\":12183:12188   */\n      dup2\n        /* \"#utility.yul\":12176:12189   */\n      iszero\n        /* \"#utility.yul\":12169:12190   */\n      iszero\n        /* \"#utility.yul\":12158:12190   */\n      swap1\n      pop\n        /* \"#utility.yul\":12148:12196   */\n      swap2\n      swap1\n      pop\n      jump\t// out\n        /* \"#utility.yul\":12202:12328   */\n    tag_333:\n        /* \"#utility.yul\":12239:12246   */\n      0x00\n        /* \"#utility.yul\":12279:12321   */\n      0xffffffffffffffffffffffffffffffffffffffff\n        /* \"#utility.yul\":12272:12277   */\n      dup3\n        /* \"#utility.yul\":12268:12322   */\n      and\n        /* \"#utility.yul\":12257:12322   */\n      swap1\n      pop\n        /* \"#utility.yul\":12247:12328   */\n      swap2\n      swap1\n      pop\n      jump\t// out\n        /* \"#utility.yul\":12334:12411   */\n    tag_273:\n        /* \"#utility.yul\":12371:12378   */\n      0x00\n        /* \"#utility.yul\":12400:12405   */\n      dup2\n        /* \"#utility.yul\":12389:12405   */\n      swap1\n      pop\n        /* \"#utility.yul\":12379:12411   */\n      swap2\n      swap1\n      pop\n      jump\t// out\n        /* \"#utility.yul\":12417:12569   */\n    tag_234:\n        /* \"#utility.yul\":12480:12489   */\n      0x00\n        /* \"#utility.yul\":12513:12563   */\n      tag_338\n        /* \"#utility.yul\":12557:12562   */\n      dup3\n        /* \"#utility.yul\":12513:12563   */\n      tag_339\n      jump\t// in\n    tag_338:\n        /* \"#utility.yul\":12500:12563   */\n      swap1\n      pop\n        /* \"#utility.yul\":12490:12569   */\n      swap2\n      swap1\n      pop\n      jump\t// out\n        /* \"#utility.yul\":12575:12701   */\n    tag_339:\n        /* \"#utility.yul\":12638:12647   */\n      0x00\n        /* \"#utility.yul\":12671:12695   */\n      tag_341\n        /* \"#utility.yul\":12689:12694   */\n      dup3\n        /* \"#utility.yul\":12671:12695   */\n      tag_333\n      jump\t// in\n    tag_341:\n        /* \"#utility.yul\":12658:12695   */\n      swap1\n      pop\n        /* \"#utility.yul\":12648:12701   */\n      swap2\n      swap1\n      pop\n      jump\t// out\n        /* \"#utility.yul\":12707:13014   */\n    tag_242:\n        /* \"#utility.yul\":12775:12776   */\n      0x00\n        /* \"#utility.yul\":12785:12898   */\n    tag_343:\n        /* \"#utility.yul\":12799:12805   */\n      dup4\n        /* \"#utility.yul\":12796:12797   */\n      dup2\n        /* \"#utility.yul\":12793:12806   */\n      lt\n        /* \"#utility.yul\":12785:12898   */\n      iszero\n      tag_345\n      jumpi\n        /* \"#utility.yul\":12884:12885   */\n      dup1\n        /* \"#utility.yul\":12879:12882   */\n      dup3\n        /* \"#utility.yul\":12875:12886   */\n      add\n        /* \"#utility.yul\":12869:12887   */\n      mload\n        /* \"#utility.yul\":12865:12866   */\n      dup2\n        /* \"#utility.yul\":12860:12863   */\n      dup5\n        /* \"#utility.yul\":12856:12867   */\n      add\n        /* \"#utility.yul\":12849:12888   */\n      mstore\n        /* \"#utility.yul\":12821:12823   */\n      0x20\n        /* \"#utility.yul\":12818:12819   */\n      dup2\n        /* \"#utility.yul\":12814:12824   */\n      add\n        /* \"#utility.yul\":12809:12824   */\n      swap1\n      pop\n        /* \"#utility.yul\":12785:12898   */\n      jump(tag_343)\n    tag_345:\n        /* \"#utility.yul\":12916:12922   */\n      dup4\n        /* \"#utility.yul\":12913:12914   */\n      dup2\n        /* \"#utility.yul\":12910:12923   */\n      gt\n        /* \"#utility.yul\":12907:12909   */\n      iszero\n      tag_346\n      jumpi\n        /* \"#utility.yul\":12996:12997   */\n      0x00\n        /* \"#utility.yul\":12987:12993   */\n      dup5\n        /* \"#utility.yul\":12982:12985   */\n      dup5\n        /* \"#utility.yul\":12978:12994   */\n      add\n        /* \"#utility.yul\":12971:12998   */\n      mstore\n        /* \"#utility.yul\":12907:12909   */\n    tag_346:\n        /* \"#utility.yul\":12756:13014   */\n      pop\n      pop\n      pop\n      pop\n      jump\t// out\n        /* \"#utility.yul\":13020:13340   */\n    tag_88:\n        /* \"#utility.yul\":13064:13070   */\n      0x00\n        /* \"#utility.yul\":13101:13102   */\n      0x02\n        /* \"#utility.yul\":13095:13099   */\n      dup3\n        /* \"#utility.yul\":13091:13103   */\n      div\n        /* \"#utility.yul\":13081:13103   */\n      swap1\n      pop\n        /* \"#utility.yul\":13148:13149   */\n      0x01\n        /* \"#utility.yul\":13142:13146   */\n      dup3\n        /* \"#utility.yul\":13138:13150   */\n      and\n        /* \"#utility.yul\":13169:13187   */\n      dup1\n        /* \"#utility.yul\":13159:13161   */\n      tag_348\n      jumpi\n        /* \"#utility.yul\":13225:13229   */\n      0x7f\n        /* \"#utility.yul\":13217:13223   */\n      dup3\n        /* \"#utility.yul\":13213:13230   */\n      and\n        /* \"#utility.yul\":13203:13230   */\n      swap2\n      pop\n        /* \"#utility.yul\":13159:13161   */\n    tag_348:\n        /* \"#utility.yul\":13287:13289   */\n      0x20\n        /* \"#utility.yul\":13279:13285   */\n      dup3\n        /* \"#utility.yul\":13276:13290   */\n      lt\n        /* \"#utility.yul\":13256:13274   */\n      dup2\n        /* \"#utility.yul\":13253:13291   */\n      eq\n        /* \"#utility.yul\":13250:13252   */\n      iszero\n      tag_349\n      jumpi\n        /* \"#utility.yul\":13306:13324   */\n      tag_350\n      tag_351\n      jump\t// in\n    tag_350:\n        /* \"#utility.yul\":13250:13252   */\n    tag_349:\n        /* \"#utility.yul\":13071:13340   */\n      pop\n      swap2\n      swap1\n      pop\n      jump\t// out\n        /* \"#utility.yul\":13346:13526   */\n    tag_314:\n        /* \"#utility.yul\":13394:13471   */\n      0x4e487b7100000000000000000000000000000000000000000000000000000000\n        /* \"#utility.yul\":13391:13392   */\n      0x00\n        /* \"#utility.yul\":13384:13472   */\n      mstore\n        /* \"#utility.yul\":13491:13495   */\n      0x11\n        /* \"#utility.yul\":13488:13489   */\n      0x04\n        /* \"#utility.yul\":13481:13496   */\n      mstore\n        /* \"#utility.yul\":13515:13519   */\n      0x24\n        /* \"#utility.yul\":13512:13513   */\n      0x00\n        /* \"#utility.yul\":13505:13520   */\n      revert\n        /* \"#utility.yul\":13532:13712   */\n    tag_320:\n        /* \"#utility.yul\":13580:13657   */\n      0x4e487b7100000000000000000000000000000000000000000000000000000000\n        /* \"#utility.yul\":13577:13578   */\n      0x00\n        /* \"#utility.yul\":13570:13658   */\n      mstore\n        /* \"#utility.yul\":13677:13681   */\n      0x12\n        /* \"#utility.yul\":13674:13675   */\n      0x04\n        /* \"#utility.yul\":13667:13682   */\n      mstore\n        /* \"#utility.yul\":13701:13705   */\n      0x24\n        /* \"#utility.yul\":13698:13699   */\n      0x00\n        /* \"#utility.yul\":13691:13706   */\n      revert\n        /* \"#utility.yul\":13718:13898   */\n    tag_351:\n        /* \"#utility.yul\":13766:13843   */\n      0x4e487b7100000000000000000000000000000000000000000000000000000000\n        /* \"#utility.yul\":13763:13764   */\n      0x00\n        /* \"#utility.yul\":13756:13844   */\n      mstore\n        /* \"#utility.yul\":13863:13867   */\n      0x22\n        /* \"#utility.yul\":13860:13861   */\n      0x04\n        /* \"#utility.yul\":13853:13868   */\n      mstore\n        /* \"#utility.yul\":13887:13891   */\n      0x24\n        /* \"#utility.yul\":13884:13885   */\n      0x00\n        /* \"#utility.yul\":13877:13892   */\n      revert\n        /* \"#utility.yul\":13904:14006   */\n    tag_244:\n        /* \"#utility.yul\":13945:13951   */\n      0x00\n        /* \"#utility.yul\":13996:13998   */\n      0x1f\n        /* \"#utility.yul\":13992:13999   */\n      not\n        /* \"#utility.yul\":13987:13989   */\n      0x1f\n        /* \"#utility.yul\":13980:13985   */\n      dup4\n        /* \"#utility.yul\":13976:13990   */\n      add\n        /* \"#utility.yul\":13972:14000   */\n      and\n        /* \"#utility.yul\":13962:14000   */\n      swap1\n      pop\n        /* \"#utility.yul\":13952:14006   */\n      swap2\n      swap1\n      pop\n      jump\t// out\n        /* \"#utility.yul\":14012:14184   */\n    tag_249:\n        /* \"#utility.yul\":14152:14176   */\n      0x496e73756666696369656e7420616c6c6f77616e636500000000000000000000\n        /* \"#utility.yul\":14148:14149   */\n      0x00\n        /* \"#utility.yul\":14140:14146   */\n      dup3\n        /* \"#utility.yul\":14136:14150   */\n      add\n        /* \"#utility.yul\":14129:14177   */\n      mstore\n        /* \"#utility.yul\":14118:14184   */\n      pop\n      jump\t// out\n        /* \"#utility.yul\":14190:14360   */\n    tag_254:\n        /* \"#utility.yul\":14330:14352   */\n      0x496e73756666696369656e742062616c616e6365000000000000000000000000\n        /* \"#utility.yul\":14326:14327   */\n      0x00\n        /* \"#utility.yul\":14318:14324   */\n      dup3\n        /* \"#utility.yul\":14314:14328   */\n      add\n        /* \"#utility.yul\":14307:14353   */\n      mstore\n        /* \"#utility.yul\":14296:14360   */\n      pop\n      jump\t// out\n        /* \"#utility.yul\":14366:14542   */\n    tag_259:\n        /* \"#utility.yul\":14506:14534   */\n      0x5472616e736665722066726f6d207a65726f2061646472657373000000000000\n        /* \"#utility.yul\":14502:14503   */\n      0x00\n        /* \"#utility.yul\":14494:14500   */\n      dup3\n        /* \"#utility.yul\":14490:14504   */\n      add\n        /* \"#utility.yul\":14483:14535   */\n      mstore\n        /* \"#utility.yul\":14472:14542   */\n      pop\n      jump\t// out\n        /* \"#utility.yul\":14548:14718   */\n    tag_264:\n        /* \"#utility.yul\":14688:14710   */\n      0x55534454207472616e73666572206661696c6564000000000000000000000000\n        /* \"#utility.yul\":14684:14685   */\n      0x00\n        /* \"#utility.yul\":14676:14682   */\n      dup3\n        /* \"#utility.yul\":14672:14686   */\n      add\n        /* \"#utility.yul\":14665:14711   */\n      mstore\n        /* \"#utility.yul\":14654:14718   */\n      pop\n      jump\t// out\n        /* \"#utility.yul\":14724:14898   */\n    tag_269:\n        /* \"#utility.yul\":14864:14890   */\n      0x5472616e7366657220746f207a65726f20616464726573730000000000000000\n        /* \"#utility.yul\":14860:14861   */\n      0x00\n        /* \"#utility.yul\":14852:14858   */\n      dup3\n        /* \"#utility.yul\":14848:14862   */\n      add\n        /* \"#utility.yul\":14841:14891   */\n      mstore\n        /* \"#utility.yul\":14830:14898   */\n      pop\n      jump\t// out\n        /* \"#utility.yul\":14904:15026   */\n    tag_186:\n        /* \"#utility.yul\":14977:15001   */\n      tag_362\n        /* \"#utility.yul\":14995:15000   */\n      dup2\n        /* \"#utility.yul\":14977:15001   */\n      tag_226\n      jump\t// in\n    tag_362:\n        /* \"#utility.yul\":14970:14975   */\n      dup2\n        /* \"#utility.yul\":14967:15002   */\n      eq\n        /* \"#utility.yul\":14957:14959   */\n      tag_363\n      jumpi\n        /* \"#utility.yul\":15016:15017   */\n      0x00\n        /* \"#utility.yul\":15013:15014   */\n      dup1\n        /* \"#utility.yul\":15006:15018   */\n      revert\n        /* \"#utility.yul\":14957:14959   */\n    tag_363:\n        /* \"#utility.yul\":14947:15026   */\n      pop\n      jump\t// out\n        /* \"#utility.yul\":15032:15148   */\n    tag_190:\n        /* \"#utility.yul\":15102:15123   */\n      tag_365\n        /* \"#utility.yul\":15117:15122   */\n      dup2\n        /* \"#utility.yul\":15102:15123   */\n      tag_230\n      jump\t// in\n    tag_365:\n        /* \"#utility.yul\":15095:15100   */\n      dup2\n        /* \"#utility.yul\":15092:15124   */\n      eq\n        /* \"#utility.yul\":15082:15084   */\n      tag_366\n      jumpi\n        /* \"#utility.yul\":15138:15139   */\n      0x00\n        /* \"#utility.yul\":15135:15136   */\n      dup1\n        /* \"#utility.yul\":15128:15140   */\n      revert\n        /* \"#utility.yul\":15082:15084   */\n    tag_366:\n        /* \"#utility.yul\":15072:15148   */\n      pop\n      jump\t// out\n        /* \"#utility.yul\":15154:15276   */\n    tag_194:\n        /* \"#utility.yul\":15227:15251   */\n      tag_368\n        /* \"#utility.yul\":15245:15250   */\n      dup2\n        /* \"#utility.yul\":15227:15251   */\n      tag_273\n      jump\t// in\n    tag_368:\n        /* \"#utility.yul\":15220:15225   */\n      dup2\n        /* \"#utility.yul\":15217:15252   */\n      eq\n        /* \"#utility.yul\":15207:15209   */\n      tag_369\n      jumpi\n        /* \"#utility.yul\":15266:15267   */\n      0x00\n        /* \"#utility.yul\":15263:15264   */\n      dup1\n        /* \"#utility.yul\":15256:15268   */\n      revert\n        /* \"#utility.yul\":15207:15209   */\n    tag_369:\n        /* \"#utility.yul\":15197:15276   */\n      pop\n      jump\t// out\n\n    auxdata: 0xa26469706673582212204be8d417f4fad8fda3b5b7c4525f7f838acbe6e2d5d87d61ae6f7cf54bb0262764736f6c63430008040033\n}\n",
				"bytecode": {
					"linkReferences": {},
					"object": "60806040526040518060400160405280600a81526020017f4556494320546f6b656e00000000000000000000000000000000000000000000815250600190805190602001906200005192919062000168565b506040518060400160405280600481526020017f4556494300000000000000000000000000000000000000000000000000000000815250600290805190602001906200009f92919062000168565b506012600355348015620000b257600080fd5b5060405162001e5038038062001e508339818101604052810190620000d8919062000246565b33600660006101000a81548173ffffffffffffffffffffffffffffffffffffffff021916908373ffffffffffffffffffffffffffffffffffffffff160217905550816000806101000a81548173ffffffffffffffffffffffffffffffffffffffff021916908373ffffffffffffffffffffffffffffffffffffffff1602179055508060058190555050506200035e565b8280546200017690620002c5565b90600052602060002090601f0160209004810192826200019a5760008555620001e6565b82601f10620001b557805160ff1916838001178555620001e6565b82800160010185558215620001e6579182015b82811115620001e5578251825591602001919060010190620001c8565b5b509050620001f59190620001f9565b5090565b5b8082111562000214576000816000905550600101620001fa565b5090565b60008151905062000229816200032a565b92915050565b600081519050620002408162000344565b92915050565b600080604083850312156200025a57600080fd5b60006200026a8582860162000218565b92505060206200027d858286016200022f565b9150509250929050565b600062000294826200029b565b9050919050565b600073ffffffffffffffffffffffffffffffffffffffff82169050919050565b6000819050919050565b60006002820490506001821680620002de57607f821691505b60208210811415620002f557620002f4620002fb565b5b50919050565b7f4e487b7100000000000000000000000000000000000000000000000000000000600052602260045260246000fd5b620003358162000287565b81146200034157600080fd5b50565b6200034f81620002bb565b81146200035b57600080fd5b50565b611ae2806200036e6000396000f3fe608060405234801561001057600080fd5b50600436106101005760003560e01c806370a0823111610097578063a604f57011610066578063a604f570146102c5578063a9059cbb146102e1578063dd62ed3e14610311578063ef1f4b841461034157610100565b806370a082311461023d5780638da5cb5b1461026d578063954724b41461028b57806395d89b41146102a757610100565b806327e235e3116100d357806327e235e3146101a15780632f48ab7d146101d1578063313ce567146101ef57806355b6ed5c1461020d57610100565b806306fdde0314610105578063095ea7b31461012357806318160ddd1461015357806323b872dd14610171575b600080fd5b61010d61035f565b60405161011a91906115f4565b60405180910390f35b61013d6004803603810190610138919061133f565b6103ed565b60405161014a91906115be565b60405180910390f35b61015b6104df565b60405161016891906116b6565b60405180910390f35b61018b600480360381019061018691906112f0565b6104e5565b60405161019891906115be565b60405180910390f35b6101bb60048036038101906101b6919061128b565b6106cb565b6040516101c891906116b6565b60405180910390f35b6101d96106e3565b6040516101e691906115d9565b60405180910390f35b6101f7610707565b60405161020491906116b6565b60405180910390f35b610227600480360381019061022291906112b4565b61070d565b60405161023491906116b6565b60405180910390f35b6102576004803603810190610252919061128b565b610732565b60405161026491906116b6565b60405180910390f35b61027561077b565b604051610282919061151a565b60405180910390f35b6102a560048036038101906102a091906113a4565b6107a1565b005b6102af610aff565b6040516102bc91906115f4565b60405180910390f35b6102df60048036038101906102da91906113a4565b610b8d565b005b6102fb60048036038101906102f6919061133f565b610e7e565b60405161030891906115be565b60405180910390f35b61032b600480360381019061032691906112b4565b610e95565b60405161033891906116b6565b60405180910390f35b610349610f1c565b60405161035691906116b6565b60405180910390f35b6001805461036c906118ca565b80601f0160208091040260200160405190810160405280929190818152602001828054610398906118ca565b80156103e55780601f106103ba576101008083540402835291602001916103e5565b820191906000526020600020905b8154815290600101906020018083116103c857829003601f168201915b505050505081565b600081600860003373ffffffffffffffffffffffffffffffffffffffff1673ffffffffffffffffffffffffffffffffffffffff16815260200190815260200160002060008573ffffffffffffffffffffffffffffffffffffffff1673ffffffffffffffffffffffffffffffffffffffff168152602001908152602001600020819055508273ffffffffffffffffffffffffffffffffffffffff163373ffffffffffffffffffffffffffffffffffffffff167f8c5be1e5ebec7d5bd14f71427d1e84f3dd0314c0f7b2291e5b200ac8c7c3b925846040516104cd91906116b6565b60405180910390a36001905092915050565b60045481565b600081600860008673ffffffffffffffffffffffffffffffffffffffff1673ffffffffffffffffffffffffffffffffffffffff16815260200190815260200160002060003373ffffffffffffffffffffffffffffffffffffffff1673ffffffffffffffffffffffffffffffffffffffff1681526020019081526020016000205410156105a6576040517f08c379a000000000000000000000000000000000000000000000000000000000815260040161059d90611616565b60405180910390fd5b61063582600860008773ffffffffffffffffffffffffffffffffffffffff1673ffffffffffffffffffffffffffffffffffffffff16815260200190815260200160002060003373ffffffffffffffffffffffffffffffffffffffff1673ffffffffffffffffffffffffffffffffffffffff16815260200190815260200160002054610f2290919063ffffffff16565b600860008673ffffffffffffffffffffffffffffffffffffffff1673ffffffffffffffffffffffffffffffffffffffff16815260200190815260200160002060003373ffffffffffffffffffffffffffffffffffffffff1673ffffffffffffffffffffffffffffffffffffffff168152602001908152602001600020819055506106c0848484610f38565b600190509392505050565b60076020528060005260406000206000915090505481565b60008054906101000a900473ffffffffffffffffffffffffffffffffffffffff1681565b60035481565b6008602052816000526040600020602052806000526040600020600091509150505481565b6000600760008373ffffffffffffffffffffffffffffffffffffffff1673ffffffffffffffffffffffffffffffffffffffff168152602001908152602001600020549050919050565b600660009054906101000a900473ffffffffffffffffffffffffffffffffffffffff1681565b60006107b8600554836111f590919063ffffffff16565b90508160008054906101000a900473ffffffffffffffffffffffffffffffffffffffff1673ffffffffffffffffffffffffffffffffffffffff1663dd62ed3e33306040518363ffffffff1660e01b8152600401610816929190611535565b60206040518083038186803b15801561082e57600080fd5b505afa158015610842573d6000803e3d6000fd5b505050506040513d601f19601f8201168201806040525081019061086691906113cd565b10156108a7576040517f08c379a000000000000000000000000000000000000000000000000000000000815260040161089e90611616565b60405180910390fd5b60008054906101000a900473ffffffffffffffffffffffffffffffffffffffff1673ffffffffffffffffffffffffffffffffffffffff166323b872dd3330856040518463ffffffff1660e01b81526004016109049392919061155e565b602060405180830381600087803b15801561091e57600080fd5b505af1158015610932573d6000803e3d6000fd5b505050506040513d601f19601f82011682018060405250810190610956919061137b565b610995576040517f08c379a000000000000000000000000000000000000000000000000000000000815260040161098c90611676565b60405180910390fd5b6109e781600760003373ffffffffffffffffffffffffffffffffffffffff1673ffffffffffffffffffffffffffffffffffffffff1681526020019081526020016000205461120b90919063ffffffff16565b600760003373ffffffffffffffffffffffffffffffffffffffff1673ffffffffffffffffffffffffffffffffffffffff16815260200190815260200160002081905550610a3f8160045461120b90919063ffffffff16565b6004819055503373ffffffffffffffffffffffffffffffffffffffff16600073ffffffffffffffffffffffffffffffffffffffff167fddf252ad1be2c89b69c2b068fc378daa952ba7f163c4a11628f55a4df523b3ef83604051610aa391906116b6565b60405180910390a33373ffffffffffffffffffffffffffffffffffffffff167fe290c002cbac2415677ae4cc3941e55c4d4c03145539bc16eb9516662c806b518383604051610af39291906116d1565b60405180910390a25050565b60028054610b0c906118ca565b80601f0160208091040260200160405190810160405280929190818152602001828054610b38906118ca565b8015610b855780601f10610b5a57610100808354040283529160200191610b85565b820191906000526020600020905b815481529060010190602001808311610b6857829003601f168201915b505050505081565b80600760003373ffffffffffffffffffffffffffffffffffffffff1673ffffffffffffffffffffffffffffffffffffffff168152602001908152602001600020541015610c0f576040517f08c379a0000000000000000000000000000000000000000000000000000000008152600401610c0690611636565b60405180910390fd5b610c6181600760003373ffffffffffffffffffffffffffffffffffffffff1673ffffffffffffffffffffffffffffffffffffffff16815260200190815260200160002054610f2290919063ffffffff16565b600760003373ffffffffffffffffffffffffffffffffffffffff1673ffffffffffffffffffffffffffffffffffffffff16815260200190815260200160002081905550610cb981600454610f2290919063ffffffff16565b6004819055506000610cd66005548361122190919063ffffffff16565b905060008054906101000a900473ffffffffffffffffffffffffffffffffffffffff1673ffffffffffffffffffffffffffffffffffffffff1663a9059cbb33836040518363ffffffff1660e01b8152600401610d33929190611595565b602060405180830381600087803b158015610d4d57600080fd5b505af1158015610d61573d6000803e3d6000fd5b505050506040513d601f19601f82011682018060405250810190610d85919061137b565b610dc4576040517f08c379a0000000000000000000000000000000000000000000000000000000008152600401610dbb90611676565b60405180910390fd5b600073ffffffffffffffffffffffffffffffffffffffff163373ffffffffffffffffffffffffffffffffffffffff167fddf252ad1be2c89b69c2b068fc378daa952ba7f163c4a11628f55a4df523b3ef84604051610e2291906116b6565b60405180910390a33373ffffffffffffffffffffffffffffffffffffffff167f9b9a581d969359be3d456613e9e95901b643c75b7b9f369f45494e7151deb03f8383604051610e729291906116d1565b60405180910390a25050565b6000610e8b338484610f38565b6001905092915050565b6000600860008473ffffffffffffffffffffffffffffffffffffffff1673ffffffffffffffffffffffffffffffffffffffff16815260200190815260200160002060008373ffffffffffffffffffffffffffffffffffffffff1673ffffffffffffffffffffffffffffffffffffffff16815260200190815260200160002054905092915050565b60055481565b60008183610f3091906117f7565b905092915050565b600073ffffffffffffffffffffffffffffffffffffffff168373ffffffffffffffffffffffffffffffffffffffff161415610fa8576040517f08c379a0000000000000000000000000000000000000000000000000000000008152600401610f9f90611656565b60405180910390fd5b600073ffffffffffffffffffffffffffffffffffffffff168273ffffffffffffffffffffffffffffffffffffffff161415611018576040517f08c379a000000000000000000000000000000000000000000000000000000000815260040161100f90611696565b60405180910390fd5b6000600760008573ffffffffffffffffffffffffffffffffffffffff1673ffffffffffffffffffffffffffffffffffffffff1681526020019081526020016000205490508181101561109f576040517f08c379a000000000000000000000000000000000000000000000000000000000815260040161109690611636565b60405180910390fd5b6110b28282610f2290919063ffffffff16565b600760008673ffffffffffffffffffffffffffffffffffffffff1673ffffffffffffffffffffffffffffffffffffffff1681526020019081526020016000208190555061114782600760008673ffffffffffffffffffffffffffffffffffffffff1673ffffffffffffffffffffffffffffffffffffffff1681526020019081526020016000205461120b90919063ffffffff16565b600760008573ffffffffffffffffffffffffffffffffffffffff1673ffffffffffffffffffffffffffffffffffffffff168152602001908152602001600020819055508273ffffffffffffffffffffffffffffffffffffffff168473ffffffffffffffffffffffffffffffffffffffff167fddf252ad1be2c89b69c2b068fc378daa952ba7f163c4a11628f55a4df523b3ef846040516111e791906116b6565b60405180910390a350505050565b60008183611203919061179d565b905092915050565b600081836112199190611716565b905092915050565b6000818361122f919061176c565b905092915050565b60008135905061124681611a67565b92915050565b60008151905061125b81611a7e565b92915050565b60008135905061127081611a95565b92915050565b60008151905061128581611a95565b92915050565b60006020828403121561129d57600080fd5b60006112ab84828501611237565b91505092915050565b600080604083850312156112c757600080fd5b60006112d585828601611237565b92505060206112e685828601611237565b9150509250929050565b60008060006060848603121561130557600080fd5b600061131386828701611237565b935050602061132486828701611237565b925050604061133586828701611261565b9150509250925092565b6000806040838503121561135257600080fd5b600061136085828601611237565b925050602061137185828601611261565b9150509250929050565b60006020828403121561138d57600080fd5b600061139b8482850161124c565b91505092915050565b6000602082840312156113b657600080fd5b60006113c484828501611261565b91505092915050565b6000602082840312156113df57600080fd5b60006113ed84828501611276565b91505092915050565b6113ff8161182b565b82525050565b61140e8161183d565b82525050565b61141d81611873565b82525050565b600061142e826116fa565b6114388185611705565b9350611448818560208601611897565b61145181611989565b840191505092915050565b6000611469601683611705565b91506114748261199a565b602082019050919050565b600061148c601483611705565b9150611497826119c3565b602082019050919050565b60006114af601a83611705565b91506114ba826119ec565b602082019050919050565b60006114d2601483611705565b91506114dd82611a15565b602082019050919050565b60006114f5601883611705565b915061150082611a3e565b602082019050919050565b61151481611869565b82525050565b600060208201905061152f60008301846113f6565b92915050565b600060408201905061154a60008301856113f6565b61155760208301846113f6565b9392505050565b600060608201905061157360008301866113f6565b61158060208301856113f6565b61158d604083018461150b565b949350505050565b60006040820190506115aa60008301856113f6565b6115b7602083018461150b565b9392505050565b60006020820190506115d36000830184611405565b92915050565b60006020820190506115ee6000830184611414565b92915050565b6000602082019050818103600083015261160e8184611423565b905092915050565b6000602082019050818103600083015261162f8161145c565b9050919050565b6000602082019050818103600083015261164f8161147f565b9050919050565b6000602082019050818103600083015261166f816114a2565b9050919050565b6000602082019050818103600083015261168f816114c5565b9050919050565b600060208201905081810360008301526116af816114e8565b9050919050565b60006020820190506116cb600083018461150b565b92915050565b60006040820190506116e6600083018561150b565b6116f3602083018461150b565b9392505050565b600081519050919050565b600082825260208201905092915050565b600061172182611869565b915061172c83611869565b9250827fffffffffffffffffffffffffffffffffffffffffffffffffffffffffffffffff03821115611761576117606118fc565b5b828201905092915050565b600061177782611869565b915061178283611869565b9250826117925761179161192b565b5b828204905092915050565b60006117a882611869565b91506117b383611869565b9250817fffffffffffffffffffffffffffffffffffffffffffffffffffffffffffffffff04831182151516156117ec576117eb6118fc565b5b828202905092915050565b600061180282611869565b915061180d83611869565b9250828210156118205761181f6118fc565b5b828203905092915050565b600061183682611849565b9050919050565b60008115159050919050565b600073ffffffffffffffffffffffffffffffffffffffff82169050919050565b6000819050919050565b600061187e82611885565b9050919050565b600061189082611849565b9050919050565b60005b838110156118b557808201518184015260208101905061189a565b838111156118c4576000848401525b50505050565b600060028204905060018216806118e257607f821691505b602082108114156118f6576118f561195a565b5b50919050565b7f4e487b7100000000000000000000000000000000000000000000000000000000600052601160045260246000fd5b7f4e487b7100000000000000000000000000000000000000000000000000000000600052601260045260246000fd5b7f4e487b7100000000000000000000000000000000000000000000000000000000600052602260045260246000fd5b6000601f19601f8301169050919050565b7f496e73756666696369656e7420616c6c6f77616e636500000000000000000000600082015250565b7f496e73756666696369656e742062616c616e6365000000000000000000000000600082015250565b7f5472616e736665722066726f6d207a65726f2061646472657373000000000000600082015250565b7f55534454207472616e73666572206661696c6564000000000000000000000000600082015250565b7f5472616e7366657220746f207a65726f20616464726573730000000000000000600082015250565b611a708161182b565b8114611a7b57600080fd5b50565b611a878161183d565b8114611a9257600080fd5b50565b611a9e81611869565b8114611aa957600080fd5b5056fea26469706673582212204be8d417f4fad8fda3b5b7c4525f7f838acbe6e2d5d87d61ae6f7cf54bb0262764736f6c63430008040033",
					"opcodes": "PUSH1 0x80 PUSH1 0x40 MSTORE PUSH1 0x40 MLOAD DUP1 PUSH1 0x40 ADD PUSH1 0x40 MSTORE DUP1 PUSH1 0xA DUP2 MSTORE PUSH1 0x20 ADD PUSH32 0x4556494320546F6B656E00000000000000000000000000000000000000000000 DUP2 MSTORE POP PUSH1 0x1 SWAP1 DUP1 MLOAD SWAP1 PUSH1 0x20 ADD SWAP1 PUSH3 0x51 SWAP3 SWAP2 SWAP1 PUSH3 0x168 JUMP JUMPDEST POP PUSH1 0x40 MLOAD DUP1 PUSH1 0x40 ADD PUSH1 0x40 MSTORE DUP1 PUSH1 0x4 DUP2 MSTORE PUSH1 0x20 ADD PUSH32 0x4556494300000000000000000000000000000000000000000000000000000000 DUP2 MSTORE POP PUSH1 0x2 SWAP1 DUP1 MLOAD SWAP1 PUSH1 0x20 ADD SWAP1 PUSH3 0x9F SWAP3 SWAP2 SWAP1 PUSH3 0x168 JUMP JUMPDEST POP PUSH1 0x12 PUSH1 0x3 SSTORE CALLVALUE DUP1 ISZERO PUSH3 0xB2 JUMPI PUSH1 0x0 DUP1 REVERT JUMPDEST POP PUSH1 0x40 MLOAD PUSH3 0x1E50 CODESIZE SUB DUP1 PUSH3 0x1E50 DUP4 CODECOPY DUP2 DUP2 ADD PUSH1 0x40 MSTORE DUP2 ADD SWAP1 PUSH3 0xD8 SWAP2 SWAP1 PUSH3 0x246 JUMP JUMPDEST CALLER PUSH1 0x6 PUSH1 0x0 PUSH2 0x100 EXP DUP2 SLOAD DUP2 PUSH20 0xFFFFFFFFFFFFFFFFFFFFFFFFFFFFFFFFFFFFFFFF MUL NOT AND SWAP1 DUP4 PUSH20 0xFFFFFFFFFFFFFFFFFFFFFFFFFFFFFFFFFFFFFFFF AND MUL OR SWAP1 SSTORE POP DUP2 PUSH1 0x0 DUP1 PUSH2 0x100 EXP DUP2 SLOAD DUP2 PUSH20 0xFFFFFFFFFFFFFFFFFFFFFFFFFFFFFFFFFFFFFFFF MUL NOT AND SWAP1 DUP4 PUSH20 0xFFFFFFFFFFFFFFFFFFFFFFFFFFFFFFFFFFFFFFFF AND MUL OR SWAP1 SSTORE POP DUP1 PUSH1 0x5 DUP2 SWAP1 SSTORE POP POP POP PUSH3 0x35E JUMP JUMPDEST DUP3 DUP1 SLOAD PUSH3 0x176 SWAP1 PUSH3 0x2C5 JUMP JUMPDEST SWAP1 PUSH1 0x0 MSTORE PUSH1 0x20 PUSH1 0x0 KECCAK256 SWAP1 PUSH1 0x1F ADD PUSH1 0x20 SWAP1 DIV DUP2 ADD SWAP3 DUP3 PUSH3 0x19A JUMPI PUSH1 0x0 DUP6 SSTORE PUSH3 0x1E6 JUMP JUMPDEST DUP3 PUSH1 0x1F LT PUSH3 0x1B5 JUMPI DUP1 MLOAD PUSH1 0xFF NOT AND DUP4 DUP1 ADD OR DUP6 SSTORE PUSH3 0x1E6 JUMP JUMPDEST DUP3 DUP1 ADD PUSH1 0x1 ADD DUP6 SSTORE DUP3 ISZERO PUSH3 0x1E6 JUMPI SWAP2 DUP3 ADD JUMPDEST DUP3 DUP2 GT ISZERO PUSH3 0x1E5 JUMPI DUP3 MLOAD DUP3 SSTORE SWAP2 PUSH1 0x20 ADD SWAP2 SWAP1 PUSH1 0x1 ADD SWAP1 PUSH3 0x1C8 JUMP JUMPDEST JUMPDEST POP SWAP1 POP PUSH3 0x1F5 SWAP2 SWAP1 PUSH3 0x1F9 JUMP JUMPDEST POP SWAP1 JUMP JUMPDEST JUMPDEST DUP1 DUP3 GT ISZERO PUSH3 0x214 JUMPI PUSH1 0x0 DUP2 PUSH1 0x0 SWAP1 SSTORE POP PUSH1 0x1 ADD PUSH3 0x1FA JUMP JUMPDEST POP SWAP1 JUMP JUMPDEST PUSH1 0x0 DUP2 MLOAD SWAP1 POP PUSH3 0x229 DUP2 PUSH3 0x32A JUMP JUMPDEST SWAP3 SWAP2 POP POP JUMP JUMPDEST PUSH1 0x0 DUP2 MLOAD SWAP1 POP PUSH3 0x240 DUP2 PUSH3 0x344 JUMP JUMPDEST SWAP3 SWAP2 POP POP JUMP JUMPDEST PUSH1 0x0 DUP1 PUSH1 0x40 DUP4 DUP6 SUB SLT ISZERO PUSH3 0x25A JUMPI PUSH1 0x0 DUP1 REVERT JUMPDEST PUSH1 0x0 PUSH3 0x26A DUP6 DUP3 DUP7 ADD PUSH3 0x218 JUMP JUMPDEST SWAP3 POP POP PUSH1 0x20 PUSH3 0x27D DUP6 DUP3 DUP7 ADD PUSH3 0x22F JUMP JUMPDEST SWAP2 POP POP SWAP3 POP SWAP3 SWAP1 POP JUMP JUMPDEST PUSH1 0x0 PUSH3 0x294 DUP3 PUSH3 0x29B JUMP JUMPDEST SWAP1 POP SWAP2 SWAP1 POP JUMP JUMPDEST PUSH1 0x0 PUSH20 0xFFFFFFFFFFFFFFFFFFFFFFFFFFFFFFFFFFFFFFFF DUP3 AND SWAP1 POP SWAP2 SWAP1 POP JUMP JUMPDEST PUSH1 0x0 DUP2 SWAP1 POP SWAP2 SWAP1 POP JUMP JUMPDEST PUSH1 0x0 PUSH1 0x2 DUP3 DIV SWAP1 POP PUSH1 0x1 DUP3 AND DUP1 PUSH3 0x2DE JUMPI PUSH1 0x7F DUP3 AND SWAP2 POP JUMPDEST PUSH1 0x20 DUP3 LT DUP2 EQ ISZERO PUSH3 0x2F5 JUMPI PUSH3 0x2F4 PUSH3 0x2FB JUMP JUMPDEST JUMPDEST POP SWAP2 SWAP1 POP JUMP JUMPDEST PUSH32 0x4E487B7100000000000000000000000000000000000000000000000000000000 PUSH1 0x0 MSTORE PUSH1 0x22 PUSH1 0x4 MSTORE PUSH1 0x24 PUSH1 0x0 REVERT JUMPDEST PUSH3 0x335 DUP2 PUSH3 0x287 JUMP JUMPDEST DUP2 EQ PUSH3 0x341 JUMPI PUSH1 0x0 DUP1 REVERT JUMPDEST POP JUMP JUMPDEST PUSH3 0x34F DUP2 PUSH3 0x2BB JUMP JUMPDEST DUP2 EQ PUSH3 0x35B JUMPI PUSH1 0x0 DUP1 REVERT JUMPDEST POP JUMP JUMPDEST PUSH2 0x1AE2 DUP1 PUSH3 0x36E PUSH1 0x0 CODECOPY PUSH1 0x0 RETURN INVALID PUSH1 0x80 PUSH1 0x40 MSTORE CALLVALUE DUP1 ISZERO PUSH2 0x10 JUMPI PUSH1 0x0 DUP1 REVERT JUMPDEST POP PUSH1 0x4 CALLDATASIZE LT PUSH2 0x100 JUMPI PUSH1 0x0 CALLDATALOAD PUSH1 0xE0 SHR DUP1 PUSH4 0x70A08231 GT PUSH2 0x97 JUMPI DUP1 PUSH4 0xA604F570 GT PUSH2 0x66 JUMPI DUP1 PUSH4 0xA604F570 EQ PUSH2 0x2C5 JUMPI DUP1 PUSH4 0xA9059CBB EQ PUSH2 0x2E1 JUMPI DUP1 PUSH4 0xDD62ED3E EQ PUSH2 0x311 JUMPI DUP1 PUSH4 0xEF1F4B84 EQ PUSH2 0x341 JUMPI PUSH2 0x100 JUMP JUMPDEST DUP1 PUSH4 0x70A08231 EQ PUSH2 0x23D JUMPI DUP1 PUSH4 0x8DA5CB5B EQ PUSH2 0x26D JUMPI DUP1 PUSH4 0x954724B4 EQ PUSH2 0x28B JUMPI DUP1 PUSH4 0x95D89B41 EQ PUSH2 0x2A7 JUMPI PUSH2 0x100 JUMP JUMPDEST DUP1 PUSH4 0x27E235E3 GT PUSH2 0xD3 JUMPI DUP1 PUSH4 0x27E235E3 EQ PUSH2 0x1A1 JUMPI DUP1 PUSH4 0x2F48AB7D EQ PUSH2 0x1D1 JUMPI DUP1 PUSH4 0x313CE567 EQ PUSH2 0x1EF JUMPI DUP1 PUSH4 0x55B6ED5C EQ PUSH2 0x20D JUMPI PUSH2 0x100 JUMP JUMPDEST DUP1 PUSH4 0x6FDDE03 EQ PUSH2 0x105 JUMPI DUP1 PUSH4 0x95EA7B3 EQ PUSH2 0x123 JUMPI DUP1 PUSH4 0x18160DDD EQ PUSH2 0x153 JUMPI DUP1 PUSH4 0x23B872DD EQ PUSH2 0x171 JUMPI JUMPDEST PUSH1 0x0 DUP1 REVERT JUMPDEST PUSH2 0x10D PUSH2 0x35F JUMP JUMPDEST PUSH1 0x40 MLOAD PUSH2 0x11A SWAP2 SWAP1 PUSH2 0x15F4 JUMP JUMPDEST PUSH1 0x40 MLOAD DUP1 SWAP2 SUB SWAP1 RETURN JUMPDEST PUSH2 0x13D PUSH1 0x4 DUP1 CALLDATASIZE SUB DUP2 ADD SWAP1 PUSH2 0x138 SWAP2 SWAP1 PUSH2 0x133F JUMP JUMPDEST PUSH2 0x3ED JUMP JUMPDEST PUSH1 0x40 MLOAD PUSH2 0x14A SWAP2 SWAP1 PUSH2 0x15BE JUMP JUMPDEST PUSH1 0x40 MLOAD DUP1 SWAP2 SUB SWAP1 RETURN JUMPDEST PUSH2 0x15B PUSH2 0x4DF JUMP JUMPDEST PUSH1 0x40 MLOAD PUSH2 0x168 SWAP2 SWAP1 PUSH2 0x16B6 JUMP JUMPDEST PUSH1 0x40 MLOAD DUP1 SWAP2 SUB SWAP1 RETURN JUMPDEST PUSH2 0x18B PUSH1 0x4 DUP1 CALLDATASIZE SUB DUP2 ADD SWAP1 PUSH2 0x186 SWAP2 SWAP1 PUSH2 0x12F0 JUMP JUMPDEST PUSH2 0x4E5 JUMP JUMPDEST PUSH1 0x40 MLOAD PUSH2 0x198 SWAP2 SWAP1 PUSH2 0x15BE JUMP JUMPDEST PUSH1 0x40 MLOAD DUP1 SWAP2 SUB SWAP1 RETURN JUMPDEST PUSH2 0x1BB PUSH1 0x4 DUP1 CALLDATASIZE SUB DUP2 ADD SWAP1 PUSH2 0x1B6 SWAP2 SWAP1 PUSH2 0x128B JUMP JUMPDEST PUSH2 0x6CB JUMP JUMPDEST PUSH1 0x40 MLOAD PUSH2 0x1C8 SWAP2 SWAP1 PUSH2 0x16B6 JUMP JUMPDEST PUSH1 0x40 MLOAD DUP1 SWAP2 SUB SWAP1 RETURN JUMPDEST PUSH2 0x1D9 PUSH2 0x6E3 JUMP JUMPDEST PUSH1 0x40 MLOAD PUSH2 0x1E6 SWAP2 SWAP1 PUSH2 0x15D9 JUMP JUMPDEST PUSH1 0x40 MLOAD DUP1 SWAP2 SUB SWAP1 RETURN JUMPDEST PUSH2 0x1F7 PUSH2 0x707 JUMP JUMPDEST PUSH1 0x40 MLOAD PUSH2 0x204 SWAP2 SWAP1 PUSH2 0x16B6 JUMP JUMPDEST PUSH1 0x40 MLOAD DUP1 SWAP2 SUB SWAP1 RETURN JUMPDEST PUSH2 0x227 PUSH1 0x4 DUP1 CALLDATASIZE SUB DUP2 ADD SWAP1 PUSH2 0x222 SWAP2 SWAP1 PUSH2 0x12B4 JUMP JUMPDEST PUSH2 0x70D JUMP JUMPDEST PUSH1 0x40 MLOAD PUSH2 0x234 SWAP2 SWAP1 PUSH2 0x16B6 JUMP JUMPDEST PUSH1 0x40 MLOAD DUP1 SWAP2 SUB SWAP1 RETURN JUMPDEST PUSH2 0x257 PUSH1 0x4 DUP1 CALLDATASIZE SUB DUP2 ADD SWAP1 PUSH2 0x252 SWAP2 SWAP1 PUSH2 0x128B JUMP JUMPDEST PUSH2 0x732 JUMP JUMPDEST PUSH1 0x40 MLOAD PUSH2 0x264 SWAP2 SWAP1 PUSH2 0x16B6 JUMP JUMPDEST PUSH1 0x40 MLOAD DUP1 SWAP2 SUB SWAP1 RETURN JUMPDEST PUSH2 0x275 PUSH2 0x77B JUMP JUMPDEST PUSH1 0x40 MLOAD PUSH2 0x282 SWAP2 SWAP1 PUSH2 0x151A JUMP JUMPDEST PUSH1 0x40 MLOAD DUP1 SWAP2 SUB SWAP1 RETURN JUMPDEST PUSH2 0x2A5 PUSH1 0x4 DUP1 CALLDATASIZE SUB DUP2 ADD SWAP1 PUSH2 0x2A0 SWAP2 SWAP1 PUSH2 0x13A4 JUMP JUMPDEST PUSH2 0x7A1 JUMP JUMPDEST STOP JUMPDEST PUSH2 0x2AF PUSH2 0xAFF JUMP JUMPDEST PUSH1 0x40 MLOAD PUSH2 0x2BC SWAP2 SWAP1 PUSH2 0x15F4 JUMP JUMPDEST PUSH1 0x40 MLOAD DUP1 SWAP2 SUB SWAP1 RETURN JUMPDEST PUSH2 0x2DF PUSH1 0x4 DUP1 CALLDATASIZE SUB DUP2 ADD SWAP1 PUSH2 0x2DA SWAP2 SWAP1 PUSH2 0x13A4 JUMP JUMPDEST PUSH2 0xB8D JUMP JUMPDEST STOP JUMPDEST PUSH2 0x2FB PUSH1 0x4 DUP1 CALLDATASIZE SUB DUP2 ADD SWAP1 PUSH2 0x2F6 SWAP2 SWAP1 PUSH2 0x133F JUMP JUMPDEST PUSH2 0xE7E JUMP JUMPDEST PUSH1 0x40 MLOAD PUSH2 0x308 SWAP2 SWAP1 PUSH2 0x15BE JUMP JUMPDEST PUSH1 0x40 MLOAD DUP1 SWAP2 SUB SWAP1 RETURN JUMPDEST PUSH2 0x32B PUSH1 0x4 DUP1 CALLDATASIZE SUB DUP2 ADD SWAP1 PUSH2 0x326 SWAP2 SWAP1 PUSH2 0x12B4 JUMP JUMPDEST PUSH2 0xE95 JUMP JUMPDEST PUSH1 0x40 MLOAD PUSH2 0x338 SWAP2 SWAP1 PUSH2 0x16B6 JUMP JUMPDEST PUSH1 0x40 MLOAD DUP1 SWAP2 SUB SWAP1 RETURN JUMPDEST PUSH2 0x349 PUSH2 0xF1C JUMP JUMPDEST PUSH1 0x40 MLOAD PUSH2 0x356 SWAP2 SWAP1 PUSH2 0x16B6 JUMP JUMPDEST PUSH1 0x40 MLOAD DUP1 SWAP2 SUB SWAP1 RETURN JUMPDEST PUSH1 0x1 DUP1 SLOAD PUSH2 0x36C SWAP1 PUSH2 0x18CA JUMP JUMPDEST DUP1 PUSH1 0x1F ADD PUSH1 0x20 DUP1 SWAP2 DIV MUL PUSH1 0x20 ADD PUSH1 0x40 MLOAD SWAP1 DUP2 ADD PUSH1 0x40 MSTORE DUP1 SWAP3 SWAP2 SWAP1 DUP2 DUP2 MSTORE PUSH1 0x20 ADD DUP3 DUP1 SLOAD PUSH2 0x398 SWAP1 PUSH2 0x18CA JUMP JUMPDEST DUP1 ISZERO PUSH2 0x3E5 JUMPI DUP1 PUSH1 0x1F LT PUSH2 0x3BA JUMPI PUSH2 0x100 DUP1 DUP4 SLOAD DIV MUL DUP4 MSTORE SWAP2 PUSH1 0x20 ADD SWAP2 PUSH2 0x3E5 JUMP JUMPDEST DUP3 ADD SWAP2 SWAP1 PUSH1 0x0 MSTORE PUSH1 0x20 PUSH1 0x0 KECCAK256 SWAP1 JUMPDEST DUP2 SLOAD DUP2 MSTORE SWAP1 PUSH1 0x1 ADD SWAP1 PUSH1 0x20 ADD DUP1 DUP4 GT PUSH2 0x3C8 JUMPI DUP3 SWAP1 SUB PUSH1 0x1F AND DUP3 ADD SWAP2 JUMPDEST POP POP POP POP POP DUP2 JUMP JUMPDEST PUSH1 0x0 DUP2 PUSH1 0x8 PUSH1 0x0 CALLER PUSH20 0xFFFFFFFFFFFFFFFFFFFFFFFFFFFFFFFFFFFFFFFF AND PUSH20 0xFFFFFFFFFFFFFFFFFFFFFFFFFFFFFFFFFFFFFFFF AND DUP2 MSTORE PUSH1 0x20 ADD SWAP1 DUP2 MSTORE PUSH1 0x20 ADD PUSH1 0x0 KECCAK256 PUSH1 0x0 DUP6 PUSH20 0xFFFFFFFFFFFFFFFFFFFFFFFFFFFFFFFFFFFFFFFF AND PUSH20 0xFFFFFFFFFFFFFFFFFFFFFFFFFFFFFFFFFFFFFFFF AND DUP2 MSTORE PUSH1 0x20 ADD SWAP1 DUP2 MSTORE PUSH1 0x20 ADD PUSH1 0x0 KECCAK256 DUP2 SWAP1 SSTORE POP DUP3 PUSH20 0xFFFFFFFFFFFFFFFFFFFFFFFFFFFFFFFFFFFFFFFF AND CALLER PUSH20 0xFFFFFFFFFFFFFFFFFFFFFFFFFFFFFFFFFFFFFFFF AND PUSH32 0x8C5BE1E5EBEC7D5BD14F71427D1E84F3DD0314C0F7B2291E5B200AC8C7C3B925 DUP5 PUSH1 0x40 MLOAD PUSH2 0x4CD SWAP2 SWAP1 PUSH2 0x16B6 JUMP JUMPDEST PUSH1 0x40 MLOAD DUP1 SWAP2 SUB SWAP1 LOG3 PUSH1 0x1 SWAP1 POP SWAP3 SWAP2 POP POP JUMP JUMPDEST PUSH1 0x4 SLOAD DUP2 JUMP JUMPDEST PUSH1 0x0 DUP2 PUSH1 0x8 PUSH1 0x0 DUP7 PUSH20 0xFFFFFFFFFFFFFFFFFFFFFFFFFFFFFFFFFFFFFFFF AND PUSH20 0xFFFFFFFFFFFFFFFFFFFFFFFFFFFFFFFFFFFFFFFF AND DUP2 MSTORE PUSH1 0x20 ADD SWAP1 DUP2 MSTORE PUSH1 0x20 ADD PUSH1 0x0 KECCAK256 PUSH1 0x0 CALLER PUSH20 0xFFFFFFFFFFFFFFFFFFFFFFFFFFFFFFFFFFFFFFFF AND PUSH20 0xFFFFFFFFFFFFFFFFFFFFFFFFFFFFFFFFFFFFFFFF AND DUP2 MSTORE PUSH1 0x20 ADD SWAP1 DUP2 MSTORE PUSH1 0x20 ADD PUSH1 0x0 KECCAK256 SLOAD LT ISZERO PUSH2 0x5A6 JUMPI PUSH1 0x40 MLOAD PUSH32 0x8C379A000000000000000000000000000000000000000000000000000000000 DUP2 MSTORE PUSH1 0x4 ADD PUSH2 0x59D SWAP1 PUSH2 0x1616 JUMP JUMPDEST PUSH1 0x40 MLOAD DUP1 SWAP2 SUB SWAP1 REVERT JUMPDEST PUSH2 0x635 DUP3 PUSH1 0x8 PUSH1 0x0 DUP8 PUSH20 0xFFFFFFFFFFFFFFFFFFFFFFFFFFFFFFFFFFFFFFFF AND PUSH20 0xFFFFFFFFFFFFFFFFFFFFFFFFFFFFFFFFFFFFFFFF AND DUP2 MSTORE PUSH1 0x20 ADD SWAP1 DUP2 MSTORE PUSH1 0x20 ADD PUSH1 0x0 KECCAK256 PUSH1 0x0 CALLER PUSH20 0xFFFFFFFFFFFFFFFFFFFFFFFFFFFFFFFFFFFFFFFF AND PUSH20 0xFFFFFFFFFFFFFFFFFFFFFFFFFFFFFFFFFFFFFFFF AND DUP2 MSTORE PUSH1 0x20 ADD SWAP1 DUP2 MSTORE PUSH1 0x20 ADD PUSH1 0x0 KECCAK256 SLOAD PUSH2 0xF22 SWAP1 SWAP2 SWAP1 PUSH4 0xFFFFFFFF AND JUMP JUMPDEST PUSH1 0x8 PUSH1 0x0 DUP7 PUSH20 0xFFFFFFFFFFFFFFFFFFFFFFFFFFFFFFFFFFFFFFFF AND PUSH20 0xFFFFFFFFFFFFFFFFFFFFFFFFFFFFFFFFFFFFFFFF AND DUP2 MSTORE PUSH1 0x20 ADD SWAP1 DUP2 MSTORE PUSH1 0x20 ADD PUSH1 0x0 KECCAK256 PUSH1 0x0 CALLER PUSH20 0xFFFFFFFFFFFFFFFFFFFFFFFFFFFFFFFFFFFFFFFF AND PUSH20 0xFFFFFFFFFFFFFFFFFFFFFFFFFFFFFFFFFFFFFFFF AND DUP2 MSTORE PUSH1 0x20 ADD SWAP1 DUP2 MSTORE PUSH1 0x20 ADD PUSH1 0x0 KECCAK256 DUP2 SWAP1 SSTORE POP PUSH2 0x6C0 DUP5 DUP5 DUP5 PUSH2 0xF38 JUMP JUMPDEST PUSH1 0x1 SWAP1 POP SWAP4 SWAP3 POP POP POP JUMP JUMPDEST PUSH1 0x7 PUSH1 0x20 MSTORE DUP1 PUSH1 0x0 MSTORE PUSH1 0x40 PUSH1 0x0 KECCAK256 PUSH1 0x0 SWAP2 POP SWAP1 POP SLOAD DUP2 JUMP JUMPDEST PUSH1 0x0 DUP1 SLOAD SWAP1 PUSH2 0x100 EXP SWAP1 DIV PUSH20 0xFFFFFFFFFFFFFFFFFFFFFFFFFFFFFFFFFFFFFFFF AND DUP2 JUMP JUMPDEST PUSH1 0x3 SLOAD DUP2 JUMP JUMPDEST PUSH1 0x8 PUSH1 0x20 MSTORE DUP2 PUSH1 0x0 MSTORE PUSH1 0x40 PUSH1 0x0 KECCAK256 PUSH1 0x20 MSTORE DUP1 PUSH1 0x0 MSTORE PUSH1 0x40 PUSH1 0x0 KECCAK256 PUSH1 0x0 SWAP2 POP SWAP2 POP POP SLOAD DUP2 JUMP JUMPDEST PUSH1 0x0 PUSH1 0x7 PUSH1 0x0 DUP4 PUSH20 0xFFFFFFFFFFFFFFFFFFFFFFFFFFFFFFFFFFFFFFFF AND PUSH20 0xFFFFFFFFFFFFFFFFFFFFFFFFFFFFFFFFFFFFFFFF AND DUP2 MSTORE PUSH1 0x20 ADD SWAP1 DUP2 MSTORE PUSH1 0x20 ADD PUSH1 0x0 KECCAK256 SLOAD SWAP1 POP SWAP2 SWAP1 POP JUMP JUMPDEST PUSH1 0x6 PUSH1 0x0 SWAP1 SLOAD SWAP1 PUSH2 0x100 EXP SWAP1 DIV PUSH20 0xFFFFFFFFFFFFFFFFFFFFFFFFFFFFFFFFFFFFFFFF AND DUP2 JUMP JUMPDEST PUSH1 0x0 PUSH2 0x7B8 PUSH1 0x5 SLOAD DUP4 PUSH2 0x11F5 SWAP1 SWAP2 SWAP1 PUSH4 0xFFFFFFFF AND JUMP JUMPDEST SWAP1 POP DUP2 PUSH1 0x0 DUP1 SLOAD SWAP1 PUSH2 0x100 EXP SWAP1 DIV PUSH20 0xFFFFFFFFFFFFFFFFFFFFFFFFFFFFFFFFFFFFFFFF AND PUSH20 0xFFFFFFFFFFFFFFFFFFFFFFFFFFFFFFFFFFFFFFFF AND PUSH4 0xDD62ED3E CALLER ADDRESS PUSH1 0x40 MLOAD DUP4 PUSH4 0xFFFFFFFF AND PUSH1 0xE0 SHL DUP2 MSTORE PUSH1 0x4 ADD PUSH2 0x816 SWAP3 SWAP2 SWAP1 PUSH2 0x1535 JUMP JUMPDEST PUSH1 0x20 PUSH1 0x40 MLOAD DUP1 DUP4 SUB DUP2 DUP7 DUP1 EXTCODESIZE ISZERO DUP1 ISZERO PUSH2 0x82E JUMPI PUSH1 0x0 DUP1 REVERT JUMPDEST POP GAS STATICCALL ISZERO DUP1 ISZERO PUSH2 0x842 JUMPI RETURNDATASIZE PUSH1 0x0 DUP1 RETURNDATACOPY RETURNDATASIZE PUSH1 0x0 REVERT JUMPDEST POP POP POP POP PUSH1 0x40 MLOAD RETURNDATASIZE PUSH1 0x1F NOT PUSH1 0x1F DUP3 ADD AND DUP3 ADD DUP1 PUSH1 0x40 MSTORE POP DUP2 ADD SWAP1 PUSH2 0x866 SWAP2 SWAP1 PUSH2 0x13CD JUMP JUMPDEST LT ISZERO PUSH2 0x8A7 JUMPI PUSH1 0x40 MLOAD PUSH32 0x8C379A000000000000000000000000000000000000000000000000000000000 DUP2 MSTORE PUSH1 0x4 ADD PUSH2 0x89E SWAP1 PUSH2 0x1616 JUMP JUMPDEST PUSH1 0x40 MLOAD DUP1 SWAP2 SUB SWAP1 REVERT JUMPDEST PUSH1 0x0 DUP1 SLOAD SWAP1 PUSH2 0x100 EXP SWAP1 DIV PUSH20 0xFFFFFFFFFFFFFFFFFFFFFFFFFFFFFFFFFFFFFFFF AND PUSH20 0xFFFFFFFFFFFFFFFFFFFFFFFFFFFFFFFFFFFFFFFF AND PUSH4 0x23B872DD CALLER ADDRESS DUP6 PUSH1 0x40 MLOAD DUP5 PUSH4 0xFFFFFFFF AND PUSH1 0xE0 SHL DUP2 MSTORE PUSH1 0x4 ADD PUSH2 0x904 SWAP4 SWAP3 SWAP2 SWAP1 PUSH2 0x155E JUMP JUMPDEST PUSH1 0x20 PUSH1 0x40 MLOAD DUP1 DUP4 SUB DUP2 PUSH1 0x0 DUP8 DUP1 EXTCODESIZE ISZERO DUP1 ISZERO PUSH2 0x91E JUMPI PUSH1 0x0 DUP1 REVERT JUMPDEST POP GAS CALL ISZERO DUP1 ISZERO PUSH2 0x932 JUMPI RETURNDATASIZE PUSH1 0x0 DUP1 RETURNDATACOPY RETURNDATASIZE PUSH1 0x0 REVERT JUMPDEST POP POP POP POP PUSH1 0x40 MLOAD RETURNDATASIZE PUSH1 0x1F NOT PUSH1 0x1F DUP3 ADD AND DUP3 ADD DUP1 PUSH1 0x40 MSTORE POP DUP2 ADD SWAP1 PUSH2 0x956 SWAP2 SWAP1 PUSH2 0x137B JUMP JUMPDEST PUSH2 0x995 JUMPI PUSH1 0x40 MLOAD PUSH32 0x8C379A000000000000000000000000000000000000000000000000000000000 DUP2 MSTORE PUSH1 0x4 ADD PUSH2 0x98C SWAP1 PUSH2 0x1676 JUMP JUMPDEST PUSH1 0x40 MLOAD DUP1 SWAP2 SUB SWAP1 REVERT JUMPDEST PUSH2 0x9E7 DUP2 PUSH1 0x7 PUSH1 0x0 CALLER PUSH20 0xFFFFFFFFFFFFFFFFFFFFFFFFFFFFFFFFFFFFFFFF AND PUSH20 0xFFFFFFFFFFFFFFFFFFFFFFFFFFFFFFFFFFFFFFFF AND DUP2 MSTORE PUSH1 0x20 ADD SWAP1 DUP2 MSTORE PUSH1 0x20 ADD PUSH1 0x0 KECCAK256 SLOAD PUSH2 0x120B SWAP1 SWAP2 SWAP1 PUSH4 0xFFFFFFFF AND JUMP JUMPDEST PUSH1 0x7 PUSH1 0x0 CALLER PUSH20 0xFFFFFFFFFFFFFFFFFFFFFFFFFFFFFFFFFFFFFFFF AND PUSH20 0xFFFFFFFFFFFFFFFFFFFFFFFFFFFFFFFFFFFFFFFF AND DUP2 MSTORE PUSH1 0x20 ADD SWAP1 DUP2 MSTORE PUSH1 0x20 ADD PUSH1 0x0 KECCAK256 DUP2 SWAP1 SSTORE POP PUSH2 0xA3F DUP2 PUSH1 0x4 SLOAD PUSH2 0x120B SWAP1 SWAP2 SWAP1 PUSH4 0xFFFFFFFF AND JUMP JUMPDEST PUSH1 0x4 DUP2 SWAP1 SSTORE POP CALLER PUSH20 0xFFFFFFFFFFFFFFFFFFFFFFFFFFFFFFFFFFFFFFFF AND PUSH1 0x0 PUSH20 0xFFFFFFFFFFFFFFFFFFFFFFFFFFFFFFFFFFFFFFFF AND PUSH32 0xDDF252AD1BE2C89B69C2B068FC378DAA952BA7F163C4A11628F55A4DF523B3EF DUP4 PUSH1 0x40 MLOAD PUSH2 0xAA3 SWAP2 SWAP1 PUSH2 0x16B6 JUMP JUMPDEST PUSH1 0x40 MLOAD DUP1 SWAP2 SUB SWAP1 LOG3 CALLER PUSH20 0xFFFFFFFFFFFFFFFFFFFFFFFFFFFFFFFFFFFFFFFF AND PUSH32 0xE290C002CBAC2415677AE4CC3941E55C4D4C03145539BC16EB9516662C806B51 DUP4 DUP4 PUSH1 0x40 MLOAD PUSH2 0xAF3 SWAP3 SWAP2 SWAP1 PUSH2 0x16D1 JUMP JUMPDEST PUSH1 0x40 MLOAD DUP1 SWAP2 SUB SWAP1 LOG2 POP POP JUMP JUMPDEST PUSH1 0x2 DUP1 SLOAD PUSH2 0xB0C SWAP1 PUSH2 0x18CA JUMP JUMPDEST DUP1 PUSH1 0x1F ADD PUSH1 0x20 DUP1 SWAP2 DIV MUL PUSH1 0x20 ADD PUSH1 0x40 MLOAD SWAP1 DUP2 ADD PUSH1 0x40 MSTORE DUP1 SWAP3 SWAP2 SWAP1 DUP2 DUP2 MSTORE PUSH1 0x20 ADD DUP3 DUP1 SLOAD PUSH2 0xB38 SWAP1 PUSH2 0x18CA JUMP JUMPDEST DUP1 ISZERO PUSH2 0xB85 JUMPI DUP1 PUSH1 0x1F LT PUSH2 0xB5A JUMPI PUSH2 0x100 DUP1 DUP4 SLOAD DIV MUL DUP4 MSTORE SWAP2 PUSH1 0x20 ADD SWAP2 PUSH2 0xB85 JUMP JUMPDEST DUP3 ADD SWAP2 SWAP1 PUSH1 0x0 MSTORE PUSH1 0x20 PUSH1 0x0 KECCAK256 SWAP1 JUMPDEST DUP2 SLOAD DUP2 MSTORE SWAP1 PUSH1 0x1 ADD SWAP1 PUSH1 0x20 ADD DUP1 DUP4 GT PUSH2 0xB68 JUMPI DUP3 SWAP1 SUB PUSH1 0x1F AND DUP3 ADD SWAP2 JUMPDEST POP POP POP POP POP DUP2 JUMP JUMPDEST DUP1 PUSH1 0x7 PUSH1 0x0 CALLER PUSH20 0xFFFFFFFFFFFFFFFFFFFFFFFFFFFFFFFFFFFFFFFF AND PUSH20 0xFFFFFFFFFFFFFFFFFFFFFFFFFFFFFFFFFFFFFFFF AND DUP2 MSTORE PUSH1 0x20 ADD SWAP1 DUP2 MSTORE PUSH1 0x20 ADD PUSH1 0x0 KECCAK256 SLOAD LT ISZERO PUSH2 0xC0F JUMPI PUSH1 0x40 MLOAD PUSH32 0x8C379A000000000000000000000000000000000000000000000000000000000 DUP2 MSTORE PUSH1 0x4 ADD PUSH2 0xC06 SWAP1 PUSH2 0x1636 JUMP JUMPDEST PUSH1 0x40 MLOAD DUP1 SWAP2 SUB SWAP1 REVERT JUMPDEST PUSH2 0xC61 DUP2 PUSH1 0x7 PUSH1 0x0 CALLER PUSH20 0xFFFFFFFFFFFFFFFFFFFFFFFFFFFFFFFFFFFFFFFF AND PUSH20 0xFFFFFFFFFFFFFFFFFFFFFFFFFFFFFFFFFFFFFFFF AND DUP2 MSTORE PUSH1 0x20 ADD SWAP1 DUP2 MSTORE PUSH1 0x20 ADD PUSH1 0x0 KECCAK256 SLOAD PUSH2 0xF22 SWAP1 SWAP2 SWAP1 PUSH4 0xFFFFFFFF AND JUMP JUMPDEST PUSH1 0x7 PUSH1 0x0 CALLER PUSH20 0xFFFFFFFFFFFFFFFFFFFFFFFFFFFFFFFFFFFFFFFF AND PUSH20 0xFFFFFFFFFFFFFFFFFFFFFFFFFFFFFFFFFFFFFFFF AND DUP2 MSTORE PUSH1 0x20 ADD SWAP1 DUP2 MSTORE PUSH1 0x20 ADD PUSH1 0x0 KECCAK256 DUP2 SWAP1 SSTORE POP PUSH2 0xCB9 DUP2 PUSH1 0x4 SLOAD PUSH2 0xF22 SWAP1 SWAP2 SWAP1 PUSH4 0xFFFFFFFF AND JUMP JUMPDEST PUSH1 0x4 DUP2 SWAP1 SSTORE POP PUSH1 0x0 PUSH2 0xCD6 PUSH1 0x5 SLOAD DUP4 PUSH2 0x1221 SWAP1 SWAP2 SWAP1 PUSH4 0xFFFFFFFF AND JUMP JUMPDEST SWAP1 POP PUSH1 0x0 DUP1 SLOAD SWAP1 PUSH2 0x100 EXP SWAP1 DIV PUSH20 0xFFFFFFFFFFFFFFFFFFFFFFFFFFFFFFFFFFFFFFFF AND PUSH20 0xFFFFFFFFFFFFFFFFFFFFFFFFFFFFFFFFFFFFFFFF AND PUSH4 0xA9059CBB CALLER DUP4 PUSH1 0x40 MLOAD DUP4 PUSH4 0xFFFFFFFF AND PUSH1 0xE0 SHL DUP2 MSTORE PUSH1 0x4 ADD PUSH2 0xD33 SWAP3 SWAP2 SWAP1 PUSH2 0x1595 JUMP JUMPDEST PUSH1 0x20 PUSH1 0x40 MLOAD DUP1 DUP4 SUB DUP2 PUSH1 0x0 DUP8 DUP1 EXTCODESIZE ISZERO DUP1 ISZERO PUSH2 0xD4D JUMPI PUSH1 0x0 DUP1 REVERT JUMPDEST POP GAS CALL ISZERO DUP1 ISZERO PUSH2 0xD61 JUMPI RETURNDATASIZE PUSH1 0x0 DUP1 RETURNDATACOPY RETURNDATASIZE PUSH1 0x0 REVERT JUMPDEST POP POP POP POP PUSH1 0x40 MLOAD RETURNDATASIZE PUSH1 0x1F NOT PUSH1 0x1F DUP3 ADD AND DUP3 ADD DUP1 PUSH1 0x40 MSTORE POP DUP2 ADD SWAP1 PUSH2 0xD85 SWAP2 SWAP1 PUSH2 0x137B JUMP JUMPDEST PUSH2 0xDC4 JUMPI PUSH1 0x40 MLOAD PUSH32 0x8C379A000000000000000000000000000000000000000000000000000000000 DUP2 MSTORE PUSH1 0x4 ADD PUSH2 0xDBB SWAP1 PUSH2 0x1676 JUMP JUMPDEST PUSH1 0x40 MLOAD DUP1 SWAP2 SUB SWAP1 REVERT JUMPDEST PUSH1 0x0 PUSH20 0xFFFFFFFFFFFFFFFFFFFFFFFFFFFFFFFFFFFFFFFF AND CALLER PUSH20 0xFFFFFFFFFFFFFFFFFFFFFFFFFFFFFFFFFFFFFFFF AND PUSH32 0xDDF252AD1BE2C89B69C2B068FC378DAA952BA7F163C4A11628F55A4DF523B3EF DUP5 PUSH1 0x40 MLOAD PUSH2 0xE22 SWAP2 SWAP1 PUSH2 0x16B6 JUMP JUMPDEST PUSH1 0x40 MLOAD DUP1 SWAP2 SUB SWAP1 LOG3 CALLER PUSH20 0xFFFFFFFFFFFFFFFFFFFFFFFFFFFFFFFFFFFFFFFF AND PUSH32 0x9B9A581D969359BE3D456613E9E95901B643C75B7B9F369F45494E7151DEB03F DUP4 DUP4 PUSH1 0x40 MLOAD PUSH2 0xE72 SWAP3 SWAP2 SWAP1 PUSH2 0x16D1 JUMP JUMPDEST PUSH1 0x40 MLOAD DUP1 SWAP2 SUB SWAP1 LOG2 POP POP JUMP JUMPDEST PUSH1 0x0 PUSH2 0xE8B CALLER DUP5 DUP5 PUSH2 0xF38 JUMP JUMPDEST PUSH1 0x1 SWAP1 POP SWAP3 SWAP2 POP POP JUMP JUMPDEST PUSH1 0x0 PUSH1 0x8 PUSH1 0x0 DUP5 PUSH20 0xFFFFFFFFFFFFFFFFFFFFFFFFFFFFFFFFFFFFFFFF AND PUSH20 0xFFFFFFFFFFFFFFFFFFFFFFFFFFFFFFFFFFFFFFFF AND DUP2 MSTORE PUSH1 0x20 ADD SWAP1 DUP2 MSTORE PUSH1 0x20 ADD PUSH1 0x0 KECCAK256 PUSH1 0x0 DUP4 PUSH20 0xFFFFFFFFFFFFFFFFFFFFFFFFFFFFFFFFFFFFFFFF AND PUSH20 0xFFFFFFFFFFFFFFFFFFFFFFFFFFFFFFFFFFFFFFFF AND DUP2 MSTORE PUSH1 0x20 ADD SWAP1 DUP2 MSTORE PUSH1 0x20 ADD PUSH1 0x0 KECCAK256 SLOAD SWAP1 POP SWAP3 SWAP2 POP POP JUMP JUMPDEST PUSH1 0x5 SLOAD DUP2 JUMP JUMPDEST PUSH1 0x0 DUP2 DUP4 PUSH2 0xF30 SWAP2 SWAP1 PUSH2 0x17F7 JUMP JUMPDEST SWAP1 POP SWAP3 SWAP2 POP POP JUMP JUMPDEST PUSH1 0x0 PUSH20 0xFFFFFFFFFFFFFFFFFFFFFFFFFFFFFFFFFFFFFFFF AND DUP4 PUSH20 0xFFFFFFFFFFFFFFFFFFFFFFFFFFFFFFFFFFFFFFFF AND EQ ISZERO PUSH2 0xFA8 JUMPI PUSH1 0x40 MLOAD PUSH32 0x8C379A000000000000000000000000000000000000000000000000000000000 DUP2 MSTORE PUSH1 0x4 ADD PUSH2 0xF9F SWAP1 PUSH2 0x1656 JUMP JUMPDEST PUSH1 0x40 MLOAD DUP1 SWAP2 SUB SWAP1 REVERT JUMPDEST PUSH1 0x0 PUSH20 0xFFFFFFFFFFFFFFFFFFFFFFFFFFFFFFFFFFFFFFFF AND DUP3 PUSH20 0xFFFFFFFFFFFFFFFFFFFFFFFFFFFFFFFFFFFFFFFF AND EQ ISZERO PUSH2 0x1018 JUMPI PUSH1 0x40 MLOAD PUSH32 0x8C379A000000000000000000000000000000000000000000000000000000000 DUP2 MSTORE PUSH1 0x4 ADD PUSH2 0x100F SWAP1 PUSH2 0x1696 JUMP JUMPDEST PUSH1 0x40 MLOAD DUP1 SWAP2 SUB SWAP1 REVERT JUMPDEST PUSH1 0x0 PUSH1 0x7 PUSH1 0x0 DUP6 PUSH20 0xFFFFFFFFFFFFFFFFFFFFFFFFFFFFFFFFFFFFFFFF AND PUSH20 0xFFFFFFFFFFFFFFFFFFFFFFFFFFFFFFFFFFFFFFFF AND DUP2 MSTORE PUSH1 0x20 ADD SWAP1 DUP2 MSTORE PUSH1 0x20 ADD PUSH1 0x0 KECCAK256 SLOAD SWAP1 POP DUP2 DUP2 LT ISZERO PUSH2 0x109F JUMPI PUSH1 0x40 MLOAD PUSH32 0x8C379A000000000000000000000000000000000000000000000000000000000 DUP2 MSTORE PUSH1 0x4 ADD PUSH2 0x1096 SWAP1 PUSH2 0x1636 JUMP JUMPDEST PUSH1 0x40 MLOAD DUP1 SWAP2 SUB SWAP1 REVERT JUMPDEST PUSH2 0x10B2 DUP3 DUP3 PUSH2 0xF22 SWAP1 SWAP2 SWAP1 PUSH4 0xFFFFFFFF AND JUMP JUMPDEST PUSH1 0x7 PUSH1 0x0 DUP7 PUSH20 0xFFFFFFFFFFFFFFFFFFFFFFFFFFFFFFFFFFFFFFFF AND PUSH20 0xFFFFFFFFFFFFFFFFFFFFFFFFFFFFFFFFFFFFFFFF AND DUP2 MSTORE PUSH1 0x20 ADD SWAP1 DUP2 MSTORE PUSH1 0x20 ADD PUSH1 0x0 KECCAK256 DUP2 SWAP1 SSTORE POP PUSH2 0x1147 DUP3 PUSH1 0x7 PUSH1 0x0 DUP7 PUSH20 0xFFFFFFFFFFFFFFFFFFFFFFFFFFFFFFFFFFFFFFFF AND PUSH20 0xFFFFFFFFFFFFFFFFFFFFFFFFFFFFFFFFFFFFFFFF AND DUP2 MSTORE PUSH1 0x20 ADD SWAP1 DUP2 MSTORE PUSH1 0x20 ADD PUSH1 0x0 KECCAK256 SLOAD PUSH2 0x120B SWAP1 SWAP2 SWAP1 PUSH4 0xFFFFFFFF AND JUMP JUMPDEST PUSH1 0x7 PUSH1 0x0 DUP6 PUSH20 0xFFFFFFFFFFFFFFFFFFFFFFFFFFFFFFFFFFFFFFFF AND PUSH20 0xFFFFFFFFFFFFFFFFFFFFFFFFFFFFFFFFFFFFFFFF AND DUP2 MSTORE PUSH1 0x20 ADD SWAP1 DUP2 MSTORE PUSH1 0x20 ADD PUSH1 0x0 KECCAK256 DUP2 SWAP1 SSTORE POP DUP3 PUSH20 0xFFFFFFFFFFFFFFFFFFFFFFFFFFFFFFFFFFFFFFFF AND DUP5 PUSH20 0xFFFFFFFFFFFFFFFFFFFFFFFFFFFFFFFFFFFFFFFF AND PUSH32 0xDDF252AD1BE2C89B69C2B068FC378DAA952BA7F163C4A11628F55A4DF523B3EF DUP5 PUSH1 0x40 MLOAD PUSH2 0x11E7 SWAP2 SWAP1 PUSH2 0x16B6 JUMP JUMPDEST PUSH1 0x40 MLOAD DUP1 SWAP2 SUB SWAP1 LOG3 POP POP POP POP JUMP JUMPDEST PUSH1 0x0 DUP2 DUP4 PUSH2 0x1203 SWAP2 SWAP1 PUSH2 0x179D JUMP JUMPDEST SWAP1 POP SWAP3 SWAP2 POP POP JUMP JUMPDEST PUSH1 0x0 DUP2 DUP4 PUSH2 0x1219 SWAP2 SWAP1 PUSH2 0x1716 JUMP JUMPDEST SWAP1 POP SWAP3 SWAP2 POP POP JUMP JUMPDEST PUSH1 0x0 DUP2 DUP4 PUSH2 0x122F SWAP2 SWAP1 PUSH2 0x176C JUMP JUMPDEST SWAP1 POP SWAP3 SWAP2 POP POP JUMP JUMPDEST PUSH1 0x0 DUP2 CALLDATALOAD SWAP1 POP PUSH2 0x1246 DUP2 PUSH2 0x1A67 JUMP JUMPDEST SWAP3 SWAP2 POP POP JUMP JUMPDEST PUSH1 0x0 DUP2 MLOAD SWAP1 POP PUSH2 0x125B DUP2 PUSH2 0x1A7E JUMP JUMPDEST SWAP3 SWAP2 POP POP JUMP JUMPDEST PUSH1 0x0 DUP2 CALLDATALOAD SWAP1 POP PUSH2 0x1270 DUP2 PUSH2 0x1A95 JUMP JUMPDEST SWAP3 SWAP2 POP POP JUMP JUMPDEST PUSH1 0x0 DUP2 MLOAD SWAP1 POP PUSH2 0x1285 DUP2 PUSH2 0x1A95 JUMP JUMPDEST SWAP3 SWAP2 POP POP JUMP JUMPDEST PUSH1 0x0 PUSH1 0x20 DUP3 DUP5 SUB SLT ISZERO PUSH2 0x129D JUMPI PUSH1 0x0 DUP1 REVERT JUMPDEST PUSH1 0x0 PUSH2 0x12AB DUP5 DUP3 DUP6 ADD PUSH2 0x1237 JUMP JUMPDEST SWAP2 POP POP SWAP3 SWAP2 POP POP JUMP JUMPDEST PUSH1 0x0 DUP1 PUSH1 0x40 DUP4 DUP6 SUB SLT ISZERO PUSH2 0x12C7 JUMPI PUSH1 0x0 DUP1 REVERT JUMPDEST PUSH1 0x0 PUSH2 0x12D5 DUP6 DUP3 DUP7 ADD PUSH2 0x1237 JUMP JUMPDEST SWAP3 POP POP PUSH1 0x20 PUSH2 0x12E6 DUP6 DUP3 DUP7 ADD PUSH2 0x1237 JUMP JUMPDEST SWAP2 POP POP SWAP3 POP SWAP3 SWAP1 POP JUMP JUMPDEST PUSH1 0x0 DUP1 PUSH1 0x0 PUSH1 0x60 DUP5 DUP7 SUB SLT ISZERO PUSH2 0x1305 JUMPI PUSH1 0x0 DUP1 REVERT JUMPDEST PUSH1 0x0 PUSH2 0x1313 DUP7 DUP3 DUP8 ADD PUSH2 0x1237 JUMP JUMPDEST SWAP4 POP POP PUSH1 0x20 PUSH2 0x1324 DUP7 DUP3 DUP8 ADD PUSH2 0x1237 JUMP JUMPDEST SWAP3 POP POP PUSH1 0x40 PUSH2 0x1335 DUP7 DUP3 DUP8 ADD PUSH2 0x1261 JUMP JUMPDEST SWAP2 POP POP SWAP3 POP SWAP3 POP SWAP3 JUMP JUMPDEST PUSH1 0x0 DUP1 PUSH1 0x40 DUP4 DUP6 SUB SLT ISZERO PUSH2 0x1352 JUMPI PUSH1 0x0 DUP1 REVERT JUMPDEST PUSH1 0x0 PUSH2 0x1360 DUP6 DUP3 DUP7 ADD PUSH2 0x1237 JUMP JUMPDEST SWAP3 POP POP PUSH1 0x20 PUSH2 0x1371 DUP6 DUP3 DUP7 ADD PUSH2 0x1261 JUMP JUMPDEST SWAP2 POP POP SWAP3 POP SWAP3 SWAP1 POP JUMP JUMPDEST PUSH1 0x0 PUSH1 0x20 DUP3 DUP5 SUB SLT ISZERO PUSH2 0x138D JUMPI PUSH1 0x0 DUP1 REVERT JUMPDEST PUSH1 0x0 PUSH2 0x139B DUP5 DUP3 DUP6 ADD PUSH2 0x124C JUMP JUMPDEST SWAP2 POP POP SWAP3 SWAP2 POP POP JUMP JUMPDEST PUSH1 0x0 PUSH1 0x20 DUP3 DUP5 SUB SLT ISZERO PUSH2 0x13B6 JUMPI PUSH1 0x0 DUP1 REVERT JUMPDEST PUSH1 0x0 PUSH2 0x13C4 DUP5 DUP3 DUP6 ADD PUSH2 0x1261 JUMP JUMPDEST SWAP2 POP POP SWAP3 SWAP2 POP POP JUMP JUMPDEST PUSH1 0x0 PUSH1 0x20 DUP3 DUP5 SUB SLT ISZERO PUSH2 0x13DF JUMPI PUSH1 0x0 DUP1 REVERT JUMPDEST PUSH1 0x0 PUSH2 0x13ED DUP5 DUP3 DUP6 ADD PUSH2 0x1276 JUMP JUMPDEST SWAP2 POP POP SWAP3 SWAP2 POP POP JUMP JUMPDEST PUSH2 0x13FF DUP2 PUSH2 0x182B JUMP JUMPDEST DUP3 MSTORE POP POP JUMP JUMPDEST PUSH2 0x140E DUP2 PUSH2 0x183D JUMP JUMPDEST DUP3 MSTORE POP POP JUMP JUMPDEST PUSH2 0x141D DUP2 PUSH2 0x1873 JUMP JUMPDEST DUP3 MSTORE POP POP JUMP JUMPDEST PUSH1 0x0 PUSH2 0x142E DUP3 PUSH2 0x16FA JUMP JUMPDEST PUSH2 0x1438 DUP2 DUP6 PUSH2 0x1705 JUMP JUMPDEST SWAP4 POP PUSH2 0x1448 DUP2 DUP6 PUSH1 0x20 DUP7 ADD PUSH2 0x1897 JUMP JUMPDEST PUSH2 0x1451 DUP2 PUSH2 0x1989 JUMP JUMPDEST DUP5 ADD SWAP2 POP POP SWAP3 SWAP2 POP POP JUMP JUMPDEST PUSH1 0x0 PUSH2 0x1469 PUSH1 0x16 DUP4 PUSH2 0x1705 JUMP JUMPDEST SWAP2 POP PUSH2 0x1474 DUP3 PUSH2 0x199A JUMP JUMPDEST PUSH1 0x20 DUP3 ADD SWAP1 POP SWAP2 SWAP1 POP JUMP JUMPDEST PUSH1 0x0 PUSH2 0x148C PUSH1 0x14 DUP4 PUSH2 0x1705 JUMP JUMPDEST SWAP2 POP PUSH2 0x1497 DUP3 PUSH2 0x19C3 JUMP JUMPDEST PUSH1 0x20 DUP3 ADD SWAP1 POP SWAP2 SWAP1 POP JUMP JUMPDEST PUSH1 0x0 PUSH2 0x14AF PUSH1 0x1A DUP4 PUSH2 0x1705 JUMP JUMPDEST SWAP2 POP PUSH2 0x14BA DUP3 PUSH2 0x19EC JUMP JUMPDEST PUSH1 0x20 DUP3 ADD SWAP1 POP SWAP2 SWAP1 POP JUMP JUMPDEST PUSH1 0x0 PUSH2 0x14D2 PUSH1 0x14 DUP4 PUSH2 0x1705 JUMP JUMPDEST SWAP2 POP PUSH2 0x14DD DUP3 PUSH2 0x1A15 JUMP JUMPDEST PUSH1 0x20 DUP3 ADD SWAP1 POP SWAP2 SWAP1 POP JUMP JUMPDEST PUSH1 0x0 PUSH2 0x14F5 PUSH1 0x18 DUP4 PUSH2 0x1705 JUMP JUMPDEST SWAP2 POP PUSH2 0x1500 DUP3 PUSH2 0x1A3E JUMP JUMPDEST PUSH1 0x20 DUP3 ADD SWAP1 POP SWAP2 SWAP1 POP JUMP JUMPDEST PUSH2 0x1514 DUP2 PUSH2 0x1869 JUMP JUMPDEST DUP3 MSTORE POP POP JUMP JUMPDEST PUSH1 0x0 PUSH1 0x20 DUP3 ADD SWAP1 POP PUSH2 0x152F PUSH1 0x0 DUP4 ADD DUP5 PUSH2 0x13F6 JUMP JUMPDEST SWAP3 SWAP2 POP POP JUMP JUMPDEST PUSH1 0x0 PUSH1 0x40 DUP3 ADD SWAP1 POP PUSH2 0x154A PUSH1 0x0 DUP4 ADD DUP6 PUSH2 0x13F6 JUMP JUMPDEST PUSH2 0x1557 PUSH1 0x20 DUP4 ADD DUP5 PUSH2 0x13F6 JUMP JUMPDEST SWAP4 SWAP3 POP POP POP JUMP JUMPDEST PUSH1 0x0 PUSH1 0x60 DUP3 ADD SWAP1 POP PUSH2 0x1573 PUSH1 0x0 DUP4 ADD DUP7 PUSH2 0x13F6 JUMP JUMPDEST PUSH2 0x1580 PUSH1 0x20 DUP4 ADD DUP6 PUSH2 0x13F6 JUMP JUMPDEST PUSH2 0x158D PUSH1 0x40 DUP4 ADD DUP5 PUSH2 0x150B JUMP JUMPDEST SWAP5 SWAP4 POP POP POP POP JUMP JUMPDEST PUSH1 0x0 PUSH1 0x40 DUP3 ADD SWAP1 POP PUSH2 0x15AA PUSH1 0x0 DUP4 ADD DUP6 PUSH2 0x13F6 JUMP JUMPDEST PUSH2 0x15B7 PUSH1 0x20 DUP4 ADD DUP5 PUSH2 0x150B JUMP JUMPDEST SWAP4 SWAP3 POP POP POP JUMP JUMPDEST PUSH1 0x0 PUSH1 0x20 DUP3 ADD SWAP1 POP PUSH2 0x15D3 PUSH1 0x0 DUP4 ADD DUP5 PUSH2 0x1405 JUMP JUMPDEST SWAP3 SWAP2 POP POP JUMP JUMPDEST PUSH1 0x0 PUSH1 0x20 DUP3 ADD SWAP1 POP PUSH2 0x15EE PUSH1 0x0 DUP4 ADD DUP5 PUSH2 0x1414 JUMP JUMPDEST SWAP3 SWAP2 POP POP JUMP JUMPDEST PUSH1 0x0 PUSH1 0x20 DUP3 ADD SWAP1 POP DUP2 DUP2 SUB PUSH1 0x0 DUP4 ADD MSTORE PUSH2 0x160E DUP2 DUP5 PUSH2 0x1423 JUMP JUMPDEST SWAP1 POP SWAP3 SWAP2 POP POP JUMP JUMPDEST PUSH1 0x0 PUSH1 0x20 DUP3 ADD SWAP1 POP DUP2 DUP2 SUB PUSH1 0x0 DUP4 ADD MSTORE PUSH2 0x162F DUP2 PUSH2 0x145C JUMP JUMPDEST SWAP1 POP SWAP2 SWAP1 POP JUMP JUMPDEST PUSH1 0x0 PUSH1 0x20 DUP3 ADD SWAP1 POP DUP2 DUP2 SUB PUSH1 0x0 DUP4 ADD MSTORE PUSH2 0x164F DUP2 PUSH2 0x147F JUMP JUMPDEST SWAP1 POP SWAP2 SWAP1 POP JUMP JUMPDEST PUSH1 0x0 PUSH1 0x20 DUP3 ADD SWAP1 POP DUP2 DUP2 SUB PUSH1 0x0 DUP4 ADD MSTORE PUSH2 0x166F DUP2 PUSH2 0x14A2 JUMP JUMPDEST SWAP1 POP SWAP2 SWAP1 POP JUMP JUMPDEST PUSH1 0x0 PUSH1 0x20 DUP3 ADD SWAP1 POP DUP2 DUP2 SUB PUSH1 0x0 DUP4 ADD MSTORE PUSH2 0x168F DUP2 PUSH2 0x14C5 JUMP JUMPDEST SWAP1 POP SWAP2 SWAP1 POP JUMP JUMPDEST PUSH1 0x0 PUSH1 0x20 DUP3 ADD SWAP1 POP DUP2 DUP2 SUB PUSH1 0x0 DUP4 ADD MSTORE PUSH2 0x16AF DUP2 PUSH2 0x14E8 JUMP JUMPDEST SWAP1 POP SWAP2 SWAP1 POP JUMP JUMPDEST PUSH1 0x0 PUSH1 0x20 DUP3 ADD SWAP1 POP PUSH2 0x16CB PUSH1 0x0 DUP4 ADD DUP5 PUSH2 0x150B JUMP JUMPDEST SWAP3 SWAP2 POP POP JUMP JUMPDEST PUSH1 0x0 PUSH1 0x40 DUP3 ADD SWAP1 POP PUSH2 0x16E6 PUSH1 0x0 DUP4 ADD DUP6 PUSH2 0x150B JUMP JUMPDEST PUSH2 0x16F3 PUSH1 0x20 DUP4 ADD DUP5 PUSH2 0x150B JUMP JUMPDEST SWAP4 SWAP3 POP POP POP JUMP JUMPDEST PUSH1 0x0 DUP2 MLOAD SWAP1 POP SWAP2 SWAP1 POP JUMP JUMPDEST PUSH1 0x0 DUP3 DUP3 MSTORE PUSH1 0x20 DUP3 ADD SWAP1 POP SWAP3 SWAP2 POP POP JUMP JUMPDEST PUSH1 0x0 PUSH2 0x1721 DUP3 PUSH2 0x1869 JUMP JUMPDEST SWAP2 POP PUSH2 0x172C DUP4 PUSH2 0x1869 JUMP JUMPDEST SWAP3 POP DUP3 PUSH32 0xFFFFFFFFFFFFFFFFFFFFFFFFFFFFFFFFFFFFFFFFFFFFFFFFFFFFFFFFFFFFFFFF SUB DUP3 GT ISZERO PUSH2 0x1761 JUMPI PUSH2 0x1760 PUSH2 0x18FC JUMP JUMPDEST JUMPDEST DUP3 DUP3 ADD SWAP1 POP SWAP3 SWAP2 POP POP JUMP JUMPDEST PUSH1 0x0 PUSH2 0x1777 DUP3 PUSH2 0x1869 JUMP JUMPDEST SWAP2 POP PUSH2 0x1782 DUP4 PUSH2 0x1869 JUMP JUMPDEST SWAP3 POP DUP3 PUSH2 0x1792 JUMPI PUSH2 0x1791 PUSH2 0x192B JUMP JUMPDEST JUMPDEST DUP3 DUP3 DIV SWAP1 POP SWAP3 SWAP2 POP POP JUMP JUMPDEST PUSH1 0x0 PUSH2 0x17A8 DUP3 PUSH2 0x1869 JUMP JUMPDEST SWAP2 POP PUSH2 0x17B3 DUP4 PUSH2 0x1869 JUMP JUMPDEST SWAP3 POP DUP2 PUSH32 0xFFFFFFFFFFFFFFFFFFFFFFFFFFFFFFFFFFFFFFFFFFFFFFFFFFFFFFFFFFFFFFFF DIV DUP4 GT DUP3 ISZERO ISZERO AND ISZERO PUSH2 0x17EC JUMPI PUSH2 0x17EB PUSH2 0x18FC JUMP JUMPDEST JUMPDEST DUP3 DUP3 MUL SWAP1 POP SWAP3 SWAP2 POP POP JUMP JUMPDEST PUSH1 0x0 PUSH2 0x1802 DUP3 PUSH2 0x1869 JUMP JUMPDEST SWAP2 POP PUSH2 0x180D DUP4 PUSH2 0x1869 JUMP JUMPDEST SWAP3 POP DUP3 DUP3 LT ISZERO PUSH2 0x1820 JUMPI PUSH2 0x181F PUSH2 0x18FC JUMP JUMPDEST JUMPDEST DUP3 DUP3 SUB SWAP1 POP SWAP3 SWAP2 POP POP JUMP JUMPDEST PUSH1 0x0 PUSH2 0x1836 DUP3 PUSH2 0x1849 JUMP JUMPDEST SWAP1 POP SWAP2 SWAP1 POP JUMP JUMPDEST PUSH1 0x0 DUP2 ISZERO ISZERO SWAP1 POP SWAP2 SWAP1 POP JUMP JUMPDEST PUSH1 0x0 PUSH20 0xFFFFFFFFFFFFFFFFFFFFFFFFFFFFFFFFFFFFFFFF DUP3 AND SWAP1 POP SWAP2 SWAP1 POP JUMP JUMPDEST PUSH1 0x0 DUP2 SWAP1 POP SWAP2 SWAP1 POP JUMP JUMPDEST PUSH1 0x0 PUSH2 0x187E DUP3 PUSH2 0x1885 JUMP JUMPDEST SWAP1 POP SWAP2 SWAP1 POP JUMP JUMPDEST PUSH1 0x0 PUSH2 0x1890 DUP3 PUSH2 0x1849 JUMP JUMPDEST SWAP1 POP SWAP2 SWAP1 POP JUMP JUMPDEST PUSH1 0x0 JUMPDEST DUP4 DUP2 LT ISZERO PUSH2 0x18B5 JUMPI DUP1 DUP3 ADD MLOAD DUP2 DUP5 ADD MSTORE PUSH1 0x20 DUP2 ADD SWAP1 POP PUSH2 0x189A JUMP JUMPDEST DUP4 DUP2 GT ISZERO PUSH2 0x18C4 JUMPI PUSH1 0x0 DUP5 DUP5 ADD MSTORE JUMPDEST POP POP POP POP JUMP JUMPDEST PUSH1 0x0 PUSH1 0x2 DUP3 DIV SWAP1 POP PUSH1 0x1 DUP3 AND DUP1 PUSH2 0x18E2 JUMPI PUSH1 0x7F DUP3 AND SWAP2 POP JUMPDEST PUSH1 0x20 DUP3 LT DUP2 EQ ISZERO PUSH2 0x18F6 JUMPI PUSH2 0x18F5 PUSH2 0x195A JUMP JUMPDEST JUMPDEST POP SWAP2 SWAP1 POP JUMP JUMPDEST PUSH32 0x4E487B7100000000000000000000000000000000000000000000000000000000 PUSH1 0x0 MSTORE PUSH1 0x11 PUSH1 0x4 MSTORE PUSH1 0x24 PUSH1 0x0 REVERT JUMPDEST PUSH32 0x4E487B7100000000000000000000000000000000000000000000000000000000 PUSH1 0x0 MSTORE PUSH1 0x12 PUSH1 0x4 MSTORE PUSH1 0x24 PUSH1 0x0 REVERT JUMPDEST PUSH32 0x4E487B7100000000000000000000000000000000000000000000000000000000 PUSH1 0x0 MSTORE PUSH1 0x22 PUSH1 0x4 MSTORE PUSH1 0x24 PUSH1 0x0 REVERT JUMPDEST PUSH1 0x0 PUSH1 0x1F NOT PUSH1 0x1F DUP4 ADD AND SWAP1 POP SWAP2 SWAP1 POP JUMP JUMPDEST PUSH32 0x496E73756666696369656E7420616C6C6F77616E636500000000000000000000 PUSH1 0x0 DUP3 ADD MSTORE POP JUMP JUMPDEST PUSH32 0x496E73756666696369656E742062616C616E6365000000000000000000000000 PUSH1 0x0 DUP3 ADD MSTORE POP JUMP JUMPDEST PUSH32 0x5472616E736665722066726F6D207A65726F2061646472657373000000000000 PUSH1 0x0 DUP3 ADD MSTORE POP JUMP JUMPDEST PUSH32 0x55534454207472616E73666572206661696C6564000000000000000000000000 PUSH1 0x0 DUP3 ADD MSTORE POP JUMP JUMPDEST PUSH32 0x5472616E7366657220746F207A65726F20616464726573730000000000000000 PUSH1 0x0 DUP3 ADD MSTORE POP JUMP JUMPDEST PUSH2 0x1A70 DUP2 PUSH2 0x182B JUMP JUMPDEST DUP2 EQ PUSH2 0x1A7B JUMPI PUSH1 0x0 DUP1 REVERT JUMPDEST POP JUMP JUMPDEST PUSH2 0x1A87 DUP2 PUSH2 0x183D JUMP JUMPDEST DUP2 EQ PUSH2 0x1A92 JUMPI PUSH1 0x0 DUP1 REVERT JUMPDEST POP JUMP JUMPDEST PUSH2 0x1A9E DUP2 PUSH2 0x1869 JUMP JUMPDEST DUP2 EQ PUSH2 0x1AA9 JUMPI PUSH1 0x0 DUP1 REVERT JUMPDEST POP JUMP INVALID LOG2 PUSH5 0x6970667358 0x22 SLT KECCAK256 0x4B 0xE8 0xD4 OR DELEGATECALL STATICCALL 0xD8 REVERT LOG3 0xB5 0xB7 0xC4 MSTORE 0x5F PUSH32 0x838ACBE6E2D5D87D61AE6F7CF54BB0262764736F6C6343000804003300000000 "
				},
				"gasEstimates": {
					"creation": {
						"codeDepositCost": "1376400",
						"executionCost": "infinite",
						"totalCost": "infinite"
					},
					"external": {
						"allowance(address,address)": "infinite",
						"allowances(address,address)": "infinite",
						"approve(address,uint256)": "infinite",
						"balanceOf(address)": "1564",
						"balances(address)": "1537",
						"buyEvic(uint256)": "infinite",
						"decimals()": "1196",
						"evicPrice()": "1217",
						"name()": "infinite",
						"owner()": "1259",
						"symbol()": "infinite",
						"totalSupply()": "1197",
						"transfer(address,uint256)": "infinite",
						"transferFrom(address,address,uint256)": "infinite",
						"usdt()": "1299",
						"withDrawEvic(uint256)": "infinite"
					},
					"internal": {
						"_transfer(address,address,uint256)": "infinite"
					}
				},
				"methodIdentifiers": {
					"allowance(address,address)": "dd62ed3e",
					"allowances(address,address)": "55b6ed5c",
					"approve(address,uint256)": "095ea7b3",
					"balanceOf(address)": "70a08231",
					"balances(address)": "27e235e3",
					"buyEvic(uint256)": "954724b4",
					"decimals()": "313ce567",
					"evicPrice()": "ef1f4b84",
					"name()": "06fdde03",
					"owner()": "8da5cb5b",
					"symbol()": "95d89b41",
					"totalSupply()": "18160ddd",
					"transfer(address,uint256)": "a9059cbb",
					"transferFrom(address,address,uint256)": "23b872dd",
					"usdt()": "2f48ab7d",
					"withDrawEvic(uint256)": "a604f570"
				}
			},
			"storageLayout": {
				"storage": [
					{
						"astId": 1051,
						"contract": "evic/EVIC.sol:EvicToken",
						"label": "usdt",
						"offset": 0,
						"slot": "0",
						"type": "t_contract(IERC20)77"
					},
					{
						"astId": 1054,
						"contract": "evic/EVIC.sol:EvicToken",
						"label": "name",
						"offset": 0,
						"slot": "1",
						"type": "t_string_storage"
					},
					{
						"astId": 1057,
						"contract": "evic/EVIC.sol:EvicToken",
						"label": "symbol",
						"offset": 0,
						"slot": "2",
						"type": "t_string_storage"
					},
					{
						"astId": 1060,
						"contract": "evic/EVIC.sol:EvicToken",
						"label": "decimals",
						"offset": 0,
						"slot": "3",
						"type": "t_uint256"
					},
					{
						"astId": 1062,
						"contract": "evic/EVIC.sol:EvicToken",
						"label": "totalSupply",
						"offset": 0,
						"slot": "4",
						"type": "t_uint256"
					},
					{
						"astId": 1064,
						"contract": "evic/EVIC.sol:EvicToken",
						"label": "evicPrice",
						"offset": 0,
						"slot": "5",
						"type": "t_uint256"
					},
					{
						"astId": 1066,
						"contract": "evic/EVIC.sol:EvicToken",
						"label": "owner",
						"offset": 0,
						"slot": "6",
						"type": "t_address"
					},
					{
						"astId": 1070,
						"contract": "evic/EVIC.sol:EvicToken",
						"label": "balances",
						"offset": 0,
						"slot": "7",
						"type": "t_mapping(t_address,t_uint256)"
					},
					{
						"astId": 1076,
						"contract": "evic/EVIC.sol:EvicToken",
						"label": "allowances",
						"offset": 0,
						"slot": "8",
						"type": "t_mapping(t_address,t_mapping(t_address,t_uint256))"
					}
				],
				"types": {
					"t_address": {
						"encoding": "inplace",
						"label": "address",
						"numberOfBytes": "20"
					},
					"t_contract(IERC20)77": {
						"encoding": "inplace",
						"label": "contract IERC20",
						"numberOfBytes": "20"
					},
					"t_mapping(t_address,t_mapping(t_address,t_uint256))": {
						"encoding": "mapping",
						"key": "t_address",
						"label": "mapping(address => mapping(address => uint256))",
						"numberOfBytes": "32",
						"value": "t_mapping(t_address,t_uint256)"
					},
					"t_mapping(t_address,t_uint256)": {
						"encoding": "mapping",
						"key": "t_address",
						"label": "mapping(address => uint256)",
						"numberOfBytes": "32",
						"value": "t_uint256"
					},
					"t_string_storage": {
						"encoding": "bytes",
						"label": "string",
						"numberOfBytes": "32"
					},
					"t_uint256": {
						"encoding": "inplace",
						"label": "uint256",
						"numberOfBytes": "32"
					}
				}
			},
			"userdoc": {
				"kind": "user",
				"methods": {},
				"version": 1
			}
		}
	}
}