{
	"BuyToken.sol": {
		"TokenExchange": {
			"abi": [
				{
					"inputs": [
						{
							"internalType": "address",
							"name": "_usdtAddress",
							"type": "address"
						},
						{
							"internalType": "address",
							"name": "_tokenAddress",
							"type": "address"
						},
						{
							"internalType": "uint256",
							"name": "_exchangeRate",
							"type": "uint256"
						},
						{
							"internalType": "uint256",
							"name": "_maxAmout",
							"type": "uint256"
						}
					],
					"stateMutability": "nonpayable",
					"type": "constructor"
				},
				{
					"anonymous": false,
					"inputs": [
						{
							"indexed": true,
							"internalType": "address",
							"name": "user",
							"type": "address"
						},
						{
							"indexed": false,
							"internalType": "uint256",
							"name": "usdtAmount",
							"type": "uint256"
						},
						{
							"indexed": false,
							"internalType": "uint256",
							"name": "tokenAmount",
							"type": "uint256"
						}
					],
					"name": "BuyToken",
					"type": "event"
				},
				{
					"anonymous": false,
					"inputs": [
						{
							"indexed": true,
							"internalType": "address",
							"name": "previousOwner",
							"type": "address"
						},
						{
							"indexed": true,
							"internalType": "address",
							"name": "newOwner",
							"type": "address"
						}
					],
					"name": "OwnershipTransferred",
					"type": "event"
				},
				{
					"inputs": [
						{
							"internalType": "uint256",
							"name": "tokenAmount",
							"type": "uint256"
						}
					],
					"name": "buyToken",
					"outputs": [],
					"stateMutability": "nonpayable",
					"type": "function"
				},
				{
					"inputs": [
						{
							"internalType": "address",
							"name": "",
							"type": "address"
						}
					],
					"name": "cumulativePurchase",
					"outputs": [
						{
							"internalType": "uint256",
							"name": "",
							"type": "uint256"
						}
					],
					"stateMutability": "view",
					"type": "function"
				},
				{
					"inputs": [],
					"name": "exchangeRate",
					"outputs": [
						{
							"internalType": "uint256",
							"name": "",
							"type": "uint256"
						}
					],
					"stateMutability": "view",
					"type": "function"
				},
				{
					"inputs": [],
					"name": "maxAmout",
					"outputs": [
						{
							"internalType": "uint256",
							"name": "",
							"type": "uint256"
						}
					],
					"stateMutability": "view",
					"type": "function"
				},
				{
					"inputs": [],
					"name": "myToken",
					"outputs": [
						{
							"internalType": "contract IERC20",
							"name": "",
							"type": "address"
						}
					],
					"stateMutability": "view",
					"type": "function"
				},
				{
					"inputs": [],
					"name": "owner",
					"outputs": [
						{
							"internalType": "address",
							"name": "",
							"type": "address"
						}
					],
					"stateMutability": "view",
					"type": "function"
				},
				{
					"inputs": [],
					"name": "renounceOwnership",
					"outputs": [],
					"stateMutability": "nonpayable",
					"type": "function"
				},
				{
					"inputs": [
						{
							"internalType": "uint256",
							"name": "_exchangeRate",
							"type": "uint256"
						}
					],
					"name": "setExchangeRate",
					"outputs": [],
					"stateMutability": "nonpayable",
					"type": "function"
				},
				{
					"inputs": [
						{
							"internalType": "uint256",
							"name": "_maxAmount",
							"type": "uint256"
						}
					],
					"name": "setMaxAmout",
					"outputs": [],
					"stateMutability": "nonpayable",
					"type": "function"
				},
				{
					"inputs": [
						{
							"internalType": "address",
							"name": "newOwner",
							"type": "address"
						}
					],
					"name": "transferOwnership",
					"outputs": [],
					"stateMutability": "nonpayable",
					"type": "function"
				},
				{
					"inputs": [],
					"name": "usdt",
					"outputs": [
						{
							"internalType": "contract IERC20",
							"name": "",
							"type": "address"
						}
					],
					"stateMutability": "view",
					"type": "function"
				},
				{
					"inputs": [
						{
							"internalType": "uint256",
							"name": "amount",
							"type": "uint256"
						}
					],
					"name": "withdrawUSDT",
					"outputs": [],
					"stateMutability": "nonpayable",
					"type": "function"
				}
			],
			"devdoc": {
				"kind": "dev",
				"methods": {
					"owner()": {
						"details": "Returns the address of the current owner."
					},
					"renounceOwnership()": {
						"details": "Leaves the contract without owner. It will not be possible to call `onlyOwner` functions anymore. Can only be called by the current owner. NOTE: Renouncing ownership will leave the contract without an owner, thereby removing any functionality that is only available to the owner."
					},
					"transferOwnership(address)": {
						"details": "Transfers ownership of the contract to a new account (`newOwner`). Can only be called by the current owner."
					}
				},
				"version": 1
			},
			"evm": {
				"assembly": "    /* \"BuyToken.sol\":557:4087  contract TokenExchange is Ownable, ReentrancyGuard {... */\n  mstore(0x40, 0x80)\n    /* \"BuyToken.sol\":1121:1442  constructor(... */\n  callvalue\n  dup1\n  iszero\n  tag_1\n  jumpi\n  0x00\n  dup1\n  revert\ntag_1:\n  pop\n  mload(0x40)\n  sub(codesize, bytecodeSize)\n  dup1\n  bytecodeSize\n  dup4\n  codecopy\n  dup2\n  dup2\n  add\n  0x40\n  mstore\n  dup2\n  add\n  swap1\n  tag_2\n  swap2\n  swap1\n  tag_3\n  jump\t// in\ntag_2:\n    /* \"@openzeppelin/contracts/access/Ownable.sol\":936:968  _transferOwnership(_msgSender()) */\n  tag_8\n    /* \"@openzeppelin/contracts/access/Ownable.sol\":955:967  _msgSender() */\n  tag_9\n    /* \"@openzeppelin/contracts/access/Ownable.sol\":955:965  _msgSender */\n  shl(0x20, tag_10)\n    /* \"@openzeppelin/contracts/access/Ownable.sol\":955:967  _msgSender() */\n  0x20\n  shr\n  jump\t// in\ntag_9:\n    /* \"@openzeppelin/contracts/access/Ownable.sol\":936:954  _transferOwnership */\n  shl(0x20, tag_11)\n    /* \"@openzeppelin/contracts/access/Ownable.sol\":936:968  _transferOwnership(_msgSender()) */\n  0x20\n  shr\n  jump\t// in\ntag_8:\n    /* \"@openzeppelin/contracts/security/ReentrancyGuard.sol\":1716:1717  1 */\n  0x01\n    /* \"@openzeppelin/contracts/security/ReentrancyGuard.sol\":1821:1828  _status */\n  dup1\n    /* \"@openzeppelin/contracts/security/ReentrancyGuard.sol\":1821:1843  _status = _NOT_ENTERED */\n  dup2\n  swap1\n  sstore\n  pop\n    /* \"BuyToken.sol\":1282:1294  _usdtAddress */\n  dup4\n    /* \"BuyToken.sol\":1268:1272  usdt */\n  0x02\n  0x00\n    /* \"BuyToken.sol\":1268:1295  usdt = IERC20(_usdtAddress) */\n  0x0100\n  exp\n  dup2\n  sload\n  dup2\n  0xffffffffffffffffffffffffffffffffffffffff\n  mul\n  not\n  and\n  swap1\n  dup4\n  0xffffffffffffffffffffffffffffffffffffffff\n  and\n  mul\n  or\n  swap1\n  sstore\n  pop\n    /* \"BuyToken.sol\":1322:1335  _tokenAddress */\n  dup3\n    /* \"BuyToken.sol\":1305:1312  myToken */\n  0x03\n  0x00\n    /* \"BuyToken.sol\":1305:1336  myToken = IERC20(_tokenAddress) */\n  0x0100\n  exp\n  dup2\n  sload\n  dup2\n  0xffffffffffffffffffffffffffffffffffffffff\n  mul\n  not\n  and\n  swap1\n  dup4\n  0xffffffffffffffffffffffffffffffffffffffff\n  and\n  mul\n  or\n  swap1\n  sstore\n  pop\n    /* \"BuyToken.sol\":1361:1374  _exchangeRate */\n  dup2\n    /* \"BuyToken.sol\":1346:1358  exchangeRate */\n  0x04\n    /* \"BuyToken.sol\":1346:1374  exchangeRate = _exchangeRate */\n  dup2\n  swap1\n  sstore\n  pop\n    /* \"BuyToken.sol\":1395:1404  _maxAmout */\n  dup1\n    /* \"BuyToken.sol\":1384:1392  maxAmout */\n  0x05\n    /* \"BuyToken.sol\":1384:1404  maxAmout = _maxAmout */\n  dup2\n  swap1\n  sstore\n  pop\n    /* \"BuyToken.sol\":1121:1442  constructor(... */\n  pop\n  pop\n  pop\n  pop\n    /* \"BuyToken.sol\":557:4087  contract TokenExchange is Ownable, ReentrancyGuard {... */\n  jump(tag_14)\n    /* \"@openzeppelin/contracts/utils/Context.sol\":640:736  function _msgSender() internal view virtual returns (address) {... */\ntag_10:\n    /* \"@openzeppelin/contracts/utils/Context.sol\":693:700  address */\n  0x00\n    /* \"@openzeppelin/contracts/utils/Context.sol\":719:729  msg.sender */\n  caller\n    /* \"@openzeppelin/contracts/utils/Context.sol\":712:729  return msg.sender */\n  swap1\n  pop\n    /* \"@openzeppelin/contracts/utils/Context.sol\":640:736  function _msgSender() internal view virtual returns (address) {... */\n  swap1\n  jump\t// out\n    /* \"@openzeppelin/contracts/access/Ownable.sol\":2433:2620  function _transferOwnership(address newOwner) internal virtual {... */\ntag_11:\n    /* \"@openzeppelin/contracts/access/Ownable.sol\":2506:2522  address oldOwner */\n  0x00\n    /* \"@openzeppelin/contracts/access/Ownable.sol\":2525:2531  _owner */\n  dup1\n  0x00\n  swap1\n  sload\n  swap1\n  0x0100\n  exp\n  swap1\n  div\n  0xffffffffffffffffffffffffffffffffffffffff\n  and\n    /* \"@openzeppelin/contracts/access/Ownable.sol\":2506:2531  address oldOwner = _owner */\n  swap1\n  pop\n    /* \"@openzeppelin/contracts/access/Ownable.sol\":2550:2558  newOwner */\n  dup2\n    /* \"@openzeppelin/contracts/access/Ownable.sol\":2541:2547  _owner */\n  0x00\n  dup1\n    /* \"@openzeppelin/contracts/access/Ownable.sol\":2541:2558  _owner = newOwner */\n  0x0100\n  exp\n  dup2\n  sload\n  dup2\n  0xffffffffffffffffffffffffffffffffffffffff\n  mul\n  not\n  and\n  swap1\n  dup4\n  0xffffffffffffffffffffffffffffffffffffffff\n  and\n  mul\n  or\n  swap1\n  sstore\n  pop\n    /* \"@openzeppelin/contracts/access/Ownable.sol\":2604:2612  newOwner */\n  dup2\n    /* \"@openzeppelin/contracts/access/Ownable.sol\":2573:2613  OwnershipTransferred(oldOwner, newOwner) */\n  0xffffffffffffffffffffffffffffffffffffffff\n  and\n    /* \"@openzeppelin/contracts/access/Ownable.sol\":2594:2602  oldOwner */\n  dup2\n    /* \"@openzeppelin/contracts/access/Ownable.sol\":2573:2613  OwnershipTransferred(oldOwner, newOwner) */\n  0xffffffffffffffffffffffffffffffffffffffff\n  and\n  0x8be0079c531659141344cd1fd0a4f28419497f9722a3daafe3b4186f6b6457e0\n  mload(0x40)\n  mload(0x40)\n  dup1\n  swap2\n  sub\n  swap1\n  log3\n    /* \"@openzeppelin/contracts/access/Ownable.sol\":2433:2620  function _transferOwnership(address newOwner) internal virtual {... */\n  pop\n  pop\n  jump\t// out\n    /* \"#utility.yul\":7:150   */\ntag_18:\n    /* \"#utility.yul\":64:69   */\n  0x00\n    /* \"#utility.yul\":95:101   */\n  dup2\n    /* \"#utility.yul\":89:102   */\n  mload\n    /* \"#utility.yul\":80:102   */\n  swap1\n  pop\n    /* \"#utility.yul\":111:144   */\n  tag_20\n    /* \"#utility.yul\":138:143   */\n  dup2\n    /* \"#utility.yul\":111:144   */\n  tag_21\n  jump\t// in\ntag_20:\n    /* \"#utility.yul\":70:150   */\n  swap3\n  swap2\n  pop\n  pop\n  jump\t// out\n    /* \"#utility.yul\":156:299   */\ntag_22:\n    /* \"#utility.yul\":213:218   */\n  0x00\n    /* \"#utility.yul\":244:250   */\n  dup2\n    /* \"#utility.yul\":238:251   */\n  mload\n    /* \"#utility.yul\":229:251   */\n  swap1\n  pop\n    /* \"#utility.yul\":260:293   */\n  tag_24\n    /* \"#utility.yul\":287:292   */\n  dup2\n    /* \"#utility.yul\":260:293   */\n  tag_25\n  jump\t// in\ntag_24:\n    /* \"#utility.yul\":219:299   */\n  swap3\n  swap2\n  pop\n  pop\n  jump\t// out\n    /* \"#utility.yul\":305:1058   */\ntag_3:\n    /* \"#utility.yul\":402:408   */\n  0x00\n    /* \"#utility.yul\":410:416   */\n  dup1\n    /* \"#utility.yul\":418:424   */\n  0x00\n    /* \"#utility.yul\":426:432   */\n  dup1\n    /* \"#utility.yul\":475:478   */\n  0x80\n    /* \"#utility.yul\":463:472   */\n  dup6\n    /* \"#utility.yul\":454:461   */\n  dup8\n    /* \"#utility.yul\":450:473   */\n  sub\n    /* \"#utility.yul\":446:479   */\n  slt\n    /* \"#utility.yul\":443:445   */\n  iszero\n  tag_27\n  jumpi\n    /* \"#utility.yul\":492:493   */\n  0x00\n    /* \"#utility.yul\":489:490   */\n  dup1\n    /* \"#utility.yul\":482:494   */\n  revert\n    /* \"#utility.yul\":443:445   */\ntag_27:\n    /* \"#utility.yul\":535:536   */\n  0x00\n    /* \"#utility.yul\":560:624   */\n  tag_28\n    /* \"#utility.yul\":616:623   */\n  dup8\n    /* \"#utility.yul\":607:613   */\n  dup3\n    /* \"#utility.yul\":596:605   */\n  dup9\n    /* \"#utility.yul\":592:614   */\n  add\n    /* \"#utility.yul\":560:624   */\n  tag_18\n  jump\t// in\ntag_28:\n    /* \"#utility.yul\":550:624   */\n  swap5\n  pop\n    /* \"#utility.yul\":506:634   */\n  pop\n    /* \"#utility.yul\":673:675   */\n  0x20\n    /* \"#utility.yul\":699:763   */\n  tag_29\n    /* \"#utility.yul\":755:762   */\n  dup8\n    /* \"#utility.yul\":746:752   */\n  dup3\n    /* \"#utility.yul\":735:744   */\n  dup9\n    /* \"#utility.yul\":731:753   */\n  add\n    /* \"#utility.yul\":699:763   */\n  tag_18\n  jump\t// in\ntag_29:\n    /* \"#utility.yul\":689:763   */\n  swap4\n  pop\n    /* \"#utility.yul\":644:773   */\n  pop\n    /* \"#utility.yul\":812:814   */\n  0x40\n    /* \"#utility.yul\":838:902   */\n  tag_30\n    /* \"#utility.yul\":894:901   */\n  dup8\n    /* \"#utility.yul\":885:891   */\n  dup3\n    /* \"#utility.yul\":874:883   */\n  dup9\n    /* \"#utility.yul\":870:892   */\n  add\n    /* \"#utility.yul\":838:902   */\n  tag_22\n  jump\t// in\ntag_30:\n    /* \"#utility.yul\":828:902   */\n  swap3\n  pop\n    /* \"#utility.yul\":783:912   */\n  pop\n    /* \"#utility.yul\":951:953   */\n  0x60\n    /* \"#utility.yul\":977:1041   */\n  tag_31\n    /* \"#utility.yul\":1033:1040   */\n  dup8\n    /* \"#utility.yul\":1024:1030   */\n  dup3\n    /* \"#utility.yul\":1013:1022   */\n  dup9\n    /* \"#utility.yul\":1009:1031   */\n  add\n    /* \"#utility.yul\":977:1041   */\n  tag_22\n  jump\t// in\ntag_31:\n    /* \"#utility.yul\":967:1041   */\n  swap2\n  pop\n    /* \"#utility.yul\":922:1051   */\n  pop\n    /* \"#utility.yul\":433:1058   */\n  swap3\n  swap6\n  swap2\n  swap5\n  pop\n  swap3\n  pop\n  jump\t// out\n    /* \"#utility.yul\":1064:1160   */\ntag_32:\n    /* \"#utility.yul\":1101:1108   */\n  0x00\n    /* \"#utility.yul\":1130:1154   */\n  tag_34\n    /* \"#utility.yul\":1148:1153   */\n  dup3\n    /* \"#utility.yul\":1130:1154   */\n  tag_35\n  jump\t// in\ntag_34:\n    /* \"#utility.yul\":1119:1154   */\n  swap1\n  pop\n    /* \"#utility.yul\":1109:1160   */\n  swap2\n  swap1\n  pop\n  jump\t// out\n    /* \"#utility.yul\":1166:1292   */\ntag_35:\n    /* \"#utility.yul\":1203:1210   */\n  0x00\n    /* \"#utility.yul\":1243:1285   */\n  0xffffffffffffffffffffffffffffffffffffffff\n    /* \"#utility.yul\":1236:1241   */\n  dup3\n    /* \"#utility.yul\":1232:1286   */\n  and\n    /* \"#utility.yul\":1221:1286   */\n  swap1\n  pop\n    /* \"#utility.yul\":1211:1292   */\n  swap2\n  swap1\n  pop\n  jump\t// out\n    /* \"#utility.yul\":1298:1375   */\ntag_37:\n    /* \"#utility.yul\":1335:1342   */\n  0x00\n    /* \"#utility.yul\":1364:1369   */\n  dup2\n    /* \"#utility.yul\":1353:1369   */\n  swap1\n  pop\n    /* \"#utility.yul\":1343:1375   */\n  swap2\n  swap1\n  pop\n  jump\t// out\n    /* \"#utility.yul\":1381:1503   */\ntag_21:\n    /* \"#utility.yul\":1454:1478   */\n  tag_40\n    /* \"#utility.yul\":1472:1477   */\n  dup2\n    /* \"#utility.yul\":1454:1478   */\n  tag_32\n  jump\t// in\ntag_40:\n    /* \"#utility.yul\":1447:1452   */\n  dup2\n    /* \"#utility.yul\":1444:1479   */\n  eq\n    /* \"#utility.yul\":1434:1436   */\n  tag_41\n  jumpi\n    /* \"#utility.yul\":1493:1494   */\n  0x00\n    /* \"#utility.yul\":1490:1491   */\n  dup1\n    /* \"#utility.yul\":1483:1495   */\n  revert\n    /* \"#utility.yul\":1434:1436   */\ntag_41:\n    /* \"#utility.yul\":1424:1503   */\n  pop\n  jump\t// out\n    /* \"#utility.yul\":1509:1631   */\ntag_25:\n    /* \"#utility.yul\":1582:1606   */\n  tag_43\n    /* \"#utility.yul\":1600:1605   */\n  dup2\n    /* \"#utility.yul\":1582:1606   */\n  tag_37\n  jump\t// in\ntag_43:\n    /* \"#utility.yul\":1575:1580   */\n  dup2\n    /* \"#utility.yul\":1572:1607   */\n  eq\n    /* \"#utility.yul\":1562:1564   */\n  tag_44\n  jumpi\n    /* \"#utility.yul\":1621:1622   */\n  0x00\n    /* \"#utility.yul\":1618:1619   */\n  dup1\n    /* \"#utility.yul\":1611:1623   */\n  revert\n    /* \"#utility.yul\":1562:1564   */\ntag_44:\n    /* \"#utility.yul\":1552:1631   */\n  pop\n  jump\t// out\n    /* \"BuyToken.sol\":557:4087  contract TokenExchange is Ownable, ReentrancyGuard {... */\ntag_14:\n  dataSize(sub_0)\n  dup1\n  dataOffset(sub_0)\n  0x00\n  codecopy\n  0x00\n  return\nstop\n\nsub_0: assembly {\n        /* \"BuyToken.sol\":557:4087  contract TokenExchange is Ownable, ReentrancyGuard {... */\n      mstore(0x40, 0x80)\n      callvalue\n      dup1\n      iszero\n      tag_1\n      jumpi\n      0x00\n      dup1\n      revert\n    tag_1:\n      pop\n      jumpi(tag_2, lt(calldatasize, 0x04))\n      shr(0xe0, calldataload(0x00))\n      dup1\n      0x7a80d062\n      gt\n      tag_15\n      jumpi\n      dup1\n      0x7a80d062\n      eq\n      tag_9\n      jumpi\n      dup1\n      0x8d951832\n      eq\n      tag_10\n      jumpi\n      dup1\n      0x8da5cb5b\n      eq\n      tag_11\n      jumpi\n      dup1\n      0xb8fcf937\n      eq\n      tag_12\n      jumpi\n      dup1\n      0xdb068e0e\n      eq\n      tag_13\n      jumpi\n      dup1\n      0xf2fde38b\n      eq\n      tag_14\n      jumpi\n      jump(tag_2)\n    tag_15:\n      dup1\n      0x2d296bf1\n      eq\n      tag_3\n      jumpi\n      dup1\n      0x2f48ab7d\n      eq\n      tag_4\n      jumpi\n      dup1\n      0x3ba0b9a9\n      eq\n      tag_5\n      jumpi\n      dup1\n      0x3ea521ef\n      eq\n      tag_6\n      jumpi\n      dup1\n      0x65583cae\n      eq\n      tag_7\n      jumpi\n      dup1\n      0x715018a6\n      eq\n      tag_8\n      jumpi\n    tag_2:\n      0x00\n      dup1\n      revert\n        /* \"BuyToken.sol\":2303:3218  function buyToken(uint256 tokenAmount) external nonReentrant {... */\n    tag_3:\n      tag_16\n      0x04\n      dup1\n      calldatasize\n      sub\n      dup2\n      add\n      swap1\n      tag_17\n      swap2\n      swap1\n      tag_18\n      jump\t// in\n    tag_17:\n      tag_19\n      jump\t// in\n    tag_16:\n      stop\n        /* \"BuyToken.sol\":678:696  IERC20 public usdt */\n    tag_4:\n      tag_20\n      tag_21\n      jump\t// in\n    tag_20:\n      mload(0x40)\n      tag_22\n      swap2\n      swap1\n      tag_23\n      jump\t// in\n    tag_22:\n      mload(0x40)\n      dup1\n      swap2\n      sub\n      swap1\n      return\n        /* \"BuyToken.sol\":781:808  uint256 public exchangeRate */\n    tag_5:\n      tag_24\n      tag_25\n      jump\t// in\n    tag_24:\n      mload(0x40)\n      tag_26\n      swap2\n      swap1\n      tag_27\n      jump\t// in\n    tag_26:\n      mload(0x40)\n      dup1\n      swap2\n      sub\n      swap1\n      return\n        /* \"BuyToken.sol\":3560:3795  function withdrawUSDT(uint256 amount) external onlyOwner{... */\n    tag_6:\n      tag_28\n      0x04\n      dup1\n      calldatasize\n      sub\n      dup2\n      add\n      swap1\n      tag_29\n      swap2\n      swap1\n      tag_18\n      jump\t// in\n    tag_29:\n      tag_30\n      jump\t// in\n    tag_28:\n      stop\n        /* \"BuyToken.sol\":3988:4085  function setMaxAmout(uint256 _maxAmount) external onlyOwner{... */\n    tag_7:\n      tag_31\n      0x04\n      dup1\n      calldatasize\n      sub\n      dup2\n      add\n      swap1\n      tag_32\n      swap2\n      swap1\n      tag_18\n      jump\t// in\n    tag_32:\n      tag_33\n      jump\t// in\n    tag_31:\n      stop\n        /* \"@openzeppelin/contracts/access/Ownable.sol\":1831:1932  function renounceOwnership() public virtual onlyOwner {... */\n    tag_8:\n      tag_34\n      tag_35\n      jump\t// in\n    tag_34:\n      stop\n        /* \"BuyToken.sol\":947:1000  mapping(address => uint256) public cumulativePurchase */\n    tag_9:\n      tag_36\n      0x04\n      dup1\n      calldatasize\n      sub\n      dup2\n      add\n      swap1\n      tag_37\n      swap2\n      swap1\n      tag_38\n      jump\t// in\n    tag_37:\n      tag_39\n      jump\t// in\n    tag_36:\n      mload(0x40)\n      tag_40\n      swap2\n      swap1\n      tag_27\n      jump\t// in\n    tag_40:\n      mload(0x40)\n      dup1\n      swap2\n      sub\n      swap1\n      return\n        /* \"BuyToken.sol\":878:901  uint256 public maxAmout */\n    tag_10:\n      tag_41\n      tag_42\n      jump\t// in\n    tag_41:\n      mload(0x40)\n      tag_43\n      swap2\n      swap1\n      tag_27\n      jump\t// in\n    tag_43:\n      mload(0x40)\n      dup1\n      swap2\n      sub\n      swap1\n      return\n        /* \"@openzeppelin/contracts/access/Ownable.sol\":1201:1286  function owner() public view virtual returns (address) {... */\n    tag_11:\n      tag_44\n      tag_45\n      jump\t// in\n    tag_44:\n      mload(0x40)\n      tag_46\n      swap2\n      swap1\n      tag_47\n      jump\t// in\n    tag_46:\n      mload(0x40)\n      dup1\n      swap2\n      sub\n      swap1\n      return\n        /* \"BuyToken.sol\":723:744  IERC20 public myToken */\n    tag_12:\n      tag_48\n      tag_49\n      jump\t// in\n    tag_48:\n      mload(0x40)\n      tag_50\n      swap2\n      swap1\n      tag_23\n      jump\t// in\n    tag_50:\n      mload(0x40)\n      dup1\n      swap2\n      sub\n      swap1\n      return\n        /* \"BuyToken.sol\":3827:3938  function setExchangeRate(uint256 _exchangeRate) external onlyOwner{... */\n    tag_13:\n      tag_51\n      0x04\n      dup1\n      calldatasize\n      sub\n      dup2\n      add\n      swap1\n      tag_52\n      swap2\n      swap1\n      tag_18\n      jump\t// in\n    tag_52:\n      tag_53\n      jump\t// in\n    tag_51:\n      stop\n        /* \"@openzeppelin/contracts/access/Ownable.sol\":2081:2279  function transferOwnership(address newOwner) public virtual onlyOwner {... */\n    tag_14:\n      tag_54\n      0x04\n      dup1\n      calldatasize\n      sub\n      dup2\n      add\n      swap1\n      tag_55\n      swap2\n      swap1\n      tag_38\n      jump\t// in\n    tag_55:\n      tag_56\n      jump\t// in\n    tag_54:\n      stop\n        /* \"BuyToken.sol\":2303:3218  function buyToken(uint256 tokenAmount) external nonReentrant {... */\n    tag_19:\n        /* \"@openzeppelin/contracts/security/ReentrancyGuard.sol\":2261:2282  _nonReentrantBefore() */\n      tag_58\n        /* \"@openzeppelin/contracts/security/ReentrancyGuard.sol\":2261:2280  _nonReentrantBefore */\n      tag_59\n        /* \"@openzeppelin/contracts/security/ReentrancyGuard.sol\":2261:2282  _nonReentrantBefore() */\n      jump\t// in\n    tag_58:\n        /* \"BuyToken.sol\":2374:2393  uint256 _usdtAmount */\n      0x00\n        /* \"BuyToken.sol\":2396:2425  tokenAmount.div(exchangeRate) */\n      tag_61\n        /* \"BuyToken.sol\":2412:2424  exchangeRate */\n      sload(0x04)\n        /* \"BuyToken.sol\":2396:2407  tokenAmount */\n      dup4\n        /* \"BuyToken.sol\":2396:2411  tokenAmount.div */\n      tag_62\n      swap1\n        /* \"BuyToken.sol\":2396:2425  tokenAmount.div(exchangeRate) */\n      swap2\n      swap1\n      0xffffffff\n      and\n      jump\t// in\n    tag_61:\n        /* \"BuyToken.sol\":2374:2425  uint256 _usdtAmount = tokenAmount.div(exchangeRate) */\n      swap1\n      pop\n        /* \"BuyToken.sol\":2516:2563  cumulativePurchase[msg.sender].add(tokenAmount) */\n      tag_63\n        /* \"BuyToken.sol\":2551:2562  tokenAmount */\n      dup3\n        /* \"BuyToken.sol\":2516:2534  cumulativePurchase */\n      0x06\n        /* \"BuyToken.sol\":2516:2546  cumulativePurchase[msg.sender] */\n      0x00\n        /* \"BuyToken.sol\":2535:2545  msg.sender */\n      caller\n        /* \"BuyToken.sol\":2516:2546  cumulativePurchase[msg.sender] */\n      0xffffffffffffffffffffffffffffffffffffffff\n      and\n      0xffffffffffffffffffffffffffffffffffffffff\n      and\n      dup2\n      mstore\n      0x20\n      add\n      swap1\n      dup2\n      mstore\n      0x20\n      add\n      0x00\n      keccak256\n      sload\n        /* \"BuyToken.sol\":2516:2550  cumulativePurchase[msg.sender].add */\n      tag_64\n      swap1\n        /* \"BuyToken.sol\":2516:2563  cumulativePurchase[msg.sender].add(tokenAmount) */\n      swap2\n      swap1\n      0xffffffff\n      and\n      jump\t// in\n    tag_63:\n        /* \"BuyToken.sol\":2504:2512  maxAmout */\n      sload(0x05)\n        /* \"BuyToken.sol\":2504:2563  maxAmout >= cumulativePurchase[msg.sender].add(tokenAmount) */\n      lt\n      iszero\n        /* \"BuyToken.sol\":2496:2607  require(maxAmout >= cumulativePurchase[msg.sender].add(tokenAmount),\"A single user cannot buy too many tokens\") */\n      tag_65\n      jumpi\n      mload(0x40)\n      0x08c379a000000000000000000000000000000000000000000000000000000000\n      dup2\n      mstore\n      0x04\n      add\n      tag_66\n      swap1\n      tag_67\n      jump\t// in\n    tag_66:\n      mload(0x40)\n      dup1\n      swap2\n      sub\n      swap1\n      revert\n    tag_65:\n        /* \"BuyToken.sol\":2659:2670  tokenAmount */\n      dup2\n        /* \"BuyToken.sol\":2625:2632  myToken */\n      0x03\n      0x00\n      swap1\n      sload\n      swap1\n      0x0100\n      exp\n      swap1\n      div\n      0xffffffffffffffffffffffffffffffffffffffff\n      and\n        /* \"BuyToken.sol\":2625:2642  myToken.balanceOf */\n      0xffffffffffffffffffffffffffffffffffffffff\n      and\n      0x70a08231\n        /* \"BuyToken.sol\":2651:2655  this */\n      address\n        /* \"BuyToken.sol\":2625:2657  myToken.balanceOf(address(this)) */\n      mload(0x40)\n      dup3\n      0xffffffff\n      and\n      0xe0\n      shl\n      dup2\n      mstore\n      0x04\n      add\n      tag_68\n      swap2\n      swap1\n      tag_47\n      jump\t// in\n    tag_68:\n      0x20\n      mload(0x40)\n      dup1\n      dup4\n      sub\n      dup2\n      dup7\n      dup1\n      extcodesize\n      iszero\n      dup1\n      iszero\n      tag_69\n      jumpi\n      0x00\n      dup1\n      revert\n    tag_69:\n      pop\n      gas\n      staticcall\n      iszero\n      dup1\n      iszero\n      tag_71\n      jumpi\n      returndatasize\n      0x00\n      dup1\n      returndatacopy\n      revert(0x00, returndatasize)\n    tag_71:\n      pop\n      pop\n      pop\n      pop\n      mload(0x40)\n      returndatasize\n      not(0x1f)\n      0x1f\n      dup3\n      add\n      and\n      dup3\n      add\n      dup1\n      0x40\n      mstore\n      pop\n      dup2\n      add\n      swap1\n      tag_72\n      swap2\n      swap1\n      tag_73\n      jump\t// in\n    tag_72:\n        /* \"BuyToken.sol\":2625:2670  myToken.balanceOf(address(this))>=tokenAmount */\n      lt\n      iszero\n        /* \"BuyToken.sol\":2617:2784  require(myToken.balanceOf(address(this))>=tokenAmount,\"The number of tokens that users want to purchase exceeds the number of tokens currently available for purchase\") */\n      tag_74\n      jumpi\n      mload(0x40)\n      0x08c379a000000000000000000000000000000000000000000000000000000000\n      dup2\n      mstore\n      0x04\n      add\n      tag_75\n      swap1\n      tag_76\n      jump\t// in\n    tag_75:\n      mload(0x40)\n      dup1\n      swap2\n      sub\n      swap1\n      revert\n    tag_74:\n        /* \"BuyToken.sol\":2832:2843  _usdtAmount */\n      dup1\n        /* \"BuyToken.sol\":2802:2806  usdt */\n      0x02\n      0x00\n      swap1\n      sload\n      swap1\n      0x0100\n      exp\n      swap1\n      div\n      0xffffffffffffffffffffffffffffffffffffffff\n      and\n        /* \"BuyToken.sol\":2802:2816  usdt.balanceOf */\n      0xffffffffffffffffffffffffffffffffffffffff\n      and\n      0x70a08231\n        /* \"BuyToken.sol\":2817:2827  msg.sender */\n      caller\n        /* \"BuyToken.sol\":2802:2828  usdt.balanceOf(msg.sender) */\n      mload(0x40)\n      dup3\n      0xffffffff\n      and\n      0xe0\n      shl\n      dup2\n      mstore\n      0x04\n      add\n      tag_77\n      swap2\n      swap1\n      tag_47\n      jump\t// in\n    tag_77:\n      0x20\n      mload(0x40)\n      dup1\n      dup4\n      sub\n      dup2\n      dup7\n      dup1\n      extcodesize\n      iszero\n      dup1\n      iszero\n      tag_78\n      jumpi\n      0x00\n      dup1\n      revert\n    tag_78:\n      pop\n      gas\n      staticcall\n      iszero\n      dup1\n      iszero\n      tag_80\n      jumpi\n      returndatasize\n      0x00\n      dup1\n      returndatacopy\n      revert(0x00, returndatasize)\n    tag_80:\n      pop\n      pop\n      pop\n      pop\n      mload(0x40)\n      returndatasize\n      not(0x1f)\n      0x1f\n      dup3\n      add\n      and\n      dup3\n      add\n      dup1\n      0x40\n      mstore\n      pop\n      dup2\n      add\n      swap1\n      tag_81\n      swap2\n      swap1\n      tag_73\n      jump\t// in\n    tag_81:\n        /* \"BuyToken.sol\":2802:2843  usdt.balanceOf(msg.sender) >= _usdtAmount */\n      lt\n      iszero\n        /* \"BuyToken.sol\":2794:2863  require(usdt.balanceOf(msg.sender) >= _usdtAmount, \"Not enough USDT\") */\n      tag_82\n      jumpi\n      mload(0x40)\n      0x08c379a000000000000000000000000000000000000000000000000000000000\n      dup2\n      mstore\n      0x04\n      add\n      tag_83\n      swap1\n      tag_84\n      jump\t// in\n    tag_83:\n      mload(0x40)\n      dup1\n      swap2\n      sub\n      swap1\n      revert\n    tag_82:\n        /* \"BuyToken.sol\":2881:2885  usdt */\n      0x02\n      0x00\n      swap1\n      sload\n      swap1\n      0x0100\n      exp\n      swap1\n      div\n      0xffffffffffffffffffffffffffffffffffffffff\n      and\n        /* \"BuyToken.sol\":2881:2898  usdt.transferFrom */\n      0xffffffffffffffffffffffffffffffffffffffff\n      and\n      0x23b872dd\n        /* \"BuyToken.sol\":2899:2909  msg.sender */\n      caller\n        /* \"BuyToken.sol\":2919:2923  this */\n      address\n        /* \"BuyToken.sol\":2926:2937  _usdtAmount */\n      dup5\n        /* \"BuyToken.sol\":2881:2938  usdt.transferFrom(msg.sender, address(this), _usdtAmount) */\n      mload(0x40)\n      dup5\n      0xffffffff\n      and\n      0xe0\n      shl\n      dup2\n      mstore\n      0x04\n      add\n      tag_85\n      swap4\n      swap3\n      swap2\n      swap1\n      tag_86\n      jump\t// in\n    tag_85:\n      0x20\n      mload(0x40)\n      dup1\n      dup4\n      sub\n      dup2\n      0x00\n      dup8\n      dup1\n      extcodesize\n      iszero\n      dup1\n      iszero\n      tag_87\n      jumpi\n      0x00\n      dup1\n      revert\n    tag_87:\n      pop\n      gas\n      call\n      iszero\n      dup1\n      iszero\n      tag_89\n      jumpi\n      returndatasize\n      0x00\n      dup1\n      returndatacopy\n      revert(0x00, returndatasize)\n    tag_89:\n      pop\n      pop\n      pop\n      pop\n      mload(0x40)\n      returndatasize\n      not(0x1f)\n      0x1f\n      dup3\n      add\n      and\n      dup3\n      add\n      dup1\n      0x40\n      mstore\n      pop\n      dup2\n      add\n      swap1\n      tag_90\n      swap2\n      swap1\n      tag_91\n      jump\t// in\n    tag_90:\n        /* \"BuyToken.sol\":2873:2969  require(usdt.transferFrom(msg.sender, address(this), _usdtAmount),\"Transfer to contract failed\") */\n      tag_92\n      jumpi\n      mload(0x40)\n      0x08c379a000000000000000000000000000000000000000000000000000000000\n      dup2\n      mstore\n      0x04\n      add\n      tag_93\n      swap1\n      tag_94\n      jump\t// in\n    tag_93:\n      mload(0x40)\n      dup1\n      swap2\n      sub\n      swap1\n      revert\n    tag_92:\n        /* \"BuyToken.sol\":2987:2994  myToken */\n      0x03\n      0x00\n      swap1\n      sload\n      swap1\n      0x0100\n      exp\n      swap1\n      div\n      0xffffffffffffffffffffffffffffffffffffffff\n      and\n        /* \"BuyToken.sol\":2987:3003  myToken.transfer */\n      0xffffffffffffffffffffffffffffffffffffffff\n      and\n      0xa9059cbb\n        /* \"BuyToken.sol\":3004:3014  msg.sender */\n      caller\n        /* \"BuyToken.sol\":3016:3027  tokenAmount */\n      dup5\n        /* \"BuyToken.sol\":2987:3028  myToken.transfer(msg.sender, tokenAmount) */\n      mload(0x40)\n      dup4\n      0xffffffff\n      and\n      0xe0\n      shl\n      dup2\n      mstore\n      0x04\n      add\n      tag_95\n      swap3\n      swap2\n      swap1\n      tag_96\n      jump\t// in\n    tag_95:\n      0x20\n      mload(0x40)\n      dup1\n      dup4\n      sub\n      dup2\n      0x00\n      dup8\n      dup1\n      extcodesize\n      iszero\n      dup1\n      iszero\n      tag_97\n      jumpi\n      0x00\n      dup1\n      revert\n    tag_97:\n      pop\n      gas\n      call\n      iszero\n      dup1\n      iszero\n      tag_99\n      jumpi\n      returndatasize\n      0x00\n      dup1\n      returndatacopy\n      revert(0x00, returndatasize)\n    tag_99:\n      pop\n      pop\n      pop\n      pop\n      mload(0x40)\n      returndatasize\n      not(0x1f)\n      0x1f\n      dup3\n      add\n      and\n      dup3\n      add\n      dup1\n      0x40\n      mstore\n      pop\n      dup2\n      add\n      swap1\n      tag_100\n      swap2\n      swap1\n      tag_91\n      jump\t// in\n    tag_100:\n        /* \"BuyToken.sol\":2979:3061  require(myToken.transfer(msg.sender, tokenAmount),\"Transfer to msg.sender failed\") */\n      tag_101\n      jumpi\n      mload(0x40)\n      0x08c379a000000000000000000000000000000000000000000000000000000000\n      dup2\n      mstore\n      0x04\n      add\n      tag_102\n      swap1\n      tag_103\n      jump\t// in\n    tag_102:\n      mload(0x40)\n      dup1\n      swap2\n      sub\n      swap1\n      revert\n    tag_101:\n        /* \"BuyToken.sol\":3104:3151  cumulativePurchase[msg.sender].add(tokenAmount) */\n      tag_104\n        /* \"BuyToken.sol\":3139:3150  tokenAmount */\n      dup3\n        /* \"BuyToken.sol\":3104:3122  cumulativePurchase */\n      0x06\n        /* \"BuyToken.sol\":3104:3134  cumulativePurchase[msg.sender] */\n      0x00\n        /* \"BuyToken.sol\":3123:3133  msg.sender */\n      caller\n        /* \"BuyToken.sol\":3104:3134  cumulativePurchase[msg.sender] */\n      0xffffffffffffffffffffffffffffffffffffffff\n      and\n      0xffffffffffffffffffffffffffffffffffffffff\n      and\n      dup2\n      mstore\n      0x20\n      add\n      swap1\n      dup2\n      mstore\n      0x20\n      add\n      0x00\n      keccak256\n      sload\n        /* \"BuyToken.sol\":3104:3138  cumulativePurchase[msg.sender].add */\n      tag_64\n      swap1\n        /* \"BuyToken.sol\":3104:3151  cumulativePurchase[msg.sender].add(tokenAmount) */\n      swap2\n      swap1\n      0xffffffff\n      and\n      jump\t// in\n    tag_104:\n        /* \"BuyToken.sol\":3071:3089  cumulativePurchase */\n      0x06\n        /* \"BuyToken.sol\":3071:3101  cumulativePurchase[msg.sender] */\n      0x00\n        /* \"BuyToken.sol\":3090:3100  msg.sender */\n      caller\n        /* \"BuyToken.sol\":3071:3101  cumulativePurchase[msg.sender] */\n      0xffffffffffffffffffffffffffffffffffffffff\n      and\n      0xffffffffffffffffffffffffffffffffffffffff\n      and\n      dup2\n      mstore\n      0x20\n      add\n      swap1\n      dup2\n      mstore\n      0x20\n      add\n      0x00\n      keccak256\n        /* \"BuyToken.sol\":3071:3151  cumulativePurchase[msg.sender] = cumulativePurchase[msg.sender].add(tokenAmount) */\n      dup2\n      swap1\n      sstore\n      pop\n        /* \"BuyToken.sol\":3175:3185  msg.sender */\n      caller\n        /* \"BuyToken.sol\":3166:3211  BuyToken(msg.sender, _usdtAmount,tokenAmount) */\n      0xffffffffffffffffffffffffffffffffffffffff\n      and\n      0xf6f342132c7de5e5a1e99c8efae544c94731f3ff093f5c3c97c6973d9415cdfb\n        /* \"BuyToken.sol\":3187:3198  _usdtAmount */\n      dup3\n        /* \"BuyToken.sol\":3199:3210  tokenAmount */\n      dup5\n        /* \"BuyToken.sol\":3166:3211  BuyToken(msg.sender, _usdtAmount,tokenAmount) */\n      mload(0x40)\n      tag_105\n      swap3\n      swap2\n      swap1\n      tag_106\n      jump\t// in\n    tag_105:\n      mload(0x40)\n      dup1\n      swap2\n      sub\n      swap1\n      log2\n        /* \"@openzeppelin/contracts/security/ReentrancyGuard.sol\":2292:2293  _ */\n      pop\n        /* \"@openzeppelin/contracts/security/ReentrancyGuard.sol\":2303:2323  _nonReentrantAfter() */\n      tag_107\n        /* \"@openzeppelin/contracts/security/ReentrancyGuard.sol\":2303:2321  _nonReentrantAfter */\n      tag_108\n        /* \"@openzeppelin/contracts/security/ReentrancyGuard.sol\":2303:2323  _nonReentrantAfter() */\n      jump\t// in\n    tag_107:\n        /* \"BuyToken.sol\":2303:3218  function buyToken(uint256 tokenAmount) external nonReentrant {... */\n      pop\n      jump\t// out\n        /* \"BuyToken.sol\":678:696  IERC20 public usdt */\n    tag_21:\n      0x02\n      0x00\n      swap1\n      sload\n      swap1\n      0x0100\n      exp\n      swap1\n      div\n      0xffffffffffffffffffffffffffffffffffffffff\n      and\n      dup2\n      jump\t// out\n        /* \"BuyToken.sol\":781:808  uint256 public exchangeRate */\n    tag_25:\n      sload(0x04)\n      dup2\n      jump\t// out\n        /* \"BuyToken.sol\":3560:3795  function withdrawUSDT(uint256 amount) external onlyOwner{... */\n    tag_30:\n        /* \"@openzeppelin/contracts/access/Ownable.sol\":1094:1107  _checkOwner() */\n      tag_110\n        /* \"@openzeppelin/contracts/access/Ownable.sol\":1094:1105  _checkOwner */\n      tag_111\n        /* \"@openzeppelin/contracts/access/Ownable.sol\":1094:1107  _checkOwner() */\n      jump\t// in\n    tag_110:\n        /* \"BuyToken.sol\":3665:3671  amount */\n      dup1\n        /* \"BuyToken.sol\":3634:3638  usdt */\n      0x02\n      0x00\n      swap1\n      sload\n      swap1\n      0x0100\n      exp\n      swap1\n      div\n      0xffffffffffffffffffffffffffffffffffffffff\n      and\n        /* \"BuyToken.sol\":3634:3648  usdt.balanceOf */\n      0xffffffffffffffffffffffffffffffffffffffff\n      and\n      0x70a08231\n        /* \"BuyToken.sol\":3657:3661  this */\n      address\n        /* \"BuyToken.sol\":3634:3663  usdt.balanceOf(address(this)) */\n      mload(0x40)\n      dup3\n      0xffffffff\n      and\n      0xe0\n      shl\n      dup2\n      mstore\n      0x04\n      add\n      tag_113\n      swap2\n      swap1\n      tag_47\n      jump\t// in\n    tag_113:\n      0x20\n      mload(0x40)\n      dup1\n      dup4\n      sub\n      dup2\n      dup7\n      dup1\n      extcodesize\n      iszero\n      dup1\n      iszero\n      tag_114\n      jumpi\n      0x00\n      dup1\n      revert\n    tag_114:\n      pop\n      gas\n      staticcall\n      iszero\n      dup1\n      iszero\n      tag_116\n      jumpi\n      returndatasize\n      0x00\n      dup1\n      returndatacopy\n      revert(0x00, returndatasize)\n    tag_116:\n      pop\n      pop\n      pop\n      pop\n      mload(0x40)\n      returndatasize\n      not(0x1f)\n      0x1f\n      dup3\n      add\n      and\n      dup3\n      add\n      dup1\n      0x40\n      mstore\n      pop\n      dup2\n      add\n      swap1\n      tag_117\n      swap2\n      swap1\n      tag_73\n      jump\t// in\n    tag_117:\n        /* \"BuyToken.sol\":3634:3671  usdt.balanceOf(address(this))>=amount */\n      lt\n      iszero\n        /* \"BuyToken.sol\":3626:3721  require(usdt.balanceOf(address(this))>=amount,\"Amount is greater than the balance of contract\") */\n      tag_118\n      jumpi\n      mload(0x40)\n      0x08c379a000000000000000000000000000000000000000000000000000000000\n      dup2\n      mstore\n      0x04\n      add\n      tag_119\n      swap1\n      tag_120\n      jump\t// in\n    tag_119:\n      mload(0x40)\n      dup1\n      swap2\n      sub\n      swap1\n      revert\n    tag_118:\n        /* \"BuyToken.sol\":3731:3788  usdt.safeTransfer(owner(), usdt.balanceOf(address(this))) */\n      tag_121\n        /* \"BuyToken.sol\":3749:3756  owner() */\n      tag_122\n        /* \"BuyToken.sol\":3749:3754  owner */\n      tag_45\n        /* \"BuyToken.sol\":3749:3756  owner() */\n      jump\t// in\n    tag_122:\n        /* \"BuyToken.sol\":3758:3762  usdt */\n      0x02\n      0x00\n      swap1\n      sload\n      swap1\n      0x0100\n      exp\n      swap1\n      div\n      0xffffffffffffffffffffffffffffffffffffffff\n      and\n        /* \"BuyToken.sol\":3758:3772  usdt.balanceOf */\n      0xffffffffffffffffffffffffffffffffffffffff\n      and\n      0x70a08231\n        /* \"BuyToken.sol\":3781:3785  this */\n      address\n        /* \"BuyToken.sol\":3758:3787  usdt.balanceOf(address(this)) */\n      mload(0x40)\n      dup3\n      0xffffffff\n      and\n      0xe0\n      shl\n      dup2\n      mstore\n      0x04\n      add\n      tag_123\n      swap2\n      swap1\n      tag_47\n      jump\t// in\n    tag_123:\n      0x20\n      mload(0x40)\n      dup1\n      dup4\n      sub\n      dup2\n      dup7\n      dup1\n      extcodesize\n      iszero\n      dup1\n      iszero\n      tag_124\n      jumpi\n      0x00\n      dup1\n      revert\n    tag_124:\n      pop\n      gas\n      staticcall\n      iszero\n      dup1\n      iszero\n      tag_126\n      jumpi\n      returndatasize\n      0x00\n      dup1\n      returndatacopy\n      revert(0x00, returndatasize)\n    tag_126:\n      pop\n      pop\n      pop\n      pop\n      mload(0x40)\n      returndatasize\n      not(0x1f)\n      0x1f\n      dup3\n      add\n      and\n      dup3\n      add\n      dup1\n      0x40\n      mstore\n      pop\n      dup2\n      add\n      swap1\n      tag_127\n      swap2\n      swap1\n      tag_73\n      jump\t// in\n    tag_127:\n        /* \"BuyToken.sol\":3731:3735  usdt */\n      0x02\n      0x00\n      swap1\n      sload\n      swap1\n      0x0100\n      exp\n      swap1\n      div\n      0xffffffffffffffffffffffffffffffffffffffff\n      and\n        /* \"BuyToken.sol\":3731:3748  usdt.safeTransfer */\n      0xffffffffffffffffffffffffffffffffffffffff\n      and\n      tag_128\n      swap1\n        /* \"BuyToken.sol\":3731:3788  usdt.safeTransfer(owner(), usdt.balanceOf(address(this))) */\n      swap3\n      swap2\n      swap1\n      0xffffffff\n      and\n      jump\t// in\n    tag_121:\n        /* \"BuyToken.sol\":3560:3795  function withdrawUSDT(uint256 amount) external onlyOwner{... */\n      pop\n      jump\t// out\n        /* \"BuyToken.sol\":3988:4085  function setMaxAmout(uint256 _maxAmount) external onlyOwner{... */\n    tag_33:\n        /* \"@openzeppelin/contracts/access/Ownable.sol\":1094:1107  _checkOwner() */\n      tag_130\n        /* \"@openzeppelin/contracts/access/Ownable.sol\":1094:1105  _checkOwner */\n      tag_111\n        /* \"@openzeppelin/contracts/access/Ownable.sol\":1094:1107  _checkOwner() */\n      jump\t// in\n    tag_130:\n        /* \"BuyToken.sol\":4068:4078  _maxAmount */\n      dup1\n        /* \"BuyToken.sol\":4057:4065  maxAmout */\n      0x05\n        /* \"BuyToken.sol\":4057:4078  maxAmout = _maxAmount */\n      dup2\n      swap1\n      sstore\n      pop\n        /* \"BuyToken.sol\":3988:4085  function setMaxAmout(uint256 _maxAmount) external onlyOwner{... */\n      pop\n      jump\t// out\n        /* \"@openzeppelin/contracts/access/Ownable.sol\":1831:1932  function renounceOwnership() public virtual onlyOwner {... */\n    tag_35:\n        /* \"@openzeppelin/contracts/access/Ownable.sol\":1094:1107  _checkOwner() */\n      tag_133\n        /* \"@openzeppelin/contracts/access/Ownable.sol\":1094:1105  _checkOwner */\n      tag_111\n        /* \"@openzeppelin/contracts/access/Ownable.sol\":1094:1107  _checkOwner() */\n      jump\t// in\n    tag_133:\n        /* \"@openzeppelin/contracts/access/Ownable.sol\":1895:1925  _transferOwnership(address(0)) */\n      tag_135\n        /* \"@openzeppelin/contracts/access/Ownable.sol\":1922:1923  0 */\n      0x00\n        /* \"@openzeppelin/contracts/access/Ownable.sol\":1895:1913  _transferOwnership */\n      tag_136\n        /* \"@openzeppelin/contracts/access/Ownable.sol\":1895:1925  _transferOwnership(address(0)) */\n      jump\t// in\n    tag_135:\n        /* \"@openzeppelin/contracts/access/Ownable.sol\":1831:1932  function renounceOwnership() public virtual onlyOwner {... */\n      jump\t// out\n        /* \"BuyToken.sol\":947:1000  mapping(address => uint256) public cumulativePurchase */\n    tag_39:\n      mstore(0x20, 0x06)\n      dup1\n      0x00\n      mstore\n      keccak256(0x00, 0x40)\n      0x00\n      swap2\n      pop\n      swap1\n      pop\n      sload\n      dup2\n      jump\t// out\n        /* \"BuyToken.sol\":878:901  uint256 public maxAmout */\n    tag_42:\n      sload(0x05)\n      dup2\n      jump\t// out\n        /* \"@openzeppelin/contracts/access/Ownable.sol\":1201:1286  function owner() public view virtual returns (address) {... */\n    tag_45:\n        /* \"@openzeppelin/contracts/access/Ownable.sol\":1247:1254  address */\n      0x00\n        /* \"@openzeppelin/contracts/access/Ownable.sol\":1273:1279  _owner */\n      dup1\n      0x00\n      swap1\n      sload\n      swap1\n      0x0100\n      exp\n      swap1\n      div\n      0xffffffffffffffffffffffffffffffffffffffff\n      and\n        /* \"@openzeppelin/contracts/access/Ownable.sol\":1266:1279  return _owner */\n      swap1\n      pop\n        /* \"@openzeppelin/contracts/access/Ownable.sol\":1201:1286  function owner() public view virtual returns (address) {... */\n      swap1\n      jump\t// out\n        /* \"BuyToken.sol\":723:744  IERC20 public myToken */\n    tag_49:\n      0x03\n      0x00\n      swap1\n      sload\n      swap1\n      0x0100\n      exp\n      swap1\n      div\n      0xffffffffffffffffffffffffffffffffffffffff\n      and\n      dup2\n      jump\t// out\n        /* \"BuyToken.sol\":3827:3938  function setExchangeRate(uint256 _exchangeRate) external onlyOwner{... */\n    tag_53:\n        /* \"@openzeppelin/contracts/access/Ownable.sol\":1094:1107  _checkOwner() */\n      tag_139\n        /* \"@openzeppelin/contracts/access/Ownable.sol\":1094:1105  _checkOwner */\n      tag_111\n        /* \"@openzeppelin/contracts/access/Ownable.sol\":1094:1107  _checkOwner() */\n      jump\t// in\n    tag_139:\n        /* \"BuyToken.sol\":3918:3931  _exchangeRate */\n      dup1\n        /* \"BuyToken.sol\":3903:3915  exchangeRate */\n      0x04\n        /* \"BuyToken.sol\":3903:3931  exchangeRate = _exchangeRate */\n      dup2\n      swap1\n      sstore\n      pop\n        /* \"BuyToken.sol\":3827:3938  function setExchangeRate(uint256 _exchangeRate) external onlyOwner{... */\n      pop\n      jump\t// out\n        /* \"@openzeppelin/contracts/access/Ownable.sol\":2081:2279  function transferOwnership(address newOwner) public virtual onlyOwner {... */\n    tag_56:\n        /* \"@openzeppelin/contracts/access/Ownable.sol\":1094:1107  _checkOwner() */\n      tag_142\n        /* \"@openzeppelin/contracts/access/Ownable.sol\":1094:1105  _checkOwner */\n      tag_111\n        /* \"@openzeppelin/contracts/access/Ownable.sol\":1094:1107  _checkOwner() */\n      jump\t// in\n    tag_142:\n        /* \"@openzeppelin/contracts/access/Ownable.sol\":2189:2190  0 */\n      0x00\n        /* \"@openzeppelin/contracts/access/Ownable.sol\":2169:2191  newOwner != address(0) */\n      0xffffffffffffffffffffffffffffffffffffffff\n      and\n        /* \"@openzeppelin/contracts/access/Ownable.sol\":2169:2177  newOwner */\n      dup2\n        /* \"@openzeppelin/contracts/access/Ownable.sol\":2169:2191  newOwner != address(0) */\n      0xffffffffffffffffffffffffffffffffffffffff\n      and\n      eq\n      iszero\n        /* \"@openzeppelin/contracts/access/Ownable.sol\":2161:2234  require(newOwner != address(0), \"Ownable: new owner is the zero address\") */\n      tag_144\n      jumpi\n      mload(0x40)\n      0x08c379a000000000000000000000000000000000000000000000000000000000\n      dup2\n      mstore\n      0x04\n      add\n      tag_145\n      swap1\n      tag_146\n      jump\t// in\n    tag_145:\n      mload(0x40)\n      dup1\n      swap2\n      sub\n      swap1\n      revert\n    tag_144:\n        /* \"@openzeppelin/contracts/access/Ownable.sol\":2244:2272  _transferOwnership(newOwner) */\n      tag_147\n        /* \"@openzeppelin/contracts/access/Ownable.sol\":2263:2271  newOwner */\n      dup2\n        /* \"@openzeppelin/contracts/access/Ownable.sol\":2244:2262  _transferOwnership */\n      tag_136\n        /* \"@openzeppelin/contracts/access/Ownable.sol\":2244:2272  _transferOwnership(newOwner) */\n      jump\t// in\n    tag_147:\n        /* \"@openzeppelin/contracts/access/Ownable.sol\":2081:2279  function transferOwnership(address newOwner) public virtual onlyOwner {... */\n      pop\n      jump\t// out\n        /* \"@openzeppelin/contracts/security/ReentrancyGuard.sol\":2336:2623  function _nonReentrantBefore() private {... */\n    tag_59:\n        /* \"@openzeppelin/contracts/security/ReentrancyGuard.sol\":1759:1760  2 */\n      0x02\n        /* \"@openzeppelin/contracts/security/ReentrancyGuard.sol\":2468:2475  _status */\n      sload(0x01)\n        /* \"@openzeppelin/contracts/security/ReentrancyGuard.sol\":2468:2487  _status != _ENTERED */\n      eq\n      iszero\n        /* \"@openzeppelin/contracts/security/ReentrancyGuard.sol\":2460:2523  require(_status != _ENTERED, \"ReentrancyGuard: reentrant call\") */\n      tag_149\n      jumpi\n      mload(0x40)\n      0x08c379a000000000000000000000000000000000000000000000000000000000\n      dup2\n      mstore\n      0x04\n      add\n      tag_150\n      swap1\n      tag_151\n      jump\t// in\n    tag_150:\n      mload(0x40)\n      dup1\n      swap2\n      sub\n      swap1\n      revert\n    tag_149:\n        /* \"@openzeppelin/contracts/security/ReentrancyGuard.sol\":1759:1760  2 */\n      0x02\n        /* \"@openzeppelin/contracts/security/ReentrancyGuard.sol\":2598:2605  _status */\n      0x01\n        /* \"@openzeppelin/contracts/security/ReentrancyGuard.sol\":2598:2616  _status = _ENTERED */\n      dup2\n      swap1\n      sstore\n      pop\n        /* \"@openzeppelin/contracts/security/ReentrancyGuard.sol\":2336:2623  function _nonReentrantBefore() private {... */\n      jump\t// out\n        /* \"https://github.com/OpenZeppelin/openzeppelin-contracts/blob/release-v4.0//contracts/utils/math/SafeMath.sol\":3767:3863  function div(uint256 a, uint256 b) internal pure returns (uint256) {... */\n    tag_62:\n        /* \"https://github.com/OpenZeppelin/openzeppelin-contracts/blob/release-v4.0//contracts/utils/math/SafeMath.sol\":3825:3832  uint256 */\n      0x00\n        /* \"https://github.com/OpenZeppelin/openzeppelin-contracts/blob/release-v4.0//contracts/utils/math/SafeMath.sol\":3855:3856  b */\n      dup2\n        /* \"https://github.com/OpenZeppelin/openzeppelin-contracts/blob/release-v4.0//contracts/utils/math/SafeMath.sol\":3851:3852  a */\n      dup4\n        /* \"https://github.com/OpenZeppelin/openzeppelin-contracts/blob/release-v4.0//contracts/utils/math/SafeMath.sol\":3851:3856  a / b */\n      tag_153\n      swap2\n      swap1\n      tag_154\n      jump\t// in\n    tag_153:\n        /* \"https://github.com/OpenZeppelin/openzeppelin-contracts/blob/release-v4.0//contracts/utils/math/SafeMath.sol\":3844:3856  return a / b */\n      swap1\n      pop\n        /* \"https://github.com/OpenZeppelin/openzeppelin-contracts/blob/release-v4.0//contracts/utils/math/SafeMath.sol\":3767:3863  function div(uint256 a, uint256 b) internal pure returns (uint256) {... */\n      swap3\n      swap2\n      pop\n      pop\n      jump\t// out\n        /* \"https://github.com/OpenZeppelin/openzeppelin-contracts/blob/release-v4.0//contracts/utils/math/SafeMath.sol\":2672:2768  function add(uint256 a, uint256 b) internal pure returns (uint256) {... */\n    tag_64:\n        /* \"https://github.com/OpenZeppelin/openzeppelin-contracts/blob/release-v4.0//contracts/utils/math/SafeMath.sol\":2730:2737  uint256 */\n      0x00\n        /* \"https://github.com/OpenZeppelin/openzeppelin-contracts/blob/release-v4.0//contracts/utils/math/SafeMath.sol\":2760:2761  b */\n      dup2\n        /* \"https://github.com/OpenZeppelin/openzeppelin-contracts/blob/release-v4.0//contracts/utils/math/SafeMath.sol\":2756:2757  a */\n      dup4\n        /* \"https://github.com/OpenZeppelin/openzeppelin-contracts/blob/release-v4.0//contracts/utils/math/SafeMath.sol\":2756:2761  a + b */\n      tag_156\n      swap2\n      swap1\n      tag_157\n      jump\t// in\n    tag_156:\n        /* \"https://github.com/OpenZeppelin/openzeppelin-contracts/blob/release-v4.0//contracts/utils/math/SafeMath.sol\":2749:2761  return a + b */\n      swap1\n      pop\n        /* \"https://github.com/OpenZeppelin/openzeppelin-contracts/blob/release-v4.0//contracts/utils/math/SafeMath.sol\":2672:2768  function add(uint256 a, uint256 b) internal pure returns (uint256) {... */\n      swap3\n      swap2\n      pop\n      pop\n      jump\t// out\n        /* \"@openzeppelin/contracts/security/ReentrancyGuard.sol\":2629:2838  function _nonReentrantAfter() private {... */\n    tag_108:\n        /* \"@openzeppelin/contracts/security/ReentrancyGuard.sol\":1716:1717  1 */\n      0x01\n        /* \"@openzeppelin/contracts/security/ReentrancyGuard.sol\":2809:2816  _status */\n      dup1\n        /* \"@openzeppelin/contracts/security/ReentrancyGuard.sol\":2809:2831  _status = _NOT_ENTERED */\n      dup2\n      swap1\n      sstore\n      pop\n        /* \"@openzeppelin/contracts/security/ReentrancyGuard.sol\":2629:2838  function _nonReentrantAfter() private {... */\n      jump\t// out\n        /* \"@openzeppelin/contracts/access/Ownable.sol\":1359:1489  function _checkOwner() internal view virtual {... */\n    tag_111:\n        /* \"@openzeppelin/contracts/access/Ownable.sol\":1433:1445  _msgSender() */\n      tag_160\n        /* \"@openzeppelin/contracts/access/Ownable.sol\":1433:1443  _msgSender */\n      tag_161\n        /* \"@openzeppelin/contracts/access/Ownable.sol\":1433:1445  _msgSender() */\n      jump\t// in\n    tag_160:\n        /* \"@openzeppelin/contracts/access/Ownable.sol\":1422:1445  owner() == _msgSender() */\n      0xffffffffffffffffffffffffffffffffffffffff\n      and\n        /* \"@openzeppelin/contracts/access/Ownable.sol\":1422:1429  owner() */\n      tag_162\n        /* \"@openzeppelin/contracts/access/Ownable.sol\":1422:1427  owner */\n      tag_45\n        /* \"@openzeppelin/contracts/access/Ownable.sol\":1422:1429  owner() */\n      jump\t// in\n    tag_162:\n        /* \"@openzeppelin/contracts/access/Ownable.sol\":1422:1445  owner() == _msgSender() */\n      0xffffffffffffffffffffffffffffffffffffffff\n      and\n      eq\n        /* \"@openzeppelin/contracts/access/Ownable.sol\":1414:1482  require(owner() == _msgSender(), \"Ownable: caller is not the owner\") */\n      tag_163\n      jumpi\n      mload(0x40)\n      0x08c379a000000000000000000000000000000000000000000000000000000000\n      dup2\n      mstore\n      0x04\n      add\n      tag_164\n      swap1\n      tag_165\n      jump\t// in\n    tag_164:\n      mload(0x40)\n      dup1\n      swap2\n      sub\n      swap1\n      revert\n    tag_163:\n        /* \"@openzeppelin/contracts/access/Ownable.sol\":1359:1489  function _checkOwner() internal view virtual {... */\n      jump\t// out\n        /* \"https://github.com/OpenZeppelin/openzeppelin-contracts/blob/release-v4.0/contracts/token/ERC20/utils/SafeERC20.sol\":634:809  function safeTransfer(IERC20 token, address to, uint256 value) internal {... */\n    tag_128:\n        /* \"https://github.com/OpenZeppelin/openzeppelin-contracts/blob/release-v4.0/contracts/token/ERC20/utils/SafeERC20.sol\":716:802  _callOptionalReturn(token, abi.encodeWithSelector(token.transfer.selector, to, value)) */\n      tag_167\n        /* \"https://github.com/OpenZeppelin/openzeppelin-contracts/blob/release-v4.0/contracts/token/ERC20/utils/SafeERC20.sol\":736:741  token */\n      dup4\n        /* \"https://github.com/OpenZeppelin/openzeppelin-contracts/blob/release-v4.0/contracts/token/ERC20/utils/SafeERC20.sol\":766:789  token.transfer.selector */\n      shl(0xe0, 0xa9059cbb)\n        /* \"https://github.com/OpenZeppelin/openzeppelin-contracts/blob/release-v4.0/contracts/token/ERC20/utils/SafeERC20.sol\":791:793  to */\n      dup5\n        /* \"https://github.com/OpenZeppelin/openzeppelin-contracts/blob/release-v4.0/contracts/token/ERC20/utils/SafeERC20.sol\":795:800  value */\n      dup5\n        /* \"https://github.com/OpenZeppelin/openzeppelin-contracts/blob/release-v4.0/contracts/token/ERC20/utils/SafeERC20.sol\":743:801  abi.encodeWithSelector(token.transfer.selector, to, value) */\n      add(0x24, mload(0x40))\n      tag_168\n      swap3\n      swap2\n      swap1\n      tag_96\n      jump\t// in\n    tag_168:\n      mload(0x40)\n      0x20\n      dup2\n      dup4\n      sub\n      sub\n      dup2\n      mstore\n      swap1\n      0x40\n      mstore\n      swap1\n      not(0xffffffffffffffffffffffffffffffffffffffffffffffffffffffff)\n      and\n      0x20\n      dup3\n      add\n      dup1\n      mload\n      0xffffffffffffffffffffffffffffffffffffffffffffffffffffffff\n      dup4\n      dup2\n      dup4\n      and\n      or\n      dup4\n      mstore\n      pop\n      pop\n      pop\n      pop\n        /* \"https://github.com/OpenZeppelin/openzeppelin-contracts/blob/release-v4.0/contracts/token/ERC20/utils/SafeERC20.sol\":716:735  _callOptionalReturn */\n      tag_169\n        /* \"https://github.com/OpenZeppelin/openzeppelin-contracts/blob/release-v4.0/contracts/token/ERC20/utils/SafeERC20.sol\":716:802  _callOptionalReturn(token, abi.encodeWithSelector(token.transfer.selector, to, value)) */\n      jump\t// in\n    tag_167:\n        /* \"https://github.com/OpenZeppelin/openzeppelin-contracts/blob/release-v4.0/contracts/token/ERC20/utils/SafeERC20.sol\":634:809  function safeTransfer(IERC20 token, address to, uint256 value) internal {... */\n      pop\n      pop\n      pop\n      jump\t// out\n        /* \"@openzeppelin/contracts/access/Ownable.sol\":2433:2620  function _transferOwnership(address newOwner) internal virtual {... */\n    tag_136:\n        /* \"@openzeppelin/contracts/access/Ownable.sol\":2506:2522  address oldOwner */\n      0x00\n        /* \"@openzeppelin/contracts/access/Ownable.sol\":2525:2531  _owner */\n      dup1\n      0x00\n      swap1\n      sload\n      swap1\n      0x0100\n      exp\n      swap1\n      div\n      0xffffffffffffffffffffffffffffffffffffffff\n      and\n        /* \"@openzeppelin/contracts/access/Ownable.sol\":2506:2531  address oldOwner = _owner */\n      swap1\n      pop\n        /* \"@openzeppelin/contracts/access/Ownable.sol\":2550:2558  newOwner */\n      dup2\n        /* \"@openzeppelin/contracts/access/Ownable.sol\":2541:2547  _owner */\n      0x00\n      dup1\n        /* \"@openzeppelin/contracts/access/Ownable.sol\":2541:2558  _owner = newOwner */\n      0x0100\n      exp\n      dup2\n      sload\n      dup2\n      0xffffffffffffffffffffffffffffffffffffffff\n      mul\n      not\n      and\n      swap1\n      dup4\n      0xffffffffffffffffffffffffffffffffffffffff\n      and\n      mul\n      or\n      swap1\n      sstore\n      pop\n        /* \"@openzeppelin/contracts/access/Ownable.sol\":2604:2612  newOwner */\n      dup2\n        /* \"@openzeppelin/contracts/access/Ownable.sol\":2573:2613  OwnershipTransferred(oldOwner, newOwner) */\n      0xffffffffffffffffffffffffffffffffffffffff\n      and\n        /* \"@openzeppelin/contracts/access/Ownable.sol\":2594:2602  oldOwner */\n      dup2\n        /* \"@openzeppelin/contracts/access/Ownable.sol\":2573:2613  OwnershipTransferred(oldOwner, newOwner) */\n      0xffffffffffffffffffffffffffffffffffffffff\n      and\n      0x8be0079c531659141344cd1fd0a4f28419497f9722a3daafe3b4186f6b6457e0\n      mload(0x40)\n      mload(0x40)\n      dup1\n      swap2\n      sub\n      swap1\n      log3\n        /* \"@openzeppelin/contracts/access/Ownable.sol\":2433:2620  function _transferOwnership(address newOwner) internal virtual {... */\n      pop\n      pop\n      jump\t// out\n        /* \"@openzeppelin/contracts/utils/Context.sol\":640:736  function _msgSender() internal view virtual returns (address) {... */\n    tag_161:\n        /* \"@openzeppelin/contracts/utils/Context.sol\":693:700  address */\n      0x00\n        /* \"@openzeppelin/contracts/utils/Context.sol\":719:729  msg.sender */\n      caller\n        /* \"@openzeppelin/contracts/utils/Context.sol\":712:729  return msg.sender */\n      swap1\n      pop\n        /* \"@openzeppelin/contracts/utils/Context.sol\":640:736  function _msgSender() internal view virtual returns (address) {... */\n      swap1\n      jump\t// out\n        /* \"https://github.com/OpenZeppelin/openzeppelin-contracts/blob/release-v4.0/contracts/token/ERC20/utils/SafeERC20.sol\":3022:3773  function _callOptionalReturn(IERC20 token, bytes memory data) private {... */\n    tag_169:\n        /* \"https://github.com/OpenZeppelin/openzeppelin-contracts/blob/release-v4.0/contracts/token/ERC20/utils/SafeERC20.sol\":3441:3464  bytes memory returndata */\n      0x00\n        /* \"https://github.com/OpenZeppelin/openzeppelin-contracts/blob/release-v4.0/contracts/token/ERC20/utils/SafeERC20.sol\":3467:3536  address(token).functionCall(data, \"SafeERC20: low-level call failed\") */\n      tag_173\n        /* \"https://github.com/OpenZeppelin/openzeppelin-contracts/blob/release-v4.0/contracts/token/ERC20/utils/SafeERC20.sol\":3495:3499  data */\n      dup3\n        /* \"https://github.com/OpenZeppelin/openzeppelin-contracts/blob/release-v4.0/contracts/token/ERC20/utils/SafeERC20.sol\":3467:3536  address(token).functionCall(data, \"SafeERC20: low-level call failed\") */\n      mload(0x40)\n      dup1\n      0x40\n      add\n      0x40\n      mstore\n      dup1\n      0x20\n      dup2\n      mstore\n      0x20\n      add\n      0x5361666545524332303a206c6f772d6c6576656c2063616c6c206661696c6564\n      dup2\n      mstore\n      pop\n        /* \"https://github.com/OpenZeppelin/openzeppelin-contracts/blob/release-v4.0/contracts/token/ERC20/utils/SafeERC20.sol\":3475:3480  token */\n      dup6\n        /* \"https://github.com/OpenZeppelin/openzeppelin-contracts/blob/release-v4.0/contracts/token/ERC20/utils/SafeERC20.sol\":3467:3494  address(token).functionCall */\n      0xffffffffffffffffffffffffffffffffffffffff\n      and\n      tag_174\n      swap1\n        /* \"https://github.com/OpenZeppelin/openzeppelin-contracts/blob/release-v4.0/contracts/token/ERC20/utils/SafeERC20.sol\":3467:3536  address(token).functionCall(data, \"SafeERC20: low-level call failed\") */\n      swap3\n      swap2\n      swap1\n      0xffffffff\n      and\n      jump\t// in\n    tag_173:\n        /* \"https://github.com/OpenZeppelin/openzeppelin-contracts/blob/release-v4.0/contracts/token/ERC20/utils/SafeERC20.sol\":3441:3536  bytes memory returndata = address(token).functionCall(data, \"SafeERC20: low-level call failed\") */\n      swap1\n      pop\n        /* \"https://github.com/OpenZeppelin/openzeppelin-contracts/blob/release-v4.0/contracts/token/ERC20/utils/SafeERC20.sol\":3570:3571  0 */\n      0x00\n        /* \"https://github.com/OpenZeppelin/openzeppelin-contracts/blob/release-v4.0/contracts/token/ERC20/utils/SafeERC20.sol\":3550:3560  returndata */\n      dup2\n        /* \"https://github.com/OpenZeppelin/openzeppelin-contracts/blob/release-v4.0/contracts/token/ERC20/utils/SafeERC20.sol\":3550:3567  returndata.length */\n      mload\n        /* \"https://github.com/OpenZeppelin/openzeppelin-contracts/blob/release-v4.0/contracts/token/ERC20/utils/SafeERC20.sol\":3550:3571  returndata.length > 0 */\n      gt\n        /* \"https://github.com/OpenZeppelin/openzeppelin-contracts/blob/release-v4.0/contracts/token/ERC20/utils/SafeERC20.sol\":3546:3767  if (returndata.length > 0) { // Return data is optional... */\n      iszero\n      tag_175\n      jumpi\n        /* \"https://github.com/OpenZeppelin/openzeppelin-contracts/blob/release-v4.0/contracts/token/ERC20/utils/SafeERC20.sol\":3690:3700  returndata */\n      dup1\n        /* \"https://github.com/OpenZeppelin/openzeppelin-contracts/blob/release-v4.0/contracts/token/ERC20/utils/SafeERC20.sol\":3679:3709  abi.decode(returndata, (bool)) */\n      dup1\n      0x20\n      add\n      swap1\n      mload\n      dup2\n      add\n      swap1\n      tag_176\n      swap2\n      swap1\n      tag_91\n      jump\t// in\n    tag_176:\n        /* \"https://github.com/OpenZeppelin/openzeppelin-contracts/blob/release-v4.0/contracts/token/ERC20/utils/SafeERC20.sol\":3671:3756  require(abi.decode(returndata, (bool)), \"SafeERC20: ERC20 operation did not succeed\") */\n      tag_177\n      jumpi\n      mload(0x40)\n      0x08c379a000000000000000000000000000000000000000000000000000000000\n      dup2\n      mstore\n      0x04\n      add\n      tag_178\n      swap1\n      tag_179\n      jump\t// in\n    tag_178:\n      mload(0x40)\n      dup1\n      swap2\n      sub\n      swap1\n      revert\n    tag_177:\n        /* \"https://github.com/OpenZeppelin/openzeppelin-contracts/blob/release-v4.0/contracts/token/ERC20/utils/SafeERC20.sol\":3546:3767  if (returndata.length > 0) { // Return data is optional... */\n    tag_175:\n        /* \"https://github.com/OpenZeppelin/openzeppelin-contracts/blob/release-v4.0/contracts/token/ERC20/utils/SafeERC20.sol\":3022:3773  function _callOptionalReturn(IERC20 token, bytes memory data) private {... */\n      pop\n      pop\n      pop\n      jump\t// out\n        /* \"https://github.com/OpenZeppelin/openzeppelin-contracts/blob/release-v4.0/contracts/utils/Address.sol\":3573:3766  function functionCall(address target, bytes memory data, string memory errorMessage) internal returns (bytes memory) {... */\n    tag_174:\n        /* \"https://github.com/OpenZeppelin/openzeppelin-contracts/blob/release-v4.0/contracts/utils/Address.sol\":3676:3688  bytes memory */\n      0x60\n        /* \"https://github.com/OpenZeppelin/openzeppelin-contracts/blob/release-v4.0/contracts/utils/Address.sol\":3707:3759  functionCallWithValue(target, data, 0, errorMessage) */\n      tag_181\n        /* \"https://github.com/OpenZeppelin/openzeppelin-contracts/blob/release-v4.0/contracts/utils/Address.sol\":3729:3735  target */\n      dup5\n        /* \"https://github.com/OpenZeppelin/openzeppelin-contracts/blob/release-v4.0/contracts/utils/Address.sol\":3737:3741  data */\n      dup5\n        /* \"https://github.com/OpenZeppelin/openzeppelin-contracts/blob/release-v4.0/contracts/utils/Address.sol\":3743:3744  0 */\n      0x00\n        /* \"https://github.com/OpenZeppelin/openzeppelin-contracts/blob/release-v4.0/contracts/utils/Address.sol\":3746:3758  errorMessage */\n      dup6\n        /* \"https://github.com/OpenZeppelin/openzeppelin-contracts/blob/release-v4.0/contracts/utils/Address.sol\":3707:3728  functionCallWithValue */\n      tag_182\n        /* \"https://github.com/OpenZeppelin/openzeppelin-contracts/blob/release-v4.0/contracts/utils/Address.sol\":3707:3759  functionCallWithValue(target, data, 0, errorMessage) */\n      jump\t// in\n    tag_181:\n        /* \"https://github.com/OpenZeppelin/openzeppelin-contracts/blob/release-v4.0/contracts/utils/Address.sol\":3700:3759  return functionCallWithValue(target, data, 0, errorMessage) */\n      swap1\n      pop\n        /* \"https://github.com/OpenZeppelin/openzeppelin-contracts/blob/release-v4.0/contracts/utils/Address.sol\":3573:3766  function functionCall(address target, bytes memory data, string memory errorMessage) internal returns (bytes memory) {... */\n      swap4\n      swap3\n      pop\n      pop\n      pop\n      jump\t// out\n        /* \"https://github.com/OpenZeppelin/openzeppelin-contracts/blob/release-v4.0/contracts/utils/Address.sol\":4600:5123  function functionCallWithValue(address target, bytes memory data, uint256 value, string memory errorMessage) internal returns (bytes memory) {... */\n    tag_182:\n        /* \"https://github.com/OpenZeppelin/openzeppelin-contracts/blob/release-v4.0/contracts/utils/Address.sol\":4727:4739  bytes memory */\n      0x60\n        /* \"https://github.com/OpenZeppelin/openzeppelin-contracts/blob/release-v4.0/contracts/utils/Address.sol\":4784:4789  value */\n      dup3\n        /* \"https://github.com/OpenZeppelin/openzeppelin-contracts/blob/release-v4.0/contracts/utils/Address.sol\":4759:4780  address(this).balance */\n      selfbalance\n        /* \"https://github.com/OpenZeppelin/openzeppelin-contracts/blob/release-v4.0/contracts/utils/Address.sol\":4759:4789  address(this).balance >= value */\n      lt\n      iszero\n        /* \"https://github.com/OpenZeppelin/openzeppelin-contracts/blob/release-v4.0/contracts/utils/Address.sol\":4751:4832  require(address(this).balance >= value, \"Address: insufficient balance for call\") */\n      tag_184\n      jumpi\n      mload(0x40)\n      0x08c379a000000000000000000000000000000000000000000000000000000000\n      dup2\n      mstore\n      0x04\n      add\n      tag_185\n      swap1\n      tag_186\n      jump\t// in\n    tag_185:\n      mload(0x40)\n      dup1\n      swap2\n      sub\n      swap1\n      revert\n    tag_184:\n        /* \"https://github.com/OpenZeppelin/openzeppelin-contracts/blob/release-v4.0/contracts/utils/Address.sol\":4850:4868  isContract(target) */\n      tag_187\n        /* \"https://github.com/OpenZeppelin/openzeppelin-contracts/blob/release-v4.0/contracts/utils/Address.sol\":4861:4867  target */\n      dup6\n        /* \"https://github.com/OpenZeppelin/openzeppelin-contracts/blob/release-v4.0/contracts/utils/Address.sol\":4850:4860  isContract */\n      tag_188\n        /* \"https://github.com/OpenZeppelin/openzeppelin-contracts/blob/release-v4.0/contracts/utils/Address.sol\":4850:4868  isContract(target) */\n      jump\t// in\n    tag_187:\n        /* \"https://github.com/OpenZeppelin/openzeppelin-contracts/blob/release-v4.0/contracts/utils/Address.sol\":4842:4902  require(isContract(target), \"Address: call to non-contract\") */\n      tag_189\n      jumpi\n      mload(0x40)\n      0x08c379a000000000000000000000000000000000000000000000000000000000\n      dup2\n      mstore\n      0x04\n      add\n      tag_190\n      swap1\n      tag_191\n      jump\t// in\n    tag_190:\n      mload(0x40)\n      dup1\n      swap2\n      sub\n      swap1\n      revert\n    tag_189:\n        /* \"https://github.com/OpenZeppelin/openzeppelin-contracts/blob/release-v4.0/contracts/utils/Address.sol\":4973:4985  bool success */\n      0x00\n        /* \"https://github.com/OpenZeppelin/openzeppelin-contracts/blob/release-v4.0/contracts/utils/Address.sol\":4987:5010  bytes memory returndata */\n      dup1\n        /* \"https://github.com/OpenZeppelin/openzeppelin-contracts/blob/release-v4.0/contracts/utils/Address.sol\":5014:5020  target */\n      dup7\n        /* \"https://github.com/OpenZeppelin/openzeppelin-contracts/blob/release-v4.0/contracts/utils/Address.sol\":5014:5025  target.call */\n      0xffffffffffffffffffffffffffffffffffffffff\n      and\n        /* \"https://github.com/OpenZeppelin/openzeppelin-contracts/blob/release-v4.0/contracts/utils/Address.sol\":5034:5039  value */\n      dup6\n        /* \"https://github.com/OpenZeppelin/openzeppelin-contracts/blob/release-v4.0/contracts/utils/Address.sol\":5042:5046  data */\n      dup8\n        /* \"https://github.com/OpenZeppelin/openzeppelin-contracts/blob/release-v4.0/contracts/utils/Address.sol\":5014:5047  target.call{ value: value }(data) */\n      mload(0x40)\n      tag_192\n      swap2\n      swap1\n      tag_193\n      jump\t// in\n    tag_192:\n      0x00\n      mload(0x40)\n      dup1\n      dup4\n      sub\n      dup2\n      dup6\n      dup8\n      gas\n      call\n      swap3\n      pop\n      pop\n      pop\n      returndatasize\n      dup1\n      0x00\n      dup2\n      eq\n      tag_196\n      jumpi\n      mload(0x40)\n      swap2\n      pop\n      and(add(returndatasize, 0x3f), not(0x1f))\n      dup3\n      add\n      0x40\n      mstore\n      returndatasize\n      dup3\n      mstore\n      returndatasize\n      0x00\n      0x20\n      dup5\n      add\n      returndatacopy\n      jump(tag_195)\n    tag_196:\n      0x60\n      swap2\n      pop\n    tag_195:\n      pop\n        /* \"https://github.com/OpenZeppelin/openzeppelin-contracts/blob/release-v4.0/contracts/utils/Address.sol\":4972:5047  (bool success, bytes memory returndata) = target.call{ value: value }(data) */\n      swap2\n      pop\n      swap2\n      pop\n        /* \"https://github.com/OpenZeppelin/openzeppelin-contracts/blob/release-v4.0/contracts/utils/Address.sol\":5064:5116  _verifyCallResult(success, returndata, errorMessage) */\n      tag_197\n        /* \"https://github.com/OpenZeppelin/openzeppelin-contracts/blob/release-v4.0/contracts/utils/Address.sol\":5082:5089  success */\n      dup3\n        /* \"https://github.com/OpenZeppelin/openzeppelin-contracts/blob/release-v4.0/contracts/utils/Address.sol\":5091:5101  returndata */\n      dup3\n        /* \"https://github.com/OpenZeppelin/openzeppelin-contracts/blob/release-v4.0/contracts/utils/Address.sol\":5103:5115  errorMessage */\n      dup7\n        /* \"https://github.com/OpenZeppelin/openzeppelin-contracts/blob/release-v4.0/contracts/utils/Address.sol\":5064:5081  _verifyCallResult */\n      tag_198\n        /* \"https://github.com/OpenZeppelin/openzeppelin-contracts/blob/release-v4.0/contracts/utils/Address.sol\":5064:5116  _verifyCallResult(success, returndata, errorMessage) */\n      jump\t// in\n    tag_197:\n        /* \"https://github.com/OpenZeppelin/openzeppelin-contracts/blob/release-v4.0/contracts/utils/Address.sol\":5057:5116  return _verifyCallResult(success, returndata, errorMessage) */\n      swap3\n      pop\n      pop\n      pop\n        /* \"https://github.com/OpenZeppelin/openzeppelin-contracts/blob/release-v4.0/contracts/utils/Address.sol\":4600:5123  function functionCallWithValue(address target, bytes memory data, uint256 value, string memory errorMessage) internal returns (bytes memory) {... */\n      swap5\n      swap4\n      pop\n      pop\n      pop\n      pop\n      jump\t// out\n        /* \"https://github.com/OpenZeppelin/openzeppelin-contracts/blob/release-v4.0/contracts/utils/Address.sol\":718:1131  function isContract(address account) internal view returns (bool) {... */\n    tag_188:\n        /* \"https://github.com/OpenZeppelin/openzeppelin-contracts/blob/release-v4.0/contracts/utils/Address.sol\":778:782  bool */\n      0x00\n        /* \"https://github.com/OpenZeppelin/openzeppelin-contracts/blob/release-v4.0/contracts/utils/Address.sol\":981:993  uint256 size */\n      dup1\n        /* \"https://github.com/OpenZeppelin/openzeppelin-contracts/blob/release-v4.0/contracts/utils/Address.sol\":1090:1097  account */\n      dup3\n        /* \"https://github.com/OpenZeppelin/openzeppelin-contracts/blob/release-v4.0/contracts/utils/Address.sol\":1078:1098  extcodesize(account) */\n      extcodesize\n        /* \"https://github.com/OpenZeppelin/openzeppelin-contracts/blob/release-v4.0/contracts/utils/Address.sol\":1070:1098  size := extcodesize(account) */\n      swap1\n      pop\n        /* \"https://github.com/OpenZeppelin/openzeppelin-contracts/blob/release-v4.0/contracts/utils/Address.sol\":1123:1124  0 */\n      0x00\n        /* \"https://github.com/OpenZeppelin/openzeppelin-contracts/blob/release-v4.0/contracts/utils/Address.sol\":1116:1120  size */\n      dup2\n        /* \"https://github.com/OpenZeppelin/openzeppelin-contracts/blob/release-v4.0/contracts/utils/Address.sol\":1116:1124  size > 0 */\n      gt\n        /* \"https://github.com/OpenZeppelin/openzeppelin-contracts/blob/release-v4.0/contracts/utils/Address.sol\":1109:1124  return size > 0 */\n      swap2\n      pop\n      pop\n        /* \"https://github.com/OpenZeppelin/openzeppelin-contracts/blob/release-v4.0/contracts/utils/Address.sol\":718:1131  function isContract(address account) internal view returns (bool) {... */\n      swap2\n      swap1\n      pop\n      jump\t// out\n        /* \"https://github.com/OpenZeppelin/openzeppelin-contracts/blob/release-v4.0/contracts/utils/Address.sol\":7083:7808  function _verifyCallResult(bool success, bytes memory returndata, string memory errorMessage) private pure returns(bytes memory) {... */\n    tag_198:\n        /* \"https://github.com/OpenZeppelin/openzeppelin-contracts/blob/release-v4.0/contracts/utils/Address.sol\":7198:7210  bytes memory */\n      0x60\n        /* \"https://github.com/OpenZeppelin/openzeppelin-contracts/blob/release-v4.0/contracts/utils/Address.sol\":7226:7233  success */\n      dup4\n        /* \"https://github.com/OpenZeppelin/openzeppelin-contracts/blob/release-v4.0/contracts/utils/Address.sol\":7222:7802  if (success) {... */\n      iszero\n      tag_201\n      jumpi\n        /* \"https://github.com/OpenZeppelin/openzeppelin-contracts/blob/release-v4.0/contracts/utils/Address.sol\":7256:7266  returndata */\n      dup3\n        /* \"https://github.com/OpenZeppelin/openzeppelin-contracts/blob/release-v4.0/contracts/utils/Address.sol\":7249:7266  return returndata */\n      swap1\n      pop\n      jump(tag_200)\n        /* \"https://github.com/OpenZeppelin/openzeppelin-contracts/blob/release-v4.0/contracts/utils/Address.sol\":7222:7802  if (success) {... */\n    tag_201:\n        /* \"https://github.com/OpenZeppelin/openzeppelin-contracts/blob/release-v4.0/contracts/utils/Address.sol\":7387:7388  0 */\n      0x00\n        /* \"https://github.com/OpenZeppelin/openzeppelin-contracts/blob/release-v4.0/contracts/utils/Address.sol\":7367:7377  returndata */\n      dup4\n        /* \"https://github.com/OpenZeppelin/openzeppelin-contracts/blob/release-v4.0/contracts/utils/Address.sol\":7367:7384  returndata.length */\n      mload\n        /* \"https://github.com/OpenZeppelin/openzeppelin-contracts/blob/release-v4.0/contracts/utils/Address.sol\":7367:7388  returndata.length > 0 */\n      gt\n        /* \"https://github.com/OpenZeppelin/openzeppelin-contracts/blob/release-v4.0/contracts/utils/Address.sol\":7363:7792  if (returndata.length > 0) {... */\n      iszero\n      tag_203\n      jumpi\n        /* \"https://github.com/OpenZeppelin/openzeppelin-contracts/blob/release-v4.0/contracts/utils/Address.sol\":7625:7635  returndata */\n      dup3\n        /* \"https://github.com/OpenZeppelin/openzeppelin-contracts/blob/release-v4.0/contracts/utils/Address.sol\":7619:7636  mload(returndata) */\n      mload\n        /* \"https://github.com/OpenZeppelin/openzeppelin-contracts/blob/release-v4.0/contracts/utils/Address.sol\":7685:7700  returndata_size */\n      dup1\n        /* \"https://github.com/OpenZeppelin/openzeppelin-contracts/blob/release-v4.0/contracts/utils/Address.sol\":7672:7682  returndata */\n      dup5\n        /* \"https://github.com/OpenZeppelin/openzeppelin-contracts/blob/release-v4.0/contracts/utils/Address.sol\":7668:7670  32 */\n      0x20\n        /* \"https://github.com/OpenZeppelin/openzeppelin-contracts/blob/release-v4.0/contracts/utils/Address.sol\":7664:7683  add(32, returndata) */\n      add\n        /* \"https://github.com/OpenZeppelin/openzeppelin-contracts/blob/release-v4.0/contracts/utils/Address.sol\":7657:7701  revert(add(32, returndata), returndata_size) */\n      revert\n        /* \"https://github.com/OpenZeppelin/openzeppelin-contracts/blob/release-v4.0/contracts/utils/Address.sol\":7574:7719  {... */\n    tag_203:\n        /* \"https://github.com/OpenZeppelin/openzeppelin-contracts/blob/release-v4.0/contracts/utils/Address.sol\":7764:7776  errorMessage */\n      dup2\n        /* \"https://github.com/OpenZeppelin/openzeppelin-contracts/blob/release-v4.0/contracts/utils/Address.sol\":7757:7777  revert(errorMessage) */\n      mload(0x40)\n      0x08c379a000000000000000000000000000000000000000000000000000000000\n      dup2\n      mstore\n      0x04\n      add\n      tag_205\n      swap2\n      swap1\n      tag_206\n      jump\t// in\n    tag_205:\n      mload(0x40)\n      dup1\n      swap2\n      sub\n      swap1\n      revert\n        /* \"https://github.com/OpenZeppelin/openzeppelin-contracts/blob/release-v4.0/contracts/utils/Address.sol\":7083:7808  function _verifyCallResult(bool success, bytes memory returndata, string memory errorMessage) private pure returns(bytes memory) {... */\n    tag_200:\n      swap4\n      swap3\n      pop\n      pop\n      pop\n      jump\t// out\n        /* \"#utility.yul\":7:146   */\n    tag_208:\n        /* \"#utility.yul\":53:58   */\n      0x00\n        /* \"#utility.yul\":91:97   */\n      dup2\n        /* \"#utility.yul\":78:98   */\n      calldataload\n        /* \"#utility.yul\":69:98   */\n      swap1\n      pop\n        /* \"#utility.yul\":107:140   */\n      tag_210\n        /* \"#utility.yul\":134:139   */\n      dup2\n        /* \"#utility.yul\":107:140   */\n      tag_211\n      jump\t// in\n    tag_210:\n        /* \"#utility.yul\":59:146   */\n      swap3\n      swap2\n      pop\n      pop\n      jump\t// out\n        /* \"#utility.yul\":152:289   */\n    tag_212:\n        /* \"#utility.yul\":206:211   */\n      0x00\n        /* \"#utility.yul\":237:243   */\n      dup2\n        /* \"#utility.yul\":231:244   */\n      mload\n        /* \"#utility.yul\":222:244   */\n      swap1\n      pop\n        /* \"#utility.yul\":253:283   */\n      tag_214\n        /* \"#utility.yul\":277:282   */\n      dup2\n        /* \"#utility.yul\":253:283   */\n      tag_215\n      jump\t// in\n    tag_214:\n        /* \"#utility.yul\":212:289   */\n      swap3\n      swap2\n      pop\n      pop\n      jump\t// out\n        /* \"#utility.yul\":295:434   */\n    tag_216:\n        /* \"#utility.yul\":341:346   */\n      0x00\n        /* \"#utility.yul\":379:385   */\n      dup2\n        /* \"#utility.yul\":366:386   */\n      calldataload\n        /* \"#utility.yul\":357:386   */\n      swap1\n      pop\n        /* \"#utility.yul\":395:428   */\n      tag_218\n        /* \"#utility.yul\":422:427   */\n      dup2\n        /* \"#utility.yul\":395:428   */\n      tag_219\n      jump\t// in\n    tag_218:\n        /* \"#utility.yul\":347:434   */\n      swap3\n      swap2\n      pop\n      pop\n      jump\t// out\n        /* \"#utility.yul\":440:583   */\n    tag_220:\n        /* \"#utility.yul\":497:502   */\n      0x00\n        /* \"#utility.yul\":528:534   */\n      dup2\n        /* \"#utility.yul\":522:535   */\n      mload\n        /* \"#utility.yul\":513:535   */\n      swap1\n      pop\n        /* \"#utility.yul\":544:577   */\n      tag_222\n        /* \"#utility.yul\":571:576   */\n      dup2\n        /* \"#utility.yul\":544:577   */\n      tag_219\n      jump\t// in\n    tag_222:\n        /* \"#utility.yul\":503:583   */\n      swap3\n      swap2\n      pop\n      pop\n      jump\t// out\n        /* \"#utility.yul\":589:851   */\n    tag_38:\n        /* \"#utility.yul\":648:654   */\n      0x00\n        /* \"#utility.yul\":697:699   */\n      0x20\n        /* \"#utility.yul\":685:694   */\n      dup3\n        /* \"#utility.yul\":676:683   */\n      dup5\n        /* \"#utility.yul\":672:695   */\n      sub\n        /* \"#utility.yul\":668:700   */\n      slt\n        /* \"#utility.yul\":665:667   */\n      iszero\n      tag_224\n      jumpi\n        /* \"#utility.yul\":713:714   */\n      0x00\n        /* \"#utility.yul\":710:711   */\n      dup1\n        /* \"#utility.yul\":703:715   */\n      revert\n        /* \"#utility.yul\":665:667   */\n    tag_224:\n        /* \"#utility.yul\":756:757   */\n      0x00\n        /* \"#utility.yul\":781:834   */\n      tag_225\n        /* \"#utility.yul\":826:833   */\n      dup5\n        /* \"#utility.yul\":817:823   */\n      dup3\n        /* \"#utility.yul\":806:815   */\n      dup6\n        /* \"#utility.yul\":802:824   */\n      add\n        /* \"#utility.yul\":781:834   */\n      tag_208\n      jump\t// in\n    tag_225:\n        /* \"#utility.yul\":771:834   */\n      swap2\n      pop\n        /* \"#utility.yul\":727:844   */\n      pop\n        /* \"#utility.yul\":655:851   */\n      swap3\n      swap2\n      pop\n      pop\n      jump\t// out\n        /* \"#utility.yul\":857:1135   */\n    tag_91:\n        /* \"#utility.yul\":924:930   */\n      0x00\n        /* \"#utility.yul\":973:975   */\n      0x20\n        /* \"#utility.yul\":961:970   */\n      dup3\n        /* \"#utility.yul\":952:959   */\n      dup5\n        /* \"#utility.yul\":948:971   */\n      sub\n        /* \"#utility.yul\":944:976   */\n      slt\n        /* \"#utility.yul\":941:943   */\n      iszero\n      tag_227\n      jumpi\n        /* \"#utility.yul\":989:990   */\n      0x00\n        /* \"#utility.yul\":986:987   */\n      dup1\n        /* \"#utility.yul\":979:991   */\n      revert\n        /* \"#utility.yul\":941:943   */\n    tag_227:\n        /* \"#utility.yul\":1032:1033   */\n      0x00\n        /* \"#utility.yul\":1057:1118   */\n      tag_228\n        /* \"#utility.yul\":1110:1117   */\n      dup5\n        /* \"#utility.yul\":1101:1107   */\n      dup3\n        /* \"#utility.yul\":1090:1099   */\n      dup6\n        /* \"#utility.yul\":1086:1108   */\n      add\n        /* \"#utility.yul\":1057:1118   */\n      tag_212\n      jump\t// in\n    tag_228:\n        /* \"#utility.yul\":1047:1118   */\n      swap2\n      pop\n        /* \"#utility.yul\":1003:1128   */\n      pop\n        /* \"#utility.yul\":931:1135   */\n      swap3\n      swap2\n      pop\n      pop\n      jump\t// out\n        /* \"#utility.yul\":1141:1403   */\n    tag_18:\n        /* \"#utility.yul\":1200:1206   */\n      0x00\n        /* \"#utility.yul\":1249:1251   */\n      0x20\n        /* \"#utility.yul\":1237:1246   */\n      dup3\n        /* \"#utility.yul\":1228:1235   */\n      dup5\n        /* \"#utility.yul\":1224:1247   */\n      sub\n        /* \"#utility.yul\":1220:1252   */\n      slt\n        /* \"#utility.yul\":1217:1219   */\n      iszero\n      tag_230\n      jumpi\n        /* \"#utility.yul\":1265:1266   */\n      0x00\n        /* \"#utility.yul\":1262:1263   */\n      dup1\n        /* \"#utility.yul\":1255:1267   */\n      revert\n        /* \"#utility.yul\":1217:1219   */\n    tag_230:\n        /* \"#utility.yul\":1308:1309   */\n      0x00\n        /* \"#utility.yul\":1333:1386   */\n      tag_231\n        /* \"#utility.yul\":1378:1385   */\n      dup5\n        /* \"#utility.yul\":1369:1375   */\n      dup3\n        /* \"#utility.yul\":1358:1367   */\n      dup6\n        /* \"#utility.yul\":1354:1376   */\n      add\n        /* \"#utility.yul\":1333:1386   */\n      tag_216\n      jump\t// in\n    tag_231:\n        /* \"#utility.yul\":1323:1386   */\n      swap2\n      pop\n        /* \"#utility.yul\":1279:1396   */\n      pop\n        /* \"#utility.yul\":1207:1403   */\n      swap3\n      swap2\n      pop\n      pop\n      jump\t// out\n        /* \"#utility.yul\":1409:1693   */\n    tag_73:\n        /* \"#utility.yul\":1479:1485   */\n      0x00\n        /* \"#utility.yul\":1528:1530   */\n      0x20\n        /* \"#utility.yul\":1516:1525   */\n      dup3\n        /* \"#utility.yul\":1507:1514   */\n      dup5\n        /* \"#utility.yul\":1503:1526   */\n      sub\n        /* \"#utility.yul\":1499:1531   */\n      slt\n        /* \"#utility.yul\":1496:1498   */\n      iszero\n      tag_233\n      jumpi\n        /* \"#utility.yul\":1544:1545   */\n      0x00\n        /* \"#utility.yul\":1541:1542   */\n      dup1\n        /* \"#utility.yul\":1534:1546   */\n      revert\n        /* \"#utility.yul\":1496:1498   */\n    tag_233:\n        /* \"#utility.yul\":1587:1588   */\n      0x00\n        /* \"#utility.yul\":1612:1676   */\n      tag_234\n        /* \"#utility.yul\":1668:1675   */\n      dup5\n        /* \"#utility.yul\":1659:1665   */\n      dup3\n        /* \"#utility.yul\":1648:1657   */\n      dup6\n        /* \"#utility.yul\":1644:1666   */\n      add\n        /* \"#utility.yul\":1612:1676   */\n      tag_220\n      jump\t// in\n    tag_234:\n        /* \"#utility.yul\":1602:1676   */\n      swap2\n      pop\n        /* \"#utility.yul\":1558:1686   */\n      pop\n        /* \"#utility.yul\":1486:1693   */\n      swap3\n      swap2\n      pop\n      pop\n      jump\t// out\n        /* \"#utility.yul\":1699:1817   */\n    tag_235:\n        /* \"#utility.yul\":1786:1810   */\n      tag_237\n        /* \"#utility.yul\":1804:1809   */\n      dup2\n        /* \"#utility.yul\":1786:1810   */\n      tag_238\n      jump\t// in\n    tag_237:\n        /* \"#utility.yul\":1781:1784   */\n      dup3\n        /* \"#utility.yul\":1774:1811   */\n      mstore\n        /* \"#utility.yul\":1764:1817   */\n      pop\n      pop\n      jump\t// out\n        /* \"#utility.yul\":1823:2196   */\n    tag_239:\n        /* \"#utility.yul\":1927:1930   */\n      0x00\n        /* \"#utility.yul\":1955:1993   */\n      tag_241\n        /* \"#utility.yul\":1987:1992   */\n      dup3\n        /* \"#utility.yul\":1955:1993   */\n      tag_242\n      jump\t// in\n    tag_241:\n        /* \"#utility.yul\":2009:2097   */\n      tag_243\n        /* \"#utility.yul\":2090:2096   */\n      dup2\n        /* \"#utility.yul\":2085:2088   */\n      dup6\n        /* \"#utility.yul\":2009:2097   */\n      tag_244\n      jump\t// in\n    tag_243:\n        /* \"#utility.yul\":2002:2097   */\n      swap4\n      pop\n        /* \"#utility.yul\":2106:2158   */\n      tag_245\n        /* \"#utility.yul\":2151:2157   */\n      dup2\n        /* \"#utility.yul\":2146:2149   */\n      dup6\n        /* \"#utility.yul\":2139:2143   */\n      0x20\n        /* \"#utility.yul\":2132:2137   */\n      dup7\n        /* \"#utility.yul\":2128:2144   */\n      add\n        /* \"#utility.yul\":2106:2158   */\n      tag_246\n      jump\t// in\n    tag_245:\n        /* \"#utility.yul\":2183:2189   */\n      dup1\n        /* \"#utility.yul\":2178:2181   */\n      dup5\n        /* \"#utility.yul\":2174:2190   */\n      add\n        /* \"#utility.yul\":2167:2190   */\n      swap2\n      pop\n        /* \"#utility.yul\":1931:2196   */\n      pop\n      swap3\n      swap2\n      pop\n      pop\n      jump\t// out\n        /* \"#utility.yul\":2202:2361   */\n    tag_247:\n        /* \"#utility.yul\":2303:2354   */\n      tag_249\n        /* \"#utility.yul\":2348:2353   */\n      dup2\n        /* \"#utility.yul\":2303:2354   */\n      tag_250\n      jump\t// in\n    tag_249:\n        /* \"#utility.yul\":2298:2301   */\n      dup3\n        /* \"#utility.yul\":2291:2355   */\n      mstore\n        /* \"#utility.yul\":2281:2361   */\n      pop\n      pop\n      jump\t// out\n        /* \"#utility.yul\":2367:2731   */\n    tag_251:\n        /* \"#utility.yul\":2455:2458   */\n      0x00\n        /* \"#utility.yul\":2483:2522   */\n      tag_253\n        /* \"#utility.yul\":2516:2521   */\n      dup3\n        /* \"#utility.yul\":2483:2522   */\n      tag_254\n      jump\t// in\n    tag_253:\n        /* \"#utility.yul\":2538:2609   */\n      tag_255\n        /* \"#utility.yul\":2602:2608   */\n      dup2\n        /* \"#utility.yul\":2597:2600   */\n      dup6\n        /* \"#utility.yul\":2538:2609   */\n      tag_256\n      jump\t// in\n    tag_255:\n        /* \"#utility.yul\":2531:2609   */\n      swap4\n      pop\n        /* \"#utility.yul\":2618:2670   */\n      tag_257\n        /* \"#utility.yul\":2663:2669   */\n      dup2\n        /* \"#utility.yul\":2658:2661   */\n      dup6\n        /* \"#utility.yul\":2651:2655   */\n      0x20\n        /* \"#utility.yul\":2644:2649   */\n      dup7\n        /* \"#utility.yul\":2640:2656   */\n      add\n        /* \"#utility.yul\":2618:2670   */\n      tag_246\n      jump\t// in\n    tag_257:\n        /* \"#utility.yul\":2695:2724   */\n      tag_258\n        /* \"#utility.yul\":2717:2723   */\n      dup2\n        /* \"#utility.yul\":2695:2724   */\n      tag_259\n      jump\t// in\n    tag_258:\n        /* \"#utility.yul\":2690:2693   */\n      dup5\n        /* \"#utility.yul\":2686:2725   */\n      add\n        /* \"#utility.yul\":2679:2725   */\n      swap2\n      pop\n        /* \"#utility.yul\":2459:2731   */\n      pop\n      swap3\n      swap2\n      pop\n      pop\n      jump\t// out\n        /* \"#utility.yul\":2737:3103   */\n    tag_260:\n        /* \"#utility.yul\":2879:2882   */\n      0x00\n        /* \"#utility.yul\":2900:2967   */\n      tag_262\n        /* \"#utility.yul\":2964:2966   */\n      0x2e\n        /* \"#utility.yul\":2959:2962   */\n      dup4\n        /* \"#utility.yul\":2900:2967   */\n      tag_256\n      jump\t// in\n    tag_262:\n        /* \"#utility.yul\":2893:2967   */\n      swap2\n      pop\n        /* \"#utility.yul\":2976:3069   */\n      tag_263\n        /* \"#utility.yul\":3065:3068   */\n      dup3\n        /* \"#utility.yul\":2976:3069   */\n      tag_264\n      jump\t// in\n    tag_263:\n        /* \"#utility.yul\":3094:3096   */\n      0x40\n        /* \"#utility.yul\":3089:3092   */\n      dup3\n        /* \"#utility.yul\":3085:3097   */\n      add\n        /* \"#utility.yul\":3078:3097   */\n      swap1\n      pop\n        /* \"#utility.yul\":2883:3103   */\n      swap2\n      swap1\n      pop\n      jump\t// out\n        /* \"#utility.yul\":3109:3475   */\n    tag_265:\n        /* \"#utility.yul\":3251:3254   */\n      0x00\n        /* \"#utility.yul\":3272:3339   */\n      tag_267\n        /* \"#utility.yul\":3336:3338   */\n      0x26\n        /* \"#utility.yul\":3331:3334   */\n      dup4\n        /* \"#utility.yul\":3272:3339   */\n      tag_256\n      jump\t// in\n    tag_267:\n        /* \"#utility.yul\":3265:3339   */\n      swap2\n      pop\n        /* \"#utility.yul\":3348:3441   */\n      tag_268\n        /* \"#utility.yul\":3437:3440   */\n      dup3\n        /* \"#utility.yul\":3348:3441   */\n      tag_269\n      jump\t// in\n    tag_268:\n        /* \"#utility.yul\":3466:3468   */\n      0x40\n        /* \"#utility.yul\":3461:3464   */\n      dup3\n        /* \"#utility.yul\":3457:3469   */\n      add\n        /* \"#utility.yul\":3450:3469   */\n      swap1\n      pop\n        /* \"#utility.yul\":3255:3475   */\n      swap2\n      swap1\n      pop\n      jump\t// out\n        /* \"#utility.yul\":3481:3847   */\n    tag_270:\n        /* \"#utility.yul\":3623:3626   */\n      0x00\n        /* \"#utility.yul\":3644:3711   */\n      tag_272\n        /* \"#utility.yul\":3708:3710   */\n      0x0f\n        /* \"#utility.yul\":3703:3706   */\n      dup4\n        /* \"#utility.yul\":3644:3711   */\n      tag_256\n      jump\t// in\n    tag_272:\n        /* \"#utility.yul\":3637:3711   */\n      swap2\n      pop\n        /* \"#utility.yul\":3720:3813   */\n      tag_273\n        /* \"#utility.yul\":3809:3812   */\n      dup3\n        /* \"#utility.yul\":3720:3813   */\n      tag_274\n      jump\t// in\n    tag_273:\n        /* \"#utility.yul\":3838:3840   */\n      0x20\n        /* \"#utility.yul\":3833:3836   */\n      dup3\n        /* \"#utility.yul\":3829:3841   */\n      add\n        /* \"#utility.yul\":3822:3841   */\n      swap1\n      pop\n        /* \"#utility.yul\":3627:3847   */\n      swap2\n      swap1\n      pop\n      jump\t// out\n        /* \"#utility.yul\":3853:4219   */\n    tag_275:\n        /* \"#utility.yul\":3995:3998   */\n      0x00\n        /* \"#utility.yul\":4016:4083   */\n      tag_277\n        /* \"#utility.yul\":4080:4082   */\n      0x26\n        /* \"#utility.yul\":4075:4078   */\n      dup4\n        /* \"#utility.yul\":4016:4083   */\n      tag_256\n      jump\t// in\n    tag_277:\n        /* \"#utility.yul\":4009:4083   */\n      swap2\n      pop\n        /* \"#utility.yul\":4092:4185   */\n      tag_278\n        /* \"#utility.yul\":4181:4184   */\n      dup3\n        /* \"#utility.yul\":4092:4185   */\n      tag_279\n      jump\t// in\n    tag_278:\n        /* \"#utility.yul\":4210:4212   */\n      0x40\n        /* \"#utility.yul\":4205:4208   */\n      dup3\n        /* \"#utility.yul\":4201:4213   */\n      add\n        /* \"#utility.yul\":4194:4213   */\n      swap1\n      pop\n        /* \"#utility.yul\":3999:4219   */\n      swap2\n      swap1\n      pop\n      jump\t// out\n        /* \"#utility.yul\":4225:4593   */\n    tag_280:\n        /* \"#utility.yul\":4367:4370   */\n      0x00\n        /* \"#utility.yul\":4388:4456   */\n      tag_282\n        /* \"#utility.yul\":4452:4455   */\n      0x6e\n        /* \"#utility.yul\":4447:4450   */\n      dup4\n        /* \"#utility.yul\":4388:4456   */\n      tag_256\n      jump\t// in\n    tag_282:\n        /* \"#utility.yul\":4381:4456   */\n      swap2\n      pop\n        /* \"#utility.yul\":4465:4558   */\n      tag_283\n        /* \"#utility.yul\":4554:4557   */\n      dup3\n        /* \"#utility.yul\":4465:4558   */\n      tag_284\n      jump\t// in\n    tag_283:\n        /* \"#utility.yul\":4583:4586   */\n      0x80\n        /* \"#utility.yul\":4578:4581   */\n      dup3\n        /* \"#utility.yul\":4574:4587   */\n      add\n        /* \"#utility.yul\":4567:4587   */\n      swap1\n      pop\n        /* \"#utility.yul\":4371:4593   */\n      swap2\n      swap1\n      pop\n      jump\t// out\n        /* \"#utility.yul\":4599:4965   */\n    tag_285:\n        /* \"#utility.yul\":4741:4744   */\n      0x00\n        /* \"#utility.yul\":4762:4829   */\n      tag_287\n        /* \"#utility.yul\":4826:4828   */\n      0x20\n        /* \"#utility.yul\":4821:4824   */\n      dup4\n        /* \"#utility.yul\":4762:4829   */\n      tag_256\n      jump\t// in\n    tag_287:\n        /* \"#utility.yul\":4755:4829   */\n      swap2\n      pop\n        /* \"#utility.yul\":4838:4931   */\n      tag_288\n        /* \"#utility.yul\":4927:4930   */\n      dup3\n        /* \"#utility.yul\":4838:4931   */\n      tag_289\n      jump\t// in\n    tag_288:\n        /* \"#utility.yul\":4956:4958   */\n      0x20\n        /* \"#utility.yul\":4951:4954   */\n      dup3\n        /* \"#utility.yul\":4947:4959   */\n      add\n        /* \"#utility.yul\":4940:4959   */\n      swap1\n      pop\n        /* \"#utility.yul\":4745:4965   */\n      swap2\n      swap1\n      pop\n      jump\t// out\n        /* \"#utility.yul\":4971:5337   */\n    tag_290:\n        /* \"#utility.yul\":5113:5116   */\n      0x00\n        /* \"#utility.yul\":5134:5201   */\n      tag_292\n        /* \"#utility.yul\":5198:5200   */\n      0x1d\n        /* \"#utility.yul\":5193:5196   */\n      dup4\n        /* \"#utility.yul\":5134:5201   */\n      tag_256\n      jump\t// in\n    tag_292:\n        /* \"#utility.yul\":5127:5201   */\n      swap2\n      pop\n        /* \"#utility.yul\":5210:5303   */\n      tag_293\n        /* \"#utility.yul\":5299:5302   */\n      dup3\n        /* \"#utility.yul\":5210:5303   */\n      tag_294\n      jump\t// in\n    tag_293:\n        /* \"#utility.yul\":5328:5330   */\n      0x20\n        /* \"#utility.yul\":5323:5326   */\n      dup3\n        /* \"#utility.yul\":5319:5331   */\n      add\n        /* \"#utility.yul\":5312:5331   */\n      swap1\n      pop\n        /* \"#utility.yul\":5117:5337   */\n      swap2\n      swap1\n      pop\n      jump\t// out\n        /* \"#utility.yul\":5343:5709   */\n    tag_295:\n        /* \"#utility.yul\":5485:5488   */\n      0x00\n        /* \"#utility.yul\":5506:5573   */\n      tag_297\n        /* \"#utility.yul\":5570:5572   */\n      0x1d\n        /* \"#utility.yul\":5565:5568   */\n      dup4\n        /* \"#utility.yul\":5506:5573   */\n      tag_256\n      jump\t// in\n    tag_297:\n        /* \"#utility.yul\":5499:5573   */\n      swap2\n      pop\n        /* \"#utility.yul\":5582:5675   */\n      tag_298\n        /* \"#utility.yul\":5671:5674   */\n      dup3\n        /* \"#utility.yul\":5582:5675   */\n      tag_299\n      jump\t// in\n    tag_298:\n        /* \"#utility.yul\":5700:5702   */\n      0x20\n        /* \"#utility.yul\":5695:5698   */\n      dup3\n        /* \"#utility.yul\":5691:5703   */\n      add\n        /* \"#utility.yul\":5684:5703   */\n      swap1\n      pop\n        /* \"#utility.yul\":5489:5709   */\n      swap2\n      swap1\n      pop\n      jump\t// out\n        /* \"#utility.yul\":5715:6081   */\n    tag_300:\n        /* \"#utility.yul\":5857:5860   */\n      0x00\n        /* \"#utility.yul\":5878:5945   */\n      tag_302\n        /* \"#utility.yul\":5942:5944   */\n      0x2a\n        /* \"#utility.yul\":5937:5940   */\n      dup4\n        /* \"#utility.yul\":5878:5945   */\n      tag_256\n      jump\t// in\n    tag_302:\n        /* \"#utility.yul\":5871:5945   */\n      swap2\n      pop\n        /* \"#utility.yul\":5954:6047   */\n      tag_303\n        /* \"#utility.yul\":6043:6046   */\n      dup3\n        /* \"#utility.yul\":5954:6047   */\n      tag_304\n      jump\t// in\n    tag_303:\n        /* \"#utility.yul\":6072:6074   */\n      0x40\n        /* \"#utility.yul\":6067:6070   */\n      dup3\n        /* \"#utility.yul\":6063:6075   */\n      add\n        /* \"#utility.yul\":6056:6075   */\n      swap1\n      pop\n        /* \"#utility.yul\":5861:6081   */\n      swap2\n      swap1\n      pop\n      jump\t// out\n        /* \"#utility.yul\":6087:6453   */\n    tag_305:\n        /* \"#utility.yul\":6229:6232   */\n      0x00\n        /* \"#utility.yul\":6250:6317   */\n      tag_307\n        /* \"#utility.yul\":6314:6316   */\n      0x28\n        /* \"#utility.yul\":6309:6312   */\n      dup4\n        /* \"#utility.yul\":6250:6317   */\n      tag_256\n      jump\t// in\n    tag_307:\n        /* \"#utility.yul\":6243:6317   */\n      swap2\n      pop\n        /* \"#utility.yul\":6326:6419   */\n      tag_308\n        /* \"#utility.yul\":6415:6418   */\n      dup3\n        /* \"#utility.yul\":6326:6419   */\n      tag_309\n      jump\t// in\n    tag_308:\n        /* \"#utility.yul\":6444:6446   */\n      0x40\n        /* \"#utility.yul\":6439:6442   */\n      dup3\n        /* \"#utility.yul\":6435:6447   */\n      add\n        /* \"#utility.yul\":6428:6447   */\n      swap1\n      pop\n        /* \"#utility.yul\":6233:6453   */\n      swap2\n      swap1\n      pop\n      jump\t// out\n        /* \"#utility.yul\":6459:6825   */\n    tag_310:\n        /* \"#utility.yul\":6601:6604   */\n      0x00\n        /* \"#utility.yul\":6622:6689   */\n      tag_312\n        /* \"#utility.yul\":6686:6688   */\n      0x1f\n        /* \"#utility.yul\":6681:6684   */\n      dup4\n        /* \"#utility.yul\":6622:6689   */\n      tag_256\n      jump\t// in\n    tag_312:\n        /* \"#utility.yul\":6615:6689   */\n      swap2\n      pop\n        /* \"#utility.yul\":6698:6791   */\n      tag_313\n        /* \"#utility.yul\":6787:6790   */\n      dup3\n        /* \"#utility.yul\":6698:6791   */\n      tag_314\n      jump\t// in\n    tag_313:\n        /* \"#utility.yul\":6816:6818   */\n      0x20\n        /* \"#utility.yul\":6811:6814   */\n      dup3\n        /* \"#utility.yul\":6807:6819   */\n      add\n        /* \"#utility.yul\":6800:6819   */\n      swap1\n      pop\n        /* \"#utility.yul\":6605:6825   */\n      swap2\n      swap1\n      pop\n      jump\t// out\n        /* \"#utility.yul\":6831:7197   */\n    tag_315:\n        /* \"#utility.yul\":6973:6976   */\n      0x00\n        /* \"#utility.yul\":6994:7061   */\n      tag_317\n        /* \"#utility.yul\":7058:7060   */\n      0x1b\n        /* \"#utility.yul\":7053:7056   */\n      dup4\n        /* \"#utility.yul\":6994:7061   */\n      tag_256\n      jump\t// in\n    tag_317:\n        /* \"#utility.yul\":6987:7061   */\n      swap2\n      pop\n        /* \"#utility.yul\":7070:7163   */\n      tag_318\n        /* \"#utility.yul\":7159:7162   */\n      dup3\n        /* \"#utility.yul\":7070:7163   */\n      tag_319\n      jump\t// in\n    tag_318:\n        /* \"#utility.yul\":7188:7190   */\n      0x20\n        /* \"#utility.yul\":7183:7186   */\n      dup3\n        /* \"#utility.yul\":7179:7191   */\n      add\n        /* \"#utility.yul\":7172:7191   */\n      swap1\n      pop\n        /* \"#utility.yul\":6977:7197   */\n      swap2\n      swap1\n      pop\n      jump\t// out\n        /* \"#utility.yul\":7203:7321   */\n    tag_320:\n        /* \"#utility.yul\":7290:7314   */\n      tag_322\n        /* \"#utility.yul\":7308:7313   */\n      dup2\n        /* \"#utility.yul\":7290:7314   */\n      tag_323\n      jump\t// in\n    tag_322:\n        /* \"#utility.yul\":7285:7288   */\n      dup3\n        /* \"#utility.yul\":7278:7315   */\n      mstore\n        /* \"#utility.yul\":7268:7321   */\n      pop\n      pop\n      jump\t// out\n        /* \"#utility.yul\":7327:7598   */\n    tag_193:\n        /* \"#utility.yul\":7457:7460   */\n      0x00\n        /* \"#utility.yul\":7479:7572   */\n      tag_325\n        /* \"#utility.yul\":7568:7571   */\n      dup3\n        /* \"#utility.yul\":7559:7565   */\n      dup5\n        /* \"#utility.yul\":7479:7572   */\n      tag_239\n      jump\t// in\n    tag_325:\n        /* \"#utility.yul\":7472:7572   */\n      swap2\n      pop\n        /* \"#utility.yul\":7589:7592   */\n      dup2\n        /* \"#utility.yul\":7582:7592   */\n      swap1\n      pop\n        /* \"#utility.yul\":7461:7598   */\n      swap3\n      swap2\n      pop\n      pop\n      jump\t// out\n        /* \"#utility.yul\":7604:7826   */\n    tag_47:\n        /* \"#utility.yul\":7697:7701   */\n      0x00\n        /* \"#utility.yul\":7735:7737   */\n      0x20\n        /* \"#utility.yul\":7724:7733   */\n      dup3\n        /* \"#utility.yul\":7720:7738   */\n      add\n        /* \"#utility.yul\":7712:7738   */\n      swap1\n      pop\n        /* \"#utility.yul\":7748:7819   */\n      tag_327\n        /* \"#utility.yul\":7816:7817   */\n      0x00\n        /* \"#utility.yul\":7805:7814   */\n      dup4\n        /* \"#utility.yul\":7801:7818   */\n      add\n        /* \"#utility.yul\":7792:7798   */\n      dup5\n        /* \"#utility.yul\":7748:7819   */\n      tag_235\n      jump\t// in\n    tag_327:\n        /* \"#utility.yul\":7702:7826   */\n      swap3\n      swap2\n      pop\n      pop\n      jump\t// out\n        /* \"#utility.yul\":7832:8274   */\n    tag_86:\n        /* \"#utility.yul\":7981:7985   */\n      0x00\n        /* \"#utility.yul\":8019:8021   */\n      0x60\n        /* \"#utility.yul\":8008:8017   */\n      dup3\n        /* \"#utility.yul\":8004:8022   */\n      add\n        /* \"#utility.yul\":7996:8022   */\n      swap1\n      pop\n        /* \"#utility.yul\":8032:8103   */\n      tag_329\n        /* \"#utility.yul\":8100:8101   */\n      0x00\n        /* \"#utility.yul\":8089:8098   */\n      dup4\n        /* \"#utility.yul\":8085:8102   */\n      add\n        /* \"#utility.yul\":8076:8082   */\n      dup7\n        /* \"#utility.yul\":8032:8103   */\n      tag_235\n      jump\t// in\n    tag_329:\n        /* \"#utility.yul\":8113:8185   */\n      tag_330\n        /* \"#utility.yul\":8181:8183   */\n      0x20\n        /* \"#utility.yul\":8170:8179   */\n      dup4\n        /* \"#utility.yul\":8166:8184   */\n      add\n        /* \"#utility.yul\":8157:8163   */\n      dup6\n        /* \"#utility.yul\":8113:8185   */\n      tag_235\n      jump\t// in\n    tag_330:\n        /* \"#utility.yul\":8195:8267   */\n      tag_331\n        /* \"#utility.yul\":8263:8265   */\n      0x40\n        /* \"#utility.yul\":8252:8261   */\n      dup4\n        /* \"#utility.yul\":8248:8266   */\n      add\n        /* \"#utility.yul\":8239:8245   */\n      dup5\n        /* \"#utility.yul\":8195:8267   */\n      tag_320\n      jump\t// in\n    tag_331:\n        /* \"#utility.yul\":7986:8274   */\n      swap5\n      swap4\n      pop\n      pop\n      pop\n      pop\n      jump\t// out\n        /* \"#utility.yul\":8280:8612   */\n    tag_96:\n        /* \"#utility.yul\":8401:8405   */\n      0x00\n        /* \"#utility.yul\":8439:8441   */\n      0x40\n        /* \"#utility.yul\":8428:8437   */\n      dup3\n        /* \"#utility.yul\":8424:8442   */\n      add\n        /* \"#utility.yul\":8416:8442   */\n      swap1\n      pop\n        /* \"#utility.yul\":8452:8523   */\n      tag_333\n        /* \"#utility.yul\":8520:8521   */\n      0x00\n        /* \"#utility.yul\":8509:8518   */\n      dup4\n        /* \"#utility.yul\":8505:8522   */\n      add\n        /* \"#utility.yul\":8496:8502   */\n      dup6\n        /* \"#utility.yul\":8452:8523   */\n      tag_235\n      jump\t// in\n    tag_333:\n        /* \"#utility.yul\":8533:8605   */\n      tag_334\n        /* \"#utility.yul\":8601:8603   */\n      0x20\n        /* \"#utility.yul\":8590:8599   */\n      dup4\n        /* \"#utility.yul\":8586:8604   */\n      add\n        /* \"#utility.yul\":8577:8583   */\n      dup5\n        /* \"#utility.yul\":8533:8605   */\n      tag_320\n      jump\t// in\n    tag_334:\n        /* \"#utility.yul\":8406:8612   */\n      swap4\n      swap3\n      pop\n      pop\n      pop\n      jump\t// out\n        /* \"#utility.yul\":8618:8868   */\n    tag_23:\n        /* \"#utility.yul\":8725:8729   */\n      0x00\n        /* \"#utility.yul\":8763:8765   */\n      0x20\n        /* \"#utility.yul\":8752:8761   */\n      dup3\n        /* \"#utility.yul\":8748:8766   */\n      add\n        /* \"#utility.yul\":8740:8766   */\n      swap1\n      pop\n        /* \"#utility.yul\":8776:8861   */\n      tag_336\n        /* \"#utility.yul\":8858:8859   */\n      0x00\n        /* \"#utility.yul\":8847:8856   */\n      dup4\n        /* \"#utility.yul\":8843:8860   */\n      add\n        /* \"#utility.yul\":8834:8840   */\n      dup5\n        /* \"#utility.yul\":8776:8861   */\n      tag_247\n      jump\t// in\n    tag_336:\n        /* \"#utility.yul\":8730:8868   */\n      swap3\n      swap2\n      pop\n      pop\n      jump\t// out\n        /* \"#utility.yul\":8874:9187   */\n    tag_206:\n        /* \"#utility.yul\":8987:8991   */\n      0x00\n        /* \"#utility.yul\":9025:9027   */\n      0x20\n        /* \"#utility.yul\":9014:9023   */\n      dup3\n        /* \"#utility.yul\":9010:9028   */\n      add\n        /* \"#utility.yul\":9002:9028   */\n      swap1\n      pop\n        /* \"#utility.yul\":9074:9083   */\n      dup2\n        /* \"#utility.yul\":9068:9072   */\n      dup2\n        /* \"#utility.yul\":9064:9084   */\n      sub\n        /* \"#utility.yul\":9060:9061   */\n      0x00\n        /* \"#utility.yul\":9049:9058   */\n      dup4\n        /* \"#utility.yul\":9045:9062   */\n      add\n        /* \"#utility.yul\":9038:9085   */\n      mstore\n        /* \"#utility.yul\":9102:9180   */\n      tag_338\n        /* \"#utility.yul\":9175:9179   */\n      dup2\n        /* \"#utility.yul\":9166:9172   */\n      dup5\n        /* \"#utility.yul\":9102:9180   */\n      tag_251\n      jump\t// in\n    tag_338:\n        /* \"#utility.yul\":9094:9180   */\n      swap1\n      pop\n        /* \"#utility.yul\":8992:9187   */\n      swap3\n      swap2\n      pop\n      pop\n      jump\t// out\n        /* \"#utility.yul\":9193:9612   */\n    tag_120:\n        /* \"#utility.yul\":9359:9363   */\n      0x00\n        /* \"#utility.yul\":9397:9399   */\n      0x20\n        /* \"#utility.yul\":9386:9395   */\n      dup3\n        /* \"#utility.yul\":9382:9400   */\n      add\n        /* \"#utility.yul\":9374:9400   */\n      swap1\n      pop\n        /* \"#utility.yul\":9446:9455   */\n      dup2\n        /* \"#utility.yul\":9440:9444   */\n      dup2\n        /* \"#utility.yul\":9436:9456   */\n      sub\n        /* \"#utility.yul\":9432:9433   */\n      0x00\n        /* \"#utility.yul\":9421:9430   */\n      dup4\n        /* \"#utility.yul\":9417:9434   */\n      add\n        /* \"#utility.yul\":9410:9457   */\n      mstore\n        /* \"#utility.yul\":9474:9605   */\n      tag_340\n        /* \"#utility.yul\":9600:9604   */\n      dup2\n        /* \"#utility.yul\":9474:9605   */\n      tag_260\n      jump\t// in\n    tag_340:\n        /* \"#utility.yul\":9466:9605   */\n      swap1\n      pop\n        /* \"#utility.yul\":9364:9612   */\n      swap2\n      swap1\n      pop\n      jump\t// out\n        /* \"#utility.yul\":9618:10037   */\n    tag_146:\n        /* \"#utility.yul\":9784:9788   */\n      0x00\n        /* \"#utility.yul\":9822:9824   */\n      0x20\n        /* \"#utility.yul\":9811:9820   */\n      dup3\n        /* \"#utility.yul\":9807:9825   */\n      add\n        /* \"#utility.yul\":9799:9825   */\n      swap1\n      pop\n        /* \"#utility.yul\":9871:9880   */\n      dup2\n        /* \"#utility.yul\":9865:9869   */\n      dup2\n        /* \"#utility.yul\":9861:9881   */\n      sub\n        /* \"#utility.yul\":9857:9858   */\n      0x00\n        /* \"#utility.yul\":9846:9855   */\n      dup4\n        /* \"#utility.yul\":9842:9859   */\n      add\n        /* \"#utility.yul\":9835:9882   */\n      mstore\n        /* \"#utility.yul\":9899:10030   */\n      tag_342\n        /* \"#utility.yul\":10025:10029   */\n      dup2\n        /* \"#utility.yul\":9899:10030   */\n      tag_265\n      jump\t// in\n    tag_342:\n        /* \"#utility.yul\":9891:10030   */\n      swap1\n      pop\n        /* \"#utility.yul\":9789:10037   */\n      swap2\n      swap1\n      pop\n      jump\t// out\n        /* \"#utility.yul\":10043:10462   */\n    tag_84:\n        /* \"#utility.yul\":10209:10213   */\n      0x00\n        /* \"#utility.yul\":10247:10249   */\n      0x20\n        /* \"#utility.yul\":10236:10245   */\n      dup3\n        /* \"#utility.yul\":10232:10250   */\n      add\n        /* \"#utility.yul\":10224:10250   */\n      swap1\n      pop\n        /* \"#utility.yul\":10296:10305   */\n      dup2\n        /* \"#utility.yul\":10290:10294   */\n      dup2\n        /* \"#utility.yul\":10286:10306   */\n      sub\n        /* \"#utility.yul\":10282:10283   */\n      0x00\n        /* \"#utility.yul\":10271:10280   */\n      dup4\n        /* \"#utility.yul\":10267:10284   */\n      add\n        /* \"#utility.yul\":10260:10307   */\n      mstore\n        /* \"#utility.yul\":10324:10455   */\n      tag_344\n        /* \"#utility.yul\":10450:10454   */\n      dup2\n        /* \"#utility.yul\":10324:10455   */\n      tag_270\n      jump\t// in\n    tag_344:\n        /* \"#utility.yul\":10316:10455   */\n      swap1\n      pop\n        /* \"#utility.yul\":10214:10462   */\n      swap2\n      swap1\n      pop\n      jump\t// out\n        /* \"#utility.yul\":10468:10887   */\n    tag_186:\n        /* \"#utility.yul\":10634:10638   */\n      0x00\n        /* \"#utility.yul\":10672:10674   */\n      0x20\n        /* \"#utility.yul\":10661:10670   */\n      dup3\n        /* \"#utility.yul\":10657:10675   */\n      add\n        /* \"#utility.yul\":10649:10675   */\n      swap1\n      pop\n        /* \"#utility.yul\":10721:10730   */\n      dup2\n        /* \"#utility.yul\":10715:10719   */\n      dup2\n        /* \"#utility.yul\":10711:10731   */\n      sub\n        /* \"#utility.yul\":10707:10708   */\n      0x00\n        /* \"#utility.yul\":10696:10705   */\n      dup4\n        /* \"#utility.yul\":10692:10709   */\n      add\n        /* \"#utility.yul\":10685:10732   */\n      mstore\n        /* \"#utility.yul\":10749:10880   */\n      tag_346\n        /* \"#utility.yul\":10875:10879   */\n      dup2\n        /* \"#utility.yul\":10749:10880   */\n      tag_275\n      jump\t// in\n    tag_346:\n        /* \"#utility.yul\":10741:10880   */\n      swap1\n      pop\n        /* \"#utility.yul\":10639:10887   */\n      swap2\n      swap1\n      pop\n      jump\t// out\n        /* \"#utility.yul\":10893:11312   */\n    tag_76:\n        /* \"#utility.yul\":11059:11063   */\n      0x00\n        /* \"#utility.yul\":11097:11099   */\n      0x20\n        /* \"#utility.yul\":11086:11095   */\n      dup3\n        /* \"#utility.yul\":11082:11100   */\n      add\n        /* \"#utility.yul\":11074:11100   */\n      swap1\n      pop\n        /* \"#utility.yul\":11146:11155   */\n      dup2\n        /* \"#utility.yul\":11140:11144   */\n      dup2\n        /* \"#utility.yul\":11136:11156   */\n      sub\n        /* \"#utility.yul\":11132:11133   */\n      0x00\n        /* \"#utility.yul\":11121:11130   */\n      dup4\n        /* \"#utility.yul\":11117:11134   */\n      add\n        /* \"#utility.yul\":11110:11157   */\n      mstore\n        /* \"#utility.yul\":11174:11305   */\n      tag_348\n        /* \"#utility.yul\":11300:11304   */\n      dup2\n        /* \"#utility.yul\":11174:11305   */\n      tag_280\n      jump\t// in\n    tag_348:\n        /* \"#utility.yul\":11166:11305   */\n      swap1\n      pop\n        /* \"#utility.yul\":11064:11312   */\n      swap2\n      swap1\n      pop\n      jump\t// out\n        /* \"#utility.yul\":11318:11737   */\n    tag_165:\n        /* \"#utility.yul\":11484:11488   */\n      0x00\n        /* \"#utility.yul\":11522:11524   */\n      0x20\n        /* \"#utility.yul\":11511:11520   */\n      dup3\n        /* \"#utility.yul\":11507:11525   */\n      add\n        /* \"#utility.yul\":11499:11525   */\n      swap1\n      pop\n        /* \"#utility.yul\":11571:11580   */\n      dup2\n        /* \"#utility.yul\":11565:11569   */\n      dup2\n        /* \"#utility.yul\":11561:11581   */\n      sub\n        /* \"#utility.yul\":11557:11558   */\n      0x00\n        /* \"#utility.yul\":11546:11555   */\n      dup4\n        /* \"#utility.yul\":11542:11559   */\n      add\n        /* \"#utility.yul\":11535:11582   */\n      mstore\n        /* \"#utility.yul\":11599:11730   */\n      tag_350\n        /* \"#utility.yul\":11725:11729   */\n      dup2\n        /* \"#utility.yul\":11599:11730   */\n      tag_285\n      jump\t// in\n    tag_350:\n        /* \"#utility.yul\":11591:11730   */\n      swap1\n      pop\n        /* \"#utility.yul\":11489:11737   */\n      swap2\n      swap1\n      pop\n      jump\t// out\n        /* \"#utility.yul\":11743:12162   */\n    tag_103:\n        /* \"#utility.yul\":11909:11913   */\n      0x00\n        /* \"#utility.yul\":11947:11949   */\n      0x20\n        /* \"#utility.yul\":11936:11945   */\n      dup3\n        /* \"#utility.yul\":11932:11950   */\n      add\n        /* \"#utility.yul\":11924:11950   */\n      swap1\n      pop\n        /* \"#utility.yul\":11996:12005   */\n      dup2\n        /* \"#utility.yul\":11990:11994   */\n      dup2\n        /* \"#utility.yul\":11986:12006   */\n      sub\n        /* \"#utility.yul\":11982:11983   */\n      0x00\n        /* \"#utility.yul\":11971:11980   */\n      dup4\n        /* \"#utility.yul\":11967:11984   */\n      add\n        /* \"#utility.yul\":11960:12007   */\n      mstore\n        /* \"#utility.yul\":12024:12155   */\n      tag_352\n        /* \"#utility.yul\":12150:12154   */\n      dup2\n        /* \"#utility.yul\":12024:12155   */\n      tag_290\n      jump\t// in\n    tag_352:\n        /* \"#utility.yul\":12016:12155   */\n      swap1\n      pop\n        /* \"#utility.yul\":11914:12162   */\n      swap2\n      swap1\n      pop\n      jump\t// out\n        /* \"#utility.yul\":12168:12587   */\n    tag_191:\n        /* \"#utility.yul\":12334:12338   */\n      0x00\n        /* \"#utility.yul\":12372:12374   */\n      0x20\n        /* \"#utility.yul\":12361:12370   */\n      dup3\n        /* \"#utility.yul\":12357:12375   */\n      add\n        /* \"#utility.yul\":12349:12375   */\n      swap1\n      pop\n        /* \"#utility.yul\":12421:12430   */\n      dup2\n        /* \"#utility.yul\":12415:12419   */\n      dup2\n        /* \"#utility.yul\":12411:12431   */\n      sub\n        /* \"#utility.yul\":12407:12408   */\n      0x00\n        /* \"#utility.yul\":12396:12405   */\n      dup4\n        /* \"#utility.yul\":12392:12409   */\n      add\n        /* \"#utility.yul\":12385:12432   */\n      mstore\n        /* \"#utility.yul\":12449:12580   */\n      tag_354\n        /* \"#utility.yul\":12575:12579   */\n      dup2\n        /* \"#utility.yul\":12449:12580   */\n      tag_295\n      jump\t// in\n    tag_354:\n        /* \"#utility.yul\":12441:12580   */\n      swap1\n      pop\n        /* \"#utility.yul\":12339:12587   */\n      swap2\n      swap1\n      pop\n      jump\t// out\n        /* \"#utility.yul\":12593:13012   */\n    tag_179:\n        /* \"#utility.yul\":12759:12763   */\n      0x00\n        /* \"#utility.yul\":12797:12799   */\n      0x20\n        /* \"#utility.yul\":12786:12795   */\n      dup3\n        /* \"#utility.yul\":12782:12800   */\n      add\n        /* \"#utility.yul\":12774:12800   */\n      swap1\n      pop\n        /* \"#utility.yul\":12846:12855   */\n      dup2\n        /* \"#utility.yul\":12840:12844   */\n      dup2\n        /* \"#utility.yul\":12836:12856   */\n      sub\n        /* \"#utility.yul\":12832:12833   */\n      0x00\n        /* \"#utility.yul\":12821:12830   */\n      dup4\n        /* \"#utility.yul\":12817:12834   */\n      add\n        /* \"#utility.yul\":12810:12857   */\n      mstore\n        /* \"#utility.yul\":12874:13005   */\n      tag_356\n        /* \"#utility.yul\":13000:13004   */\n      dup2\n        /* \"#utility.yul\":12874:13005   */\n      tag_300\n      jump\t// in\n    tag_356:\n        /* \"#utility.yul\":12866:13005   */\n      swap1\n      pop\n        /* \"#utility.yul\":12764:13012   */\n      swap2\n      swap1\n      pop\n      jump\t// out\n        /* \"#utility.yul\":13018:13437   */\n    tag_67:\n        /* \"#utility.yul\":13184:13188   */\n      0x00\n        /* \"#utility.yul\":13222:13224   */\n      0x20\n        /* \"#utility.yul\":13211:13220   */\n      dup3\n        /* \"#utility.yul\":13207:13225   */\n      add\n        /* \"#utility.yul\":13199:13225   */\n      swap1\n      pop\n        /* \"#utility.yul\":13271:13280   */\n      dup2\n        /* \"#utility.yul\":13265:13269   */\n      dup2\n        /* \"#utility.yul\":13261:13281   */\n      sub\n        /* \"#utility.yul\":13257:13258   */\n      0x00\n        /* \"#utility.yul\":13246:13255   */\n      dup4\n        /* \"#utility.yul\":13242:13259   */\n      add\n        /* \"#utility.yul\":13235:13282   */\n      mstore\n        /* \"#utility.yul\":13299:13430   */\n      tag_358\n        /* \"#utility.yul\":13425:13429   */\n      dup2\n        /* \"#utility.yul\":13299:13430   */\n      tag_305\n      jump\t// in\n    tag_358:\n        /* \"#utility.yul\":13291:13430   */\n      swap1\n      pop\n        /* \"#utility.yul\":13189:13437   */\n      swap2\n      swap1\n      pop\n      jump\t// out\n        /* \"#utility.yul\":13443:13862   */\n    tag_151:\n        /* \"#utility.yul\":13609:13613   */\n      0x00\n        /* \"#utility.yul\":13647:13649   */\n      0x20\n        /* \"#utility.yul\":13636:13645   */\n      dup3\n        /* \"#utility.yul\":13632:13650   */\n      add\n        /* \"#utility.yul\":13624:13650   */\n      swap1\n      pop\n        /* \"#utility.yul\":13696:13705   */\n      dup2\n        /* \"#utility.yul\":13690:13694   */\n      dup2\n        /* \"#utility.yul\":13686:13706   */\n      sub\n        /* \"#utility.yul\":13682:13683   */\n      0x00\n        /* \"#utility.yul\":13671:13680   */\n      dup4\n        /* \"#utility.yul\":13667:13684   */\n      add\n        /* \"#utility.yul\":13660:13707   */\n      mstore\n        /* \"#utility.yul\":13724:13855   */\n      tag_360\n        /* \"#utility.yul\":13850:13854   */\n      dup2\n        /* \"#utility.yul\":13724:13855   */\n      tag_310\n      jump\t// in\n    tag_360:\n        /* \"#utility.yul\":13716:13855   */\n      swap1\n      pop\n        /* \"#utility.yul\":13614:13862   */\n      swap2\n      swap1\n      pop\n      jump\t// out\n        /* \"#utility.yul\":13868:14287   */\n    tag_94:\n        /* \"#utility.yul\":14034:14038   */\n      0x00\n        /* \"#utility.yul\":14072:14074   */\n      0x20\n        /* \"#utility.yul\":14061:14070   */\n      dup3\n        /* \"#utility.yul\":14057:14075   */\n      add\n        /* \"#utility.yul\":14049:14075   */\n      swap1\n      pop\n        /* \"#utility.yul\":14121:14130   */\n      dup2\n        /* \"#utility.yul\":14115:14119   */\n      dup2\n        /* \"#utility.yul\":14111:14131   */\n      sub\n        /* \"#utility.yul\":14107:14108   */\n      0x00\n        /* \"#utility.yul\":14096:14105   */\n      dup4\n        /* \"#utility.yul\":14092:14109   */\n      add\n        /* \"#utility.yul\":14085:14132   */\n      mstore\n        /* \"#utility.yul\":14149:14280   */\n      tag_362\n        /* \"#utility.yul\":14275:14279   */\n      dup2\n        /* \"#utility.yul\":14149:14280   */\n      tag_315\n      jump\t// in\n    tag_362:\n        /* \"#utility.yul\":14141:14280   */\n      swap1\n      pop\n        /* \"#utility.yul\":14039:14287   */\n      swap2\n      swap1\n      pop\n      jump\t// out\n        /* \"#utility.yul\":14293:14515   */\n    tag_27:\n        /* \"#utility.yul\":14386:14390   */\n      0x00\n        /* \"#utility.yul\":14424:14426   */\n      0x20\n        /* \"#utility.yul\":14413:14422   */\n      dup3\n        /* \"#utility.yul\":14409:14427   */\n      add\n        /* \"#utility.yul\":14401:14427   */\n      swap1\n      pop\n        /* \"#utility.yul\":14437:14508   */\n      tag_364\n        /* \"#utility.yul\":14505:14506   */\n      0x00\n        /* \"#utility.yul\":14494:14503   */\n      dup4\n        /* \"#utility.yul\":14490:14507   */\n      add\n        /* \"#utility.yul\":14481:14487   */\n      dup5\n        /* \"#utility.yul\":14437:14508   */\n      tag_320\n      jump\t// in\n    tag_364:\n        /* \"#utility.yul\":14391:14515   */\n      swap3\n      swap2\n      pop\n      pop\n      jump\t// out\n        /* \"#utility.yul\":14521:14853   */\n    tag_106:\n        /* \"#utility.yul\":14642:14646   */\n      0x00\n        /* \"#utility.yul\":14680:14682   */\n      0x40\n        /* \"#utility.yul\":14669:14678   */\n      dup3\n        /* \"#utility.yul\":14665:14683   */\n      add\n        /* \"#utility.yul\":14657:14683   */\n      swap1\n      pop\n        /* \"#utility.yul\":14693:14764   */\n      tag_366\n        /* \"#utility.yul\":14761:14762   */\n      0x00\n        /* \"#utility.yul\":14750:14759   */\n      dup4\n        /* \"#utility.yul\":14746:14763   */\n      add\n        /* \"#utility.yul\":14737:14743   */\n      dup6\n        /* \"#utility.yul\":14693:14764   */\n      tag_320\n      jump\t// in\n    tag_366:\n        /* \"#utility.yul\":14774:14846   */\n      tag_367\n        /* \"#utility.yul\":14842:14844   */\n      0x20\n        /* \"#utility.yul\":14831:14840   */\n      dup4\n        /* \"#utility.yul\":14827:14845   */\n      add\n        /* \"#utility.yul\":14818:14824   */\n      dup5\n        /* \"#utility.yul\":14774:14846   */\n      tag_320\n      jump\t// in\n    tag_367:\n        /* \"#utility.yul\":14647:14853   */\n      swap4\n      swap3\n      pop\n      pop\n      pop\n      jump\t// out\n        /* \"#utility.yul\":14859:14957   */\n    tag_242:\n        /* \"#utility.yul\":14910:14916   */\n      0x00\n        /* \"#utility.yul\":14944:14949   */\n      dup2\n        /* \"#utility.yul\":14938:14950   */\n      mload\n        /* \"#utility.yul\":14928:14950   */\n      swap1\n      pop\n        /* \"#utility.yul\":14917:14957   */\n      swap2\n      swap1\n      pop\n      jump\t// out\n        /* \"#utility.yul\":14963:15062   */\n    tag_254:\n        /* \"#utility.yul\":15015:15021   */\n      0x00\n        /* \"#utility.yul\":15049:15054   */\n      dup2\n        /* \"#utility.yul\":15043:15055   */\n      mload\n        /* \"#utility.yul\":15033:15055   */\n      swap1\n      pop\n        /* \"#utility.yul\":15022:15062   */\n      swap2\n      swap1\n      pop\n      jump\t// out\n        /* \"#utility.yul\":15068:15215   */\n    tag_244:\n        /* \"#utility.yul\":15169:15180   */\n      0x00\n        /* \"#utility.yul\":15206:15209   */\n      dup2\n        /* \"#utility.yul\":15191:15209   */\n      swap1\n      pop\n        /* \"#utility.yul\":15181:15215   */\n      swap3\n      swap2\n      pop\n      pop\n      jump\t// out\n        /* \"#utility.yul\":15221:15390   */\n    tag_256:\n        /* \"#utility.yul\":15305:15316   */\n      0x00\n        /* \"#utility.yul\":15339:15345   */\n      dup3\n        /* \"#utility.yul\":15334:15337   */\n      dup3\n        /* \"#utility.yul\":15327:15346   */\n      mstore\n        /* \"#utility.yul\":15379:15383   */\n      0x20\n        /* \"#utility.yul\":15374:15377   */\n      dup3\n        /* \"#utility.yul\":15370:15384   */\n      add\n        /* \"#utility.yul\":15355:15384   */\n      swap1\n      pop\n        /* \"#utility.yul\":15317:15390   */\n      swap3\n      swap2\n      pop\n      pop\n      jump\t// out\n        /* \"#utility.yul\":15396:15701   */\n    tag_157:\n        /* \"#utility.yul\":15436:15439   */\n      0x00\n        /* \"#utility.yul\":15455:15475   */\n      tag_373\n        /* \"#utility.yul\":15473:15474   */\n      dup3\n        /* \"#utility.yul\":15455:15475   */\n      tag_323\n      jump\t// in\n    tag_373:\n        /* \"#utility.yul\":15450:15475   */\n      swap2\n      pop\n        /* \"#utility.yul\":15489:15509   */\n      tag_374\n        /* \"#utility.yul\":15507:15508   */\n      dup4\n        /* \"#utility.yul\":15489:15509   */\n      tag_323\n      jump\t// in\n    tag_374:\n        /* \"#utility.yul\":15484:15509   */\n      swap3\n      pop\n        /* \"#utility.yul\":15643:15644   */\n      dup3\n        /* \"#utility.yul\":15575:15641   */\n      0xffffffffffffffffffffffffffffffffffffffffffffffffffffffffffffffff\n        /* \"#utility.yul\":15571:15645   */\n      sub\n        /* \"#utility.yul\":15568:15569   */\n      dup3\n        /* \"#utility.yul\":15565:15646   */\n      gt\n        /* \"#utility.yul\":15562:15564   */\n      iszero\n      tag_375\n      jumpi\n        /* \"#utility.yul\":15649:15667   */\n      tag_376\n      tag_377\n      jump\t// in\n    tag_376:\n        /* \"#utility.yul\":15562:15564   */\n    tag_375:\n        /* \"#utility.yul\":15693:15694   */\n      dup3\n        /* \"#utility.yul\":15690:15691   */\n      dup3\n        /* \"#utility.yul\":15686:15695   */\n      add\n        /* \"#utility.yul\":15679:15695   */\n      swap1\n      pop\n        /* \"#utility.yul\":15440:15701   */\n      swap3\n      swap2\n      pop\n      pop\n      jump\t// out\n        /* \"#utility.yul\":15707:15892   */\n    tag_154:\n        /* \"#utility.yul\":15747:15748   */\n      0x00\n        /* \"#utility.yul\":15764:15784   */\n      tag_379\n        /* \"#utility.yul\":15782:15783   */\n      dup3\n        /* \"#utility.yul\":15764:15784   */\n      tag_323\n      jump\t// in\n    tag_379:\n        /* \"#utility.yul\":15759:15784   */\n      swap2\n      pop\n        /* \"#utility.yul\":15798:15818   */\n      tag_380\n        /* \"#utility.yul\":15816:15817   */\n      dup4\n        /* \"#utility.yul\":15798:15818   */\n      tag_323\n      jump\t// in\n    tag_380:\n        /* \"#utility.yul\":15793:15818   */\n      swap3\n      pop\n        /* \"#utility.yul\":15837:15838   */\n      dup3\n        /* \"#utility.yul\":15827:15829   */\n      tag_381\n      jumpi\n        /* \"#utility.yul\":15842:15860   */\n      tag_382\n      tag_383\n      jump\t// in\n    tag_382:\n        /* \"#utility.yul\":15827:15829   */\n    tag_381:\n        /* \"#utility.yul\":15884:15885   */\n      dup3\n        /* \"#utility.yul\":15881:15882   */\n      dup3\n        /* \"#utility.yul\":15877:15886   */\n      div\n        /* \"#utility.yul\":15872:15886   */\n      swap1\n      pop\n        /* \"#utility.yul\":15749:15892   */\n      swap3\n      swap2\n      pop\n      pop\n      jump\t// out\n        /* \"#utility.yul\":15898:15994   */\n    tag_238:\n        /* \"#utility.yul\":15935:15942   */\n      0x00\n        /* \"#utility.yul\":15964:15988   */\n      tag_385\n        /* \"#utility.yul\":15982:15987   */\n      dup3\n        /* \"#utility.yul\":15964:15988   */\n      tag_386\n      jump\t// in\n    tag_385:\n        /* \"#utility.yul\":15953:15988   */\n      swap1\n      pop\n        /* \"#utility.yul\":15943:15994   */\n      swap2\n      swap1\n      pop\n      jump\t// out\n        /* \"#utility.yul\":16000:16090   */\n    tag_387:\n        /* \"#utility.yul\":16034:16041   */\n      0x00\n        /* \"#utility.yul\":16077:16082   */\n      dup2\n        /* \"#utility.yul\":16070:16083   */\n      iszero\n        /* \"#utility.yul\":16063:16084   */\n      iszero\n        /* \"#utility.yul\":16052:16084   */\n      swap1\n      pop\n        /* \"#utility.yul\":16042:16090   */\n      swap2\n      swap1\n      pop\n      jump\t// out\n        /* \"#utility.yul\":16096:16222   */\n    tag_386:\n        /* \"#utility.yul\":16133:16140   */\n      0x00\n        /* \"#utility.yul\":16173:16215   */\n      0xffffffffffffffffffffffffffffffffffffffff\n        /* \"#utility.yul\":16166:16171   */\n      dup3\n        /* \"#utility.yul\":16162:16216   */\n      and\n        /* \"#utility.yul\":16151:16216   */\n      swap1\n      pop\n        /* \"#utility.yul\":16141:16222   */\n      swap2\n      swap1\n      pop\n      jump\t// out\n        /* \"#utility.yul\":16228:16305   */\n    tag_323:\n        /* \"#utility.yul\":16265:16272   */\n      0x00\n        /* \"#utility.yul\":16294:16299   */\n      dup2\n        /* \"#utility.yul\":16283:16299   */\n      swap1\n      pop\n        /* \"#utility.yul\":16273:16305   */\n      swap2\n      swap1\n      pop\n      jump\t// out\n        /* \"#utility.yul\":16311:16465   */\n    tag_250:\n        /* \"#utility.yul\":16375:16384   */\n      0x00\n        /* \"#utility.yul\":16408:16459   */\n      tag_392\n        /* \"#utility.yul\":16453:16458   */\n      dup3\n        /* \"#utility.yul\":16408:16459   */\n      tag_393\n      jump\t// in\n    tag_392:\n        /* \"#utility.yul\":16395:16459   */\n      swap1\n      pop\n        /* \"#utility.yul\":16385:16465   */\n      swap2\n      swap1\n      pop\n      jump\t// out\n        /* \"#utility.yul\":16471:16598   */\n    tag_393:\n        /* \"#utility.yul\":16535:16544   */\n      0x00\n        /* \"#utility.yul\":16568:16592   */\n      tag_395\n        /* \"#utility.yul\":16586:16591   */\n      dup3\n        /* \"#utility.yul\":16568:16592   */\n      tag_386\n      jump\t// in\n    tag_395:\n        /* \"#utility.yul\":16555:16592   */\n      swap1\n      pop\n        /* \"#utility.yul\":16545:16598   */\n      swap2\n      swap1\n      pop\n      jump\t// out\n        /* \"#utility.yul\":16604:16911   */\n    tag_246:\n        /* \"#utility.yul\":16672:16673   */\n      0x00\n        /* \"#utility.yul\":16682:16795   */\n    tag_397:\n        /* \"#utility.yul\":16696:16702   */\n      dup4\n        /* \"#utility.yul\":16693:16694   */\n      dup2\n        /* \"#utility.yul\":16690:16703   */\n      lt\n        /* \"#utility.yul\":16682:16795   */\n      iszero\n      tag_399\n      jumpi\n        /* \"#utility.yul\":16781:16782   */\n      dup1\n        /* \"#utility.yul\":16776:16779   */\n      dup3\n        /* \"#utility.yul\":16772:16783   */\n      add\n        /* \"#utility.yul\":16766:16784   */\n      mload\n        /* \"#utility.yul\":16762:16763   */\n      dup2\n        /* \"#utility.yul\":16757:16760   */\n      dup5\n        /* \"#utility.yul\":16753:16764   */\n      add\n        /* \"#utility.yul\":16746:16785   */\n      mstore\n        /* \"#utility.yul\":16718:16720   */\n      0x20\n        /* \"#utility.yul\":16715:16716   */\n      dup2\n        /* \"#utility.yul\":16711:16721   */\n      add\n        /* \"#utility.yul\":16706:16721   */\n      swap1\n      pop\n        /* \"#utility.yul\":16682:16795   */\n      jump(tag_397)\n    tag_399:\n        /* \"#utility.yul\":16813:16819   */\n      dup4\n        /* \"#utility.yul\":16810:16811   */\n      dup2\n        /* \"#utility.yul\":16807:16820   */\n      gt\n        /* \"#utility.yul\":16804:16806   */\n      iszero\n      tag_400\n      jumpi\n        /* \"#utility.yul\":16893:16894   */\n      0x00\n        /* \"#utility.yul\":16884:16890   */\n      dup5\n        /* \"#utility.yul\":16879:16882   */\n      dup5\n        /* \"#utility.yul\":16875:16891   */\n      add\n        /* \"#utility.yul\":16868:16895   */\n      mstore\n        /* \"#utility.yul\":16804:16806   */\n    tag_400:\n        /* \"#utility.yul\":16653:16911   */\n      pop\n      pop\n      pop\n      pop\n      jump\t// out\n        /* \"#utility.yul\":16917:17097   */\n    tag_377:\n        /* \"#utility.yul\":16965:17042   */\n      0x4e487b7100000000000000000000000000000000000000000000000000000000\n        /* \"#utility.yul\":16962:16963   */\n      0x00\n        /* \"#utility.yul\":16955:17043   */\n      mstore\n        /* \"#utility.yul\":17062:17066   */\n      0x11\n        /* \"#utility.yul\":17059:17060   */\n      0x04\n        /* \"#utility.yul\":17052:17067   */\n      mstore\n        /* \"#utility.yul\":17086:17090   */\n      0x24\n        /* \"#utility.yul\":17083:17084   */\n      0x00\n        /* \"#utility.yul\":17076:17091   */\n      revert\n        /* \"#utility.yul\":17103:17283   */\n    tag_383:\n        /* \"#utility.yul\":17151:17228   */\n      0x4e487b7100000000000000000000000000000000000000000000000000000000\n        /* \"#utility.yul\":17148:17149   */\n      0x00\n        /* \"#utility.yul\":17141:17229   */\n      mstore\n        /* \"#utility.yul\":17248:17252   */\n      0x12\n        /* \"#utility.yul\":17245:17246   */\n      0x04\n        /* \"#utility.yul\":17238:17253   */\n      mstore\n        /* \"#utility.yul\":17272:17276   */\n      0x24\n        /* \"#utility.yul\":17269:17270   */\n      0x00\n        /* \"#utility.yul\":17262:17277   */\n      revert\n        /* \"#utility.yul\":17289:17391   */\n    tag_259:\n        /* \"#utility.yul\":17330:17336   */\n      0x00\n        /* \"#utility.yul\":17381:17383   */\n      0x1f\n        /* \"#utility.yul\":17377:17384   */\n      not\n        /* \"#utility.yul\":17372:17374   */\n      0x1f\n        /* \"#utility.yul\":17365:17370   */\n      dup4\n        /* \"#utility.yul\":17361:17375   */\n      add\n        /* \"#utility.yul\":17357:17385   */\n      and\n        /* \"#utility.yul\":17347:17385   */\n      swap1\n      pop\n        /* \"#utility.yul\":17337:17391   */\n      swap2\n      swap1\n      pop\n      jump\t// out\n        /* \"#utility.yul\":17397:17630   */\n    tag_264:\n        /* \"#utility.yul\":17537:17571   */\n      0x416d6f756e742069732067726561746572207468616e207468652062616c616e\n        /* \"#utility.yul\":17533:17534   */\n      0x00\n        /* \"#utility.yul\":17525:17531   */\n      dup3\n        /* \"#utility.yul\":17521:17535   */\n      add\n        /* \"#utility.yul\":17514:17572   */\n      mstore\n        /* \"#utility.yul\":17606:17622   */\n      0x6365206f6620636f6e7472616374000000000000000000000000000000000000\n        /* \"#utility.yul\":17601:17603   */\n      0x20\n        /* \"#utility.yul\":17593:17599   */\n      dup3\n        /* \"#utility.yul\":17589:17604   */\n      add\n        /* \"#utility.yul\":17582:17623   */\n      mstore\n        /* \"#utility.yul\":17503:17630   */\n      pop\n      jump\t// out\n        /* \"#utility.yul\":17636:17861   */\n    tag_269:\n        /* \"#utility.yul\":17776:17810   */\n      0x4f776e61626c653a206e6577206f776e657220697320746865207a65726f2061\n        /* \"#utility.yul\":17772:17773   */\n      0x00\n        /* \"#utility.yul\":17764:17770   */\n      dup3\n        /* \"#utility.yul\":17760:17774   */\n      add\n        /* \"#utility.yul\":17753:17811   */\n      mstore\n        /* \"#utility.yul\":17845:17853   */\n      0x6464726573730000000000000000000000000000000000000000000000000000\n        /* \"#utility.yul\":17840:17842   */\n      0x20\n        /* \"#utility.yul\":17832:17838   */\n      dup3\n        /* \"#utility.yul\":17828:17843   */\n      add\n        /* \"#utility.yul\":17821:17854   */\n      mstore\n        /* \"#utility.yul\":17742:17861   */\n      pop\n      jump\t// out\n        /* \"#utility.yul\":17867:18032   */\n    tag_274:\n        /* \"#utility.yul\":18007:18024   */\n      0x4e6f7420656e6f75676820555344540000000000000000000000000000000000\n        /* \"#utility.yul\":18003:18004   */\n      0x00\n        /* \"#utility.yul\":17995:18001   */\n      dup3\n        /* \"#utility.yul\":17991:18005   */\n      add\n        /* \"#utility.yul\":17984:18025   */\n      mstore\n        /* \"#utility.yul\":17973:18032   */\n      pop\n      jump\t// out\n        /* \"#utility.yul\":18038:18263   */\n    tag_279:\n        /* \"#utility.yul\":18178:18212   */\n      0x416464726573733a20696e73756666696369656e742062616c616e636520666f\n        /* \"#utility.yul\":18174:18175   */\n      0x00\n        /* \"#utility.yul\":18166:18172   */\n      dup3\n        /* \"#utility.yul\":18162:18176   */\n      add\n        /* \"#utility.yul\":18155:18213   */\n      mstore\n        /* \"#utility.yul\":18247:18255   */\n      0x722063616c6c0000000000000000000000000000000000000000000000000000\n        /* \"#utility.yul\":18242:18244   */\n      0x20\n        /* \"#utility.yul\":18234:18240   */\n      dup3\n        /* \"#utility.yul\":18230:18245   */\n      add\n        /* \"#utility.yul\":18223:18256   */\n      mstore\n        /* \"#utility.yul\":18144:18263   */\n      pop\n      jump\t// out\n        /* \"#utility.yul\":18269:18640   */\n    tag_284:\n        /* \"#utility.yul\":18409:18443   */\n      0x546865206e756d626572206f6620746f6b656e73207468617420757365727320\n        /* \"#utility.yul\":18405:18406   */\n      0x00\n        /* \"#utility.yul\":18397:18403   */\n      dup3\n        /* \"#utility.yul\":18393:18407   */\n      add\n        /* \"#utility.yul\":18386:18444   */\n      mstore\n        /* \"#utility.yul\":18478:18512   */\n      0x77616e7420746f207075726368617365206578636565647320746865206e756d\n        /* \"#utility.yul\":18473:18475   */\n      0x20\n        /* \"#utility.yul\":18465:18471   */\n      dup3\n        /* \"#utility.yul\":18461:18476   */\n      add\n        /* \"#utility.yul\":18454:18513   */\n      mstore\n        /* \"#utility.yul\":18547:18581   */\n      0x626572206f6620746f6b656e732063757272656e746c7920617661696c61626c\n        /* \"#utility.yul\":18542:18544   */\n      0x40\n        /* \"#utility.yul\":18534:18540   */\n      dup3\n        /* \"#utility.yul\":18530:18545   */\n      add\n        /* \"#utility.yul\":18523:18582   */\n      mstore\n        /* \"#utility.yul\":18616:18632   */\n      0x6520666f72207075726368617365000000000000000000000000000000000000\n        /* \"#utility.yul\":18611:18613   */\n      0x60\n        /* \"#utility.yul\":18603:18609   */\n      dup3\n        /* \"#utility.yul\":18599:18614   */\n      add\n        /* \"#utility.yul\":18592:18633   */\n      mstore\n        /* \"#utility.yul\":18375:18640   */\n      pop\n      jump\t// out\n        /* \"#utility.yul\":18646:18828   */\n    tag_289:\n        /* \"#utility.yul\":18786:18820   */\n      0x4f776e61626c653a2063616c6c6572206973206e6f7420746865206f776e6572\n        /* \"#utility.yul\":18782:18783   */\n      0x00\n        /* \"#utility.yul\":18774:18780   */\n      dup3\n        /* \"#utility.yul\":18770:18784   */\n      add\n        /* \"#utility.yul\":18763:18821   */\n      mstore\n        /* \"#utility.yul\":18752:18828   */\n      pop\n      jump\t// out\n        /* \"#utility.yul\":18834:19013   */\n    tag_294:\n        /* \"#utility.yul\":18974:19005   */\n      0x5472616e7366657220746f206d73672e73656e646572206661696c6564000000\n        /* \"#utility.yul\":18970:18971   */\n      0x00\n        /* \"#utility.yul\":18962:18968   */\n      dup3\n        /* \"#utility.yul\":18958:18972   */\n      add\n        /* \"#utility.yul\":18951:19006   */\n      mstore\n        /* \"#utility.yul\":18940:19013   */\n      pop\n      jump\t// out\n        /* \"#utility.yul\":19019:19198   */\n    tag_299:\n        /* \"#utility.yul\":19159:19190   */\n      0x416464726573733a2063616c6c20746f206e6f6e2d636f6e7472616374000000\n        /* \"#utility.yul\":19155:19156   */\n      0x00\n        /* \"#utility.yul\":19147:19153   */\n      dup3\n        /* \"#utility.yul\":19143:19157   */\n      add\n        /* \"#utility.yul\":19136:19191   */\n      mstore\n        /* \"#utility.yul\":19125:19198   */\n      pop\n      jump\t// out\n        /* \"#utility.yul\":19204:19433   */\n    tag_304:\n        /* \"#utility.yul\":19344:19378   */\n      0x5361666545524332303a204552433230206f7065726174696f6e20646964206e\n        /* \"#utility.yul\":19340:19341   */\n      0x00\n        /* \"#utility.yul\":19332:19338   */\n      dup3\n        /* \"#utility.yul\":19328:19342   */\n      add\n        /* \"#utility.yul\":19321:19379   */\n      mstore\n        /* \"#utility.yul\":19413:19425   */\n      0x6f74207375636365656400000000000000000000000000000000000000000000\n        /* \"#utility.yul\":19408:19410   */\n      0x20\n        /* \"#utility.yul\":19400:19406   */\n      dup3\n        /* \"#utility.yul\":19396:19411   */\n      add\n        /* \"#utility.yul\":19389:19426   */\n      mstore\n        /* \"#utility.yul\":19310:19433   */\n      pop\n      jump\t// out\n        /* \"#utility.yul\":19439:19666   */\n    tag_309:\n        /* \"#utility.yul\":19579:19613   */\n      0x412073696e676c6520757365722063616e6e6f742062757920746f6f206d616e\n        /* \"#utility.yul\":19575:19576   */\n      0x00\n        /* \"#utility.yul\":19567:19573   */\n      dup3\n        /* \"#utility.yul\":19563:19577   */\n      add\n        /* \"#utility.yul\":19556:19614   */\n      mstore\n        /* \"#utility.yul\":19648:19658   */\n      0x7920746f6b656e73000000000000000000000000000000000000000000000000\n        /* \"#utility.yul\":19643:19645   */\n      0x20\n        /* \"#utility.yul\":19635:19641   */\n      dup3\n        /* \"#utility.yul\":19631:19646   */\n      add\n        /* \"#utility.yul\":19624:19659   */\n      mstore\n        /* \"#utility.yul\":19545:19666   */\n      pop\n      jump\t// out\n        /* \"#utility.yul\":19672:19853   */\n    tag_314:\n        /* \"#utility.yul\":19812:19845   */\n      0x5265656e7472616e637947756172643a207265656e7472616e742063616c6c00\n        /* \"#utility.yul\":19808:19809   */\n      0x00\n        /* \"#utility.yul\":19800:19806   */\n      dup3\n        /* \"#utility.yul\":19796:19810   */\n      add\n        /* \"#utility.yul\":19789:19846   */\n      mstore\n        /* \"#utility.yul\":19778:19853   */\n      pop\n      jump\t// out\n        /* \"#utility.yul\":19859:20036   */\n    tag_319:\n        /* \"#utility.yul\":19999:20028   */\n      0x5472616e7366657220746f20636f6e7472616374206661696c65640000000000\n        /* \"#utility.yul\":19995:19996   */\n      0x00\n        /* \"#utility.yul\":19987:19993   */\n      dup3\n        /* \"#utility.yul\":19983:19997   */\n      add\n        /* \"#utility.yul\":19976:20029   */\n      mstore\n        /* \"#utility.yul\":19965:20036   */\n      pop\n      jump\t// out\n        /* \"#utility.yul\":20042:20164   */\n    tag_211:\n        /* \"#utility.yul\":20115:20139   */\n      tag_417\n        /* \"#utility.yul\":20133:20138   */\n      dup2\n        /* \"#utility.yul\":20115:20139   */\n      tag_238\n      jump\t// in\n    tag_417:\n        /* \"#utility.yul\":20108:20113   */\n      dup2\n        /* \"#utility.yul\":20105:20140   */\n      eq\n        /* \"#utility.yul\":20095:20097   */\n      tag_418\n      jumpi\n        /* \"#utility.yul\":20154:20155   */\n      0x00\n        /* \"#utility.yul\":20151:20152   */\n      dup1\n        /* \"#utility.yul\":20144:20156   */\n      revert\n        /* \"#utility.yul\":20095:20097   */\n    tag_418:\n        /* \"#utility.yul\":20085:20164   */\n      pop\n      jump\t// out\n        /* \"#utility.yul\":20170:20286   */\n    tag_215:\n        /* \"#utility.yul\":20240:20261   */\n      tag_420\n        /* \"#utility.yul\":20255:20260   */\n      dup2\n        /* \"#utility.yul\":20240:20261   */\n      tag_387\n      jump\t// in\n    tag_420:\n        /* \"#utility.yul\":20233:20238   */\n      dup2\n        /* \"#utility.yul\":20230:20262   */\n      eq\n        /* \"#utility.yul\":20220:20222   */\n      tag_421\n      jumpi\n        /* \"#utility.yul\":20276:20277   */\n      0x00\n        /* \"#utility.yul\":20273:20274   */\n      dup1\n        /* \"#utility.yul\":20266:20278   */\n      revert\n        /* \"#utility.yul\":20220:20222   */\n    tag_421:\n        /* \"#utility.yul\":20210:20286   */\n      pop\n      jump\t// out\n        /* \"#utility.yul\":20292:20414   */\n    tag_219:\n        /* \"#utility.yul\":20365:20389   */\n      tag_423\n        /* \"#utility.yul\":20383:20388   */\n      dup2\n        /* \"#utility.yul\":20365:20389   */\n      tag_323\n      jump\t// in\n    tag_423:\n        /* \"#utility.yul\":20358:20363   */\n      dup2\n        /* \"#utility.yul\":20355:20390   */\n      eq\n        /* \"#utility.yul\":20345:20347   */\n      tag_424\n      jumpi\n        /* \"#utility.yul\":20404:20405   */\n      0x00\n        /* \"#utility.yul\":20401:20402   */\n      dup1\n        /* \"#utility.yul\":20394:20406   */\n      revert\n        /* \"#utility.yul\":20345:20347   */\n    tag_424:\n        /* \"#utility.yul\":20335:20414   */\n      pop\n      jump\t// out\n\n    auxdata: 0xa2646970667358221220b5b0b0b6bdf9120d35b5e9616c83bd6a43197add9cd53da28eacbc8c503f32bd64736f6c63430008040033\n}\n",
				"bytecode": {
					"linkReferences": {},
					"object": "60806040523480156200001157600080fd5b5060405162001d8638038062001d868339818101604052810190620000379190620001f2565b620000576200004b620000f860201b60201c565b6200010060201b60201c565b6001808190555083600260006101000a81548173ffffffffffffffffffffffffffffffffffffffff021916908373ffffffffffffffffffffffffffffffffffffffff16021790555082600360006101000a81548173ffffffffffffffffffffffffffffffffffffffff021916908373ffffffffffffffffffffffffffffffffffffffff160217905550816004819055508060058190555050505050620002d0565b600033905090565b60008060009054906101000a900473ffffffffffffffffffffffffffffffffffffffff169050816000806101000a81548173ffffffffffffffffffffffffffffffffffffffff021916908373ffffffffffffffffffffffffffffffffffffffff1602179055508173ffffffffffffffffffffffffffffffffffffffff168173ffffffffffffffffffffffffffffffffffffffff167f8be0079c531659141344cd1fd0a4f28419497f9722a3daafe3b4186f6b6457e060405160405180910390a35050565b600081519050620001d5816200029c565b92915050565b600081519050620001ec81620002b6565b92915050565b600080600080608085870312156200020957600080fd5b60006200021987828801620001c4565b94505060206200022c87828801620001c4565b93505060406200023f87828801620001db565b92505060606200025287828801620001db565b91505092959194509250565b60006200026b8262000272565b9050919050565b600073ffffffffffffffffffffffffffffffffffffffff82169050919050565b6000819050919050565b620002a7816200025e565b8114620002b357600080fd5b50565b620002c18162000292565b8114620002cd57600080fd5b50565b611aa680620002e06000396000f3fe608060405234801561001057600080fd5b50600436106100b45760003560e01c80637a80d062116100715780637a80d062146101535780638d951832146101835780638da5cb5b146101a1578063b8fcf937146101bf578063db068e0e146101dd578063f2fde38b146101f9576100b4565b80632d296bf1146100b95780632f48ab7d146100d55780633ba0b9a9146100f35780633ea521ef1461011157806365583cae1461012d578063715018a614610149575b600080fd5b6100d360048036038101906100ce9190611028565b610215565b005b6100dd610775565b6040516100ea9190611347565b60405180910390f35b6100fb61079b565b6040516101089190611504565b60405180910390f35b61012b60048036038101906101269190611028565b6107a1565b005b61014760048036038101906101429190611028565b610997565b005b6101516109a9565b005b61016d60048036038101906101689190610fd6565b6109bd565b60405161017a9190611504565b60405180910390f35b61018b6109d5565b6040516101989190611504565b60405180910390f35b6101a96109db565b6040516101b691906112cc565b60405180910390f35b6101c7610a04565b6040516101d49190611347565b60405180910390f35b6101f760048036038101906101f29190611028565b610a2a565b005b610213600480360381019061020e9190610fd6565b610a3c565b005b61021d610ac0565b600061023460045483610b1090919063ffffffff16565b905061028882600660003373ffffffffffffffffffffffffffffffffffffffff1673ffffffffffffffffffffffffffffffffffffffff16815260200190815260200160002054610b2690919063ffffffff16565b60055410156102cc576040517f08c379a00000000000000000000000000000000000000000000000000000000081526004016102c3906114a4565b60405180910390fd5b81600360009054906101000a900473ffffffffffffffffffffffffffffffffffffffff1673ffffffffffffffffffffffffffffffffffffffff166370a08231306040518263ffffffff1660e01b815260040161032891906112cc565b60206040518083038186803b15801561034057600080fd5b505afa158015610354573d6000803e3d6000fd5b505050506040513d601f19601f820116820180604052508101906103789190611051565b10156103b9576040517f08c379a00000000000000000000000000000000000000000000000000000000081526004016103b090611404565b60405180910390fd5b80600260009054906101000a900473ffffffffffffffffffffffffffffffffffffffff1673ffffffffffffffffffffffffffffffffffffffff166370a08231336040518263ffffffff1660e01b815260040161041591906112cc565b60206040518083038186803b15801561042d57600080fd5b505afa158015610441573d6000803e3d6000fd5b505050506040513d601f19601f820116820180604052508101906104659190611051565b10156104a6576040517f08c379a000000000000000000000000000000000000000000000000000000000815260040161049d906113c4565b60405180910390fd5b600260009054906101000a900473ffffffffffffffffffffffffffffffffffffffff1673ffffffffffffffffffffffffffffffffffffffff166323b872dd3330846040518463ffffffff1660e01b8152600401610505939291906112e7565b602060405180830381600087803b15801561051f57600080fd5b505af1158015610533573d6000803e3d6000fd5b505050506040513d601f19601f820116820180604052508101906105579190610fff565b610596576040517f08c379a000000000000000000000000000000000000000000000000000000000815260040161058d906114e4565b60405180910390fd5b600360009054906101000a900473ffffffffffffffffffffffffffffffffffffffff1673ffffffffffffffffffffffffffffffffffffffff1663a9059cbb33846040518363ffffffff1660e01b81526004016105f392919061131e565b602060405180830381600087803b15801561060d57600080fd5b505af1158015610621573d6000803e3d6000fd5b505050506040513d601f19601f820116820180604052508101906106459190610fff565b610684576040517f08c379a000000000000000000000000000000000000000000000000000000000815260040161067b90611444565b60405180910390fd5b6106d682600660003373ffffffffffffffffffffffffffffffffffffffff1673ffffffffffffffffffffffffffffffffffffffff16815260200190815260200160002054610b2690919063ffffffff16565b600660003373ffffffffffffffffffffffffffffffffffffffff1673ffffffffffffffffffffffffffffffffffffffff168152602001908152602001600020819055503373ffffffffffffffffffffffffffffffffffffffff167ff6f342132c7de5e5a1e99c8efae544c94731f3ff093f5c3c97c6973d9415cdfb828460405161076192919061151f565b60405180910390a250610772610b3c565b50565b600260009054906101000a900473ffffffffffffffffffffffffffffffffffffffff1681565b60045481565b6107a9610b45565b80600260009054906101000a900473ffffffffffffffffffffffffffffffffffffffff1673ffffffffffffffffffffffffffffffffffffffff166370a08231306040518263ffffffff1660e01b815260040161080591906112cc565b60206040518083038186803b15801561081d57600080fd5b505afa158015610831573d6000803e3d6000fd5b505050506040513d601f19601f820116820180604052508101906108559190611051565b1015610896576040517f08c379a000000000000000000000000000000000000000000000000000000000815260040161088d90611384565b60405180910390fd5b6109946108a16109db565b600260009054906101000a900473ffffffffffffffffffffffffffffffffffffffff1673ffffffffffffffffffffffffffffffffffffffff166370a08231306040518263ffffffff1660e01b81526004016108fc91906112cc565b60206040518083038186803b15801561091457600080fd5b505afa158015610928573d6000803e3d6000fd5b505050506040513d601f19601f8201168201806040525081019061094c9190611051565b600260009054906101000a900473ffffffffffffffffffffffffffffffffffffffff1673ffffffffffffffffffffffffffffffffffffffff16610bc39092919063ffffffff16565b50565b61099f610b45565b8060058190555050565b6109b1610b45565b6109bb6000610c49565b565b60066020528060005260406000206000915090505481565b60055481565b60008060009054906101000a900473ffffffffffffffffffffffffffffffffffffffff16905090565b600360009054906101000a900473ffffffffffffffffffffffffffffffffffffffff1681565b610a32610b45565b8060048190555050565b610a44610b45565b600073ffffffffffffffffffffffffffffffffffffffff168173ffffffffffffffffffffffffffffffffffffffff161415610ab4576040517f08c379a0000000000000000000000000000000000000000000000000000000008152600401610aab906113a4565b60405180910390fd5b610abd81610c49565b50565b60026001541415610b06576040517f08c379a0000000000000000000000000000000000000000000000000000000008152600401610afd906114c4565b60405180910390fd5b6002600181905550565b60008183610b1e91906115d0565b905092915050565b60008183610b34919061157a565b905092915050565b60018081905550565b610b4d610d0d565b73ffffffffffffffffffffffffffffffffffffffff16610b6b6109db565b73ffffffffffffffffffffffffffffffffffffffff1614610bc1576040517f08c379a0000000000000000000000000000000000000000000000000000000008152600401610bb890611424565b60405180910390fd5b565b610c448363a9059cbb60e01b8484604051602401610be292919061131e565b604051602081830303815290604052907bffffffffffffffffffffffffffffffffffffffffffffffffffffffff19166020820180517bffffffffffffffffffffffffffffffffffffffffffffffffffffffff8381831617835250505050610d15565b505050565b60008060009054906101000a900473ffffffffffffffffffffffffffffffffffffffff169050816000806101000a81548173ffffffffffffffffffffffffffffffffffffffff021916908373ffffffffffffffffffffffffffffffffffffffff1602179055508173ffffffffffffffffffffffffffffffffffffffff168173ffffffffffffffffffffffffffffffffffffffff167f8be0079c531659141344cd1fd0a4f28419497f9722a3daafe3b4186f6b6457e060405160405180910390a35050565b600033905090565b6000610d77826040518060400160405280602081526020017f5361666545524332303a206c6f772d6c6576656c2063616c6c206661696c65648152508573ffffffffffffffffffffffffffffffffffffffff16610ddc9092919063ffffffff16565b9050600081511115610dd75780806020019051810190610d979190610fff565b610dd6576040517f08c379a0000000000000000000000000000000000000000000000000000000008152600401610dcd90611484565b60405180910390fd5b5b505050565b6060610deb8484600085610df4565b90509392505050565b606082471015610e39576040517f08c379a0000000000000000000000000000000000000000000000000000000008152600401610e30906113e4565b60405180910390fd5b610e4285610f08565b610e81576040517f08c379a0000000000000000000000000000000000000000000000000000000008152600401610e7890611464565b60405180910390fd5b6000808673ffffffffffffffffffffffffffffffffffffffff168587604051610eaa91906112b5565b60006040518083038185875af1925050503d8060008114610ee7576040519150601f19603f3d011682016040523d82523d6000602084013e610eec565b606091505b5091509150610efc828286610f1b565b92505050949350505050565b600080823b905060008111915050919050565b60608315610f2b57829050610f7b565b600083511115610f3e5782518084602001fd5b816040517f08c379a0000000000000000000000000000000000000000000000000000000008152600401610f729190611362565b60405180910390fd5b9392505050565b600081359050610f9181611a2b565b92915050565b600081519050610fa681611a42565b92915050565b600081359050610fbb81611a59565b92915050565b600081519050610fd081611a59565b92915050565b600060208284031215610fe857600080fd5b6000610ff684828501610f82565b91505092915050565b60006020828403121561101157600080fd5b600061101f84828501610f97565b91505092915050565b60006020828403121561103a57600080fd5b600061104884828501610fac565b91505092915050565b60006020828403121561106357600080fd5b600061107184828501610fc1565b91505092915050565b61108381611601565b82525050565b600061109482611548565b61109e818561155e565b93506110ae81856020860161166d565b80840191505092915050565b6110c381611649565b82525050565b60006110d482611553565b6110de8185611569565b93506110ee81856020860161166d565b6110f7816116fe565b840191505092915050565b600061110f602e83611569565b915061111a8261170f565b604082019050919050565b6000611132602683611569565b915061113d8261175e565b604082019050919050565b6000611155600f83611569565b9150611160826117ad565b602082019050919050565b6000611178602683611569565b9150611183826117d6565b604082019050919050565b600061119b606e83611569565b91506111a682611825565b608082019050919050565b60006111be602083611569565b91506111c9826118c0565b602082019050919050565b60006111e1601d83611569565b91506111ec826118e9565b602082019050919050565b6000611204601d83611569565b915061120f82611912565b602082019050919050565b6000611227602a83611569565b91506112328261193b565b604082019050919050565b600061124a602883611569565b91506112558261198a565b604082019050919050565b600061126d601f83611569565b9150611278826119d9565b602082019050919050565b6000611290601b83611569565b915061129b82611a02565b602082019050919050565b6112af8161163f565b82525050565b60006112c18284611089565b915081905092915050565b60006020820190506112e1600083018461107a565b92915050565b60006060820190506112fc600083018661107a565b611309602083018561107a565b61131660408301846112a6565b949350505050565b6000604082019050611333600083018561107a565b61134060208301846112a6565b9392505050565b600060208201905061135c60008301846110ba565b92915050565b6000602082019050818103600083015261137c81846110c9565b905092915050565b6000602082019050818103600083015261139d81611102565b9050919050565b600060208201905081810360008301526113bd81611125565b9050919050565b600060208201905081810360008301526113dd81611148565b9050919050565b600060208201905081810360008301526113fd8161116b565b9050919050565b6000602082019050818103600083015261141d8161118e565b9050919050565b6000602082019050818103600083015261143d816111b1565b9050919050565b6000602082019050818103600083015261145d816111d4565b9050919050565b6000602082019050818103600083015261147d816111f7565b9050919050565b6000602082019050818103600083015261149d8161121a565b9050919050565b600060208201905081810360008301526114bd8161123d565b9050919050565b600060208201905081810360008301526114dd81611260565b9050919050565b600060208201905081810360008301526114fd81611283565b9050919050565b600060208201905061151960008301846112a6565b92915050565b600060408201905061153460008301856112a6565b61154160208301846112a6565b9392505050565b600081519050919050565b600081519050919050565b600081905092915050565b600082825260208201905092915050565b60006115858261163f565b91506115908361163f565b9250827fffffffffffffffffffffffffffffffffffffffffffffffffffffffffffffffff038211156115c5576115c46116a0565b5b828201905092915050565b60006115db8261163f565b91506115e68361163f565b9250826115f6576115f56116cf565b5b828204905092915050565b600061160c8261161f565b9050919050565b60008115159050919050565b600073ffffffffffffffffffffffffffffffffffffffff82169050919050565b6000819050919050565b60006116548261165b565b9050919050565b60006116668261161f565b9050919050565b60005b8381101561168b578082015181840152602081019050611670565b8381111561169a576000848401525b50505050565b7f4e487b7100000000000000000000000000000000000000000000000000000000600052601160045260246000fd5b7f4e487b7100000000000000000000000000000000000000000000000000000000600052601260045260246000fd5b6000601f19601f8301169050919050565b7f416d6f756e742069732067726561746572207468616e207468652062616c616e60008201527f6365206f6620636f6e7472616374000000000000000000000000000000000000602082015250565b7f4f776e61626c653a206e6577206f776e657220697320746865207a65726f206160008201527f6464726573730000000000000000000000000000000000000000000000000000602082015250565b7f4e6f7420656e6f75676820555344540000000000000000000000000000000000600082015250565b7f416464726573733a20696e73756666696369656e742062616c616e636520666f60008201527f722063616c6c0000000000000000000000000000000000000000000000000000602082015250565b7f546865206e756d626572206f6620746f6b656e7320746861742075736572732060008201527f77616e7420746f207075726368617365206578636565647320746865206e756d60208201527f626572206f6620746f6b656e732063757272656e746c7920617661696c61626c60408201527f6520666f72207075726368617365000000000000000000000000000000000000606082015250565b7f4f776e61626c653a2063616c6c6572206973206e6f7420746865206f776e6572600082015250565b7f5472616e7366657220746f206d73672e73656e646572206661696c6564000000600082015250565b7f416464726573733a2063616c6c20746f206e6f6e2d636f6e7472616374000000600082015250565b7f5361666545524332303a204552433230206f7065726174696f6e20646964206e60008201527f6f74207375636365656400000000000000000000000000000000000000000000602082015250565b7f412073696e676c6520757365722063616e6e6f742062757920746f6f206d616e60008201527f7920746f6b656e73000000000000000000000000000000000000000000000000602082015250565b7f5265656e7472616e637947756172643a207265656e7472616e742063616c6c00600082015250565b7f5472616e7366657220746f20636f6e7472616374206661696c65640000000000600082015250565b611a3481611601565b8114611a3f57600080fd5b50565b611a4b81611613565b8114611a5657600080fd5b50565b611a628161163f565b8114611a6d57600080fd5b5056fea2646970667358221220b5b0b0b6bdf9120d35b5e9616c83bd6a43197add9cd53da28eacbc8c503f32bd64736f6c63430008040033",
					"opcodes": "PUSH1 0x80 PUSH1 0x40 MSTORE CALLVALUE DUP1 ISZERO PUSH3 0x11 JUMPI PUSH1 0x0 DUP1 REVERT JUMPDEST POP PUSH1 0x40 MLOAD PUSH3 0x1D86 CODESIZE SUB DUP1 PUSH3 0x1D86 DUP4 CODECOPY DUP2 DUP2 ADD PUSH1 0x40 MSTORE DUP2 ADD SWAP1 PUSH3 0x37 SWAP2 SWAP1 PUSH3 0x1F2 JUMP JUMPDEST PUSH3 0x57 PUSH3 0x4B PUSH3 0xF8 PUSH1 0x20 SHL PUSH1 0x20 SHR JUMP JUMPDEST PUSH3 0x100 PUSH1 0x20 SHL PUSH1 0x20 SHR JUMP JUMPDEST PUSH1 0x1 DUP1 DUP2 SWAP1 SSTORE POP DUP4 PUSH1 0x2 PUSH1 0x0 PUSH2 0x100 EXP DUP2 SLOAD DUP2 PUSH20 0xFFFFFFFFFFFFFFFFFFFFFFFFFFFFFFFFFFFFFFFF MUL NOT AND SWAP1 DUP4 PUSH20 0xFFFFFFFFFFFFFFFFFFFFFFFFFFFFFFFFFFFFFFFF AND MUL OR SWAP1 SSTORE POP DUP3 PUSH1 0x3 PUSH1 0x0 PUSH2 0x100 EXP DUP2 SLOAD DUP2 PUSH20 0xFFFFFFFFFFFFFFFFFFFFFFFFFFFFFFFFFFFFFFFF MUL NOT AND SWAP1 DUP4 PUSH20 0xFFFFFFFFFFFFFFFFFFFFFFFFFFFFFFFFFFFFFFFF AND MUL OR SWAP1 SSTORE POP DUP2 PUSH1 0x4 DUP2 SWAP1 SSTORE POP DUP1 PUSH1 0x5 DUP2 SWAP1 SSTORE POP POP POP POP POP PUSH3 0x2D0 JUMP JUMPDEST PUSH1 0x0 CALLER SWAP1 POP SWAP1 JUMP JUMPDEST PUSH1 0x0 DUP1 PUSH1 0x0 SWAP1 SLOAD SWAP1 PUSH2 0x100 EXP SWAP1 DIV PUSH20 0xFFFFFFFFFFFFFFFFFFFFFFFFFFFFFFFFFFFFFFFF AND SWAP1 POP DUP2 PUSH1 0x0 DUP1 PUSH2 0x100 EXP DUP2 SLOAD DUP2 PUSH20 0xFFFFFFFFFFFFFFFFFFFFFFFFFFFFFFFFFFFFFFFF MUL NOT AND SWAP1 DUP4 PUSH20 0xFFFFFFFFFFFFFFFFFFFFFFFFFFFFFFFFFFFFFFFF AND MUL OR SWAP1 SSTORE POP DUP2 PUSH20 0xFFFFFFFFFFFFFFFFFFFFFFFFFFFFFFFFFFFFFFFF AND DUP2 PUSH20 0xFFFFFFFFFFFFFFFFFFFFFFFFFFFFFFFFFFFFFFFF AND PUSH32 0x8BE0079C531659141344CD1FD0A4F28419497F9722A3DAAFE3B4186F6B6457E0 PUSH1 0x40 MLOAD PUSH1 0x40 MLOAD DUP1 SWAP2 SUB SWAP1 LOG3 POP POP JUMP JUMPDEST PUSH1 0x0 DUP2 MLOAD SWAP1 POP PUSH3 0x1D5 DUP2 PUSH3 0x29C JUMP JUMPDEST SWAP3 SWAP2 POP POP JUMP JUMPDEST PUSH1 0x0 DUP2 MLOAD SWAP1 POP PUSH3 0x1EC DUP2 PUSH3 0x2B6 JUMP JUMPDEST SWAP3 SWAP2 POP POP JUMP JUMPDEST PUSH1 0x0 DUP1 PUSH1 0x0 DUP1 PUSH1 0x80 DUP6 DUP8 SUB SLT ISZERO PUSH3 0x209 JUMPI PUSH1 0x0 DUP1 REVERT JUMPDEST PUSH1 0x0 PUSH3 0x219 DUP8 DUP3 DUP9 ADD PUSH3 0x1C4 JUMP JUMPDEST SWAP5 POP POP PUSH1 0x20 PUSH3 0x22C DUP8 DUP3 DUP9 ADD PUSH3 0x1C4 JUMP JUMPDEST SWAP4 POP POP PUSH1 0x40 PUSH3 0x23F DUP8 DUP3 DUP9 ADD PUSH3 0x1DB JUMP JUMPDEST SWAP3 POP POP PUSH1 0x60 PUSH3 0x252 DUP8 DUP3 DUP9 ADD PUSH3 0x1DB JUMP JUMPDEST SWAP2 POP POP SWAP3 SWAP6 SWAP2 SWAP5 POP SWAP3 POP JUMP JUMPDEST PUSH1 0x0 PUSH3 0x26B DUP3 PUSH3 0x272 JUMP JUMPDEST SWAP1 POP SWAP2 SWAP1 POP JUMP JUMPDEST PUSH1 0x0 PUSH20 0xFFFFFFFFFFFFFFFFFFFFFFFFFFFFFFFFFFFFFFFF DUP3 AND SWAP1 POP SWAP2 SWAP1 POP JUMP JUMPDEST PUSH1 0x0 DUP2 SWAP1 POP SWAP2 SWAP1 POP JUMP JUMPDEST PUSH3 0x2A7 DUP2 PUSH3 0x25E JUMP JUMPDEST DUP2 EQ PUSH3 0x2B3 JUMPI PUSH1 0x0 DUP1 REVERT JUMPDEST POP JUMP JUMPDEST PUSH3 0x2C1 DUP2 PUSH3 0x292 JUMP JUMPDEST DUP2 EQ PUSH3 0x2CD JUMPI PUSH1 0x0 DUP1 REVERT JUMPDEST POP JUMP JUMPDEST PUSH2 0x1AA6 DUP1 PUSH3 0x2E0 PUSH1 0x0 CODECOPY PUSH1 0x0 RETURN INVALID PUSH1 0x80 PUSH1 0x40 MSTORE CALLVALUE DUP1 ISZERO PUSH2 0x10 JUMPI PUSH1 0x0 DUP1 REVERT JUMPDEST POP PUSH1 0x4 CALLDATASIZE LT PUSH2 0xB4 JUMPI PUSH1 0x0 CALLDATALOAD PUSH1 0xE0 SHR DUP1 PUSH4 0x7A80D062 GT PUSH2 0x71 JUMPI DUP1 PUSH4 0x7A80D062 EQ PUSH2 0x153 JUMPI DUP1 PUSH4 0x8D951832 EQ PUSH2 0x183 JUMPI DUP1 PUSH4 0x8DA5CB5B EQ PUSH2 0x1A1 JUMPI DUP1 PUSH4 0xB8FCF937 EQ PUSH2 0x1BF JUMPI DUP1 PUSH4 0xDB068E0E EQ PUSH2 0x1DD JUMPI DUP1 PUSH4 0xF2FDE38B EQ PUSH2 0x1F9 JUMPI PUSH2 0xB4 JUMP JUMPDEST DUP1 PUSH4 0x2D296BF1 EQ PUSH2 0xB9 JUMPI DUP1 PUSH4 0x2F48AB7D EQ PUSH2 0xD5 JUMPI DUP1 PUSH4 0x3BA0B9A9 EQ PUSH2 0xF3 JUMPI DUP1 PUSH4 0x3EA521EF EQ PUSH2 0x111 JUMPI DUP1 PUSH4 0x65583CAE EQ PUSH2 0x12D JUMPI DUP1 PUSH4 0x715018A6 EQ PUSH2 0x149 JUMPI JUMPDEST PUSH1 0x0 DUP1 REVERT JUMPDEST PUSH2 0xD3 PUSH1 0x4 DUP1 CALLDATASIZE SUB DUP2 ADD SWAP1 PUSH2 0xCE SWAP2 SWAP1 PUSH2 0x1028 JUMP JUMPDEST PUSH2 0x215 JUMP JUMPDEST STOP JUMPDEST PUSH2 0xDD PUSH2 0x775 JUMP JUMPDEST PUSH1 0x40 MLOAD PUSH2 0xEA SWAP2 SWAP1 PUSH2 0x1347 JUMP JUMPDEST PUSH1 0x40 MLOAD DUP1 SWAP2 SUB SWAP1 RETURN JUMPDEST PUSH2 0xFB PUSH2 0x79B JUMP JUMPDEST PUSH1 0x40 MLOAD PUSH2 0x108 SWAP2 SWAP1 PUSH2 0x1504 JUMP JUMPDEST PUSH1 0x40 MLOAD DUP1 SWAP2 SUB SWAP1 RETURN JUMPDEST PUSH2 0x12B PUSH1 0x4 DUP1 CALLDATASIZE SUB DUP2 ADD SWAP1 PUSH2 0x126 SWAP2 SWAP1 PUSH2 0x1028 JUMP JUMPDEST PUSH2 0x7A1 JUMP JUMPDEST STOP JUMPDEST PUSH2 0x147 PUSH1 0x4 DUP1 CALLDATASIZE SUB DUP2 ADD SWAP1 PUSH2 0x142 SWAP2 SWAP1 PUSH2 0x1028 JUMP JUMPDEST PUSH2 0x997 JUMP JUMPDEST STOP JUMPDEST PUSH2 0x151 PUSH2 0x9A9 JUMP JUMPDEST STOP JUMPDEST PUSH2 0x16D PUSH1 0x4 DUP1 CALLDATASIZE SUB DUP2 ADD SWAP1 PUSH2 0x168 SWAP2 SWAP1 PUSH2 0xFD6 JUMP JUMPDEST PUSH2 0x9BD JUMP JUMPDEST PUSH1 0x40 MLOAD PUSH2 0x17A SWAP2 SWAP1 PUSH2 0x1504 JUMP JUMPDEST PUSH1 0x40 MLOAD DUP1 SWAP2 SUB SWAP1 RETURN JUMPDEST PUSH2 0x18B PUSH2 0x9D5 JUMP JUMPDEST PUSH1 0x40 MLOAD PUSH2 0x198 SWAP2 SWAP1 PUSH2 0x1504 JUMP JUMPDEST PUSH1 0x40 MLOAD DUP1 SWAP2 SUB SWAP1 RETURN JUMPDEST PUSH2 0x1A9 PUSH2 0x9DB JUMP JUMPDEST PUSH1 0x40 MLOAD PUSH2 0x1B6 SWAP2 SWAP1 PUSH2 0x12CC JUMP JUMPDEST PUSH1 0x40 MLOAD DUP1 SWAP2 SUB SWAP1 RETURN JUMPDEST PUSH2 0x1C7 PUSH2 0xA04 JUMP JUMPDEST PUSH1 0x40 MLOAD PUSH2 0x1D4 SWAP2 SWAP1 PUSH2 0x1347 JUMP JUMPDEST PUSH1 0x40 MLOAD DUP1 SWAP2 SUB SWAP1 RETURN JUMPDEST PUSH2 0x1F7 PUSH1 0x4 DUP1 CALLDATASIZE SUB DUP2 ADD SWAP1 PUSH2 0x1F2 SWAP2 SWAP1 PUSH2 0x1028 JUMP JUMPDEST PUSH2 0xA2A JUMP JUMPDEST STOP JUMPDEST PUSH2 0x213 PUSH1 0x4 DUP1 CALLDATASIZE SUB DUP2 ADD SWAP1 PUSH2 0x20E SWAP2 SWAP1 PUSH2 0xFD6 JUMP JUMPDEST PUSH2 0xA3C JUMP JUMPDEST STOP JUMPDEST PUSH2 0x21D PUSH2 0xAC0 JUMP JUMPDEST PUSH1 0x0 PUSH2 0x234 PUSH1 0x4 SLOAD DUP4 PUSH2 0xB10 SWAP1 SWAP2 SWAP1 PUSH4 0xFFFFFFFF AND JUMP JUMPDEST SWAP1 POP PUSH2 0x288 DUP3 PUSH1 0x6 PUSH1 0x0 CALLER PUSH20 0xFFFFFFFFFFFFFFFFFFFFFFFFFFFFFFFFFFFFFFFF AND PUSH20 0xFFFFFFFFFFFFFFFFFFFFFFFFFFFFFFFFFFFFFFFF AND DUP2 MSTORE PUSH1 0x20 ADD SWAP1 DUP2 MSTORE PUSH1 0x20 ADD PUSH1 0x0 KECCAK256 SLOAD PUSH2 0xB26 SWAP1 SWAP2 SWAP1 PUSH4 0xFFFFFFFF AND JUMP JUMPDEST PUSH1 0x5 SLOAD LT ISZERO PUSH2 0x2CC JUMPI PUSH1 0x40 MLOAD PUSH32 0x8C379A000000000000000000000000000000000000000000000000000000000 DUP2 MSTORE PUSH1 0x4 ADD PUSH2 0x2C3 SWAP1 PUSH2 0x14A4 JUMP JUMPDEST PUSH1 0x40 MLOAD DUP1 SWAP2 SUB SWAP1 REVERT JUMPDEST DUP2 PUSH1 0x3 PUSH1 0x0 SWAP1 SLOAD SWAP1 PUSH2 0x100 EXP SWAP1 DIV PUSH20 0xFFFFFFFFFFFFFFFFFFFFFFFFFFFFFFFFFFFFFFFF AND PUSH20 0xFFFFFFFFFFFFFFFFFFFFFFFFFFFFFFFFFFFFFFFF AND PUSH4 0x70A08231 ADDRESS PUSH1 0x40 MLOAD DUP3 PUSH4 0xFFFFFFFF AND PUSH1 0xE0 SHL DUP2 MSTORE PUSH1 0x4 ADD PUSH2 0x328 SWAP2 SWAP1 PUSH2 0x12CC JUMP JUMPDEST PUSH1 0x20 PUSH1 0x40 MLOAD DUP1 DUP4 SUB DUP2 DUP7 DUP1 EXTCODESIZE ISZERO DUP1 ISZERO PUSH2 0x340 JUMPI PUSH1 0x0 DUP1 REVERT JUMPDEST POP GAS STATICCALL ISZERO DUP1 ISZERO PUSH2 0x354 JUMPI RETURNDATASIZE PUSH1 0x0 DUP1 RETURNDATACOPY RETURNDATASIZE PUSH1 0x0 REVERT JUMPDEST POP POP POP POP PUSH1 0x40 MLOAD RETURNDATASIZE PUSH1 0x1F NOT PUSH1 0x1F DUP3 ADD AND DUP3 ADD DUP1 PUSH1 0x40 MSTORE POP DUP2 ADD SWAP1 PUSH2 0x378 SWAP2 SWAP1 PUSH2 0x1051 JUMP JUMPDEST LT ISZERO PUSH2 0x3B9 JUMPI PUSH1 0x40 MLOAD PUSH32 0x8C379A000000000000000000000000000000000000000000000000000000000 DUP2 MSTORE PUSH1 0x4 ADD PUSH2 0x3B0 SWAP1 PUSH2 0x1404 JUMP JUMPDEST PUSH1 0x40 MLOAD DUP1 SWAP2 SUB SWAP1 REVERT JUMPDEST DUP1 PUSH1 0x2 PUSH1 0x0 SWAP1 SLOAD SWAP1 PUSH2 0x100 EXP SWAP1 DIV PUSH20 0xFFFFFFFFFFFFFFFFFFFFFFFFFFFFFFFFFFFFFFFF AND PUSH20 0xFFFFFFFFFFFFFFFFFFFFFFFFFFFFFFFFFFFFFFFF AND PUSH4 0x70A08231 CALLER PUSH1 0x40 MLOAD DUP3 PUSH4 0xFFFFFFFF AND PUSH1 0xE0 SHL DUP2 MSTORE PUSH1 0x4 ADD PUSH2 0x415 SWAP2 SWAP1 PUSH2 0x12CC JUMP JUMPDEST PUSH1 0x20 PUSH1 0x40 MLOAD DUP1 DUP4 SUB DUP2 DUP7 DUP1 EXTCODESIZE ISZERO DUP1 ISZERO PUSH2 0x42D JUMPI PUSH1 0x0 DUP1 REVERT JUMPDEST POP GAS STATICCALL ISZERO DUP1 ISZERO PUSH2 0x441 JUMPI RETURNDATASIZE PUSH1 0x0 DUP1 RETURNDATACOPY RETURNDATASIZE PUSH1 0x0 REVERT JUMPDEST POP POP POP POP PUSH1 0x40 MLOAD RETURNDATASIZE PUSH1 0x1F NOT PUSH1 0x1F DUP3 ADD AND DUP3 ADD DUP1 PUSH1 0x40 MSTORE POP DUP2 ADD SWAP1 PUSH2 0x465 SWAP2 SWAP1 PUSH2 0x1051 JUMP JUMPDEST LT ISZERO PUSH2 0x4A6 JUMPI PUSH1 0x40 MLOAD PUSH32 0x8C379A000000000000000000000000000000000000000000000000000000000 DUP2 MSTORE PUSH1 0x4 ADD PUSH2 0x49D SWAP1 PUSH2 0x13C4 JUMP JUMPDEST PUSH1 0x40 MLOAD DUP1 SWAP2 SUB SWAP1 REVERT JUMPDEST PUSH1 0x2 PUSH1 0x0 SWAP1 SLOAD SWAP1 PUSH2 0x100 EXP SWAP1 DIV PUSH20 0xFFFFFFFFFFFFFFFFFFFFFFFFFFFFFFFFFFFFFFFF AND PUSH20 0xFFFFFFFFFFFFFFFFFFFFFFFFFFFFFFFFFFFFFFFF AND PUSH4 0x23B872DD CALLER ADDRESS DUP5 PUSH1 0x40 MLOAD DUP5 PUSH4 0xFFFFFFFF AND PUSH1 0xE0 SHL DUP2 MSTORE PUSH1 0x4 ADD PUSH2 0x505 SWAP4 SWAP3 SWAP2 SWAP1 PUSH2 0x12E7 JUMP JUMPDEST PUSH1 0x20 PUSH1 0x40 MLOAD DUP1 DUP4 SUB DUP2 PUSH1 0x0 DUP8 DUP1 EXTCODESIZE ISZERO DUP1 ISZERO PUSH2 0x51F JUMPI PUSH1 0x0 DUP1 REVERT JUMPDEST POP GAS CALL ISZERO DUP1 ISZERO PUSH2 0x533 JUMPI RETURNDATASIZE PUSH1 0x0 DUP1 RETURNDATACOPY RETURNDATASIZE PUSH1 0x0 REVERT JUMPDEST POP POP POP POP PUSH1 0x40 MLOAD RETURNDATASIZE PUSH1 0x1F NOT PUSH1 0x1F DUP3 ADD AND DUP3 ADD DUP1 PUSH1 0x40 MSTORE POP DUP2 ADD SWAP1 PUSH2 0x557 SWAP2 SWAP1 PUSH2 0xFFF JUMP JUMPDEST PUSH2 0x596 JUMPI PUSH1 0x40 MLOAD PUSH32 0x8C379A000000000000000000000000000000000000000000000000000000000 DUP2 MSTORE PUSH1 0x4 ADD PUSH2 0x58D SWAP1 PUSH2 0x14E4 JUMP JUMPDEST PUSH1 0x40 MLOAD DUP1 SWAP2 SUB SWAP1 REVERT JUMPDEST PUSH1 0x3 PUSH1 0x0 SWAP1 SLOAD SWAP1 PUSH2 0x100 EXP SWAP1 DIV PUSH20 0xFFFFFFFFFFFFFFFFFFFFFFFFFFFFFFFFFFFFFFFF AND PUSH20 0xFFFFFFFFFFFFFFFFFFFFFFFFFFFFFFFFFFFFFFFF AND PUSH4 0xA9059CBB CALLER DUP5 PUSH1 0x40 MLOAD DUP4 PUSH4 0xFFFFFFFF AND PUSH1 0xE0 SHL DUP2 MSTORE PUSH1 0x4 ADD PUSH2 0x5F3 SWAP3 SWAP2 SWAP1 PUSH2 0x131E JUMP JUMPDEST PUSH1 0x20 PUSH1 0x40 MLOAD DUP1 DUP4 SUB DUP2 PUSH1 0x0 DUP8 DUP1 EXTCODESIZE ISZERO DUP1 ISZERO PUSH2 0x60D JUMPI PUSH1 0x0 DUP1 REVERT JUMPDEST POP GAS CALL ISZERO DUP1 ISZERO PUSH2 0x621 JUMPI RETURNDATASIZE PUSH1 0x0 DUP1 RETURNDATACOPY RETURNDATASIZE PUSH1 0x0 REVERT JUMPDEST POP POP POP POP PUSH1 0x40 MLOAD RETURNDATASIZE PUSH1 0x1F NOT PUSH1 0x1F DUP3 ADD AND DUP3 ADD DUP1 PUSH1 0x40 MSTORE POP DUP2 ADD SWAP1 PUSH2 0x645 SWAP2 SWAP1 PUSH2 0xFFF JUMP JUMPDEST PUSH2 0x684 JUMPI PUSH1 0x40 MLOAD PUSH32 0x8C379A000000000000000000000000000000000000000000000000000000000 DUP2 MSTORE PUSH1 0x4 ADD PUSH2 0x67B SWAP1 PUSH2 0x1444 JUMP JUMPDEST PUSH1 0x40 MLOAD DUP1 SWAP2 SUB SWAP1 REVERT JUMPDEST PUSH2 0x6D6 DUP3 PUSH1 0x6 PUSH1 0x0 CALLER PUSH20 0xFFFFFFFFFFFFFFFFFFFFFFFFFFFFFFFFFFFFFFFF AND PUSH20 0xFFFFFFFFFFFFFFFFFFFFFFFFFFFFFFFFFFFFFFFF AND DUP2 MSTORE PUSH1 0x20 ADD SWAP1 DUP2 MSTORE PUSH1 0x20 ADD PUSH1 0x0 KECCAK256 SLOAD PUSH2 0xB26 SWAP1 SWAP2 SWAP1 PUSH4 0xFFFFFFFF AND JUMP JUMPDEST PUSH1 0x6 PUSH1 0x0 CALLER PUSH20 0xFFFFFFFFFFFFFFFFFFFFFFFFFFFFFFFFFFFFFFFF AND PUSH20 0xFFFFFFFFFFFFFFFFFFFFFFFFFFFFFFFFFFFFFFFF AND DUP2 MSTORE PUSH1 0x20 ADD SWAP1 DUP2 MSTORE PUSH1 0x20 ADD PUSH1 0x0 KECCAK256 DUP2 SWAP1 SSTORE POP CALLER PUSH20 0xFFFFFFFFFFFFFFFFFFFFFFFFFFFFFFFFFFFFFFFF AND PUSH32 0xF6F342132C7DE5E5A1E99C8EFAE544C94731F3FF093F5C3C97C6973D9415CDFB DUP3 DUP5 PUSH1 0x40 MLOAD PUSH2 0x761 SWAP3 SWAP2 SWAP1 PUSH2 0x151F JUMP JUMPDEST PUSH1 0x40 MLOAD DUP1 SWAP2 SUB SWAP1 LOG2 POP PUSH2 0x772 PUSH2 0xB3C JUMP JUMPDEST POP JUMP JUMPDEST PUSH1 0x2 PUSH1 0x0 SWAP1 SLOAD SWAP1 PUSH2 0x100 EXP SWAP1 DIV PUSH20 0xFFFFFFFFFFFFFFFFFFFFFFFFFFFFFFFFFFFFFFFF AND DUP2 JUMP JUMPDEST PUSH1 0x4 SLOAD DUP2 JUMP JUMPDEST PUSH2 0x7A9 PUSH2 0xB45 JUMP JUMPDEST DUP1 PUSH1 0x2 PUSH1 0x0 SWAP1 SLOAD SWAP1 PUSH2 0x100 EXP SWAP1 DIV PUSH20 0xFFFFFFFFFFFFFFFFFFFFFFFFFFFFFFFFFFFFFFFF AND PUSH20 0xFFFFFFFFFFFFFFFFFFFFFFFFFFFFFFFFFFFFFFFF AND PUSH4 0x70A08231 ADDRESS PUSH1 0x40 MLOAD DUP3 PUSH4 0xFFFFFFFF AND PUSH1 0xE0 SHL DUP2 MSTORE PUSH1 0x4 ADD PUSH2 0x805 SWAP2 SWAP1 PUSH2 0x12CC JUMP JUMPDEST PUSH1 0x20 PUSH1 0x40 MLOAD DUP1 DUP4 SUB DUP2 DUP7 DUP1 EXTCODESIZE ISZERO DUP1 ISZERO PUSH2 0x81D JUMPI PUSH1 0x0 DUP1 REVERT JUMPDEST POP GAS STATICCALL ISZERO DUP1 ISZERO PUSH2 0x831 JUMPI RETURNDATASIZE PUSH1 0x0 DUP1 RETURNDATACOPY RETURNDATASIZE PUSH1 0x0 REVERT JUMPDEST POP POP POP POP PUSH1 0x40 MLOAD RETURNDATASIZE PUSH1 0x1F NOT PUSH1 0x1F DUP3 ADD AND DUP3 ADD DUP1 PUSH1 0x40 MSTORE POP DUP2 ADD SWAP1 PUSH2 0x855 SWAP2 SWAP1 PUSH2 0x1051 JUMP JUMPDEST LT ISZERO PUSH2 0x896 JUMPI PUSH1 0x40 MLOAD PUSH32 0x8C379A000000000000000000000000000000000000000000000000000000000 DUP2 MSTORE PUSH1 0x4 ADD PUSH2 0x88D SWAP1 PUSH2 0x1384 JUMP JUMPDEST PUSH1 0x40 MLOAD DUP1 SWAP2 SUB SWAP1 REVERT JUMPDEST PUSH2 0x994 PUSH2 0x8A1 PUSH2 0x9DB JUMP JUMPDEST PUSH1 0x2 PUSH1 0x0 SWAP1 SLOAD SWAP1 PUSH2 0x100 EXP SWAP1 DIV PUSH20 0xFFFFFFFFFFFFFFFFFFFFFFFFFFFFFFFFFFFFFFFF AND PUSH20 0xFFFFFFFFFFFFFFFFFFFFFFFFFFFFFFFFFFFFFFFF AND PUSH4 0x70A08231 ADDRESS PUSH1 0x40 MLOAD DUP3 PUSH4 0xFFFFFFFF AND PUSH1 0xE0 SHL DUP2 MSTORE PUSH1 0x4 ADD PUSH2 0x8FC SWAP2 SWAP1 PUSH2 0x12CC JUMP JUMPDEST PUSH1 0x20 PUSH1 0x40 MLOAD DUP1 DUP4 SUB DUP2 DUP7 DUP1 EXTCODESIZE ISZERO DUP1 ISZERO PUSH2 0x914 JUMPI PUSH1 0x0 DUP1 REVERT JUMPDEST POP GAS STATICCALL ISZERO DUP1 ISZERO PUSH2 0x928 JUMPI RETURNDATASIZE PUSH1 0x0 DUP1 RETURNDATACOPY RETURNDATASIZE PUSH1 0x0 REVERT JUMPDEST POP POP POP POP PUSH1 0x40 MLOAD RETURNDATASIZE PUSH1 0x1F NOT PUSH1 0x1F DUP3 ADD AND DUP3 ADD DUP1 PUSH1 0x40 MSTORE POP DUP2 ADD SWAP1 PUSH2 0x94C SWAP2 SWAP1 PUSH2 0x1051 JUMP JUMPDEST PUSH1 0x2 PUSH1 0x0 SWAP1 SLOAD SWAP1 PUSH2 0x100 EXP SWAP1 DIV PUSH20 0xFFFFFFFFFFFFFFFFFFFFFFFFFFFFFFFFFFFFFFFF AND PUSH20 0xFFFFFFFFFFFFFFFFFFFFFFFFFFFFFFFFFFFFFFFF AND PUSH2 0xBC3 SWAP1 SWAP3 SWAP2 SWAP1 PUSH4 0xFFFFFFFF AND JUMP JUMPDEST POP JUMP JUMPDEST PUSH2 0x99F PUSH2 0xB45 JUMP JUMPDEST DUP1 PUSH1 0x5 DUP2 SWAP1 SSTORE POP POP JUMP JUMPDEST PUSH2 0x9B1 PUSH2 0xB45 JUMP JUMPDEST PUSH2 0x9BB PUSH1 0x0 PUSH2 0xC49 JUMP JUMPDEST JUMP JUMPDEST PUSH1 0x6 PUSH1 0x20 MSTORE DUP1 PUSH1 0x0 MSTORE PUSH1 0x40 PUSH1 0x0 KECCAK256 PUSH1 0x0 SWAP2 POP SWAP1 POP SLOAD DUP2 JUMP JUMPDEST PUSH1 0x5 SLOAD DUP2 JUMP JUMPDEST PUSH1 0x0 DUP1 PUSH1 0x0 SWAP1 SLOAD SWAP1 PUSH2 0x100 EXP SWAP1 DIV PUSH20 0xFFFFFFFFFFFFFFFFFFFFFFFFFFFFFFFFFFFFFFFF AND SWAP1 POP SWAP1 JUMP JUMPDEST PUSH1 0x3 PUSH1 0x0 SWAP1 SLOAD SWAP1 PUSH2 0x100 EXP SWAP1 DIV PUSH20 0xFFFFFFFFFFFFFFFFFFFFFFFFFFFFFFFFFFFFFFFF AND DUP2 JUMP JUMPDEST PUSH2 0xA32 PUSH2 0xB45 JUMP JUMPDEST DUP1 PUSH1 0x4 DUP2 SWAP1 SSTORE POP POP JUMP JUMPDEST PUSH2 0xA44 PUSH2 0xB45 JUMP JUMPDEST PUSH1 0x0 PUSH20 0xFFFFFFFFFFFFFFFFFFFFFFFFFFFFFFFFFFFFFFFF AND DUP2 PUSH20 0xFFFFFFFFFFFFFFFFFFFFFFFFFFFFFFFFFFFFFFFF AND EQ ISZERO PUSH2 0xAB4 JUMPI PUSH1 0x40 MLOAD PUSH32 0x8C379A000000000000000000000000000000000000000000000000000000000 DUP2 MSTORE PUSH1 0x4 ADD PUSH2 0xAAB SWAP1 PUSH2 0x13A4 JUMP JUMPDEST PUSH1 0x40 MLOAD DUP1 SWAP2 SUB SWAP1 REVERT JUMPDEST PUSH2 0xABD DUP2 PUSH2 0xC49 JUMP JUMPDEST POP JUMP JUMPDEST PUSH1 0x2 PUSH1 0x1 SLOAD EQ ISZERO PUSH2 0xB06 JUMPI PUSH1 0x40 MLOAD PUSH32 0x8C379A000000000000000000000000000000000000000000000000000000000 DUP2 MSTORE PUSH1 0x4 ADD PUSH2 0xAFD SWAP1 PUSH2 0x14C4 JUMP JUMPDEST PUSH1 0x40 MLOAD DUP1 SWAP2 SUB SWAP1 REVERT JUMPDEST PUSH1 0x2 PUSH1 0x1 DUP2 SWAP1 SSTORE POP JUMP JUMPDEST PUSH1 0x0 DUP2 DUP4 PUSH2 0xB1E SWAP2 SWAP1 PUSH2 0x15D0 JUMP JUMPDEST SWAP1 POP SWAP3 SWAP2 POP POP JUMP JUMPDEST PUSH1 0x0 DUP2 DUP4 PUSH2 0xB34 SWAP2 SWAP1 PUSH2 0x157A JUMP JUMPDEST SWAP1 POP SWAP3 SWAP2 POP POP JUMP JUMPDEST PUSH1 0x1 DUP1 DUP2 SWAP1 SSTORE POP JUMP JUMPDEST PUSH2 0xB4D PUSH2 0xD0D JUMP JUMPDEST PUSH20 0xFFFFFFFFFFFFFFFFFFFFFFFFFFFFFFFFFFFFFFFF AND PUSH2 0xB6B PUSH2 0x9DB JUMP JUMPDEST PUSH20 0xFFFFFFFFFFFFFFFFFFFFFFFFFFFFFFFFFFFFFFFF AND EQ PUSH2 0xBC1 JUMPI PUSH1 0x40 MLOAD PUSH32 0x8C379A000000000000000000000000000000000000000000000000000000000 DUP2 MSTORE PUSH1 0x4 ADD PUSH2 0xBB8 SWAP1 PUSH2 0x1424 JUMP JUMPDEST PUSH1 0x40 MLOAD DUP1 SWAP2 SUB SWAP1 REVERT JUMPDEST JUMP JUMPDEST PUSH2 0xC44 DUP4 PUSH4 0xA9059CBB PUSH1 0xE0 SHL DUP5 DUP5 PUSH1 0x40 MLOAD PUSH1 0x24 ADD PUSH2 0xBE2 SWAP3 SWAP2 SWAP1 PUSH2 0x131E JUMP JUMPDEST PUSH1 0x40 MLOAD PUSH1 0x20 DUP2 DUP4 SUB SUB DUP2 MSTORE SWAP1 PUSH1 0x40 MSTORE SWAP1 PUSH28 0xFFFFFFFFFFFFFFFFFFFFFFFFFFFFFFFFFFFFFFFFFFFFFFFFFFFFFFFF NOT AND PUSH1 0x20 DUP3 ADD DUP1 MLOAD PUSH28 0xFFFFFFFFFFFFFFFFFFFFFFFFFFFFFFFFFFFFFFFFFFFFFFFFFFFFFFFF DUP4 DUP2 DUP4 AND OR DUP4 MSTORE POP POP POP POP PUSH2 0xD15 JUMP JUMPDEST POP POP POP JUMP JUMPDEST PUSH1 0x0 DUP1 PUSH1 0x0 SWAP1 SLOAD SWAP1 PUSH2 0x100 EXP SWAP1 DIV PUSH20 0xFFFFFFFFFFFFFFFFFFFFFFFFFFFFFFFFFFFFFFFF AND SWAP1 POP DUP2 PUSH1 0x0 DUP1 PUSH2 0x100 EXP DUP2 SLOAD DUP2 PUSH20 0xFFFFFFFFFFFFFFFFFFFFFFFFFFFFFFFFFFFFFFFF MUL NOT AND SWAP1 DUP4 PUSH20 0xFFFFFFFFFFFFFFFFFFFFFFFFFFFFFFFFFFFFFFFF AND MUL OR SWAP1 SSTORE POP DUP2 PUSH20 0xFFFFFFFFFFFFFFFFFFFFFFFFFFFFFFFFFFFFFFFF AND DUP2 PUSH20 0xFFFFFFFFFFFFFFFFFFFFFFFFFFFFFFFFFFFFFFFF AND PUSH32 0x8BE0079C531659141344CD1FD0A4F28419497F9722A3DAAFE3B4186F6B6457E0 PUSH1 0x40 MLOAD PUSH1 0x40 MLOAD DUP1 SWAP2 SUB SWAP1 LOG3 POP POP JUMP JUMPDEST PUSH1 0x0 CALLER SWAP1 POP SWAP1 JUMP JUMPDEST PUSH1 0x0 PUSH2 0xD77 DUP3 PUSH1 0x40 MLOAD DUP1 PUSH1 0x40 ADD PUSH1 0x40 MSTORE DUP1 PUSH1 0x20 DUP2 MSTORE PUSH1 0x20 ADD PUSH32 0x5361666545524332303A206C6F772D6C6576656C2063616C6C206661696C6564 DUP2 MSTORE POP DUP6 PUSH20 0xFFFFFFFFFFFFFFFFFFFFFFFFFFFFFFFFFFFFFFFF AND PUSH2 0xDDC SWAP1 SWAP3 SWAP2 SWAP1 PUSH4 0xFFFFFFFF AND JUMP JUMPDEST SWAP1 POP PUSH1 0x0 DUP2 MLOAD GT ISZERO PUSH2 0xDD7 JUMPI DUP1 DUP1 PUSH1 0x20 ADD SWAP1 MLOAD DUP2 ADD SWAP1 PUSH2 0xD97 SWAP2 SWAP1 PUSH2 0xFFF JUMP JUMPDEST PUSH2 0xDD6 JUMPI PUSH1 0x40 MLOAD PUSH32 0x8C379A000000000000000000000000000000000000000000000000000000000 DUP2 MSTORE PUSH1 0x4 ADD PUSH2 0xDCD SWAP1 PUSH2 0x1484 JUMP JUMPDEST PUSH1 0x40 MLOAD DUP1 SWAP2 SUB SWAP1 REVERT JUMPDEST JUMPDEST POP POP POP JUMP JUMPDEST PUSH1 0x60 PUSH2 0xDEB DUP5 DUP5 PUSH1 0x0 DUP6 PUSH2 0xDF4 JUMP JUMPDEST SWAP1 POP SWAP4 SWAP3 POP POP POP JUMP JUMPDEST PUSH1 0x60 DUP3 SELFBALANCE LT ISZERO PUSH2 0xE39 JUMPI PUSH1 0x40 MLOAD PUSH32 0x8C379A000000000000000000000000000000000000000000000000000000000 DUP2 MSTORE PUSH1 0x4 ADD PUSH2 0xE30 SWAP1 PUSH2 0x13E4 JUMP JUMPDEST PUSH1 0x40 MLOAD DUP1 SWAP2 SUB SWAP1 REVERT JUMPDEST PUSH2 0xE42 DUP6 PUSH2 0xF08 JUMP JUMPDEST PUSH2 0xE81 JUMPI PUSH1 0x40 MLOAD PUSH32 0x8C379A000000000000000000000000000000000000000000000000000000000 DUP2 MSTORE PUSH1 0x4 ADD PUSH2 0xE78 SWAP1 PUSH2 0x1464 JUMP JUMPDEST PUSH1 0x40 MLOAD DUP1 SWAP2 SUB SWAP1 REVERT JUMPDEST PUSH1 0x0 DUP1 DUP7 PUSH20 0xFFFFFFFFFFFFFFFFFFFFFFFFFFFFFFFFFFFFFFFF AND DUP6 DUP8 PUSH1 0x40 MLOAD PUSH2 0xEAA SWAP2 SWAP1 PUSH2 0x12B5 JUMP JUMPDEST PUSH1 0x0 PUSH1 0x40 MLOAD DUP1 DUP4 SUB DUP2 DUP6 DUP8 GAS CALL SWAP3 POP POP POP RETURNDATASIZE DUP1 PUSH1 0x0 DUP2 EQ PUSH2 0xEE7 JUMPI PUSH1 0x40 MLOAD SWAP2 POP PUSH1 0x1F NOT PUSH1 0x3F RETURNDATASIZE ADD AND DUP3 ADD PUSH1 0x40 MSTORE RETURNDATASIZE DUP3 MSTORE RETURNDATASIZE PUSH1 0x0 PUSH1 0x20 DUP5 ADD RETURNDATACOPY PUSH2 0xEEC JUMP JUMPDEST PUSH1 0x60 SWAP2 POP JUMPDEST POP SWAP2 POP SWAP2 POP PUSH2 0xEFC DUP3 DUP3 DUP7 PUSH2 0xF1B JUMP JUMPDEST SWAP3 POP POP POP SWAP5 SWAP4 POP POP POP POP JUMP JUMPDEST PUSH1 0x0 DUP1 DUP3 EXTCODESIZE SWAP1 POP PUSH1 0x0 DUP2 GT SWAP2 POP POP SWAP2 SWAP1 POP JUMP JUMPDEST PUSH1 0x60 DUP4 ISZERO PUSH2 0xF2B JUMPI DUP3 SWAP1 POP PUSH2 0xF7B JUMP JUMPDEST PUSH1 0x0 DUP4 MLOAD GT ISZERO PUSH2 0xF3E JUMPI DUP3 MLOAD DUP1 DUP5 PUSH1 0x20 ADD REVERT JUMPDEST DUP2 PUSH1 0x40 MLOAD PUSH32 0x8C379A000000000000000000000000000000000000000000000000000000000 DUP2 MSTORE PUSH1 0x4 ADD PUSH2 0xF72 SWAP2 SWAP1 PUSH2 0x1362 JUMP JUMPDEST PUSH1 0x40 MLOAD DUP1 SWAP2 SUB SWAP1 REVERT JUMPDEST SWAP4 SWAP3 POP POP POP JUMP JUMPDEST PUSH1 0x0 DUP2 CALLDATALOAD SWAP1 POP PUSH2 0xF91 DUP2 PUSH2 0x1A2B JUMP JUMPDEST SWAP3 SWAP2 POP POP JUMP JUMPDEST PUSH1 0x0 DUP2 MLOAD SWAP1 POP PUSH2 0xFA6 DUP2 PUSH2 0x1A42 JUMP JUMPDEST SWAP3 SWAP2 POP POP JUMP JUMPDEST PUSH1 0x0 DUP2 CALLDATALOAD SWAP1 POP PUSH2 0xFBB DUP2 PUSH2 0x1A59 JUMP JUMPDEST SWAP3 SWAP2 POP POP JUMP JUMPDEST PUSH1 0x0 DUP2 MLOAD SWAP1 POP PUSH2 0xFD0 DUP2 PUSH2 0x1A59 JUMP JUMPDEST SWAP3 SWAP2 POP POP JUMP JUMPDEST PUSH1 0x0 PUSH1 0x20 DUP3 DUP5 SUB SLT ISZERO PUSH2 0xFE8 JUMPI PUSH1 0x0 DUP1 REVERT JUMPDEST PUSH1 0x0 PUSH2 0xFF6 DUP5 DUP3 DUP6 ADD PUSH2 0xF82 JUMP JUMPDEST SWAP2 POP POP SWAP3 SWAP2 POP POP JUMP JUMPDEST PUSH1 0x0 PUSH1 0x20 DUP3 DUP5 SUB SLT ISZERO PUSH2 0x1011 JUMPI PUSH1 0x0 DUP1 REVERT JUMPDEST PUSH1 0x0 PUSH2 0x101F DUP5 DUP3 DUP6 ADD PUSH2 0xF97 JUMP JUMPDEST SWAP2 POP POP SWAP3 SWAP2 POP POP JUMP JUMPDEST PUSH1 0x0 PUSH1 0x20 DUP3 DUP5 SUB SLT ISZERO PUSH2 0x103A JUMPI PUSH1 0x0 DUP1 REVERT JUMPDEST PUSH1 0x0 PUSH2 0x1048 DUP5 DUP3 DUP6 ADD PUSH2 0xFAC JUMP JUMPDEST SWAP2 POP POP SWAP3 SWAP2 POP POP JUMP JUMPDEST PUSH1 0x0 PUSH1 0x20 DUP3 DUP5 SUB SLT ISZERO PUSH2 0x1063 JUMPI PUSH1 0x0 DUP1 REVERT JUMPDEST PUSH1 0x0 PUSH2 0x1071 DUP5 DUP3 DUP6 ADD PUSH2 0xFC1 JUMP JUMPDEST SWAP2 POP POP SWAP3 SWAP2 POP POP JUMP JUMPDEST PUSH2 0x1083 DUP2 PUSH2 0x1601 JUMP JUMPDEST DUP3 MSTORE POP POP JUMP JUMPDEST PUSH1 0x0 PUSH2 0x1094 DUP3 PUSH2 0x1548 JUMP JUMPDEST PUSH2 0x109E DUP2 DUP6 PUSH2 0x155E JUMP JUMPDEST SWAP4 POP PUSH2 0x10AE DUP2 DUP6 PUSH1 0x20 DUP7 ADD PUSH2 0x166D JUMP JUMPDEST DUP1 DUP5 ADD SWAP2 POP POP SWAP3 SWAP2 POP POP JUMP JUMPDEST PUSH2 0x10C3 DUP2 PUSH2 0x1649 JUMP JUMPDEST DUP3 MSTORE POP POP JUMP JUMPDEST PUSH1 0x0 PUSH2 0x10D4 DUP3 PUSH2 0x1553 JUMP JUMPDEST PUSH2 0x10DE DUP2 DUP6 PUSH2 0x1569 JUMP JUMPDEST SWAP4 POP PUSH2 0x10EE DUP2 DUP6 PUSH1 0x20 DUP7 ADD PUSH2 0x166D JUMP JUMPDEST PUSH2 0x10F7 DUP2 PUSH2 0x16FE JUMP JUMPDEST DUP5 ADD SWAP2 POP POP SWAP3 SWAP2 POP POP JUMP JUMPDEST PUSH1 0x0 PUSH2 0x110F PUSH1 0x2E DUP4 PUSH2 0x1569 JUMP JUMPDEST SWAP2 POP PUSH2 0x111A DUP3 PUSH2 0x170F JUMP JUMPDEST PUSH1 0x40 DUP3 ADD SWAP1 POP SWAP2 SWAP1 POP JUMP JUMPDEST PUSH1 0x0 PUSH2 0x1132 PUSH1 0x26 DUP4 PUSH2 0x1569 JUMP JUMPDEST SWAP2 POP PUSH2 0x113D DUP3 PUSH2 0x175E JUMP JUMPDEST PUSH1 0x40 DUP3 ADD SWAP1 POP SWAP2 SWAP1 POP JUMP JUMPDEST PUSH1 0x0 PUSH2 0x1155 PUSH1 0xF DUP4 PUSH2 0x1569 JUMP JUMPDEST SWAP2 POP PUSH2 0x1160 DUP3 PUSH2 0x17AD JUMP JUMPDEST PUSH1 0x20 DUP3 ADD SWAP1 POP SWAP2 SWAP1 POP JUMP JUMPDEST PUSH1 0x0 PUSH2 0x1178 PUSH1 0x26 DUP4 PUSH2 0x1569 JUMP JUMPDEST SWAP2 POP PUSH2 0x1183 DUP3 PUSH2 0x17D6 JUMP JUMPDEST PUSH1 0x40 DUP3 ADD SWAP1 POP SWAP2 SWAP1 POP JUMP JUMPDEST PUSH1 0x0 PUSH2 0x119B PUSH1 0x6E DUP4 PUSH2 0x1569 JUMP JUMPDEST SWAP2 POP PUSH2 0x11A6 DUP3 PUSH2 0x1825 JUMP JUMPDEST PUSH1 0x80 DUP3 ADD SWAP1 POP SWAP2 SWAP1 POP JUMP JUMPDEST PUSH1 0x0 PUSH2 0x11BE PUSH1 0x20 DUP4 PUSH2 0x1569 JUMP JUMPDEST SWAP2 POP PUSH2 0x11C9 DUP3 PUSH2 0x18C0 JUMP JUMPDEST PUSH1 0x20 DUP3 ADD SWAP1 POP SWAP2 SWAP1 POP JUMP JUMPDEST PUSH1 0x0 PUSH2 0x11E1 PUSH1 0x1D DUP4 PUSH2 0x1569 JUMP JUMPDEST SWAP2 POP PUSH2 0x11EC DUP3 PUSH2 0x18E9 JUMP JUMPDEST PUSH1 0x20 DUP3 ADD SWAP1 POP SWAP2 SWAP1 POP JUMP JUMPDEST PUSH1 0x0 PUSH2 0x1204 PUSH1 0x1D DUP4 PUSH2 0x1569 JUMP JUMPDEST SWAP2 POP PUSH2 0x120F DUP3 PUSH2 0x1912 JUMP JUMPDEST PUSH1 0x20 DUP3 ADD SWAP1 POP SWAP2 SWAP1 POP JUMP JUMPDEST PUSH1 0x0 PUSH2 0x1227 PUSH1 0x2A DUP4 PUSH2 0x1569 JUMP JUMPDEST SWAP2 POP PUSH2 0x1232 DUP3 PUSH2 0x193B JUMP JUMPDEST PUSH1 0x40 DUP3 ADD SWAP1 POP SWAP2 SWAP1 POP JUMP JUMPDEST PUSH1 0x0 PUSH2 0x124A PUSH1 0x28 DUP4 PUSH2 0x1569 JUMP JUMPDEST SWAP2 POP PUSH2 0x1255 DUP3 PUSH2 0x198A JUMP JUMPDEST PUSH1 0x40 DUP3 ADD SWAP1 POP SWAP2 SWAP1 POP JUMP JUMPDEST PUSH1 0x0 PUSH2 0x126D PUSH1 0x1F DUP4 PUSH2 0x1569 JUMP JUMPDEST SWAP2 POP PUSH2 0x1278 DUP3 PUSH2 0x19D9 JUMP JUMPDEST PUSH1 0x20 DUP3 ADD SWAP1 POP SWAP2 SWAP1 POP JUMP JUMPDEST PUSH1 0x0 PUSH2 0x1290 PUSH1 0x1B DUP4 PUSH2 0x1569 JUMP JUMPDEST SWAP2 POP PUSH2 0x129B DUP3 PUSH2 0x1A02 JUMP JUMPDEST PUSH1 0x20 DUP3 ADD SWAP1 POP SWAP2 SWAP1 POP JUMP JUMPDEST PUSH2 0x12AF DUP2 PUSH2 0x163F JUMP JUMPDEST DUP3 MSTORE POP POP JUMP JUMPDEST PUSH1 0x0 PUSH2 0x12C1 DUP3 DUP5 PUSH2 0x1089 JUMP JUMPDEST SWAP2 POP DUP2 SWAP1 POP SWAP3 SWAP2 POP POP JUMP JUMPDEST PUSH1 0x0 PUSH1 0x20 DUP3 ADD SWAP1 POP PUSH2 0x12E1 PUSH1 0x0 DUP4 ADD DUP5 PUSH2 0x107A JUMP JUMPDEST SWAP3 SWAP2 POP POP JUMP JUMPDEST PUSH1 0x0 PUSH1 0x60 DUP3 ADD SWAP1 POP PUSH2 0x12FC PUSH1 0x0 DUP4 ADD DUP7 PUSH2 0x107A JUMP JUMPDEST PUSH2 0x1309 PUSH1 0x20 DUP4 ADD DUP6 PUSH2 0x107A JUMP JUMPDEST PUSH2 0x1316 PUSH1 0x40 DUP4 ADD DUP5 PUSH2 0x12A6 JUMP JUMPDEST SWAP5 SWAP4 POP POP POP POP JUMP JUMPDEST PUSH1 0x0 PUSH1 0x40 DUP3 ADD SWAP1 POP PUSH2 0x1333 PUSH1 0x0 DUP4 ADD DUP6 PUSH2 0x107A JUMP JUMPDEST PUSH2 0x1340 PUSH1 0x20 DUP4 ADD DUP5 PUSH2 0x12A6 JUMP JUMPDEST SWAP4 SWAP3 POP POP POP JUMP JUMPDEST PUSH1 0x0 PUSH1 0x20 DUP3 ADD SWAP1 POP PUSH2 0x135C PUSH1 0x0 DUP4 ADD DUP5 PUSH2 0x10BA JUMP JUMPDEST SWAP3 SWAP2 POP POP JUMP JUMPDEST PUSH1 0x0 PUSH1 0x20 DUP3 ADD SWAP1 POP DUP2 DUP2 SUB PUSH1 0x0 DUP4 ADD MSTORE PUSH2 0x137C DUP2 DUP5 PUSH2 0x10C9 JUMP JUMPDEST SWAP1 POP SWAP3 SWAP2 POP POP JUMP JUMPDEST PUSH1 0x0 PUSH1 0x20 DUP3 ADD SWAP1 POP DUP2 DUP2 SUB PUSH1 0x0 DUP4 ADD MSTORE PUSH2 0x139D DUP2 PUSH2 0x1102 JUMP JUMPDEST SWAP1 POP SWAP2 SWAP1 POP JUMP JUMPDEST PUSH1 0x0 PUSH1 0x20 DUP3 ADD SWAP1 POP DUP2 DUP2 SUB PUSH1 0x0 DUP4 ADD MSTORE PUSH2 0x13BD DUP2 PUSH2 0x1125 JUMP JUMPDEST SWAP1 POP SWAP2 SWAP1 POP JUMP JUMPDEST PUSH1 0x0 PUSH1 0x20 DUP3 ADD SWAP1 POP DUP2 DUP2 SUB PUSH1 0x0 DUP4 ADD MSTORE PUSH2 0x13DD DUP2 PUSH2 0x1148 JUMP JUMPDEST SWAP1 POP SWAP2 SWAP1 POP JUMP JUMPDEST PUSH1 0x0 PUSH1 0x20 DUP3 ADD SWAP1 POP DUP2 DUP2 SUB PUSH1 0x0 DUP4 ADD MSTORE PUSH2 0x13FD DUP2 PUSH2 0x116B JUMP JUMPDEST SWAP1 POP SWAP2 SWAP1 POP JUMP JUMPDEST PUSH1 0x0 PUSH1 0x20 DUP3 ADD SWAP1 POP DUP2 DUP2 SUB PUSH1 0x0 DUP4 ADD MSTORE PUSH2 0x141D DUP2 PUSH2 0x118E JUMP JUMPDEST SWAP1 POP SWAP2 SWAP1 POP JUMP JUMPDEST PUSH1 0x0 PUSH1 0x20 DUP3 ADD SWAP1 POP DUP2 DUP2 SUB PUSH1 0x0 DUP4 ADD MSTORE PUSH2 0x143D DUP2 PUSH2 0x11B1 JUMP JUMPDEST SWAP1 POP SWAP2 SWAP1 POP JUMP JUMPDEST PUSH1 0x0 PUSH1 0x20 DUP3 ADD SWAP1 POP DUP2 DUP2 SUB PUSH1 0x0 DUP4 ADD MSTORE PUSH2 0x145D DUP2 PUSH2 0x11D4 JUMP JUMPDEST SWAP1 POP SWAP2 SWAP1 POP JUMP JUMPDEST PUSH1 0x0 PUSH1 0x20 DUP3 ADD SWAP1 POP DUP2 DUP2 SUB PUSH1 0x0 DUP4 ADD MSTORE PUSH2 0x147D DUP2 PUSH2 0x11F7 JUMP JUMPDEST SWAP1 POP SWAP2 SWAP1 POP JUMP JUMPDEST PUSH1 0x0 PUSH1 0x20 DUP3 ADD SWAP1 POP DUP2 DUP2 SUB PUSH1 0x0 DUP4 ADD MSTORE PUSH2 0x149D DUP2 PUSH2 0x121A JUMP JUMPDEST SWAP1 POP SWAP2 SWAP1 POP JUMP JUMPDEST PUSH1 0x0 PUSH1 0x20 DUP3 ADD SWAP1 POP DUP2 DUP2 SUB PUSH1 0x0 DUP4 ADD MSTORE PUSH2 0x14BD DUP2 PUSH2 0x123D JUMP JUMPDEST SWAP1 POP SWAP2 SWAP1 POP JUMP JUMPDEST PUSH1 0x0 PUSH1 0x20 DUP3 ADD SWAP1 POP DUP2 DUP2 SUB PUSH1 0x0 DUP4 ADD MSTORE PUSH2 0x14DD DUP2 PUSH2 0x1260 JUMP JUMPDEST SWAP1 POP SWAP2 SWAP1 POP JUMP JUMPDEST PUSH1 0x0 PUSH1 0x20 DUP3 ADD SWAP1 POP DUP2 DUP2 SUB PUSH1 0x0 DUP4 ADD MSTORE PUSH2 0x14FD DUP2 PUSH2 0x1283 JUMP JUMPDEST SWAP1 POP SWAP2 SWAP1 POP JUMP JUMPDEST PUSH1 0x0 PUSH1 0x20 DUP3 ADD SWAP1 POP PUSH2 0x1519 PUSH1 0x0 DUP4 ADD DUP5 PUSH2 0x12A6 JUMP JUMPDEST SWAP3 SWAP2 POP POP JUMP JUMPDEST PUSH1 0x0 PUSH1 0x40 DUP3 ADD SWAP1 POP PUSH2 0x1534 PUSH1 0x0 DUP4 ADD DUP6 PUSH2 0x12A6 JUMP JUMPDEST PUSH2 0x1541 PUSH1 0x20 DUP4 ADD DUP5 PUSH2 0x12A6 JUMP JUMPDEST SWAP4 SWAP3 POP POP POP JUMP JUMPDEST PUSH1 0x0 DUP2 MLOAD SWAP1 POP SWAP2 SWAP1 POP JUMP JUMPDEST PUSH1 0x0 DUP2 MLOAD SWAP1 POP SWAP2 SWAP1 POP JUMP JUMPDEST PUSH1 0x0 DUP2 SWAP1 POP SWAP3 SWAP2 POP POP JUMP JUMPDEST PUSH1 0x0 DUP3 DUP3 MSTORE PUSH1 0x20 DUP3 ADD SWAP1 POP SWAP3 SWAP2 POP POP JUMP JUMPDEST PUSH1 0x0 PUSH2 0x1585 DUP3 PUSH2 0x163F JUMP JUMPDEST SWAP2 POP PUSH2 0x1590 DUP4 PUSH2 0x163F JUMP JUMPDEST SWAP3 POP DUP3 PUSH32 0xFFFFFFFFFFFFFFFFFFFFFFFFFFFFFFFFFFFFFFFFFFFFFFFFFFFFFFFFFFFFFFFF SUB DUP3 GT ISZERO PUSH2 0x15C5 JUMPI PUSH2 0x15C4 PUSH2 0x16A0 JUMP JUMPDEST JUMPDEST DUP3 DUP3 ADD SWAP1 POP SWAP3 SWAP2 POP POP JUMP JUMPDEST PUSH1 0x0 PUSH2 0x15DB DUP3 PUSH2 0x163F JUMP JUMPDEST SWAP2 POP PUSH2 0x15E6 DUP4 PUSH2 0x163F JUMP JUMPDEST SWAP3 POP DUP3 PUSH2 0x15F6 JUMPI PUSH2 0x15F5 PUSH2 0x16CF JUMP JUMPDEST JUMPDEST DUP3 DUP3 DIV SWAP1 POP SWAP3 SWAP2 POP POP JUMP JUMPDEST PUSH1 0x0 PUSH2 0x160C DUP3 PUSH2 0x161F JUMP JUMPDEST SWAP1 POP SWAP2 SWAP1 POP JUMP JUMPDEST PUSH1 0x0 DUP2 ISZERO ISZERO SWAP1 POP SWAP2 SWAP1 POP JUMP JUMPDEST PUSH1 0x0 PUSH20 0xFFFFFFFFFFFFFFFFFFFFFFFFFFFFFFFFFFFFFFFF DUP3 AND SWAP1 POP SWAP2 SWAP1 POP JUMP JUMPDEST PUSH1 0x0 DUP2 SWAP1 POP SWAP2 SWAP1 POP JUMP JUMPDEST PUSH1 0x0 PUSH2 0x1654 DUP3 PUSH2 0x165B JUMP JUMPDEST SWAP1 POP SWAP2 SWAP1 POP JUMP JUMPDEST PUSH1 0x0 PUSH2 0x1666 DUP3 PUSH2 0x161F JUMP JUMPDEST SWAP1 POP SWAP2 SWAP1 POP JUMP JUMPDEST PUSH1 0x0 JUMPDEST DUP4 DUP2 LT ISZERO PUSH2 0x168B JUMPI DUP1 DUP3 ADD MLOAD DUP2 DUP5 ADD MSTORE PUSH1 0x20 DUP2 ADD SWAP1 POP PUSH2 0x1670 JUMP JUMPDEST DUP4 DUP2 GT ISZERO PUSH2 0x169A JUMPI PUSH1 0x0 DUP5 DUP5 ADD MSTORE JUMPDEST POP POP POP POP JUMP JUMPDEST PUSH32 0x4E487B7100000000000000000000000000000000000000000000000000000000 PUSH1 0x0 MSTORE PUSH1 0x11 PUSH1 0x4 MSTORE PUSH1 0x24 PUSH1 0x0 REVERT JUMPDEST PUSH32 0x4E487B7100000000000000000000000000000000000000000000000000000000 PUSH1 0x0 MSTORE PUSH1 0x12 PUSH1 0x4 MSTORE PUSH1 0x24 PUSH1 0x0 REVERT JUMPDEST PUSH1 0x0 PUSH1 0x1F NOT PUSH1 0x1F DUP4 ADD AND SWAP1 POP SWAP2 SWAP1 POP JUMP JUMPDEST PUSH32 0x416D6F756E742069732067726561746572207468616E207468652062616C616E PUSH1 0x0 DUP3 ADD MSTORE PUSH32 0x6365206F6620636F6E7472616374000000000000000000000000000000000000 PUSH1 0x20 DUP3 ADD MSTORE POP JUMP JUMPDEST PUSH32 0x4F776E61626C653A206E6577206F776E657220697320746865207A65726F2061 PUSH1 0x0 DUP3 ADD MSTORE PUSH32 0x6464726573730000000000000000000000000000000000000000000000000000 PUSH1 0x20 DUP3 ADD MSTORE POP JUMP JUMPDEST PUSH32 0x4E6F7420656E6F75676820555344540000000000000000000000000000000000 PUSH1 0x0 DUP3 ADD MSTORE POP JUMP JUMPDEST PUSH32 0x416464726573733A20696E73756666696369656E742062616C616E636520666F PUSH1 0x0 DUP3 ADD MSTORE PUSH32 0x722063616C6C0000000000000000000000000000000000000000000000000000 PUSH1 0x20 DUP3 ADD MSTORE POP JUMP JUMPDEST PUSH32 0x546865206E756D626572206F6620746F6B656E73207468617420757365727320 PUSH1 0x0 DUP3 ADD MSTORE PUSH32 0x77616E7420746F207075726368617365206578636565647320746865206E756D PUSH1 0x20 DUP3 ADD MSTORE PUSH32 0x626572206F6620746F6B656E732063757272656E746C7920617661696C61626C PUSH1 0x40 DUP3 ADD MSTORE PUSH32 0x6520666F72207075726368617365000000000000000000000000000000000000 PUSH1 0x60 DUP3 ADD MSTORE POP JUMP JUMPDEST PUSH32 0x4F776E61626C653A2063616C6C6572206973206E6F7420746865206F776E6572 PUSH1 0x0 DUP3 ADD MSTORE POP JUMP JUMPDEST PUSH32 0x5472616E7366657220746F206D73672E73656E646572206661696C6564000000 PUSH1 0x0 DUP3 ADD MSTORE POP JUMP JUMPDEST PUSH32 0x416464726573733A2063616C6C20746F206E6F6E2D636F6E7472616374000000 PUSH1 0x0 DUP3 ADD MSTORE POP JUMP JUMPDEST PUSH32 0x5361666545524332303A204552433230206F7065726174696F6E20646964206E PUSH1 0x0 DUP3 ADD MSTORE PUSH32 0x6F74207375636365656400000000000000000000000000000000000000000000 PUSH1 0x20 DUP3 ADD MSTORE POP JUMP JUMPDEST PUSH32 0x412073696E676C6520757365722063616E6E6F742062757920746F6F206D616E PUSH1 0x0 DUP3 ADD MSTORE PUSH32 0x7920746F6B656E73000000000000000000000000000000000000000000000000 PUSH1 0x20 DUP3 ADD MSTORE POP JUMP JUMPDEST PUSH32 0x5265656E7472616E637947756172643A207265656E7472616E742063616C6C00 PUSH1 0x0 DUP3 ADD MSTORE POP JUMP JUMPDEST PUSH32 0x5472616E7366657220746F20636F6E7472616374206661696C65640000000000 PUSH1 0x0 DUP3 ADD MSTORE POP JUMP JUMPDEST PUSH2 0x1A34 DUP2 PUSH2 0x1601 JUMP JUMPDEST DUP2 EQ PUSH2 0x1A3F JUMPI PUSH1 0x0 DUP1 REVERT JUMPDEST POP JUMP JUMPDEST PUSH2 0x1A4B DUP2 PUSH2 0x1613 JUMP JUMPDEST DUP2 EQ PUSH2 0x1A56 JUMPI PUSH1 0x0 DUP1 REVERT JUMPDEST POP JUMP JUMPDEST PUSH2 0x1A62 DUP2 PUSH2 0x163F JUMP JUMPDEST DUP2 EQ PUSH2 0x1A6D JUMPI PUSH1 0x0 DUP1 REVERT JUMPDEST POP JUMP INVALID LOG2 PUSH5 0x6970667358 0x22 SLT KECCAK256 0xB5 0xB0 0xB0 0xB6 0xBD 0xF9 SLT 0xD CALLDATALOAD 0xB5 0xE9 PUSH2 0x6C83 0xBD PUSH11 0x43197ADD9CD53DA28EACBC DUP13 POP EXTCODEHASH ORIGIN 0xBD PUSH5 0x736F6C6343 STOP ADDMOD DIV STOP CALLER "
				},
				"gasEstimates": {
					"creation": {
						"codeDepositCost": "1364400",
						"executionCost": "infinite",
						"totalCost": "infinite"
					},
					"external": {
						"buyToken(uint256)": "infinite",
						"cumulativePurchase(address)": "1514",
						"exchangeRate()": "1174",
						"maxAmout()": "1151",
						"myToken()": "1323",
						"owner()": "1266",
						"renounceOwnership()": "24509",
						"setExchangeRate(uint256)": "21472",
						"setMaxAmout(uint256)": "21473",
						"transferOwnership(address)": "24857",
						"usdt()": "1280",
						"withdrawUSDT(uint256)": "infinite"
					}
				},
				"methodIdentifiers": {
					"buyToken(uint256)": "2d296bf1",
					"cumulativePurchase(address)": "7a80d062",
					"exchangeRate()": "3ba0b9a9",
					"maxAmout()": "8d951832",
					"myToken()": "b8fcf937",
					"owner()": "8da5cb5b",
					"renounceOwnership()": "715018a6",
					"setExchangeRate(uint256)": "db068e0e",
					"setMaxAmout(uint256)": "65583cae",
					"transferOwnership(address)": "f2fde38b",
					"usdt()": "2f48ab7d",
					"withdrawUSDT(uint256)": "3ea521ef"
				}
			},
			"storageLayout": {
				"storage": [
					{
						"astId": 7,
						"contract": "BuyToken.sol:TokenExchange",
						"label": "_owner",
						"offset": 0,
						"slot": "0",
						"type": "t_address"
					},
					{
						"astId": 123,
						"contract": "BuyToken.sol:TokenExchange",
						"label": "_status",
						"offset": 0,
						"slot": "1",
						"type": "t_uint256"
					},
					{
						"astId": 209,
						"contract": "BuyToken.sol:TokenExchange",
						"label": "usdt",
						"offset": 0,
						"slot": "2",
						"type": "t_contract(IERC20)806"
					},
					{
						"astId": 212,
						"contract": "BuyToken.sol:TokenExchange",
						"label": "myToken",
						"offset": 0,
						"slot": "3",
						"type": "t_contract(IERC20)806"
					},
					{
						"astId": 214,
						"contract": "BuyToken.sol:TokenExchange",
						"label": "exchangeRate",
						"offset": 0,
						"slot": "4",
						"type": "t_uint256"
					},
					{
						"astId": 216,
						"contract": "BuyToken.sol:TokenExchange",
						"label": "maxAmout",
						"offset": 0,
						"slot": "5",
						"type": "t_uint256"
					},
					{
						"astId": 220,
						"contract": "BuyToken.sol:TokenExchange",
						"label": "cumulativePurchase",
						"offset": 0,
						"slot": "6",
						"type": "t_mapping(t_address,t_uint256)"
					}
				],
				"types": {
					"t_address": {
						"encoding": "inplace",
						"label": "address",
						"numberOfBytes": "20"
					},
					"t_contract(IERC20)806": {
						"encoding": "inplace",
						"label": "contract IERC20",
						"numberOfBytes": "20"
					},
					"t_mapping(t_address,t_uint256)": {
						"encoding": "mapping",
						"key": "t_address",
						"label": "mapping(address => uint256)",
						"numberOfBytes": "32",
						"value": "t_uint256"
					},
					"t_uint256": {
						"encoding": "inplace",
						"label": "uint256",
						"numberOfBytes": "32"
					}
				}
			},
			"userdoc": {
				"kind": "user",
				"methods": {},
				"version": 1
			}
		}
	}
}