{
	"BlindBoxNFT.sol": {
		"BlindBox": {
			"abi": [
				{
					"inputs": [
						{
							"internalType": "address",
							"name": "anotherContractAddress",
							"type": "address"
						}
					],
					"stateMutability": "nonpayable",
					"type": "constructor"
				},
				{
					"anonymous": false,
					"inputs": [
						{
							"indexed": true,
							"internalType": "address",
							"name": "from",
							"type": "address"
						},
						{
							"indexed": false,
							"internalType": "uint256",
							"name": "cardId",
							"type": "uint256"
						}
					],
					"name": "DrawCardEvent",
					"type": "event"
				},
				{
					"inputs": [],
					"name": "drawCard",
					"outputs": [],
					"stateMutability": "nonpayable",
					"type": "function"
				}
			],
			"devdoc": {
				"kind": "dev",
				"methods": {},
				"version": 1
			},
			"evm": {
				"assembly": "    /* \"BlindBoxNFT.sol\":265:1732  contract BlindBox {... */\n  mstore(0x40, 0x80)\n    /* \"BlindBoxNFT.sol\":321:428  string[] private group1 = [\"10001\",\"10002\",\"10003\",\"10004\",\"10005\",\"10006\",\"10007\",\"10008\",\"10009\",\"20001\"] */\n  mload(0x40)\n  dup1\n  0x0140\n  add\n  0x40\n  mstore\n  dup1\n  mload(0x40)\n  dup1\n  0x40\n  add\n  0x40\n  mstore\n  dup1\n  0x05\n  dup2\n  mstore\n  0x20\n  add\n  0x3130303031000000000000000000000000000000000000000000000000000000\n  dup2\n  mstore\n  pop\n  dup2\n  mstore\n  0x20\n  add\n  mload(0x40)\n  dup1\n  0x40\n  add\n  0x40\n  mstore\n  dup1\n  0x05\n  dup2\n  mstore\n  0x20\n  add\n  0x3130303032000000000000000000000000000000000000000000000000000000\n  dup2\n  mstore\n  pop\n  dup2\n  mstore\n  0x20\n  add\n  mload(0x40)\n  dup1\n  0x40\n  add\n  0x40\n  mstore\n  dup1\n  0x05\n  dup2\n  mstore\n  0x20\n  add\n  0x3130303033000000000000000000000000000000000000000000000000000000\n  dup2\n  mstore\n  pop\n  dup2\n  mstore\n  0x20\n  add\n  mload(0x40)\n  dup1\n  0x40\n  add\n  0x40\n  mstore\n  dup1\n  0x05\n  dup2\n  mstore\n  0x20\n  add\n  0x3130303034000000000000000000000000000000000000000000000000000000\n  dup2\n  mstore\n  pop\n  dup2\n  mstore\n  0x20\n  add\n  mload(0x40)\n  dup1\n  0x40\n  add\n  0x40\n  mstore\n  dup1\n  0x05\n  dup2\n  mstore\n  0x20\n  add\n  0x3130303035000000000000000000000000000000000000000000000000000000\n  dup2\n  mstore\n  pop\n  dup2\n  mstore\n  0x20\n  add\n  mload(0x40)\n  dup1\n  0x40\n  add\n  0x40\n  mstore\n  dup1\n  0x05\n  dup2\n  mstore\n  0x20\n  add\n  0x3130303036000000000000000000000000000000000000000000000000000000\n  dup2\n  mstore\n  pop\n  dup2\n  mstore\n  0x20\n  add\n  mload(0x40)\n  dup1\n  0x40\n  add\n  0x40\n  mstore\n  dup1\n  0x05\n  dup2\n  mstore\n  0x20\n  add\n  0x3130303037000000000000000000000000000000000000000000000000000000\n  dup2\n  mstore\n  pop\n  dup2\n  mstore\n  0x20\n  add\n  mload(0x40)\n  dup1\n  0x40\n  add\n  0x40\n  mstore\n  dup1\n  0x05\n  dup2\n  mstore\n  0x20\n  add\n  0x3130303038000000000000000000000000000000000000000000000000000000\n  dup2\n  mstore\n  pop\n  dup2\n  mstore\n  0x20\n  add\n  mload(0x40)\n  dup1\n  0x40\n  add\n  0x40\n  mstore\n  dup1\n  0x05\n  dup2\n  mstore\n  0x20\n  add\n  0x3130303039000000000000000000000000000000000000000000000000000000\n  dup2\n  mstore\n  pop\n  dup2\n  mstore\n  0x20\n  add\n  mload(0x40)\n  dup1\n  0x40\n  add\n  0x40\n  mstore\n  dup1\n  0x05\n  dup2\n  mstore\n  0x20\n  add\n  0x3230303031000000000000000000000000000000000000000000000000000000\n  dup2\n  mstore\n  pop\n  dup2\n  mstore\n  pop\n  0x00\n  swap1\n  0x0a\n  tag_1\n  swap3\n  swap2\n  swap1\n  tag_2\n  jump\t// in\ntag_1:\n  pop\n    /* \"BlindBoxNFT.sol\":434:501  string[] private group2 = [\"20002\",\"20003\",\"20004\",\"20005\",\"20006\"] */\n  mload(0x40)\n  dup1\n  0xa0\n  add\n  0x40\n  mstore\n  dup1\n  mload(0x40)\n  dup1\n  0x40\n  add\n  0x40\n  mstore\n  dup1\n  0x05\n  dup2\n  mstore\n  0x20\n  add\n  0x3230303032000000000000000000000000000000000000000000000000000000\n  dup2\n  mstore\n  pop\n  dup2\n  mstore\n  0x20\n  add\n  mload(0x40)\n  dup1\n  0x40\n  add\n  0x40\n  mstore\n  dup1\n  0x05\n  dup2\n  mstore\n  0x20\n  add\n  0x3230303033000000000000000000000000000000000000000000000000000000\n  dup2\n  mstore\n  pop\n  dup2\n  mstore\n  0x20\n  add\n  mload(0x40)\n  dup1\n  0x40\n  add\n  0x40\n  mstore\n  dup1\n  0x05\n  dup2\n  mstore\n  0x20\n  add\n  0x3230303034000000000000000000000000000000000000000000000000000000\n  dup2\n  mstore\n  pop\n  dup2\n  mstore\n  0x20\n  add\n  mload(0x40)\n  dup1\n  0x40\n  add\n  0x40\n  mstore\n  dup1\n  0x05\n  dup2\n  mstore\n  0x20\n  add\n  0x3230303035000000000000000000000000000000000000000000000000000000\n  dup2\n  mstore\n  pop\n  dup2\n  mstore\n  0x20\n  add\n  mload(0x40)\n  dup1\n  0x40\n  add\n  0x40\n  mstore\n  dup1\n  0x05\n  dup2\n  mstore\n  0x20\n  add\n  0x3230303036000000000000000000000000000000000000000000000000000000\n  dup2\n  mstore\n  pop\n  dup2\n  mstore\n  pop\n  0x01\n  swap1\n  0x05\n  tag_3\n  swap3\n  swap2\n  swap1\n  tag_4\n  jump\t// in\ntag_3:\n  pop\n    /* \"BlindBoxNFT.sol\":507:566  string[] private group3 = [\"30001\",\"30002\",\"30003\",\"30004\"] */\n  mload(0x40)\n  dup1\n  0x80\n  add\n  0x40\n  mstore\n  dup1\n  mload(0x40)\n  dup1\n  0x40\n  add\n  0x40\n  mstore\n  dup1\n  0x05\n  dup2\n  mstore\n  0x20\n  add\n  0x3330303031000000000000000000000000000000000000000000000000000000\n  dup2\n  mstore\n  pop\n  dup2\n  mstore\n  0x20\n  add\n  mload(0x40)\n  dup1\n  0x40\n  add\n  0x40\n  mstore\n  dup1\n  0x05\n  dup2\n  mstore\n  0x20\n  add\n  0x3330303032000000000000000000000000000000000000000000000000000000\n  dup2\n  mstore\n  pop\n  dup2\n  mstore\n  0x20\n  add\n  mload(0x40)\n  dup1\n  0x40\n  add\n  0x40\n  mstore\n  dup1\n  0x05\n  dup2\n  mstore\n  0x20\n  add\n  0x3330303033000000000000000000000000000000000000000000000000000000\n  dup2\n  mstore\n  pop\n  dup2\n  mstore\n  0x20\n  add\n  mload(0x40)\n  dup1\n  0x40\n  add\n  0x40\n  mstore\n  dup1\n  0x05\n  dup2\n  mstore\n  0x20\n  add\n  0x3330303034000000000000000000000000000000000000000000000000000000\n  dup2\n  mstore\n  pop\n  dup2\n  mstore\n  pop\n  0x02\n  swap1\n  0x04\n  tag_5\n  swap3\n  swap2\n  swap1\n  tag_6\n  jump\t// in\ntag_5:\n  pop\n    /* \"BlindBoxNFT.sol\":572:623  string[] private group4 = [\"40001\",\"40002\",\"40003\"] */\n  mload(0x40)\n  dup1\n  0x60\n  add\n  0x40\n  mstore\n  dup1\n  mload(0x40)\n  dup1\n  0x40\n  add\n  0x40\n  mstore\n  dup1\n  0x05\n  dup2\n  mstore\n  0x20\n  add\n  0x3430303031000000000000000000000000000000000000000000000000000000\n  dup2\n  mstore\n  pop\n  dup2\n  mstore\n  0x20\n  add\n  mload(0x40)\n  dup1\n  0x40\n  add\n  0x40\n  mstore\n  dup1\n  0x05\n  dup2\n  mstore\n  0x20\n  add\n  0x3430303032000000000000000000000000000000000000000000000000000000\n  dup2\n  mstore\n  pop\n  dup2\n  mstore\n  0x20\n  add\n  mload(0x40)\n  dup1\n  0x40\n  add\n  0x40\n  mstore\n  dup1\n  0x05\n  dup2\n  mstore\n  0x20\n  add\n  0x3430303033000000000000000000000000000000000000000000000000000000\n  dup2\n  mstore\n  pop\n  dup2\n  mstore\n  pop\n  0x03\n  swap1\n  0x03\n  tag_7\n  swap3\n  swap2\n  swap1\n  tag_8\n  jump\t// in\ntag_7:\n  pop\n    /* \"BlindBoxNFT.sol\":677:795  constructor(address anotherContractAddress) {... */\n  callvalue\n  dup1\n  iszero\n  tag_9\n  jumpi\n  0x00\n  dup1\n  revert\ntag_9:\n  pop\n  mload(0x40)\n  sub(codesize, bytecodeSize)\n  dup1\n  bytecodeSize\n  dup4\n  codecopy\n  dup2\n  dup2\n  add\n  0x40\n  mstore\n  dup2\n  add\n  swap1\n  tag_10\n  swap2\n  swap1\n  tag_11\n  jump\t// in\ntag_10:\n    /* \"BlindBoxNFT.sol\":765:787  anotherContractAddress */\n  dup1\n    /* \"BlindBoxNFT.sol\":731:746  anotherContract */\n  0x04\n  0x00\n    /* \"BlindBoxNFT.sol\":731:788  anotherContract = AnotherContract(anotherContractAddress) */\n  0x0100\n  exp\n  dup2\n  sload\n  dup2\n  0xffffffffffffffffffffffffffffffffffffffff\n  mul\n  not\n  and\n  swap1\n  dup4\n  0xffffffffffffffffffffffffffffffffffffffff\n  and\n  mul\n  or\n  swap1\n  sstore\n  pop\n    /* \"BlindBoxNFT.sol\":677:795  constructor(address anotherContractAddress) {... */\n  pop\n    /* \"BlindBoxNFT.sol\":265:1732  contract BlindBox {... */\n  jump(tag_14)\ntag_2:\n  dup3\n  dup1\n  sload\n  dup3\n  dup3\n  sstore\n  swap1\n  0x00\n  mstore\n  keccak256(0x00, 0x20)\n  swap1\n  dup2\n  add\n  swap3\n  dup3\n  iszero\n  tag_15\n  jumpi\n  swap2\n  0x20\n  mul\n  dup3\n  add\ntag_16:\n  dup3\n  dup2\n  gt\n  iszero\n  tag_17\n  jumpi\n  dup3\n  mload\n  dup3\n  swap1\n  dup2\n  tag_18\n  swap2\n  swap1\n  tag_19\n  jump\t// in\ntag_18:\n  pop\n  swap2\n  0x20\n  add\n  swap2\n  swap1\n  0x01\n  add\n  swap1\n  jump(tag_16)\ntag_17:\ntag_15:\n  pop\n  swap1\n  pop\n  tag_20\n  swap2\n  swap1\n  tag_21\n  jump\t// in\ntag_20:\n  pop\n  swap1\n  jump\t// out\ntag_4:\n  dup3\n  dup1\n  sload\n  dup3\n  dup3\n  sstore\n  swap1\n  0x00\n  mstore\n  keccak256(0x00, 0x20)\n  swap1\n  dup2\n  add\n  swap3\n  dup3\n  iszero\n  tag_22\n  jumpi\n  swap2\n  0x20\n  mul\n  dup3\n  add\ntag_23:\n  dup3\n  dup2\n  gt\n  iszero\n  tag_24\n  jumpi\n  dup3\n  mload\n  dup3\n  swap1\n  dup2\n  tag_25\n  swap2\n  swap1\n  tag_19\n  jump\t// in\ntag_25:\n  pop\n  swap2\n  0x20\n  add\n  swap2\n  swap1\n  0x01\n  add\n  swap1\n  jump(tag_23)\ntag_24:\ntag_22:\n  pop\n  swap1\n  pop\n  tag_26\n  swap2\n  swap1\n  tag_21\n  jump\t// in\ntag_26:\n  pop\n  swap1\n  jump\t// out\ntag_6:\n  dup3\n  dup1\n  sload\n  dup3\n  dup3\n  sstore\n  swap1\n  0x00\n  mstore\n  keccak256(0x00, 0x20)\n  swap1\n  dup2\n  add\n  swap3\n  dup3\n  iszero\n  tag_27\n  jumpi\n  swap2\n  0x20\n  mul\n  dup3\n  add\ntag_28:\n  dup3\n  dup2\n  gt\n  iszero\n  tag_29\n  jumpi\n  dup3\n  mload\n  dup3\n  swap1\n  dup2\n  tag_30\n  swap2\n  swap1\n  tag_19\n  jump\t// in\ntag_30:\n  pop\n  swap2\n  0x20\n  add\n  swap2\n  swap1\n  0x01\n  add\n  swap1\n  jump(tag_28)\ntag_29:\ntag_27:\n  pop\n  swap1\n  pop\n  tag_31\n  swap2\n  swap1\n  tag_21\n  jump\t// in\ntag_31:\n  pop\n  swap1\n  jump\t// out\ntag_8:\n  dup3\n  dup1\n  sload\n  dup3\n  dup3\n  sstore\n  swap1\n  0x00\n  mstore\n  keccak256(0x00, 0x20)\n  swap1\n  dup2\n  add\n  swap3\n  dup3\n  iszero\n  tag_32\n  jumpi\n  swap2\n  0x20\n  mul\n  dup3\n  add\ntag_33:\n  dup3\n  dup2\n  gt\n  iszero\n  tag_34\n  jumpi\n  dup3\n  mload\n  dup3\n  swap1\n  dup2\n  tag_35\n  swap2\n  swap1\n  tag_19\n  jump\t// in\ntag_35:\n  pop\n  swap2\n  0x20\n  add\n  swap2\n  swap1\n  0x01\n  add\n  swap1\n  jump(tag_33)\ntag_34:\ntag_32:\n  pop\n  swap1\n  pop\n  tag_36\n  swap2\n  swap1\n  tag_21\n  jump\t// in\ntag_36:\n  pop\n  swap1\n  jump\t// out\ntag_21:\ntag_37:\n  dup1\n  dup3\n  gt\n  iszero\n  tag_38\n  jumpi\n  0x00\n  dup2\n  dup2\n  tag_39\n  swap2\n  swap1\n  tag_40\n  jump\t// in\ntag_39:\n  pop\n  0x01\n  add\n  jump(tag_37)\ntag_38:\n  pop\n  swap1\n  jump\t// out\ntag_40:\n  pop\n  dup1\n  sload\n  tag_41\n  swap1\n  tag_42\n  jump\t// in\ntag_41:\n  0x00\n  dup3\n  sstore\n  dup1\n  0x1f\n  lt\n  tag_44\n  jumpi\n  pop\n  jump(tag_43)\ntag_44:\n  0x1f\n  add\n  0x20\n  swap1\n  div\n  swap1\n  0x00\n  mstore\n  keccak256(0x00, 0x20)\n  swap1\n  dup2\n  add\n  swap1\n  tag_45\n  swap2\n  swap1\n  tag_46\n  jump\t// in\ntag_45:\ntag_43:\n  pop\n  jump\t// out\ntag_46:\ntag_47:\n  dup1\n  dup3\n  gt\n  iszero\n  tag_48\n  jumpi\n  0x00\n  dup2\n  0x00\n  swap1\n  sstore\n  pop\n  0x01\n  add\n  jump(tag_47)\ntag_48:\n  pop\n  swap1\n  jump\t// out\n    /* \"#utility.yul\":88:205   */\ntag_50:\n    /* \"#utility.yul\":197:198   */\n  0x00\n    /* \"#utility.yul\":194:195   */\n  dup1\n    /* \"#utility.yul\":187:199   */\n  revert\n    /* \"#utility.yul\":334:460   */\ntag_52:\n    /* \"#utility.yul\":371:378   */\n  0x00\n    /* \"#utility.yul\":411:453   */\n  0xffffffffffffffffffffffffffffffffffffffff\n    /* \"#utility.yul\":404:409   */\n  dup3\n    /* \"#utility.yul\":400:454   */\n  and\n    /* \"#utility.yul\":389:454   */\n  swap1\n  pop\n    /* \"#utility.yul\":334:460   */\n  swap2\n  swap1\n  pop\n  jump\t// out\n    /* \"#utility.yul\":466:562   */\ntag_53:\n    /* \"#utility.yul\":503:510   */\n  0x00\n    /* \"#utility.yul\":532:556   */\n  tag_81\n    /* \"#utility.yul\":550:555   */\n  dup3\n    /* \"#utility.yul\":532:556   */\n  tag_52\n  jump\t// in\ntag_81:\n    /* \"#utility.yul\":521:556   */\n  swap1\n  pop\n    /* \"#utility.yul\":466:562   */\n  swap2\n  swap1\n  pop\n  jump\t// out\n    /* \"#utility.yul\":568:690   */\ntag_54:\n    /* \"#utility.yul\":641:665   */\n  tag_83\n    /* \"#utility.yul\":659:664   */\n  dup2\n    /* \"#utility.yul\":641:665   */\n  tag_53\n  jump\t// in\ntag_83:\n    /* \"#utility.yul\":634:639   */\n  dup2\n    /* \"#utility.yul\":631:666   */\n  eq\n    /* \"#utility.yul\":621:684   */\n  tag_84\n  jumpi\n    /* \"#utility.yul\":680:681   */\n  0x00\n    /* \"#utility.yul\":677:678   */\n  dup1\n    /* \"#utility.yul\":670:682   */\n  revert\n    /* \"#utility.yul\":621:684   */\ntag_84:\n    /* \"#utility.yul\":568:690   */\n  pop\n  jump\t// out\n    /* \"#utility.yul\":696:839   */\ntag_55:\n    /* \"#utility.yul\":753:758   */\n  0x00\n    /* \"#utility.yul\":784:790   */\n  dup2\n    /* \"#utility.yul\":778:791   */\n  mload\n    /* \"#utility.yul\":769:791   */\n  swap1\n  pop\n    /* \"#utility.yul\":800:833   */\n  tag_86\n    /* \"#utility.yul\":827:832   */\n  dup2\n    /* \"#utility.yul\":800:833   */\n  tag_54\n  jump\t// in\ntag_86:\n    /* \"#utility.yul\":696:839   */\n  swap3\n  swap2\n  pop\n  pop\n  jump\t// out\n    /* \"#utility.yul\":845:1196   */\ntag_11:\n    /* \"#utility.yul\":915:921   */\n  0x00\n    /* \"#utility.yul\":964:966   */\n  0x20\n    /* \"#utility.yul\":952:961   */\n  dup3\n    /* \"#utility.yul\":943:950   */\n  dup5\n    /* \"#utility.yul\":939:962   */\n  sub\n    /* \"#utility.yul\":935:967   */\n  slt\n    /* \"#utility.yul\":932:1051   */\n  iszero\n  tag_88\n  jumpi\n    /* \"#utility.yul\":970:1049   */\n  tag_89\n  tag_50\n  jump\t// in\ntag_89:\n    /* \"#utility.yul\":932:1051   */\ntag_88:\n    /* \"#utility.yul\":1090:1091   */\n  0x00\n    /* \"#utility.yul\":1115:1179   */\n  tag_90\n    /* \"#utility.yul\":1171:1178   */\n  dup5\n    /* \"#utility.yul\":1162:1168   */\n  dup3\n    /* \"#utility.yul\":1151:1160   */\n  dup6\n    /* \"#utility.yul\":1147:1169   */\n  add\n    /* \"#utility.yul\":1115:1179   */\n  tag_55\n  jump\t// in\ntag_90:\n    /* \"#utility.yul\":1105:1179   */\n  swap2\n  pop\n    /* \"#utility.yul\":1061:1189   */\n  pop\n    /* \"#utility.yul\":845:1196   */\n  swap3\n  swap2\n  pop\n  pop\n  jump\t// out\n    /* \"#utility.yul\":1202:1301   */\ntag_56:\n    /* \"#utility.yul\":1254:1260   */\n  0x00\n    /* \"#utility.yul\":1288:1293   */\n  dup2\n    /* \"#utility.yul\":1282:1294   */\n  mload\n    /* \"#utility.yul\":1272:1294   */\n  swap1\n  pop\n    /* \"#utility.yul\":1202:1301   */\n  swap2\n  swap1\n  pop\n  jump\t// out\n    /* \"#utility.yul\":1307:1487   */\ntag_57:\n    /* \"#utility.yul\":1355:1432   */\n  0x4e487b7100000000000000000000000000000000000000000000000000000000\n    /* \"#utility.yul\":1352:1353   */\n  0x00\n    /* \"#utility.yul\":1345:1433   */\n  mstore\n    /* \"#utility.yul\":1452:1456   */\n  0x41\n    /* \"#utility.yul\":1449:1450   */\n  0x04\n    /* \"#utility.yul\":1442:1457   */\n  mstore\n    /* \"#utility.yul\":1476:1480   */\n  0x24\n    /* \"#utility.yul\":1473:1474   */\n  0x00\n    /* \"#utility.yul\":1466:1481   */\n  revert\n    /* \"#utility.yul\":1493:1673   */\ntag_58:\n    /* \"#utility.yul\":1541:1618   */\n  0x4e487b7100000000000000000000000000000000000000000000000000000000\n    /* \"#utility.yul\":1538:1539   */\n  0x00\n    /* \"#utility.yul\":1531:1619   */\n  mstore\n    /* \"#utility.yul\":1638:1642   */\n  0x22\n    /* \"#utility.yul\":1635:1636   */\n  0x04\n    /* \"#utility.yul\":1628:1643   */\n  mstore\n    /* \"#utility.yul\":1662:1666   */\n  0x24\n    /* \"#utility.yul\":1659:1660   */\n  0x00\n    /* \"#utility.yul\":1652:1667   */\n  revert\n    /* \"#utility.yul\":1679:1999   */\ntag_42:\n    /* \"#utility.yul\":1723:1729   */\n  0x00\n    /* \"#utility.yul\":1760:1761   */\n  0x02\n    /* \"#utility.yul\":1754:1758   */\n  dup3\n    /* \"#utility.yul\":1750:1762   */\n  div\n    /* \"#utility.yul\":1740:1762   */\n  swap1\n  pop\n    /* \"#utility.yul\":1807:1808   */\n  0x01\n    /* \"#utility.yul\":1801:1805   */\n  dup3\n    /* \"#utility.yul\":1797:1809   */\n  and\n    /* \"#utility.yul\":1828:1846   */\n  dup1\n    /* \"#utility.yul\":1818:1899   */\n  tag_95\n  jumpi\n    /* \"#utility.yul\":1884:1888   */\n  0x7f\n    /* \"#utility.yul\":1876:1882   */\n  dup3\n    /* \"#utility.yul\":1872:1889   */\n  and\n    /* \"#utility.yul\":1862:1889   */\n  swap2\n  pop\n    /* \"#utility.yul\":1818:1899   */\ntag_95:\n    /* \"#utility.yul\":1946:1948   */\n  0x20\n    /* \"#utility.yul\":1938:1944   */\n  dup3\n    /* \"#utility.yul\":1935:1949   */\n  lt\n    /* \"#utility.yul\":1915:1933   */\n  dup2\n    /* \"#utility.yul\":1912:1950   */\n  sub\n    /* \"#utility.yul\":1909:1993   */\n  tag_96\n  jumpi\n    /* \"#utility.yul\":1965:1983   */\n  tag_97\n  tag_58\n  jump\t// in\ntag_97:\n    /* \"#utility.yul\":1909:1993   */\ntag_96:\n    /* \"#utility.yul\":1730:1999   */\n  pop\n    /* \"#utility.yul\":1679:1999   */\n  swap2\n  swap1\n  pop\n  jump\t// out\n    /* \"#utility.yul\":2005:2146   */\ntag_59:\n    /* \"#utility.yul\":2054:2058   */\n  0x00\n    /* \"#utility.yul\":2077:2080   */\n  dup2\n    /* \"#utility.yul\":2069:2080   */\n  swap1\n  pop\n    /* \"#utility.yul\":2100:2103   */\n  dup2\n    /* \"#utility.yul\":2097:2098   */\n  0x00\n    /* \"#utility.yul\":2090:2104   */\n  mstore\n    /* \"#utility.yul\":2134:2138   */\n  0x20\n    /* \"#utility.yul\":2131:2132   */\n  0x00\n    /* \"#utility.yul\":2121:2139   */\n  keccak256\n    /* \"#utility.yul\":2113:2139   */\n  swap1\n  pop\n    /* \"#utility.yul\":2005:2146   */\n  swap2\n  swap1\n  pop\n  jump\t// out\n    /* \"#utility.yul\":2152:2245   */\ntag_60:\n    /* \"#utility.yul\":2189:2195   */\n  0x00\n    /* \"#utility.yul\":2236:2238   */\n  0x20\n    /* \"#utility.yul\":2231:2233   */\n  0x1f\n    /* \"#utility.yul\":2224:2229   */\n  dup4\n    /* \"#utility.yul\":2220:2234   */\n  add\n    /* \"#utility.yul\":2216:2239   */\n  div\n    /* \"#utility.yul\":2206:2239   */\n  swap1\n  pop\n    /* \"#utility.yul\":2152:2245   */\n  swap2\n  swap1\n  pop\n  jump\t// out\n    /* \"#utility.yul\":2251:2358   */\ntag_61:\n    /* \"#utility.yul\":2295:2303   */\n  0x00\n    /* \"#utility.yul\":2345:2350   */\n  dup3\n    /* \"#utility.yul\":2339:2343   */\n  dup3\n    /* \"#utility.yul\":2335:2351   */\n  shl\n    /* \"#utility.yul\":2314:2351   */\n  swap1\n  pop\n    /* \"#utility.yul\":2251:2358   */\n  swap3\n  swap2\n  pop\n  pop\n  jump\t// out\n    /* \"#utility.yul\":2364:2757   */\ntag_62:\n    /* \"#utility.yul\":2433:2439   */\n  0x00\n    /* \"#utility.yul\":2483:2484   */\n  0x08\n    /* \"#utility.yul\":2471:2481   */\n  dup4\n    /* \"#utility.yul\":2467:2485   */\n  mul\n    /* \"#utility.yul\":2506:2603   */\n  tag_102\n    /* \"#utility.yul\":2536:2602   */\n  0xffffffffffffffffffffffffffffffffffffffffffffffffffffffffffffffff\n    /* \"#utility.yul\":2525:2534   */\n  dup3\n    /* \"#utility.yul\":2506:2603   */\n  tag_61\n  jump\t// in\ntag_102:\n    /* \"#utility.yul\":2624:2663   */\n  tag_103\n    /* \"#utility.yul\":2654:2662   */\n  dup7\n    /* \"#utility.yul\":2643:2652   */\n  dup4\n    /* \"#utility.yul\":2624:2663   */\n  tag_61\n  jump\t// in\ntag_103:\n    /* \"#utility.yul\":2612:2663   */\n  swap6\n  pop\n    /* \"#utility.yul\":2696:2700   */\n  dup1\n    /* \"#utility.yul\":2692:2701   */\n  not\n    /* \"#utility.yul\":2685:2690   */\n  dup5\n    /* \"#utility.yul\":2681:2702   */\n  and\n    /* \"#utility.yul\":2672:2702   */\n  swap4\n  pop\n    /* \"#utility.yul\":2745:2749   */\n  dup1\n    /* \"#utility.yul\":2735:2743   */\n  dup7\n    /* \"#utility.yul\":2731:2750   */\n  and\n    /* \"#utility.yul\":2724:2729   */\n  dup5\n    /* \"#utility.yul\":2721:2751   */\n  or\n    /* \"#utility.yul\":2711:2751   */\n  swap3\n  pop\n    /* \"#utility.yul\":2440:2757   */\n  pop\n  pop\n    /* \"#utility.yul\":2364:2757   */\n  swap4\n  swap3\n  pop\n  pop\n  pop\n  jump\t// out\n    /* \"#utility.yul\":2763:2840   */\ntag_63:\n    /* \"#utility.yul\":2800:2807   */\n  0x00\n    /* \"#utility.yul\":2829:2834   */\n  dup2\n    /* \"#utility.yul\":2818:2834   */\n  swap1\n  pop\n    /* \"#utility.yul\":2763:2840   */\n  swap2\n  swap1\n  pop\n  jump\t// out\n    /* \"#utility.yul\":2846:2906   */\ntag_64:\n    /* \"#utility.yul\":2874:2877   */\n  0x00\n    /* \"#utility.yul\":2895:2900   */\n  dup2\n    /* \"#utility.yul\":2888:2900   */\n  swap1\n  pop\n    /* \"#utility.yul\":2846:2906   */\n  swap2\n  swap1\n  pop\n  jump\t// out\n    /* \"#utility.yul\":2912:3054   */\ntag_65:\n    /* \"#utility.yul\":2962:2971   */\n  0x00\n    /* \"#utility.yul\":2995:3048   */\n  tag_107\n    /* \"#utility.yul\":3013:3047   */\n  tag_108\n    /* \"#utility.yul\":3022:3046   */\n  tag_109\n    /* \"#utility.yul\":3040:3045   */\n  dup5\n    /* \"#utility.yul\":3022:3046   */\n  tag_63\n  jump\t// in\ntag_109:\n    /* \"#utility.yul\":3013:3047   */\n  tag_64\n  jump\t// in\ntag_108:\n    /* \"#utility.yul\":2995:3048   */\n  tag_63\n  jump\t// in\ntag_107:\n    /* \"#utility.yul\":2982:3048   */\n  swap1\n  pop\n    /* \"#utility.yul\":2912:3054   */\n  swap2\n  swap1\n  pop\n  jump\t// out\n    /* \"#utility.yul\":3060:3135   */\ntag_66:\n    /* \"#utility.yul\":3103:3106   */\n  0x00\n    /* \"#utility.yul\":3124:3129   */\n  dup2\n    /* \"#utility.yul\":3117:3129   */\n  swap1\n  pop\n    /* \"#utility.yul\":3060:3135   */\n  swap2\n  swap1\n  pop\n  jump\t// out\n    /* \"#utility.yul\":3141:3410   */\ntag_67:\n    /* \"#utility.yul\":3251:3290   */\n  tag_112\n    /* \"#utility.yul\":3282:3289   */\n  dup4\n    /* \"#utility.yul\":3251:3290   */\n  tag_65\n  jump\t// in\ntag_112:\n    /* \"#utility.yul\":3312:3403   */\n  tag_113\n    /* \"#utility.yul\":3361:3402   */\n  tag_114\n    /* \"#utility.yul\":3385:3401   */\n  dup3\n    /* \"#utility.yul\":3361:3402   */\n  tag_66\n  jump\t// in\ntag_114:\n    /* \"#utility.yul\":3353:3359   */\n  dup5\n    /* \"#utility.yul\":3346:3350   */\n  dup5\n    /* \"#utility.yul\":3340:3351   */\n  sload\n    /* \"#utility.yul\":3312:3403   */\n  tag_62\n  jump\t// in\ntag_113:\n    /* \"#utility.yul\":3306:3310   */\n  dup3\n    /* \"#utility.yul\":3299:3404   */\n  sstore\n    /* \"#utility.yul\":3217:3410   */\n  pop\n    /* \"#utility.yul\":3141:3410   */\n  pop\n  pop\n  pop\n  jump\t// out\n    /* \"#utility.yul\":3416:3489   */\ntag_68:\n    /* \"#utility.yul\":3461:3464   */\n  0x00\n    /* \"#utility.yul\":3416:3489   */\n  swap1\n  jump\t// out\n    /* \"#utility.yul\":3495:3684   */\ntag_69:\n    /* \"#utility.yul\":3572:3604   */\n  tag_117\n  tag_68\n  jump\t// in\ntag_117:\n    /* \"#utility.yul\":3613:3678   */\n  tag_118\n    /* \"#utility.yul\":3671:3677   */\n  dup2\n    /* \"#utility.yul\":3663:3669   */\n  dup5\n    /* \"#utility.yul\":3657:3661   */\n  dup5\n    /* \"#utility.yul\":3613:3678   */\n  tag_67\n  jump\t// in\ntag_118:\n    /* \"#utility.yul\":3548:3684   */\n  pop\n    /* \"#utility.yul\":3495:3684   */\n  pop\n  pop\n  jump\t// out\n    /* \"#utility.yul\":3690:3876   */\ntag_70:\n    /* \"#utility.yul\":3750:3870   */\ntag_120:\n    /* \"#utility.yul\":3767:3770   */\n  dup2\n    /* \"#utility.yul\":3760:3765   */\n  dup2\n    /* \"#utility.yul\":3757:3771   */\n  lt\n    /* \"#utility.yul\":3750:3870   */\n  iszero\n  tag_122\n  jumpi\n    /* \"#utility.yul\":3821:3860   */\n  tag_123\n    /* \"#utility.yul\":3858:3859   */\n  0x00\n    /* \"#utility.yul\":3851:3856   */\n  dup3\n    /* \"#utility.yul\":3821:3860   */\n  tag_69\n  jump\t// in\ntag_123:\n    /* \"#utility.yul\":3794:3795   */\n  0x01\n    /* \"#utility.yul\":3787:3792   */\n  dup2\n    /* \"#utility.yul\":3783:3796   */\n  add\n    /* \"#utility.yul\":3774:3796   */\n  swap1\n  pop\n    /* \"#utility.yul\":3750:3870   */\n  jump(tag_120)\ntag_122:\n    /* \"#utility.yul\":3690:3876   */\n  pop\n  pop\n  jump\t// out\n    /* \"#utility.yul\":3882:4425   */\ntag_71:\n    /* \"#utility.yul\":3983:3985   */\n  0x1f\n    /* \"#utility.yul\":3978:3981   */\n  dup3\n    /* \"#utility.yul\":3975:3986   */\n  gt\n    /* \"#utility.yul\":3972:4418   */\n  iszero\n  tag_125\n  jumpi\n    /* \"#utility.yul\":4017:4055   */\n  tag_126\n    /* \"#utility.yul\":4049:4054   */\n  dup2\n    /* \"#utility.yul\":4017:4055   */\n  tag_59\n  jump\t// in\ntag_126:\n    /* \"#utility.yul\":4101:4130   */\n  tag_127\n    /* \"#utility.yul\":4119:4129   */\n  dup5\n    /* \"#utility.yul\":4101:4130   */\n  tag_60\n  jump\t// in\ntag_127:\n    /* \"#utility.yul\":4091:4099   */\n  dup2\n    /* \"#utility.yul\":4087:4131   */\n  add\n    /* \"#utility.yul\":4284:4286   */\n  0x20\n    /* \"#utility.yul\":4272:4282   */\n  dup6\n    /* \"#utility.yul\":4269:4287   */\n  lt\n    /* \"#utility.yul\":4266:4315   */\n  iszero\n  tag_128\n  jumpi\n    /* \"#utility.yul\":4305:4313   */\n  dup2\n    /* \"#utility.yul\":4290:4313   */\n  swap1\n  pop\n    /* \"#utility.yul\":4266:4315   */\ntag_128:\n    /* \"#utility.yul\":4328:4408   */\n  tag_129\n    /* \"#utility.yul\":4384:4406   */\n  tag_130\n    /* \"#utility.yul\":4402:4405   */\n  dup6\n    /* \"#utility.yul\":4384:4406   */\n  tag_60\n  jump\t// in\ntag_130:\n    /* \"#utility.yul\":4374:4382   */\n  dup4\n    /* \"#utility.yul\":4370:4407   */\n  add\n    /* \"#utility.yul\":4357:4368   */\n  dup3\n    /* \"#utility.yul\":4328:4408   */\n  tag_70\n  jump\t// in\ntag_129:\n    /* \"#utility.yul\":3987:4418   */\n  pop\n  pop\n    /* \"#utility.yul\":3972:4418   */\ntag_125:\n    /* \"#utility.yul\":3882:4425   */\n  pop\n  pop\n  pop\n  jump\t// out\n    /* \"#utility.yul\":4431:4548   */\ntag_72:\n    /* \"#utility.yul\":4485:4493   */\n  0x00\n    /* \"#utility.yul\":4535:4540   */\n  dup3\n    /* \"#utility.yul\":4529:4533   */\n  dup3\n    /* \"#utility.yul\":4525:4541   */\n  shr\n    /* \"#utility.yul\":4504:4541   */\n  swap1\n  pop\n    /* \"#utility.yul\":4431:4548   */\n  swap3\n  swap2\n  pop\n  pop\n  jump\t// out\n    /* \"#utility.yul\":4554:4723   */\ntag_73:\n    /* \"#utility.yul\":4598:4604   */\n  0x00\n    /* \"#utility.yul\":4631:4682   */\n  tag_133\n    /* \"#utility.yul\":4679:4680   */\n  0x00\n    /* \"#utility.yul\":4675:4681   */\n  not\n    /* \"#utility.yul\":4667:4672   */\n  dup5\n    /* \"#utility.yul\":4664:4665   */\n  0x08\n    /* \"#utility.yul\":4660:4673   */\n  mul\n    /* \"#utility.yul\":4631:4682   */\n  tag_72\n  jump\t// in\ntag_133:\n    /* \"#utility.yul\":4627:4683   */\n  not\n    /* \"#utility.yul\":4712:4716   */\n  dup1\n    /* \"#utility.yul\":4706:4710   */\n  dup4\n    /* \"#utility.yul\":4702:4717   */\n  and\n    /* \"#utility.yul\":4692:4717   */\n  swap2\n  pop\n    /* \"#utility.yul\":4605:4723   */\n  pop\n    /* \"#utility.yul\":4554:4723   */\n  swap3\n  swap2\n  pop\n  pop\n  jump\t// out\n    /* \"#utility.yul\":4728:5023   */\ntag_74:\n    /* \"#utility.yul\":4804:4808   */\n  0x00\n    /* \"#utility.yul\":4950:4979   */\n  tag_135\n    /* \"#utility.yul\":4975:4978   */\n  dup4\n    /* \"#utility.yul\":4969:4973   */\n  dup4\n    /* \"#utility.yul\":4950:4979   */\n  tag_73\n  jump\t// in\ntag_135:\n    /* \"#utility.yul\":4942:4979   */\n  swap2\n  pop\n    /* \"#utility.yul\":5012:5015   */\n  dup3\n    /* \"#utility.yul\":5009:5010   */\n  0x02\n    /* \"#utility.yul\":5005:5016   */\n  mul\n    /* \"#utility.yul\":4999:5003   */\n  dup3\n    /* \"#utility.yul\":4996:5017   */\n  or\n    /* \"#utility.yul\":4988:5017   */\n  swap1\n  pop\n    /* \"#utility.yul\":4728:5023   */\n  swap3\n  swap2\n  pop\n  pop\n  jump\t// out\n    /* \"#utility.yul\":5028:6423   */\ntag_19:\n    /* \"#utility.yul\":5145:5182   */\n  tag_137\n    /* \"#utility.yul\":5178:5181   */\n  dup3\n    /* \"#utility.yul\":5145:5182   */\n  tag_56\n  jump\t// in\ntag_137:\n    /* \"#utility.yul\":5247:5265   */\n  0xffffffffffffffff\n    /* \"#utility.yul\":5239:5245   */\n  dup2\n    /* \"#utility.yul\":5236:5266   */\n  gt\n    /* \"#utility.yul\":5233:5289   */\n  iszero\n  tag_138\n  jumpi\n    /* \"#utility.yul\":5269:5287   */\n  tag_139\n  tag_57\n  jump\t// in\ntag_139:\n    /* \"#utility.yul\":5233:5289   */\ntag_138:\n    /* \"#utility.yul\":5313:5351   */\n  tag_140\n    /* \"#utility.yul\":5345:5349   */\n  dup3\n    /* \"#utility.yul\":5339:5350   */\n  sload\n    /* \"#utility.yul\":5313:5351   */\n  tag_42\n  jump\t// in\ntag_140:\n    /* \"#utility.yul\":5398:5465   */\n  tag_141\n    /* \"#utility.yul\":5458:5464   */\n  dup3\n    /* \"#utility.yul\":5450:5456   */\n  dup3\n    /* \"#utility.yul\":5444:5448   */\n  dup6\n    /* \"#utility.yul\":5398:5465   */\n  tag_71\n  jump\t// in\ntag_141:\n    /* \"#utility.yul\":5492:5493   */\n  0x00\n    /* \"#utility.yul\":5516:5520   */\n  0x20\n    /* \"#utility.yul\":5503:5520   */\n  swap1\n  pop\n    /* \"#utility.yul\":5548:5550   */\n  0x1f\n    /* \"#utility.yul\":5540:5546   */\n  dup4\n    /* \"#utility.yul\":5537:5551   */\n  gt\n    /* \"#utility.yul\":5565:5566   */\n  0x01\n    /* \"#utility.yul\":5560:6178   */\n  dup2\n  eq\n  tag_143\n  jumpi\n    /* \"#utility.yul\":6222:6223   */\n  0x00\n    /* \"#utility.yul\":6239:6245   */\n  dup5\n    /* \"#utility.yul\":6236:6313   */\n  iszero\n  tag_144\n  jumpi\n    /* \"#utility.yul\":6288:6297   */\n  dup3\n    /* \"#utility.yul\":6283:6286   */\n  dup8\n    /* \"#utility.yul\":6279:6298   */\n  add\n    /* \"#utility.yul\":6273:6299   */\n  mload\n    /* \"#utility.yul\":6264:6299   */\n  swap1\n  pop\n    /* \"#utility.yul\":6236:6313   */\ntag_144:\n    /* \"#utility.yul\":6339:6406   */\n  tag_145\n    /* \"#utility.yul\":6399:6405   */\n  dup6\n    /* \"#utility.yul\":6392:6397   */\n  dup3\n    /* \"#utility.yul\":6339:6406   */\n  tag_74\n  jump\t// in\ntag_145:\n    /* \"#utility.yul\":6333:6337   */\n  dup7\n    /* \"#utility.yul\":6326:6407   */\n  sstore\n    /* \"#utility.yul\":6195:6417   */\n  pop\n    /* \"#utility.yul\":5530:6417   */\n  jump(tag_142)\n    /* \"#utility.yul\":5560:6178   */\ntag_143:\n    /* \"#utility.yul\":5612:5616   */\n  0x1f\n    /* \"#utility.yul\":5608:5617   */\n  not\n    /* \"#utility.yul\":5600:5606   */\n  dup5\n    /* \"#utility.yul\":5596:5618   */\n  and\n    /* \"#utility.yul\":5646:5683   */\n  tag_146\n    /* \"#utility.yul\":5678:5682   */\n  dup7\n    /* \"#utility.yul\":5646:5683   */\n  tag_59\n  jump\t// in\ntag_146:\n    /* \"#utility.yul\":5705:5706   */\n  0x00\n    /* \"#utility.yul\":5719:5927   */\ntag_147:\n    /* \"#utility.yul\":5733:5740   */\n  dup3\n    /* \"#utility.yul\":5730:5731   */\n  dup2\n    /* \"#utility.yul\":5727:5741   */\n  lt\n    /* \"#utility.yul\":5719:5927   */\n  iszero\n  tag_149\n  jumpi\n    /* \"#utility.yul\":5812:5821   */\n  dup5\n    /* \"#utility.yul\":5807:5810   */\n  dup10\n    /* \"#utility.yul\":5803:5822   */\n  add\n    /* \"#utility.yul\":5797:5823   */\n  mload\n    /* \"#utility.yul\":5789:5795   */\n  dup3\n    /* \"#utility.yul\":5782:5824   */\n  sstore\n    /* \"#utility.yul\":5863:5864   */\n  0x01\n    /* \"#utility.yul\":5855:5861   */\n  dup3\n    /* \"#utility.yul\":5851:5865   */\n  add\n    /* \"#utility.yul\":5841:5865   */\n  swap2\n  pop\n    /* \"#utility.yul\":5910:5912   */\n  0x20\n    /* \"#utility.yul\":5899:5908   */\n  dup6\n    /* \"#utility.yul\":5895:5913   */\n  add\n    /* \"#utility.yul\":5882:5913   */\n  swap5\n  pop\n    /* \"#utility.yul\":5756:5760   */\n  0x20\n    /* \"#utility.yul\":5753:5754   */\n  dup2\n    /* \"#utility.yul\":5749:5761   */\n  add\n    /* \"#utility.yul\":5744:5761   */\n  swap1\n  pop\n    /* \"#utility.yul\":5719:5927   */\n  jump(tag_147)\ntag_149:\n    /* \"#utility.yul\":5955:5961   */\n  dup7\n    /* \"#utility.yul\":5946:5953   */\n  dup4\n    /* \"#utility.yul\":5943:5962   */\n  lt\n    /* \"#utility.yul\":5940:6119   */\n  iszero\n  tag_150\n  jumpi\n    /* \"#utility.yul\":6013:6022   */\n  dup5\n    /* \"#utility.yul\":6008:6011   */\n  dup10\n    /* \"#utility.yul\":6004:6023   */\n  add\n    /* \"#utility.yul\":5998:6024   */\n  mload\n    /* \"#utility.yul\":6056:6104   */\n  tag_151\n    /* \"#utility.yul\":6098:6102   */\n  0x1f\n    /* \"#utility.yul\":6090:6096   */\n  dup10\n    /* \"#utility.yul\":6086:6103   */\n  and\n    /* \"#utility.yul\":6075:6084   */\n  dup3\n    /* \"#utility.yul\":6056:6104   */\n  tag_73\n  jump\t// in\ntag_151:\n    /* \"#utility.yul\":6048:6054   */\n  dup4\n    /* \"#utility.yul\":6041:6105   */\n  sstore\n    /* \"#utility.yul\":5963:6119   */\n  pop\n    /* \"#utility.yul\":5940:6119   */\ntag_150:\n    /* \"#utility.yul\":6165:6166   */\n  0x01\n    /* \"#utility.yul\":6161:6162   */\n  0x02\n    /* \"#utility.yul\":6153:6159   */\n  dup9\n    /* \"#utility.yul\":6149:6163   */\n  mul\n    /* \"#utility.yul\":6145:6167   */\n  add\n    /* \"#utility.yul\":6139:6143   */\n  dup9\n    /* \"#utility.yul\":6132:6168   */\n  sstore\n    /* \"#utility.yul\":5567:6178   */\n  pop\n  pop\n  pop\n    /* \"#utility.yul\":5530:6417   */\ntag_142:\n  pop\n    /* \"#utility.yul\":5120:6423   */\n  pop\n  pop\n  pop\n    /* \"#utility.yul\":5028:6423   */\n  pop\n  pop\n  jump\t// out\n    /* \"BlindBoxNFT.sol\":265:1732  contract BlindBox {... */\ntag_14:\n  dataSize(sub_0)\n  dup1\n  dataOffset(sub_0)\n  0x00\n  codecopy\n  0x00\n  return\nstop\n\nsub_0: assembly {\n        /* \"BlindBoxNFT.sol\":265:1732  contract BlindBox {... */\n      mstore(0x40, 0x80)\n      callvalue\n      dup1\n      iszero\n      tag_1\n      jumpi\n      0x00\n      dup1\n      revert\n    tag_1:\n      pop\n      jumpi(tag_2, lt(calldatasize, 0x04))\n      shr(0xe0, calldataload(0x00))\n      dup1\n      0x2f5be23e\n      eq\n      tag_3\n      jumpi\n    tag_2:\n      0x00\n      dup1\n      revert\n        /* \"BlindBoxNFT.sol\":870:1546  function drawCard() public {... */\n    tag_3:\n      tag_4\n      tag_5\n      jump\t// in\n    tag_4:\n      stop\n    tag_5:\n        /* \"BlindBoxNFT.sol\":907:916  uint256 r */\n      0x00\n        /* \"BlindBoxNFT.sol\":930:934  1000 */\n      0x03e8\n        /* \"BlindBoxNFT.sol\":919:927  random() */\n      tag_7\n        /* \"BlindBoxNFT.sol\":919:925  random */\n      tag_8\n        /* \"BlindBoxNFT.sol\":919:927  random() */\n      jump\t// in\n    tag_7:\n        /* \"BlindBoxNFT.sol\":919:934  random() % 1000 */\n      tag_9\n      swap2\n      swap1\n      tag_10\n      jump\t// in\n    tag_9:\n        /* \"BlindBoxNFT.sol\":907:934  uint256 r = random() % 1000 */\n      swap1\n      pop\n        /* \"BlindBoxNFT.sol\":944:958  uint256 cardId */\n      0x00\n        /* \"BlindBoxNFT.sol\":977:980  800 */\n      0x0320\n        /* \"BlindBoxNFT.sol\":973:974  r */\n      dup3\n        /* \"BlindBoxNFT.sol\":973:980  r < 800 */\n      lt\n        /* \"BlindBoxNFT.sol\":969:1493  if (r < 800) {... */\n      iszero\n      tag_11\n      jumpi\n        /* \"BlindBoxNFT.sol\":1005:1020  anotherContract */\n      0x04\n      0x00\n      swap1\n      sload\n      swap1\n      0x0100\n      exp\n      swap1\n      div\n      0xffffffffffffffffffffffffffffffffffffffff\n      and\n        /* \"BlindBoxNFT.sol\":1005:1036  anotherContract.mintAndTransfer */\n      0xffffffffffffffffffffffffffffffffffffffff\n      and\n      0x477bf177\n        /* \"BlindBoxNFT.sol\":1037:1047  msg.sender */\n      caller\n        /* \"BlindBoxNFT.sol\":1049:1055  group1 */\n      0x00\n        /* \"BlindBoxNFT.sol\":1066:1072  group1 */\n      dup1\n        /* \"BlindBoxNFT.sol\":1066:1079  group1.length */\n      dup1\n      sload\n      swap1\n      pop\n        /* \"BlindBoxNFT.sol\":1056:1064  random() */\n      tag_12\n        /* \"BlindBoxNFT.sol\":1056:1062  random */\n      tag_8\n        /* \"BlindBoxNFT.sol\":1056:1064  random() */\n      jump\t// in\n    tag_12:\n        /* \"BlindBoxNFT.sol\":1056:1080  random()%(group1.length) */\n      tag_13\n      swap2\n      swap1\n      tag_10\n      jump\t// in\n    tag_13:\n        /* \"BlindBoxNFT.sol\":1049:1081  group1[random()%(group1.length)] */\n      dup2\n      sload\n      dup2\n      lt\n      tag_14\n      jumpi\n      tag_15\n      tag_16\n      jump\t// in\n    tag_15:\n    tag_14:\n      swap1\n      0x00\n      mstore\n      keccak256(0x00, 0x20)\n      add\n        /* \"BlindBoxNFT.sol\":1005:1087  anotherContract.mintAndTransfer(msg.sender, group1[random()%(group1.length)],\"50\") */\n      mload(0x40)\n      dup4\n      0xffffffff\n      and\n      0xe0\n      shl\n      dup2\n      mstore\n      0x04\n      add\n      tag_18\n      swap3\n      swap2\n      swap1\n      tag_19\n      jump\t// in\n    tag_18:\n      0x20\n      mload(0x40)\n      dup1\n      dup4\n      sub\n      dup2\n      0x00\n      dup8\n      gas\n      call\n      iszero\n      dup1\n      iszero\n      tag_21\n      jumpi\n      returndatasize\n      0x00\n      dup1\n      returndatacopy\n      revert(0x00, returndatasize)\n    tag_21:\n      pop\n      pop\n      pop\n      pop\n      mload(0x40)\n      returndatasize\n      not(0x1f)\n      0x1f\n      dup3\n      add\n      and\n      dup3\n      add\n      dup1\n      0x40\n      mstore\n      pop\n      dup2\n      add\n      swap1\n      tag_22\n      swap2\n      swap1\n      tag_23\n      jump\t// in\n    tag_22:\n        /* \"BlindBoxNFT.sol\":996:1087  cardId = anotherContract.mintAndTransfer(msg.sender, group1[random()%(group1.length)],\"50\") */\n      swap1\n      pop\n        /* \"BlindBoxNFT.sol\":969:1493  if (r < 800) {... */\n      jump(tag_24)\n    tag_11:\n        /* \"BlindBoxNFT.sol\":1112:1115  960 */\n      0x03c0\n        /* \"BlindBoxNFT.sol\":1108:1109  r */\n      dup3\n        /* \"BlindBoxNFT.sol\":1108:1115  r < 960 */\n      lt\n        /* \"BlindBoxNFT.sol\":1104:1493  if (r < 960) {... */\n      iszero\n      tag_25\n      jumpi\n        /* \"BlindBoxNFT.sol\":1140:1155  anotherContract */\n      0x04\n      0x00\n      swap1\n      sload\n      swap1\n      0x0100\n      exp\n      swap1\n      div\n      0xffffffffffffffffffffffffffffffffffffffff\n      and\n        /* \"BlindBoxNFT.sol\":1140:1171  anotherContract.mintAndTransfer */\n      0xffffffffffffffffffffffffffffffffffffffff\n      and\n      0x477bf177\n        /* \"BlindBoxNFT.sol\":1172:1182  msg.sender */\n      caller\n        /* \"BlindBoxNFT.sol\":1184:1190  group2 */\n      0x01\n        /* \"BlindBoxNFT.sol\":1201:1207  group2 */\n      dup1\n        /* \"BlindBoxNFT.sol\":1201:1214  group2.length */\n      dup1\n      sload\n      swap1\n      pop\n        /* \"BlindBoxNFT.sol\":1191:1199  random() */\n      tag_26\n        /* \"BlindBoxNFT.sol\":1191:1197  random */\n      tag_8\n        /* \"BlindBoxNFT.sol\":1191:1199  random() */\n      jump\t// in\n    tag_26:\n        /* \"BlindBoxNFT.sol\":1191:1215  random()%(group2.length) */\n      tag_27\n      swap2\n      swap1\n      tag_10\n      jump\t// in\n    tag_27:\n        /* \"BlindBoxNFT.sol\":1184:1216  group2[random()%(group2.length)] */\n      dup2\n      sload\n      dup2\n      lt\n      tag_28\n      jumpi\n      tag_29\n      tag_16\n      jump\t// in\n    tag_29:\n    tag_28:\n      swap1\n      0x00\n      mstore\n      keccak256(0x00, 0x20)\n      add\n        /* \"BlindBoxNFT.sol\":1140:1223  anotherContract.mintAndTransfer(msg.sender, group2[random()%(group2.length)],\"100\") */\n      mload(0x40)\n      dup4\n      0xffffffff\n      and\n      0xe0\n      shl\n      dup2\n      mstore\n      0x04\n      add\n      tag_31\n      swap3\n      swap2\n      swap1\n      tag_32\n      jump\t// in\n    tag_31:\n      0x20\n      mload(0x40)\n      dup1\n      dup4\n      sub\n      dup2\n      0x00\n      dup8\n      gas\n      call\n      iszero\n      dup1\n      iszero\n      tag_34\n      jumpi\n      returndatasize\n      0x00\n      dup1\n      returndatacopy\n      revert(0x00, returndatasize)\n    tag_34:\n      pop\n      pop\n      pop\n      pop\n      mload(0x40)\n      returndatasize\n      not(0x1f)\n      0x1f\n      dup3\n      add\n      and\n      dup3\n      add\n      dup1\n      0x40\n      mstore\n      pop\n      dup2\n      add\n      swap1\n      tag_35\n      swap2\n      swap1\n      tag_23\n      jump\t// in\n    tag_35:\n        /* \"BlindBoxNFT.sol\":1131:1223  cardId = anotherContract.mintAndTransfer(msg.sender, group2[random()%(group2.length)],\"100\") */\n      swap1\n      pop\n        /* \"BlindBoxNFT.sol\":1104:1493  if (r < 960) {... */\n      jump(tag_36)\n    tag_25:\n        /* \"BlindBoxNFT.sol\":1248:1251  992 */\n      0x03e0\n        /* \"BlindBoxNFT.sol\":1244:1245  r */\n      dup3\n        /* \"BlindBoxNFT.sol\":1244:1251  r < 992 */\n      lt\n        /* \"BlindBoxNFT.sol\":1240:1493  if (r < 992) {... */\n      iszero\n      tag_37\n      jumpi\n        /* \"BlindBoxNFT.sol\":1276:1291  anotherContract */\n      0x04\n      0x00\n      swap1\n      sload\n      swap1\n      0x0100\n      exp\n      swap1\n      div\n      0xffffffffffffffffffffffffffffffffffffffff\n      and\n        /* \"BlindBoxNFT.sol\":1276:1307  anotherContract.mintAndTransfer */\n      0xffffffffffffffffffffffffffffffffffffffff\n      and\n      0x477bf177\n        /* \"BlindBoxNFT.sol\":1308:1318  msg.sender */\n      caller\n        /* \"BlindBoxNFT.sol\":1320:1326  group3 */\n      0x02\n        /* \"BlindBoxNFT.sol\":1337:1343  group3 */\n      dup1\n        /* \"BlindBoxNFT.sol\":1337:1350  group3.length */\n      dup1\n      sload\n      swap1\n      pop\n        /* \"BlindBoxNFT.sol\":1327:1335  random() */\n      tag_38\n        /* \"BlindBoxNFT.sol\":1327:1333  random */\n      tag_8\n        /* \"BlindBoxNFT.sol\":1327:1335  random() */\n      jump\t// in\n    tag_38:\n        /* \"BlindBoxNFT.sol\":1327:1351  random()%(group3.length) */\n      tag_39\n      swap2\n      swap1\n      tag_10\n      jump\t// in\n    tag_39:\n        /* \"BlindBoxNFT.sol\":1320:1352  group3[random()%(group3.length)] */\n      dup2\n      sload\n      dup2\n      lt\n      tag_40\n      jumpi\n      tag_41\n      tag_16\n      jump\t// in\n    tag_41:\n    tag_40:\n      swap1\n      0x00\n      mstore\n      keccak256(0x00, 0x20)\n      add\n        /* \"BlindBoxNFT.sol\":1276:1359  anotherContract.mintAndTransfer(msg.sender, group3[random()%(group3.length)],\"200\") */\n      mload(0x40)\n      dup4\n      0xffffffff\n      and\n      0xe0\n      shl\n      dup2\n      mstore\n      0x04\n      add\n      tag_43\n      swap3\n      swap2\n      swap1\n      tag_44\n      jump\t// in\n    tag_43:\n      0x20\n      mload(0x40)\n      dup1\n      dup4\n      sub\n      dup2\n      0x00\n      dup8\n      gas\n      call\n      iszero\n      dup1\n      iszero\n      tag_46\n      jumpi\n      returndatasize\n      0x00\n      dup1\n      returndatacopy\n      revert(0x00, returndatasize)\n    tag_46:\n      pop\n      pop\n      pop\n      pop\n      mload(0x40)\n      returndatasize\n      not(0x1f)\n      0x1f\n      dup3\n      add\n      and\n      dup3\n      add\n      dup1\n      0x40\n      mstore\n      pop\n      dup2\n      add\n      swap1\n      tag_47\n      swap2\n      swap1\n      tag_23\n      jump\t// in\n    tag_47:\n        /* \"BlindBoxNFT.sol\":1267:1359  cardId = anotherContract.mintAndTransfer(msg.sender, group3[random()%(group3.length)],\"200\") */\n      swap1\n      pop\n        /* \"BlindBoxNFT.sol\":1240:1493  if (r < 992) {... */\n      jump(tag_48)\n    tag_37:\n        /* \"BlindBoxNFT.sol\":1399:1414  anotherContract */\n      0x04\n      0x00\n      swap1\n      sload\n      swap1\n      0x0100\n      exp\n      swap1\n      div\n      0xffffffffffffffffffffffffffffffffffffffff\n      and\n        /* \"BlindBoxNFT.sol\":1399:1430  anotherContract.mintAndTransfer */\n      0xffffffffffffffffffffffffffffffffffffffff\n      and\n      0x477bf177\n        /* \"BlindBoxNFT.sol\":1431:1441  msg.sender */\n      caller\n        /* \"BlindBoxNFT.sol\":1443:1449  group4 */\n      0x03\n        /* \"BlindBoxNFT.sol\":1460:1466  group4 */\n      dup1\n        /* \"BlindBoxNFT.sol\":1460:1473  group4.length */\n      dup1\n      sload\n      swap1\n      pop\n        /* \"BlindBoxNFT.sol\":1450:1458  random() */\n      tag_49\n        /* \"BlindBoxNFT.sol\":1450:1456  random */\n      tag_8\n        /* \"BlindBoxNFT.sol\":1450:1458  random() */\n      jump\t// in\n    tag_49:\n        /* \"BlindBoxNFT.sol\":1450:1474  random()%(group4.length) */\n      tag_50\n      swap2\n      swap1\n      tag_10\n      jump\t// in\n    tag_50:\n        /* \"BlindBoxNFT.sol\":1443:1475  group4[random()%(group4.length)] */\n      dup2\n      sload\n      dup2\n      lt\n      tag_51\n      jumpi\n      tag_52\n      tag_16\n      jump\t// in\n    tag_52:\n    tag_51:\n      swap1\n      0x00\n      mstore\n      keccak256(0x00, 0x20)\n      add\n        /* \"BlindBoxNFT.sol\":1399:1482  anotherContract.mintAndTransfer(msg.sender, group4[random()%(group4.length)],\"400\") */\n      mload(0x40)\n      dup4\n      0xffffffff\n      and\n      0xe0\n      shl\n      dup2\n      mstore\n      0x04\n      add\n      tag_54\n      swap3\n      swap2\n      swap1\n      tag_55\n      jump\t// in\n    tag_54:\n      0x20\n      mload(0x40)\n      dup1\n      dup4\n      sub\n      dup2\n      0x00\n      dup8\n      gas\n      call\n      iszero\n      dup1\n      iszero\n      tag_57\n      jumpi\n      returndatasize\n      0x00\n      dup1\n      returndatacopy\n      revert(0x00, returndatasize)\n    tag_57:\n      pop\n      pop\n      pop\n      pop\n      mload(0x40)\n      returndatasize\n      not(0x1f)\n      0x1f\n      dup3\n      add\n      and\n      dup3\n      add\n      dup1\n      0x40\n      mstore\n      pop\n      dup2\n      add\n      swap1\n      tag_58\n      swap2\n      swap1\n      tag_23\n      jump\t// in\n    tag_58:\n        /* \"BlindBoxNFT.sol\":1390:1482  cardId = anotherContract.mintAndTransfer(msg.sender, group4[random()%(group4.length)],\"400\") */\n      swap1\n      pop\n        /* \"BlindBoxNFT.sol\":1240:1493  if (r < 992) {... */\n    tag_48:\n        /* \"BlindBoxNFT.sol\":1104:1493  if (r < 960) {... */\n    tag_36:\n        /* \"BlindBoxNFT.sol\":969:1493  if (r < 800) {... */\n    tag_24:\n        /* \"BlindBoxNFT.sol\":1521:1531  msg.sender */\n      caller\n        /* \"BlindBoxNFT.sol\":1507:1539  DrawCardEvent(msg.sender,cardId) */\n      0xffffffffffffffffffffffffffffffffffffffff\n      and\n      0x267422fa3a8c9525acb851824d5f4579f8de0442b971deef203719962e3b9d4a\n        /* \"BlindBoxNFT.sol\":1532:1538  cardId */\n      dup3\n        /* \"BlindBoxNFT.sol\":1507:1539  DrawCardEvent(msg.sender,cardId) */\n      mload(0x40)\n      tag_59\n      swap2\n      swap1\n      tag_60\n      jump\t// in\n    tag_59:\n      mload(0x40)\n      dup1\n      swap2\n      sub\n      swap1\n      log2\n        /* \"BlindBoxNFT.sol\":897:1546  {... */\n      pop\n      pop\n        /* \"BlindBoxNFT.sol\":870:1546  function drawCard() public {... */\n      jump\t// out\n        /* \"BlindBoxNFT.sol\":1552:1730  function random() private view returns (uint256) {... */\n    tag_8:\n        /* \"BlindBoxNFT.sol\":1592:1599  uint256 */\n      0x00\n        /* \"BlindBoxNFT.sol\":1666:1681  block.timestamp */\n      timestamp\n        /* \"BlindBoxNFT.sol\":1683:1699  block.difficulty */\n      prevrandao\n        /* \"BlindBoxNFT.sol\":1701:1711  msg.sender */\n      caller\n        /* \"BlindBoxNFT.sol\":1649:1712  abi.encodePacked(block.timestamp, block.difficulty, msg.sender) */\n      add(0x20, mload(0x40))\n      tag_62\n      swap4\n      swap3\n      swap2\n      swap1\n      tag_63\n      jump\t// in\n    tag_62:\n      mload(0x40)\n      0x20\n      dup2\n      dup4\n      sub\n      sub\n      dup2\n      mstore\n      swap1\n      0x40\n      mstore\n        /* \"BlindBoxNFT.sol\":1639:1713  keccak256(abi.encodePacked(block.timestamp, block.difficulty, msg.sender)) */\n      dup1\n      mload\n      swap1\n      0x20\n      add\n      keccak256\n        /* \"BlindBoxNFT.sol\":1618:1723  uint256(... */\n      0x00\n      shr\n        /* \"BlindBoxNFT.sol\":1611:1723  return uint256(... */\n      swap1\n      pop\n        /* \"BlindBoxNFT.sol\":1552:1730  function random() private view returns (uint256) {... */\n      swap1\n      jump\t// out\n        /* \"#utility.yul\":7:84   */\n    tag_64:\n        /* \"#utility.yul\":44:51   */\n      0x00\n        /* \"#utility.yul\":73:78   */\n      dup2\n        /* \"#utility.yul\":62:78   */\n      swap1\n      pop\n        /* \"#utility.yul\":7:84   */\n      swap2\n      swap1\n      pop\n      jump\t// out\n        /* \"#utility.yul\":90:270   */\n    tag_65:\n        /* \"#utility.yul\":138:215   */\n      0x4e487b7100000000000000000000000000000000000000000000000000000000\n        /* \"#utility.yul\":135:136   */\n      0x00\n        /* \"#utility.yul\":128:216   */\n      mstore\n        /* \"#utility.yul\":235:239   */\n      0x12\n        /* \"#utility.yul\":232:233   */\n      0x04\n        /* \"#utility.yul\":225:240   */\n      mstore\n        /* \"#utility.yul\":259:263   */\n      0x24\n        /* \"#utility.yul\":256:257   */\n      0x00\n        /* \"#utility.yul\":249:264   */\n      revert\n        /* \"#utility.yul\":276:452   */\n    tag_10:\n        /* \"#utility.yul\":308:309   */\n      0x00\n        /* \"#utility.yul\":325:345   */\n      tag_98\n        /* \"#utility.yul\":343:344   */\n      dup3\n        /* \"#utility.yul\":325:345   */\n      tag_64\n      jump\t// in\n    tag_98:\n        /* \"#utility.yul\":320:345   */\n      swap2\n      pop\n        /* \"#utility.yul\":359:379   */\n      tag_99\n        /* \"#utility.yul\":377:378   */\n      dup4\n        /* \"#utility.yul\":359:379   */\n      tag_64\n      jump\t// in\n    tag_99:\n        /* \"#utility.yul\":354:379   */\n      swap3\n      pop\n        /* \"#utility.yul\":398:399   */\n      dup3\n        /* \"#utility.yul\":388:423   */\n      tag_100\n      jumpi\n        /* \"#utility.yul\":403:421   */\n      tag_101\n      tag_65\n      jump\t// in\n    tag_101:\n        /* \"#utility.yul\":388:423   */\n    tag_100:\n        /* \"#utility.yul\":444:445   */\n      dup3\n        /* \"#utility.yul\":441:442   */\n      dup3\n        /* \"#utility.yul\":437:446   */\n      mod\n        /* \"#utility.yul\":432:446   */\n      swap1\n      pop\n        /* \"#utility.yul\":276:452   */\n      swap3\n      swap2\n      pop\n      pop\n      jump\t// out\n        /* \"#utility.yul\":458:638   */\n    tag_16:\n        /* \"#utility.yul\":506:583   */\n      0x4e487b7100000000000000000000000000000000000000000000000000000000\n        /* \"#utility.yul\":503:504   */\n      0x00\n        /* \"#utility.yul\":496:584   */\n      mstore\n        /* \"#utility.yul\":603:607   */\n      0x32\n        /* \"#utility.yul\":600:601   */\n      0x04\n        /* \"#utility.yul\":593:608   */\n      mstore\n        /* \"#utility.yul\":627:631   */\n      0x24\n        /* \"#utility.yul\":624:625   */\n      0x00\n        /* \"#utility.yul\":617:632   */\n      revert\n        /* \"#utility.yul\":644:770   */\n    tag_66:\n        /* \"#utility.yul\":681:688   */\n      0x00\n        /* \"#utility.yul\":721:763   */\n      0xffffffffffffffffffffffffffffffffffffffff\n        /* \"#utility.yul\":714:719   */\n      dup3\n        /* \"#utility.yul\":710:764   */\n      and\n        /* \"#utility.yul\":699:764   */\n      swap1\n      pop\n        /* \"#utility.yul\":644:770   */\n      swap2\n      swap1\n      pop\n      jump\t// out\n        /* \"#utility.yul\":776:872   */\n    tag_67:\n        /* \"#utility.yul\":813:820   */\n      0x00\n        /* \"#utility.yul\":842:866   */\n      tag_105\n        /* \"#utility.yul\":860:865   */\n      dup3\n        /* \"#utility.yul\":842:866   */\n      tag_66\n      jump\t// in\n    tag_105:\n        /* \"#utility.yul\":831:866   */\n      swap1\n      pop\n        /* \"#utility.yul\":776:872   */\n      swap2\n      swap1\n      pop\n      jump\t// out\n        /* \"#utility.yul\":878:996   */\n    tag_68:\n        /* \"#utility.yul\":965:989   */\n      tag_107\n        /* \"#utility.yul\":983:988   */\n      dup2\n        /* \"#utility.yul\":965:989   */\n      tag_67\n      jump\t// in\n    tag_107:\n        /* \"#utility.yul\":960:963   */\n      dup3\n        /* \"#utility.yul\":953:990   */\n      mstore\n        /* \"#utility.yul\":878:996   */\n      pop\n      pop\n      jump\t// out\n        /* \"#utility.yul\":1002:1182   */\n    tag_69:\n        /* \"#utility.yul\":1050:1127   */\n      0x4e487b7100000000000000000000000000000000000000000000000000000000\n        /* \"#utility.yul\":1047:1048   */\n      0x00\n        /* \"#utility.yul\":1040:1128   */\n      mstore\n        /* \"#utility.yul\":1147:1151   */\n      0x22\n        /* \"#utility.yul\":1144:1145   */\n      0x04\n        /* \"#utility.yul\":1137:1152   */\n      mstore\n        /* \"#utility.yul\":1171:1175   */\n      0x24\n        /* \"#utility.yul\":1168:1169   */\n      0x00\n        /* \"#utility.yul\":1161:1176   */\n      revert\n        /* \"#utility.yul\":1188:1508   */\n    tag_70:\n        /* \"#utility.yul\":1232:1238   */\n      0x00\n        /* \"#utility.yul\":1269:1270   */\n      0x02\n        /* \"#utility.yul\":1263:1267   */\n      dup3\n        /* \"#utility.yul\":1259:1271   */\n      div\n        /* \"#utility.yul\":1249:1271   */\n      swap1\n      pop\n        /* \"#utility.yul\":1316:1317   */\n      0x01\n        /* \"#utility.yul\":1310:1314   */\n      dup3\n        /* \"#utility.yul\":1306:1318   */\n      and\n        /* \"#utility.yul\":1337:1355   */\n      dup1\n        /* \"#utility.yul\":1327:1408   */\n      tag_110\n      jumpi\n        /* \"#utility.yul\":1393:1397   */\n      0x7f\n        /* \"#utility.yul\":1385:1391   */\n      dup3\n        /* \"#utility.yul\":1381:1398   */\n      and\n        /* \"#utility.yul\":1371:1398   */\n      swap2\n      pop\n        /* \"#utility.yul\":1327:1408   */\n    tag_110:\n        /* \"#utility.yul\":1455:1457   */\n      0x20\n        /* \"#utility.yul\":1447:1453   */\n      dup3\n        /* \"#utility.yul\":1444:1458   */\n      lt\n        /* \"#utility.yul\":1424:1442   */\n      dup2\n        /* \"#utility.yul\":1421:1459   */\n      sub\n        /* \"#utility.yul\":1418:1502   */\n      tag_111\n      jumpi\n        /* \"#utility.yul\":1474:1492   */\n      tag_112\n      tag_69\n      jump\t// in\n    tag_112:\n        /* \"#utility.yul\":1418:1502   */\n    tag_111:\n        /* \"#utility.yul\":1239:1508   */\n      pop\n        /* \"#utility.yul\":1188:1508   */\n      swap2\n      swap1\n      pop\n      jump\t// out\n        /* \"#utility.yul\":1514:1683   */\n    tag_71:\n        /* \"#utility.yul\":1598:1609   */\n      0x00\n        /* \"#utility.yul\":1632:1638   */\n      dup3\n        /* \"#utility.yul\":1627:1630   */\n      dup3\n        /* \"#utility.yul\":1620:1639   */\n      mstore\n        /* \"#utility.yul\":1672:1676   */\n      0x20\n        /* \"#utility.yul\":1667:1670   */\n      dup3\n        /* \"#utility.yul\":1663:1677   */\n      add\n        /* \"#utility.yul\":1648:1677   */\n      swap1\n      pop\n        /* \"#utility.yul\":1514:1683   */\n      swap3\n      swap2\n      pop\n      pop\n      jump\t// out\n        /* \"#utility.yul\":1689:1830   */\n    tag_72:\n        /* \"#utility.yul\":1738:1742   */\n      0x00\n        /* \"#utility.yul\":1761:1764   */\n      dup2\n        /* \"#utility.yul\":1753:1764   */\n      swap1\n      pop\n        /* \"#utility.yul\":1784:1787   */\n      dup2\n        /* \"#utility.yul\":1781:1782   */\n      0x00\n        /* \"#utility.yul\":1774:1788   */\n      mstore\n        /* \"#utility.yul\":1818:1822   */\n      0x20\n        /* \"#utility.yul\":1815:1816   */\n      0x00\n        /* \"#utility.yul\":1805:1823   */\n      keccak256\n        /* \"#utility.yul\":1797:1823   */\n      swap1\n      pop\n        /* \"#utility.yul\":1689:1830   */\n      swap2\n      swap1\n      pop\n      jump\t// out\n        /* \"#utility.yul\":1860:2691   */\n    tag_73:\n        /* \"#utility.yul\":1945:1948   */\n      0x00\n        /* \"#utility.yul\":1982:1987   */\n      dup2\n        /* \"#utility.yul\":1976:1988   */\n      sload\n        /* \"#utility.yul\":2011:2047   */\n      tag_116\n        /* \"#utility.yul\":2037:2046   */\n      dup2\n        /* \"#utility.yul\":2011:2047   */\n      tag_70\n      jump\t// in\n    tag_116:\n        /* \"#utility.yul\":2063:2134   */\n      tag_117\n        /* \"#utility.yul\":2127:2133   */\n      dup2\n        /* \"#utility.yul\":2122:2125   */\n      dup7\n        /* \"#utility.yul\":2063:2134   */\n      tag_71\n      jump\t// in\n    tag_117:\n        /* \"#utility.yul\":2056:2134   */\n      swap5\n      pop\n        /* \"#utility.yul\":2165:2166   */\n      0x01\n        /* \"#utility.yul\":2154:2163   */\n      dup3\n        /* \"#utility.yul\":2150:2167   */\n      and\n        /* \"#utility.yul\":2181:2182   */\n      0x00\n        /* \"#utility.yul\":2176:2340   */\n      dup2\n      eq\n      tag_119\n      jumpi\n        /* \"#utility.yul\":2354:2355   */\n      0x01\n        /* \"#utility.yul\":2349:2685   */\n      dup2\n      eq\n      tag_120\n      jumpi\n        /* \"#utility.yul\":2143:2685   */\n      jump(tag_118)\n        /* \"#utility.yul\":2176:2340   */\n    tag_119:\n        /* \"#utility.yul\":2260:2264   */\n      0xff\n        /* \"#utility.yul\":2256:2265   */\n      not\n        /* \"#utility.yul\":2245:2254   */\n      dup4\n        /* \"#utility.yul\":2241:2266   */\n      and\n        /* \"#utility.yul\":2236:2239   */\n      dup7\n        /* \"#utility.yul\":2229:2267   */\n      mstore\n        /* \"#utility.yul\":2320:2326   */\n      dup2\n        /* \"#utility.yul\":2313:2327   */\n      iszero\n        /* \"#utility.yul\":2306:2328   */\n      iszero\n        /* \"#utility.yul\":2300:2304   */\n      0x20\n        /* \"#utility.yul\":2296:2329   */\n      mul\n        /* \"#utility.yul\":2291:2294   */\n      dup7\n        /* \"#utility.yul\":2287:2330   */\n      add\n        /* \"#utility.yul\":2280:2330   */\n      swap4\n      pop\n        /* \"#utility.yul\":2176:2340   */\n      jump(tag_118)\n        /* \"#utility.yul\":2349:2685   */\n    tag_120:\n        /* \"#utility.yul\":2416:2454   */\n      tag_121\n        /* \"#utility.yul\":2448:2453   */\n      dup6\n        /* \"#utility.yul\":2416:2454   */\n      tag_72\n      jump\t// in\n    tag_121:\n        /* \"#utility.yul\":2476:2477   */\n      0x00\n        /* \"#utility.yul\":2490:2644   */\n    tag_122:\n        /* \"#utility.yul\":2504:2510   */\n      dup4\n        /* \"#utility.yul\":2501:2502   */\n      dup2\n        /* \"#utility.yul\":2498:2511   */\n      lt\n        /* \"#utility.yul\":2490:2644   */\n      iszero\n      tag_124\n      jumpi\n        /* \"#utility.yul\":2578:2585   */\n      dup2\n        /* \"#utility.yul\":2572:2586   */\n      sload\n        /* \"#utility.yul\":2568:2569   */\n      dup2\n        /* \"#utility.yul\":2563:2566   */\n      dup10\n        /* \"#utility.yul\":2559:2570   */\n      add\n        /* \"#utility.yul\":2552:2587   */\n      mstore\n        /* \"#utility.yul\":2628:2629   */\n      0x01\n        /* \"#utility.yul\":2619:2626   */\n      dup3\n        /* \"#utility.yul\":2615:2630   */\n      add\n        /* \"#utility.yul\":2604:2630   */\n      swap2\n      pop\n        /* \"#utility.yul\":2526:2530   */\n      0x20\n        /* \"#utility.yul\":2523:2524   */\n      dup2\n        /* \"#utility.yul\":2519:2531   */\n      add\n        /* \"#utility.yul\":2514:2531   */\n      swap1\n      pop\n        /* \"#utility.yul\":2490:2644   */\n      jump(tag_122)\n    tag_124:\n        /* \"#utility.yul\":2673:2674   */\n      dup1\n        /* \"#utility.yul\":2668:2671   */\n      dup9\n        /* \"#utility.yul\":2664:2675   */\n      add\n        /* \"#utility.yul\":2657:2675   */\n      swap6\n      pop\n        /* \"#utility.yul\":2356:2685   */\n      pop\n      pop\n        /* \"#utility.yul\":2143:2685   */\n    tag_118:\n      pop\n        /* \"#utility.yul\":1949:2691   */\n      pop\n      pop\n        /* \"#utility.yul\":1860:2691   */\n      swap3\n      swap2\n      pop\n      pop\n      jump\t// out\n        /* \"#utility.yul\":2697:2849   */\n    tag_74:\n        /* \"#utility.yul\":2837:2841   */\n      0x3530000000000000000000000000000000000000000000000000000000000000\n        /* \"#utility.yul\":2833:2834   */\n      0x00\n        /* \"#utility.yul\":2825:2831   */\n      dup3\n        /* \"#utility.yul\":2821:2835   */\n      add\n        /* \"#utility.yul\":2814:2842   */\n      mstore\n        /* \"#utility.yul\":2697:2849   */\n      pop\n      jump\t// out\n        /* \"#utility.yul\":2855:3220   */\n    tag_75:\n        /* \"#utility.yul\":2997:3000   */\n      0x00\n        /* \"#utility.yul\":3018:3084   */\n      tag_127\n        /* \"#utility.yul\":3082:3083   */\n      0x02\n        /* \"#utility.yul\":3077:3080   */\n      dup4\n        /* \"#utility.yul\":3018:3084   */\n      tag_71\n      jump\t// in\n    tag_127:\n        /* \"#utility.yul\":3011:3084   */\n      swap2\n      pop\n        /* \"#utility.yul\":3093:3186   */\n      tag_128\n        /* \"#utility.yul\":3182:3185   */\n      dup3\n        /* \"#utility.yul\":3093:3186   */\n      tag_74\n      jump\t// in\n    tag_128:\n        /* \"#utility.yul\":3211:3213   */\n      0x20\n        /* \"#utility.yul\":3206:3209   */\n      dup3\n        /* \"#utility.yul\":3202:3214   */\n      add\n        /* \"#utility.yul\":3195:3214   */\n      swap1\n      pop\n        /* \"#utility.yul\":2855:3220   */\n      swap2\n      swap1\n      pop\n      jump\t// out\n        /* \"#utility.yul\":3226:3950   */\n    tag_19:\n        /* \"#utility.yul\":3465:3469   */\n      0x00\n        /* \"#utility.yul\":3503:3505   */\n      0x60\n        /* \"#utility.yul\":3492:3501   */\n      dup3\n        /* \"#utility.yul\":3488:3506   */\n      add\n        /* \"#utility.yul\":3480:3506   */\n      swap1\n      pop\n        /* \"#utility.yul\":3516:3587   */\n      tag_130\n        /* \"#utility.yul\":3584:3585   */\n      0x00\n        /* \"#utility.yul\":3573:3582   */\n      dup4\n        /* \"#utility.yul\":3569:3586   */\n      add\n        /* \"#utility.yul\":3560:3566   */\n      dup6\n        /* \"#utility.yul\":3516:3587   */\n      tag_68\n      jump\t// in\n    tag_130:\n        /* \"#utility.yul\":3634:3643   */\n      dup2\n        /* \"#utility.yul\":3628:3632   */\n      dup2\n        /* \"#utility.yul\":3624:3644   */\n      sub\n        /* \"#utility.yul\":3619:3621   */\n      0x20\n        /* \"#utility.yul\":3608:3617   */\n      dup4\n        /* \"#utility.yul\":3604:3622   */\n      add\n        /* \"#utility.yul\":3597:3645   */\n      mstore\n        /* \"#utility.yul\":3662:3737   */\n      tag_131\n        /* \"#utility.yul\":3732:3736   */\n      dup2\n        /* \"#utility.yul\":3723:3729   */\n      dup5\n        /* \"#utility.yul\":3662:3737   */\n      tag_73\n      jump\t// in\n    tag_131:\n        /* \"#utility.yul\":3654:3737   */\n      swap1\n      pop\n        /* \"#utility.yul\":3784:3793   */\n      dup2\n        /* \"#utility.yul\":3778:3782   */\n      dup2\n        /* \"#utility.yul\":3774:3794   */\n      sub\n        /* \"#utility.yul\":3769:3771   */\n      0x40\n        /* \"#utility.yul\":3758:3767   */\n      dup4\n        /* \"#utility.yul\":3754:3772   */\n      add\n        /* \"#utility.yul\":3747:3795   */\n      mstore\n        /* \"#utility.yul\":3812:3943   */\n      tag_132\n        /* \"#utility.yul\":3938:3942   */\n      dup2\n        /* \"#utility.yul\":3812:3943   */\n      tag_75\n      jump\t// in\n    tag_132:\n        /* \"#utility.yul\":3804:3943   */\n      swap1\n      pop\n        /* \"#utility.yul\":3226:3950   */\n      swap4\n      swap3\n      pop\n      pop\n      pop\n      jump\t// out\n        /* \"#utility.yul\":4037:4154   */\n    tag_77:\n        /* \"#utility.yul\":4146:4147   */\n      0x00\n        /* \"#utility.yul\":4143:4144   */\n      dup1\n        /* \"#utility.yul\":4136:4148   */\n      revert\n        /* \"#utility.yul\":4283:4405   */\n    tag_79:\n        /* \"#utility.yul\":4356:4380   */\n      tag_137\n        /* \"#utility.yul\":4374:4379   */\n      dup2\n        /* \"#utility.yul\":4356:4380   */\n      tag_64\n      jump\t// in\n    tag_137:\n        /* \"#utility.yul\":4349:4354   */\n      dup2\n        /* \"#utility.yul\":4346:4381   */\n      eq\n        /* \"#utility.yul\":4336:4399   */\n      tag_138\n      jumpi\n        /* \"#utility.yul\":4395:4396   */\n      0x00\n        /* \"#utility.yul\":4392:4393   */\n      dup1\n        /* \"#utility.yul\":4385:4397   */\n      revert\n        /* \"#utility.yul\":4336:4399   */\n    tag_138:\n        /* \"#utility.yul\":4283:4405   */\n      pop\n      jump\t// out\n        /* \"#utility.yul\":4411:4554   */\n    tag_80:\n        /* \"#utility.yul\":4468:4473   */\n      0x00\n        /* \"#utility.yul\":4499:4505   */\n      dup2\n        /* \"#utility.yul\":4493:4506   */\n      mload\n        /* \"#utility.yul\":4484:4506   */\n      swap1\n      pop\n        /* \"#utility.yul\":4515:4548   */\n      tag_140\n        /* \"#utility.yul\":4542:4547   */\n      dup2\n        /* \"#utility.yul\":4515:4548   */\n      tag_79\n      jump\t// in\n    tag_140:\n        /* \"#utility.yul\":4411:4554   */\n      swap3\n      swap2\n      pop\n      pop\n      jump\t// out\n        /* \"#utility.yul\":4560:4911   */\n    tag_23:\n        /* \"#utility.yul\":4630:4636   */\n      0x00\n        /* \"#utility.yul\":4679:4681   */\n      0x20\n        /* \"#utility.yul\":4667:4676   */\n      dup3\n        /* \"#utility.yul\":4658:4665   */\n      dup5\n        /* \"#utility.yul\":4654:4677   */\n      sub\n        /* \"#utility.yul\":4650:4682   */\n      slt\n        /* \"#utility.yul\":4647:4766   */\n      iszero\n      tag_142\n      jumpi\n        /* \"#utility.yul\":4685:4764   */\n      tag_143\n      tag_77\n      jump\t// in\n    tag_143:\n        /* \"#utility.yul\":4647:4766   */\n    tag_142:\n        /* \"#utility.yul\":4805:4806   */\n      0x00\n        /* \"#utility.yul\":4830:4894   */\n      tag_144\n        /* \"#utility.yul\":4886:4893   */\n      dup5\n        /* \"#utility.yul\":4877:4883   */\n      dup3\n        /* \"#utility.yul\":4866:4875   */\n      dup6\n        /* \"#utility.yul\":4862:4884   */\n      add\n        /* \"#utility.yul\":4830:4894   */\n      tag_80\n      jump\t// in\n    tag_144:\n        /* \"#utility.yul\":4820:4894   */\n      swap2\n      pop\n        /* \"#utility.yul\":4776:4904   */\n      pop\n        /* \"#utility.yul\":4560:4911   */\n      swap3\n      swap2\n      pop\n      pop\n      jump\t// out\n        /* \"#utility.yul\":4917:5070   */\n    tag_81:\n        /* \"#utility.yul\":5057:5062   */\n      0x3130300000000000000000000000000000000000000000000000000000000000\n        /* \"#utility.yul\":5053:5054   */\n      0x00\n        /* \"#utility.yul\":5045:5051   */\n      dup3\n        /* \"#utility.yul\":5041:5055   */\n      add\n        /* \"#utility.yul\":5034:5063   */\n      mstore\n        /* \"#utility.yul\":4917:5070   */\n      pop\n      jump\t// out\n        /* \"#utility.yul\":5076:5441   */\n    tag_82:\n        /* \"#utility.yul\":5218:5221   */\n      0x00\n        /* \"#utility.yul\":5239:5305   */\n      tag_147\n        /* \"#utility.yul\":5303:5304   */\n      0x03\n        /* \"#utility.yul\":5298:5301   */\n      dup4\n        /* \"#utility.yul\":5239:5305   */\n      tag_71\n      jump\t// in\n    tag_147:\n        /* \"#utility.yul\":5232:5305   */\n      swap2\n      pop\n        /* \"#utility.yul\":5314:5407   */\n      tag_148\n        /* \"#utility.yul\":5403:5406   */\n      dup3\n        /* \"#utility.yul\":5314:5407   */\n      tag_81\n      jump\t// in\n    tag_148:\n        /* \"#utility.yul\":5432:5434   */\n      0x20\n        /* \"#utility.yul\":5427:5430   */\n      dup3\n        /* \"#utility.yul\":5423:5435   */\n      add\n        /* \"#utility.yul\":5416:5435   */\n      swap1\n      pop\n        /* \"#utility.yul\":5076:5441   */\n      swap2\n      swap1\n      pop\n      jump\t// out\n        /* \"#utility.yul\":5447:6171   */\n    tag_32:\n        /* \"#utility.yul\":5686:5690   */\n      0x00\n        /* \"#utility.yul\":5724:5726   */\n      0x60\n        /* \"#utility.yul\":5713:5722   */\n      dup3\n        /* \"#utility.yul\":5709:5727   */\n      add\n        /* \"#utility.yul\":5701:5727   */\n      swap1\n      pop\n        /* \"#utility.yul\":5737:5808   */\n      tag_150\n        /* \"#utility.yul\":5805:5806   */\n      0x00\n        /* \"#utility.yul\":5794:5803   */\n      dup4\n        /* \"#utility.yul\":5790:5807   */\n      add\n        /* \"#utility.yul\":5781:5787   */\n      dup6\n        /* \"#utility.yul\":5737:5808   */\n      tag_68\n      jump\t// in\n    tag_150:\n        /* \"#utility.yul\":5855:5864   */\n      dup2\n        /* \"#utility.yul\":5849:5853   */\n      dup2\n        /* \"#utility.yul\":5845:5865   */\n      sub\n        /* \"#utility.yul\":5840:5842   */\n      0x20\n        /* \"#utility.yul\":5829:5838   */\n      dup4\n        /* \"#utility.yul\":5825:5843   */\n      add\n        /* \"#utility.yul\":5818:5866   */\n      mstore\n        /* \"#utility.yul\":5883:5958   */\n      tag_151\n        /* \"#utility.yul\":5953:5957   */\n      dup2\n        /* \"#utility.yul\":5944:5950   */\n      dup5\n        /* \"#utility.yul\":5883:5958   */\n      tag_73\n      jump\t// in\n    tag_151:\n        /* \"#utility.yul\":5875:5958   */\n      swap1\n      pop\n        /* \"#utility.yul\":6005:6014   */\n      dup2\n        /* \"#utility.yul\":5999:6003   */\n      dup2\n        /* \"#utility.yul\":5995:6015   */\n      sub\n        /* \"#utility.yul\":5990:5992   */\n      0x40\n        /* \"#utility.yul\":5979:5988   */\n      dup4\n        /* \"#utility.yul\":5975:5993   */\n      add\n        /* \"#utility.yul\":5968:6016   */\n      mstore\n        /* \"#utility.yul\":6033:6164   */\n      tag_152\n        /* \"#utility.yul\":6159:6163   */\n      dup2\n        /* \"#utility.yul\":6033:6164   */\n      tag_82\n      jump\t// in\n    tag_152:\n        /* \"#utility.yul\":6025:6164   */\n      swap1\n      pop\n        /* \"#utility.yul\":5447:6171   */\n      swap4\n      swap3\n      pop\n      pop\n      pop\n      jump\t// out\n        /* \"#utility.yul\":6177:6330   */\n    tag_83:\n        /* \"#utility.yul\":6317:6322   */\n      0x3230300000000000000000000000000000000000000000000000000000000000\n        /* \"#utility.yul\":6313:6314   */\n      0x00\n        /* \"#utility.yul\":6305:6311   */\n      dup3\n        /* \"#utility.yul\":6301:6315   */\n      add\n        /* \"#utility.yul\":6294:6323   */\n      mstore\n        /* \"#utility.yul\":6177:6330   */\n      pop\n      jump\t// out\n        /* \"#utility.yul\":6336:6701   */\n    tag_84:\n        /* \"#utility.yul\":6478:6481   */\n      0x00\n        /* \"#utility.yul\":6499:6565   */\n      tag_155\n        /* \"#utility.yul\":6563:6564   */\n      0x03\n        /* \"#utility.yul\":6558:6561   */\n      dup4\n        /* \"#utility.yul\":6499:6565   */\n      tag_71\n      jump\t// in\n    tag_155:\n        /* \"#utility.yul\":6492:6565   */\n      swap2\n      pop\n        /* \"#utility.yul\":6574:6667   */\n      tag_156\n        /* \"#utility.yul\":6663:6666   */\n      dup3\n        /* \"#utility.yul\":6574:6667   */\n      tag_83\n      jump\t// in\n    tag_156:\n        /* \"#utility.yul\":6692:6694   */\n      0x20\n        /* \"#utility.yul\":6687:6690   */\n      dup3\n        /* \"#utility.yul\":6683:6695   */\n      add\n        /* \"#utility.yul\":6676:6695   */\n      swap1\n      pop\n        /* \"#utility.yul\":6336:6701   */\n      swap2\n      swap1\n      pop\n      jump\t// out\n        /* \"#utility.yul\":6707:7431   */\n    tag_44:\n        /* \"#utility.yul\":6946:6950   */\n      0x00\n        /* \"#utility.yul\":6984:6986   */\n      0x60\n        /* \"#utility.yul\":6973:6982   */\n      dup3\n        /* \"#utility.yul\":6969:6987   */\n      add\n        /* \"#utility.yul\":6961:6987   */\n      swap1\n      pop\n        /* \"#utility.yul\":6997:7068   */\n      tag_158\n        /* \"#utility.yul\":7065:7066   */\n      0x00\n        /* \"#utility.yul\":7054:7063   */\n      dup4\n        /* \"#utility.yul\":7050:7067   */\n      add\n        /* \"#utility.yul\":7041:7047   */\n      dup6\n        /* \"#utility.yul\":6997:7068   */\n      tag_68\n      jump\t// in\n    tag_158:\n        /* \"#utility.yul\":7115:7124   */\n      dup2\n        /* \"#utility.yul\":7109:7113   */\n      dup2\n        /* \"#utility.yul\":7105:7125   */\n      sub\n        /* \"#utility.yul\":7100:7102   */\n      0x20\n        /* \"#utility.yul\":7089:7098   */\n      dup4\n        /* \"#utility.yul\":7085:7103   */\n      add\n        /* \"#utility.yul\":7078:7126   */\n      mstore\n        /* \"#utility.yul\":7143:7218   */\n      tag_159\n        /* \"#utility.yul\":7213:7217   */\n      dup2\n        /* \"#utility.yul\":7204:7210   */\n      dup5\n        /* \"#utility.yul\":7143:7218   */\n      tag_73\n      jump\t// in\n    tag_159:\n        /* \"#utility.yul\":7135:7218   */\n      swap1\n      pop\n        /* \"#utility.yul\":7265:7274   */\n      dup2\n        /* \"#utility.yul\":7259:7263   */\n      dup2\n        /* \"#utility.yul\":7255:7275   */\n      sub\n        /* \"#utility.yul\":7250:7252   */\n      0x40\n        /* \"#utility.yul\":7239:7248   */\n      dup4\n        /* \"#utility.yul\":7235:7253   */\n      add\n        /* \"#utility.yul\":7228:7276   */\n      mstore\n        /* \"#utility.yul\":7293:7424   */\n      tag_160\n        /* \"#utility.yul\":7419:7423   */\n      dup2\n        /* \"#utility.yul\":7293:7424   */\n      tag_84\n      jump\t// in\n    tag_160:\n        /* \"#utility.yul\":7285:7424   */\n      swap1\n      pop\n        /* \"#utility.yul\":6707:7431   */\n      swap4\n      swap3\n      pop\n      pop\n      pop\n      jump\t// out\n        /* \"#utility.yul\":7437:7590   */\n    tag_85:\n        /* \"#utility.yul\":7577:7582   */\n      0x3430300000000000000000000000000000000000000000000000000000000000\n        /* \"#utility.yul\":7573:7574   */\n      0x00\n        /* \"#utility.yul\":7565:7571   */\n      dup3\n        /* \"#utility.yul\":7561:7575   */\n      add\n        /* \"#utility.yul\":7554:7583   */\n      mstore\n        /* \"#utility.yul\":7437:7590   */\n      pop\n      jump\t// out\n        /* \"#utility.yul\":7596:7961   */\n    tag_86:\n        /* \"#utility.yul\":7738:7741   */\n      0x00\n        /* \"#utility.yul\":7759:7825   */\n      tag_163\n        /* \"#utility.yul\":7823:7824   */\n      0x03\n        /* \"#utility.yul\":7818:7821   */\n      dup4\n        /* \"#utility.yul\":7759:7825   */\n      tag_71\n      jump\t// in\n    tag_163:\n        /* \"#utility.yul\":7752:7825   */\n      swap2\n      pop\n        /* \"#utility.yul\":7834:7927   */\n      tag_164\n        /* \"#utility.yul\":7923:7926   */\n      dup3\n        /* \"#utility.yul\":7834:7927   */\n      tag_85\n      jump\t// in\n    tag_164:\n        /* \"#utility.yul\":7952:7954   */\n      0x20\n        /* \"#utility.yul\":7947:7950   */\n      dup3\n        /* \"#utility.yul\":7943:7955   */\n      add\n        /* \"#utility.yul\":7936:7955   */\n      swap1\n      pop\n        /* \"#utility.yul\":7596:7961   */\n      swap2\n      swap1\n      pop\n      jump\t// out\n        /* \"#utility.yul\":7967:8691   */\n    tag_55:\n        /* \"#utility.yul\":8206:8210   */\n      0x00\n        /* \"#utility.yul\":8244:8246   */\n      0x60\n        /* \"#utility.yul\":8233:8242   */\n      dup3\n        /* \"#utility.yul\":8229:8247   */\n      add\n        /* \"#utility.yul\":8221:8247   */\n      swap1\n      pop\n        /* \"#utility.yul\":8257:8328   */\n      tag_166\n        /* \"#utility.yul\":8325:8326   */\n      0x00\n        /* \"#utility.yul\":8314:8323   */\n      dup4\n        /* \"#utility.yul\":8310:8327   */\n      add\n        /* \"#utility.yul\":8301:8307   */\n      dup6\n        /* \"#utility.yul\":8257:8328   */\n      tag_68\n      jump\t// in\n    tag_166:\n        /* \"#utility.yul\":8375:8384   */\n      dup2\n        /* \"#utility.yul\":8369:8373   */\n      dup2\n        /* \"#utility.yul\":8365:8385   */\n      sub\n        /* \"#utility.yul\":8360:8362   */\n      0x20\n        /* \"#utility.yul\":8349:8358   */\n      dup4\n        /* \"#utility.yul\":8345:8363   */\n      add\n        /* \"#utility.yul\":8338:8386   */\n      mstore\n        /* \"#utility.yul\":8403:8478   */\n      tag_167\n        /* \"#utility.yul\":8473:8477   */\n      dup2\n        /* \"#utility.yul\":8464:8470   */\n      dup5\n        /* \"#utility.yul\":8403:8478   */\n      tag_73\n      jump\t// in\n    tag_167:\n        /* \"#utility.yul\":8395:8478   */\n      swap1\n      pop\n        /* \"#utility.yul\":8525:8534   */\n      dup2\n        /* \"#utility.yul\":8519:8523   */\n      dup2\n        /* \"#utility.yul\":8515:8535   */\n      sub\n        /* \"#utility.yul\":8510:8512   */\n      0x40\n        /* \"#utility.yul\":8499:8508   */\n      dup4\n        /* \"#utility.yul\":8495:8513   */\n      add\n        /* \"#utility.yul\":8488:8536   */\n      mstore\n        /* \"#utility.yul\":8553:8684   */\n      tag_168\n        /* \"#utility.yul\":8679:8683   */\n      dup2\n        /* \"#utility.yul\":8553:8684   */\n      tag_86\n      jump\t// in\n    tag_168:\n        /* \"#utility.yul\":8545:8684   */\n      swap1\n      pop\n        /* \"#utility.yul\":7967:8691   */\n      swap4\n      swap3\n      pop\n      pop\n      pop\n      jump\t// out\n        /* \"#utility.yul\":8697:8815   */\n    tag_87:\n        /* \"#utility.yul\":8784:8808   */\n      tag_170\n        /* \"#utility.yul\":8802:8807   */\n      dup2\n        /* \"#utility.yul\":8784:8808   */\n      tag_64\n      jump\t// in\n    tag_170:\n        /* \"#utility.yul\":8779:8782   */\n      dup3\n        /* \"#utility.yul\":8772:8809   */\n      mstore\n        /* \"#utility.yul\":8697:8815   */\n      pop\n      pop\n      jump\t// out\n        /* \"#utility.yul\":8821:9043   */\n    tag_60:\n        /* \"#utility.yul\":8914:8918   */\n      0x00\n        /* \"#utility.yul\":8952:8954   */\n      0x20\n        /* \"#utility.yul\":8941:8950   */\n      dup3\n        /* \"#utility.yul\":8937:8955   */\n      add\n        /* \"#utility.yul\":8929:8955   */\n      swap1\n      pop\n        /* \"#utility.yul\":8965:9036   */\n      tag_172\n        /* \"#utility.yul\":9033:9034   */\n      0x00\n        /* \"#utility.yul\":9022:9031   */\n      dup4\n        /* \"#utility.yul\":9018:9035   */\n      add\n        /* \"#utility.yul\":9009:9015   */\n      dup5\n        /* \"#utility.yul\":8965:9036   */\n      tag_87\n      jump\t// in\n    tag_172:\n        /* \"#utility.yul\":8821:9043   */\n      swap3\n      swap2\n      pop\n      pop\n      jump\t// out\n        /* \"#utility.yul\":9049:9128   */\n    tag_88:\n        /* \"#utility.yul\":9088:9095   */\n      0x00\n        /* \"#utility.yul\":9117:9122   */\n      dup2\n        /* \"#utility.yul\":9106:9122   */\n      swap1\n      pop\n        /* \"#utility.yul\":9049:9128   */\n      swap2\n      swap1\n      pop\n      jump\t// out\n        /* \"#utility.yul\":9134:9291   */\n    tag_89:\n        /* \"#utility.yul\":9239:9284   */\n      tag_175\n        /* \"#utility.yul\":9259:9283   */\n      tag_176\n        /* \"#utility.yul\":9277:9282   */\n      dup3\n        /* \"#utility.yul\":9259:9283   */\n      tag_64\n      jump\t// in\n    tag_176:\n        /* \"#utility.yul\":9239:9284   */\n      tag_88\n      jump\t// in\n    tag_175:\n        /* \"#utility.yul\":9234:9237   */\n      dup3\n        /* \"#utility.yul\":9227:9285   */\n      mstore\n        /* \"#utility.yul\":9134:9291   */\n      pop\n      pop\n      jump\t// out\n        /* \"#utility.yul\":9297:9391   */\n    tag_90:\n        /* \"#utility.yul\":9330:9338   */\n      0x00\n        /* \"#utility.yul\":9378:9383   */\n      dup2\n        /* \"#utility.yul\":9374:9376   */\n      0x60\n        /* \"#utility.yul\":9370:9384   */\n      shl\n        /* \"#utility.yul\":9349:9384   */\n      swap1\n      pop\n        /* \"#utility.yul\":9297:9391   */\n      swap2\n      swap1\n      pop\n      jump\t// out\n        /* \"#utility.yul\":9397:9491   */\n    tag_91:\n        /* \"#utility.yul\":9436:9443   */\n      0x00\n        /* \"#utility.yul\":9465:9485   */\n      tag_179\n        /* \"#utility.yul\":9479:9484   */\n      dup3\n        /* \"#utility.yul\":9465:9485   */\n      tag_90\n      jump\t// in\n    tag_179:\n        /* \"#utility.yul\":9454:9485   */\n      swap1\n      pop\n        /* \"#utility.yul\":9397:9491   */\n      swap2\n      swap1\n      pop\n      jump\t// out\n        /* \"#utility.yul\":9497:9597   */\n    tag_92:\n        /* \"#utility.yul\":9536:9543   */\n      0x00\n        /* \"#utility.yul\":9565:9591   */\n      tag_181\n        /* \"#utility.yul\":9585:9590   */\n      dup3\n        /* \"#utility.yul\":9565:9591   */\n      tag_91\n      jump\t// in\n    tag_181:\n        /* \"#utility.yul\":9554:9591   */\n      swap1\n      pop\n        /* \"#utility.yul\":9497:9597   */\n      swap2\n      swap1\n      pop\n      jump\t// out\n        /* \"#utility.yul\":9603:9760   */\n    tag_93:\n        /* \"#utility.yul\":9708:9753   */\n      tag_183\n        /* \"#utility.yul\":9728:9752   */\n      tag_184\n        /* \"#utility.yul\":9746:9751   */\n      dup3\n        /* \"#utility.yul\":9728:9752   */\n      tag_67\n      jump\t// in\n    tag_184:\n        /* \"#utility.yul\":9708:9753   */\n      tag_92\n      jump\t// in\n    tag_183:\n        /* \"#utility.yul\":9703:9706   */\n      dup3\n        /* \"#utility.yul\":9696:9754   */\n      mstore\n        /* \"#utility.yul\":9603:9760   */\n      pop\n      pop\n      jump\t// out\n        /* \"#utility.yul\":9766:10304   */\n    tag_63:\n        /* \"#utility.yul\":9934:9937   */\n      0x00\n        /* \"#utility.yul\":9949:10024   */\n      tag_186\n        /* \"#utility.yul\":10020:10023   */\n      dup3\n        /* \"#utility.yul\":10011:10017   */\n      dup7\n        /* \"#utility.yul\":9949:10024   */\n      tag_89\n      jump\t// in\n    tag_186:\n        /* \"#utility.yul\":10049:10051   */\n      0x20\n        /* \"#utility.yul\":10044:10047   */\n      dup3\n        /* \"#utility.yul\":10040:10052   */\n      add\n        /* \"#utility.yul\":10033:10052   */\n      swap2\n      pop\n        /* \"#utility.yul\":10062:10137   */\n      tag_187\n        /* \"#utility.yul\":10133:10136   */\n      dup3\n        /* \"#utility.yul\":10124:10130   */\n      dup6\n        /* \"#utility.yul\":10062:10137   */\n      tag_89\n      jump\t// in\n    tag_187:\n        /* \"#utility.yul\":10162:10164   */\n      0x20\n        /* \"#utility.yul\":10157:10160   */\n      dup3\n        /* \"#utility.yul\":10153:10165   */\n      add\n        /* \"#utility.yul\":10146:10165   */\n      swap2\n      pop\n        /* \"#utility.yul\":10175:10250   */\n      tag_188\n        /* \"#utility.yul\":10246:10249   */\n      dup3\n        /* \"#utility.yul\":10237:10243   */\n      dup5\n        /* \"#utility.yul\":10175:10250   */\n      tag_93\n      jump\t// in\n    tag_188:\n        /* \"#utility.yul\":10275:10277   */\n      0x14\n        /* \"#utility.yul\":10270:10273   */\n      dup3\n        /* \"#utility.yul\":10266:10278   */\n      add\n        /* \"#utility.yul\":10259:10278   */\n      swap2\n      pop\n        /* \"#utility.yul\":10295:10298   */\n      dup2\n        /* \"#utility.yul\":10288:10298   */\n      swap1\n      pop\n        /* \"#utility.yul\":9766:10304   */\n      swap5\n      swap4\n      pop\n      pop\n      pop\n      pop\n      jump\t// out\n\n    auxdata: 0xa2646970667358221220027c899d1d84fdafc4872d23879ad00020f48e0c0d9d028cea3b12c6bf05a44f64736f6c63430008140033\n}\n",
				"bytecode": {
					"linkReferences": {},
					"object": "60806040526040518061014001604052806040518060400160405280600581526020017f313030303100000000000000000000000000000000000000000000000000000081525081526020016040518060400160405280600581526020017f313030303200000000000000000000000000000000000000000000000000000081525081526020016040518060400160405280600581526020017f313030303300000000000000000000000000000000000000000000000000000081525081526020016040518060400160405280600581526020017f313030303400000000000000000000000000000000000000000000000000000081525081526020016040518060400160405280600581526020017f313030303500000000000000000000000000000000000000000000000000000081525081526020016040518060400160405280600581526020017f313030303600000000000000000000000000000000000000000000000000000081525081526020016040518060400160405280600581526020017f313030303700000000000000000000000000000000000000000000000000000081525081526020016040518060400160405280600581526020017f313030303800000000000000000000000000000000000000000000000000000081525081526020016040518060400160405280600581526020017f313030303900000000000000000000000000000000000000000000000000000081525081526020016040518060400160405280600581526020017f32303030310000000000000000000000000000000000000000000000000000008152508152505f90600a6200026d929190620005ff565b506040518060a001604052806040518060400160405280600581526020017f323030303200000000000000000000000000000000000000000000000000000081525081526020016040518060400160405280600581526020017f323030303300000000000000000000000000000000000000000000000000000081525081526020016040518060400160405280600581526020017f323030303400000000000000000000000000000000000000000000000000000081525081526020016040518060400160405280600581526020017f323030303500000000000000000000000000000000000000000000000000000081525081526020016040518060400160405280600581526020017f32303030360000000000000000000000000000000000000000000000000000008152508152506001906005620003b09291906200065d565b5060405180608001604052806040518060400160405280600581526020017f333030303100000000000000000000000000000000000000000000000000000081525081526020016040518060400160405280600581526020017f333030303200000000000000000000000000000000000000000000000000000081525081526020016040518060400160405280600581526020017f333030303300000000000000000000000000000000000000000000000000000081525081526020016040518060400160405280600581526020017f33303030340000000000000000000000000000000000000000000000000000008152508152506002906004620004b8929190620006bb565b5060405180606001604052806040518060400160405280600581526020017f343030303100000000000000000000000000000000000000000000000000000081525081526020016040518060400160405280600581526020017f343030303200000000000000000000000000000000000000000000000000000081525081526020016040518060400160405280600581526020017f343030303300000000000000000000000000000000000000000000000000000081525081525060039060036200058592919062000719565b5034801562000592575f80fd5b506040516200157f3803806200157f8339818101604052810190620005b8919062000863565b8060045f6101000a81548173ffffffffffffffffffffffffffffffffffffffff021916908373ffffffffffffffffffffffffffffffffffffffff1602179055505062000bdb565b828054828255905f5260205f209081019282156200064a579160200282015b828111156200064957825182908162000638919062000af7565b50916020019190600101906200061e565b5b50905062000659919062000777565b5090565b828054828255905f5260205f20908101928215620006a8579160200282015b82811115620006a757825182908162000696919062000af7565b50916020019190600101906200067c565b5b509050620006b7919062000777565b5090565b828054828255905f5260205f2090810192821562000706579160200282015b8281111562000705578251829081620006f4919062000af7565b5091602001919060010190620006da565b5b50905062000715919062000777565b5090565b828054828255905f5260205f2090810192821562000764579160200282015b828111156200076357825182908162000752919062000af7565b509160200191906001019062000738565b5b50905062000773919062000777565b5090565b5b808211156200079a575f81816200079091906200079e565b5060010162000778565b5090565b508054620007ac90620008f7565b5f825580601f10620007bf5750620007de565b601f0160209004905f5260205f2090810190620007dd9190620007e1565b5b50565b5b80821115620007fa575f815f905550600101620007e2565b5090565b5f80fd5b5f73ffffffffffffffffffffffffffffffffffffffff82169050919050565b5f6200082d8262000802565b9050919050565b6200083f8162000821565b81146200084a575f80fd5b50565b5f815190506200085d8162000834565b92915050565b5f602082840312156200087b576200087a620007fe565b5b5f6200088a848285016200084d565b91505092915050565b5f81519050919050565b7f4e487b71000000000000000000000000000000000000000000000000000000005f52604160045260245ffd5b7f4e487b71000000000000000000000000000000000000000000000000000000005f52602260045260245ffd5b5f60028204905060018216806200090f57607f821691505b602082108103620009255762000924620008ca565b5b50919050565b5f819050815f5260205f209050919050565b5f6020601f8301049050919050565b5f82821b905092915050565b5f60088302620009897fffffffffffffffffffffffffffffffffffffffffffffffffffffffffffffffff826200094c565b6200099586836200094c565b95508019841693508086168417925050509392505050565b5f819050919050565b5f819050919050565b5f620009df620009d9620009d384620009ad565b620009b6565b620009ad565b9050919050565b5f819050919050565b620009fa83620009bf565b62000a1262000a0982620009e6565b84845462000958565b825550505050565b5f90565b62000a2862000a1a565b62000a35818484620009ef565b505050565b5b8181101562000a5c5762000a505f8262000a1e565b60018101905062000a3b565b5050565b601f82111562000aab5762000a75816200092b565b62000a80846200093d565b8101602085101562000a90578190505b62000aa862000a9f856200093d565b83018262000a3a565b50505b505050565b5f82821c905092915050565b5f62000acd5f198460080262000ab0565b1980831691505092915050565b5f62000ae7838362000abc565b9150826002028217905092915050565b62000b028262000893565b67ffffffffffffffff81111562000b1e5762000b1d6200089d565b5b62000b2a8254620008f7565b62000b3782828562000a60565b5f60209050601f83116001811462000b6d575f841562000b58578287015190505b62000b64858262000ada565b86555062000bd3565b601f19841662000b7d866200092b565b5f5b8281101562000ba65784890151825560018201915060208501945060208101905062000b7f565b8683101562000bc6578489015162000bc2601f89168262000abc565b8355505b6001600288020188555050505b505050505050565b6109968062000be95f395ff3fe608060405234801561000f575f80fd5b5060043610610029575f3560e01c80632f5be23e1461002d575b5f80fd5b610035610037565b005b5f6103e861004361040d565b61004d9190610476565b90505f61032082101561012d5760045f9054906101000a900473ffffffffffffffffffffffffffffffffffffffff1673ffffffffffffffffffffffffffffffffffffffff1663477bf177335f80805490506100a661040d565b6100b09190610476565b815481106100c1576100c06104a6565b5b905f5260205f20016040518363ffffffff1660e01b81526004016100e692919061065c565b6020604051808303815f875af1158015610102573d5f803e3d5ffd5b505050506040513d601f19601f8201168201806040525081019061012691906106cb565b90506103bb565b6103c082101561020b5760045f9054906101000a900473ffffffffffffffffffffffffffffffffffffffff1673ffffffffffffffffffffffffffffffffffffffff1663477bf177336001808054905061018461040d565b61018e9190610476565b8154811061019f5761019e6104a6565b5b905f5260205f20016040518363ffffffff1660e01b81526004016101c4929190610740565b6020604051808303815f875af11580156101e0573d5f803e3d5ffd5b505050506040513d601f19601f8201168201806040525081019061020491906106cb565b90506103ba565b6103e08210156102e95760045f9054906101000a900473ffffffffffffffffffffffffffffffffffffffff1673ffffffffffffffffffffffffffffffffffffffff1663477bf177336002808054905061026261040d565b61026c9190610476565b8154811061027d5761027c6104a6565b5b905f5260205f20016040518363ffffffff1660e01b81526004016102a29291906107cb565b6020604051808303815f875af11580156102be573d5f803e3d5ffd5b505050506040513d601f19601f820116820180604052508101906102e291906106cb565b90506103b9565b60045f9054906101000a900473ffffffffffffffffffffffffffffffffffffffff1673ffffffffffffffffffffffffffffffffffffffff1663477bf177336003808054905061033661040d565b6103409190610476565b81548110610351576103506104a6565b5b905f5260205f20016040518363ffffffff1660e01b8152600401610376929190610856565b6020604051808303815f875af1158015610392573d5f803e3d5ffd5b505050506040513d601f19601f820116820180604052508101906103b691906106cb565b90505b5b5b3373ffffffffffffffffffffffffffffffffffffffff167f267422fa3a8c9525acb851824d5f4579f8de0442b971deef203719962e3b9d4a8260405161040191906108a6565b60405180910390a25050565b5f42443360405160200161042393929190610924565b604051602081830303815290604052805190602001205f1c905090565b5f819050919050565b7f4e487b71000000000000000000000000000000000000000000000000000000005f52601260045260245ffd5b5f61048082610440565b915061048b83610440565b92508261049b5761049a610449565b5b828206905092915050565b7f4e487b71000000000000000000000000000000000000000000000000000000005f52603260045260245ffd5b5f73ffffffffffffffffffffffffffffffffffffffff82169050919050565b5f6104fc826104d3565b9050919050565b61050c816104f2565b82525050565b7f4e487b71000000000000000000000000000000000000000000000000000000005f52602260045260245ffd5b5f600282049050600182168061055657607f821691505b60208210810361056957610568610512565b5b50919050565b5f82825260208201905092915050565b5f819050815f5260205f209050919050565b5f815461059d8161053f565b6105a7818661056f565b9450600182165f81146105c157600181146105d757610609565b60ff198316865281151560200286019350610609565b6105e08561057f565b5f5b83811015610601578154818901526001820191506020810190506105e2565b808801955050505b50505092915050565b7f35300000000000000000000000000000000000000000000000000000000000005f82015250565b5f61064660028361056f565b915061065182610612565b602082019050919050565b5f60608201905061066f5f830185610503565b81810360208301526106818184610591565b905081810360408301526106948161063a565b90509392505050565b5f80fd5b6106aa81610440565b81146106b4575f80fd5b50565b5f815190506106c5816106a1565b92915050565b5f602082840312156106e0576106df61069d565b5b5f6106ed848285016106b7565b91505092915050565b7f31303000000000000000000000000000000000000000000000000000000000005f82015250565b5f61072a60038361056f565b9150610735826106f6565b602082019050919050565b5f6060820190506107535f830185610503565b81810360208301526107658184610591565b905081810360408301526107788161071e565b90509392505050565b7f32303000000000000000000000000000000000000000000000000000000000005f82015250565b5f6107b560038361056f565b91506107c082610781565b602082019050919050565b5f6060820190506107de5f830185610503565b81810360208301526107f08184610591565b90508181036040830152610803816107a9565b90509392505050565b7f34303000000000000000000000000000000000000000000000000000000000005f82015250565b5f61084060038361056f565b915061084b8261080c565b602082019050919050565b5f6060820190506108695f830185610503565b818103602083015261087b8184610591565b9050818103604083015261088e81610834565b90509392505050565b6108a081610440565b82525050565b5f6020820190506108b95f830184610897565b92915050565b5f819050919050565b6108d96108d482610440565b6108bf565b82525050565b5f8160601b9050919050565b5f6108f5826108df565b9050919050565b5f610906826108eb565b9050919050565b61091e610919826104f2565b6108fc565b82525050565b5f61092f82866108c8565b60208201915061093f82856108c8565b60208201915061094f828461090d565b60148201915081905094935050505056fea2646970667358221220027c899d1d84fdafc4872d23879ad00020f48e0c0d9d028cea3b12c6bf05a44f64736f6c63430008140033",
					"opcodes": "PUSH1 0x80 PUSH1 0x40 MSTORE PUSH1 0x40 MLOAD DUP1 PUSH2 0x140 ADD PUSH1 0x40 MSTORE DUP1 PUSH1 0x40 MLOAD DUP1 PUSH1 0x40 ADD PUSH1 0x40 MSTORE DUP1 PUSH1 0x5 DUP2 MSTORE PUSH1 0x20 ADD PUSH32 0x3130303031000000000000000000000000000000000000000000000000000000 DUP2 MSTORE POP DUP2 MSTORE PUSH1 0x20 ADD PUSH1 0x40 MLOAD DUP1 PUSH1 0x40 ADD PUSH1 0x40 MSTORE DUP1 PUSH1 0x5 DUP2 MSTORE PUSH1 0x20 ADD PUSH32 0x3130303032000000000000000000000000000000000000000000000000000000 DUP2 MSTORE POP DUP2 MSTORE PUSH1 0x20 ADD PUSH1 0x40 MLOAD DUP1 PUSH1 0x40 ADD PUSH1 0x40 MSTORE DUP1 PUSH1 0x5 DUP2 MSTORE PUSH1 0x20 ADD PUSH32 0x3130303033000000000000000000000000000000000000000000000000000000 DUP2 MSTORE POP DUP2 MSTORE PUSH1 0x20 ADD PUSH1 0x40 MLOAD DUP1 PUSH1 0x40 ADD PUSH1 0x40 MSTORE DUP1 PUSH1 0x5 DUP2 MSTORE PUSH1 0x20 ADD PUSH32 0x3130303034000000000000000000000000000000000000000000000000000000 DUP2 MSTORE POP DUP2 MSTORE PUSH1 0x20 ADD PUSH1 0x40 MLOAD DUP1 PUSH1 0x40 ADD PUSH1 0x40 MSTORE DUP1 PUSH1 0x5 DUP2 MSTORE PUSH1 0x20 ADD PUSH32 0x3130303035000000000000000000000000000000000000000000000000000000 DUP2 MSTORE POP DUP2 MSTORE PUSH1 0x20 ADD PUSH1 0x40 MLOAD DUP1 PUSH1 0x40 ADD PUSH1 0x40 MSTORE DUP1 PUSH1 0x5 DUP2 MSTORE PUSH1 0x20 ADD PUSH32 0x3130303036000000000000000000000000000000000000000000000000000000 DUP2 MSTORE POP DUP2 MSTORE PUSH1 0x20 ADD PUSH1 0x40 MLOAD DUP1 PUSH1 0x40 ADD PUSH1 0x40 MSTORE DUP1 PUSH1 0x5 DUP2 MSTORE PUSH1 0x20 ADD PUSH32 0x3130303037000000000000000000000000000000000000000000000000000000 DUP2 MSTORE POP DUP2 MSTORE PUSH1 0x20 ADD PUSH1 0x40 MLOAD DUP1 PUSH1 0x40 ADD PUSH1 0x40 MSTORE DUP1 PUSH1 0x5 DUP2 MSTORE PUSH1 0x20 ADD PUSH32 0x3130303038000000000000000000000000000000000000000000000000000000 DUP2 MSTORE POP DUP2 MSTORE PUSH1 0x20 ADD PUSH1 0x40 MLOAD DUP1 PUSH1 0x40 ADD PUSH1 0x40 MSTORE DUP1 PUSH1 0x5 DUP2 MSTORE PUSH1 0x20 ADD PUSH32 0x3130303039000000000000000000000000000000000000000000000000000000 DUP2 MSTORE POP DUP2 MSTORE PUSH1 0x20 ADD PUSH1 0x40 MLOAD DUP1 PUSH1 0x40 ADD PUSH1 0x40 MSTORE DUP1 PUSH1 0x5 DUP2 MSTORE PUSH1 0x20 ADD PUSH32 0x3230303031000000000000000000000000000000000000000000000000000000 DUP2 MSTORE POP DUP2 MSTORE POP PUSH0 SWAP1 PUSH1 0xA PUSH3 0x26D SWAP3 SWAP2 SWAP1 PUSH3 0x5FF JUMP JUMPDEST POP PUSH1 0x40 MLOAD DUP1 PUSH1 0xA0 ADD PUSH1 0x40 MSTORE DUP1 PUSH1 0x40 MLOAD DUP1 PUSH1 0x40 ADD PUSH1 0x40 MSTORE DUP1 PUSH1 0x5 DUP2 MSTORE PUSH1 0x20 ADD PUSH32 0x3230303032000000000000000000000000000000000000000000000000000000 DUP2 MSTORE POP DUP2 MSTORE PUSH1 0x20 ADD PUSH1 0x40 MLOAD DUP1 PUSH1 0x40 ADD PUSH1 0x40 MSTORE DUP1 PUSH1 0x5 DUP2 MSTORE PUSH1 0x20 ADD PUSH32 0x3230303033000000000000000000000000000000000000000000000000000000 DUP2 MSTORE POP DUP2 MSTORE PUSH1 0x20 ADD PUSH1 0x40 MLOAD DUP1 PUSH1 0x40 ADD PUSH1 0x40 MSTORE DUP1 PUSH1 0x5 DUP2 MSTORE PUSH1 0x20 ADD PUSH32 0x3230303034000000000000000000000000000000000000000000000000000000 DUP2 MSTORE POP DUP2 MSTORE PUSH1 0x20 ADD PUSH1 0x40 MLOAD DUP1 PUSH1 0x40 ADD PUSH1 0x40 MSTORE DUP1 PUSH1 0x5 DUP2 MSTORE PUSH1 0x20 ADD PUSH32 0x3230303035000000000000000000000000000000000000000000000000000000 DUP2 MSTORE POP DUP2 MSTORE PUSH1 0x20 ADD PUSH1 0x40 MLOAD DUP1 PUSH1 0x40 ADD PUSH1 0x40 MSTORE DUP1 PUSH1 0x5 DUP2 MSTORE PUSH1 0x20 ADD PUSH32 0x3230303036000000000000000000000000000000000000000000000000000000 DUP2 MSTORE POP DUP2 MSTORE POP PUSH1 0x1 SWAP1 PUSH1 0x5 PUSH3 0x3B0 SWAP3 SWAP2 SWAP1 PUSH3 0x65D JUMP JUMPDEST POP PUSH1 0x40 MLOAD DUP1 PUSH1 0x80 ADD PUSH1 0x40 MSTORE DUP1 PUSH1 0x40 MLOAD DUP1 PUSH1 0x40 ADD PUSH1 0x40 MSTORE DUP1 PUSH1 0x5 DUP2 MSTORE PUSH1 0x20 ADD PUSH32 0x3330303031000000000000000000000000000000000000000000000000000000 DUP2 MSTORE POP DUP2 MSTORE PUSH1 0x20 ADD PUSH1 0x40 MLOAD DUP1 PUSH1 0x40 ADD PUSH1 0x40 MSTORE DUP1 PUSH1 0x5 DUP2 MSTORE PUSH1 0x20 ADD PUSH32 0x3330303032000000000000000000000000000000000000000000000000000000 DUP2 MSTORE POP DUP2 MSTORE PUSH1 0x20 ADD PUSH1 0x40 MLOAD DUP1 PUSH1 0x40 ADD PUSH1 0x40 MSTORE DUP1 PUSH1 0x5 DUP2 MSTORE PUSH1 0x20 ADD PUSH32 0x3330303033000000000000000000000000000000000000000000000000000000 DUP2 MSTORE POP DUP2 MSTORE PUSH1 0x20 ADD PUSH1 0x40 MLOAD DUP1 PUSH1 0x40 ADD PUSH1 0x40 MSTORE DUP1 PUSH1 0x5 DUP2 MSTORE PUSH1 0x20 ADD PUSH32 0x3330303034000000000000000000000000000000000000000000000000000000 DUP2 MSTORE POP DUP2 MSTORE POP PUSH1 0x2 SWAP1 PUSH1 0x4 PUSH3 0x4B8 SWAP3 SWAP2 SWAP1 PUSH3 0x6BB JUMP JUMPDEST POP PUSH1 0x40 MLOAD DUP1 PUSH1 0x60 ADD PUSH1 0x40 MSTORE DUP1 PUSH1 0x40 MLOAD DUP1 PUSH1 0x40 ADD PUSH1 0x40 MSTORE DUP1 PUSH1 0x5 DUP2 MSTORE PUSH1 0x20 ADD PUSH32 0x3430303031000000000000000000000000000000000000000000000000000000 DUP2 MSTORE POP DUP2 MSTORE PUSH1 0x20 ADD PUSH1 0x40 MLOAD DUP1 PUSH1 0x40 ADD PUSH1 0x40 MSTORE DUP1 PUSH1 0x5 DUP2 MSTORE PUSH1 0x20 ADD PUSH32 0x3430303032000000000000000000000000000000000000000000000000000000 DUP2 MSTORE POP DUP2 MSTORE PUSH1 0x20 ADD PUSH1 0x40 MLOAD DUP1 PUSH1 0x40 ADD PUSH1 0x40 MSTORE DUP1 PUSH1 0x5 DUP2 MSTORE PUSH1 0x20 ADD PUSH32 0x3430303033000000000000000000000000000000000000000000000000000000 DUP2 MSTORE POP DUP2 MSTORE POP PUSH1 0x3 SWAP1 PUSH1 0x3 PUSH3 0x585 SWAP3 SWAP2 SWAP1 PUSH3 0x719 JUMP JUMPDEST POP CALLVALUE DUP1 ISZERO PUSH3 0x592 JUMPI PUSH0 DUP1 REVERT JUMPDEST POP PUSH1 0x40 MLOAD PUSH3 0x157F CODESIZE SUB DUP1 PUSH3 0x157F DUP4 CODECOPY DUP2 DUP2 ADD PUSH1 0x40 MSTORE DUP2 ADD SWAP1 PUSH3 0x5B8 SWAP2 SWAP1 PUSH3 0x863 JUMP JUMPDEST DUP1 PUSH1 0x4 PUSH0 PUSH2 0x100 EXP DUP2 SLOAD DUP2 PUSH20 0xFFFFFFFFFFFFFFFFFFFFFFFFFFFFFFFFFFFFFFFF MUL NOT AND SWAP1 DUP4 PUSH20 0xFFFFFFFFFFFFFFFFFFFFFFFFFFFFFFFFFFFFFFFF AND MUL OR SWAP1 SSTORE POP POP PUSH3 0xBDB JUMP JUMPDEST DUP3 DUP1 SLOAD DUP3 DUP3 SSTORE SWAP1 PUSH0 MSTORE PUSH1 0x20 PUSH0 KECCAK256 SWAP1 DUP2 ADD SWAP3 DUP3 ISZERO PUSH3 0x64A JUMPI SWAP2 PUSH1 0x20 MUL DUP3 ADD JUMPDEST DUP3 DUP2 GT ISZERO PUSH3 0x649 JUMPI DUP3 MLOAD DUP3 SWAP1 DUP2 PUSH3 0x638 SWAP2 SWAP1 PUSH3 0xAF7 JUMP JUMPDEST POP SWAP2 PUSH1 0x20 ADD SWAP2 SWAP1 PUSH1 0x1 ADD SWAP1 PUSH3 0x61E JUMP JUMPDEST JUMPDEST POP SWAP1 POP PUSH3 0x659 SWAP2 SWAP1 PUSH3 0x777 JUMP JUMPDEST POP SWAP1 JUMP JUMPDEST DUP3 DUP1 SLOAD DUP3 DUP3 SSTORE SWAP1 PUSH0 MSTORE PUSH1 0x20 PUSH0 KECCAK256 SWAP1 DUP2 ADD SWAP3 DUP3 ISZERO PUSH3 0x6A8 JUMPI SWAP2 PUSH1 0x20 MUL DUP3 ADD JUMPDEST DUP3 DUP2 GT ISZERO PUSH3 0x6A7 JUMPI DUP3 MLOAD DUP3 SWAP1 DUP2 PUSH3 0x696 SWAP2 SWAP1 PUSH3 0xAF7 JUMP JUMPDEST POP SWAP2 PUSH1 0x20 ADD SWAP2 SWAP1 PUSH1 0x1 ADD SWAP1 PUSH3 0x67C JUMP JUMPDEST JUMPDEST POP SWAP1 POP PUSH3 0x6B7 SWAP2 SWAP1 PUSH3 0x777 JUMP JUMPDEST POP SWAP1 JUMP JUMPDEST DUP3 DUP1 SLOAD DUP3 DUP3 SSTORE SWAP1 PUSH0 MSTORE PUSH1 0x20 PUSH0 KECCAK256 SWAP1 DUP2 ADD SWAP3 DUP3 ISZERO PUSH3 0x706 JUMPI SWAP2 PUSH1 0x20 MUL DUP3 ADD JUMPDEST DUP3 DUP2 GT ISZERO PUSH3 0x705 JUMPI DUP3 MLOAD DUP3 SWAP1 DUP2 PUSH3 0x6F4 SWAP2 SWAP1 PUSH3 0xAF7 JUMP JUMPDEST POP SWAP2 PUSH1 0x20 ADD SWAP2 SWAP1 PUSH1 0x1 ADD SWAP1 PUSH3 0x6DA JUMP JUMPDEST JUMPDEST POP SWAP1 POP PUSH3 0x715 SWAP2 SWAP1 PUSH3 0x777 JUMP JUMPDEST POP SWAP1 JUMP JUMPDEST DUP3 DUP1 SLOAD DUP3 DUP3 SSTORE SWAP1 PUSH0 MSTORE PUSH1 0x20 PUSH0 KECCAK256 SWAP1 DUP2 ADD SWAP3 DUP3 ISZERO PUSH3 0x764 JUMPI SWAP2 PUSH1 0x20 MUL DUP3 ADD JUMPDEST DUP3 DUP2 GT ISZERO PUSH3 0x763 JUMPI DUP3 MLOAD DUP3 SWAP1 DUP2 PUSH3 0x752 SWAP2 SWAP1 PUSH3 0xAF7 JUMP JUMPDEST POP SWAP2 PUSH1 0x20 ADD SWAP2 SWAP1 PUSH1 0x1 ADD SWAP1 PUSH3 0x738 JUMP JUMPDEST JUMPDEST POP SWAP1 POP PUSH3 0x773 SWAP2 SWAP1 PUSH3 0x777 JUMP JUMPDEST POP SWAP1 JUMP JUMPDEST JUMPDEST DUP1 DUP3 GT ISZERO PUSH3 0x79A JUMPI PUSH0 DUP2 DUP2 PUSH3 0x790 SWAP2 SWAP1 PUSH3 0x79E JUMP JUMPDEST POP PUSH1 0x1 ADD PUSH3 0x778 JUMP JUMPDEST POP SWAP1 JUMP JUMPDEST POP DUP1 SLOAD PUSH3 0x7AC SWAP1 PUSH3 0x8F7 JUMP JUMPDEST PUSH0 DUP3 SSTORE DUP1 PUSH1 0x1F LT PUSH3 0x7BF JUMPI POP PUSH3 0x7DE JUMP JUMPDEST PUSH1 0x1F ADD PUSH1 0x20 SWAP1 DIV SWAP1 PUSH0 MSTORE PUSH1 0x20 PUSH0 KECCAK256 SWAP1 DUP2 ADD SWAP1 PUSH3 0x7DD SWAP2 SWAP1 PUSH3 0x7E1 JUMP JUMPDEST JUMPDEST POP JUMP JUMPDEST JUMPDEST DUP1 DUP3 GT ISZERO PUSH3 0x7FA JUMPI PUSH0 DUP2 PUSH0 SWAP1 SSTORE POP PUSH1 0x1 ADD PUSH3 0x7E2 JUMP JUMPDEST POP SWAP1 JUMP JUMPDEST PUSH0 DUP1 REVERT JUMPDEST PUSH0 PUSH20 0xFFFFFFFFFFFFFFFFFFFFFFFFFFFFFFFFFFFFFFFF DUP3 AND SWAP1 POP SWAP2 SWAP1 POP JUMP JUMPDEST PUSH0 PUSH3 0x82D DUP3 PUSH3 0x802 JUMP JUMPDEST SWAP1 POP SWAP2 SWAP1 POP JUMP JUMPDEST PUSH3 0x83F DUP2 PUSH3 0x821 JUMP JUMPDEST DUP2 EQ PUSH3 0x84A JUMPI PUSH0 DUP1 REVERT JUMPDEST POP JUMP JUMPDEST PUSH0 DUP2 MLOAD SWAP1 POP PUSH3 0x85D DUP2 PUSH3 0x834 JUMP JUMPDEST SWAP3 SWAP2 POP POP JUMP JUMPDEST PUSH0 PUSH1 0x20 DUP3 DUP5 SUB SLT ISZERO PUSH3 0x87B JUMPI PUSH3 0x87A PUSH3 0x7FE JUMP JUMPDEST JUMPDEST PUSH0 PUSH3 0x88A DUP5 DUP3 DUP6 ADD PUSH3 0x84D JUMP JUMPDEST SWAP2 POP POP SWAP3 SWAP2 POP POP JUMP JUMPDEST PUSH0 DUP2 MLOAD SWAP1 POP SWAP2 SWAP1 POP JUMP JUMPDEST PUSH32 0x4E487B7100000000000000000000000000000000000000000000000000000000 PUSH0 MSTORE PUSH1 0x41 PUSH1 0x4 MSTORE PUSH1 0x24 PUSH0 REVERT JUMPDEST PUSH32 0x4E487B7100000000000000000000000000000000000000000000000000000000 PUSH0 MSTORE PUSH1 0x22 PUSH1 0x4 MSTORE PUSH1 0x24 PUSH0 REVERT JUMPDEST PUSH0 PUSH1 0x2 DUP3 DIV SWAP1 POP PUSH1 0x1 DUP3 AND DUP1 PUSH3 0x90F JUMPI PUSH1 0x7F DUP3 AND SWAP2 POP JUMPDEST PUSH1 0x20 DUP3 LT DUP2 SUB PUSH3 0x925 JUMPI PUSH3 0x924 PUSH3 0x8CA JUMP JUMPDEST JUMPDEST POP SWAP2 SWAP1 POP JUMP JUMPDEST PUSH0 DUP2 SWAP1 POP DUP2 PUSH0 MSTORE PUSH1 0x20 PUSH0 KECCAK256 SWAP1 POP SWAP2 SWAP1 POP JUMP JUMPDEST PUSH0 PUSH1 0x20 PUSH1 0x1F DUP4 ADD DIV SWAP1 POP SWAP2 SWAP1 POP JUMP JUMPDEST PUSH0 DUP3 DUP3 SHL SWAP1 POP SWAP3 SWAP2 POP POP JUMP JUMPDEST PUSH0 PUSH1 0x8 DUP4 MUL PUSH3 0x989 PUSH32 0xFFFFFFFFFFFFFFFFFFFFFFFFFFFFFFFFFFFFFFFFFFFFFFFFFFFFFFFFFFFFFFFF DUP3 PUSH3 0x94C JUMP JUMPDEST PUSH3 0x995 DUP7 DUP4 PUSH3 0x94C JUMP JUMPDEST SWAP6 POP DUP1 NOT DUP5 AND SWAP4 POP DUP1 DUP7 AND DUP5 OR SWAP3 POP POP POP SWAP4 SWAP3 POP POP POP JUMP JUMPDEST PUSH0 DUP2 SWAP1 POP SWAP2 SWAP1 POP JUMP JUMPDEST PUSH0 DUP2 SWAP1 POP SWAP2 SWAP1 POP JUMP JUMPDEST PUSH0 PUSH3 0x9DF PUSH3 0x9D9 PUSH3 0x9D3 DUP5 PUSH3 0x9AD JUMP JUMPDEST PUSH3 0x9B6 JUMP JUMPDEST PUSH3 0x9AD JUMP JUMPDEST SWAP1 POP SWAP2 SWAP1 POP JUMP JUMPDEST PUSH0 DUP2 SWAP1 POP SWAP2 SWAP1 POP JUMP JUMPDEST PUSH3 0x9FA DUP4 PUSH3 0x9BF JUMP JUMPDEST PUSH3 0xA12 PUSH3 0xA09 DUP3 PUSH3 0x9E6 JUMP JUMPDEST DUP5 DUP5 SLOAD PUSH3 0x958 JUMP JUMPDEST DUP3 SSTORE POP POP POP POP JUMP JUMPDEST PUSH0 SWAP1 JUMP JUMPDEST PUSH3 0xA28 PUSH3 0xA1A JUMP JUMPDEST PUSH3 0xA35 DUP2 DUP5 DUP5 PUSH3 0x9EF JUMP JUMPDEST POP POP POP JUMP JUMPDEST JUMPDEST DUP2 DUP2 LT ISZERO PUSH3 0xA5C JUMPI PUSH3 0xA50 PUSH0 DUP3 PUSH3 0xA1E JUMP JUMPDEST PUSH1 0x1 DUP2 ADD SWAP1 POP PUSH3 0xA3B JUMP JUMPDEST POP POP JUMP JUMPDEST PUSH1 0x1F DUP3 GT ISZERO PUSH3 0xAAB JUMPI PUSH3 0xA75 DUP2 PUSH3 0x92B JUMP JUMPDEST PUSH3 0xA80 DUP5 PUSH3 0x93D JUMP JUMPDEST DUP2 ADD PUSH1 0x20 DUP6 LT ISZERO PUSH3 0xA90 JUMPI DUP2 SWAP1 POP JUMPDEST PUSH3 0xAA8 PUSH3 0xA9F DUP6 PUSH3 0x93D JUMP JUMPDEST DUP4 ADD DUP3 PUSH3 0xA3A JUMP JUMPDEST POP POP JUMPDEST POP POP POP JUMP JUMPDEST PUSH0 DUP3 DUP3 SHR SWAP1 POP SWAP3 SWAP2 POP POP JUMP JUMPDEST PUSH0 PUSH3 0xACD PUSH0 NOT DUP5 PUSH1 0x8 MUL PUSH3 0xAB0 JUMP JUMPDEST NOT DUP1 DUP4 AND SWAP2 POP POP SWAP3 SWAP2 POP POP JUMP JUMPDEST PUSH0 PUSH3 0xAE7 DUP4 DUP4 PUSH3 0xABC JUMP JUMPDEST SWAP2 POP DUP3 PUSH1 0x2 MUL DUP3 OR SWAP1 POP SWAP3 SWAP2 POP POP JUMP JUMPDEST PUSH3 0xB02 DUP3 PUSH3 0x893 JUMP JUMPDEST PUSH8 0xFFFFFFFFFFFFFFFF DUP2 GT ISZERO PUSH3 0xB1E JUMPI PUSH3 0xB1D PUSH3 0x89D JUMP JUMPDEST JUMPDEST PUSH3 0xB2A DUP3 SLOAD PUSH3 0x8F7 JUMP JUMPDEST PUSH3 0xB37 DUP3 DUP3 DUP6 PUSH3 0xA60 JUMP JUMPDEST PUSH0 PUSH1 0x20 SWAP1 POP PUSH1 0x1F DUP4 GT PUSH1 0x1 DUP2 EQ PUSH3 0xB6D JUMPI PUSH0 DUP5 ISZERO PUSH3 0xB58 JUMPI DUP3 DUP8 ADD MLOAD SWAP1 POP JUMPDEST PUSH3 0xB64 DUP6 DUP3 PUSH3 0xADA JUMP JUMPDEST DUP7 SSTORE POP PUSH3 0xBD3 JUMP JUMPDEST PUSH1 0x1F NOT DUP5 AND PUSH3 0xB7D DUP7 PUSH3 0x92B JUMP JUMPDEST PUSH0 JUMPDEST DUP3 DUP2 LT ISZERO PUSH3 0xBA6 JUMPI DUP5 DUP10 ADD MLOAD DUP3 SSTORE PUSH1 0x1 DUP3 ADD SWAP2 POP PUSH1 0x20 DUP6 ADD SWAP5 POP PUSH1 0x20 DUP2 ADD SWAP1 POP PUSH3 0xB7F JUMP JUMPDEST DUP7 DUP4 LT ISZERO PUSH3 0xBC6 JUMPI DUP5 DUP10 ADD MLOAD PUSH3 0xBC2 PUSH1 0x1F DUP10 AND DUP3 PUSH3 0xABC JUMP JUMPDEST DUP4 SSTORE POP JUMPDEST PUSH1 0x1 PUSH1 0x2 DUP9 MUL ADD DUP9 SSTORE POP POP POP JUMPDEST POP POP POP POP POP POP JUMP JUMPDEST PUSH2 0x996 DUP1 PUSH3 0xBE9 PUSH0 CODECOPY PUSH0 RETURN INVALID PUSH1 0x80 PUSH1 0x40 MSTORE CALLVALUE DUP1 ISZERO PUSH2 0xF JUMPI PUSH0 DUP1 REVERT JUMPDEST POP PUSH1 0x4 CALLDATASIZE LT PUSH2 0x29 JUMPI PUSH0 CALLDATALOAD PUSH1 0xE0 SHR DUP1 PUSH4 0x2F5BE23E EQ PUSH2 0x2D JUMPI JUMPDEST PUSH0 DUP1 REVERT JUMPDEST PUSH2 0x35 PUSH2 0x37 JUMP JUMPDEST STOP JUMPDEST PUSH0 PUSH2 0x3E8 PUSH2 0x43 PUSH2 0x40D JUMP JUMPDEST PUSH2 0x4D SWAP2 SWAP1 PUSH2 0x476 JUMP JUMPDEST SWAP1 POP PUSH0 PUSH2 0x320 DUP3 LT ISZERO PUSH2 0x12D JUMPI PUSH1 0x4 PUSH0 SWAP1 SLOAD SWAP1 PUSH2 0x100 EXP SWAP1 DIV PUSH20 0xFFFFFFFFFFFFFFFFFFFFFFFFFFFFFFFFFFFFFFFF AND PUSH20 0xFFFFFFFFFFFFFFFFFFFFFFFFFFFFFFFFFFFFFFFF AND PUSH4 0x477BF177 CALLER PUSH0 DUP1 DUP1 SLOAD SWAP1 POP PUSH2 0xA6 PUSH2 0x40D JUMP JUMPDEST PUSH2 0xB0 SWAP2 SWAP1 PUSH2 0x476 JUMP JUMPDEST DUP2 SLOAD DUP2 LT PUSH2 0xC1 JUMPI PUSH2 0xC0 PUSH2 0x4A6 JUMP JUMPDEST JUMPDEST SWAP1 PUSH0 MSTORE PUSH1 0x20 PUSH0 KECCAK256 ADD PUSH1 0x40 MLOAD DUP4 PUSH4 0xFFFFFFFF AND PUSH1 0xE0 SHL DUP2 MSTORE PUSH1 0x4 ADD PUSH2 0xE6 SWAP3 SWAP2 SWAP1 PUSH2 0x65C JUMP JUMPDEST PUSH1 0x20 PUSH1 0x40 MLOAD DUP1 DUP4 SUB DUP2 PUSH0 DUP8 GAS CALL ISZERO DUP1 ISZERO PUSH2 0x102 JUMPI RETURNDATASIZE PUSH0 DUP1 RETURNDATACOPY RETURNDATASIZE PUSH0 REVERT JUMPDEST POP POP POP POP PUSH1 0x40 MLOAD RETURNDATASIZE PUSH1 0x1F NOT PUSH1 0x1F DUP3 ADD AND DUP3 ADD DUP1 PUSH1 0x40 MSTORE POP DUP2 ADD SWAP1 PUSH2 0x126 SWAP2 SWAP1 PUSH2 0x6CB JUMP JUMPDEST SWAP1 POP PUSH2 0x3BB JUMP JUMPDEST PUSH2 0x3C0 DUP3 LT ISZERO PUSH2 0x20B JUMPI PUSH1 0x4 PUSH0 SWAP1 SLOAD SWAP1 PUSH2 0x100 EXP SWAP1 DIV PUSH20 0xFFFFFFFFFFFFFFFFFFFFFFFFFFFFFFFFFFFFFFFF AND PUSH20 0xFFFFFFFFFFFFFFFFFFFFFFFFFFFFFFFFFFFFFFFF AND PUSH4 0x477BF177 CALLER PUSH1 0x1 DUP1 DUP1 SLOAD SWAP1 POP PUSH2 0x184 PUSH2 0x40D JUMP JUMPDEST PUSH2 0x18E SWAP2 SWAP1 PUSH2 0x476 JUMP JUMPDEST DUP2 SLOAD DUP2 LT PUSH2 0x19F JUMPI PUSH2 0x19E PUSH2 0x4A6 JUMP JUMPDEST JUMPDEST SWAP1 PUSH0 MSTORE PUSH1 0x20 PUSH0 KECCAK256 ADD PUSH1 0x40 MLOAD DUP4 PUSH4 0xFFFFFFFF AND PUSH1 0xE0 SHL DUP2 MSTORE PUSH1 0x4 ADD PUSH2 0x1C4 SWAP3 SWAP2 SWAP1 PUSH2 0x740 JUMP JUMPDEST PUSH1 0x20 PUSH1 0x40 MLOAD DUP1 DUP4 SUB DUP2 PUSH0 DUP8 GAS CALL ISZERO DUP1 ISZERO PUSH2 0x1E0 JUMPI RETURNDATASIZE PUSH0 DUP1 RETURNDATACOPY RETURNDATASIZE PUSH0 REVERT JUMPDEST POP POP POP POP PUSH1 0x40 MLOAD RETURNDATASIZE PUSH1 0x1F NOT PUSH1 0x1F DUP3 ADD AND DUP3 ADD DUP1 PUSH1 0x40 MSTORE POP DUP2 ADD SWAP1 PUSH2 0x204 SWAP2 SWAP1 PUSH2 0x6CB JUMP JUMPDEST SWAP1 POP PUSH2 0x3BA JUMP JUMPDEST PUSH2 0x3E0 DUP3 LT ISZERO PUSH2 0x2E9 JUMPI PUSH1 0x4 PUSH0 SWAP1 SLOAD SWAP1 PUSH2 0x100 EXP SWAP1 DIV PUSH20 0xFFFFFFFFFFFFFFFFFFFFFFFFFFFFFFFFFFFFFFFF AND PUSH20 0xFFFFFFFFFFFFFFFFFFFFFFFFFFFFFFFFFFFFFFFF AND PUSH4 0x477BF177 CALLER PUSH1 0x2 DUP1 DUP1 SLOAD SWAP1 POP PUSH2 0x262 PUSH2 0x40D JUMP JUMPDEST PUSH2 0x26C SWAP2 SWAP1 PUSH2 0x476 JUMP JUMPDEST DUP2 SLOAD DUP2 LT PUSH2 0x27D JUMPI PUSH2 0x27C PUSH2 0x4A6 JUMP JUMPDEST JUMPDEST SWAP1 PUSH0 MSTORE PUSH1 0x20 PUSH0 KECCAK256 ADD PUSH1 0x40 MLOAD DUP4 PUSH4 0xFFFFFFFF AND PUSH1 0xE0 SHL DUP2 MSTORE PUSH1 0x4 ADD PUSH2 0x2A2 SWAP3 SWAP2 SWAP1 PUSH2 0x7CB JUMP JUMPDEST PUSH1 0x20 PUSH1 0x40 MLOAD DUP1 DUP4 SUB DUP2 PUSH0 DUP8 GAS CALL ISZERO DUP1 ISZERO PUSH2 0x2BE JUMPI RETURNDATASIZE PUSH0 DUP1 RETURNDATACOPY RETURNDATASIZE PUSH0 REVERT JUMPDEST POP POP POP POP PUSH1 0x40 MLOAD RETURNDATASIZE PUSH1 0x1F NOT PUSH1 0x1F DUP3 ADD AND DUP3 ADD DUP1 PUSH1 0x40 MSTORE POP DUP2 ADD SWAP1 PUSH2 0x2E2 SWAP2 SWAP1 PUSH2 0x6CB JUMP JUMPDEST SWAP1 POP PUSH2 0x3B9 JUMP JUMPDEST PUSH1 0x4 PUSH0 SWAP1 SLOAD SWAP1 PUSH2 0x100 EXP SWAP1 DIV PUSH20 0xFFFFFFFFFFFFFFFFFFFFFFFFFFFFFFFFFFFFFFFF AND PUSH20 0xFFFFFFFFFFFFFFFFFFFFFFFFFFFFFFFFFFFFFFFF AND PUSH4 0x477BF177 CALLER PUSH1 0x3 DUP1 DUP1 SLOAD SWAP1 POP PUSH2 0x336 PUSH2 0x40D JUMP JUMPDEST PUSH2 0x340 SWAP2 SWAP1 PUSH2 0x476 JUMP JUMPDEST DUP2 SLOAD DUP2 LT PUSH2 0x351 JUMPI PUSH2 0x350 PUSH2 0x4A6 JUMP JUMPDEST JUMPDEST SWAP1 PUSH0 MSTORE PUSH1 0x20 PUSH0 KECCAK256 ADD PUSH1 0x40 MLOAD DUP4 PUSH4 0xFFFFFFFF AND PUSH1 0xE0 SHL DUP2 MSTORE PUSH1 0x4 ADD PUSH2 0x376 SWAP3 SWAP2 SWAP1 PUSH2 0x856 JUMP JUMPDEST PUSH1 0x20 PUSH1 0x40 MLOAD DUP1 DUP4 SUB DUP2 PUSH0 DUP8 GAS CALL ISZERO DUP1 ISZERO PUSH2 0x392 JUMPI RETURNDATASIZE PUSH0 DUP1 RETURNDATACOPY RETURNDATASIZE PUSH0 REVERT JUMPDEST POP POP POP POP PUSH1 0x40 MLOAD RETURNDATASIZE PUSH1 0x1F NOT PUSH1 0x1F DUP3 ADD AND DUP3 ADD DUP1 PUSH1 0x40 MSTORE POP DUP2 ADD SWAP1 PUSH2 0x3B6 SWAP2 SWAP1 PUSH2 0x6CB JUMP JUMPDEST SWAP1 POP JUMPDEST JUMPDEST JUMPDEST CALLER PUSH20 0xFFFFFFFFFFFFFFFFFFFFFFFFFFFFFFFFFFFFFFFF AND PUSH32 0x267422FA3A8C9525ACB851824D5F4579F8DE0442B971DEEF203719962E3B9D4A DUP3 PUSH1 0x40 MLOAD PUSH2 0x401 SWAP2 SWAP1 PUSH2 0x8A6 JUMP JUMPDEST PUSH1 0x40 MLOAD DUP1 SWAP2 SUB SWAP1 LOG2 POP POP JUMP JUMPDEST PUSH0 TIMESTAMP PREVRANDAO CALLER PUSH1 0x40 MLOAD PUSH1 0x20 ADD PUSH2 0x423 SWAP4 SWAP3 SWAP2 SWAP1 PUSH2 0x924 JUMP JUMPDEST PUSH1 0x40 MLOAD PUSH1 0x20 DUP2 DUP4 SUB SUB DUP2 MSTORE SWAP1 PUSH1 0x40 MSTORE DUP1 MLOAD SWAP1 PUSH1 0x20 ADD KECCAK256 PUSH0 SHR SWAP1 POP SWAP1 JUMP JUMPDEST PUSH0 DUP2 SWAP1 POP SWAP2 SWAP1 POP JUMP JUMPDEST PUSH32 0x4E487B7100000000000000000000000000000000000000000000000000000000 PUSH0 MSTORE PUSH1 0x12 PUSH1 0x4 MSTORE PUSH1 0x24 PUSH0 REVERT JUMPDEST PUSH0 PUSH2 0x480 DUP3 PUSH2 0x440 JUMP JUMPDEST SWAP2 POP PUSH2 0x48B DUP4 PUSH2 0x440 JUMP JUMPDEST SWAP3 POP DUP3 PUSH2 0x49B JUMPI PUSH2 0x49A PUSH2 0x449 JUMP JUMPDEST JUMPDEST DUP3 DUP3 MOD SWAP1 POP SWAP3 SWAP2 POP POP JUMP JUMPDEST PUSH32 0x4E487B7100000000000000000000000000000000000000000000000000000000 PUSH0 MSTORE PUSH1 0x32 PUSH1 0x4 MSTORE PUSH1 0x24 PUSH0 REVERT JUMPDEST PUSH0 PUSH20 0xFFFFFFFFFFFFFFFFFFFFFFFFFFFFFFFFFFFFFFFF DUP3 AND SWAP1 POP SWAP2 SWAP1 POP JUMP JUMPDEST PUSH0 PUSH2 0x4FC DUP3 PUSH2 0x4D3 JUMP JUMPDEST SWAP1 POP SWAP2 SWAP1 POP JUMP JUMPDEST PUSH2 0x50C DUP2 PUSH2 0x4F2 JUMP JUMPDEST DUP3 MSTORE POP POP JUMP JUMPDEST PUSH32 0x4E487B7100000000000000000000000000000000000000000000000000000000 PUSH0 MSTORE PUSH1 0x22 PUSH1 0x4 MSTORE PUSH1 0x24 PUSH0 REVERT JUMPDEST PUSH0 PUSH1 0x2 DUP3 DIV SWAP1 POP PUSH1 0x1 DUP3 AND DUP1 PUSH2 0x556 JUMPI PUSH1 0x7F DUP3 AND SWAP2 POP JUMPDEST PUSH1 0x20 DUP3 LT DUP2 SUB PUSH2 0x569 JUMPI PUSH2 0x568 PUSH2 0x512 JUMP JUMPDEST JUMPDEST POP SWAP2 SWAP1 POP JUMP JUMPDEST PUSH0 DUP3 DUP3 MSTORE PUSH1 0x20 DUP3 ADD SWAP1 POP SWAP3 SWAP2 POP POP JUMP JUMPDEST PUSH0 DUP2 SWAP1 POP DUP2 PUSH0 MSTORE PUSH1 0x20 PUSH0 KECCAK256 SWAP1 POP SWAP2 SWAP1 POP JUMP JUMPDEST PUSH0 DUP2 SLOAD PUSH2 0x59D DUP2 PUSH2 0x53F JUMP JUMPDEST PUSH2 0x5A7 DUP2 DUP7 PUSH2 0x56F JUMP JUMPDEST SWAP5 POP PUSH1 0x1 DUP3 AND PUSH0 DUP2 EQ PUSH2 0x5C1 JUMPI PUSH1 0x1 DUP2 EQ PUSH2 0x5D7 JUMPI PUSH2 0x609 JUMP JUMPDEST PUSH1 0xFF NOT DUP4 AND DUP7 MSTORE DUP2 ISZERO ISZERO PUSH1 0x20 MUL DUP7 ADD SWAP4 POP PUSH2 0x609 JUMP JUMPDEST PUSH2 0x5E0 DUP6 PUSH2 0x57F JUMP JUMPDEST PUSH0 JUMPDEST DUP4 DUP2 LT ISZERO PUSH2 0x601 JUMPI DUP2 SLOAD DUP2 DUP10 ADD MSTORE PUSH1 0x1 DUP3 ADD SWAP2 POP PUSH1 0x20 DUP2 ADD SWAP1 POP PUSH2 0x5E2 JUMP JUMPDEST DUP1 DUP9 ADD SWAP6 POP POP POP JUMPDEST POP POP POP SWAP3 SWAP2 POP POP JUMP JUMPDEST PUSH32 0x3530000000000000000000000000000000000000000000000000000000000000 PUSH0 DUP3 ADD MSTORE POP JUMP JUMPDEST PUSH0 PUSH2 0x646 PUSH1 0x2 DUP4 PUSH2 0x56F JUMP JUMPDEST SWAP2 POP PUSH2 0x651 DUP3 PUSH2 0x612 JUMP JUMPDEST PUSH1 0x20 DUP3 ADD SWAP1 POP SWAP2 SWAP1 POP JUMP JUMPDEST PUSH0 PUSH1 0x60 DUP3 ADD SWAP1 POP PUSH2 0x66F PUSH0 DUP4 ADD DUP6 PUSH2 0x503 JUMP JUMPDEST DUP2 DUP2 SUB PUSH1 0x20 DUP4 ADD MSTORE PUSH2 0x681 DUP2 DUP5 PUSH2 0x591 JUMP JUMPDEST SWAP1 POP DUP2 DUP2 SUB PUSH1 0x40 DUP4 ADD MSTORE PUSH2 0x694 DUP2 PUSH2 0x63A JUMP JUMPDEST SWAP1 POP SWAP4 SWAP3 POP POP POP JUMP JUMPDEST PUSH0 DUP1 REVERT JUMPDEST PUSH2 0x6AA DUP2 PUSH2 0x440 JUMP JUMPDEST DUP2 EQ PUSH2 0x6B4 JUMPI PUSH0 DUP1 REVERT JUMPDEST POP JUMP JUMPDEST PUSH0 DUP2 MLOAD SWAP1 POP PUSH2 0x6C5 DUP2 PUSH2 0x6A1 JUMP JUMPDEST SWAP3 SWAP2 POP POP JUMP JUMPDEST PUSH0 PUSH1 0x20 DUP3 DUP5 SUB SLT ISZERO PUSH2 0x6E0 JUMPI PUSH2 0x6DF PUSH2 0x69D JUMP JUMPDEST JUMPDEST PUSH0 PUSH2 0x6ED DUP5 DUP3 DUP6 ADD PUSH2 0x6B7 JUMP JUMPDEST SWAP2 POP POP SWAP3 SWAP2 POP POP JUMP JUMPDEST PUSH32 0x3130300000000000000000000000000000000000000000000000000000000000 PUSH0 DUP3 ADD MSTORE POP JUMP JUMPDEST PUSH0 PUSH2 0x72A PUSH1 0x3 DUP4 PUSH2 0x56F JUMP JUMPDEST SWAP2 POP PUSH2 0x735 DUP3 PUSH2 0x6F6 JUMP JUMPDEST PUSH1 0x20 DUP3 ADD SWAP1 POP SWAP2 SWAP1 POP JUMP JUMPDEST PUSH0 PUSH1 0x60 DUP3 ADD SWAP1 POP PUSH2 0x753 PUSH0 DUP4 ADD DUP6 PUSH2 0x503 JUMP JUMPDEST DUP2 DUP2 SUB PUSH1 0x20 DUP4 ADD MSTORE PUSH2 0x765 DUP2 DUP5 PUSH2 0x591 JUMP JUMPDEST SWAP1 POP DUP2 DUP2 SUB PUSH1 0x40 DUP4 ADD MSTORE PUSH2 0x778 DUP2 PUSH2 0x71E JUMP JUMPDEST SWAP1 POP SWAP4 SWAP3 POP POP POP JUMP JUMPDEST PUSH32 0x3230300000000000000000000000000000000000000000000000000000000000 PUSH0 DUP3 ADD MSTORE POP JUMP JUMPDEST PUSH0 PUSH2 0x7B5 PUSH1 0x3 DUP4 PUSH2 0x56F JUMP JUMPDEST SWAP2 POP PUSH2 0x7C0 DUP3 PUSH2 0x781 JUMP JUMPDEST PUSH1 0x20 DUP3 ADD SWAP1 POP SWAP2 SWAP1 POP JUMP JUMPDEST PUSH0 PUSH1 0x60 DUP3 ADD SWAP1 POP PUSH2 0x7DE PUSH0 DUP4 ADD DUP6 PUSH2 0x503 JUMP JUMPDEST DUP2 DUP2 SUB PUSH1 0x20 DUP4 ADD MSTORE PUSH2 0x7F0 DUP2 DUP5 PUSH2 0x591 JUMP JUMPDEST SWAP1 POP DUP2 DUP2 SUB PUSH1 0x40 DUP4 ADD MSTORE PUSH2 0x803 DUP2 PUSH2 0x7A9 JUMP JUMPDEST SWAP1 POP SWAP4 SWAP3 POP POP POP JUMP JUMPDEST PUSH32 0x3430300000000000000000000000000000000000000000000000000000000000 PUSH0 DUP3 ADD MSTORE POP JUMP JUMPDEST PUSH0 PUSH2 0x840 PUSH1 0x3 DUP4 PUSH2 0x56F JUMP JUMPDEST SWAP2 POP PUSH2 0x84B DUP3 PUSH2 0x80C JUMP JUMPDEST PUSH1 0x20 DUP3 ADD SWAP1 POP SWAP2 SWAP1 POP JUMP JUMPDEST PUSH0 PUSH1 0x60 DUP3 ADD SWAP1 POP PUSH2 0x869 PUSH0 DUP4 ADD DUP6 PUSH2 0x503 JUMP JUMPDEST DUP2 DUP2 SUB PUSH1 0x20 DUP4 ADD MSTORE PUSH2 0x87B DUP2 DUP5 PUSH2 0x591 JUMP JUMPDEST SWAP1 POP DUP2 DUP2 SUB PUSH1 0x40 DUP4 ADD MSTORE PUSH2 0x88E DUP2 PUSH2 0x834 JUMP JUMPDEST SWAP1 POP SWAP4 SWAP3 POP POP POP JUMP JUMPDEST PUSH2 0x8A0 DUP2 PUSH2 0x440 JUMP JUMPDEST DUP3 MSTORE POP POP JUMP JUMPDEST PUSH0 PUSH1 0x20 DUP3 ADD SWAP1 POP PUSH2 0x8B9 PUSH0 DUP4 ADD DUP5 PUSH2 0x897 JUMP JUMPDEST SWAP3 SWAP2 POP POP JUMP JUMPDEST PUSH0 DUP2 SWAP1 POP SWAP2 SWAP1 POP JUMP JUMPDEST PUSH2 0x8D9 PUSH2 0x8D4 DUP3 PUSH2 0x440 JUMP JUMPDEST PUSH2 0x8BF JUMP JUMPDEST DUP3 MSTORE POP POP JUMP JUMPDEST PUSH0 DUP2 PUSH1 0x60 SHL SWAP1 POP SWAP2 SWAP1 POP JUMP JUMPDEST PUSH0 PUSH2 0x8F5 DUP3 PUSH2 0x8DF JUMP JUMPDEST SWAP1 POP SWAP2 SWAP1 POP JUMP JUMPDEST PUSH0 PUSH2 0x906 DUP3 PUSH2 0x8EB JUMP JUMPDEST SWAP1 POP SWAP2 SWAP1 POP JUMP JUMPDEST PUSH2 0x91E PUSH2 0x919 DUP3 PUSH2 0x4F2 JUMP JUMPDEST PUSH2 0x8FC JUMP JUMPDEST DUP3 MSTORE POP POP JUMP JUMPDEST PUSH0 PUSH2 0x92F DUP3 DUP7 PUSH2 0x8C8 JUMP JUMPDEST PUSH1 0x20 DUP3 ADD SWAP2 POP PUSH2 0x93F DUP3 DUP6 PUSH2 0x8C8 JUMP JUMPDEST PUSH1 0x20 DUP3 ADD SWAP2 POP PUSH2 0x94F DUP3 DUP5 PUSH2 0x90D JUMP JUMPDEST PUSH1 0x14 DUP3 ADD SWAP2 POP DUP2 SWAP1 POP SWAP5 SWAP4 POP POP POP POP JUMP INVALID LOG2 PUSH5 0x6970667358 0x22 SLT KECCAK256 MUL PUSH29 0x899D1D84FDAFC4872D23879AD00020F48E0C0D9D028CEA3B12C6BF05A4 0x4F PUSH5 0x736F6C6343 STOP ADDMOD EQ STOP CALLER "
				},
				"gasEstimates": {
					"creation": {
						"codeDepositCost": "490800",
						"executionCost": "infinite",
						"totalCost": "infinite"
					},
					"external": {
						"drawCard()": "infinite"
					},
					"internal": {
						"random()": "infinite"
					}
				},
				"methodIdentifiers": {
					"drawCard()": "2f5be23e"
				}
			},
			"storageLayout": {
				"storage": [
					{
						"astId": 343,
						"contract": "BlindBoxNFT.sol:BlindBox",
						"label": "group1",
						"offset": 0,
						"slot": "0",
						"type": "t_array(t_string_storage)dyn_storage"
					},
					{
						"astId": 352,
						"contract": "BlindBoxNFT.sol:BlindBox",
						"label": "group2",
						"offset": 0,
						"slot": "1",
						"type": "t_array(t_string_storage)dyn_storage"
					},
					{
						"astId": 360,
						"contract": "BlindBoxNFT.sol:BlindBox",
						"label": "group3",
						"offset": 0,
						"slot": "2",
						"type": "t_array(t_string_storage)dyn_storage"
					},
					{
						"astId": 367,
						"contract": "BlindBoxNFT.sol:BlindBox",
						"label": "group4",
						"offset": 0,
						"slot": "3",
						"type": "t_array(t_string_storage)dyn_storage"
					},
					{
						"astId": 370,
						"contract": "BlindBoxNFT.sol:BlindBox",
						"label": "anotherContract",
						"offset": 0,
						"slot": "4",
						"type": "t_contract(AnotherContract)326"
					}
				],
				"types": {
					"t_array(t_string_storage)dyn_storage": {
						"base": "t_string_storage",
						"encoding": "dynamic_array",
						"label": "string[]",
						"numberOfBytes": "32"
					},
					"t_contract(AnotherContract)326": {
						"encoding": "inplace",
						"label": "contract AnotherContract",
						"numberOfBytes": "20"
					},
					"t_string_storage": {
						"encoding": "bytes",
						"label": "string",
						"numberOfBytes": "32"
					}
				}
			},
			"userdoc": {
				"kind": "user",
				"methods": {},
				"version": 1
			}
		}
	}
}