{
	"BuyBlindBoxNFT.sol": {
		"BlindBox": {
			"abi": [
				{
					"inputs": [
						{
							"internalType": "address",
							"name": "_anotherContractAddress",
							"type": "address"
						},
						{
							"internalType": "address",
							"name": "_usdtAddress",
							"type": "address"
						},
						{
							"internalType": "address",
							"name": "_address1",
							"type": "address"
						},
						{
							"internalType": "address",
							"name": "_address2",
							"type": "address"
						},
						{
							"internalType": "uint256",
							"name": "_price",
							"type": "uint256"
						}
					],
					"stateMutability": "nonpayable",
					"type": "constructor"
				},
				{
					"anonymous": false,
					"inputs": [
						{
							"indexed": true,
							"internalType": "address",
							"name": "from",
							"type": "address"
						},
						{
							"indexed": false,
							"internalType": "uint256",
							"name": "cardId",
							"type": "uint256"
						}
					],
					"name": "DrawCardEvent",
					"type": "event"
				},
				{
					"inputs": [
						{
							"internalType": "uint256",
							"name": "_usdtAmount",
							"type": "uint256"
						}
					],
					"name": "drawCard",
					"outputs": [],
					"stateMutability": "nonpayable",
					"type": "function"
				},
				{
					"inputs": [
						{
							"internalType": "uint256",
							"name": "_price",
							"type": "uint256"
						}
					],
					"name": "setPrice",
					"outputs": [],
					"stateMutability": "nonpayable",
					"type": "function"
				},
				{
					"inputs": [
						{
							"internalType": "address",
							"name": "_address1",
							"type": "address"
						},
						{
							"internalType": "address",
							"name": "_address2",
							"type": "address"
						}
					],
					"name": "setRandomAddress",
					"outputs": [],
					"stateMutability": "nonpayable",
					"type": "function"
				},
				{
					"inputs": [],
					"name": "usdt",
					"outputs": [
						{
							"internalType": "contract IERC20",
							"name": "",
							"type": "address"
						}
					],
					"stateMutability": "view",
					"type": "function"
				}
			],
			"devdoc": {
				"kind": "dev",
				"methods": {},
				"version": 1
			},
			"evm": {
				"assembly": "    /* \"BuyBlindBoxNFT.sol\":390:3050  contract BlindBox {... */\n  mstore(0x40, 0x80)\n    /* \"BuyBlindBoxNFT.sol\":620:727  string[] private group1 = [\"10001\",\"10002\",\"10003\",\"10004\",\"10005\",\"10006\",\"10007\",\"10008\",\"10009\",\"20001\"] */\n  mload(0x40)\n  dup1\n  0x0140\n  add\n  0x40\n  mstore\n  dup1\n  mload(0x40)\n  dup1\n  0x40\n  add\n  0x40\n  mstore\n  dup1\n  0x05\n  dup2\n  mstore\n  0x20\n  add\n  0x3130303031000000000000000000000000000000000000000000000000000000\n  dup2\n  mstore\n  pop\n  dup2\n  mstore\n  0x20\n  add\n  mload(0x40)\n  dup1\n  0x40\n  add\n  0x40\n  mstore\n  dup1\n  0x05\n  dup2\n  mstore\n  0x20\n  add\n  0x3130303032000000000000000000000000000000000000000000000000000000\n  dup2\n  mstore\n  pop\n  dup2\n  mstore\n  0x20\n  add\n  mload(0x40)\n  dup1\n  0x40\n  add\n  0x40\n  mstore\n  dup1\n  0x05\n  dup2\n  mstore\n  0x20\n  add\n  0x3130303033000000000000000000000000000000000000000000000000000000\n  dup2\n  mstore\n  pop\n  dup2\n  mstore\n  0x20\n  add\n  mload(0x40)\n  dup1\n  0x40\n  add\n  0x40\n  mstore\n  dup1\n  0x05\n  dup2\n  mstore\n  0x20\n  add\n  0x3130303034000000000000000000000000000000000000000000000000000000\n  dup2\n  mstore\n  pop\n  dup2\n  mstore\n  0x20\n  add\n  mload(0x40)\n  dup1\n  0x40\n  add\n  0x40\n  mstore\n  dup1\n  0x05\n  dup2\n  mstore\n  0x20\n  add\n  0x3130303035000000000000000000000000000000000000000000000000000000\n  dup2\n  mstore\n  pop\n  dup2\n  mstore\n  0x20\n  add\n  mload(0x40)\n  dup1\n  0x40\n  add\n  0x40\n  mstore\n  dup1\n  0x05\n  dup2\n  mstore\n  0x20\n  add\n  0x3130303036000000000000000000000000000000000000000000000000000000\n  dup2\n  mstore\n  pop\n  dup2\n  mstore\n  0x20\n  add\n  mload(0x40)\n  dup1\n  0x40\n  add\n  0x40\n  mstore\n  dup1\n  0x05\n  dup2\n  mstore\n  0x20\n  add\n  0x3130303037000000000000000000000000000000000000000000000000000000\n  dup2\n  mstore\n  pop\n  dup2\n  mstore\n  0x20\n  add\n  mload(0x40)\n  dup1\n  0x40\n  add\n  0x40\n  mstore\n  dup1\n  0x05\n  dup2\n  mstore\n  0x20\n  add\n  0x3130303038000000000000000000000000000000000000000000000000000000\n  dup2\n  mstore\n  pop\n  dup2\n  mstore\n  0x20\n  add\n  mload(0x40)\n  dup1\n  0x40\n  add\n  0x40\n  mstore\n  dup1\n  0x05\n  dup2\n  mstore\n  0x20\n  add\n  0x3130303039000000000000000000000000000000000000000000000000000000\n  dup2\n  mstore\n  pop\n  dup2\n  mstore\n  0x20\n  add\n  mload(0x40)\n  dup1\n  0x40\n  add\n  0x40\n  mstore\n  dup1\n  0x05\n  dup2\n  mstore\n  0x20\n  add\n  0x3230303031000000000000000000000000000000000000000000000000000000\n  dup2\n  mstore\n  pop\n  dup2\n  mstore\n  pop\n  0x05\n  swap1\n  0x0a\n  tag_1\n  swap3\n  swap2\n  swap1\n  tag_2\n  jump\t// in\ntag_1:\n  pop\n    /* \"BuyBlindBoxNFT.sol\":733:800  string[] private group2 = [\"20002\",\"20003\",\"20004\",\"20005\",\"20006\"] */\n  mload(0x40)\n  dup1\n  0xa0\n  add\n  0x40\n  mstore\n  dup1\n  mload(0x40)\n  dup1\n  0x40\n  add\n  0x40\n  mstore\n  dup1\n  0x05\n  dup2\n  mstore\n  0x20\n  add\n  0x3230303032000000000000000000000000000000000000000000000000000000\n  dup2\n  mstore\n  pop\n  dup2\n  mstore\n  0x20\n  add\n  mload(0x40)\n  dup1\n  0x40\n  add\n  0x40\n  mstore\n  dup1\n  0x05\n  dup2\n  mstore\n  0x20\n  add\n  0x3230303033000000000000000000000000000000000000000000000000000000\n  dup2\n  mstore\n  pop\n  dup2\n  mstore\n  0x20\n  add\n  mload(0x40)\n  dup1\n  0x40\n  add\n  0x40\n  mstore\n  dup1\n  0x05\n  dup2\n  mstore\n  0x20\n  add\n  0x3230303034000000000000000000000000000000000000000000000000000000\n  dup2\n  mstore\n  pop\n  dup2\n  mstore\n  0x20\n  add\n  mload(0x40)\n  dup1\n  0x40\n  add\n  0x40\n  mstore\n  dup1\n  0x05\n  dup2\n  mstore\n  0x20\n  add\n  0x3230303035000000000000000000000000000000000000000000000000000000\n  dup2\n  mstore\n  pop\n  dup2\n  mstore\n  0x20\n  add\n  mload(0x40)\n  dup1\n  0x40\n  add\n  0x40\n  mstore\n  dup1\n  0x05\n  dup2\n  mstore\n  0x20\n  add\n  0x3230303036000000000000000000000000000000000000000000000000000000\n  dup2\n  mstore\n  pop\n  dup2\n  mstore\n  pop\n  0x06\n  swap1\n  0x05\n  tag_3\n  swap3\n  swap2\n  swap1\n  tag_4\n  jump\t// in\ntag_3:\n  pop\n    /* \"BuyBlindBoxNFT.sol\":806:865  string[] private group3 = [\"30001\",\"30002\",\"30003\",\"30004\"] */\n  mload(0x40)\n  dup1\n  0x80\n  add\n  0x40\n  mstore\n  dup1\n  mload(0x40)\n  dup1\n  0x40\n  add\n  0x40\n  mstore\n  dup1\n  0x05\n  dup2\n  mstore\n  0x20\n  add\n  0x3330303031000000000000000000000000000000000000000000000000000000\n  dup2\n  mstore\n  pop\n  dup2\n  mstore\n  0x20\n  add\n  mload(0x40)\n  dup1\n  0x40\n  add\n  0x40\n  mstore\n  dup1\n  0x05\n  dup2\n  mstore\n  0x20\n  add\n  0x3330303032000000000000000000000000000000000000000000000000000000\n  dup2\n  mstore\n  pop\n  dup2\n  mstore\n  0x20\n  add\n  mload(0x40)\n  dup1\n  0x40\n  add\n  0x40\n  mstore\n  dup1\n  0x05\n  dup2\n  mstore\n  0x20\n  add\n  0x3330303033000000000000000000000000000000000000000000000000000000\n  dup2\n  mstore\n  pop\n  dup2\n  mstore\n  0x20\n  add\n  mload(0x40)\n  dup1\n  0x40\n  add\n  0x40\n  mstore\n  dup1\n  0x05\n  dup2\n  mstore\n  0x20\n  add\n  0x3330303034000000000000000000000000000000000000000000000000000000\n  dup2\n  mstore\n  pop\n  dup2\n  mstore\n  pop\n  0x07\n  swap1\n  0x04\n  tag_5\n  swap3\n  swap2\n  swap1\n  tag_6\n  jump\t// in\ntag_5:\n  pop\n    /* \"BuyBlindBoxNFT.sol\":871:922  string[] private group4 = [\"40001\",\"40002\",\"40003\"] */\n  mload(0x40)\n  dup1\n  0x60\n  add\n  0x40\n  mstore\n  dup1\n  mload(0x40)\n  dup1\n  0x40\n  add\n  0x40\n  mstore\n  dup1\n  0x05\n  dup2\n  mstore\n  0x20\n  add\n  0x3430303031000000000000000000000000000000000000000000000000000000\n  dup2\n  mstore\n  pop\n  dup2\n  mstore\n  0x20\n  add\n  mload(0x40)\n  dup1\n  0x40\n  add\n  0x40\n  mstore\n  dup1\n  0x05\n  dup2\n  mstore\n  0x20\n  add\n  0x3430303032000000000000000000000000000000000000000000000000000000\n  dup2\n  mstore\n  pop\n  dup2\n  mstore\n  0x20\n  add\n  mload(0x40)\n  dup1\n  0x40\n  add\n  0x40\n  mstore\n  dup1\n  0x05\n  dup2\n  mstore\n  0x20\n  add\n  0x3430303033000000000000000000000000000000000000000000000000000000\n  dup2\n  mstore\n  pop\n  dup2\n  mstore\n  pop\n  0x08\n  swap1\n  0x03\n  tag_7\n  swap3\n  swap2\n  swap1\n  tag_8\n  jump\t// in\ntag_7:\n  pop\n    /* \"BuyBlindBoxNFT.sol\":976:1365  constructor(... */\n  callvalue\n  dup1\n  iszero\n  tag_9\n  jumpi\n  0x00\n  dup1\n  revert\ntag_9:\n  pop\n  mload(0x40)\n  sub(codesize, bytecodeSize)\n  dup1\n  bytecodeSize\n  dup4\n  codecopy\n  dup2\n  dup2\n  add\n  0x40\n  mstore\n  dup2\n  add\n  swap1\n  tag_10\n  swap2\n  swap1\n  tag_11\n  jump\t// in\ntag_10:\n    /* \"BuyBlindBoxNFT.sol\":1181:1204  _anotherContractAddress */\n  dup5\n    /* \"BuyBlindBoxNFT.sol\":1147:1162  anotherContract */\n  0x09\n  0x00\n    /* \"BuyBlindBoxNFT.sol\":1147:1205  anotherContract = AnotherContract(_anotherContractAddress) */\n  0x0100\n  exp\n  dup2\n  sload\n  dup2\n  0xffffffffffffffffffffffffffffffffffffffff\n  mul\n  not\n  and\n  swap1\n  dup4\n  0xffffffffffffffffffffffffffffffffffffffff\n  and\n  mul\n  or\n  swap1\n  sstore\n  pop\n    /* \"BuyBlindBoxNFT.sol\":1229:1241  _usdtAddress */\n  dup4\n    /* \"BuyBlindBoxNFT.sol\":1215:1219  usdt */\n  0x00\n  dup1\n    /* \"BuyBlindBoxNFT.sol\":1215:1242  usdt = IERC20(_usdtAddress) */\n  0x0100\n  exp\n  dup2\n  sload\n  dup2\n  0xffffffffffffffffffffffffffffffffffffffff\n  mul\n  not\n  and\n  swap1\n  dup4\n  0xffffffffffffffffffffffffffffffffffffffff\n  and\n  mul\n  or\n  swap1\n  sstore\n  pop\n    /* \"BuyBlindBoxNFT.sol\":1263:1272  _address1 */\n  dup3\n    /* \"BuyBlindBoxNFT.sol\":1252:1260  address1 */\n  0x01\n  0x00\n    /* \"BuyBlindBoxNFT.sol\":1252:1272  address1 = _address1 */\n  0x0100\n  exp\n  dup2\n  sload\n  dup2\n  0xffffffffffffffffffffffffffffffffffffffff\n  mul\n  not\n  and\n  swap1\n  dup4\n  0xffffffffffffffffffffffffffffffffffffffff\n  and\n  mul\n  or\n  swap1\n  sstore\n  pop\n    /* \"BuyBlindBoxNFT.sol\":1293:1302  _address2 */\n  dup2\n    /* \"BuyBlindBoxNFT.sol\":1282:1290  address2 */\n  0x02\n  0x00\n    /* \"BuyBlindBoxNFT.sol\":1282:1302  address2 = _address2 */\n  0x0100\n  exp\n  dup2\n  sload\n  dup2\n  0xffffffffffffffffffffffffffffffffffffffff\n  mul\n  not\n  and\n  swap1\n  dup4\n  0xffffffffffffffffffffffffffffffffffffffff\n  and\n  mul\n  or\n  swap1\n  sstore\n  pop\n    /* \"BuyBlindBoxNFT.sol\":1320:1326  _price */\n  dup1\n    /* \"BuyBlindBoxNFT.sol\":1312:1317  price */\n  0x04\n    /* \"BuyBlindBoxNFT.sol\":1312:1326  price = _price */\n  dup2\n  swap1\n  sstore\n  pop\n    /* \"BuyBlindBoxNFT.sol\":1344:1354  msg.sender */\n  caller\n    /* \"BuyBlindBoxNFT.sol\":1336:1341  owner */\n  0x03\n  0x00\n    /* \"BuyBlindBoxNFT.sol\":1336:1354  owner = msg.sender */\n  0x0100\n  exp\n  dup2\n  sload\n  dup2\n  0xffffffffffffffffffffffffffffffffffffffff\n  mul\n  not\n  and\n  swap1\n  dup4\n  0xffffffffffffffffffffffffffffffffffffffff\n  and\n  mul\n  or\n  swap1\n  sstore\n  pop\n    /* \"BuyBlindBoxNFT.sol\":976:1365  constructor(... */\n  pop\n  pop\n  pop\n  pop\n  pop\n    /* \"BuyBlindBoxNFT.sol\":390:3050  contract BlindBox {... */\n  jump(tag_14)\ntag_2:\n  dup3\n  dup1\n  sload\n  dup3\n  dup3\n  sstore\n  swap1\n  0x00\n  mstore\n  keccak256(0x00, 0x20)\n  swap1\n  dup2\n  add\n  swap3\n  dup3\n  iszero\n  tag_15\n  jumpi\n  swap2\n  0x20\n  mul\n  dup3\n  add\ntag_16:\n  dup3\n  dup2\n  gt\n  iszero\n  tag_17\n  jumpi\n  dup3\n  mload\n  dup3\n  swap1\n  dup1\n  mload\n  swap1\n  0x20\n  add\n  swap1\n  tag_18\n  swap3\n  swap2\n  swap1\n  tag_19\n  jump\t// in\ntag_18:\n  pop\n  swap2\n  0x20\n  add\n  swap2\n  swap1\n  0x01\n  add\n  swap1\n  jump(tag_16)\ntag_17:\ntag_15:\n  pop\n  swap1\n  pop\n  tag_20\n  swap2\n  swap1\n  tag_21\n  jump\t// in\ntag_20:\n  pop\n  swap1\n  jump\t// out\ntag_4:\n  dup3\n  dup1\n  sload\n  dup3\n  dup3\n  sstore\n  swap1\n  0x00\n  mstore\n  keccak256(0x00, 0x20)\n  swap1\n  dup2\n  add\n  swap3\n  dup3\n  iszero\n  tag_22\n  jumpi\n  swap2\n  0x20\n  mul\n  dup3\n  add\ntag_23:\n  dup3\n  dup2\n  gt\n  iszero\n  tag_24\n  jumpi\n  dup3\n  mload\n  dup3\n  swap1\n  dup1\n  mload\n  swap1\n  0x20\n  add\n  swap1\n  tag_25\n  swap3\n  swap2\n  swap1\n  tag_19\n  jump\t// in\ntag_25:\n  pop\n  swap2\n  0x20\n  add\n  swap2\n  swap1\n  0x01\n  add\n  swap1\n  jump(tag_23)\ntag_24:\ntag_22:\n  pop\n  swap1\n  pop\n  tag_26\n  swap2\n  swap1\n  tag_21\n  jump\t// in\ntag_26:\n  pop\n  swap1\n  jump\t// out\ntag_6:\n  dup3\n  dup1\n  sload\n  dup3\n  dup3\n  sstore\n  swap1\n  0x00\n  mstore\n  keccak256(0x00, 0x20)\n  swap1\n  dup2\n  add\n  swap3\n  dup3\n  iszero\n  tag_27\n  jumpi\n  swap2\n  0x20\n  mul\n  dup3\n  add\ntag_28:\n  dup3\n  dup2\n  gt\n  iszero\n  tag_29\n  jumpi\n  dup3\n  mload\n  dup3\n  swap1\n  dup1\n  mload\n  swap1\n  0x20\n  add\n  swap1\n  tag_30\n  swap3\n  swap2\n  swap1\n  tag_19\n  jump\t// in\ntag_30:\n  pop\n  swap2\n  0x20\n  add\n  swap2\n  swap1\n  0x01\n  add\n  swap1\n  jump(tag_28)\ntag_29:\ntag_27:\n  pop\n  swap1\n  pop\n  tag_31\n  swap2\n  swap1\n  tag_21\n  jump\t// in\ntag_31:\n  pop\n  swap1\n  jump\t// out\ntag_8:\n  dup3\n  dup1\n  sload\n  dup3\n  dup3\n  sstore\n  swap1\n  0x00\n  mstore\n  keccak256(0x00, 0x20)\n  swap1\n  dup2\n  add\n  swap3\n  dup3\n  iszero\n  tag_32\n  jumpi\n  swap2\n  0x20\n  mul\n  dup3\n  add\ntag_33:\n  dup3\n  dup2\n  gt\n  iszero\n  tag_34\n  jumpi\n  dup3\n  mload\n  dup3\n  swap1\n  dup1\n  mload\n  swap1\n  0x20\n  add\n  swap1\n  tag_35\n  swap3\n  swap2\n  swap1\n  tag_19\n  jump\t// in\ntag_35:\n  pop\n  swap2\n  0x20\n  add\n  swap2\n  swap1\n  0x01\n  add\n  swap1\n  jump(tag_33)\ntag_34:\ntag_32:\n  pop\n  swap1\n  pop\n  tag_36\n  swap2\n  swap1\n  tag_21\n  jump\t// in\ntag_36:\n  pop\n  swap1\n  jump\t// out\ntag_19:\n  dup3\n  dup1\n  sload\n  tag_37\n  swap1\n  tag_38\n  jump\t// in\ntag_37:\n  swap1\n  0x00\n  mstore\n  keccak256(0x00, 0x20)\n  swap1\n  0x1f\n  add\n  0x20\n  swap1\n  div\n  dup2\n  add\n  swap3\n  dup3\n  tag_40\n  jumpi\n  0x00\n  dup6\n  sstore\n  jump(tag_39)\ntag_40:\n  dup3\n  0x1f\n  lt\n  tag_41\n  jumpi\n  dup1\n  mload\n  not(0xff)\n  and\n  dup4\n  dup1\n  add\n  or\n  dup6\n  sstore\n  jump(tag_39)\ntag_41:\n  dup3\n  dup1\n  add\n  0x01\n  add\n  dup6\n  sstore\n  dup3\n  iszero\n  tag_39\n  jumpi\n  swap2\n  dup3\n  add\ntag_42:\n  dup3\n  dup2\n  gt\n  iszero\n  tag_43\n  jumpi\n  dup3\n  mload\n  dup3\n  sstore\n  swap2\n  0x20\n  add\n  swap2\n  swap1\n  0x01\n  add\n  swap1\n  jump(tag_42)\ntag_43:\ntag_39:\n  pop\n  swap1\n  pop\n  tag_44\n  swap2\n  swap1\n  tag_45\n  jump\t// in\ntag_44:\n  pop\n  swap1\n  jump\t// out\ntag_21:\ntag_46:\n  dup1\n  dup3\n  gt\n  iszero\n  tag_47\n  jumpi\n  0x00\n  dup2\n  dup2\n  tag_48\n  swap2\n  swap1\n  tag_49\n  jump\t// in\ntag_48:\n  pop\n  0x01\n  add\n  jump(tag_46)\ntag_47:\n  pop\n  swap1\n  jump\t// out\ntag_45:\ntag_50:\n  dup1\n  dup3\n  gt\n  iszero\n  tag_51\n  jumpi\n  0x00\n  dup2\n  0x00\n  swap1\n  sstore\n  pop\n  0x01\n  add\n  jump(tag_50)\ntag_51:\n  pop\n  swap1\n  jump\t// out\ntag_49:\n  pop\n  dup1\n  sload\n  tag_52\n  swap1\n  tag_38\n  jump\t// in\ntag_52:\n  0x00\n  dup3\n  sstore\n  dup1\n  0x1f\n  lt\n  tag_54\n  jumpi\n  pop\n  jump(tag_53)\ntag_54:\n  0x1f\n  add\n  0x20\n  swap1\n  div\n  swap1\n  0x00\n  mstore\n  keccak256(0x00, 0x20)\n  swap1\n  dup2\n  add\n  swap1\n  tag_55\n  swap2\n  swap1\n  tag_45\n  jump\t// in\ntag_55:\ntag_53:\n  pop\n  jump\t// out\n    /* \"#utility.yul\":7:150   */\ntag_57:\n  0x00\n    /* \"#utility.yul\":95:101   */\n  dup2\n    /* \"#utility.yul\":89:102   */\n  mload\n    /* \"#utility.yul\":80:102   */\n  swap1\n  pop\n    /* \"#utility.yul\":111:144   */\n  tag_59\n    /* \"#utility.yul\":138:143   */\n  dup2\n    /* \"#utility.yul\":111:144   */\n  tag_60\n  jump\t// in\ntag_59:\n    /* \"#utility.yul\":70:150   */\n  swap3\n  swap2\n  pop\n  pop\n  jump\t// out\n    /* \"#utility.yul\":156:299   */\ntag_61:\n  0x00\n    /* \"#utility.yul\":244:250   */\n  dup2\n    /* \"#utility.yul\":238:251   */\n  mload\n    /* \"#utility.yul\":229:251   */\n  swap1\n  pop\n    /* \"#utility.yul\":260:293   */\n  tag_63\n    /* \"#utility.yul\":287:292   */\n  dup2\n    /* \"#utility.yul\":260:293   */\n  tag_64\n  jump\t// in\ntag_63:\n    /* \"#utility.yul\":219:299   */\n  swap3\n  swap2\n  pop\n  pop\n  jump\t// out\n    /* \"#utility.yul\":305:1215   */\ntag_11:\n  0x00\n  dup1\n  0x00\n  dup1\n  0x00\n    /* \"#utility.yul\":492:495   */\n  0xa0\n    /* \"#utility.yul\":480:489   */\n  dup7\n    /* \"#utility.yul\":471:478   */\n  dup9\n    /* \"#utility.yul\":467:490   */\n  sub\n    /* \"#utility.yul\":463:496   */\n  slt\n    /* \"#utility.yul\":460:462   */\n  iszero\n  tag_66\n  jumpi\n    /* \"#utility.yul\":509:510   */\n  0x00\n    /* \"#utility.yul\":506:507   */\n  dup1\n    /* \"#utility.yul\":499:511   */\n  revert\n    /* \"#utility.yul\":460:462   */\ntag_66:\n    /* \"#utility.yul\":552:553   */\n  0x00\n    /* \"#utility.yul\":577:641   */\n  tag_67\n    /* \"#utility.yul\":633:640   */\n  dup9\n    /* \"#utility.yul\":624:630   */\n  dup3\n    /* \"#utility.yul\":613:622   */\n  dup10\n    /* \"#utility.yul\":609:631   */\n  add\n    /* \"#utility.yul\":577:641   */\n  tag_57\n  jump\t// in\ntag_67:\n    /* \"#utility.yul\":567:641   */\n  swap6\n  pop\n    /* \"#utility.yul\":523:651   */\n  pop\n    /* \"#utility.yul\":690:692   */\n  0x20\n    /* \"#utility.yul\":716:780   */\n  tag_68\n    /* \"#utility.yul\":772:779   */\n  dup9\n    /* \"#utility.yul\":763:769   */\n  dup3\n    /* \"#utility.yul\":752:761   */\n  dup10\n    /* \"#utility.yul\":748:770   */\n  add\n    /* \"#utility.yul\":716:780   */\n  tag_57\n  jump\t// in\ntag_68:\n    /* \"#utility.yul\":706:780   */\n  swap5\n  pop\n    /* \"#utility.yul\":661:790   */\n  pop\n    /* \"#utility.yul\":829:831   */\n  0x40\n    /* \"#utility.yul\":855:919   */\n  tag_69\n    /* \"#utility.yul\":911:918   */\n  dup9\n    /* \"#utility.yul\":902:908   */\n  dup3\n    /* \"#utility.yul\":891:900   */\n  dup10\n    /* \"#utility.yul\":887:909   */\n  add\n    /* \"#utility.yul\":855:919   */\n  tag_57\n  jump\t// in\ntag_69:\n    /* \"#utility.yul\":845:919   */\n  swap4\n  pop\n    /* \"#utility.yul\":800:929   */\n  pop\n    /* \"#utility.yul\":968:970   */\n  0x60\n    /* \"#utility.yul\":994:1058   */\n  tag_70\n    /* \"#utility.yul\":1050:1057   */\n  dup9\n    /* \"#utility.yul\":1041:1047   */\n  dup3\n    /* \"#utility.yul\":1030:1039   */\n  dup10\n    /* \"#utility.yul\":1026:1048   */\n  add\n    /* \"#utility.yul\":994:1058   */\n  tag_57\n  jump\t// in\ntag_70:\n    /* \"#utility.yul\":984:1058   */\n  swap3\n  pop\n    /* \"#utility.yul\":939:1068   */\n  pop\n    /* \"#utility.yul\":1107:1110   */\n  0x80\n    /* \"#utility.yul\":1134:1198   */\n  tag_71\n    /* \"#utility.yul\":1190:1197   */\n  dup9\n    /* \"#utility.yul\":1181:1187   */\n  dup3\n    /* \"#utility.yul\":1170:1179   */\n  dup10\n    /* \"#utility.yul\":1166:1188   */\n  add\n    /* \"#utility.yul\":1134:1198   */\n  tag_61\n  jump\t// in\ntag_71:\n    /* \"#utility.yul\":1124:1198   */\n  swap2\n  pop\n    /* \"#utility.yul\":1078:1208   */\n  pop\n    /* \"#utility.yul\":450:1215   */\n  swap3\n  swap6\n  pop\n  swap3\n  swap6\n  swap1\n  swap4\n  pop\n  jump\t// out\n    /* \"#utility.yul\":1221:1317   */\ntag_72:\n  0x00\n    /* \"#utility.yul\":1287:1311   */\n  tag_74\n    /* \"#utility.yul\":1305:1310   */\n  dup3\n    /* \"#utility.yul\":1287:1311   */\n  tag_75\n  jump\t// in\ntag_74:\n    /* \"#utility.yul\":1276:1311   */\n  swap1\n  pop\n    /* \"#utility.yul\":1266:1317   */\n  swap2\n  swap1\n  pop\n  jump\t// out\n    /* \"#utility.yul\":1323:1449   */\ntag_75:\n  0x00\n    /* \"#utility.yul\":1400:1442   */\n  0xffffffffffffffffffffffffffffffffffffffff\n    /* \"#utility.yul\":1393:1398   */\n  dup3\n    /* \"#utility.yul\":1389:1443   */\n  and\n    /* \"#utility.yul\":1378:1443   */\n  swap1\n  pop\n    /* \"#utility.yul\":1368:1449   */\n  swap2\n  swap1\n  pop\n  jump\t// out\n    /* \"#utility.yul\":1455:1532   */\ntag_77:\n  0x00\n    /* \"#utility.yul\":1521:1526   */\n  dup2\n    /* \"#utility.yul\":1510:1526   */\n  swap1\n  pop\n    /* \"#utility.yul\":1500:1532   */\n  swap2\n  swap1\n  pop\n  jump\t// out\n    /* \"#utility.yul\":1538:1858   */\ntag_38:\n  0x00\n    /* \"#utility.yul\":1619:1620   */\n  0x02\n    /* \"#utility.yul\":1613:1617   */\n  dup3\n    /* \"#utility.yul\":1609:1621   */\n  div\n    /* \"#utility.yul\":1599:1621   */\n  swap1\n  pop\n    /* \"#utility.yul\":1666:1667   */\n  0x01\n    /* \"#utility.yul\":1660:1664   */\n  dup3\n    /* \"#utility.yul\":1656:1668   */\n  and\n    /* \"#utility.yul\":1687:1705   */\n  dup1\n    /* \"#utility.yul\":1677:1679   */\n  tag_80\n  jumpi\n    /* \"#utility.yul\":1743:1747   */\n  0x7f\n    /* \"#utility.yul\":1735:1741   */\n  dup3\n    /* \"#utility.yul\":1731:1748   */\n  and\n    /* \"#utility.yul\":1721:1748   */\n  swap2\n  pop\n    /* \"#utility.yul\":1677:1679   */\ntag_80:\n    /* \"#utility.yul\":1805:1807   */\n  0x20\n    /* \"#utility.yul\":1797:1803   */\n  dup3\n    /* \"#utility.yul\":1794:1808   */\n  lt\n    /* \"#utility.yul\":1774:1792   */\n  dup2\n    /* \"#utility.yul\":1771:1809   */\n  eq\n    /* \"#utility.yul\":1768:1770   */\n  iszero\n  tag_81\n  jumpi\n    /* \"#utility.yul\":1824:1842   */\n  tag_82\n  tag_83\n  jump\t// in\ntag_82:\n    /* \"#utility.yul\":1768:1770   */\ntag_81:\n    /* \"#utility.yul\":1589:1858   */\n  pop\n  swap2\n  swap1\n  pop\n  jump\t// out\n    /* \"#utility.yul\":1864:2044   */\ntag_83:\n    /* \"#utility.yul\":1912:1989   */\n  0x4e487b7100000000000000000000000000000000000000000000000000000000\n    /* \"#utility.yul\":1909:1910   */\n  0x00\n    /* \"#utility.yul\":1902:1990   */\n  mstore\n    /* \"#utility.yul\":2009:2013   */\n  0x22\n    /* \"#utility.yul\":2006:2007   */\n  0x04\n    /* \"#utility.yul\":1999:2014   */\n  mstore\n    /* \"#utility.yul\":2033:2037   */\n  0x24\n    /* \"#utility.yul\":2030:2031   */\n  0x00\n    /* \"#utility.yul\":2023:2038   */\n  revert\n    /* \"#utility.yul\":2050:2172   */\ntag_60:\n    /* \"#utility.yul\":2123:2147   */\n  tag_86\n    /* \"#utility.yul\":2141:2146   */\n  dup2\n    /* \"#utility.yul\":2123:2147   */\n  tag_72\n  jump\t// in\ntag_86:\n    /* \"#utility.yul\":2116:2121   */\n  dup2\n    /* \"#utility.yul\":2113:2148   */\n  eq\n    /* \"#utility.yul\":2103:2105   */\n  tag_87\n  jumpi\n    /* \"#utility.yul\":2162:2163   */\n  0x00\n    /* \"#utility.yul\":2159:2160   */\n  dup1\n    /* \"#utility.yul\":2152:2164   */\n  revert\n    /* \"#utility.yul\":2103:2105   */\ntag_87:\n    /* \"#utility.yul\":2093:2172   */\n  pop\n  jump\t// out\n    /* \"#utility.yul\":2178:2300   */\ntag_64:\n    /* \"#utility.yul\":2251:2275   */\n  tag_89\n    /* \"#utility.yul\":2269:2274   */\n  dup2\n    /* \"#utility.yul\":2251:2275   */\n  tag_77\n  jump\t// in\ntag_89:\n    /* \"#utility.yul\":2244:2249   */\n  dup2\n    /* \"#utility.yul\":2241:2276   */\n  eq\n    /* \"#utility.yul\":2231:2233   */\n  tag_90\n  jumpi\n    /* \"#utility.yul\":2290:2291   */\n  0x00\n    /* \"#utility.yul\":2287:2288   */\n  dup1\n    /* \"#utility.yul\":2280:2292   */\n  revert\n    /* \"#utility.yul\":2231:2233   */\ntag_90:\n    /* \"#utility.yul\":2221:2300   */\n  pop\n  jump\t// out\n    /* \"BuyBlindBoxNFT.sol\":390:3050  contract BlindBox {... */\ntag_14:\n  dataSize(sub_0)\n  dup1\n  dataOffset(sub_0)\n  0x00\n  codecopy\n  0x00\n  return\nstop\n\nsub_0: assembly {\n        /* \"BuyBlindBoxNFT.sol\":390:3050  contract BlindBox {... */\n      mstore(0x40, 0x80)\n      callvalue\n      dup1\n      iszero\n      tag_1\n      jumpi\n      0x00\n      dup1\n      revert\n    tag_1:\n      pop\n      jumpi(tag_2, lt(calldatasize, 0x04))\n      shr(0xe0, calldataload(0x00))\n      dup1\n      0x2f48ab7d\n      eq\n      tag_3\n      jumpi\n      dup1\n      0x91b7f5ed\n      eq\n      tag_4\n      jumpi\n      dup1\n      0xb6aa4ed6\n      eq\n      tag_5\n      jumpi\n      dup1\n      0xf320f858\n      eq\n      tag_6\n      jumpi\n    tag_2:\n      0x00\n      dup1\n      revert\n        /* \"BuyBlindBoxNFT.sol\":478:496  IERC20 public usdt */\n    tag_3:\n      tag_7\n      tag_8\n      jump\t// in\n    tag_7:\n      mload(0x40)\n      tag_9\n      swap2\n      swap1\n      tag_10\n      jump\t// in\n    tag_9:\n      mload(0x40)\n      dup1\n      swap2\n      sub\n      swap1\n      return\n        /* \"BuyBlindBoxNFT.sol\":2808:2892  function setPrice(uint256 _price) external onlyOwner {... */\n    tag_4:\n      tag_11\n      0x04\n      dup1\n      calldatasize\n      sub\n      dup2\n      add\n      swap1\n      tag_12\n      swap2\n      swap1\n      tag_13\n      jump\t// in\n    tag_12:\n      tag_14\n      jump\t// in\n    tag_11:\n      stop\n        /* \"BuyBlindBoxNFT.sol\":1566:2615  function drawCard(uint256 _usdtAmount) public {... */\n    tag_5:\n      tag_15\n      0x04\n      dup1\n      calldatasize\n      sub\n      dup2\n      add\n      swap1\n      tag_16\n      swap2\n      swap1\n      tag_13\n      jump\t// in\n    tag_16:\n      tag_17\n      jump\t// in\n    tag_15:\n      stop\n        /* \"BuyBlindBoxNFT.sol\":2898:3047  function setRandomAddress(address _address1, address _address2) external onlyOwner{... */\n    tag_6:\n      tag_18\n      0x04\n      dup1\n      calldatasize\n      sub\n      dup2\n      add\n      swap1\n      tag_19\n      swap2\n      swap1\n      tag_20\n      jump\t// in\n    tag_19:\n      tag_21\n      jump\t// in\n    tag_18:\n      stop\n        /* \"BuyBlindBoxNFT.sol\":478:496  IERC20 public usdt */\n    tag_8:\n      0x00\n      dup1\n      sload\n      swap1\n      0x0100\n      exp\n      swap1\n      div\n      0xffffffffffffffffffffffffffffffffffffffff\n      and\n      dup2\n      jump\t// out\n        /* \"BuyBlindBoxNFT.sol\":2808:2892  function setPrice(uint256 _price) external onlyOwner {... */\n    tag_14:\n        /* \"BuyBlindBoxNFT.sol\":1490:1495  owner */\n      0x03\n      0x00\n      swap1\n      sload\n      swap1\n      0x0100\n      exp\n      swap1\n      div\n      0xffffffffffffffffffffffffffffffffffffffff\n      and\n        /* \"BuyBlindBoxNFT.sol\":1476:1495  msg.sender == owner */\n      0xffffffffffffffffffffffffffffffffffffffff\n      and\n        /* \"BuyBlindBoxNFT.sol\":1476:1486  msg.sender */\n      caller\n        /* \"BuyBlindBoxNFT.sol\":1476:1495  msg.sender == owner */\n      0xffffffffffffffffffffffffffffffffffffffff\n      and\n      eq\n        /* \"BuyBlindBoxNFT.sol\":1468:1544  require(msg.sender == owner, \"Message sender must be the contract's owner.\") */\n      tag_23\n      jumpi\n      mload(0x40)\n      0x08c379a000000000000000000000000000000000000000000000000000000000\n      dup2\n      mstore\n      0x04\n      add\n      tag_24\n      swap1\n      tag_25\n      jump\t// in\n    tag_24:\n      mload(0x40)\n      dup1\n      swap2\n      sub\n      swap1\n      revert\n    tag_23:\n        /* \"BuyBlindBoxNFT.sol\":2879:2885  _price */\n      dup1\n        /* \"BuyBlindBoxNFT.sol\":2871:2876  price */\n      0x04\n        /* \"BuyBlindBoxNFT.sol\":2871:2885  price = _price */\n      dup2\n      swap1\n      sstore\n      pop\n        /* \"BuyBlindBoxNFT.sol\":2808:2892  function setPrice(uint256 _price) external onlyOwner {... */\n      pop\n      jump\t// out\n        /* \"BuyBlindBoxNFT.sol\":1566:2615  function drawCard(uint256 _usdtAmount) public {... */\n    tag_17:\n        /* \"BuyBlindBoxNFT.sol\":1622:1636  uint256 cardId */\n      0x00\n        /* \"BuyBlindBoxNFT.sol\":1646:1655  uint256 r */\n      dup1\n        /* \"BuyBlindBoxNFT.sol\":1669:1673  1000 */\n      0x03e8\n        /* \"BuyBlindBoxNFT.sol\":1658:1666  random() */\n      tag_28\n        /* \"BuyBlindBoxNFT.sol\":1658:1664  random */\n      tag_29\n        /* \"BuyBlindBoxNFT.sol\":1658:1666  random() */\n      jump\t// in\n    tag_28:\n        /* \"BuyBlindBoxNFT.sol\":1658:1673  random() % 1000 */\n      tag_30\n      swap2\n      swap1\n      tag_31\n      jump\t// in\n    tag_30:\n        /* \"BuyBlindBoxNFT.sol\":1646:1673  uint256 r = random() % 1000 */\n      swap1\n      pop\n        /* \"BuyBlindBoxNFT.sol\":1722:1733  _usdtAmount */\n      dup3\n        /* \"BuyBlindBoxNFT.sol\":1692:1696  usdt */\n      0x00\n      dup1\n      sload\n      swap1\n      0x0100\n      exp\n      swap1\n      div\n      0xffffffffffffffffffffffffffffffffffffffff\n      and\n        /* \"BuyBlindBoxNFT.sol\":1692:1706  usdt.balanceOf */\n      0xffffffffffffffffffffffffffffffffffffffff\n      and\n      0x70a08231\n        /* \"BuyBlindBoxNFT.sol\":1707:1717  msg.sender */\n      caller\n        /* \"BuyBlindBoxNFT.sol\":1692:1718  usdt.balanceOf(msg.sender) */\n      mload(0x40)\n      dup3\n      0xffffffff\n      and\n      0xe0\n      shl\n      dup2\n      mstore\n      0x04\n      add\n      tag_32\n      swap2\n      swap1\n      tag_33\n      jump\t// in\n    tag_32:\n      0x20\n      mload(0x40)\n      dup1\n      dup4\n      sub\n      dup2\n      dup7\n      dup1\n      extcodesize\n      iszero\n      dup1\n      iszero\n      tag_34\n      jumpi\n      0x00\n      dup1\n      revert\n    tag_34:\n      pop\n      gas\n      staticcall\n      iszero\n      dup1\n      iszero\n      tag_36\n      jumpi\n      returndatasize\n      0x00\n      dup1\n      returndatacopy\n      revert(0x00, returndatasize)\n    tag_36:\n      pop\n      pop\n      pop\n      pop\n      mload(0x40)\n      returndatasize\n      not(0x1f)\n      0x1f\n      dup3\n      add\n      and\n      dup3\n      add\n      dup1\n      0x40\n      mstore\n      pop\n      dup2\n      add\n      swap1\n      tag_37\n      swap2\n      swap1\n      tag_38\n      jump\t// in\n    tag_37:\n        /* \"BuyBlindBoxNFT.sol\":1692:1733  usdt.balanceOf(msg.sender) >= _usdtAmount */\n      lt\n      iszero\n        /* \"BuyBlindBoxNFT.sol\":1684:1753  require(usdt.balanceOf(msg.sender) >= _usdtAmount, \"Not enough USDT\") */\n      tag_39\n      jumpi\n      mload(0x40)\n      0x08c379a000000000000000000000000000000000000000000000000000000000\n      dup2\n      mstore\n      0x04\n      add\n      tag_40\n      swap1\n      tag_41\n      jump\t// in\n    tag_40:\n      mload(0x40)\n      dup1\n      swap2\n      sub\n      swap1\n      revert\n    tag_39:\n        /* \"BuyBlindBoxNFT.sol\":1780:1791  _usdtAmount */\n      dup3\n        /* \"BuyBlindBoxNFT.sol\":1771:1776  price */\n      sload(0x04)\n        /* \"BuyBlindBoxNFT.sol\":1771:1791  price <= _usdtAmount */\n      gt\n      iszero\n        /* \"BuyBlindBoxNFT.sol\":1763:1810  require(price <= _usdtAmount, \"Need more USDT\") */\n      tag_42\n      jumpi\n      mload(0x40)\n      0x08c379a000000000000000000000000000000000000000000000000000000000\n      dup2\n      mstore\n      0x04\n      add\n      tag_43\n      swap1\n      tag_44\n      jump\t// in\n    tag_43:\n      mload(0x40)\n      dup1\n      swap2\n      sub\n      swap1\n      revert\n    tag_42:\n        /* \"BuyBlindBoxNFT.sol\":1821:1843  uint256 transferAmount */\n      0x00\n        /* \"BuyBlindBoxNFT.sol\":1846:1872  _usdtAmount.mul(9).div(10) */\n      tag_45\n        /* \"BuyBlindBoxNFT.sol\":1869:1871  10 */\n      0x0a\n        /* \"BuyBlindBoxNFT.sol\":1846:1864  _usdtAmount.mul(9) */\n      tag_46\n        /* \"BuyBlindBoxNFT.sol\":1862:1863  9 */\n      0x09\n        /* \"BuyBlindBoxNFT.sol\":1846:1857  _usdtAmount */\n      dup8\n        /* \"BuyBlindBoxNFT.sol\":1846:1861  _usdtAmount.mul */\n      tag_47\n      swap1\n        /* \"BuyBlindBoxNFT.sol\":1846:1864  _usdtAmount.mul(9) */\n      swap2\n      swap1\n      0xffffffff\n      and\n      jump\t// in\n    tag_46:\n        /* \"BuyBlindBoxNFT.sol\":1846:1868  _usdtAmount.mul(9).div */\n      tag_48\n      swap1\n        /* \"BuyBlindBoxNFT.sol\":1846:1872  _usdtAmount.mul(9).div(10) */\n      swap2\n      swap1\n      0xffffffff\n      and\n      jump\t// in\n    tag_45:\n        /* \"BuyBlindBoxNFT.sol\":1821:1872  uint256 transferAmount = _usdtAmount.mul(9).div(10) */\n      swap1\n      pop\n        /* \"BuyBlindBoxNFT.sol\":1882:1941  usdt.safeTransferFrom(msg.sender, address1, transferAmount) */\n      tag_49\n        /* \"BuyBlindBoxNFT.sol\":1904:1914  msg.sender */\n      caller\n        /* \"BuyBlindBoxNFT.sol\":1916:1924  address1 */\n      0x01\n      0x00\n      swap1\n      sload\n      swap1\n      0x0100\n      exp\n      swap1\n      div\n      0xffffffffffffffffffffffffffffffffffffffff\n      and\n        /* \"BuyBlindBoxNFT.sol\":1926:1940  transferAmount */\n      dup4\n        /* \"BuyBlindBoxNFT.sol\":1882:1886  usdt */\n      0x00\n      dup1\n      sload\n      swap1\n      0x0100\n      exp\n      swap1\n      div\n      0xffffffffffffffffffffffffffffffffffffffff\n      and\n        /* \"BuyBlindBoxNFT.sol\":1882:1903  usdt.safeTransferFrom */\n      0xffffffffffffffffffffffffffffffffffffffff\n      and\n      tag_50\n      swap1\n        /* \"BuyBlindBoxNFT.sol\":1882:1941  usdt.safeTransferFrom(msg.sender, address1, transferAmount) */\n      swap4\n      swap3\n      swap2\n      swap1\n      0xffffffff\n      and\n      jump\t// in\n    tag_49:\n        /* \"BuyBlindBoxNFT.sol\":1951:2027  usdt.safeTransferFrom(msg.sender, address2, _usdtAmount.sub(transferAmount)) */\n      tag_51\n        /* \"BuyBlindBoxNFT.sol\":1973:1983  msg.sender */\n      caller\n        /* \"BuyBlindBoxNFT.sol\":1985:1993  address2 */\n      0x02\n      0x00\n      swap1\n      sload\n      swap1\n      0x0100\n      exp\n      swap1\n      div\n      0xffffffffffffffffffffffffffffffffffffffff\n      and\n        /* \"BuyBlindBoxNFT.sol\":1995:2026  _usdtAmount.sub(transferAmount) */\n      tag_52\n        /* \"BuyBlindBoxNFT.sol\":2011:2025  transferAmount */\n      dup5\n        /* \"BuyBlindBoxNFT.sol\":1995:2006  _usdtAmount */\n      dup9\n        /* \"BuyBlindBoxNFT.sol\":1995:2010  _usdtAmount.sub */\n      tag_53\n      swap1\n        /* \"BuyBlindBoxNFT.sol\":1995:2026  _usdtAmount.sub(transferAmount) */\n      swap2\n      swap1\n      0xffffffff\n      and\n      jump\t// in\n    tag_52:\n        /* \"BuyBlindBoxNFT.sol\":1951:1955  usdt */\n      0x00\n      dup1\n      sload\n      swap1\n      0x0100\n      exp\n      swap1\n      div\n      0xffffffffffffffffffffffffffffffffffffffff\n      and\n        /* \"BuyBlindBoxNFT.sol\":1951:1972  usdt.safeTransferFrom */\n      0xffffffffffffffffffffffffffffffffffffffff\n      and\n      tag_50\n      swap1\n        /* \"BuyBlindBoxNFT.sol\":1951:2027  usdt.safeTransferFrom(msg.sender, address2, _usdtAmount.sub(transferAmount)) */\n      swap4\n      swap3\n      swap2\n      swap1\n      0xffffffff\n      and\n      jump\t// in\n    tag_51:\n        /* \"BuyBlindBoxNFT.sol\":2046:2049  800 */\n      0x0320\n        /* \"BuyBlindBoxNFT.sol\":2042:2043  r */\n      dup3\n        /* \"BuyBlindBoxNFT.sol\":2042:2049  r < 800 */\n      lt\n        /* \"BuyBlindBoxNFT.sol\":2038:2562  if (r < 800) {... */\n      iszero\n      tag_54\n      jumpi\n        /* \"BuyBlindBoxNFT.sol\":2074:2089  anotherContract */\n      0x09\n      0x00\n      swap1\n      sload\n      swap1\n      0x0100\n      exp\n      swap1\n      div\n      0xffffffffffffffffffffffffffffffffffffffff\n      and\n        /* \"BuyBlindBoxNFT.sol\":2074:2105  anotherContract.mintAndTransfer */\n      0xffffffffffffffffffffffffffffffffffffffff\n      and\n      0x477bf177\n        /* \"BuyBlindBoxNFT.sol\":2106:2116  msg.sender */\n      caller\n        /* \"BuyBlindBoxNFT.sol\":2118:2124  group1 */\n      0x05\n        /* \"BuyBlindBoxNFT.sol\":2135:2141  group1 */\n      dup1\n        /* \"BuyBlindBoxNFT.sol\":2135:2148  group1.length */\n      dup1\n      sload\n      swap1\n      pop\n        /* \"BuyBlindBoxNFT.sol\":2125:2133  random() */\n      tag_55\n        /* \"BuyBlindBoxNFT.sol\":2125:2131  random */\n      tag_29\n        /* \"BuyBlindBoxNFT.sol\":2125:2133  random() */\n      jump\t// in\n    tag_55:\n        /* \"BuyBlindBoxNFT.sol\":2125:2149  random()%(group1.length) */\n      tag_56\n      swap2\n      swap1\n      tag_31\n      jump\t// in\n    tag_56:\n        /* \"BuyBlindBoxNFT.sol\":2118:2150  group1[random()%(group1.length)] */\n      dup2\n      sload\n      dup2\n      lt\n      tag_57\n      jumpi\n      mstore(0x00, 0x4e487b7100000000000000000000000000000000000000000000000000000000)\n      mstore(0x04, 0x32)\n      revert(0x00, 0x24)\n    tag_57:\n      swap1\n      0x00\n      mstore\n      keccak256(0x00, 0x20)\n      add\n        /* \"BuyBlindBoxNFT.sol\":2074:2156  anotherContract.mintAndTransfer(msg.sender, group1[random()%(group1.length)],\"50\") */\n      mload(0x40)\n      dup4\n      0xffffffff\n      and\n      0xe0\n      shl\n      dup2\n      mstore\n      0x04\n      add\n      tag_59\n      swap3\n      swap2\n      swap1\n      tag_60\n      jump\t// in\n    tag_59:\n      0x20\n      mload(0x40)\n      dup1\n      dup4\n      sub\n      dup2\n      0x00\n      dup8\n      dup1\n      extcodesize\n      iszero\n      dup1\n      iszero\n      tag_61\n      jumpi\n      0x00\n      dup1\n      revert\n    tag_61:\n      pop\n      gas\n      call\n      iszero\n      dup1\n      iszero\n      tag_63\n      jumpi\n      returndatasize\n      0x00\n      dup1\n      returndatacopy\n      revert(0x00, returndatasize)\n    tag_63:\n      pop\n      pop\n      pop\n      pop\n      mload(0x40)\n      returndatasize\n      not(0x1f)\n      0x1f\n      dup3\n      add\n      and\n      dup3\n      add\n      dup1\n      0x40\n      mstore\n      pop\n      dup2\n      add\n      swap1\n      tag_64\n      swap2\n      swap1\n      tag_38\n      jump\t// in\n    tag_64:\n        /* \"BuyBlindBoxNFT.sol\":2065:2156  cardId = anotherContract.mintAndTransfer(msg.sender, group1[random()%(group1.length)],\"50\") */\n      swap3\n      pop\n        /* \"BuyBlindBoxNFT.sol\":2038:2562  if (r < 800) {... */\n      jump(tag_65)\n    tag_54:\n        /* \"BuyBlindBoxNFT.sol\":2181:2184  960 */\n      0x03c0\n        /* \"BuyBlindBoxNFT.sol\":2177:2178  r */\n      dup3\n        /* \"BuyBlindBoxNFT.sol\":2177:2184  r < 960 */\n      lt\n        /* \"BuyBlindBoxNFT.sol\":2173:2562  if (r < 960) {... */\n      iszero\n      tag_66\n      jumpi\n        /* \"BuyBlindBoxNFT.sol\":2209:2224  anotherContract */\n      0x09\n      0x00\n      swap1\n      sload\n      swap1\n      0x0100\n      exp\n      swap1\n      div\n      0xffffffffffffffffffffffffffffffffffffffff\n      and\n        /* \"BuyBlindBoxNFT.sol\":2209:2240  anotherContract.mintAndTransfer */\n      0xffffffffffffffffffffffffffffffffffffffff\n      and\n      0x477bf177\n        /* \"BuyBlindBoxNFT.sol\":2241:2251  msg.sender */\n      caller\n        /* \"BuyBlindBoxNFT.sol\":2253:2259  group2 */\n      0x06\n        /* \"BuyBlindBoxNFT.sol\":2270:2276  group2 */\n      dup1\n        /* \"BuyBlindBoxNFT.sol\":2270:2283  group2.length */\n      dup1\n      sload\n      swap1\n      pop\n        /* \"BuyBlindBoxNFT.sol\":2260:2268  random() */\n      tag_67\n        /* \"BuyBlindBoxNFT.sol\":2260:2266  random */\n      tag_29\n        /* \"BuyBlindBoxNFT.sol\":2260:2268  random() */\n      jump\t// in\n    tag_67:\n        /* \"BuyBlindBoxNFT.sol\":2260:2284  random()%(group2.length) */\n      tag_68\n      swap2\n      swap1\n      tag_31\n      jump\t// in\n    tag_68:\n        /* \"BuyBlindBoxNFT.sol\":2253:2285  group2[random()%(group2.length)] */\n      dup2\n      sload\n      dup2\n      lt\n      tag_69\n      jumpi\n      mstore(0x00, 0x4e487b7100000000000000000000000000000000000000000000000000000000)\n      mstore(0x04, 0x32)\n      revert(0x00, 0x24)\n    tag_69:\n      swap1\n      0x00\n      mstore\n      keccak256(0x00, 0x20)\n      add\n        /* \"BuyBlindBoxNFT.sol\":2209:2292  anotherContract.mintAndTransfer(msg.sender, group2[random()%(group2.length)],\"100\") */\n      mload(0x40)\n      dup4\n      0xffffffff\n      and\n      0xe0\n      shl\n      dup2\n      mstore\n      0x04\n      add\n      tag_71\n      swap3\n      swap2\n      swap1\n      tag_72\n      jump\t// in\n    tag_71:\n      0x20\n      mload(0x40)\n      dup1\n      dup4\n      sub\n      dup2\n      0x00\n      dup8\n      dup1\n      extcodesize\n      iszero\n      dup1\n      iszero\n      tag_73\n      jumpi\n      0x00\n      dup1\n      revert\n    tag_73:\n      pop\n      gas\n      call\n      iszero\n      dup1\n      iszero\n      tag_75\n      jumpi\n      returndatasize\n      0x00\n      dup1\n      returndatacopy\n      revert(0x00, returndatasize)\n    tag_75:\n      pop\n      pop\n      pop\n      pop\n      mload(0x40)\n      returndatasize\n      not(0x1f)\n      0x1f\n      dup3\n      add\n      and\n      dup3\n      add\n      dup1\n      0x40\n      mstore\n      pop\n      dup2\n      add\n      swap1\n      tag_76\n      swap2\n      swap1\n      tag_38\n      jump\t// in\n    tag_76:\n        /* \"BuyBlindBoxNFT.sol\":2200:2292  cardId = anotherContract.mintAndTransfer(msg.sender, group2[random()%(group2.length)],\"100\") */\n      swap3\n      pop\n        /* \"BuyBlindBoxNFT.sol\":2173:2562  if (r < 960) {... */\n      jump(tag_77)\n    tag_66:\n        /* \"BuyBlindBoxNFT.sol\":2317:2320  992 */\n      0x03e0\n        /* \"BuyBlindBoxNFT.sol\":2313:2314  r */\n      dup3\n        /* \"BuyBlindBoxNFT.sol\":2313:2320  r < 992 */\n      lt\n        /* \"BuyBlindBoxNFT.sol\":2309:2562  if (r < 992) {... */\n      iszero\n      tag_78\n      jumpi\n        /* \"BuyBlindBoxNFT.sol\":2345:2360  anotherContract */\n      0x09\n      0x00\n      swap1\n      sload\n      swap1\n      0x0100\n      exp\n      swap1\n      div\n      0xffffffffffffffffffffffffffffffffffffffff\n      and\n        /* \"BuyBlindBoxNFT.sol\":2345:2376  anotherContract.mintAndTransfer */\n      0xffffffffffffffffffffffffffffffffffffffff\n      and\n      0x477bf177\n        /* \"BuyBlindBoxNFT.sol\":2377:2387  msg.sender */\n      caller\n        /* \"BuyBlindBoxNFT.sol\":2389:2395  group3 */\n      0x07\n        /* \"BuyBlindBoxNFT.sol\":2406:2412  group3 */\n      dup1\n        /* \"BuyBlindBoxNFT.sol\":2406:2419  group3.length */\n      dup1\n      sload\n      swap1\n      pop\n        /* \"BuyBlindBoxNFT.sol\":2396:2404  random() */\n      tag_79\n        /* \"BuyBlindBoxNFT.sol\":2396:2402  random */\n      tag_29\n        /* \"BuyBlindBoxNFT.sol\":2396:2404  random() */\n      jump\t// in\n    tag_79:\n        /* \"BuyBlindBoxNFT.sol\":2396:2420  random()%(group3.length) */\n      tag_80\n      swap2\n      swap1\n      tag_31\n      jump\t// in\n    tag_80:\n        /* \"BuyBlindBoxNFT.sol\":2389:2421  group3[random()%(group3.length)] */\n      dup2\n      sload\n      dup2\n      lt\n      tag_81\n      jumpi\n      mstore(0x00, 0x4e487b7100000000000000000000000000000000000000000000000000000000)\n      mstore(0x04, 0x32)\n      revert(0x00, 0x24)\n    tag_81:\n      swap1\n      0x00\n      mstore\n      keccak256(0x00, 0x20)\n      add\n        /* \"BuyBlindBoxNFT.sol\":2345:2428  anotherContract.mintAndTransfer(msg.sender, group3[random()%(group3.length)],\"200\") */\n      mload(0x40)\n      dup4\n      0xffffffff\n      and\n      0xe0\n      shl\n      dup2\n      mstore\n      0x04\n      add\n      tag_83\n      swap3\n      swap2\n      swap1\n      tag_84\n      jump\t// in\n    tag_83:\n      0x20\n      mload(0x40)\n      dup1\n      dup4\n      sub\n      dup2\n      0x00\n      dup8\n      dup1\n      extcodesize\n      iszero\n      dup1\n      iszero\n      tag_85\n      jumpi\n      0x00\n      dup1\n      revert\n    tag_85:\n      pop\n      gas\n      call\n      iszero\n      dup1\n      iszero\n      tag_87\n      jumpi\n      returndatasize\n      0x00\n      dup1\n      returndatacopy\n      revert(0x00, returndatasize)\n    tag_87:\n      pop\n      pop\n      pop\n      pop\n      mload(0x40)\n      returndatasize\n      not(0x1f)\n      0x1f\n      dup3\n      add\n      and\n      dup3\n      add\n      dup1\n      0x40\n      mstore\n      pop\n      dup2\n      add\n      swap1\n      tag_88\n      swap2\n      swap1\n      tag_38\n      jump\t// in\n    tag_88:\n        /* \"BuyBlindBoxNFT.sol\":2336:2428  cardId = anotherContract.mintAndTransfer(msg.sender, group3[random()%(group3.length)],\"200\") */\n      swap3\n      pop\n        /* \"BuyBlindBoxNFT.sol\":2309:2562  if (r < 992) {... */\n      jump(tag_89)\n    tag_78:\n        /* \"BuyBlindBoxNFT.sol\":2468:2483  anotherContract */\n      0x09\n      0x00\n      swap1\n      sload\n      swap1\n      0x0100\n      exp\n      swap1\n      div\n      0xffffffffffffffffffffffffffffffffffffffff\n      and\n        /* \"BuyBlindBoxNFT.sol\":2468:2499  anotherContract.mintAndTransfer */\n      0xffffffffffffffffffffffffffffffffffffffff\n      and\n      0x477bf177\n        /* \"BuyBlindBoxNFT.sol\":2500:2510  msg.sender */\n      caller\n        /* \"BuyBlindBoxNFT.sol\":2512:2518  group4 */\n      0x08\n        /* \"BuyBlindBoxNFT.sol\":2529:2535  group4 */\n      dup1\n        /* \"BuyBlindBoxNFT.sol\":2529:2542  group4.length */\n      dup1\n      sload\n      swap1\n      pop\n        /* \"BuyBlindBoxNFT.sol\":2519:2527  random() */\n      tag_90\n        /* \"BuyBlindBoxNFT.sol\":2519:2525  random */\n      tag_29\n        /* \"BuyBlindBoxNFT.sol\":2519:2527  random() */\n      jump\t// in\n    tag_90:\n        /* \"BuyBlindBoxNFT.sol\":2519:2543  random()%(group4.length) */\n      tag_91\n      swap2\n      swap1\n      tag_31\n      jump\t// in\n    tag_91:\n        /* \"BuyBlindBoxNFT.sol\":2512:2544  group4[random()%(group4.length)] */\n      dup2\n      sload\n      dup2\n      lt\n      tag_92\n      jumpi\n      mstore(0x00, 0x4e487b7100000000000000000000000000000000000000000000000000000000)\n      mstore(0x04, 0x32)\n      revert(0x00, 0x24)\n    tag_92:\n      swap1\n      0x00\n      mstore\n      keccak256(0x00, 0x20)\n      add\n        /* \"BuyBlindBoxNFT.sol\":2468:2551  anotherContract.mintAndTransfer(msg.sender, group4[random()%(group4.length)],\"400\") */\n      mload(0x40)\n      dup4\n      0xffffffff\n      and\n      0xe0\n      shl\n      dup2\n      mstore\n      0x04\n      add\n      tag_94\n      swap3\n      swap2\n      swap1\n      tag_95\n      jump\t// in\n    tag_94:\n      0x20\n      mload(0x40)\n      dup1\n      dup4\n      sub\n      dup2\n      0x00\n      dup8\n      dup1\n      extcodesize\n      iszero\n      dup1\n      iszero\n      tag_96\n      jumpi\n      0x00\n      dup1\n      revert\n    tag_96:\n      pop\n      gas\n      call\n      iszero\n      dup1\n      iszero\n      tag_98\n      jumpi\n      returndatasize\n      0x00\n      dup1\n      returndatacopy\n      revert(0x00, returndatasize)\n    tag_98:\n      pop\n      pop\n      pop\n      pop\n      mload(0x40)\n      returndatasize\n      not(0x1f)\n      0x1f\n      dup3\n      add\n      and\n      dup3\n      add\n      dup1\n      0x40\n      mstore\n      pop\n      dup2\n      add\n      swap1\n      tag_99\n      swap2\n      swap1\n      tag_38\n      jump\t// in\n    tag_99:\n        /* \"BuyBlindBoxNFT.sol\":2459:2551  cardId = anotherContract.mintAndTransfer(msg.sender, group4[random()%(group4.length)],\"400\") */\n      swap3\n      pop\n        /* \"BuyBlindBoxNFT.sol\":2309:2562  if (r < 992) {... */\n    tag_89:\n        /* \"BuyBlindBoxNFT.sol\":2173:2562  if (r < 960) {... */\n    tag_77:\n        /* \"BuyBlindBoxNFT.sol\":2038:2562  if (r < 800) {... */\n    tag_65:\n        /* \"BuyBlindBoxNFT.sol\":2590:2600  msg.sender */\n      caller\n        /* \"BuyBlindBoxNFT.sol\":2576:2608  DrawCardEvent(msg.sender,cardId) */\n      0xffffffffffffffffffffffffffffffffffffffff\n      and\n      0x267422fa3a8c9525acb851824d5f4579f8de0442b971deef203719962e3b9d4a\n        /* \"BuyBlindBoxNFT.sol\":2601:2607  cardId */\n      dup5\n        /* \"BuyBlindBoxNFT.sol\":2576:2608  DrawCardEvent(msg.sender,cardId) */\n      mload(0x40)\n      tag_100\n      swap2\n      swap1\n      tag_101\n      jump\t// in\n    tag_100:\n      mload(0x40)\n      dup1\n      swap2\n      sub\n      swap1\n      log2\n        /* \"BuyBlindBoxNFT.sol\":1566:2615  function drawCard(uint256 _usdtAmount) public {... */\n      pop\n      pop\n      pop\n      pop\n      jump\t// out\n        /* \"BuyBlindBoxNFT.sol\":2898:3047  function setRandomAddress(address _address1, address _address2) external onlyOwner{... */\n    tag_21:\n        /* \"BuyBlindBoxNFT.sol\":1490:1495  owner */\n      0x03\n      0x00\n      swap1\n      sload\n      swap1\n      0x0100\n      exp\n      swap1\n      div\n      0xffffffffffffffffffffffffffffffffffffffff\n      and\n        /* \"BuyBlindBoxNFT.sol\":1476:1495  msg.sender == owner */\n      0xffffffffffffffffffffffffffffffffffffffff\n      and\n        /* \"BuyBlindBoxNFT.sol\":1476:1486  msg.sender */\n      caller\n        /* \"BuyBlindBoxNFT.sol\":1476:1495  msg.sender == owner */\n      0xffffffffffffffffffffffffffffffffffffffff\n      and\n      eq\n        /* \"BuyBlindBoxNFT.sol\":1468:1544  require(msg.sender == owner, \"Message sender must be the contract's owner.\") */\n      tag_103\n      jumpi\n      mload(0x40)\n      0x08c379a000000000000000000000000000000000000000000000000000000000\n      dup2\n      mstore\n      0x04\n      add\n      tag_104\n      swap1\n      tag_25\n      jump\t// in\n    tag_104:\n      mload(0x40)\n      dup1\n      swap2\n      sub\n      swap1\n      revert\n    tag_103:\n        /* \"BuyBlindBoxNFT.sol\":3001:3010  _address1 */\n      dup2\n        /* \"BuyBlindBoxNFT.sol\":2990:2998  address1 */\n      0x01\n      0x00\n        /* \"BuyBlindBoxNFT.sol\":2990:3010  address1 = _address1 */\n      0x0100\n      exp\n      dup2\n      sload\n      dup2\n      0xffffffffffffffffffffffffffffffffffffffff\n      mul\n      not\n      and\n      swap1\n      dup4\n      0xffffffffffffffffffffffffffffffffffffffff\n      and\n      mul\n      or\n      swap1\n      sstore\n      pop\n        /* \"BuyBlindBoxNFT.sol\":3031:3040  _address2 */\n      dup1\n        /* \"BuyBlindBoxNFT.sol\":3020:3028  address2 */\n      0x02\n      0x00\n        /* \"BuyBlindBoxNFT.sol\":3020:3040  address2 = _address2 */\n      0x0100\n      exp\n      dup2\n      sload\n      dup2\n      0xffffffffffffffffffffffffffffffffffffffff\n      mul\n      not\n      and\n      swap1\n      dup4\n      0xffffffffffffffffffffffffffffffffffffffff\n      and\n      mul\n      or\n      swap1\n      sstore\n      pop\n        /* \"BuyBlindBoxNFT.sol\":2898:3047  function setRandomAddress(address _address1, address _address2) external onlyOwner{... */\n      pop\n      pop\n      jump\t// out\n        /* \"BuyBlindBoxNFT.sol\":2621:2802  function random() private view returns (uint256) {... */\n    tag_29:\n        /* \"BuyBlindBoxNFT.sol\":2661:2668  uint256 */\n      0x00\n        /* \"BuyBlindBoxNFT.sol\":2728:2743  block.timestamp */\n      timestamp\n        /* \"BuyBlindBoxNFT.sol\":2755:2770  block.timestamp */\n      timestamp\n        /* \"BuyBlindBoxNFT.sol\":2745:2771  blockhash(block.timestamp) */\n      blockhash\n        /* \"BuyBlindBoxNFT.sol\":2773:2783  msg.sender */\n      caller\n        /* \"BuyBlindBoxNFT.sol\":2717:2784  abi.encode(block.timestamp, blockhash(block.timestamp), msg.sender) */\n      add(0x20, mload(0x40))\n      tag_107\n      swap4\n      swap3\n      swap2\n      swap1\n      tag_108\n      jump\t// in\n    tag_107:\n      mload(0x40)\n      0x20\n      dup2\n      dup4\n      sub\n      sub\n      dup2\n      mstore\n      swap1\n      0x40\n      mstore\n        /* \"BuyBlindBoxNFT.sol\":2707:2785  keccak256(abi.encode(block.timestamp, blockhash(block.timestamp), msg.sender)) */\n      dup1\n      mload\n      swap1\n      0x20\n      add\n      keccak256\n        /* \"BuyBlindBoxNFT.sol\":2687:2795  uint256(... */\n      0x00\n      shr\n        /* \"BuyBlindBoxNFT.sol\":2680:2795  return uint256(... */\n      swap1\n      pop\n        /* \"BuyBlindBoxNFT.sol\":2621:2802  function random() private view returns (uint256) {... */\n      swap1\n      jump\t// out\n        /* \"@openzeppelin/contracts/utils/math/SafeMath.sol\":3465:3561  function mul(uint256 a, uint256 b) internal pure returns (uint256) {... */\n    tag_47:\n        /* \"@openzeppelin/contracts/utils/math/SafeMath.sol\":3523:3530  uint256 */\n      0x00\n        /* \"@openzeppelin/contracts/utils/math/SafeMath.sol\":3553:3554  b */\n      dup2\n        /* \"@openzeppelin/contracts/utils/math/SafeMath.sol\":3549:3550  a */\n      dup4\n        /* \"@openzeppelin/contracts/utils/math/SafeMath.sol\":3549:3554  a * b */\n      tag_110\n      swap2\n      swap1\n      tag_111\n      jump\t// in\n    tag_110:\n        /* \"@openzeppelin/contracts/utils/math/SafeMath.sol\":3542:3554  return a * b */\n      swap1\n      pop\n        /* \"@openzeppelin/contracts/utils/math/SafeMath.sol\":3465:3561  function mul(uint256 a, uint256 b) internal pure returns (uint256) {... */\n      swap3\n      swap2\n      pop\n      pop\n      jump\t// out\n        /* \"@openzeppelin/contracts/utils/math/SafeMath.sol\":3850:3946  function div(uint256 a, uint256 b) internal pure returns (uint256) {... */\n    tag_48:\n        /* \"@openzeppelin/contracts/utils/math/SafeMath.sol\":3908:3915  uint256 */\n      0x00\n        /* \"@openzeppelin/contracts/utils/math/SafeMath.sol\":3938:3939  b */\n      dup2\n        /* \"@openzeppelin/contracts/utils/math/SafeMath.sol\":3934:3935  a */\n      dup4\n        /* \"@openzeppelin/contracts/utils/math/SafeMath.sol\":3934:3939  a / b */\n      tag_113\n      swap2\n      swap1\n      tag_114\n      jump\t// in\n    tag_113:\n        /* \"@openzeppelin/contracts/utils/math/SafeMath.sol\":3927:3939  return a / b */\n      swap1\n      pop\n        /* \"@openzeppelin/contracts/utils/math/SafeMath.sol\":3850:3946  function div(uint256 a, uint256 b) internal pure returns (uint256) {... */\n      swap3\n      swap2\n      pop\n      pop\n      jump\t// out\n        /* \"@openzeppelin/contracts/token/ERC20/utils/SafeERC20.sol\":974:1215  function safeTransferFrom(... */\n    tag_50:\n        /* \"@openzeppelin/contracts/token/ERC20/utils/SafeERC20.sol\":1112:1208  _callOptionalReturn(token, abi.encodeWithSelector(token.transferFrom.selector, from, to, value)) */\n      tag_116\n        /* \"@openzeppelin/contracts/token/ERC20/utils/SafeERC20.sol\":1132:1137  token */\n      dup5\n        /* \"@openzeppelin/contracts/token/ERC20/utils/SafeERC20.sol\":1162:1189  token.transferFrom.selector */\n      shl(0xe0, 0x23b872dd)\n        /* \"@openzeppelin/contracts/token/ERC20/utils/SafeERC20.sol\":1191:1195  from */\n      dup6\n        /* \"@openzeppelin/contracts/token/ERC20/utils/SafeERC20.sol\":1197:1199  to */\n      dup6\n        /* \"@openzeppelin/contracts/token/ERC20/utils/SafeERC20.sol\":1201:1206  value */\n      dup6\n        /* \"@openzeppelin/contracts/token/ERC20/utils/SafeERC20.sol\":1139:1207  abi.encodeWithSelector(token.transferFrom.selector, from, to, value) */\n      add(0x24, mload(0x40))\n      tag_117\n      swap4\n      swap3\n      swap2\n      swap1\n      tag_118\n      jump\t// in\n    tag_117:\n      mload(0x40)\n      0x20\n      dup2\n      dup4\n      sub\n      sub\n      dup2\n      mstore\n      swap1\n      0x40\n      mstore\n      swap1\n      not(0xffffffffffffffffffffffffffffffffffffffffffffffffffffffff)\n      and\n      0x20\n      dup3\n      add\n      dup1\n      mload\n      0xffffffffffffffffffffffffffffffffffffffffffffffffffffffff\n      dup4\n      dup2\n      dup4\n      and\n      or\n      dup4\n      mstore\n      pop\n      pop\n      pop\n      pop\n        /* \"@openzeppelin/contracts/token/ERC20/utils/SafeERC20.sol\":1112:1131  _callOptionalReturn */\n      tag_119\n        /* \"@openzeppelin/contracts/token/ERC20/utils/SafeERC20.sol\":1112:1208  _callOptionalReturn(token, abi.encodeWithSelector(token.transferFrom.selector, from, to, value)) */\n      jump\t// in\n    tag_116:\n        /* \"@openzeppelin/contracts/token/ERC20/utils/SafeERC20.sol\":974:1215  function safeTransferFrom(... */\n      pop\n      pop\n      pop\n      pop\n      jump\t// out\n        /* \"@openzeppelin/contracts/utils/math/SafeMath.sol\":3122:3218  function sub(uint256 a, uint256 b) internal pure returns (uint256) {... */\n    tag_53:\n        /* \"@openzeppelin/contracts/utils/math/SafeMath.sol\":3180:3187  uint256 */\n      0x00\n        /* \"@openzeppelin/contracts/utils/math/SafeMath.sol\":3210:3211  b */\n      dup2\n        /* \"@openzeppelin/contracts/utils/math/SafeMath.sol\":3206:3207  a */\n      dup4\n        /* \"@openzeppelin/contracts/utils/math/SafeMath.sol\":3206:3211  a - b */\n      tag_121\n      swap2\n      swap1\n      tag_122\n      jump\t// in\n    tag_121:\n        /* \"@openzeppelin/contracts/utils/math/SafeMath.sol\":3199:3211  return a - b */\n      swap1\n      pop\n        /* \"@openzeppelin/contracts/utils/math/SafeMath.sol\":3122:3218  function sub(uint256 a, uint256 b) internal pure returns (uint256) {... */\n      swap3\n      swap2\n      pop\n      pop\n      jump\t// out\n        /* \"@openzeppelin/contracts/token/ERC20/utils/SafeERC20.sol\":3747:4453  function _callOptionalReturn(IERC20 token, bytes memory data) private {... */\n    tag_119:\n        /* \"@openzeppelin/contracts/token/ERC20/utils/SafeERC20.sol\":4166:4189  bytes memory returndata */\n      0x00\n        /* \"@openzeppelin/contracts/token/ERC20/utils/SafeERC20.sol\":4192:4261  address(token).functionCall(data, \"SafeERC20: low-level call failed\") */\n      tag_124\n        /* \"@openzeppelin/contracts/token/ERC20/utils/SafeERC20.sol\":4220:4224  data */\n      dup3\n        /* \"@openzeppelin/contracts/token/ERC20/utils/SafeERC20.sol\":4192:4261  address(token).functionCall(data, \"SafeERC20: low-level call failed\") */\n      mload(0x40)\n      dup1\n      0x40\n      add\n      0x40\n      mstore\n      dup1\n      0x20\n      dup2\n      mstore\n      0x20\n      add\n      0x5361666545524332303a206c6f772d6c6576656c2063616c6c206661696c6564\n      dup2\n      mstore\n      pop\n        /* \"@openzeppelin/contracts/token/ERC20/utils/SafeERC20.sol\":4200:4205  token */\n      dup6\n        /* \"@openzeppelin/contracts/token/ERC20/utils/SafeERC20.sol\":4192:4219  address(token).functionCall */\n      0xffffffffffffffffffffffffffffffffffffffff\n      and\n      tag_125\n      swap1\n        /* \"@openzeppelin/contracts/token/ERC20/utils/SafeERC20.sol\":4192:4261  address(token).functionCall(data, \"SafeERC20: low-level call failed\") */\n      swap3\n      swap2\n      swap1\n      0xffffffff\n      and\n      jump\t// in\n    tag_124:\n        /* \"@openzeppelin/contracts/token/ERC20/utils/SafeERC20.sol\":4166:4261  bytes memory returndata = address(token).functionCall(data, \"SafeERC20: low-level call failed\") */\n      swap1\n      pop\n        /* \"@openzeppelin/contracts/token/ERC20/utils/SafeERC20.sol\":4295:4296  0 */\n      0x00\n        /* \"@openzeppelin/contracts/token/ERC20/utils/SafeERC20.sol\":4275:4285  returndata */\n      dup2\n        /* \"@openzeppelin/contracts/token/ERC20/utils/SafeERC20.sol\":4275:4292  returndata.length */\n      mload\n        /* \"@openzeppelin/contracts/token/ERC20/utils/SafeERC20.sol\":4275:4296  returndata.length > 0 */\n      gt\n        /* \"@openzeppelin/contracts/token/ERC20/utils/SafeERC20.sol\":4271:4447  if (returndata.length > 0) {... */\n      iszero\n      tag_126\n      jumpi\n        /* \"@openzeppelin/contracts/token/ERC20/utils/SafeERC20.sol\":4370:4380  returndata */\n      dup1\n        /* \"@openzeppelin/contracts/token/ERC20/utils/SafeERC20.sol\":4359:4389  abi.decode(returndata, (bool)) */\n      dup1\n      0x20\n      add\n      swap1\n      mload\n      dup2\n      add\n      swap1\n      tag_127\n      swap2\n      swap1\n      tag_128\n      jump\t// in\n    tag_127:\n        /* \"@openzeppelin/contracts/token/ERC20/utils/SafeERC20.sol\":4351:4436  require(abi.decode(returndata, (bool)), \"SafeERC20: ERC20 operation did not succeed\") */\n      tag_129\n      jumpi\n      mload(0x40)\n      0x08c379a000000000000000000000000000000000000000000000000000000000\n      dup2\n      mstore\n      0x04\n      add\n      tag_130\n      swap1\n      tag_131\n      jump\t// in\n    tag_130:\n      mload(0x40)\n      dup1\n      swap2\n      sub\n      swap1\n      revert\n    tag_129:\n        /* \"@openzeppelin/contracts/token/ERC20/utils/SafeERC20.sol\":4271:4447  if (returndata.length > 0) {... */\n    tag_126:\n        /* \"@openzeppelin/contracts/token/ERC20/utils/SafeERC20.sol\":3747:4453  function _callOptionalReturn(IERC20 token, bytes memory data) private {... */\n      pop\n      pop\n      pop\n      jump\t// out\n        /* \"@openzeppelin/contracts/utils/Address.sol\":3873:4096  function functionCall(... */\n    tag_125:\n        /* \"@openzeppelin/contracts/utils/Address.sol\":4006:4018  bytes memory */\n      0x60\n        /* \"@openzeppelin/contracts/utils/Address.sol\":4037:4089  functionCallWithValue(target, data, 0, errorMessage) */\n      tag_133\n        /* \"@openzeppelin/contracts/utils/Address.sol\":4059:4065  target */\n      dup5\n        /* \"@openzeppelin/contracts/utils/Address.sol\":4067:4071  data */\n      dup5\n        /* \"@openzeppelin/contracts/utils/Address.sol\":4073:4074  0 */\n      0x00\n        /* \"@openzeppelin/contracts/utils/Address.sol\":4076:4088  errorMessage */\n      dup6\n        /* \"@openzeppelin/contracts/utils/Address.sol\":4037:4058  functionCallWithValue */\n      tag_134\n        /* \"@openzeppelin/contracts/utils/Address.sol\":4037:4089  functionCallWithValue(target, data, 0, errorMessage) */\n      jump\t// in\n    tag_133:\n        /* \"@openzeppelin/contracts/utils/Address.sol\":4030:4089  return functionCallWithValue(target, data, 0, errorMessage) */\n      swap1\n      pop\n        /* \"@openzeppelin/contracts/utils/Address.sol\":3873:4096  function functionCall(... */\n      swap4\n      swap3\n      pop\n      pop\n      pop\n      jump\t// out\n        /* \"@openzeppelin/contracts/utils/Address.sol\":4960:5406  function functionCallWithValue(... */\n    tag_134:\n        /* \"@openzeppelin/contracts/utils/Address.sol\":5125:5137  bytes memory */\n      0x60\n        /* \"@openzeppelin/contracts/utils/Address.sol\":5182:5187  value */\n      dup3\n        /* \"@openzeppelin/contracts/utils/Address.sol\":5157:5178  address(this).balance */\n      selfbalance\n        /* \"@openzeppelin/contracts/utils/Address.sol\":5157:5187  address(this).balance >= value */\n      lt\n      iszero\n        /* \"@openzeppelin/contracts/utils/Address.sol\":5149:5230  require(address(this).balance >= value, \"Address: insufficient balance for call\") */\n      tag_136\n      jumpi\n      mload(0x40)\n      0x08c379a000000000000000000000000000000000000000000000000000000000\n      dup2\n      mstore\n      0x04\n      add\n      tag_137\n      swap1\n      tag_138\n      jump\t// in\n    tag_137:\n      mload(0x40)\n      dup1\n      swap2\n      sub\n      swap1\n      revert\n    tag_136:\n        /* \"@openzeppelin/contracts/utils/Address.sol\":5241:5253  bool success */\n      0x00\n        /* \"@openzeppelin/contracts/utils/Address.sol\":5255:5278  bytes memory returndata */\n      dup1\n        /* \"@openzeppelin/contracts/utils/Address.sol\":5282:5288  target */\n      dup7\n        /* \"@openzeppelin/contracts/utils/Address.sol\":5282:5293  target.call */\n      0xffffffffffffffffffffffffffffffffffffffff\n      and\n        /* \"@openzeppelin/contracts/utils/Address.sol\":5301:5306  value */\n      dup6\n        /* \"@openzeppelin/contracts/utils/Address.sol\":5308:5312  data */\n      dup8\n        /* \"@openzeppelin/contracts/utils/Address.sol\":5282:5313  target.call{value: value}(data) */\n      mload(0x40)\n      tag_139\n      swap2\n      swap1\n      tag_140\n      jump\t// in\n    tag_139:\n      0x00\n      mload(0x40)\n      dup1\n      dup4\n      sub\n      dup2\n      dup6\n      dup8\n      gas\n      call\n      swap3\n      pop\n      pop\n      pop\n      returndatasize\n      dup1\n      0x00\n      dup2\n      eq\n      tag_143\n      jumpi\n      mload(0x40)\n      swap2\n      pop\n      and(add(returndatasize, 0x3f), not(0x1f))\n      dup3\n      add\n      0x40\n      mstore\n      returndatasize\n      dup3\n      mstore\n      returndatasize\n      0x00\n      0x20\n      dup5\n      add\n      returndatacopy\n      jump(tag_142)\n    tag_143:\n      0x60\n      swap2\n      pop\n    tag_142:\n      pop\n        /* \"@openzeppelin/contracts/utils/Address.sol\":5240:5313  (bool success, bytes memory returndata) = target.call{value: value}(data) */\n      swap2\n      pop\n      swap2\n      pop\n        /* \"@openzeppelin/contracts/utils/Address.sol\":5330:5399  verifyCallResultFromTarget(target, success, returndata, errorMessage) */\n      tag_144\n        /* \"@openzeppelin/contracts/utils/Address.sol\":5357:5363  target */\n      dup8\n        /* \"@openzeppelin/contracts/utils/Address.sol\":5365:5372  success */\n      dup4\n        /* \"@openzeppelin/contracts/utils/Address.sol\":5374:5384  returndata */\n      dup4\n        /* \"@openzeppelin/contracts/utils/Address.sol\":5386:5398  errorMessage */\n      dup8\n        /* \"@openzeppelin/contracts/utils/Address.sol\":5330:5356  verifyCallResultFromTarget */\n      tag_145\n        /* \"@openzeppelin/contracts/utils/Address.sol\":5330:5399  verifyCallResultFromTarget(target, success, returndata, errorMessage) */\n      jump\t// in\n    tag_144:\n        /* \"@openzeppelin/contracts/utils/Address.sol\":5323:5399  return verifyCallResultFromTarget(target, success, returndata, errorMessage) */\n      swap3\n      pop\n      pop\n      pop\n        /* \"@openzeppelin/contracts/utils/Address.sol\":4960:5406  function functionCallWithValue(... */\n      swap5\n      swap4\n      pop\n      pop\n      pop\n      pop\n      jump\t// out\n        /* \"@openzeppelin/contracts/utils/Address.sol\":7466:8094  function verifyCallResultFromTarget(... */\n    tag_145:\n        /* \"@openzeppelin/contracts/utils/Address.sol\":7646:7658  bytes memory */\n      0x60\n        /* \"@openzeppelin/contracts/utils/Address.sol\":7674:7681  success */\n      dup4\n        /* \"@openzeppelin/contracts/utils/Address.sol\":7670:8088  if (success) {... */\n      iszero\n      tag_147\n      jumpi\n        /* \"@openzeppelin/contracts/utils/Address.sol\":7722:7723  0 */\n      0x00\n        /* \"@openzeppelin/contracts/utils/Address.sol\":7701:7711  returndata */\n      dup4\n        /* \"@openzeppelin/contracts/utils/Address.sol\":7701:7718  returndata.length */\n      mload\n        /* \"@openzeppelin/contracts/utils/Address.sol\":7701:7723  returndata.length == 0 */\n      eq\n        /* \"@openzeppelin/contracts/utils/Address.sol\":7697:7983  if (returndata.length == 0) {... */\n      iszero\n      tag_148\n      jumpi\n        /* \"@openzeppelin/contracts/utils/Address.sol\":7916:7934  isContract(target) */\n      tag_149\n        /* \"@openzeppelin/contracts/utils/Address.sol\":7927:7933  target */\n      dup6\n        /* \"@openzeppelin/contracts/utils/Address.sol\":7916:7926  isContract */\n      tag_150\n        /* \"@openzeppelin/contracts/utils/Address.sol\":7916:7934  isContract(target) */\n      jump\t// in\n    tag_149:\n        /* \"@openzeppelin/contracts/utils/Address.sol\":7908:7968  require(isContract(target), \"Address: call to non-contract\") */\n      tag_151\n      jumpi\n      mload(0x40)\n      0x08c379a000000000000000000000000000000000000000000000000000000000\n      dup2\n      mstore\n      0x04\n      add\n      tag_152\n      swap1\n      tag_153\n      jump\t// in\n    tag_152:\n      mload(0x40)\n      dup1\n      swap2\n      sub\n      swap1\n      revert\n    tag_151:\n        /* \"@openzeppelin/contracts/utils/Address.sol\":7697:7983  if (returndata.length == 0) {... */\n    tag_148:\n        /* \"@openzeppelin/contracts/utils/Address.sol\":8003:8013  returndata */\n      dup3\n        /* \"@openzeppelin/contracts/utils/Address.sol\":7996:8013  return returndata */\n      swap1\n      pop\n      jump(tag_146)\n        /* \"@openzeppelin/contracts/utils/Address.sol\":7670:8088  if (success) {... */\n    tag_147:\n        /* \"@openzeppelin/contracts/utils/Address.sol\":8044:8077  _revert(returndata, errorMessage) */\n      tag_155\n        /* \"@openzeppelin/contracts/utils/Address.sol\":8052:8062  returndata */\n      dup4\n        /* \"@openzeppelin/contracts/utils/Address.sol\":8064:8076  errorMessage */\n      dup4\n        /* \"@openzeppelin/contracts/utils/Address.sol\":8044:8051  _revert */\n      tag_156\n        /* \"@openzeppelin/contracts/utils/Address.sol\":8044:8077  _revert(returndata, errorMessage) */\n      jump\t// in\n    tag_155:\n        /* \"@openzeppelin/contracts/utils/Address.sol\":7466:8094  function verifyCallResultFromTarget(... */\n    tag_146:\n      swap5\n      swap4\n      pop\n      pop\n      pop\n      pop\n      jump\t// out\n        /* \"@openzeppelin/contracts/utils/Address.sol\":1175:1495  function isContract(address account) internal view returns (bool) {... */\n    tag_150:\n        /* \"@openzeppelin/contracts/utils/Address.sol\":1235:1239  bool */\n      0x00\n        /* \"@openzeppelin/contracts/utils/Address.sol\":1487:1488  0 */\n      dup1\n        /* \"@openzeppelin/contracts/utils/Address.sol\":1465:1472  account */\n      dup3\n        /* \"@openzeppelin/contracts/utils/Address.sol\":1465:1484  account.code.length */\n      0xffffffffffffffffffffffffffffffffffffffff\n      and\n      extcodesize\n        /* \"@openzeppelin/contracts/utils/Address.sol\":1465:1488  account.code.length > 0 */\n      gt\n        /* \"@openzeppelin/contracts/utils/Address.sol\":1458:1488  return account.code.length > 0 */\n      swap1\n      pop\n        /* \"@openzeppelin/contracts/utils/Address.sol\":1175:1495  function isContract(address account) internal view returns (bool) {... */\n      swap2\n      swap1\n      pop\n      jump\t// out\n        /* \"@openzeppelin/contracts/utils/Address.sol\":8616:9156  function _revert(bytes memory returndata, string memory errorMessage) private pure {... */\n    tag_156:\n        /* \"@openzeppelin/contracts/utils/Address.sol\":8795:8796  0 */\n      0x00\n        /* \"@openzeppelin/contracts/utils/Address.sol\":8775:8785  returndata */\n      dup3\n        /* \"@openzeppelin/contracts/utils/Address.sol\":8775:8792  returndata.length */\n      mload\n        /* \"@openzeppelin/contracts/utils/Address.sol\":8775:8796  returndata.length > 0 */\n      gt\n        /* \"@openzeppelin/contracts/utils/Address.sol\":8771:9150  if (returndata.length > 0) {... */\n      iszero\n      tag_159\n      jumpi\n        /* \"@openzeppelin/contracts/utils/Address.sol\":9003:9013  returndata */\n      dup2\n        /* \"@openzeppelin/contracts/utils/Address.sol\":8997:9014  mload(returndata) */\n      mload\n        /* \"@openzeppelin/contracts/utils/Address.sol\":9059:9074  returndata_size */\n      dup1\n        /* \"@openzeppelin/contracts/utils/Address.sol\":9046:9056  returndata */\n      dup4\n        /* \"@openzeppelin/contracts/utils/Address.sol\":9042:9044  32 */\n      0x20\n        /* \"@openzeppelin/contracts/utils/Address.sol\":9038:9057  add(32, returndata) */\n      add\n        /* \"@openzeppelin/contracts/utils/Address.sol\":9031:9075  revert(add(32, returndata), returndata_size) */\n      revert\n        /* \"@openzeppelin/contracts/utils/Address.sol\":8956:9089  {... */\n    tag_159:\n        /* \"@openzeppelin/contracts/utils/Address.sol\":9126:9138  errorMessage */\n      dup1\n        /* \"@openzeppelin/contracts/utils/Address.sol\":9119:9139  revert(errorMessage) */\n      mload(0x40)\n      0x08c379a000000000000000000000000000000000000000000000000000000000\n      dup2\n      mstore\n      0x04\n      add\n      tag_161\n      swap2\n      swap1\n      tag_162\n      jump\t// in\n    tag_161:\n      mload(0x40)\n      dup1\n      swap2\n      sub\n      swap1\n      revert\n        /* \"#utility.yul\":7:146   */\n    tag_164:\n      0x00\n        /* \"#utility.yul\":91:97   */\n      dup2\n        /* \"#utility.yul\":78:98   */\n      calldataload\n        /* \"#utility.yul\":69:98   */\n      swap1\n      pop\n        /* \"#utility.yul\":107:140   */\n      tag_166\n        /* \"#utility.yul\":134:139   */\n      dup2\n        /* \"#utility.yul\":107:140   */\n      tag_167\n      jump\t// in\n    tag_166:\n        /* \"#utility.yul\":59:146   */\n      swap3\n      swap2\n      pop\n      pop\n      jump\t// out\n        /* \"#utility.yul\":152:289   */\n    tag_168:\n      0x00\n        /* \"#utility.yul\":237:243   */\n      dup2\n        /* \"#utility.yul\":231:244   */\n      mload\n        /* \"#utility.yul\":222:244   */\n      swap1\n      pop\n        /* \"#utility.yul\":253:283   */\n      tag_170\n        /* \"#utility.yul\":277:282   */\n      dup2\n        /* \"#utility.yul\":253:283   */\n      tag_171\n      jump\t// in\n    tag_170:\n        /* \"#utility.yul\":212:289   */\n      swap3\n      swap2\n      pop\n      pop\n      jump\t// out\n        /* \"#utility.yul\":295:434   */\n    tag_172:\n      0x00\n        /* \"#utility.yul\":379:385   */\n      dup2\n        /* \"#utility.yul\":366:386   */\n      calldataload\n        /* \"#utility.yul\":357:386   */\n      swap1\n      pop\n        /* \"#utility.yul\":395:428   */\n      tag_174\n        /* \"#utility.yul\":422:427   */\n      dup2\n        /* \"#utility.yul\":395:428   */\n      tag_175\n      jump\t// in\n    tag_174:\n        /* \"#utility.yul\":347:434   */\n      swap3\n      swap2\n      pop\n      pop\n      jump\t// out\n        /* \"#utility.yul\":440:583   */\n    tag_176:\n      0x00\n        /* \"#utility.yul\":528:534   */\n      dup2\n        /* \"#utility.yul\":522:535   */\n      mload\n        /* \"#utility.yul\":513:535   */\n      swap1\n      pop\n        /* \"#utility.yul\":544:577   */\n      tag_178\n        /* \"#utility.yul\":571:576   */\n      dup2\n        /* \"#utility.yul\":544:577   */\n      tag_175\n      jump\t// in\n    tag_178:\n        /* \"#utility.yul\":503:583   */\n      swap3\n      swap2\n      pop\n      pop\n      jump\t// out\n        /* \"#utility.yul\":589:996   */\n    tag_20:\n      0x00\n      dup1\n        /* \"#utility.yul\":714:716   */\n      0x40\n        /* \"#utility.yul\":702:711   */\n      dup4\n        /* \"#utility.yul\":693:700   */\n      dup6\n        /* \"#utility.yul\":689:712   */\n      sub\n        /* \"#utility.yul\":685:717   */\n      slt\n        /* \"#utility.yul\":682:684   */\n      iszero\n      tag_180\n      jumpi\n        /* \"#utility.yul\":730:731   */\n      0x00\n        /* \"#utility.yul\":727:728   */\n      dup1\n        /* \"#utility.yul\":720:732   */\n      revert\n        /* \"#utility.yul\":682:684   */\n    tag_180:\n        /* \"#utility.yul\":773:774   */\n      0x00\n        /* \"#utility.yul\":798:851   */\n      tag_181\n        /* \"#utility.yul\":843:850   */\n      dup6\n        /* \"#utility.yul\":834:840   */\n      dup3\n        /* \"#utility.yul\":823:832   */\n      dup7\n        /* \"#utility.yul\":819:841   */\n      add\n        /* \"#utility.yul\":798:851   */\n      tag_164\n      jump\t// in\n    tag_181:\n        /* \"#utility.yul\":788:851   */\n      swap3\n      pop\n        /* \"#utility.yul\":744:861   */\n      pop\n        /* \"#utility.yul\":900:902   */\n      0x20\n        /* \"#utility.yul\":926:979   */\n      tag_182\n        /* \"#utility.yul\":971:978   */\n      dup6\n        /* \"#utility.yul\":962:968   */\n      dup3\n        /* \"#utility.yul\":951:960   */\n      dup7\n        /* \"#utility.yul\":947:969   */\n      add\n        /* \"#utility.yul\":926:979   */\n      tag_164\n      jump\t// in\n    tag_182:\n        /* \"#utility.yul\":916:979   */\n      swap2\n      pop\n        /* \"#utility.yul\":871:989   */\n      pop\n        /* \"#utility.yul\":672:996   */\n      swap3\n      pop\n      swap3\n      swap1\n      pop\n      jump\t// out\n        /* \"#utility.yul\":1002:1280   */\n    tag_128:\n      0x00\n        /* \"#utility.yul\":1118:1120   */\n      0x20\n        /* \"#utility.yul\":1106:1115   */\n      dup3\n        /* \"#utility.yul\":1097:1104   */\n      dup5\n        /* \"#utility.yul\":1093:1116   */\n      sub\n        /* \"#utility.yul\":1089:1121   */\n      slt\n        /* \"#utility.yul\":1086:1088   */\n      iszero\n      tag_184\n      jumpi\n        /* \"#utility.yul\":1134:1135   */\n      0x00\n        /* \"#utility.yul\":1131:1132   */\n      dup1\n        /* \"#utility.yul\":1124:1136   */\n      revert\n        /* \"#utility.yul\":1086:1088   */\n    tag_184:\n        /* \"#utility.yul\":1177:1178   */\n      0x00\n        /* \"#utility.yul\":1202:1263   */\n      tag_185\n        /* \"#utility.yul\":1255:1262   */\n      dup5\n        /* \"#utility.yul\":1246:1252   */\n      dup3\n        /* \"#utility.yul\":1235:1244   */\n      dup6\n        /* \"#utility.yul\":1231:1253   */\n      add\n        /* \"#utility.yul\":1202:1263   */\n      tag_168\n      jump\t// in\n    tag_185:\n        /* \"#utility.yul\":1192:1263   */\n      swap2\n      pop\n        /* \"#utility.yul\":1148:1273   */\n      pop\n        /* \"#utility.yul\":1076:1280   */\n      swap3\n      swap2\n      pop\n      pop\n      jump\t// out\n        /* \"#utility.yul\":1286:1548   */\n    tag_13:\n      0x00\n        /* \"#utility.yul\":1394:1396   */\n      0x20\n        /* \"#utility.yul\":1382:1391   */\n      dup3\n        /* \"#utility.yul\":1373:1380   */\n      dup5\n        /* \"#utility.yul\":1369:1392   */\n      sub\n        /* \"#utility.yul\":1365:1397   */\n      slt\n        /* \"#utility.yul\":1362:1364   */\n      iszero\n      tag_187\n      jumpi\n        /* \"#utility.yul\":1410:1411   */\n      0x00\n        /* \"#utility.yul\":1407:1408   */\n      dup1\n        /* \"#utility.yul\":1400:1412   */\n      revert\n        /* \"#utility.yul\":1362:1364   */\n    tag_187:\n        /* \"#utility.yul\":1453:1454   */\n      0x00\n        /* \"#utility.yul\":1478:1531   */\n      tag_188\n        /* \"#utility.yul\":1523:1530   */\n      dup5\n        /* \"#utility.yul\":1514:1520   */\n      dup3\n        /* \"#utility.yul\":1503:1512   */\n      dup6\n        /* \"#utility.yul\":1499:1521   */\n      add\n        /* \"#utility.yul\":1478:1531   */\n      tag_172\n      jump\t// in\n    tag_188:\n        /* \"#utility.yul\":1468:1531   */\n      swap2\n      pop\n        /* \"#utility.yul\":1424:1541   */\n      pop\n        /* \"#utility.yul\":1352:1548   */\n      swap3\n      swap2\n      pop\n      pop\n      jump\t// out\n        /* \"#utility.yul\":1554:1838   */\n    tag_38:\n      0x00\n        /* \"#utility.yul\":1673:1675   */\n      0x20\n        /* \"#utility.yul\":1661:1670   */\n      dup3\n        /* \"#utility.yul\":1652:1659   */\n      dup5\n        /* \"#utility.yul\":1648:1671   */\n      sub\n        /* \"#utility.yul\":1644:1676   */\n      slt\n        /* \"#utility.yul\":1641:1643   */\n      iszero\n      tag_190\n      jumpi\n        /* \"#utility.yul\":1689:1690   */\n      0x00\n        /* \"#utility.yul\":1686:1687   */\n      dup1\n        /* \"#utility.yul\":1679:1691   */\n      revert\n        /* \"#utility.yul\":1641:1643   */\n    tag_190:\n        /* \"#utility.yul\":1732:1733   */\n      0x00\n        /* \"#utility.yul\":1757:1821   */\n      tag_191\n        /* \"#utility.yul\":1813:1820   */\n      dup5\n        /* \"#utility.yul\":1804:1810   */\n      dup3\n        /* \"#utility.yul\":1793:1802   */\n      dup6\n        /* \"#utility.yul\":1789:1811   */\n      add\n        /* \"#utility.yul\":1757:1821   */\n      tag_176\n      jump\t// in\n    tag_191:\n        /* \"#utility.yul\":1747:1821   */\n      swap2\n      pop\n        /* \"#utility.yul\":1703:1831   */\n      pop\n        /* \"#utility.yul\":1631:1838   */\n      swap3\n      swap2\n      pop\n      pop\n      jump\t// out\n        /* \"#utility.yul\":1844:1962   */\n    tag_192:\n        /* \"#utility.yul\":1931:1955   */\n      tag_194\n        /* \"#utility.yul\":1949:1954   */\n      dup2\n        /* \"#utility.yul\":1931:1955   */\n      tag_195\n      jump\t// in\n    tag_194:\n        /* \"#utility.yul\":1926:1929   */\n      dup3\n        /* \"#utility.yul\":1919:1956   */\n      mstore\n        /* \"#utility.yul\":1909:1962   */\n      pop\n      pop\n      jump\t// out\n        /* \"#utility.yul\":1968:2086   */\n    tag_196:\n        /* \"#utility.yul\":2055:2079   */\n      tag_198\n        /* \"#utility.yul\":2073:2078   */\n      dup2\n        /* \"#utility.yul\":2055:2079   */\n      tag_199\n      jump\t// in\n    tag_198:\n        /* \"#utility.yul\":2050:2053   */\n      dup3\n        /* \"#utility.yul\":2043:2080   */\n      mstore\n        /* \"#utility.yul\":2033:2086   */\n      pop\n      pop\n      jump\t// out\n        /* \"#utility.yul\":2092:2465   */\n    tag_200:\n      0x00\n        /* \"#utility.yul\":2224:2262   */\n      tag_202\n        /* \"#utility.yul\":2256:2261   */\n      dup3\n        /* \"#utility.yul\":2224:2262   */\n      tag_203\n      jump\t// in\n    tag_202:\n        /* \"#utility.yul\":2278:2366   */\n      tag_204\n        /* \"#utility.yul\":2359:2365   */\n      dup2\n        /* \"#utility.yul\":2354:2357   */\n      dup6\n        /* \"#utility.yul\":2278:2366   */\n      tag_205\n      jump\t// in\n    tag_204:\n        /* \"#utility.yul\":2271:2366   */\n      swap4\n      pop\n        /* \"#utility.yul\":2375:2427   */\n      tag_206\n        /* \"#utility.yul\":2420:2426   */\n      dup2\n        /* \"#utility.yul\":2415:2418   */\n      dup6\n        /* \"#utility.yul\":2408:2412   */\n      0x20\n        /* \"#utility.yul\":2401:2406   */\n      dup7\n        /* \"#utility.yul\":2397:2413   */\n      add\n        /* \"#utility.yul\":2375:2427   */\n      tag_207\n      jump\t// in\n    tag_206:\n        /* \"#utility.yul\":2452:2458   */\n      dup1\n        /* \"#utility.yul\":2447:2450   */\n      dup5\n        /* \"#utility.yul\":2443:2459   */\n      add\n        /* \"#utility.yul\":2436:2459   */\n      swap2\n      pop\n        /* \"#utility.yul\":2200:2465   */\n      pop\n      swap3\n      swap2\n      pop\n      pop\n      jump\t// out\n        /* \"#utility.yul\":2471:2628   */\n    tag_208:\n        /* \"#utility.yul\":2571:2621   */\n      tag_210\n        /* \"#utility.yul\":2615:2620   */\n      dup2\n        /* \"#utility.yul\":2571:2621   */\n      tag_211\n      jump\t// in\n    tag_210:\n        /* \"#utility.yul\":2566:2569   */\n      dup3\n        /* \"#utility.yul\":2559:2622   */\n      mstore\n        /* \"#utility.yul\":2549:2628   */\n      pop\n      pop\n      jump\t// out\n        /* \"#utility.yul\":2634:2998   */\n    tag_212:\n      0x00\n        /* \"#utility.yul\":2750:2789   */\n      tag_214\n        /* \"#utility.yul\":2783:2788   */\n      dup3\n        /* \"#utility.yul\":2750:2789   */\n      tag_215\n      jump\t// in\n    tag_214:\n        /* \"#utility.yul\":2805:2876   */\n      tag_216\n        /* \"#utility.yul\":2869:2875   */\n      dup2\n        /* \"#utility.yul\":2864:2867   */\n      dup6\n        /* \"#utility.yul\":2805:2876   */\n      tag_217\n      jump\t// in\n    tag_216:\n        /* \"#utility.yul\":2798:2876   */\n      swap4\n      pop\n        /* \"#utility.yul\":2885:2937   */\n      tag_218\n        /* \"#utility.yul\":2930:2936   */\n      dup2\n        /* \"#utility.yul\":2925:2928   */\n      dup6\n        /* \"#utility.yul\":2918:2922   */\n      0x20\n        /* \"#utility.yul\":2911:2916   */\n      dup7\n        /* \"#utility.yul\":2907:2923   */\n      add\n        /* \"#utility.yul\":2885:2937   */\n      tag_207\n      jump\t// in\n    tag_218:\n        /* \"#utility.yul\":2962:2991   */\n      tag_219\n        /* \"#utility.yul\":2984:2990   */\n      dup2\n        /* \"#utility.yul\":2962:2991   */\n      tag_220\n      jump\t// in\n    tag_219:\n        /* \"#utility.yul\":2957:2960   */\n      dup5\n        /* \"#utility.yul\":2953:2992   */\n      add\n        /* \"#utility.yul\":2946:2992   */\n      swap2\n      pop\n        /* \"#utility.yul\":2726:2998   */\n      pop\n      swap3\n      swap2\n      pop\n      pop\n      jump\t// out\n        /* \"#utility.yul\":3028:3830   */\n    tag_221:\n      0x00\n        /* \"#utility.yul\":3150:3155   */\n      dup2\n        /* \"#utility.yul\":3144:3156   */\n      sload\n        /* \"#utility.yul\":3179:3215   */\n      tag_223\n        /* \"#utility.yul\":3205:3214   */\n      dup2\n        /* \"#utility.yul\":3179:3215   */\n      tag_224\n      jump\t// in\n    tag_223:\n        /* \"#utility.yul\":3231:3302   */\n      tag_225\n        /* \"#utility.yul\":3295:3301   */\n      dup2\n        /* \"#utility.yul\":3290:3293   */\n      dup7\n        /* \"#utility.yul\":3231:3302   */\n      tag_217\n      jump\t// in\n    tag_225:\n        /* \"#utility.yul\":3224:3302   */\n      swap5\n      pop\n        /* \"#utility.yul\":3333:3334   */\n      0x01\n        /* \"#utility.yul\":3322:3331   */\n      dup3\n        /* \"#utility.yul\":3318:3335   */\n      and\n        /* \"#utility.yul\":3349:3350   */\n      0x00\n        /* \"#utility.yul\":3344:3479   */\n      dup2\n      eq\n      tag_227\n      jumpi\n        /* \"#utility.yul\":3493:3494   */\n      0x01\n        /* \"#utility.yul\":3488:3824   */\n      dup2\n      eq\n      tag_228\n      jumpi\n        /* \"#utility.yul\":3311:3824   */\n      jump(tag_226)\n        /* \"#utility.yul\":3344:3479   */\n    tag_227:\n        /* \"#utility.yul\":3428:3432   */\n      0xff\n        /* \"#utility.yul\":3424:3433   */\n      not\n        /* \"#utility.yul\":3413:3422   */\n      dup4\n        /* \"#utility.yul\":3409:3434   */\n      and\n        /* \"#utility.yul\":3404:3407   */\n      dup7\n        /* \"#utility.yul\":3397:3435   */\n      mstore\n        /* \"#utility.yul\":3464:3468   */\n      0x20\n        /* \"#utility.yul\":3459:3462   */\n      dup7\n        /* \"#utility.yul\":3455:3469   */\n      add\n        /* \"#utility.yul\":3448:3469   */\n      swap4\n      pop\n        /* \"#utility.yul\":3344:3479   */\n      jump(tag_226)\n        /* \"#utility.yul\":3488:3824   */\n    tag_228:\n        /* \"#utility.yul\":3555:3593   */\n      tag_229\n        /* \"#utility.yul\":3587:3592   */\n      dup6\n        /* \"#utility.yul\":3555:3593   */\n      tag_230\n      jump\t// in\n    tag_229:\n        /* \"#utility.yul\":3615:3616   */\n      0x00\n        /* \"#utility.yul\":3629:3783   */\n    tag_231:\n        /* \"#utility.yul\":3643:3649   */\n      dup4\n        /* \"#utility.yul\":3640:3641   */\n      dup2\n        /* \"#utility.yul\":3637:3650   */\n      lt\n        /* \"#utility.yul\":3629:3783   */\n      iszero\n      tag_233\n      jumpi\n        /* \"#utility.yul\":3717:3724   */\n      dup2\n        /* \"#utility.yul\":3711:3725   */\n      sload\n        /* \"#utility.yul\":3707:3708   */\n      dup2\n        /* \"#utility.yul\":3702:3705   */\n      dup10\n        /* \"#utility.yul\":3698:3709   */\n      add\n        /* \"#utility.yul\":3691:3726   */\n      mstore\n        /* \"#utility.yul\":3767:3768   */\n      0x01\n        /* \"#utility.yul\":3758:3765   */\n      dup3\n        /* \"#utility.yul\":3754:3769   */\n      add\n        /* \"#utility.yul\":3743:3769   */\n      swap2\n      pop\n        /* \"#utility.yul\":3665:3669   */\n      0x20\n        /* \"#utility.yul\":3662:3663   */\n      dup2\n        /* \"#utility.yul\":3658:3670   */\n      add\n        /* \"#utility.yul\":3653:3670   */\n      swap1\n      pop\n        /* \"#utility.yul\":3629:3783   */\n      jump(tag_231)\n    tag_233:\n        /* \"#utility.yul\":3812:3813   */\n      dup1\n        /* \"#utility.yul\":3807:3810   */\n      dup9\n        /* \"#utility.yul\":3803:3814   */\n      add\n        /* \"#utility.yul\":3796:3814   */\n      swap6\n      pop\n        /* \"#utility.yul\":3495:3824   */\n      pop\n      pop\n        /* \"#utility.yul\":3311:3824   */\n    tag_226:\n      pop\n        /* \"#utility.yul\":3117:3830   */\n      pop\n      pop\n      swap3\n      swap2\n      pop\n      pop\n      jump\t// out\n        /* \"#utility.yul\":3836:4201   */\n    tag_234:\n      0x00\n        /* \"#utility.yul\":3999:4065   */\n      tag_236\n        /* \"#utility.yul\":4063:4064   */\n      0x02\n        /* \"#utility.yul\":4058:4061   */\n      dup4\n        /* \"#utility.yul\":3999:4065   */\n      tag_217\n      jump\t// in\n    tag_236:\n        /* \"#utility.yul\":3992:4065   */\n      swap2\n      pop\n        /* \"#utility.yul\":4074:4167   */\n      tag_237\n        /* \"#utility.yul\":4163:4166   */\n      dup3\n        /* \"#utility.yul\":4074:4167   */\n      tag_238\n      jump\t// in\n    tag_237:\n        /* \"#utility.yul\":4192:4194   */\n      0x20\n        /* \"#utility.yul\":4187:4190   */\n      dup3\n        /* \"#utility.yul\":4183:4195   */\n      add\n        /* \"#utility.yul\":4176:4195   */\n      swap1\n      pop\n        /* \"#utility.yul\":3982:4201   */\n      swap2\n      swap1\n      pop\n      jump\t// out\n        /* \"#utility.yul\":4207:4572   */\n    tag_239:\n      0x00\n        /* \"#utility.yul\":4370:4436   */\n      tag_241\n        /* \"#utility.yul\":4434:4435   */\n      0x03\n        /* \"#utility.yul\":4429:4432   */\n      dup4\n        /* \"#utility.yul\":4370:4436   */\n      tag_217\n      jump\t// in\n    tag_241:\n        /* \"#utility.yul\":4363:4436   */\n      swap2\n      pop\n        /* \"#utility.yul\":4445:4538   */\n      tag_242\n        /* \"#utility.yul\":4534:4537   */\n      dup3\n        /* \"#utility.yul\":4445:4538   */\n      tag_243\n      jump\t// in\n    tag_242:\n        /* \"#utility.yul\":4563:4565   */\n      0x20\n        /* \"#utility.yul\":4558:4561   */\n      dup3\n        /* \"#utility.yul\":4554:4566   */\n      add\n        /* \"#utility.yul\":4547:4566   */\n      swap1\n      pop\n        /* \"#utility.yul\":4353:4572   */\n      swap2\n      swap1\n      pop\n      jump\t// out\n        /* \"#utility.yul\":4578:4944   */\n    tag_244:\n      0x00\n        /* \"#utility.yul\":4741:4808   */\n      tag_246\n        /* \"#utility.yul\":4805:4807   */\n      0x0f\n        /* \"#utility.yul\":4800:4803   */\n      dup4\n        /* \"#utility.yul\":4741:4808   */\n      tag_217\n      jump\t// in\n    tag_246:\n        /* \"#utility.yul\":4734:4808   */\n      swap2\n      pop\n        /* \"#utility.yul\":4817:4910   */\n      tag_247\n        /* \"#utility.yul\":4906:4909   */\n      dup3\n        /* \"#utility.yul\":4817:4910   */\n      tag_248\n      jump\t// in\n    tag_247:\n        /* \"#utility.yul\":4935:4937   */\n      0x20\n        /* \"#utility.yul\":4930:4933   */\n      dup3\n        /* \"#utility.yul\":4926:4938   */\n      add\n        /* \"#utility.yul\":4919:4938   */\n      swap1\n      pop\n        /* \"#utility.yul\":4724:4944   */\n      swap2\n      swap1\n      pop\n      jump\t// out\n        /* \"#utility.yul\":4950:5316   */\n    tag_249:\n      0x00\n        /* \"#utility.yul\":5113:5180   */\n      tag_251\n        /* \"#utility.yul\":5177:5179   */\n      0x26\n        /* \"#utility.yul\":5172:5175   */\n      dup4\n        /* \"#utility.yul\":5113:5180   */\n      tag_217\n      jump\t// in\n    tag_251:\n        /* \"#utility.yul\":5106:5180   */\n      swap2\n      pop\n        /* \"#utility.yul\":5189:5282   */\n      tag_252\n        /* \"#utility.yul\":5278:5281   */\n      dup3\n        /* \"#utility.yul\":5189:5282   */\n      tag_253\n      jump\t// in\n    tag_252:\n        /* \"#utility.yul\":5307:5309   */\n      0x40\n        /* \"#utility.yul\":5302:5305   */\n      dup3\n        /* \"#utility.yul\":5298:5310   */\n      add\n        /* \"#utility.yul\":5291:5310   */\n      swap1\n      pop\n        /* \"#utility.yul\":5096:5316   */\n      swap2\n      swap1\n      pop\n      jump\t// out\n        /* \"#utility.yul\":5322:5687   */\n    tag_254:\n      0x00\n        /* \"#utility.yul\":5485:5551   */\n      tag_256\n        /* \"#utility.yul\":5549:5550   */\n      0x03\n        /* \"#utility.yul\":5544:5547   */\n      dup4\n        /* \"#utility.yul\":5485:5551   */\n      tag_217\n      jump\t// in\n    tag_256:\n        /* \"#utility.yul\":5478:5551   */\n      swap2\n      pop\n        /* \"#utility.yul\":5560:5653   */\n      tag_257\n        /* \"#utility.yul\":5649:5652   */\n      dup3\n        /* \"#utility.yul\":5560:5653   */\n      tag_258\n      jump\t// in\n    tag_257:\n        /* \"#utility.yul\":5678:5680   */\n      0x20\n        /* \"#utility.yul\":5673:5676   */\n      dup3\n        /* \"#utility.yul\":5669:5681   */\n      add\n        /* \"#utility.yul\":5662:5681   */\n      swap1\n      pop\n        /* \"#utility.yul\":5468:5687   */\n      swap2\n      swap1\n      pop\n      jump\t// out\n        /* \"#utility.yul\":5693:6059   */\n    tag_259:\n      0x00\n        /* \"#utility.yul\":5856:5923   */\n      tag_261\n        /* \"#utility.yul\":5920:5922   */\n      0x0e\n        /* \"#utility.yul\":5915:5918   */\n      dup4\n        /* \"#utility.yul\":5856:5923   */\n      tag_217\n      jump\t// in\n    tag_261:\n        /* \"#utility.yul\":5849:5923   */\n      swap2\n      pop\n        /* \"#utility.yul\":5932:6025   */\n      tag_262\n        /* \"#utility.yul\":6021:6024   */\n      dup3\n        /* \"#utility.yul\":5932:6025   */\n      tag_263\n      jump\t// in\n    tag_262:\n        /* \"#utility.yul\":6050:6052   */\n      0x20\n        /* \"#utility.yul\":6045:6048   */\n      dup3\n        /* \"#utility.yul\":6041:6053   */\n      add\n        /* \"#utility.yul\":6034:6053   */\n      swap1\n      pop\n        /* \"#utility.yul\":5839:6059   */\n      swap2\n      swap1\n      pop\n      jump\t// out\n        /* \"#utility.yul\":6065:6431   */\n    tag_264:\n      0x00\n        /* \"#utility.yul\":6228:6295   */\n      tag_266\n        /* \"#utility.yul\":6292:6294   */\n      0x2c\n        /* \"#utility.yul\":6287:6290   */\n      dup4\n        /* \"#utility.yul\":6228:6295   */\n      tag_217\n      jump\t// in\n    tag_266:\n        /* \"#utility.yul\":6221:6295   */\n      swap2\n      pop\n        /* \"#utility.yul\":6304:6397   */\n      tag_267\n        /* \"#utility.yul\":6393:6396   */\n      dup3\n        /* \"#utility.yul\":6304:6397   */\n      tag_268\n      jump\t// in\n    tag_267:\n        /* \"#utility.yul\":6422:6424   */\n      0x40\n        /* \"#utility.yul\":6417:6420   */\n      dup3\n        /* \"#utility.yul\":6413:6425   */\n      add\n        /* \"#utility.yul\":6406:6425   */\n      swap1\n      pop\n        /* \"#utility.yul\":6211:6431   */\n      swap2\n      swap1\n      pop\n      jump\t// out\n        /* \"#utility.yul\":6437:6803   */\n    tag_269:\n      0x00\n        /* \"#utility.yul\":6600:6667   */\n      tag_271\n        /* \"#utility.yul\":6664:6666   */\n      0x1d\n        /* \"#utility.yul\":6659:6662   */\n      dup4\n        /* \"#utility.yul\":6600:6667   */\n      tag_217\n      jump\t// in\n    tag_271:\n        /* \"#utility.yul\":6593:6667   */\n      swap2\n      pop\n        /* \"#utility.yul\":6676:6769   */\n      tag_272\n        /* \"#utility.yul\":6765:6768   */\n      dup3\n        /* \"#utility.yul\":6676:6769   */\n      tag_273\n      jump\t// in\n    tag_272:\n        /* \"#utility.yul\":6794:6796   */\n      0x20\n        /* \"#utility.yul\":6789:6792   */\n      dup3\n        /* \"#utility.yul\":6785:6797   */\n      add\n        /* \"#utility.yul\":6778:6797   */\n      swap1\n      pop\n        /* \"#utility.yul\":6583:6803   */\n      swap2\n      swap1\n      pop\n      jump\t// out\n        /* \"#utility.yul\":6809:7175   */\n    tag_274:\n      0x00\n        /* \"#utility.yul\":6972:7039   */\n      tag_276\n        /* \"#utility.yul\":7036:7038   */\n      0x2a\n        /* \"#utility.yul\":7031:7034   */\n      dup4\n        /* \"#utility.yul\":6972:7039   */\n      tag_217\n      jump\t// in\n    tag_276:\n        /* \"#utility.yul\":6965:7039   */\n      swap2\n      pop\n        /* \"#utility.yul\":7048:7141   */\n      tag_277\n        /* \"#utility.yul\":7137:7140   */\n      dup3\n        /* \"#utility.yul\":7048:7141   */\n      tag_278\n      jump\t// in\n    tag_277:\n        /* \"#utility.yul\":7166:7168   */\n      0x40\n        /* \"#utility.yul\":7161:7164   */\n      dup3\n        /* \"#utility.yul\":7157:7169   */\n      add\n        /* \"#utility.yul\":7150:7169   */\n      swap1\n      pop\n        /* \"#utility.yul\":6955:7175   */\n      swap2\n      swap1\n      pop\n      jump\t// out\n        /* \"#utility.yul\":7181:7546   */\n    tag_279:\n      0x00\n        /* \"#utility.yul\":7344:7410   */\n      tag_281\n        /* \"#utility.yul\":7408:7409   */\n      0x03\n        /* \"#utility.yul\":7403:7406   */\n      dup4\n        /* \"#utility.yul\":7344:7410   */\n      tag_217\n      jump\t// in\n    tag_281:\n        /* \"#utility.yul\":7337:7410   */\n      swap2\n      pop\n        /* \"#utility.yul\":7419:7512   */\n      tag_282\n        /* \"#utility.yul\":7508:7511   */\n      dup3\n        /* \"#utility.yul\":7419:7512   */\n      tag_283\n      jump\t// in\n    tag_282:\n        /* \"#utility.yul\":7537:7539   */\n      0x20\n        /* \"#utility.yul\":7532:7535   */\n      dup3\n        /* \"#utility.yul\":7528:7540   */\n      add\n        /* \"#utility.yul\":7521:7540   */\n      swap1\n      pop\n        /* \"#utility.yul\":7327:7546   */\n      swap2\n      swap1\n      pop\n      jump\t// out\n        /* \"#utility.yul\":7552:7670   */\n    tag_284:\n        /* \"#utility.yul\":7639:7663   */\n      tag_286\n        /* \"#utility.yul\":7657:7662   */\n      dup2\n        /* \"#utility.yul\":7639:7663   */\n      tag_287\n      jump\t// in\n    tag_286:\n        /* \"#utility.yul\":7634:7637   */\n      dup3\n        /* \"#utility.yul\":7627:7664   */\n      mstore\n        /* \"#utility.yul\":7617:7670   */\n      pop\n      pop\n      jump\t// out\n        /* \"#utility.yul\":7676:7947   */\n    tag_140:\n      0x00\n        /* \"#utility.yul\":7828:7921   */\n      tag_289\n        /* \"#utility.yul\":7917:7920   */\n      dup3\n        /* \"#utility.yul\":7908:7914   */\n      dup5\n        /* \"#utility.yul\":7828:7921   */\n      tag_200\n      jump\t// in\n    tag_289:\n        /* \"#utility.yul\":7821:7921   */\n      swap2\n      pop\n        /* \"#utility.yul\":7938:7941   */\n      dup2\n        /* \"#utility.yul\":7931:7941   */\n      swap1\n      pop\n        /* \"#utility.yul\":7810:7947   */\n      swap3\n      swap2\n      pop\n      pop\n      jump\t// out\n        /* \"#utility.yul\":7953:8175   */\n    tag_33:\n      0x00\n        /* \"#utility.yul\":8084:8086   */\n      0x20\n        /* \"#utility.yul\":8073:8082   */\n      dup3\n        /* \"#utility.yul\":8069:8087   */\n      add\n        /* \"#utility.yul\":8061:8087   */\n      swap1\n      pop\n        /* \"#utility.yul\":8097:8168   */\n      tag_291\n        /* \"#utility.yul\":8165:8166   */\n      0x00\n        /* \"#utility.yul\":8154:8163   */\n      dup4\n        /* \"#utility.yul\":8150:8167   */\n      add\n        /* \"#utility.yul\":8141:8147   */\n      dup5\n        /* \"#utility.yul\":8097:8168   */\n      tag_192\n      jump\t// in\n    tag_291:\n        /* \"#utility.yul\":8051:8175   */\n      swap3\n      swap2\n      pop\n      pop\n      jump\t// out\n        /* \"#utility.yul\":8181:8623   */\n    tag_118:\n      0x00\n        /* \"#utility.yul\":8368:8370   */\n      0x60\n        /* \"#utility.yul\":8357:8366   */\n      dup3\n        /* \"#utility.yul\":8353:8371   */\n      add\n        /* \"#utility.yul\":8345:8371   */\n      swap1\n      pop\n        /* \"#utility.yul\":8381:8452   */\n      tag_293\n        /* \"#utility.yul\":8449:8450   */\n      0x00\n        /* \"#utility.yul\":8438:8447   */\n      dup4\n        /* \"#utility.yul\":8434:8451   */\n      add\n        /* \"#utility.yul\":8425:8431   */\n      dup7\n        /* \"#utility.yul\":8381:8452   */\n      tag_192\n      jump\t// in\n    tag_293:\n        /* \"#utility.yul\":8462:8534   */\n      tag_294\n        /* \"#utility.yul\":8530:8532   */\n      0x20\n        /* \"#utility.yul\":8519:8528   */\n      dup4\n        /* \"#utility.yul\":8515:8533   */\n      add\n        /* \"#utility.yul\":8506:8512   */\n      dup6\n        /* \"#utility.yul\":8462:8534   */\n      tag_192\n      jump\t// in\n    tag_294:\n        /* \"#utility.yul\":8544:8616   */\n      tag_295\n        /* \"#utility.yul\":8612:8614   */\n      0x40\n        /* \"#utility.yul\":8601:8610   */\n      dup4\n        /* \"#utility.yul\":8597:8615   */\n      add\n        /* \"#utility.yul\":8588:8594   */\n      dup5\n        /* \"#utility.yul\":8544:8616   */\n      tag_284\n      jump\t// in\n    tag_295:\n        /* \"#utility.yul\":8335:8623   */\n      swap5\n      swap4\n      pop\n      pop\n      pop\n      pop\n      jump\t// out\n        /* \"#utility.yul\":8629:9353   */\n    tag_60:\n      0x00\n        /* \"#utility.yul\":8906:8908   */\n      0x60\n        /* \"#utility.yul\":8895:8904   */\n      dup3\n        /* \"#utility.yul\":8891:8909   */\n      add\n        /* \"#utility.yul\":8883:8909   */\n      swap1\n      pop\n        /* \"#utility.yul\":8919:8990   */\n      tag_297\n        /* \"#utility.yul\":8987:8988   */\n      0x00\n        /* \"#utility.yul\":8976:8985   */\n      dup4\n        /* \"#utility.yul\":8972:8989   */\n      add\n        /* \"#utility.yul\":8963:8969   */\n      dup6\n        /* \"#utility.yul\":8919:8990   */\n      tag_192\n      jump\t// in\n    tag_297:\n        /* \"#utility.yul\":9037:9046   */\n      dup2\n        /* \"#utility.yul\":9031:9035   */\n      dup2\n        /* \"#utility.yul\":9027:9047   */\n      sub\n        /* \"#utility.yul\":9022:9024   */\n      0x20\n        /* \"#utility.yul\":9011:9020   */\n      dup4\n        /* \"#utility.yul\":9007:9025   */\n      add\n        /* \"#utility.yul\":9000:9048   */\n      mstore\n        /* \"#utility.yul\":9065:9140   */\n      tag_298\n        /* \"#utility.yul\":9135:9139   */\n      dup2\n        /* \"#utility.yul\":9126:9132   */\n      dup5\n        /* \"#utility.yul\":9065:9140   */\n      tag_221\n      jump\t// in\n    tag_298:\n        /* \"#utility.yul\":9057:9140   */\n      swap1\n      pop\n        /* \"#utility.yul\":9187:9196   */\n      dup2\n        /* \"#utility.yul\":9181:9185   */\n      dup2\n        /* \"#utility.yul\":9177:9197   */\n      sub\n        /* \"#utility.yul\":9172:9174   */\n      0x40\n        /* \"#utility.yul\":9161:9170   */\n      dup4\n        /* \"#utility.yul\":9157:9175   */\n      add\n        /* \"#utility.yul\":9150:9198   */\n      mstore\n        /* \"#utility.yul\":9215:9346   */\n      tag_299\n        /* \"#utility.yul\":9341:9345   */\n      dup2\n        /* \"#utility.yul\":9215:9346   */\n      tag_234\n      jump\t// in\n    tag_299:\n        /* \"#utility.yul\":9207:9346   */\n      swap1\n      pop\n        /* \"#utility.yul\":8873:9353   */\n      swap4\n      swap3\n      pop\n      pop\n      pop\n      jump\t// out\n        /* \"#utility.yul\":9359:10083   */\n    tag_95:\n      0x00\n        /* \"#utility.yul\":9636:9638   */\n      0x60\n        /* \"#utility.yul\":9625:9634   */\n      dup3\n        /* \"#utility.yul\":9621:9639   */\n      add\n        /* \"#utility.yul\":9613:9639   */\n      swap1\n      pop\n        /* \"#utility.yul\":9649:9720   */\n      tag_301\n        /* \"#utility.yul\":9717:9718   */\n      0x00\n        /* \"#utility.yul\":9706:9715   */\n      dup4\n        /* \"#utility.yul\":9702:9719   */\n      add\n        /* \"#utility.yul\":9693:9699   */\n      dup6\n        /* \"#utility.yul\":9649:9720   */\n      tag_192\n      jump\t// in\n    tag_301:\n        /* \"#utility.yul\":9767:9776   */\n      dup2\n        /* \"#utility.yul\":9761:9765   */\n      dup2\n        /* \"#utility.yul\":9757:9777   */\n      sub\n        /* \"#utility.yul\":9752:9754   */\n      0x20\n        /* \"#utility.yul\":9741:9750   */\n      dup4\n        /* \"#utility.yul\":9737:9755   */\n      add\n        /* \"#utility.yul\":9730:9778   */\n      mstore\n        /* \"#utility.yul\":9795:9870   */\n      tag_302\n        /* \"#utility.yul\":9865:9869   */\n      dup2\n        /* \"#utility.yul\":9856:9862   */\n      dup5\n        /* \"#utility.yul\":9795:9870   */\n      tag_221\n      jump\t// in\n    tag_302:\n        /* \"#utility.yul\":9787:9870   */\n      swap1\n      pop\n        /* \"#utility.yul\":9917:9926   */\n      dup2\n        /* \"#utility.yul\":9911:9915   */\n      dup2\n        /* \"#utility.yul\":9907:9927   */\n      sub\n        /* \"#utility.yul\":9902:9904   */\n      0x40\n        /* \"#utility.yul\":9891:9900   */\n      dup4\n        /* \"#utility.yul\":9887:9905   */\n      add\n        /* \"#utility.yul\":9880:9928   */\n      mstore\n        /* \"#utility.yul\":9945:10076   */\n      tag_303\n        /* \"#utility.yul\":10071:10075   */\n      dup2\n        /* \"#utility.yul\":9945:10076   */\n      tag_239\n      jump\t// in\n    tag_303:\n        /* \"#utility.yul\":9937:10076   */\n      swap1\n      pop\n        /* \"#utility.yul\":9603:10083   */\n      swap4\n      swap3\n      pop\n      pop\n      pop\n      jump\t// out\n        /* \"#utility.yul\":10089:10813   */\n    tag_72:\n      0x00\n        /* \"#utility.yul\":10366:10368   */\n      0x60\n        /* \"#utility.yul\":10355:10364   */\n      dup3\n        /* \"#utility.yul\":10351:10369   */\n      add\n        /* \"#utility.yul\":10343:10369   */\n      swap1\n      pop\n        /* \"#utility.yul\":10379:10450   */\n      tag_305\n        /* \"#utility.yul\":10447:10448   */\n      0x00\n        /* \"#utility.yul\":10436:10445   */\n      dup4\n        /* \"#utility.yul\":10432:10449   */\n      add\n        /* \"#utility.yul\":10423:10429   */\n      dup6\n        /* \"#utility.yul\":10379:10450   */\n      tag_192\n      jump\t// in\n    tag_305:\n        /* \"#utility.yul\":10497:10506   */\n      dup2\n        /* \"#utility.yul\":10491:10495   */\n      dup2\n        /* \"#utility.yul\":10487:10507   */\n      sub\n        /* \"#utility.yul\":10482:10484   */\n      0x20\n        /* \"#utility.yul\":10471:10480   */\n      dup4\n        /* \"#utility.yul\":10467:10485   */\n      add\n        /* \"#utility.yul\":10460:10508   */\n      mstore\n        /* \"#utility.yul\":10525:10600   */\n      tag_306\n        /* \"#utility.yul\":10595:10599   */\n      dup2\n        /* \"#utility.yul\":10586:10592   */\n      dup5\n        /* \"#utility.yul\":10525:10600   */\n      tag_221\n      jump\t// in\n    tag_306:\n        /* \"#utility.yul\":10517:10600   */\n      swap1\n      pop\n        /* \"#utility.yul\":10647:10656   */\n      dup2\n        /* \"#utility.yul\":10641:10645   */\n      dup2\n        /* \"#utility.yul\":10637:10657   */\n      sub\n        /* \"#utility.yul\":10632:10634   */\n      0x40\n        /* \"#utility.yul\":10621:10630   */\n      dup4\n        /* \"#utility.yul\":10617:10635   */\n      add\n        /* \"#utility.yul\":10610:10658   */\n      mstore\n        /* \"#utility.yul\":10675:10806   */\n      tag_307\n        /* \"#utility.yul\":10801:10805   */\n      dup2\n        /* \"#utility.yul\":10675:10806   */\n      tag_254\n      jump\t// in\n    tag_307:\n        /* \"#utility.yul\":10667:10806   */\n      swap1\n      pop\n        /* \"#utility.yul\":10333:10813   */\n      swap4\n      swap3\n      pop\n      pop\n      pop\n      jump\t// out\n        /* \"#utility.yul\":10819:11543   */\n    tag_84:\n      0x00\n        /* \"#utility.yul\":11096:11098   */\n      0x60\n        /* \"#utility.yul\":11085:11094   */\n      dup3\n        /* \"#utility.yul\":11081:11099   */\n      add\n        /* \"#utility.yul\":11073:11099   */\n      swap1\n      pop\n        /* \"#utility.yul\":11109:11180   */\n      tag_309\n        /* \"#utility.yul\":11177:11178   */\n      0x00\n        /* \"#utility.yul\":11166:11175   */\n      dup4\n        /* \"#utility.yul\":11162:11179   */\n      add\n        /* \"#utility.yul\":11153:11159   */\n      dup6\n        /* \"#utility.yul\":11109:11180   */\n      tag_192\n      jump\t// in\n    tag_309:\n        /* \"#utility.yul\":11227:11236   */\n      dup2\n        /* \"#utility.yul\":11221:11225   */\n      dup2\n        /* \"#utility.yul\":11217:11237   */\n      sub\n        /* \"#utility.yul\":11212:11214   */\n      0x20\n        /* \"#utility.yul\":11201:11210   */\n      dup4\n        /* \"#utility.yul\":11197:11215   */\n      add\n        /* \"#utility.yul\":11190:11238   */\n      mstore\n        /* \"#utility.yul\":11255:11330   */\n      tag_310\n        /* \"#utility.yul\":11325:11329   */\n      dup2\n        /* \"#utility.yul\":11316:11322   */\n      dup5\n        /* \"#utility.yul\":11255:11330   */\n      tag_221\n      jump\t// in\n    tag_310:\n        /* \"#utility.yul\":11247:11330   */\n      swap1\n      pop\n        /* \"#utility.yul\":11377:11386   */\n      dup2\n        /* \"#utility.yul\":11371:11375   */\n      dup2\n        /* \"#utility.yul\":11367:11387   */\n      sub\n        /* \"#utility.yul\":11362:11364   */\n      0x40\n        /* \"#utility.yul\":11351:11360   */\n      dup4\n        /* \"#utility.yul\":11347:11365   */\n      add\n        /* \"#utility.yul\":11340:11388   */\n      mstore\n        /* \"#utility.yul\":11405:11536   */\n      tag_311\n        /* \"#utility.yul\":11531:11535   */\n      dup2\n        /* \"#utility.yul\":11405:11536   */\n      tag_279\n      jump\t// in\n    tag_311:\n        /* \"#utility.yul\":11397:11536   */\n      swap1\n      pop\n        /* \"#utility.yul\":11063:11543   */\n      swap4\n      swap3\n      pop\n      pop\n      pop\n      jump\t// out\n        /* \"#utility.yul\":11549:11797   */\n    tag_10:\n      0x00\n        /* \"#utility.yul\":11693:11695   */\n      0x20\n        /* \"#utility.yul\":11682:11691   */\n      dup3\n        /* \"#utility.yul\":11678:11696   */\n      add\n        /* \"#utility.yul\":11670:11696   */\n      swap1\n      pop\n        /* \"#utility.yul\":11706:11790   */\n      tag_313\n        /* \"#utility.yul\":11787:11788   */\n      0x00\n        /* \"#utility.yul\":11776:11785   */\n      dup4\n        /* \"#utility.yul\":11772:11789   */\n      add\n        /* \"#utility.yul\":11763:11769   */\n      dup5\n        /* \"#utility.yul\":11706:11790   */\n      tag_208\n      jump\t// in\n    tag_313:\n        /* \"#utility.yul\":11660:11797   */\n      swap3\n      swap2\n      pop\n      pop\n      jump\t// out\n        /* \"#utility.yul\":11803:12116   */\n    tag_162:\n      0x00\n        /* \"#utility.yul\":11954:11956   */\n      0x20\n        /* \"#utility.yul\":11943:11952   */\n      dup3\n        /* \"#utility.yul\":11939:11957   */\n      add\n        /* \"#utility.yul\":11931:11957   */\n      swap1\n      pop\n        /* \"#utility.yul\":12003:12012   */\n      dup2\n        /* \"#utility.yul\":11997:12001   */\n      dup2\n        /* \"#utility.yul\":11993:12013   */\n      sub\n        /* \"#utility.yul\":11989:11990   */\n      0x00\n        /* \"#utility.yul\":11978:11987   */\n      dup4\n        /* \"#utility.yul\":11974:11991   */\n      add\n        /* \"#utility.yul\":11967:12014   */\n      mstore\n        /* \"#utility.yul\":12031:12109   */\n      tag_315\n        /* \"#utility.yul\":12104:12108   */\n      dup2\n        /* \"#utility.yul\":12095:12101   */\n      dup5\n        /* \"#utility.yul\":12031:12109   */\n      tag_212\n      jump\t// in\n    tag_315:\n        /* \"#utility.yul\":12023:12109   */\n      swap1\n      pop\n        /* \"#utility.yul\":11921:12116   */\n      swap3\n      swap2\n      pop\n      pop\n      jump\t// out\n        /* \"#utility.yul\":12122:12541   */\n    tag_41:\n      0x00\n        /* \"#utility.yul\":12326:12328   */\n      0x20\n        /* \"#utility.yul\":12315:12324   */\n      dup3\n        /* \"#utility.yul\":12311:12329   */\n      add\n        /* \"#utility.yul\":12303:12329   */\n      swap1\n      pop\n        /* \"#utility.yul\":12375:12384   */\n      dup2\n        /* \"#utility.yul\":12369:12373   */\n      dup2\n        /* \"#utility.yul\":12365:12385   */\n      sub\n        /* \"#utility.yul\":12361:12362   */\n      0x00\n        /* \"#utility.yul\":12350:12359   */\n      dup4\n        /* \"#utility.yul\":12346:12363   */\n      add\n        /* \"#utility.yul\":12339:12386   */\n      mstore\n        /* \"#utility.yul\":12403:12534   */\n      tag_317\n        /* \"#utility.yul\":12529:12533   */\n      dup2\n        /* \"#utility.yul\":12403:12534   */\n      tag_244\n      jump\t// in\n    tag_317:\n        /* \"#utility.yul\":12395:12534   */\n      swap1\n      pop\n        /* \"#utility.yul\":12293:12541   */\n      swap2\n      swap1\n      pop\n      jump\t// out\n        /* \"#utility.yul\":12547:12966   */\n    tag_138:\n      0x00\n        /* \"#utility.yul\":12751:12753   */\n      0x20\n        /* \"#utility.yul\":12740:12749   */\n      dup3\n        /* \"#utility.yul\":12736:12754   */\n      add\n        /* \"#utility.yul\":12728:12754   */\n      swap1\n      pop\n        /* \"#utility.yul\":12800:12809   */\n      dup2\n        /* \"#utility.yul\":12794:12798   */\n      dup2\n        /* \"#utility.yul\":12790:12810   */\n      sub\n        /* \"#utility.yul\":12786:12787   */\n      0x00\n        /* \"#utility.yul\":12775:12784   */\n      dup4\n        /* \"#utility.yul\":12771:12788   */\n      add\n        /* \"#utility.yul\":12764:12811   */\n      mstore\n        /* \"#utility.yul\":12828:12959   */\n      tag_319\n        /* \"#utility.yul\":12954:12958   */\n      dup2\n        /* \"#utility.yul\":12828:12959   */\n      tag_249\n      jump\t// in\n    tag_319:\n        /* \"#utility.yul\":12820:12959   */\n      swap1\n      pop\n        /* \"#utility.yul\":12718:12966   */\n      swap2\n      swap1\n      pop\n      jump\t// out\n        /* \"#utility.yul\":12972:13391   */\n    tag_44:\n      0x00\n        /* \"#utility.yul\":13176:13178   */\n      0x20\n        /* \"#utility.yul\":13165:13174   */\n      dup3\n        /* \"#utility.yul\":13161:13179   */\n      add\n        /* \"#utility.yul\":13153:13179   */\n      swap1\n      pop\n        /* \"#utility.yul\":13225:13234   */\n      dup2\n        /* \"#utility.yul\":13219:13223   */\n      dup2\n        /* \"#utility.yul\":13215:13235   */\n      sub\n        /* \"#utility.yul\":13211:13212   */\n      0x00\n        /* \"#utility.yul\":13200:13209   */\n      dup4\n        /* \"#utility.yul\":13196:13213   */\n      add\n        /* \"#utility.yul\":13189:13236   */\n      mstore\n        /* \"#utility.yul\":13253:13384   */\n      tag_321\n        /* \"#utility.yul\":13379:13383   */\n      dup2\n        /* \"#utility.yul\":13253:13384   */\n      tag_259\n      jump\t// in\n    tag_321:\n        /* \"#utility.yul\":13245:13384   */\n      swap1\n      pop\n        /* \"#utility.yul\":13143:13391   */\n      swap2\n      swap1\n      pop\n      jump\t// out\n        /* \"#utility.yul\":13397:13816   */\n    tag_25:\n      0x00\n        /* \"#utility.yul\":13601:13603   */\n      0x20\n        /* \"#utility.yul\":13590:13599   */\n      dup3\n        /* \"#utility.yul\":13586:13604   */\n      add\n        /* \"#utility.yul\":13578:13604   */\n      swap1\n      pop\n        /* \"#utility.yul\":13650:13659   */\n      dup2\n        /* \"#utility.yul\":13644:13648   */\n      dup2\n        /* \"#utility.yul\":13640:13660   */\n      sub\n        /* \"#utility.yul\":13636:13637   */\n      0x00\n        /* \"#utility.yul\":13625:13634   */\n      dup4\n        /* \"#utility.yul\":13621:13638   */\n      add\n        /* \"#utility.yul\":13614:13661   */\n      mstore\n        /* \"#utility.yul\":13678:13809   */\n      tag_323\n        /* \"#utility.yul\":13804:13808   */\n      dup2\n        /* \"#utility.yul\":13678:13809   */\n      tag_264\n      jump\t// in\n    tag_323:\n        /* \"#utility.yul\":13670:13809   */\n      swap1\n      pop\n        /* \"#utility.yul\":13568:13816   */\n      swap2\n      swap1\n      pop\n      jump\t// out\n        /* \"#utility.yul\":13822:14241   */\n    tag_153:\n      0x00\n        /* \"#utility.yul\":14026:14028   */\n      0x20\n        /* \"#utility.yul\":14015:14024   */\n      dup3\n        /* \"#utility.yul\":14011:14029   */\n      add\n        /* \"#utility.yul\":14003:14029   */\n      swap1\n      pop\n        /* \"#utility.yul\":14075:14084   */\n      dup2\n        /* \"#utility.yul\":14069:14073   */\n      dup2\n        /* \"#utility.yul\":14065:14085   */\n      sub\n        /* \"#utility.yul\":14061:14062   */\n      0x00\n        /* \"#utility.yul\":14050:14059   */\n      dup4\n        /* \"#utility.yul\":14046:14063   */\n      add\n        /* \"#utility.yul\":14039:14086   */\n      mstore\n        /* \"#utility.yul\":14103:14234   */\n      tag_325\n        /* \"#utility.yul\":14229:14233   */\n      dup2\n        /* \"#utility.yul\":14103:14234   */\n      tag_269\n      jump\t// in\n    tag_325:\n        /* \"#utility.yul\":14095:14234   */\n      swap1\n      pop\n        /* \"#utility.yul\":13993:14241   */\n      swap2\n      swap1\n      pop\n      jump\t// out\n        /* \"#utility.yul\":14247:14666   */\n    tag_131:\n      0x00\n        /* \"#utility.yul\":14451:14453   */\n      0x20\n        /* \"#utility.yul\":14440:14449   */\n      dup3\n        /* \"#utility.yul\":14436:14454   */\n      add\n        /* \"#utility.yul\":14428:14454   */\n      swap1\n      pop\n        /* \"#utility.yul\":14500:14509   */\n      dup2\n        /* \"#utility.yul\":14494:14498   */\n      dup2\n        /* \"#utility.yul\":14490:14510   */\n      sub\n        /* \"#utility.yul\":14486:14487   */\n      0x00\n        /* \"#utility.yul\":14475:14484   */\n      dup4\n        /* \"#utility.yul\":14471:14488   */\n      add\n        /* \"#utility.yul\":14464:14511   */\n      mstore\n        /* \"#utility.yul\":14528:14659   */\n      tag_327\n        /* \"#utility.yul\":14654:14658   */\n      dup2\n        /* \"#utility.yul\":14528:14659   */\n      tag_274\n      jump\t// in\n    tag_327:\n        /* \"#utility.yul\":14520:14659   */\n      swap1\n      pop\n        /* \"#utility.yul\":14418:14666   */\n      swap2\n      swap1\n      pop\n      jump\t// out\n        /* \"#utility.yul\":14672:14894   */\n    tag_101:\n      0x00\n        /* \"#utility.yul\":14803:14805   */\n      0x20\n        /* \"#utility.yul\":14792:14801   */\n      dup3\n        /* \"#utility.yul\":14788:14806   */\n      add\n        /* \"#utility.yul\":14780:14806   */\n      swap1\n      pop\n        /* \"#utility.yul\":14816:14887   */\n      tag_329\n        /* \"#utility.yul\":14884:14885   */\n      0x00\n        /* \"#utility.yul\":14873:14882   */\n      dup4\n        /* \"#utility.yul\":14869:14886   */\n      add\n        /* \"#utility.yul\":14860:14866   */\n      dup5\n        /* \"#utility.yul\":14816:14887   */\n      tag_284\n      jump\t// in\n    tag_329:\n        /* \"#utility.yul\":14770:14894   */\n      swap3\n      swap2\n      pop\n      pop\n      jump\t// out\n        /* \"#utility.yul\":14900:15342   */\n    tag_108:\n      0x00\n        /* \"#utility.yul\":15087:15089   */\n      0x60\n        /* \"#utility.yul\":15076:15085   */\n      dup3\n        /* \"#utility.yul\":15072:15090   */\n      add\n        /* \"#utility.yul\":15064:15090   */\n      swap1\n      pop\n        /* \"#utility.yul\":15100:15171   */\n      tag_331\n        /* \"#utility.yul\":15168:15169   */\n      0x00\n        /* \"#utility.yul\":15157:15166   */\n      dup4\n        /* \"#utility.yul\":15153:15170   */\n      add\n        /* \"#utility.yul\":15144:15150   */\n      dup7\n        /* \"#utility.yul\":15100:15171   */\n      tag_284\n      jump\t// in\n    tag_331:\n        /* \"#utility.yul\":15181:15253   */\n      tag_332\n        /* \"#utility.yul\":15249:15251   */\n      0x20\n        /* \"#utility.yul\":15238:15247   */\n      dup4\n        /* \"#utility.yul\":15234:15252   */\n      add\n        /* \"#utility.yul\":15225:15231   */\n      dup6\n        /* \"#utility.yul\":15181:15253   */\n      tag_196\n      jump\t// in\n    tag_332:\n        /* \"#utility.yul\":15263:15335   */\n      tag_333\n        /* \"#utility.yul\":15331:15333   */\n      0x40\n        /* \"#utility.yul\":15320:15329   */\n      dup4\n        /* \"#utility.yul\":15316:15334   */\n      add\n        /* \"#utility.yul\":15307:15313   */\n      dup5\n        /* \"#utility.yul\":15263:15335   */\n      tag_192\n      jump\t// in\n    tag_333:\n        /* \"#utility.yul\":15054:15342   */\n      swap5\n      swap4\n      pop\n      pop\n      pop\n      pop\n      jump\t// out\n        /* \"#utility.yul\":15348:15489   */\n    tag_230:\n      0x00\n        /* \"#utility.yul\":15420:15423   */\n      dup2\n        /* \"#utility.yul\":15412:15423   */\n      swap1\n      pop\n        /* \"#utility.yul\":15443:15446   */\n      dup2\n        /* \"#utility.yul\":15440:15441   */\n      0x00\n        /* \"#utility.yul\":15433:15447   */\n      mstore\n        /* \"#utility.yul\":15477:15481   */\n      0x20\n        /* \"#utility.yul\":15474:15475   */\n      0x00\n        /* \"#utility.yul\":15464:15482   */\n      keccak256\n        /* \"#utility.yul\":15456:15482   */\n      swap1\n      pop\n        /* \"#utility.yul\":15402:15489   */\n      swap2\n      swap1\n      pop\n      jump\t// out\n        /* \"#utility.yul\":15495:15593   */\n    tag_203:\n      0x00\n        /* \"#utility.yul\":15580:15585   */\n      dup2\n        /* \"#utility.yul\":15574:15586   */\n      mload\n        /* \"#utility.yul\":15564:15586   */\n      swap1\n      pop\n        /* \"#utility.yul\":15553:15593   */\n      swap2\n      swap1\n      pop\n      jump\t// out\n        /* \"#utility.yul\":15599:15698   */\n    tag_215:\n      0x00\n        /* \"#utility.yul\":15685:15690   */\n      dup2\n        /* \"#utility.yul\":15679:15691   */\n      mload\n        /* \"#utility.yul\":15669:15691   */\n      swap1\n      pop\n        /* \"#utility.yul\":15658:15698   */\n      swap2\n      swap1\n      pop\n      jump\t// out\n        /* \"#utility.yul\":15704:15851   */\n    tag_205:\n      0x00\n        /* \"#utility.yul\":15842:15845   */\n      dup2\n        /* \"#utility.yul\":15827:15845   */\n      swap1\n      pop\n        /* \"#utility.yul\":15817:15851   */\n      swap3\n      swap2\n      pop\n      pop\n      jump\t// out\n        /* \"#utility.yul\":15857:16026   */\n    tag_217:\n      0x00\n        /* \"#utility.yul\":15975:15981   */\n      dup3\n        /* \"#utility.yul\":15970:15973   */\n      dup3\n        /* \"#utility.yul\":15963:15982   */\n      mstore\n        /* \"#utility.yul\":16015:16019   */\n      0x20\n        /* \"#utility.yul\":16010:16013   */\n      dup3\n        /* \"#utility.yul\":16006:16020   */\n      add\n        /* \"#utility.yul\":15991:16020   */\n      swap1\n      pop\n        /* \"#utility.yul\":15953:16026   */\n      swap3\n      swap2\n      pop\n      pop\n      jump\t// out\n        /* \"#utility.yul\":16032:16217   */\n    tag_114:\n      0x00\n        /* \"#utility.yul\":16089:16109   */\n      tag_340\n        /* \"#utility.yul\":16107:16108   */\n      dup3\n        /* \"#utility.yul\":16089:16109   */\n      tag_287\n      jump\t// in\n    tag_340:\n        /* \"#utility.yul\":16084:16109   */\n      swap2\n      pop\n        /* \"#utility.yul\":16123:16143   */\n      tag_341\n        /* \"#utility.yul\":16141:16142   */\n      dup4\n        /* \"#utility.yul\":16123:16143   */\n      tag_287\n      jump\t// in\n    tag_341:\n        /* \"#utility.yul\":16118:16143   */\n      swap3\n      pop\n        /* \"#utility.yul\":16162:16163   */\n      dup3\n        /* \"#utility.yul\":16152:16154   */\n      tag_342\n      jumpi\n        /* \"#utility.yul\":16167:16185   */\n      tag_343\n      tag_344\n      jump\t// in\n    tag_343:\n        /* \"#utility.yul\":16152:16154   */\n    tag_342:\n        /* \"#utility.yul\":16209:16210   */\n      dup3\n        /* \"#utility.yul\":16206:16207   */\n      dup3\n        /* \"#utility.yul\":16202:16211   */\n      div\n        /* \"#utility.yul\":16197:16211   */\n      swap1\n      pop\n        /* \"#utility.yul\":16074:16217   */\n      swap3\n      swap2\n      pop\n      pop\n      jump\t// out\n        /* \"#utility.yul\":16223:16571   */\n    tag_111:\n      0x00\n        /* \"#utility.yul\":16286:16306   */\n      tag_346\n        /* \"#utility.yul\":16304:16305   */\n      dup3\n        /* \"#utility.yul\":16286:16306   */\n      tag_287\n      jump\t// in\n    tag_346:\n        /* \"#utility.yul\":16281:16306   */\n      swap2\n      pop\n        /* \"#utility.yul\":16320:16340   */\n      tag_347\n        /* \"#utility.yul\":16338:16339   */\n      dup4\n        /* \"#utility.yul\":16320:16340   */\n      tag_287\n      jump\t// in\n    tag_347:\n        /* \"#utility.yul\":16315:16340   */\n      swap3\n      pop\n        /* \"#utility.yul\":16508:16509   */\n      dup2\n        /* \"#utility.yul\":16440:16506   */\n      0xffffffffffffffffffffffffffffffffffffffffffffffffffffffffffffffff\n        /* \"#utility.yul\":16436:16510   */\n      div\n        /* \"#utility.yul\":16433:16434   */\n      dup4\n        /* \"#utility.yul\":16430:16511   */\n      gt\n        /* \"#utility.yul\":16425:16426   */\n      dup3\n        /* \"#utility.yul\":16418:16427   */\n      iszero\n        /* \"#utility.yul\":16411:16428   */\n      iszero\n        /* \"#utility.yul\":16407:16512   */\n      and\n        /* \"#utility.yul\":16404:16406   */\n      iszero\n      tag_348\n      jumpi\n        /* \"#utility.yul\":16515:16533   */\n      tag_349\n      tag_350\n      jump\t// in\n    tag_349:\n        /* \"#utility.yul\":16404:16406   */\n    tag_348:\n        /* \"#utility.yul\":16563:16564   */\n      dup3\n        /* \"#utility.yul\":16560:16561   */\n      dup3\n        /* \"#utility.yul\":16556:16565   */\n      mul\n        /* \"#utility.yul\":16545:16565   */\n      swap1\n      pop\n        /* \"#utility.yul\":16271:16571   */\n      swap3\n      swap2\n      pop\n      pop\n      jump\t// out\n        /* \"#utility.yul\":16577:16768   */\n    tag_122:\n      0x00\n        /* \"#utility.yul\":16637:16657   */\n      tag_352\n        /* \"#utility.yul\":16655:16656   */\n      dup3\n        /* \"#utility.yul\":16637:16657   */\n      tag_287\n      jump\t// in\n    tag_352:\n        /* \"#utility.yul\":16632:16657   */\n      swap2\n      pop\n        /* \"#utility.yul\":16671:16691   */\n      tag_353\n        /* \"#utility.yul\":16689:16690   */\n      dup4\n        /* \"#utility.yul\":16671:16691   */\n      tag_287\n      jump\t// in\n    tag_353:\n        /* \"#utility.yul\":16666:16691   */\n      swap3\n      pop\n        /* \"#utility.yul\":16710:16711   */\n      dup3\n        /* \"#utility.yul\":16707:16708   */\n      dup3\n        /* \"#utility.yul\":16704:16712   */\n      lt\n        /* \"#utility.yul\":16701:16703   */\n      iszero\n      tag_354\n      jumpi\n        /* \"#utility.yul\":16715:16733   */\n      tag_355\n      tag_350\n      jump\t// in\n    tag_355:\n        /* \"#utility.yul\":16701:16703   */\n    tag_354:\n        /* \"#utility.yul\":16760:16761   */\n      dup3\n        /* \"#utility.yul\":16757:16758   */\n      dup3\n        /* \"#utility.yul\":16753:16762   */\n      sub\n        /* \"#utility.yul\":16745:16762   */\n      swap1\n      pop\n        /* \"#utility.yul\":16622:16768   */\n      swap3\n      swap2\n      pop\n      pop\n      jump\t// out\n        /* \"#utility.yul\":16774:16870   */\n    tag_195:\n      0x00\n        /* \"#utility.yul\":16840:16864   */\n      tag_357\n        /* \"#utility.yul\":16858:16863   */\n      dup3\n        /* \"#utility.yul\":16840:16864   */\n      tag_358\n      jump\t// in\n    tag_357:\n        /* \"#utility.yul\":16829:16864   */\n      swap1\n      pop\n        /* \"#utility.yul\":16819:16870   */\n      swap2\n      swap1\n      pop\n      jump\t// out\n        /* \"#utility.yul\":16876:16966   */\n    tag_359:\n      0x00\n        /* \"#utility.yul\":16953:16958   */\n      dup2\n        /* \"#utility.yul\":16946:16959   */\n      iszero\n        /* \"#utility.yul\":16939:16960   */\n      iszero\n        /* \"#utility.yul\":16928:16960   */\n      swap1\n      pop\n        /* \"#utility.yul\":16918:16966   */\n      swap2\n      swap1\n      pop\n      jump\t// out\n        /* \"#utility.yul\":16972:17049   */\n    tag_199:\n      0x00\n        /* \"#utility.yul\":17038:17043   */\n      dup2\n        /* \"#utility.yul\":17027:17043   */\n      swap1\n      pop\n        /* \"#utility.yul\":17017:17049   */\n      swap2\n      swap1\n      pop\n      jump\t// out\n        /* \"#utility.yul\":17055:17181   */\n    tag_358:\n      0x00\n        /* \"#utility.yul\":17132:17174   */\n      0xffffffffffffffffffffffffffffffffffffffff\n        /* \"#utility.yul\":17125:17130   */\n      dup3\n        /* \"#utility.yul\":17121:17175   */\n      and\n        /* \"#utility.yul\":17110:17175   */\n      swap1\n      pop\n        /* \"#utility.yul\":17100:17181   */\n      swap2\n      swap1\n      pop\n      jump\t// out\n        /* \"#utility.yul\":17187:17264   */\n    tag_287:\n      0x00\n        /* \"#utility.yul\":17253:17258   */\n      dup2\n        /* \"#utility.yul\":17242:17258   */\n      swap1\n      pop\n        /* \"#utility.yul\":17232:17264   */\n      swap2\n      swap1\n      pop\n      jump\t// out\n        /* \"#utility.yul\":17270:17422   */\n    tag_211:\n      0x00\n        /* \"#utility.yul\":17366:17416   */\n      tag_365\n        /* \"#utility.yul\":17410:17415   */\n      dup3\n        /* \"#utility.yul\":17366:17416   */\n      tag_366\n      jump\t// in\n    tag_365:\n        /* \"#utility.yul\":17353:17416   */\n      swap1\n      pop\n        /* \"#utility.yul\":17343:17422   */\n      swap2\n      swap1\n      pop\n      jump\t// out\n        /* \"#utility.yul\":17428:17554   */\n    tag_366:\n      0x00\n        /* \"#utility.yul\":17524:17548   */\n      tag_368\n        /* \"#utility.yul\":17542:17547   */\n      dup3\n        /* \"#utility.yul\":17524:17548   */\n      tag_358\n      jump\t// in\n    tag_368:\n        /* \"#utility.yul\":17511:17548   */\n      swap1\n      pop\n        /* \"#utility.yul\":17501:17554   */\n      swap2\n      swap1\n      pop\n      jump\t// out\n        /* \"#utility.yul\":17560:17867   */\n    tag_207:\n        /* \"#utility.yul\":17628:17629   */\n      0x00\n        /* \"#utility.yul\":17638:17751   */\n    tag_370:\n        /* \"#utility.yul\":17652:17658   */\n      dup4\n        /* \"#utility.yul\":17649:17650   */\n      dup2\n        /* \"#utility.yul\":17646:17659   */\n      lt\n        /* \"#utility.yul\":17638:17751   */\n      iszero\n      tag_372\n      jumpi\n        /* \"#utility.yul\":17737:17738   */\n      dup1\n        /* \"#utility.yul\":17732:17735   */\n      dup3\n        /* \"#utility.yul\":17728:17739   */\n      add\n        /* \"#utility.yul\":17722:17740   */\n      mload\n        /* \"#utility.yul\":17718:17719   */\n      dup2\n        /* \"#utility.yul\":17713:17716   */\n      dup5\n        /* \"#utility.yul\":17709:17720   */\n      add\n        /* \"#utility.yul\":17702:17741   */\n      mstore\n        /* \"#utility.yul\":17674:17676   */\n      0x20\n        /* \"#utility.yul\":17671:17672   */\n      dup2\n        /* \"#utility.yul\":17667:17677   */\n      add\n        /* \"#utility.yul\":17662:17677   */\n      swap1\n      pop\n        /* \"#utility.yul\":17638:17751   */\n      jump(tag_370)\n    tag_372:\n        /* \"#utility.yul\":17769:17775   */\n      dup4\n        /* \"#utility.yul\":17766:17767   */\n      dup2\n        /* \"#utility.yul\":17763:17776   */\n      gt\n        /* \"#utility.yul\":17760:17762   */\n      iszero\n      tag_373\n      jumpi\n        /* \"#utility.yul\":17849:17850   */\n      0x00\n        /* \"#utility.yul\":17840:17846   */\n      dup5\n        /* \"#utility.yul\":17835:17838   */\n      dup5\n        /* \"#utility.yul\":17831:17847   */\n      add\n        /* \"#utility.yul\":17824:17851   */\n      mstore\n        /* \"#utility.yul\":17760:17762   */\n    tag_373:\n        /* \"#utility.yul\":17609:17867   */\n      pop\n      pop\n      pop\n      pop\n      jump\t// out\n        /* \"#utility.yul\":17873:18193   */\n    tag_224:\n      0x00\n        /* \"#utility.yul\":17954:17955   */\n      0x02\n        /* \"#utility.yul\":17948:17952   */\n      dup3\n        /* \"#utility.yul\":17944:17956   */\n      div\n        /* \"#utility.yul\":17934:17956   */\n      swap1\n      pop\n        /* \"#utility.yul\":18001:18002   */\n      0x01\n        /* \"#utility.yul\":17995:17999   */\n      dup3\n        /* \"#utility.yul\":17991:18003   */\n      and\n        /* \"#utility.yul\":18022:18040   */\n      dup1\n        /* \"#utility.yul\":18012:18014   */\n      tag_375\n      jumpi\n        /* \"#utility.yul\":18078:18082   */\n      0x7f\n        /* \"#utility.yul\":18070:18076   */\n      dup3\n        /* \"#utility.yul\":18066:18083   */\n      and\n        /* \"#utility.yul\":18056:18083   */\n      swap2\n      pop\n        /* \"#utility.yul\":18012:18014   */\n    tag_375:\n        /* \"#utility.yul\":18140:18142   */\n      0x20\n        /* \"#utility.yul\":18132:18138   */\n      dup3\n        /* \"#utility.yul\":18129:18143   */\n      lt\n        /* \"#utility.yul\":18109:18127   */\n      dup2\n        /* \"#utility.yul\":18106:18144   */\n      eq\n        /* \"#utility.yul\":18103:18105   */\n      iszero\n      tag_376\n      jumpi\n        /* \"#utility.yul\":18159:18177   */\n      tag_377\n      tag_378\n      jump\t// in\n    tag_377:\n        /* \"#utility.yul\":18103:18105   */\n    tag_376:\n        /* \"#utility.yul\":17924:18193   */\n      pop\n      swap2\n      swap1\n      pop\n      jump\t// out\n        /* \"#utility.yul\":18199:18375   */\n    tag_31:\n      0x00\n        /* \"#utility.yul\":18248:18268   */\n      tag_380\n        /* \"#utility.yul\":18266:18267   */\n      dup3\n        /* \"#utility.yul\":18248:18268   */\n      tag_287\n      jump\t// in\n    tag_380:\n        /* \"#utility.yul\":18243:18268   */\n      swap2\n      pop\n        /* \"#utility.yul\":18282:18302   */\n      tag_381\n        /* \"#utility.yul\":18300:18301   */\n      dup4\n        /* \"#utility.yul\":18282:18302   */\n      tag_287\n      jump\t// in\n    tag_381:\n        /* \"#utility.yul\":18277:18302   */\n      swap3\n      pop\n        /* \"#utility.yul\":18321:18322   */\n      dup3\n        /* \"#utility.yul\":18311:18313   */\n      tag_382\n      jumpi\n        /* \"#utility.yul\":18326:18344   */\n      tag_383\n      tag_344\n      jump\t// in\n    tag_383:\n        /* \"#utility.yul\":18311:18313   */\n    tag_382:\n        /* \"#utility.yul\":18367:18368   */\n      dup3\n        /* \"#utility.yul\":18364:18365   */\n      dup3\n        /* \"#utility.yul\":18360:18369   */\n      mod\n        /* \"#utility.yul\":18355:18369   */\n      swap1\n      pop\n        /* \"#utility.yul\":18233:18375   */\n      swap3\n      swap2\n      pop\n      pop\n      jump\t// out\n        /* \"#utility.yul\":18381:18561   */\n    tag_350:\n        /* \"#utility.yul\":18429:18506   */\n      0x4e487b7100000000000000000000000000000000000000000000000000000000\n        /* \"#utility.yul\":18426:18427   */\n      0x00\n        /* \"#utility.yul\":18419:18507   */\n      mstore\n        /* \"#utility.yul\":18526:18530   */\n      0x11\n        /* \"#utility.yul\":18523:18524   */\n      0x04\n        /* \"#utility.yul\":18516:18531   */\n      mstore\n        /* \"#utility.yul\":18550:18554   */\n      0x24\n        /* \"#utility.yul\":18547:18548   */\n      0x00\n        /* \"#utility.yul\":18540:18555   */\n      revert\n        /* \"#utility.yul\":18567:18747   */\n    tag_344:\n        /* \"#utility.yul\":18615:18692   */\n      0x4e487b7100000000000000000000000000000000000000000000000000000000\n        /* \"#utility.yul\":18612:18613   */\n      0x00\n        /* \"#utility.yul\":18605:18693   */\n      mstore\n        /* \"#utility.yul\":18712:18716   */\n      0x12\n        /* \"#utility.yul\":18709:18710   */\n      0x04\n        /* \"#utility.yul\":18702:18717   */\n      mstore\n        /* \"#utility.yul\":18736:18740   */\n      0x24\n        /* \"#utility.yul\":18733:18734   */\n      0x00\n        /* \"#utility.yul\":18726:18741   */\n      revert\n        /* \"#utility.yul\":18753:18933   */\n    tag_378:\n        /* \"#utility.yul\":18801:18878   */\n      0x4e487b7100000000000000000000000000000000000000000000000000000000\n        /* \"#utility.yul\":18798:18799   */\n      0x00\n        /* \"#utility.yul\":18791:18879   */\n      mstore\n        /* \"#utility.yul\":18898:18902   */\n      0x22\n        /* \"#utility.yul\":18895:18896   */\n      0x04\n        /* \"#utility.yul\":18888:18903   */\n      mstore\n        /* \"#utility.yul\":18922:18926   */\n      0x24\n        /* \"#utility.yul\":18919:18920   */\n      0x00\n        /* \"#utility.yul\":18912:18927   */\n      revert\n        /* \"#utility.yul\":18939:19041   */\n    tag_220:\n      0x00\n        /* \"#utility.yul\":19031:19033   */\n      0x1f\n        /* \"#utility.yul\":19027:19034   */\n      not\n        /* \"#utility.yul\":19022:19024   */\n      0x1f\n        /* \"#utility.yul\":19015:19020   */\n      dup4\n        /* \"#utility.yul\":19011:19025   */\n      add\n        /* \"#utility.yul\":19007:19035   */\n      and\n        /* \"#utility.yul\":18997:19035   */\n      swap1\n      pop\n        /* \"#utility.yul\":18987:19041   */\n      swap2\n      swap1\n      pop\n      jump\t// out\n        /* \"#utility.yul\":19047:19199   */\n    tag_238:\n        /* \"#utility.yul\":19187:19191   */\n      0x3530000000000000000000000000000000000000000000000000000000000000\n        /* \"#utility.yul\":19183:19184   */\n      0x00\n        /* \"#utility.yul\":19175:19181   */\n      dup3\n        /* \"#utility.yul\":19171:19185   */\n      add\n        /* \"#utility.yul\":19164:19192   */\n      mstore\n        /* \"#utility.yul\":19153:19199   */\n      pop\n      jump\t// out\n        /* \"#utility.yul\":19205:19358   */\n    tag_243:\n        /* \"#utility.yul\":19345:19350   */\n      0x3430300000000000000000000000000000000000000000000000000000000000\n        /* \"#utility.yul\":19341:19342   */\n      0x00\n        /* \"#utility.yul\":19333:19339   */\n      dup3\n        /* \"#utility.yul\":19329:19343   */\n      add\n        /* \"#utility.yul\":19322:19351   */\n      mstore\n        /* \"#utility.yul\":19311:19358   */\n      pop\n      jump\t// out\n        /* \"#utility.yul\":19364:19529   */\n    tag_248:\n        /* \"#utility.yul\":19504:19521   */\n      0x4e6f7420656e6f75676820555344540000000000000000000000000000000000\n        /* \"#utility.yul\":19500:19501   */\n      0x00\n        /* \"#utility.yul\":19492:19498   */\n      dup3\n        /* \"#utility.yul\":19488:19502   */\n      add\n        /* \"#utility.yul\":19481:19522   */\n      mstore\n        /* \"#utility.yul\":19470:19529   */\n      pop\n      jump\t// out\n        /* \"#utility.yul\":19535:19760   */\n    tag_253:\n        /* \"#utility.yul\":19675:19709   */\n      0x416464726573733a20696e73756666696369656e742062616c616e636520666f\n        /* \"#utility.yul\":19671:19672   */\n      0x00\n        /* \"#utility.yul\":19663:19669   */\n      dup3\n        /* \"#utility.yul\":19659:19673   */\n      add\n        /* \"#utility.yul\":19652:19710   */\n      mstore\n        /* \"#utility.yul\":19744:19752   */\n      0x722063616c6c0000000000000000000000000000000000000000000000000000\n        /* \"#utility.yul\":19739:19741   */\n      0x20\n        /* \"#utility.yul\":19731:19737   */\n      dup3\n        /* \"#utility.yul\":19727:19742   */\n      add\n        /* \"#utility.yul\":19720:19753   */\n      mstore\n        /* \"#utility.yul\":19641:19760   */\n      pop\n      jump\t// out\n        /* \"#utility.yul\":19766:19919   */\n    tag_258:\n        /* \"#utility.yul\":19906:19911   */\n      0x3130300000000000000000000000000000000000000000000000000000000000\n        /* \"#utility.yul\":19902:19903   */\n      0x00\n        /* \"#utility.yul\":19894:19900   */\n      dup3\n        /* \"#utility.yul\":19890:19904   */\n      add\n        /* \"#utility.yul\":19883:19912   */\n      mstore\n        /* \"#utility.yul\":19872:19919   */\n      pop\n      jump\t// out\n        /* \"#utility.yul\":19925:20089   */\n    tag_263:\n        /* \"#utility.yul\":20065:20081   */\n      0x4e656564206d6f72652055534454000000000000000000000000000000000000\n        /* \"#utility.yul\":20061:20062   */\n      0x00\n        /* \"#utility.yul\":20053:20059   */\n      dup3\n        /* \"#utility.yul\":20049:20063   */\n      add\n        /* \"#utility.yul\":20042:20082   */\n      mstore\n        /* \"#utility.yul\":20031:20089   */\n      pop\n      jump\t// out\n        /* \"#utility.yul\":20095:20326   */\n    tag_268:\n        /* \"#utility.yul\":20235:20269   */\n      0x4d6573736167652073656e646572206d7573742062652074686520636f6e7472\n        /* \"#utility.yul\":20231:20232   */\n      0x00\n        /* \"#utility.yul\":20223:20229   */\n      dup3\n        /* \"#utility.yul\":20219:20233   */\n      add\n        /* \"#utility.yul\":20212:20270   */\n      mstore\n        /* \"#utility.yul\":20304:20318   */\n      0x6163742773206f776e65722e0000000000000000000000000000000000000000\n        /* \"#utility.yul\":20299:20301   */\n      0x20\n        /* \"#utility.yul\":20291:20297   */\n      dup3\n        /* \"#utility.yul\":20287:20302   */\n      add\n        /* \"#utility.yul\":20280:20319   */\n      mstore\n        /* \"#utility.yul\":20201:20326   */\n      pop\n      jump\t// out\n        /* \"#utility.yul\":20332:20511   */\n    tag_273:\n        /* \"#utility.yul\":20472:20503   */\n      0x416464726573733a2063616c6c20746f206e6f6e2d636f6e7472616374000000\n        /* \"#utility.yul\":20468:20469   */\n      0x00\n        /* \"#utility.yul\":20460:20466   */\n      dup3\n        /* \"#utility.yul\":20456:20470   */\n      add\n        /* \"#utility.yul\":20449:20504   */\n      mstore\n        /* \"#utility.yul\":20438:20511   */\n      pop\n      jump\t// out\n        /* \"#utility.yul\":20517:20746   */\n    tag_278:\n        /* \"#utility.yul\":20657:20691   */\n      0x5361666545524332303a204552433230206f7065726174696f6e20646964206e\n        /* \"#utility.yul\":20653:20654   */\n      0x00\n        /* \"#utility.yul\":20645:20651   */\n      dup3\n        /* \"#utility.yul\":20641:20655   */\n      add\n        /* \"#utility.yul\":20634:20692   */\n      mstore\n        /* \"#utility.yul\":20726:20738   */\n      0x6f74207375636365656400000000000000000000000000000000000000000000\n        /* \"#utility.yul\":20721:20723   */\n      0x20\n        /* \"#utility.yul\":20713:20719   */\n      dup3\n        /* \"#utility.yul\":20709:20724   */\n      add\n        /* \"#utility.yul\":20702:20739   */\n      mstore\n        /* \"#utility.yul\":20623:20746   */\n      pop\n      jump\t// out\n        /* \"#utility.yul\":20752:20905   */\n    tag_283:\n        /* \"#utility.yul\":20892:20897   */\n      0x3230300000000000000000000000000000000000000000000000000000000000\n        /* \"#utility.yul\":20888:20889   */\n      0x00\n        /* \"#utility.yul\":20880:20886   */\n      dup3\n        /* \"#utility.yul\":20876:20890   */\n      add\n        /* \"#utility.yul\":20869:20898   */\n      mstore\n        /* \"#utility.yul\":20858:20905   */\n      pop\n      jump\t// out\n        /* \"#utility.yul\":20911:21033   */\n    tag_167:\n        /* \"#utility.yul\":20984:21008   */\n      tag_399\n        /* \"#utility.yul\":21002:21007   */\n      dup2\n        /* \"#utility.yul\":20984:21008   */\n      tag_195\n      jump\t// in\n    tag_399:\n        /* \"#utility.yul\":20977:20982   */\n      dup2\n        /* \"#utility.yul\":20974:21009   */\n      eq\n        /* \"#utility.yul\":20964:20966   */\n      tag_400\n      jumpi\n        /* \"#utility.yul\":21023:21024   */\n      0x00\n        /* \"#utility.yul\":21020:21021   */\n      dup1\n        /* \"#utility.yul\":21013:21025   */\n      revert\n        /* \"#utility.yul\":20964:20966   */\n    tag_400:\n        /* \"#utility.yul\":20954:21033   */\n      pop\n      jump\t// out\n        /* \"#utility.yul\":21039:21155   */\n    tag_171:\n        /* \"#utility.yul\":21109:21130   */\n      tag_402\n        /* \"#utility.yul\":21124:21129   */\n      dup2\n        /* \"#utility.yul\":21109:21130   */\n      tag_359\n      jump\t// in\n    tag_402:\n        /* \"#utility.yul\":21102:21107   */\n      dup2\n        /* \"#utility.yul\":21099:21131   */\n      eq\n        /* \"#utility.yul\":21089:21091   */\n      tag_403\n      jumpi\n        /* \"#utility.yul\":21145:21146   */\n      0x00\n        /* \"#utility.yul\":21142:21143   */\n      dup1\n        /* \"#utility.yul\":21135:21147   */\n      revert\n        /* \"#utility.yul\":21089:21091   */\n    tag_403:\n        /* \"#utility.yul\":21079:21155   */\n      pop\n      jump\t// out\n        /* \"#utility.yul\":21161:21283   */\n    tag_175:\n        /* \"#utility.yul\":21234:21258   */\n      tag_405\n        /* \"#utility.yul\":21252:21257   */\n      dup2\n        /* \"#utility.yul\":21234:21258   */\n      tag_287\n      jump\t// in\n    tag_405:\n        /* \"#utility.yul\":21227:21232   */\n      dup2\n        /* \"#utility.yul\":21224:21259   */\n      eq\n        /* \"#utility.yul\":21214:21216   */\n      tag_406\n      jumpi\n        /* \"#utility.yul\":21273:21274   */\n      0x00\n        /* \"#utility.yul\":21270:21271   */\n      dup1\n        /* \"#utility.yul\":21263:21275   */\n      revert\n        /* \"#utility.yul\":21214:21216   */\n    tag_406:\n        /* \"#utility.yul\":21204:21283   */\n      pop\n      jump\t// out\n\n    auxdata: 0xa2646970667358221220fe0e98ce8227d3a662715519351b580908b909cbf27207fafe012e9243f6bc4864736f6c63430008010033\n}\n",
				"bytecode": {
					"linkReferences": {},
					"object": "60806040526040518061014001604052806040518060400160405280600581526020017f313030303100000000000000000000000000000000000000000000000000000081525081526020016040518060400160405280600581526020017f313030303200000000000000000000000000000000000000000000000000000081525081526020016040518060400160405280600581526020017f313030303300000000000000000000000000000000000000000000000000000081525081526020016040518060400160405280600581526020017f313030303400000000000000000000000000000000000000000000000000000081525081526020016040518060400160405280600581526020017f313030303500000000000000000000000000000000000000000000000000000081525081526020016040518060400160405280600581526020017f313030303600000000000000000000000000000000000000000000000000000081525081526020016040518060400160405280600581526020017f313030303700000000000000000000000000000000000000000000000000000081525081526020016040518060400160405280600581526020017f313030303800000000000000000000000000000000000000000000000000000081525081526020016040518060400160405280600581526020017f313030303900000000000000000000000000000000000000000000000000000081525081526020016040518060400160405280600581526020017f3230303031000000000000000000000000000000000000000000000000000000815250815250600590600a6200026e92919062000710565b506040518060a001604052806040518060400160405280600581526020017f323030303200000000000000000000000000000000000000000000000000000081525081526020016040518060400160405280600581526020017f323030303300000000000000000000000000000000000000000000000000000081525081526020016040518060400160405280600581526020017f323030303400000000000000000000000000000000000000000000000000000081525081526020016040518060400160405280600581526020017f323030303500000000000000000000000000000000000000000000000000000081525081526020016040518060400160405280600581526020017f32303030360000000000000000000000000000000000000000000000000000008152508152506006906005620003b192919062000777565b5060405180608001604052806040518060400160405280600581526020017f333030303100000000000000000000000000000000000000000000000000000081525081526020016040518060400160405280600581526020017f333030303200000000000000000000000000000000000000000000000000000081525081526020016040518060400160405280600581526020017f333030303300000000000000000000000000000000000000000000000000000081525081526020016040518060400160405280600581526020017f33303030340000000000000000000000000000000000000000000000000000008152508152506007906004620004b9929190620007de565b5060405180606001604052806040518060400160405280600581526020017f343030303100000000000000000000000000000000000000000000000000000081525081526020016040518060400160405280600581526020017f343030303200000000000000000000000000000000000000000000000000000081525081526020016040518060400160405280600581526020017f343030303300000000000000000000000000000000000000000000000000000081525081525060089060036200058692919062000845565b503480156200059457600080fd5b5060405162002429380380620024298339818101604052810190620005ba9190620009f8565b84600960006101000a81548173ffffffffffffffffffffffffffffffffffffffff021916908373ffffffffffffffffffffffffffffffffffffffff160217905550836000806101000a81548173ffffffffffffffffffffffffffffffffffffffff021916908373ffffffffffffffffffffffffffffffffffffffff16021790555082600160006101000a81548173ffffffffffffffffffffffffffffffffffffffff021916908373ffffffffffffffffffffffffffffffffffffffff16021790555081600260006101000a81548173ffffffffffffffffffffffffffffffffffffffff021916908373ffffffffffffffffffffffffffffffffffffffff1602179055508060048190555033600360006101000a81548173ffffffffffffffffffffffffffffffffffffffff021916908373ffffffffffffffffffffffffffffffffffffffff160217905550505050505062000b51565b82805482825590600052602060002090810192821562000764579160200282015b828111156200076357825182908051906020019062000752929190620008ac565b509160200191906001019062000731565b5b5090506200077391906200093d565b5090565b828054828255906000526020600020908101928215620007cb579160200282015b82811115620007ca578251829080519060200190620007b9929190620008ac565b509160200191906001019062000798565b5b509050620007da91906200093d565b5090565b82805482825590600052602060002090810192821562000832579160200282015b828111156200083157825182908051906020019062000820929190620008ac565b5091602001919060010190620007ff565b5b5090506200084191906200093d565b5090565b82805482825590600052602060002090810192821562000899579160200282015b828111156200089857825182908051906020019062000887929190620008ac565b509160200191906001019062000866565b5b509050620008a891906200093d565b5090565b828054620008ba9062000ab8565b90600052602060002090601f016020900481019282620008de57600085556200092a565b82601f10620008f957805160ff19168380011785556200092a565b828001600101855582156200092a579182015b82811115620009295782518255916020019190600101906200090c565b5b50905062000939919062000965565b5090565b5b8082111562000961576000818162000957919062000984565b506001016200093e565b5090565b5b808211156200098057600081600090555060010162000966565b5090565b508054620009929062000ab8565b6000825580601f10620009a65750620009c7565b601f016020900490600052602060002090810190620009c6919062000965565b5b50565b600081519050620009db8162000b1d565b92915050565b600081519050620009f28162000b37565b92915050565b600080600080600060a0868803121562000a1157600080fd5b600062000a2188828901620009ca565b955050602062000a3488828901620009ca565b945050604062000a4788828901620009ca565b935050606062000a5a88828901620009ca565b925050608062000a6d88828901620009e1565b9150509295509295909350565b600062000a878262000a8e565b9050919050565b600073ffffffffffffffffffffffffffffffffffffffff82169050919050565b6000819050919050565b6000600282049050600182168062000ad157607f821691505b6020821081141562000ae85762000ae762000aee565b5b50919050565b7f4e487b7100000000000000000000000000000000000000000000000000000000600052602260045260246000fd5b62000b288162000a7a565b811462000b3457600080fd5b50565b62000b428162000aae565b811462000b4e57600080fd5b50565b6118c88062000b616000396000f3fe608060405234801561001057600080fd5b506004361061004c5760003560e01c80632f48ab7d1461005157806391b7f5ed1461006f578063b6aa4ed61461008b578063f320f858146100a7575b600080fd5b6100596100c3565b6040516100669190611242565b60405180910390f35b61008960048036038101906100849190610df7565b6100e7565b005b6100a560048036038101906100a09190610df7565b610181565b005b6100c160048036038101906100bc9190610d92565b610892565b005b60008054906101000a900473ffffffffffffffffffffffffffffffffffffffff1681565b600360009054906101000a900473ffffffffffffffffffffffffffffffffffffffff1673ffffffffffffffffffffffffffffffffffffffff163373ffffffffffffffffffffffffffffffffffffffff1614610177576040517f08c379a000000000000000000000000000000000000000000000000000000000815260040161016e906112df565b60405180910390fd5b8060048190555050565b6000806103e861018f6109a8565b6101999190611572565b90508260008054906101000a900473ffffffffffffffffffffffffffffffffffffffff1673ffffffffffffffffffffffffffffffffffffffff166370a08231336040518263ffffffff1660e01b81526004016101f591906110e4565b60206040518083038186803b15801561020d57600080fd5b505afa158015610221573d6000803e3d6000fd5b505050506040513d601f19601f820116820180604052508101906102459190610e20565b1015610286576040517f08c379a000000000000000000000000000000000000000000000000000000000815260040161027d9061127f565b60405180910390fd5b8260045411156102cb576040517f08c379a00000000000000000000000000000000000000000000000000000000081526004016102c2906112bf565b60405180910390fd5b60006102f4600a6102e66009876109de90919063ffffffff16565b6109f490919063ffffffff16565b905061036533600160009054906101000a900473ffffffffffffffffffffffffffffffffffffffff168360008054906101000a900473ffffffffffffffffffffffffffffffffffffffff1673ffffffffffffffffffffffffffffffffffffffff16610a0a909392919063ffffffff16565b6103e633600260009054906101000a900473ffffffffffffffffffffffffffffffffffffffff1661039f8488610a9390919063ffffffff16565b60008054906101000a900473ffffffffffffffffffffffffffffffffffffffff1673ffffffffffffffffffffffffffffffffffffffff16610a0a909392919063ffffffff16565b6103208210156104ff57600960009054906101000a900473ffffffffffffffffffffffffffffffffffffffff1673ffffffffffffffffffffffffffffffffffffffff1663477bf177336005808054905061043e6109a8565b6104489190611572565b8154811061047f577f4e487b7100000000000000000000000000000000000000000000000000000000600052603260045260246000fd5b906000526020600020016040518363ffffffff1660e01b81526004016104a6929190611136565b602060405180830381600087803b1580156104c057600080fd5b505af11580156104d4573d6000803e3d6000fd5b505050506040513d601f19601f820116820180604052508101906104f89190610e20565b925061083e565b6103c082101561061857600960009054906101000a900473ffffffffffffffffffffffffffffffffffffffff1673ffffffffffffffffffffffffffffffffffffffff1663477bf17733600680805490506105576109a8565b6105619190611572565b81548110610598577f4e487b7100000000000000000000000000000000000000000000000000000000600052603260045260246000fd5b906000526020600020016040518363ffffffff1660e01b81526004016105bf9291906111bc565b602060405180830381600087803b1580156105d957600080fd5b505af11580156105ed573d6000803e3d6000fd5b505050506040513d601f19601f820116820180604052508101906106119190610e20565b925061083d565b6103e082101561073157600960009054906101000a900473ffffffffffffffffffffffffffffffffffffffff1673ffffffffffffffffffffffffffffffffffffffff1663477bf17733600780805490506106706109a8565b61067a9190611572565b815481106106b1577f4e487b7100000000000000000000000000000000000000000000000000000000600052603260045260246000fd5b906000526020600020016040518363ffffffff1660e01b81526004016106d89291906111ff565b602060405180830381600087803b1580156106f257600080fd5b505af1158015610706573d6000803e3d6000fd5b505050506040513d601f19601f8201168201806040525081019061072a9190610e20565b925061083c565b600960009054906101000a900473ffffffffffffffffffffffffffffffffffffffff1673ffffffffffffffffffffffffffffffffffffffff1663477bf177336008808054905061077f6109a8565b6107899190611572565b815481106107c0577f4e487b7100000000000000000000000000000000000000000000000000000000600052603260045260246000fd5b906000526020600020016040518363ffffffff1660e01b81526004016107e7929190611179565b602060405180830381600087803b15801561080157600080fd5b505af1158015610815573d6000803e3d6000fd5b505050506040513d601f19601f820116820180604052508101906108399190610e20565b92505b5b5b3373ffffffffffffffffffffffffffffffffffffffff167f267422fa3a8c9525acb851824d5f4579f8de0442b971deef203719962e3b9d4a84604051610884919061133f565b60405180910390a250505050565b600360009054906101000a900473ffffffffffffffffffffffffffffffffffffffff1673ffffffffffffffffffffffffffffffffffffffff163373ffffffffffffffffffffffffffffffffffffffff1614610922576040517f08c379a0000000000000000000000000000000000000000000000000000000008152600401610919906112df565b60405180910390fd5b81600160006101000a81548173ffffffffffffffffffffffffffffffffffffffff021916908373ffffffffffffffffffffffffffffffffffffffff16021790555080600260006101000a81548173ffffffffffffffffffffffffffffffffffffffff021916908373ffffffffffffffffffffffffffffffffffffffff1602179055505050565b6000424240336040516020016109c09392919061135a565b6040516020818303038152906040528051906020012060001c905090565b600081836109ec9190611409565b905092915050565b60008183610a0291906113d8565b905092915050565b610a8d846323b872dd60e01b858585604051602401610a2b939291906110ff565b604051602081830303815290604052907bffffffffffffffffffffffffffffffffffffffffffffffffffffffff19166020820180517bffffffffffffffffffffffffffffffffffffffffffffffffffffffff8381831617835250505050610aa9565b50505050565b60008183610aa19190611463565b905092915050565b6000610b0b826040518060400160405280602081526020017f5361666545524332303a206c6f772d6c6576656c2063616c6c206661696c65648152508573ffffffffffffffffffffffffffffffffffffffff16610b709092919063ffffffff16565b9050600081511115610b6b5780806020019051810190610b2b9190610dce565b610b6a576040517f08c379a0000000000000000000000000000000000000000000000000000000008152600401610b619061131f565b60405180910390fd5b5b505050565b6060610b7f8484600085610b88565b90509392505050565b606082471015610bcd576040517f08c379a0000000000000000000000000000000000000000000000000000000008152600401610bc49061129f565b60405180910390fd5b6000808673ffffffffffffffffffffffffffffffffffffffff168587604051610bf691906110cd565b60006040518083038185875af1925050503d8060008114610c33576040519150601f19603f3d011682016040523d82523d6000602084013e610c38565b606091505b5091509150610c4987838387610c55565b92505050949350505050565b60608315610cb857600083511415610cb057610c7085610ccb565b610caf576040517f08c379a0000000000000000000000000000000000000000000000000000000008152600401610ca6906112ff565b60405180910390fd5b5b829050610cc3565b610cc28383610cee565b5b949350505050565b6000808273ffffffffffffffffffffffffffffffffffffffff163b119050919050565b600082511115610d015781518083602001fd5b806040517f08c379a0000000000000000000000000000000000000000000000000000000008152600401610d35919061125d565b60405180910390fd5b600081359050610d4d8161184d565b92915050565b600081519050610d6281611864565b92915050565b600081359050610d778161187b565b92915050565b600081519050610d8c8161187b565b92915050565b60008060408385031215610da557600080fd5b6000610db385828601610d3e565b9250506020610dc485828601610d3e565b9150509250929050565b600060208284031215610de057600080fd5b6000610dee84828501610d53565b91505092915050565b600060208284031215610e0957600080fd5b6000610e1784828501610d68565b91505092915050565b600060208284031215610e3257600080fd5b6000610e4084828501610d7d565b91505092915050565b610e5281611497565b82525050565b610e61816114b5565b82525050565b6000610e72826113a6565b610e7c81856113bc565b9350610e8c81856020860161150d565b80840191505092915050565b610ea1816114e9565b82525050565b6000610eb2826113b1565b610ebc81856113c7565b9350610ecc81856020860161150d565b610ed581611630565b840191505092915050565b60008154610eed81611540565b610ef781866113c7565b94506001821660008114610f125760018114610f2457610f57565b60ff1983168652602086019350610f57565b610f2d85611391565b60005b83811015610f4f57815481890152600182019150602081019050610f30565b808801955050505b50505092915050565b6000610f6d6002836113c7565b9150610f7882611641565b602082019050919050565b6000610f906003836113c7565b9150610f9b8261166a565b602082019050919050565b6000610fb3600f836113c7565b9150610fbe82611693565b602082019050919050565b6000610fd66026836113c7565b9150610fe1826116bc565b604082019050919050565b6000610ff96003836113c7565b91506110048261170b565b602082019050919050565b600061101c600e836113c7565b915061102782611734565b602082019050919050565b600061103f602c836113c7565b915061104a8261175d565b604082019050919050565b6000611062601d836113c7565b915061106d826117ac565b602082019050919050565b6000611085602a836113c7565b9150611090826117d5565b604082019050919050565b60006110a86003836113c7565b91506110b382611824565b602082019050919050565b6110c7816114df565b82525050565b60006110d98284610e67565b915081905092915050565b60006020820190506110f96000830184610e49565b92915050565b60006060820190506111146000830186610e49565b6111216020830185610e49565b61112e60408301846110be565b949350505050565b600060608201905061114b6000830185610e49565b818103602083015261115d8184610ee0565b9050818103604083015261117081610f60565b90509392505050565b600060608201905061118e6000830185610e49565b81810360208301526111a08184610ee0565b905081810360408301526111b381610f83565b90509392505050565b60006060820190506111d16000830185610e49565b81810360208301526111e38184610ee0565b905081810360408301526111f681610fec565b90509392505050565b60006060820190506112146000830185610e49565b81810360208301526112268184610ee0565b905081810360408301526112398161109b565b90509392505050565b60006020820190506112576000830184610e98565b92915050565b600060208201905081810360008301526112778184610ea7565b905092915050565b6000602082019050818103600083015261129881610fa6565b9050919050565b600060208201905081810360008301526112b881610fc9565b9050919050565b600060208201905081810360008301526112d88161100f565b9050919050565b600060208201905081810360008301526112f881611032565b9050919050565b6000602082019050818103600083015261131881611055565b9050919050565b6000602082019050818103600083015261133881611078565b9050919050565b600060208201905061135460008301846110be565b92915050565b600060608201905061136f60008301866110be565b61137c6020830185610e58565b6113896040830184610e49565b949350505050565b60008190508160005260206000209050919050565b600081519050919050565b600081519050919050565b600081905092915050565b600082825260208201905092915050565b60006113e3826114df565b91506113ee836114df565b9250826113fe576113fd6115d2565b5b828204905092915050565b6000611414826114df565b915061141f836114df565b9250817fffffffffffffffffffffffffffffffffffffffffffffffffffffffffffffffff0483118215151615611458576114576115a3565b5b828202905092915050565b600061146e826114df565b9150611479836114df565b92508282101561148c5761148b6115a3565b5b828203905092915050565b60006114a2826114bf565b9050919050565b60008115159050919050565b6000819050919050565b600073ffffffffffffffffffffffffffffffffffffffff82169050919050565b6000819050919050565b60006114f4826114fb565b9050919050565b6000611506826114bf565b9050919050565b60005b8381101561152b578082015181840152602081019050611510565b8381111561153a576000848401525b50505050565b6000600282049050600182168061155857607f821691505b6020821081141561156c5761156b611601565b5b50919050565b600061157d826114df565b9150611588836114df565b925082611598576115976115d2565b5b828206905092915050565b7f4e487b7100000000000000000000000000000000000000000000000000000000600052601160045260246000fd5b7f4e487b7100000000000000000000000000000000000000000000000000000000600052601260045260246000fd5b7f4e487b7100000000000000000000000000000000000000000000000000000000600052602260045260246000fd5b6000601f19601f8301169050919050565b7f3530000000000000000000000000000000000000000000000000000000000000600082015250565b7f3430300000000000000000000000000000000000000000000000000000000000600082015250565b7f4e6f7420656e6f75676820555344540000000000000000000000000000000000600082015250565b7f416464726573733a20696e73756666696369656e742062616c616e636520666f60008201527f722063616c6c0000000000000000000000000000000000000000000000000000602082015250565b7f3130300000000000000000000000000000000000000000000000000000000000600082015250565b7f4e656564206d6f72652055534454000000000000000000000000000000000000600082015250565b7f4d6573736167652073656e646572206d7573742062652074686520636f6e747260008201527f6163742773206f776e65722e0000000000000000000000000000000000000000602082015250565b7f416464726573733a2063616c6c20746f206e6f6e2d636f6e7472616374000000600082015250565b7f5361666545524332303a204552433230206f7065726174696f6e20646964206e60008201527f6f74207375636365656400000000000000000000000000000000000000000000602082015250565b7f3230300000000000000000000000000000000000000000000000000000000000600082015250565b61185681611497565b811461186157600080fd5b50565b61186d816114a9565b811461187857600080fd5b50565b611884816114df565b811461188f57600080fd5b5056fea2646970667358221220fe0e98ce8227d3a662715519351b580908b909cbf27207fafe012e9243f6bc4864736f6c63430008010033",
					"opcodes": "PUSH1 0x80 PUSH1 0x40 MSTORE PUSH1 0x40 MLOAD DUP1 PUSH2 0x140 ADD PUSH1 0x40 MSTORE DUP1 PUSH1 0x40 MLOAD DUP1 PUSH1 0x40 ADD PUSH1 0x40 MSTORE DUP1 PUSH1 0x5 DUP2 MSTORE PUSH1 0x20 ADD PUSH32 0x3130303031000000000000000000000000000000000000000000000000000000 DUP2 MSTORE POP DUP2 MSTORE PUSH1 0x20 ADD PUSH1 0x40 MLOAD DUP1 PUSH1 0x40 ADD PUSH1 0x40 MSTORE DUP1 PUSH1 0x5 DUP2 MSTORE PUSH1 0x20 ADD PUSH32 0x3130303032000000000000000000000000000000000000000000000000000000 DUP2 MSTORE POP DUP2 MSTORE PUSH1 0x20 ADD PUSH1 0x40 MLOAD DUP1 PUSH1 0x40 ADD PUSH1 0x40 MSTORE DUP1 PUSH1 0x5 DUP2 MSTORE PUSH1 0x20 ADD PUSH32 0x3130303033000000000000000000000000000000000000000000000000000000 DUP2 MSTORE POP DUP2 MSTORE PUSH1 0x20 ADD PUSH1 0x40 MLOAD DUP1 PUSH1 0x40 ADD PUSH1 0x40 MSTORE DUP1 PUSH1 0x5 DUP2 MSTORE PUSH1 0x20 ADD PUSH32 0x3130303034000000000000000000000000000000000000000000000000000000 DUP2 MSTORE POP DUP2 MSTORE PUSH1 0x20 ADD PUSH1 0x40 MLOAD DUP1 PUSH1 0x40 ADD PUSH1 0x40 MSTORE DUP1 PUSH1 0x5 DUP2 MSTORE PUSH1 0x20 ADD PUSH32 0x3130303035000000000000000000000000000000000000000000000000000000 DUP2 MSTORE POP DUP2 MSTORE PUSH1 0x20 ADD PUSH1 0x40 MLOAD DUP1 PUSH1 0x40 ADD PUSH1 0x40 MSTORE DUP1 PUSH1 0x5 DUP2 MSTORE PUSH1 0x20 ADD PUSH32 0x3130303036000000000000000000000000000000000000000000000000000000 DUP2 MSTORE POP DUP2 MSTORE PUSH1 0x20 ADD PUSH1 0x40 MLOAD DUP1 PUSH1 0x40 ADD PUSH1 0x40 MSTORE DUP1 PUSH1 0x5 DUP2 MSTORE PUSH1 0x20 ADD PUSH32 0x3130303037000000000000000000000000000000000000000000000000000000 DUP2 MSTORE POP DUP2 MSTORE PUSH1 0x20 ADD PUSH1 0x40 MLOAD DUP1 PUSH1 0x40 ADD PUSH1 0x40 MSTORE DUP1 PUSH1 0x5 DUP2 MSTORE PUSH1 0x20 ADD PUSH32 0x3130303038000000000000000000000000000000000000000000000000000000 DUP2 MSTORE POP DUP2 MSTORE PUSH1 0x20 ADD PUSH1 0x40 MLOAD DUP1 PUSH1 0x40 ADD PUSH1 0x40 MSTORE DUP1 PUSH1 0x5 DUP2 MSTORE PUSH1 0x20 ADD PUSH32 0x3130303039000000000000000000000000000000000000000000000000000000 DUP2 MSTORE POP DUP2 MSTORE PUSH1 0x20 ADD PUSH1 0x40 MLOAD DUP1 PUSH1 0x40 ADD PUSH1 0x40 MSTORE DUP1 PUSH1 0x5 DUP2 MSTORE PUSH1 0x20 ADD PUSH32 0x3230303031000000000000000000000000000000000000000000000000000000 DUP2 MSTORE POP DUP2 MSTORE POP PUSH1 0x5 SWAP1 PUSH1 0xA PUSH3 0x26E SWAP3 SWAP2 SWAP1 PUSH3 0x710 JUMP JUMPDEST POP PUSH1 0x40 MLOAD DUP1 PUSH1 0xA0 ADD PUSH1 0x40 MSTORE DUP1 PUSH1 0x40 MLOAD DUP1 PUSH1 0x40 ADD PUSH1 0x40 MSTORE DUP1 PUSH1 0x5 DUP2 MSTORE PUSH1 0x20 ADD PUSH32 0x3230303032000000000000000000000000000000000000000000000000000000 DUP2 MSTORE POP DUP2 MSTORE PUSH1 0x20 ADD PUSH1 0x40 MLOAD DUP1 PUSH1 0x40 ADD PUSH1 0x40 MSTORE DUP1 PUSH1 0x5 DUP2 MSTORE PUSH1 0x20 ADD PUSH32 0x3230303033000000000000000000000000000000000000000000000000000000 DUP2 MSTORE POP DUP2 MSTORE PUSH1 0x20 ADD PUSH1 0x40 MLOAD DUP1 PUSH1 0x40 ADD PUSH1 0x40 MSTORE DUP1 PUSH1 0x5 DUP2 MSTORE PUSH1 0x20 ADD PUSH32 0x3230303034000000000000000000000000000000000000000000000000000000 DUP2 MSTORE POP DUP2 MSTORE PUSH1 0x20 ADD PUSH1 0x40 MLOAD DUP1 PUSH1 0x40 ADD PUSH1 0x40 MSTORE DUP1 PUSH1 0x5 DUP2 MSTORE PUSH1 0x20 ADD PUSH32 0x3230303035000000000000000000000000000000000000000000000000000000 DUP2 MSTORE POP DUP2 MSTORE PUSH1 0x20 ADD PUSH1 0x40 MLOAD DUP1 PUSH1 0x40 ADD PUSH1 0x40 MSTORE DUP1 PUSH1 0x5 DUP2 MSTORE PUSH1 0x20 ADD PUSH32 0x3230303036000000000000000000000000000000000000000000000000000000 DUP2 MSTORE POP DUP2 MSTORE POP PUSH1 0x6 SWAP1 PUSH1 0x5 PUSH3 0x3B1 SWAP3 SWAP2 SWAP1 PUSH3 0x777 JUMP JUMPDEST POP PUSH1 0x40 MLOAD DUP1 PUSH1 0x80 ADD PUSH1 0x40 MSTORE DUP1 PUSH1 0x40 MLOAD DUP1 PUSH1 0x40 ADD PUSH1 0x40 MSTORE DUP1 PUSH1 0x5 DUP2 MSTORE PUSH1 0x20 ADD PUSH32 0x3330303031000000000000000000000000000000000000000000000000000000 DUP2 MSTORE POP DUP2 MSTORE PUSH1 0x20 ADD PUSH1 0x40 MLOAD DUP1 PUSH1 0x40 ADD PUSH1 0x40 MSTORE DUP1 PUSH1 0x5 DUP2 MSTORE PUSH1 0x20 ADD PUSH32 0x3330303032000000000000000000000000000000000000000000000000000000 DUP2 MSTORE POP DUP2 MSTORE PUSH1 0x20 ADD PUSH1 0x40 MLOAD DUP1 PUSH1 0x40 ADD PUSH1 0x40 MSTORE DUP1 PUSH1 0x5 DUP2 MSTORE PUSH1 0x20 ADD PUSH32 0x3330303033000000000000000000000000000000000000000000000000000000 DUP2 MSTORE POP DUP2 MSTORE PUSH1 0x20 ADD PUSH1 0x40 MLOAD DUP1 PUSH1 0x40 ADD PUSH1 0x40 MSTORE DUP1 PUSH1 0x5 DUP2 MSTORE PUSH1 0x20 ADD PUSH32 0x3330303034000000000000000000000000000000000000000000000000000000 DUP2 MSTORE POP DUP2 MSTORE POP PUSH1 0x7 SWAP1 PUSH1 0x4 PUSH3 0x4B9 SWAP3 SWAP2 SWAP1 PUSH3 0x7DE JUMP JUMPDEST POP PUSH1 0x40 MLOAD DUP1 PUSH1 0x60 ADD PUSH1 0x40 MSTORE DUP1 PUSH1 0x40 MLOAD DUP1 PUSH1 0x40 ADD PUSH1 0x40 MSTORE DUP1 PUSH1 0x5 DUP2 MSTORE PUSH1 0x20 ADD PUSH32 0x3430303031000000000000000000000000000000000000000000000000000000 DUP2 MSTORE POP DUP2 MSTORE PUSH1 0x20 ADD PUSH1 0x40 MLOAD DUP1 PUSH1 0x40 ADD PUSH1 0x40 MSTORE DUP1 PUSH1 0x5 DUP2 MSTORE PUSH1 0x20 ADD PUSH32 0x3430303032000000000000000000000000000000000000000000000000000000 DUP2 MSTORE POP DUP2 MSTORE PUSH1 0x20 ADD PUSH1 0x40 MLOAD DUP1 PUSH1 0x40 ADD PUSH1 0x40 MSTORE DUP1 PUSH1 0x5 DUP2 MSTORE PUSH1 0x20 ADD PUSH32 0x3430303033000000000000000000000000000000000000000000000000000000 DUP2 MSTORE POP DUP2 MSTORE POP PUSH1 0x8 SWAP1 PUSH1 0x3 PUSH3 0x586 SWAP3 SWAP2 SWAP1 PUSH3 0x845 JUMP JUMPDEST POP CALLVALUE DUP1 ISZERO PUSH3 0x594 JUMPI PUSH1 0x0 DUP1 REVERT JUMPDEST POP PUSH1 0x40 MLOAD PUSH3 0x2429 CODESIZE SUB DUP1 PUSH3 0x2429 DUP4 CODECOPY DUP2 DUP2 ADD PUSH1 0x40 MSTORE DUP2 ADD SWAP1 PUSH3 0x5BA SWAP2 SWAP1 PUSH3 0x9F8 JUMP JUMPDEST DUP5 PUSH1 0x9 PUSH1 0x0 PUSH2 0x100 EXP DUP2 SLOAD DUP2 PUSH20 0xFFFFFFFFFFFFFFFFFFFFFFFFFFFFFFFFFFFFFFFF MUL NOT AND SWAP1 DUP4 PUSH20 0xFFFFFFFFFFFFFFFFFFFFFFFFFFFFFFFFFFFFFFFF AND MUL OR SWAP1 SSTORE POP DUP4 PUSH1 0x0 DUP1 PUSH2 0x100 EXP DUP2 SLOAD DUP2 PUSH20 0xFFFFFFFFFFFFFFFFFFFFFFFFFFFFFFFFFFFFFFFF MUL NOT AND SWAP1 DUP4 PUSH20 0xFFFFFFFFFFFFFFFFFFFFFFFFFFFFFFFFFFFFFFFF AND MUL OR SWAP1 SSTORE POP DUP3 PUSH1 0x1 PUSH1 0x0 PUSH2 0x100 EXP DUP2 SLOAD DUP2 PUSH20 0xFFFFFFFFFFFFFFFFFFFFFFFFFFFFFFFFFFFFFFFF MUL NOT AND SWAP1 DUP4 PUSH20 0xFFFFFFFFFFFFFFFFFFFFFFFFFFFFFFFFFFFFFFFF AND MUL OR SWAP1 SSTORE POP DUP2 PUSH1 0x2 PUSH1 0x0 PUSH2 0x100 EXP DUP2 SLOAD DUP2 PUSH20 0xFFFFFFFFFFFFFFFFFFFFFFFFFFFFFFFFFFFFFFFF MUL NOT AND SWAP1 DUP4 PUSH20 0xFFFFFFFFFFFFFFFFFFFFFFFFFFFFFFFFFFFFFFFF AND MUL OR SWAP1 SSTORE POP DUP1 PUSH1 0x4 DUP2 SWAP1 SSTORE POP CALLER PUSH1 0x3 PUSH1 0x0 PUSH2 0x100 EXP DUP2 SLOAD DUP2 PUSH20 0xFFFFFFFFFFFFFFFFFFFFFFFFFFFFFFFFFFFFFFFF MUL NOT AND SWAP1 DUP4 PUSH20 0xFFFFFFFFFFFFFFFFFFFFFFFFFFFFFFFFFFFFFFFF AND MUL OR SWAP1 SSTORE POP POP POP POP POP POP PUSH3 0xB51 JUMP JUMPDEST DUP3 DUP1 SLOAD DUP3 DUP3 SSTORE SWAP1 PUSH1 0x0 MSTORE PUSH1 0x20 PUSH1 0x0 KECCAK256 SWAP1 DUP2 ADD SWAP3 DUP3 ISZERO PUSH3 0x764 JUMPI SWAP2 PUSH1 0x20 MUL DUP3 ADD JUMPDEST DUP3 DUP2 GT ISZERO PUSH3 0x763 JUMPI DUP3 MLOAD DUP3 SWAP1 DUP1 MLOAD SWAP1 PUSH1 0x20 ADD SWAP1 PUSH3 0x752 SWAP3 SWAP2 SWAP1 PUSH3 0x8AC JUMP JUMPDEST POP SWAP2 PUSH1 0x20 ADD SWAP2 SWAP1 PUSH1 0x1 ADD SWAP1 PUSH3 0x731 JUMP JUMPDEST JUMPDEST POP SWAP1 POP PUSH3 0x773 SWAP2 SWAP1 PUSH3 0x93D JUMP JUMPDEST POP SWAP1 JUMP JUMPDEST DUP3 DUP1 SLOAD DUP3 DUP3 SSTORE SWAP1 PUSH1 0x0 MSTORE PUSH1 0x20 PUSH1 0x0 KECCAK256 SWAP1 DUP2 ADD SWAP3 DUP3 ISZERO PUSH3 0x7CB JUMPI SWAP2 PUSH1 0x20 MUL DUP3 ADD JUMPDEST DUP3 DUP2 GT ISZERO PUSH3 0x7CA JUMPI DUP3 MLOAD DUP3 SWAP1 DUP1 MLOAD SWAP1 PUSH1 0x20 ADD SWAP1 PUSH3 0x7B9 SWAP3 SWAP2 SWAP1 PUSH3 0x8AC JUMP JUMPDEST POP SWAP2 PUSH1 0x20 ADD SWAP2 SWAP1 PUSH1 0x1 ADD SWAP1 PUSH3 0x798 JUMP JUMPDEST JUMPDEST POP SWAP1 POP PUSH3 0x7DA SWAP2 SWAP1 PUSH3 0x93D JUMP JUMPDEST POP SWAP1 JUMP JUMPDEST DUP3 DUP1 SLOAD DUP3 DUP3 SSTORE SWAP1 PUSH1 0x0 MSTORE PUSH1 0x20 PUSH1 0x0 KECCAK256 SWAP1 DUP2 ADD SWAP3 DUP3 ISZERO PUSH3 0x832 JUMPI SWAP2 PUSH1 0x20 MUL DUP3 ADD JUMPDEST DUP3 DUP2 GT ISZERO PUSH3 0x831 JUMPI DUP3 MLOAD DUP3 SWAP1 DUP1 MLOAD SWAP1 PUSH1 0x20 ADD SWAP1 PUSH3 0x820 SWAP3 SWAP2 SWAP1 PUSH3 0x8AC JUMP JUMPDEST POP SWAP2 PUSH1 0x20 ADD SWAP2 SWAP1 PUSH1 0x1 ADD SWAP1 PUSH3 0x7FF JUMP JUMPDEST JUMPDEST POP SWAP1 POP PUSH3 0x841 SWAP2 SWAP1 PUSH3 0x93D JUMP JUMPDEST POP SWAP1 JUMP JUMPDEST DUP3 DUP1 SLOAD DUP3 DUP3 SSTORE SWAP1 PUSH1 0x0 MSTORE PUSH1 0x20 PUSH1 0x0 KECCAK256 SWAP1 DUP2 ADD SWAP3 DUP3 ISZERO PUSH3 0x899 JUMPI SWAP2 PUSH1 0x20 MUL DUP3 ADD JUMPDEST DUP3 DUP2 GT ISZERO PUSH3 0x898 JUMPI DUP3 MLOAD DUP3 SWAP1 DUP1 MLOAD SWAP1 PUSH1 0x20 ADD SWAP1 PUSH3 0x887 SWAP3 SWAP2 SWAP1 PUSH3 0x8AC JUMP JUMPDEST POP SWAP2 PUSH1 0x20 ADD SWAP2 SWAP1 PUSH1 0x1 ADD SWAP1 PUSH3 0x866 JUMP JUMPDEST JUMPDEST POP SWAP1 POP PUSH3 0x8A8 SWAP2 SWAP1 PUSH3 0x93D JUMP JUMPDEST POP SWAP1 JUMP JUMPDEST DUP3 DUP1 SLOAD PUSH3 0x8BA SWAP1 PUSH3 0xAB8 JUMP JUMPDEST SWAP1 PUSH1 0x0 MSTORE PUSH1 0x20 PUSH1 0x0 KECCAK256 SWAP1 PUSH1 0x1F ADD PUSH1 0x20 SWAP1 DIV DUP2 ADD SWAP3 DUP3 PUSH3 0x8DE JUMPI PUSH1 0x0 DUP6 SSTORE PUSH3 0x92A JUMP JUMPDEST DUP3 PUSH1 0x1F LT PUSH3 0x8F9 JUMPI DUP1 MLOAD PUSH1 0xFF NOT AND DUP4 DUP1 ADD OR DUP6 SSTORE PUSH3 0x92A JUMP JUMPDEST DUP3 DUP1 ADD PUSH1 0x1 ADD DUP6 SSTORE DUP3 ISZERO PUSH3 0x92A JUMPI SWAP2 DUP3 ADD JUMPDEST DUP3 DUP2 GT ISZERO PUSH3 0x929 JUMPI DUP3 MLOAD DUP3 SSTORE SWAP2 PUSH1 0x20 ADD SWAP2 SWAP1 PUSH1 0x1 ADD SWAP1 PUSH3 0x90C JUMP JUMPDEST JUMPDEST POP SWAP1 POP PUSH3 0x939 SWAP2 SWAP1 PUSH3 0x965 JUMP JUMPDEST POP SWAP1 JUMP JUMPDEST JUMPDEST DUP1 DUP3 GT ISZERO PUSH3 0x961 JUMPI PUSH1 0x0 DUP2 DUP2 PUSH3 0x957 SWAP2 SWAP1 PUSH3 0x984 JUMP JUMPDEST POP PUSH1 0x1 ADD PUSH3 0x93E JUMP JUMPDEST POP SWAP1 JUMP JUMPDEST JUMPDEST DUP1 DUP3 GT ISZERO PUSH3 0x980 JUMPI PUSH1 0x0 DUP2 PUSH1 0x0 SWAP1 SSTORE POP PUSH1 0x1 ADD PUSH3 0x966 JUMP JUMPDEST POP SWAP1 JUMP JUMPDEST POP DUP1 SLOAD PUSH3 0x992 SWAP1 PUSH3 0xAB8 JUMP JUMPDEST PUSH1 0x0 DUP3 SSTORE DUP1 PUSH1 0x1F LT PUSH3 0x9A6 JUMPI POP PUSH3 0x9C7 JUMP JUMPDEST PUSH1 0x1F ADD PUSH1 0x20 SWAP1 DIV SWAP1 PUSH1 0x0 MSTORE PUSH1 0x20 PUSH1 0x0 KECCAK256 SWAP1 DUP2 ADD SWAP1 PUSH3 0x9C6 SWAP2 SWAP1 PUSH3 0x965 JUMP JUMPDEST JUMPDEST POP JUMP JUMPDEST PUSH1 0x0 DUP2 MLOAD SWAP1 POP PUSH3 0x9DB DUP2 PUSH3 0xB1D JUMP JUMPDEST SWAP3 SWAP2 POP POP JUMP JUMPDEST PUSH1 0x0 DUP2 MLOAD SWAP1 POP PUSH3 0x9F2 DUP2 PUSH3 0xB37 JUMP JUMPDEST SWAP3 SWAP2 POP POP JUMP JUMPDEST PUSH1 0x0 DUP1 PUSH1 0x0 DUP1 PUSH1 0x0 PUSH1 0xA0 DUP7 DUP9 SUB SLT ISZERO PUSH3 0xA11 JUMPI PUSH1 0x0 DUP1 REVERT JUMPDEST PUSH1 0x0 PUSH3 0xA21 DUP9 DUP3 DUP10 ADD PUSH3 0x9CA JUMP JUMPDEST SWAP6 POP POP PUSH1 0x20 PUSH3 0xA34 DUP9 DUP3 DUP10 ADD PUSH3 0x9CA JUMP JUMPDEST SWAP5 POP POP PUSH1 0x40 PUSH3 0xA47 DUP9 DUP3 DUP10 ADD PUSH3 0x9CA JUMP JUMPDEST SWAP4 POP POP PUSH1 0x60 PUSH3 0xA5A DUP9 DUP3 DUP10 ADD PUSH3 0x9CA JUMP JUMPDEST SWAP3 POP POP PUSH1 0x80 PUSH3 0xA6D DUP9 DUP3 DUP10 ADD PUSH3 0x9E1 JUMP JUMPDEST SWAP2 POP POP SWAP3 SWAP6 POP SWAP3 SWAP6 SWAP1 SWAP4 POP JUMP JUMPDEST PUSH1 0x0 PUSH3 0xA87 DUP3 PUSH3 0xA8E JUMP JUMPDEST SWAP1 POP SWAP2 SWAP1 POP JUMP JUMPDEST PUSH1 0x0 PUSH20 0xFFFFFFFFFFFFFFFFFFFFFFFFFFFFFFFFFFFFFFFF DUP3 AND SWAP1 POP SWAP2 SWAP1 POP JUMP JUMPDEST PUSH1 0x0 DUP2 SWAP1 POP SWAP2 SWAP1 POP JUMP JUMPDEST PUSH1 0x0 PUSH1 0x2 DUP3 DIV SWAP1 POP PUSH1 0x1 DUP3 AND DUP1 PUSH3 0xAD1 JUMPI PUSH1 0x7F DUP3 AND SWAP2 POP JUMPDEST PUSH1 0x20 DUP3 LT DUP2 EQ ISZERO PUSH3 0xAE8 JUMPI PUSH3 0xAE7 PUSH3 0xAEE JUMP JUMPDEST JUMPDEST POP SWAP2 SWAP1 POP JUMP JUMPDEST PUSH32 0x4E487B7100000000000000000000000000000000000000000000000000000000 PUSH1 0x0 MSTORE PUSH1 0x22 PUSH1 0x4 MSTORE PUSH1 0x24 PUSH1 0x0 REVERT JUMPDEST PUSH3 0xB28 DUP2 PUSH3 0xA7A JUMP JUMPDEST DUP2 EQ PUSH3 0xB34 JUMPI PUSH1 0x0 DUP1 REVERT JUMPDEST POP JUMP JUMPDEST PUSH3 0xB42 DUP2 PUSH3 0xAAE JUMP JUMPDEST DUP2 EQ PUSH3 0xB4E JUMPI PUSH1 0x0 DUP1 REVERT JUMPDEST POP JUMP JUMPDEST PUSH2 0x18C8 DUP1 PUSH3 0xB61 PUSH1 0x0 CODECOPY PUSH1 0x0 RETURN INVALID PUSH1 0x80 PUSH1 0x40 MSTORE CALLVALUE DUP1 ISZERO PUSH2 0x10 JUMPI PUSH1 0x0 DUP1 REVERT JUMPDEST POP PUSH1 0x4 CALLDATASIZE LT PUSH2 0x4C JUMPI PUSH1 0x0 CALLDATALOAD PUSH1 0xE0 SHR DUP1 PUSH4 0x2F48AB7D EQ PUSH2 0x51 JUMPI DUP1 PUSH4 0x91B7F5ED EQ PUSH2 0x6F JUMPI DUP1 PUSH4 0xB6AA4ED6 EQ PUSH2 0x8B JUMPI DUP1 PUSH4 0xF320F858 EQ PUSH2 0xA7 JUMPI JUMPDEST PUSH1 0x0 DUP1 REVERT JUMPDEST PUSH2 0x59 PUSH2 0xC3 JUMP JUMPDEST PUSH1 0x40 MLOAD PUSH2 0x66 SWAP2 SWAP1 PUSH2 0x1242 JUMP JUMPDEST PUSH1 0x40 MLOAD DUP1 SWAP2 SUB SWAP1 RETURN JUMPDEST PUSH2 0x89 PUSH1 0x4 DUP1 CALLDATASIZE SUB DUP2 ADD SWAP1 PUSH2 0x84 SWAP2 SWAP1 PUSH2 0xDF7 JUMP JUMPDEST PUSH2 0xE7 JUMP JUMPDEST STOP JUMPDEST PUSH2 0xA5 PUSH1 0x4 DUP1 CALLDATASIZE SUB DUP2 ADD SWAP1 PUSH2 0xA0 SWAP2 SWAP1 PUSH2 0xDF7 JUMP JUMPDEST PUSH2 0x181 JUMP JUMPDEST STOP JUMPDEST PUSH2 0xC1 PUSH1 0x4 DUP1 CALLDATASIZE SUB DUP2 ADD SWAP1 PUSH2 0xBC SWAP2 SWAP1 PUSH2 0xD92 JUMP JUMPDEST PUSH2 0x892 JUMP JUMPDEST STOP JUMPDEST PUSH1 0x0 DUP1 SLOAD SWAP1 PUSH2 0x100 EXP SWAP1 DIV PUSH20 0xFFFFFFFFFFFFFFFFFFFFFFFFFFFFFFFFFFFFFFFF AND DUP2 JUMP JUMPDEST PUSH1 0x3 PUSH1 0x0 SWAP1 SLOAD SWAP1 PUSH2 0x100 EXP SWAP1 DIV PUSH20 0xFFFFFFFFFFFFFFFFFFFFFFFFFFFFFFFFFFFFFFFF AND PUSH20 0xFFFFFFFFFFFFFFFFFFFFFFFFFFFFFFFFFFFFFFFF AND CALLER PUSH20 0xFFFFFFFFFFFFFFFFFFFFFFFFFFFFFFFFFFFFFFFF AND EQ PUSH2 0x177 JUMPI PUSH1 0x40 MLOAD PUSH32 0x8C379A000000000000000000000000000000000000000000000000000000000 DUP2 MSTORE PUSH1 0x4 ADD PUSH2 0x16E SWAP1 PUSH2 0x12DF JUMP JUMPDEST PUSH1 0x40 MLOAD DUP1 SWAP2 SUB SWAP1 REVERT JUMPDEST DUP1 PUSH1 0x4 DUP2 SWAP1 SSTORE POP POP JUMP JUMPDEST PUSH1 0x0 DUP1 PUSH2 0x3E8 PUSH2 0x18F PUSH2 0x9A8 JUMP JUMPDEST PUSH2 0x199 SWAP2 SWAP1 PUSH2 0x1572 JUMP JUMPDEST SWAP1 POP DUP3 PUSH1 0x0 DUP1 SLOAD SWAP1 PUSH2 0x100 EXP SWAP1 DIV PUSH20 0xFFFFFFFFFFFFFFFFFFFFFFFFFFFFFFFFFFFFFFFF AND PUSH20 0xFFFFFFFFFFFFFFFFFFFFFFFFFFFFFFFFFFFFFFFF AND PUSH4 0x70A08231 CALLER PUSH1 0x40 MLOAD DUP3 PUSH4 0xFFFFFFFF AND PUSH1 0xE0 SHL DUP2 MSTORE PUSH1 0x4 ADD PUSH2 0x1F5 SWAP2 SWAP1 PUSH2 0x10E4 JUMP JUMPDEST PUSH1 0x20 PUSH1 0x40 MLOAD DUP1 DUP4 SUB DUP2 DUP7 DUP1 EXTCODESIZE ISZERO DUP1 ISZERO PUSH2 0x20D JUMPI PUSH1 0x0 DUP1 REVERT JUMPDEST POP GAS STATICCALL ISZERO DUP1 ISZERO PUSH2 0x221 JUMPI RETURNDATASIZE PUSH1 0x0 DUP1 RETURNDATACOPY RETURNDATASIZE PUSH1 0x0 REVERT JUMPDEST POP POP POP POP PUSH1 0x40 MLOAD RETURNDATASIZE PUSH1 0x1F NOT PUSH1 0x1F DUP3 ADD AND DUP3 ADD DUP1 PUSH1 0x40 MSTORE POP DUP2 ADD SWAP1 PUSH2 0x245 SWAP2 SWAP1 PUSH2 0xE20 JUMP JUMPDEST LT ISZERO PUSH2 0x286 JUMPI PUSH1 0x40 MLOAD PUSH32 0x8C379A000000000000000000000000000000000000000000000000000000000 DUP2 MSTORE PUSH1 0x4 ADD PUSH2 0x27D SWAP1 PUSH2 0x127F JUMP JUMPDEST PUSH1 0x40 MLOAD DUP1 SWAP2 SUB SWAP1 REVERT JUMPDEST DUP3 PUSH1 0x4 SLOAD GT ISZERO PUSH2 0x2CB JUMPI PUSH1 0x40 MLOAD PUSH32 0x8C379A000000000000000000000000000000000000000000000000000000000 DUP2 MSTORE PUSH1 0x4 ADD PUSH2 0x2C2 SWAP1 PUSH2 0x12BF JUMP JUMPDEST PUSH1 0x40 MLOAD DUP1 SWAP2 SUB SWAP1 REVERT JUMPDEST PUSH1 0x0 PUSH2 0x2F4 PUSH1 0xA PUSH2 0x2E6 PUSH1 0x9 DUP8 PUSH2 0x9DE SWAP1 SWAP2 SWAP1 PUSH4 0xFFFFFFFF AND JUMP JUMPDEST PUSH2 0x9F4 SWAP1 SWAP2 SWAP1 PUSH4 0xFFFFFFFF AND JUMP JUMPDEST SWAP1 POP PUSH2 0x365 CALLER PUSH1 0x1 PUSH1 0x0 SWAP1 SLOAD SWAP1 PUSH2 0x100 EXP SWAP1 DIV PUSH20 0xFFFFFFFFFFFFFFFFFFFFFFFFFFFFFFFFFFFFFFFF AND DUP4 PUSH1 0x0 DUP1 SLOAD SWAP1 PUSH2 0x100 EXP SWAP1 DIV PUSH20 0xFFFFFFFFFFFFFFFFFFFFFFFFFFFFFFFFFFFFFFFF AND PUSH20 0xFFFFFFFFFFFFFFFFFFFFFFFFFFFFFFFFFFFFFFFF AND PUSH2 0xA0A SWAP1 SWAP4 SWAP3 SWAP2 SWAP1 PUSH4 0xFFFFFFFF AND JUMP JUMPDEST PUSH2 0x3E6 CALLER PUSH1 0x2 PUSH1 0x0 SWAP1 SLOAD SWAP1 PUSH2 0x100 EXP SWAP1 DIV PUSH20 0xFFFFFFFFFFFFFFFFFFFFFFFFFFFFFFFFFFFFFFFF AND PUSH2 0x39F DUP5 DUP9 PUSH2 0xA93 SWAP1 SWAP2 SWAP1 PUSH4 0xFFFFFFFF AND JUMP JUMPDEST PUSH1 0x0 DUP1 SLOAD SWAP1 PUSH2 0x100 EXP SWAP1 DIV PUSH20 0xFFFFFFFFFFFFFFFFFFFFFFFFFFFFFFFFFFFFFFFF AND PUSH20 0xFFFFFFFFFFFFFFFFFFFFFFFFFFFFFFFFFFFFFFFF AND PUSH2 0xA0A SWAP1 SWAP4 SWAP3 SWAP2 SWAP1 PUSH4 0xFFFFFFFF AND JUMP JUMPDEST PUSH2 0x320 DUP3 LT ISZERO PUSH2 0x4FF JUMPI PUSH1 0x9 PUSH1 0x0 SWAP1 SLOAD SWAP1 PUSH2 0x100 EXP SWAP1 DIV PUSH20 0xFFFFFFFFFFFFFFFFFFFFFFFFFFFFFFFFFFFFFFFF AND PUSH20 0xFFFFFFFFFFFFFFFFFFFFFFFFFFFFFFFFFFFFFFFF AND PUSH4 0x477BF177 CALLER PUSH1 0x5 DUP1 DUP1 SLOAD SWAP1 POP PUSH2 0x43E PUSH2 0x9A8 JUMP JUMPDEST PUSH2 0x448 SWAP2 SWAP1 PUSH2 0x1572 JUMP JUMPDEST DUP2 SLOAD DUP2 LT PUSH2 0x47F JUMPI PUSH32 0x4E487B7100000000000000000000000000000000000000000000000000000000 PUSH1 0x0 MSTORE PUSH1 0x32 PUSH1 0x4 MSTORE PUSH1 0x24 PUSH1 0x0 REVERT JUMPDEST SWAP1 PUSH1 0x0 MSTORE PUSH1 0x20 PUSH1 0x0 KECCAK256 ADD PUSH1 0x40 MLOAD DUP4 PUSH4 0xFFFFFFFF AND PUSH1 0xE0 SHL DUP2 MSTORE PUSH1 0x4 ADD PUSH2 0x4A6 SWAP3 SWAP2 SWAP1 PUSH2 0x1136 JUMP JUMPDEST PUSH1 0x20 PUSH1 0x40 MLOAD DUP1 DUP4 SUB DUP2 PUSH1 0x0 DUP8 DUP1 EXTCODESIZE ISZERO DUP1 ISZERO PUSH2 0x4C0 JUMPI PUSH1 0x0 DUP1 REVERT JUMPDEST POP GAS CALL ISZERO DUP1 ISZERO PUSH2 0x4D4 JUMPI RETURNDATASIZE PUSH1 0x0 DUP1 RETURNDATACOPY RETURNDATASIZE PUSH1 0x0 REVERT JUMPDEST POP POP POP POP PUSH1 0x40 MLOAD RETURNDATASIZE PUSH1 0x1F NOT PUSH1 0x1F DUP3 ADD AND DUP3 ADD DUP1 PUSH1 0x40 MSTORE POP DUP2 ADD SWAP1 PUSH2 0x4F8 SWAP2 SWAP1 PUSH2 0xE20 JUMP JUMPDEST SWAP3 POP PUSH2 0x83E JUMP JUMPDEST PUSH2 0x3C0 DUP3 LT ISZERO PUSH2 0x618 JUMPI PUSH1 0x9 PUSH1 0x0 SWAP1 SLOAD SWAP1 PUSH2 0x100 EXP SWAP1 DIV PUSH20 0xFFFFFFFFFFFFFFFFFFFFFFFFFFFFFFFFFFFFFFFF AND PUSH20 0xFFFFFFFFFFFFFFFFFFFFFFFFFFFFFFFFFFFFFFFF AND PUSH4 0x477BF177 CALLER PUSH1 0x6 DUP1 DUP1 SLOAD SWAP1 POP PUSH2 0x557 PUSH2 0x9A8 JUMP JUMPDEST PUSH2 0x561 SWAP2 SWAP1 PUSH2 0x1572 JUMP JUMPDEST DUP2 SLOAD DUP2 LT PUSH2 0x598 JUMPI PUSH32 0x4E487B7100000000000000000000000000000000000000000000000000000000 PUSH1 0x0 MSTORE PUSH1 0x32 PUSH1 0x4 MSTORE PUSH1 0x24 PUSH1 0x0 REVERT JUMPDEST SWAP1 PUSH1 0x0 MSTORE PUSH1 0x20 PUSH1 0x0 KECCAK256 ADD PUSH1 0x40 MLOAD DUP4 PUSH4 0xFFFFFFFF AND PUSH1 0xE0 SHL DUP2 MSTORE PUSH1 0x4 ADD PUSH2 0x5BF SWAP3 SWAP2 SWAP1 PUSH2 0x11BC JUMP JUMPDEST PUSH1 0x20 PUSH1 0x40 MLOAD DUP1 DUP4 SUB DUP2 PUSH1 0x0 DUP8 DUP1 EXTCODESIZE ISZERO DUP1 ISZERO PUSH2 0x5D9 JUMPI PUSH1 0x0 DUP1 REVERT JUMPDEST POP GAS CALL ISZERO DUP1 ISZERO PUSH2 0x5ED JUMPI RETURNDATASIZE PUSH1 0x0 DUP1 RETURNDATACOPY RETURNDATASIZE PUSH1 0x0 REVERT JUMPDEST POP POP POP POP PUSH1 0x40 MLOAD RETURNDATASIZE PUSH1 0x1F NOT PUSH1 0x1F DUP3 ADD AND DUP3 ADD DUP1 PUSH1 0x40 MSTORE POP DUP2 ADD SWAP1 PUSH2 0x611 SWAP2 SWAP1 PUSH2 0xE20 JUMP JUMPDEST SWAP3 POP PUSH2 0x83D JUMP JUMPDEST PUSH2 0x3E0 DUP3 LT ISZERO PUSH2 0x731 JUMPI PUSH1 0x9 PUSH1 0x0 SWAP1 SLOAD SWAP1 PUSH2 0x100 EXP SWAP1 DIV PUSH20 0xFFFFFFFFFFFFFFFFFFFFFFFFFFFFFFFFFFFFFFFF AND PUSH20 0xFFFFFFFFFFFFFFFFFFFFFFFFFFFFFFFFFFFFFFFF AND PUSH4 0x477BF177 CALLER PUSH1 0x7 DUP1 DUP1 SLOAD SWAP1 POP PUSH2 0x670 PUSH2 0x9A8 JUMP JUMPDEST PUSH2 0x67A SWAP2 SWAP1 PUSH2 0x1572 JUMP JUMPDEST DUP2 SLOAD DUP2 LT PUSH2 0x6B1 JUMPI PUSH32 0x4E487B7100000000000000000000000000000000000000000000000000000000 PUSH1 0x0 MSTORE PUSH1 0x32 PUSH1 0x4 MSTORE PUSH1 0x24 PUSH1 0x0 REVERT JUMPDEST SWAP1 PUSH1 0x0 MSTORE PUSH1 0x20 PUSH1 0x0 KECCAK256 ADD PUSH1 0x40 MLOAD DUP4 PUSH4 0xFFFFFFFF AND PUSH1 0xE0 SHL DUP2 MSTORE PUSH1 0x4 ADD PUSH2 0x6D8 SWAP3 SWAP2 SWAP1 PUSH2 0x11FF JUMP JUMPDEST PUSH1 0x20 PUSH1 0x40 MLOAD DUP1 DUP4 SUB DUP2 PUSH1 0x0 DUP8 DUP1 EXTCODESIZE ISZERO DUP1 ISZERO PUSH2 0x6F2 JUMPI PUSH1 0x0 DUP1 REVERT JUMPDEST POP GAS CALL ISZERO DUP1 ISZERO PUSH2 0x706 JUMPI RETURNDATASIZE PUSH1 0x0 DUP1 RETURNDATACOPY RETURNDATASIZE PUSH1 0x0 REVERT JUMPDEST POP POP POP POP PUSH1 0x40 MLOAD RETURNDATASIZE PUSH1 0x1F NOT PUSH1 0x1F DUP3 ADD AND DUP3 ADD DUP1 PUSH1 0x40 MSTORE POP DUP2 ADD SWAP1 PUSH2 0x72A SWAP2 SWAP1 PUSH2 0xE20 JUMP JUMPDEST SWAP3 POP PUSH2 0x83C JUMP JUMPDEST PUSH1 0x9 PUSH1 0x0 SWAP1 SLOAD SWAP1 PUSH2 0x100 EXP SWAP1 DIV PUSH20 0xFFFFFFFFFFFFFFFFFFFFFFFFFFFFFFFFFFFFFFFF AND PUSH20 0xFFFFFFFFFFFFFFFFFFFFFFFFFFFFFFFFFFFFFFFF AND PUSH4 0x477BF177 CALLER PUSH1 0x8 DUP1 DUP1 SLOAD SWAP1 POP PUSH2 0x77F PUSH2 0x9A8 JUMP JUMPDEST PUSH2 0x789 SWAP2 SWAP1 PUSH2 0x1572 JUMP JUMPDEST DUP2 SLOAD DUP2 LT PUSH2 0x7C0 JUMPI PUSH32 0x4E487B7100000000000000000000000000000000000000000000000000000000 PUSH1 0x0 MSTORE PUSH1 0x32 PUSH1 0x4 MSTORE PUSH1 0x24 PUSH1 0x0 REVERT JUMPDEST SWAP1 PUSH1 0x0 MSTORE PUSH1 0x20 PUSH1 0x0 KECCAK256 ADD PUSH1 0x40 MLOAD DUP4 PUSH4 0xFFFFFFFF AND PUSH1 0xE0 SHL DUP2 MSTORE PUSH1 0x4 ADD PUSH2 0x7E7 SWAP3 SWAP2 SWAP1 PUSH2 0x1179 JUMP JUMPDEST PUSH1 0x20 PUSH1 0x40 MLOAD DUP1 DUP4 SUB DUP2 PUSH1 0x0 DUP8 DUP1 EXTCODESIZE ISZERO DUP1 ISZERO PUSH2 0x801 JUMPI PUSH1 0x0 DUP1 REVERT JUMPDEST POP GAS CALL ISZERO DUP1 ISZERO PUSH2 0x815 JUMPI RETURNDATASIZE PUSH1 0x0 DUP1 RETURNDATACOPY RETURNDATASIZE PUSH1 0x0 REVERT JUMPDEST POP POP POP POP PUSH1 0x40 MLOAD RETURNDATASIZE PUSH1 0x1F NOT PUSH1 0x1F DUP3 ADD AND DUP3 ADD DUP1 PUSH1 0x40 MSTORE POP DUP2 ADD SWAP1 PUSH2 0x839 SWAP2 SWAP1 PUSH2 0xE20 JUMP JUMPDEST SWAP3 POP JUMPDEST JUMPDEST JUMPDEST CALLER PUSH20 0xFFFFFFFFFFFFFFFFFFFFFFFFFFFFFFFFFFFFFFFF AND PUSH32 0x267422FA3A8C9525ACB851824D5F4579F8DE0442B971DEEF203719962E3B9D4A DUP5 PUSH1 0x40 MLOAD PUSH2 0x884 SWAP2 SWAP1 PUSH2 0x133F JUMP JUMPDEST PUSH1 0x40 MLOAD DUP1 SWAP2 SUB SWAP1 LOG2 POP POP POP POP JUMP JUMPDEST PUSH1 0x3 PUSH1 0x0 SWAP1 SLOAD SWAP1 PUSH2 0x100 EXP SWAP1 DIV PUSH20 0xFFFFFFFFFFFFFFFFFFFFFFFFFFFFFFFFFFFFFFFF AND PUSH20 0xFFFFFFFFFFFFFFFFFFFFFFFFFFFFFFFFFFFFFFFF AND CALLER PUSH20 0xFFFFFFFFFFFFFFFFFFFFFFFFFFFFFFFFFFFFFFFF AND EQ PUSH2 0x922 JUMPI PUSH1 0x40 MLOAD PUSH32 0x8C379A000000000000000000000000000000000000000000000000000000000 DUP2 MSTORE PUSH1 0x4 ADD PUSH2 0x919 SWAP1 PUSH2 0x12DF JUMP JUMPDEST PUSH1 0x40 MLOAD DUP1 SWAP2 SUB SWAP1 REVERT JUMPDEST DUP2 PUSH1 0x1 PUSH1 0x0 PUSH2 0x100 EXP DUP2 SLOAD DUP2 PUSH20 0xFFFFFFFFFFFFFFFFFFFFFFFFFFFFFFFFFFFFFFFF MUL NOT AND SWAP1 DUP4 PUSH20 0xFFFFFFFFFFFFFFFFFFFFFFFFFFFFFFFFFFFFFFFF AND MUL OR SWAP1 SSTORE POP DUP1 PUSH1 0x2 PUSH1 0x0 PUSH2 0x100 EXP DUP2 SLOAD DUP2 PUSH20 0xFFFFFFFFFFFFFFFFFFFFFFFFFFFFFFFFFFFFFFFF MUL NOT AND SWAP1 DUP4 PUSH20 0xFFFFFFFFFFFFFFFFFFFFFFFFFFFFFFFFFFFFFFFF AND MUL OR SWAP1 SSTORE POP POP POP JUMP JUMPDEST PUSH1 0x0 TIMESTAMP TIMESTAMP BLOCKHASH CALLER PUSH1 0x40 MLOAD PUSH1 0x20 ADD PUSH2 0x9C0 SWAP4 SWAP3 SWAP2 SWAP1 PUSH2 0x135A JUMP JUMPDEST PUSH1 0x40 MLOAD PUSH1 0x20 DUP2 DUP4 SUB SUB DUP2 MSTORE SWAP1 PUSH1 0x40 MSTORE DUP1 MLOAD SWAP1 PUSH1 0x20 ADD KECCAK256 PUSH1 0x0 SHR SWAP1 POP SWAP1 JUMP JUMPDEST PUSH1 0x0 DUP2 DUP4 PUSH2 0x9EC SWAP2 SWAP1 PUSH2 0x1409 JUMP JUMPDEST SWAP1 POP SWAP3 SWAP2 POP POP JUMP JUMPDEST PUSH1 0x0 DUP2 DUP4 PUSH2 0xA02 SWAP2 SWAP1 PUSH2 0x13D8 JUMP JUMPDEST SWAP1 POP SWAP3 SWAP2 POP POP JUMP JUMPDEST PUSH2 0xA8D DUP5 PUSH4 0x23B872DD PUSH1 0xE0 SHL DUP6 DUP6 DUP6 PUSH1 0x40 MLOAD PUSH1 0x24 ADD PUSH2 0xA2B SWAP4 SWAP3 SWAP2 SWAP1 PUSH2 0x10FF JUMP JUMPDEST PUSH1 0x40 MLOAD PUSH1 0x20 DUP2 DUP4 SUB SUB DUP2 MSTORE SWAP1 PUSH1 0x40 MSTORE SWAP1 PUSH28 0xFFFFFFFFFFFFFFFFFFFFFFFFFFFFFFFFFFFFFFFFFFFFFFFFFFFFFFFF NOT AND PUSH1 0x20 DUP3 ADD DUP1 MLOAD PUSH28 0xFFFFFFFFFFFFFFFFFFFFFFFFFFFFFFFFFFFFFFFFFFFFFFFFFFFFFFFF DUP4 DUP2 DUP4 AND OR DUP4 MSTORE POP POP POP POP PUSH2 0xAA9 JUMP JUMPDEST POP POP POP POP JUMP JUMPDEST PUSH1 0x0 DUP2 DUP4 PUSH2 0xAA1 SWAP2 SWAP1 PUSH2 0x1463 JUMP JUMPDEST SWAP1 POP SWAP3 SWAP2 POP POP JUMP JUMPDEST PUSH1 0x0 PUSH2 0xB0B DUP3 PUSH1 0x40 MLOAD DUP1 PUSH1 0x40 ADD PUSH1 0x40 MSTORE DUP1 PUSH1 0x20 DUP2 MSTORE PUSH1 0x20 ADD PUSH32 0x5361666545524332303A206C6F772D6C6576656C2063616C6C206661696C6564 DUP2 MSTORE POP DUP6 PUSH20 0xFFFFFFFFFFFFFFFFFFFFFFFFFFFFFFFFFFFFFFFF AND PUSH2 0xB70 SWAP1 SWAP3 SWAP2 SWAP1 PUSH4 0xFFFFFFFF AND JUMP JUMPDEST SWAP1 POP PUSH1 0x0 DUP2 MLOAD GT ISZERO PUSH2 0xB6B JUMPI DUP1 DUP1 PUSH1 0x20 ADD SWAP1 MLOAD DUP2 ADD SWAP1 PUSH2 0xB2B SWAP2 SWAP1 PUSH2 0xDCE JUMP JUMPDEST PUSH2 0xB6A JUMPI PUSH1 0x40 MLOAD PUSH32 0x8C379A000000000000000000000000000000000000000000000000000000000 DUP2 MSTORE PUSH1 0x4 ADD PUSH2 0xB61 SWAP1 PUSH2 0x131F JUMP JUMPDEST PUSH1 0x40 MLOAD DUP1 SWAP2 SUB SWAP1 REVERT JUMPDEST JUMPDEST POP POP POP JUMP JUMPDEST PUSH1 0x60 PUSH2 0xB7F DUP5 DUP5 PUSH1 0x0 DUP6 PUSH2 0xB88 JUMP JUMPDEST SWAP1 POP SWAP4 SWAP3 POP POP POP JUMP JUMPDEST PUSH1 0x60 DUP3 SELFBALANCE LT ISZERO PUSH2 0xBCD JUMPI PUSH1 0x40 MLOAD PUSH32 0x8C379A000000000000000000000000000000000000000000000000000000000 DUP2 MSTORE PUSH1 0x4 ADD PUSH2 0xBC4 SWAP1 PUSH2 0x129F JUMP JUMPDEST PUSH1 0x40 MLOAD DUP1 SWAP2 SUB SWAP1 REVERT JUMPDEST PUSH1 0x0 DUP1 DUP7 PUSH20 0xFFFFFFFFFFFFFFFFFFFFFFFFFFFFFFFFFFFFFFFF AND DUP6 DUP8 PUSH1 0x40 MLOAD PUSH2 0xBF6 SWAP2 SWAP1 PUSH2 0x10CD JUMP JUMPDEST PUSH1 0x0 PUSH1 0x40 MLOAD DUP1 DUP4 SUB DUP2 DUP6 DUP8 GAS CALL SWAP3 POP POP POP RETURNDATASIZE DUP1 PUSH1 0x0 DUP2 EQ PUSH2 0xC33 JUMPI PUSH1 0x40 MLOAD SWAP2 POP PUSH1 0x1F NOT PUSH1 0x3F RETURNDATASIZE ADD AND DUP3 ADD PUSH1 0x40 MSTORE RETURNDATASIZE DUP3 MSTORE RETURNDATASIZE PUSH1 0x0 PUSH1 0x20 DUP5 ADD RETURNDATACOPY PUSH2 0xC38 JUMP JUMPDEST PUSH1 0x60 SWAP2 POP JUMPDEST POP SWAP2 POP SWAP2 POP PUSH2 0xC49 DUP8 DUP4 DUP4 DUP8 PUSH2 0xC55 JUMP JUMPDEST SWAP3 POP POP POP SWAP5 SWAP4 POP POP POP POP JUMP JUMPDEST PUSH1 0x60 DUP4 ISZERO PUSH2 0xCB8 JUMPI PUSH1 0x0 DUP4 MLOAD EQ ISZERO PUSH2 0xCB0 JUMPI PUSH2 0xC70 DUP6 PUSH2 0xCCB JUMP JUMPDEST PUSH2 0xCAF JUMPI PUSH1 0x40 MLOAD PUSH32 0x8C379A000000000000000000000000000000000000000000000000000000000 DUP2 MSTORE PUSH1 0x4 ADD PUSH2 0xCA6 SWAP1 PUSH2 0x12FF JUMP JUMPDEST PUSH1 0x40 MLOAD DUP1 SWAP2 SUB SWAP1 REVERT JUMPDEST JUMPDEST DUP3 SWAP1 POP PUSH2 0xCC3 JUMP JUMPDEST PUSH2 0xCC2 DUP4 DUP4 PUSH2 0xCEE JUMP JUMPDEST JUMPDEST SWAP5 SWAP4 POP POP POP POP JUMP JUMPDEST PUSH1 0x0 DUP1 DUP3 PUSH20 0xFFFFFFFFFFFFFFFFFFFFFFFFFFFFFFFFFFFFFFFF AND EXTCODESIZE GT SWAP1 POP SWAP2 SWAP1 POP JUMP JUMPDEST PUSH1 0x0 DUP3 MLOAD GT ISZERO PUSH2 0xD01 JUMPI DUP2 MLOAD DUP1 DUP4 PUSH1 0x20 ADD REVERT JUMPDEST DUP1 PUSH1 0x40 MLOAD PUSH32 0x8C379A000000000000000000000000000000000000000000000000000000000 DUP2 MSTORE PUSH1 0x4 ADD PUSH2 0xD35 SWAP2 SWAP1 PUSH2 0x125D JUMP JUMPDEST PUSH1 0x40 MLOAD DUP1 SWAP2 SUB SWAP1 REVERT JUMPDEST PUSH1 0x0 DUP2 CALLDATALOAD SWAP1 POP PUSH2 0xD4D DUP2 PUSH2 0x184D JUMP JUMPDEST SWAP3 SWAP2 POP POP JUMP JUMPDEST PUSH1 0x0 DUP2 MLOAD SWAP1 POP PUSH2 0xD62 DUP2 PUSH2 0x1864 JUMP JUMPDEST SWAP3 SWAP2 POP POP JUMP JUMPDEST PUSH1 0x0 DUP2 CALLDATALOAD SWAP1 POP PUSH2 0xD77 DUP2 PUSH2 0x187B JUMP JUMPDEST SWAP3 SWAP2 POP POP JUMP JUMPDEST PUSH1 0x0 DUP2 MLOAD SWAP1 POP PUSH2 0xD8C DUP2 PUSH2 0x187B JUMP JUMPDEST SWAP3 SWAP2 POP POP JUMP JUMPDEST PUSH1 0x0 DUP1 PUSH1 0x40 DUP4 DUP6 SUB SLT ISZERO PUSH2 0xDA5 JUMPI PUSH1 0x0 DUP1 REVERT JUMPDEST PUSH1 0x0 PUSH2 0xDB3 DUP6 DUP3 DUP7 ADD PUSH2 0xD3E JUMP JUMPDEST SWAP3 POP POP PUSH1 0x20 PUSH2 0xDC4 DUP6 DUP3 DUP7 ADD PUSH2 0xD3E JUMP JUMPDEST SWAP2 POP POP SWAP3 POP SWAP3 SWAP1 POP JUMP JUMPDEST PUSH1 0x0 PUSH1 0x20 DUP3 DUP5 SUB SLT ISZERO PUSH2 0xDE0 JUMPI PUSH1 0x0 DUP1 REVERT JUMPDEST PUSH1 0x0 PUSH2 0xDEE DUP5 DUP3 DUP6 ADD PUSH2 0xD53 JUMP JUMPDEST SWAP2 POP POP SWAP3 SWAP2 POP POP JUMP JUMPDEST PUSH1 0x0 PUSH1 0x20 DUP3 DUP5 SUB SLT ISZERO PUSH2 0xE09 JUMPI PUSH1 0x0 DUP1 REVERT JUMPDEST PUSH1 0x0 PUSH2 0xE17 DUP5 DUP3 DUP6 ADD PUSH2 0xD68 JUMP JUMPDEST SWAP2 POP POP SWAP3 SWAP2 POP POP JUMP JUMPDEST PUSH1 0x0 PUSH1 0x20 DUP3 DUP5 SUB SLT ISZERO PUSH2 0xE32 JUMPI PUSH1 0x0 DUP1 REVERT JUMPDEST PUSH1 0x0 PUSH2 0xE40 DUP5 DUP3 DUP6 ADD PUSH2 0xD7D JUMP JUMPDEST SWAP2 POP POP SWAP3 SWAP2 POP POP JUMP JUMPDEST PUSH2 0xE52 DUP2 PUSH2 0x1497 JUMP JUMPDEST DUP3 MSTORE POP POP JUMP JUMPDEST PUSH2 0xE61 DUP2 PUSH2 0x14B5 JUMP JUMPDEST DUP3 MSTORE POP POP JUMP JUMPDEST PUSH1 0x0 PUSH2 0xE72 DUP3 PUSH2 0x13A6 JUMP JUMPDEST PUSH2 0xE7C DUP2 DUP6 PUSH2 0x13BC JUMP JUMPDEST SWAP4 POP PUSH2 0xE8C DUP2 DUP6 PUSH1 0x20 DUP7 ADD PUSH2 0x150D JUMP JUMPDEST DUP1 DUP5 ADD SWAP2 POP POP SWAP3 SWAP2 POP POP JUMP JUMPDEST PUSH2 0xEA1 DUP2 PUSH2 0x14E9 JUMP JUMPDEST DUP3 MSTORE POP POP JUMP JUMPDEST PUSH1 0x0 PUSH2 0xEB2 DUP3 PUSH2 0x13B1 JUMP JUMPDEST PUSH2 0xEBC DUP2 DUP6 PUSH2 0x13C7 JUMP JUMPDEST SWAP4 POP PUSH2 0xECC DUP2 DUP6 PUSH1 0x20 DUP7 ADD PUSH2 0x150D JUMP JUMPDEST PUSH2 0xED5 DUP2 PUSH2 0x1630 JUMP JUMPDEST DUP5 ADD SWAP2 POP POP SWAP3 SWAP2 POP POP JUMP JUMPDEST PUSH1 0x0 DUP2 SLOAD PUSH2 0xEED DUP2 PUSH2 0x1540 JUMP JUMPDEST PUSH2 0xEF7 DUP2 DUP7 PUSH2 0x13C7 JUMP JUMPDEST SWAP5 POP PUSH1 0x1 DUP3 AND PUSH1 0x0 DUP2 EQ PUSH2 0xF12 JUMPI PUSH1 0x1 DUP2 EQ PUSH2 0xF24 JUMPI PUSH2 0xF57 JUMP JUMPDEST PUSH1 0xFF NOT DUP4 AND DUP7 MSTORE PUSH1 0x20 DUP7 ADD SWAP4 POP PUSH2 0xF57 JUMP JUMPDEST PUSH2 0xF2D DUP6 PUSH2 0x1391 JUMP JUMPDEST PUSH1 0x0 JUMPDEST DUP4 DUP2 LT ISZERO PUSH2 0xF4F JUMPI DUP2 SLOAD DUP2 DUP10 ADD MSTORE PUSH1 0x1 DUP3 ADD SWAP2 POP PUSH1 0x20 DUP2 ADD SWAP1 POP PUSH2 0xF30 JUMP JUMPDEST DUP1 DUP9 ADD SWAP6 POP POP POP JUMPDEST POP POP POP SWAP3 SWAP2 POP POP JUMP JUMPDEST PUSH1 0x0 PUSH2 0xF6D PUSH1 0x2 DUP4 PUSH2 0x13C7 JUMP JUMPDEST SWAP2 POP PUSH2 0xF78 DUP3 PUSH2 0x1641 JUMP JUMPDEST PUSH1 0x20 DUP3 ADD SWAP1 POP SWAP2 SWAP1 POP JUMP JUMPDEST PUSH1 0x0 PUSH2 0xF90 PUSH1 0x3 DUP4 PUSH2 0x13C7 JUMP JUMPDEST SWAP2 POP PUSH2 0xF9B DUP3 PUSH2 0x166A JUMP JUMPDEST PUSH1 0x20 DUP3 ADD SWAP1 POP SWAP2 SWAP1 POP JUMP JUMPDEST PUSH1 0x0 PUSH2 0xFB3 PUSH1 0xF DUP4 PUSH2 0x13C7 JUMP JUMPDEST SWAP2 POP PUSH2 0xFBE DUP3 PUSH2 0x1693 JUMP JUMPDEST PUSH1 0x20 DUP3 ADD SWAP1 POP SWAP2 SWAP1 POP JUMP JUMPDEST PUSH1 0x0 PUSH2 0xFD6 PUSH1 0x26 DUP4 PUSH2 0x13C7 JUMP JUMPDEST SWAP2 POP PUSH2 0xFE1 DUP3 PUSH2 0x16BC JUMP JUMPDEST PUSH1 0x40 DUP3 ADD SWAP1 POP SWAP2 SWAP1 POP JUMP JUMPDEST PUSH1 0x0 PUSH2 0xFF9 PUSH1 0x3 DUP4 PUSH2 0x13C7 JUMP JUMPDEST SWAP2 POP PUSH2 0x1004 DUP3 PUSH2 0x170B JUMP JUMPDEST PUSH1 0x20 DUP3 ADD SWAP1 POP SWAP2 SWAP1 POP JUMP JUMPDEST PUSH1 0x0 PUSH2 0x101C PUSH1 0xE DUP4 PUSH2 0x13C7 JUMP JUMPDEST SWAP2 POP PUSH2 0x1027 DUP3 PUSH2 0x1734 JUMP JUMPDEST PUSH1 0x20 DUP3 ADD SWAP1 POP SWAP2 SWAP1 POP JUMP JUMPDEST PUSH1 0x0 PUSH2 0x103F PUSH1 0x2C DUP4 PUSH2 0x13C7 JUMP JUMPDEST SWAP2 POP PUSH2 0x104A DUP3 PUSH2 0x175D JUMP JUMPDEST PUSH1 0x40 DUP3 ADD SWAP1 POP SWAP2 SWAP1 POP JUMP JUMPDEST PUSH1 0x0 PUSH2 0x1062 PUSH1 0x1D DUP4 PUSH2 0x13C7 JUMP JUMPDEST SWAP2 POP PUSH2 0x106D DUP3 PUSH2 0x17AC JUMP JUMPDEST PUSH1 0x20 DUP3 ADD SWAP1 POP SWAP2 SWAP1 POP JUMP JUMPDEST PUSH1 0x0 PUSH2 0x1085 PUSH1 0x2A DUP4 PUSH2 0x13C7 JUMP JUMPDEST SWAP2 POP PUSH2 0x1090 DUP3 PUSH2 0x17D5 JUMP JUMPDEST PUSH1 0x40 DUP3 ADD SWAP1 POP SWAP2 SWAP1 POP JUMP JUMPDEST PUSH1 0x0 PUSH2 0x10A8 PUSH1 0x3 DUP4 PUSH2 0x13C7 JUMP JUMPDEST SWAP2 POP PUSH2 0x10B3 DUP3 PUSH2 0x1824 JUMP JUMPDEST PUSH1 0x20 DUP3 ADD SWAP1 POP SWAP2 SWAP1 POP JUMP JUMPDEST PUSH2 0x10C7 DUP2 PUSH2 0x14DF JUMP JUMPDEST DUP3 MSTORE POP POP JUMP JUMPDEST PUSH1 0x0 PUSH2 0x10D9 DUP3 DUP5 PUSH2 0xE67 JUMP JUMPDEST SWAP2 POP DUP2 SWAP1 POP SWAP3 SWAP2 POP POP JUMP JUMPDEST PUSH1 0x0 PUSH1 0x20 DUP3 ADD SWAP1 POP PUSH2 0x10F9 PUSH1 0x0 DUP4 ADD DUP5 PUSH2 0xE49 JUMP JUMPDEST SWAP3 SWAP2 POP POP JUMP JUMPDEST PUSH1 0x0 PUSH1 0x60 DUP3 ADD SWAP1 POP PUSH2 0x1114 PUSH1 0x0 DUP4 ADD DUP7 PUSH2 0xE49 JUMP JUMPDEST PUSH2 0x1121 PUSH1 0x20 DUP4 ADD DUP6 PUSH2 0xE49 JUMP JUMPDEST PUSH2 0x112E PUSH1 0x40 DUP4 ADD DUP5 PUSH2 0x10BE JUMP JUMPDEST SWAP5 SWAP4 POP POP POP POP JUMP JUMPDEST PUSH1 0x0 PUSH1 0x60 DUP3 ADD SWAP1 POP PUSH2 0x114B PUSH1 0x0 DUP4 ADD DUP6 PUSH2 0xE49 JUMP JUMPDEST DUP2 DUP2 SUB PUSH1 0x20 DUP4 ADD MSTORE PUSH2 0x115D DUP2 DUP5 PUSH2 0xEE0 JUMP JUMPDEST SWAP1 POP DUP2 DUP2 SUB PUSH1 0x40 DUP4 ADD MSTORE PUSH2 0x1170 DUP2 PUSH2 0xF60 JUMP JUMPDEST SWAP1 POP SWAP4 SWAP3 POP POP POP JUMP JUMPDEST PUSH1 0x0 PUSH1 0x60 DUP3 ADD SWAP1 POP PUSH2 0x118E PUSH1 0x0 DUP4 ADD DUP6 PUSH2 0xE49 JUMP JUMPDEST DUP2 DUP2 SUB PUSH1 0x20 DUP4 ADD MSTORE PUSH2 0x11A0 DUP2 DUP5 PUSH2 0xEE0 JUMP JUMPDEST SWAP1 POP DUP2 DUP2 SUB PUSH1 0x40 DUP4 ADD MSTORE PUSH2 0x11B3 DUP2 PUSH2 0xF83 JUMP JUMPDEST SWAP1 POP SWAP4 SWAP3 POP POP POP JUMP JUMPDEST PUSH1 0x0 PUSH1 0x60 DUP3 ADD SWAP1 POP PUSH2 0x11D1 PUSH1 0x0 DUP4 ADD DUP6 PUSH2 0xE49 JUMP JUMPDEST DUP2 DUP2 SUB PUSH1 0x20 DUP4 ADD MSTORE PUSH2 0x11E3 DUP2 DUP5 PUSH2 0xEE0 JUMP JUMPDEST SWAP1 POP DUP2 DUP2 SUB PUSH1 0x40 DUP4 ADD MSTORE PUSH2 0x11F6 DUP2 PUSH2 0xFEC JUMP JUMPDEST SWAP1 POP SWAP4 SWAP3 POP POP POP JUMP JUMPDEST PUSH1 0x0 PUSH1 0x60 DUP3 ADD SWAP1 POP PUSH2 0x1214 PUSH1 0x0 DUP4 ADD DUP6 PUSH2 0xE49 JUMP JUMPDEST DUP2 DUP2 SUB PUSH1 0x20 DUP4 ADD MSTORE PUSH2 0x1226 DUP2 DUP5 PUSH2 0xEE0 JUMP JUMPDEST SWAP1 POP DUP2 DUP2 SUB PUSH1 0x40 DUP4 ADD MSTORE PUSH2 0x1239 DUP2 PUSH2 0x109B JUMP JUMPDEST SWAP1 POP SWAP4 SWAP3 POP POP POP JUMP JUMPDEST PUSH1 0x0 PUSH1 0x20 DUP3 ADD SWAP1 POP PUSH2 0x1257 PUSH1 0x0 DUP4 ADD DUP5 PUSH2 0xE98 JUMP JUMPDEST SWAP3 SWAP2 POP POP JUMP JUMPDEST PUSH1 0x0 PUSH1 0x20 DUP3 ADD SWAP1 POP DUP2 DUP2 SUB PUSH1 0x0 DUP4 ADD MSTORE PUSH2 0x1277 DUP2 DUP5 PUSH2 0xEA7 JUMP JUMPDEST SWAP1 POP SWAP3 SWAP2 POP POP JUMP JUMPDEST PUSH1 0x0 PUSH1 0x20 DUP3 ADD SWAP1 POP DUP2 DUP2 SUB PUSH1 0x0 DUP4 ADD MSTORE PUSH2 0x1298 DUP2 PUSH2 0xFA6 JUMP JUMPDEST SWAP1 POP SWAP2 SWAP1 POP JUMP JUMPDEST PUSH1 0x0 PUSH1 0x20 DUP3 ADD SWAP1 POP DUP2 DUP2 SUB PUSH1 0x0 DUP4 ADD MSTORE PUSH2 0x12B8 DUP2 PUSH2 0xFC9 JUMP JUMPDEST SWAP1 POP SWAP2 SWAP1 POP JUMP JUMPDEST PUSH1 0x0 PUSH1 0x20 DUP3 ADD SWAP1 POP DUP2 DUP2 SUB PUSH1 0x0 DUP4 ADD MSTORE PUSH2 0x12D8 DUP2 PUSH2 0x100F JUMP JUMPDEST SWAP1 POP SWAP2 SWAP1 POP JUMP JUMPDEST PUSH1 0x0 PUSH1 0x20 DUP3 ADD SWAP1 POP DUP2 DUP2 SUB PUSH1 0x0 DUP4 ADD MSTORE PUSH2 0x12F8 DUP2 PUSH2 0x1032 JUMP JUMPDEST SWAP1 POP SWAP2 SWAP1 POP JUMP JUMPDEST PUSH1 0x0 PUSH1 0x20 DUP3 ADD SWAP1 POP DUP2 DUP2 SUB PUSH1 0x0 DUP4 ADD MSTORE PUSH2 0x1318 DUP2 PUSH2 0x1055 JUMP JUMPDEST SWAP1 POP SWAP2 SWAP1 POP JUMP JUMPDEST PUSH1 0x0 PUSH1 0x20 DUP3 ADD SWAP1 POP DUP2 DUP2 SUB PUSH1 0x0 DUP4 ADD MSTORE PUSH2 0x1338 DUP2 PUSH2 0x1078 JUMP JUMPDEST SWAP1 POP SWAP2 SWAP1 POP JUMP JUMPDEST PUSH1 0x0 PUSH1 0x20 DUP3 ADD SWAP1 POP PUSH2 0x1354 PUSH1 0x0 DUP4 ADD DUP5 PUSH2 0x10BE JUMP JUMPDEST SWAP3 SWAP2 POP POP JUMP JUMPDEST PUSH1 0x0 PUSH1 0x60 DUP3 ADD SWAP1 POP PUSH2 0x136F PUSH1 0x0 DUP4 ADD DUP7 PUSH2 0x10BE JUMP JUMPDEST PUSH2 0x137C PUSH1 0x20 DUP4 ADD DUP6 PUSH2 0xE58 JUMP JUMPDEST PUSH2 0x1389 PUSH1 0x40 DUP4 ADD DUP5 PUSH2 0xE49 JUMP JUMPDEST SWAP5 SWAP4 POP POP POP POP JUMP JUMPDEST PUSH1 0x0 DUP2 SWAP1 POP DUP2 PUSH1 0x0 MSTORE PUSH1 0x20 PUSH1 0x0 KECCAK256 SWAP1 POP SWAP2 SWAP1 POP JUMP JUMPDEST PUSH1 0x0 DUP2 MLOAD SWAP1 POP SWAP2 SWAP1 POP JUMP JUMPDEST PUSH1 0x0 DUP2 MLOAD SWAP1 POP SWAP2 SWAP1 POP JUMP JUMPDEST PUSH1 0x0 DUP2 SWAP1 POP SWAP3 SWAP2 POP POP JUMP JUMPDEST PUSH1 0x0 DUP3 DUP3 MSTORE PUSH1 0x20 DUP3 ADD SWAP1 POP SWAP3 SWAP2 POP POP JUMP JUMPDEST PUSH1 0x0 PUSH2 0x13E3 DUP3 PUSH2 0x14DF JUMP JUMPDEST SWAP2 POP PUSH2 0x13EE DUP4 PUSH2 0x14DF JUMP JUMPDEST SWAP3 POP DUP3 PUSH2 0x13FE JUMPI PUSH2 0x13FD PUSH2 0x15D2 JUMP JUMPDEST JUMPDEST DUP3 DUP3 DIV SWAP1 POP SWAP3 SWAP2 POP POP JUMP JUMPDEST PUSH1 0x0 PUSH2 0x1414 DUP3 PUSH2 0x14DF JUMP JUMPDEST SWAP2 POP PUSH2 0x141F DUP4 PUSH2 0x14DF JUMP JUMPDEST SWAP3 POP DUP2 PUSH32 0xFFFFFFFFFFFFFFFFFFFFFFFFFFFFFFFFFFFFFFFFFFFFFFFFFFFFFFFFFFFFFFFF DIV DUP4 GT DUP3 ISZERO ISZERO AND ISZERO PUSH2 0x1458 JUMPI PUSH2 0x1457 PUSH2 0x15A3 JUMP JUMPDEST JUMPDEST DUP3 DUP3 MUL SWAP1 POP SWAP3 SWAP2 POP POP JUMP JUMPDEST PUSH1 0x0 PUSH2 0x146E DUP3 PUSH2 0x14DF JUMP JUMPDEST SWAP2 POP PUSH2 0x1479 DUP4 PUSH2 0x14DF JUMP JUMPDEST SWAP3 POP DUP3 DUP3 LT ISZERO PUSH2 0x148C JUMPI PUSH2 0x148B PUSH2 0x15A3 JUMP JUMPDEST JUMPDEST DUP3 DUP3 SUB SWAP1 POP SWAP3 SWAP2 POP POP JUMP JUMPDEST PUSH1 0x0 PUSH2 0x14A2 DUP3 PUSH2 0x14BF JUMP JUMPDEST SWAP1 POP SWAP2 SWAP1 POP JUMP JUMPDEST PUSH1 0x0 DUP2 ISZERO ISZERO SWAP1 POP SWAP2 SWAP1 POP JUMP JUMPDEST PUSH1 0x0 DUP2 SWAP1 POP SWAP2 SWAP1 POP JUMP JUMPDEST PUSH1 0x0 PUSH20 0xFFFFFFFFFFFFFFFFFFFFFFFFFFFFFFFFFFFFFFFF DUP3 AND SWAP1 POP SWAP2 SWAP1 POP JUMP JUMPDEST PUSH1 0x0 DUP2 SWAP1 POP SWAP2 SWAP1 POP JUMP JUMPDEST PUSH1 0x0 PUSH2 0x14F4 DUP3 PUSH2 0x14FB JUMP JUMPDEST SWAP1 POP SWAP2 SWAP1 POP JUMP JUMPDEST PUSH1 0x0 PUSH2 0x1506 DUP3 PUSH2 0x14BF JUMP JUMPDEST SWAP1 POP SWAP2 SWAP1 POP JUMP JUMPDEST PUSH1 0x0 JUMPDEST DUP4 DUP2 LT ISZERO PUSH2 0x152B JUMPI DUP1 DUP3 ADD MLOAD DUP2 DUP5 ADD MSTORE PUSH1 0x20 DUP2 ADD SWAP1 POP PUSH2 0x1510 JUMP JUMPDEST DUP4 DUP2 GT ISZERO PUSH2 0x153A JUMPI PUSH1 0x0 DUP5 DUP5 ADD MSTORE JUMPDEST POP POP POP POP JUMP JUMPDEST PUSH1 0x0 PUSH1 0x2 DUP3 DIV SWAP1 POP PUSH1 0x1 DUP3 AND DUP1 PUSH2 0x1558 JUMPI PUSH1 0x7F DUP3 AND SWAP2 POP JUMPDEST PUSH1 0x20 DUP3 LT DUP2 EQ ISZERO PUSH2 0x156C JUMPI PUSH2 0x156B PUSH2 0x1601 JUMP JUMPDEST JUMPDEST POP SWAP2 SWAP1 POP JUMP JUMPDEST PUSH1 0x0 PUSH2 0x157D DUP3 PUSH2 0x14DF JUMP JUMPDEST SWAP2 POP PUSH2 0x1588 DUP4 PUSH2 0x14DF JUMP JUMPDEST SWAP3 POP DUP3 PUSH2 0x1598 JUMPI PUSH2 0x1597 PUSH2 0x15D2 JUMP JUMPDEST JUMPDEST DUP3 DUP3 MOD SWAP1 POP SWAP3 SWAP2 POP POP JUMP JUMPDEST PUSH32 0x4E487B7100000000000000000000000000000000000000000000000000000000 PUSH1 0x0 MSTORE PUSH1 0x11 PUSH1 0x4 MSTORE PUSH1 0x24 PUSH1 0x0 REVERT JUMPDEST PUSH32 0x4E487B7100000000000000000000000000000000000000000000000000000000 PUSH1 0x0 MSTORE PUSH1 0x12 PUSH1 0x4 MSTORE PUSH1 0x24 PUSH1 0x0 REVERT JUMPDEST PUSH32 0x4E487B7100000000000000000000000000000000000000000000000000000000 PUSH1 0x0 MSTORE PUSH1 0x22 PUSH1 0x4 MSTORE PUSH1 0x24 PUSH1 0x0 REVERT JUMPDEST PUSH1 0x0 PUSH1 0x1F NOT PUSH1 0x1F DUP4 ADD AND SWAP1 POP SWAP2 SWAP1 POP JUMP JUMPDEST PUSH32 0x3530000000000000000000000000000000000000000000000000000000000000 PUSH1 0x0 DUP3 ADD MSTORE POP JUMP JUMPDEST PUSH32 0x3430300000000000000000000000000000000000000000000000000000000000 PUSH1 0x0 DUP3 ADD MSTORE POP JUMP JUMPDEST PUSH32 0x4E6F7420656E6F75676820555344540000000000000000000000000000000000 PUSH1 0x0 DUP3 ADD MSTORE POP JUMP JUMPDEST PUSH32 0x416464726573733A20696E73756666696369656E742062616C616E636520666F PUSH1 0x0 DUP3 ADD MSTORE PUSH32 0x722063616C6C0000000000000000000000000000000000000000000000000000 PUSH1 0x20 DUP3 ADD MSTORE POP JUMP JUMPDEST PUSH32 0x3130300000000000000000000000000000000000000000000000000000000000 PUSH1 0x0 DUP3 ADD MSTORE POP JUMP JUMPDEST PUSH32 0x4E656564206D6F72652055534454000000000000000000000000000000000000 PUSH1 0x0 DUP3 ADD MSTORE POP JUMP JUMPDEST PUSH32 0x4D6573736167652073656E646572206D7573742062652074686520636F6E7472 PUSH1 0x0 DUP3 ADD MSTORE PUSH32 0x6163742773206F776E65722E0000000000000000000000000000000000000000 PUSH1 0x20 DUP3 ADD MSTORE POP JUMP JUMPDEST PUSH32 0x416464726573733A2063616C6C20746F206E6F6E2D636F6E7472616374000000 PUSH1 0x0 DUP3 ADD MSTORE POP JUMP JUMPDEST PUSH32 0x5361666545524332303A204552433230206F7065726174696F6E20646964206E PUSH1 0x0 DUP3 ADD MSTORE PUSH32 0x6F74207375636365656400000000000000000000000000000000000000000000 PUSH1 0x20 DUP3 ADD MSTORE POP JUMP JUMPDEST PUSH32 0x3230300000000000000000000000000000000000000000000000000000000000 PUSH1 0x0 DUP3 ADD MSTORE POP JUMP JUMPDEST PUSH2 0x1856 DUP2 PUSH2 0x1497 JUMP JUMPDEST DUP2 EQ PUSH2 0x1861 JUMPI PUSH1 0x0 DUP1 REVERT JUMPDEST POP JUMP JUMPDEST PUSH2 0x186D DUP2 PUSH2 0x14A9 JUMP JUMPDEST DUP2 EQ PUSH2 0x1878 JUMPI PUSH1 0x0 DUP1 REVERT JUMPDEST POP JUMP JUMPDEST PUSH2 0x1884 DUP2 PUSH2 0x14DF JUMP JUMPDEST DUP2 EQ PUSH2 0x188F JUMPI PUSH1 0x0 DUP1 REVERT JUMPDEST POP JUMP INVALID LOG2 PUSH5 0x6970667358 0x22 SLT KECCAK256 INVALID 0xE SWAP9 0xCE DUP3 0x27 0xD3 0xA6 PUSH3 0x715519 CALLDATALOAD SHL PC MULMOD ADDMOD 0xB9 MULMOD 0xCB CALLCODE PUSH19 0x7FAFE012E9243F6BC4864736F6C6343000801 STOP CALLER "
				},
				"gasEstimates": {
					"creation": {
						"codeDepositCost": "1268800",
						"executionCost": "infinite",
						"totalCost": "infinite"
					},
					"external": {
						"drawCard(uint256)": "infinite",
						"setPrice(uint256)": "21290",
						"setRandomAddress(address,address)": "infinite",
						"usdt()": "1232"
					},
					"internal": {
						"random()": "infinite"
					}
				},
				"methodIdentifiers": {
					"drawCard(uint256)": "b6aa4ed6",
					"setPrice(uint256)": "91b7f5ed",
					"setRandomAddress(address,address)": "f320f858",
					"usdt()": "2f48ab7d"
				}
			},
			"storageLayout": {
				"storage": [
					{
						"astId": 1063,
						"contract": "BuyBlindBoxNFT.sol:BlindBox",
						"label": "usdt",
						"offset": 0,
						"slot": "0",
						"type": "t_contract(IERC20)77"
					},
					{
						"astId": 1065,
						"contract": "BuyBlindBoxNFT.sol:BlindBox",
						"label": "address1",
						"offset": 0,
						"slot": "1",
						"type": "t_address"
					},
					{
						"astId": 1067,
						"contract": "BuyBlindBoxNFT.sol:BlindBox",
						"label": "address2",
						"offset": 0,
						"slot": "2",
						"type": "t_address"
					},
					{
						"astId": 1069,
						"contract": "BuyBlindBoxNFT.sol:BlindBox",
						"label": "owner",
						"offset": 0,
						"slot": "3",
						"type": "t_address"
					},
					{
						"astId": 1071,
						"contract": "BuyBlindBoxNFT.sol:BlindBox",
						"label": "price",
						"offset": 0,
						"slot": "4",
						"type": "t_uint256"
					},
					{
						"astId": 1085,
						"contract": "BuyBlindBoxNFT.sol:BlindBox",
						"label": "group1",
						"offset": 0,
						"slot": "5",
						"type": "t_array(t_string_storage)dyn_storage"
					},
					{
						"astId": 1094,
						"contract": "BuyBlindBoxNFT.sol:BlindBox",
						"label": "group2",
						"offset": 0,
						"slot": "6",
						"type": "t_array(t_string_storage)dyn_storage"
					},
					{
						"astId": 1102,
						"contract": "BuyBlindBoxNFT.sol:BlindBox",
						"label": "group3",
						"offset": 0,
						"slot": "7",
						"type": "t_array(t_string_storage)dyn_storage"
					},
					{
						"astId": 1109,
						"contract": "BuyBlindBoxNFT.sol:BlindBox",
						"label": "group4",
						"offset": 0,
						"slot": "8",
						"type": "t_array(t_string_storage)dyn_storage"
					},
					{
						"astId": 1112,
						"contract": "BuyBlindBoxNFT.sol:BlindBox",
						"label": "anotherContract",
						"offset": 0,
						"slot": "9",
						"type": "t_contract(AnotherContract)1053"
					}
				],
				"types": {
					"t_address": {
						"encoding": "inplace",
						"label": "address",
						"numberOfBytes": "20"
					},
					"t_array(t_string_storage)dyn_storage": {
						"base": "t_string_storage",
						"encoding": "dynamic_array",
						"label": "string[]",
						"numberOfBytes": "32"
					},
					"t_contract(AnotherContract)1053": {
						"encoding": "inplace",
						"label": "contract AnotherContract",
						"numberOfBytes": "20"
					},
					"t_contract(IERC20)77": {
						"encoding": "inplace",
						"label": "contract IERC20",
						"numberOfBytes": "20"
					},
					"t_string_storage": {
						"encoding": "bytes",
						"label": "string",
						"numberOfBytes": "32"
					},
					"t_uint256": {
						"encoding": "inplace",
						"label": "uint256",
						"numberOfBytes": "32"
					}
				}
			},
			"userdoc": {
				"kind": "user",
				"methods": {},
				"version": 1
			}
		}
	}
}