{
	"BuyBlindBoxNFT.sol": {
		"BlindBox": {
			"abi": [
				{
					"inputs": [
						{
							"internalType": "address",
							"name": "anotherContractAddress",
							"type": "address"
						},
						{
							"internalType": "address",
							"name": "_address1",
							"type": "address"
						},
						{
							"internalType": "address",
							"name": "_address2",
							"type": "address"
						}
					],
					"stateMutability": "nonpayable",
					"type": "constructor"
				},
				{
					"anonymous": false,
					"inputs": [
						{
							"indexed": true,
							"internalType": "address",
							"name": "from",
							"type": "address"
						},
						{
							"indexed": false,
							"internalType": "uint256",
							"name": "cardId",
							"type": "uint256"
						}
					],
					"name": "DrawCardEvent",
					"type": "event"
				},
				{
					"inputs": [],
					"name": "drawCard",
					"outputs": [],
					"stateMutability": "nonpayable",
					"type": "function"
				}
			],
			"devdoc": {
				"kind": "dev",
				"methods": {},
				"version": 1
			},
			"evm": {
				"assembly": "    /* \"BuyBlindBoxNFT.sol\":265:1872  contract BlindBox {... */\n  mstore(0x40, 0x80)\n    /* \"BuyBlindBoxNFT.sol\":365:472  string[] private group1 = [\"10001\",\"10002\",\"10003\",\"10004\",\"10005\",\"10006\",\"10007\",\"10008\",\"10009\",\"20001\"] */\n  mload(0x40)\n  dup1\n  0x0140\n  add\n  0x40\n  mstore\n  dup1\n  mload(0x40)\n  dup1\n  0x40\n  add\n  0x40\n  mstore\n  dup1\n  0x05\n  dup2\n  mstore\n  0x20\n  add\n  0x3130303031000000000000000000000000000000000000000000000000000000\n  dup2\n  mstore\n  pop\n  dup2\n  mstore\n  0x20\n  add\n  mload(0x40)\n  dup1\n  0x40\n  add\n  0x40\n  mstore\n  dup1\n  0x05\n  dup2\n  mstore\n  0x20\n  add\n  0x3130303032000000000000000000000000000000000000000000000000000000\n  dup2\n  mstore\n  pop\n  dup2\n  mstore\n  0x20\n  add\n  mload(0x40)\n  dup1\n  0x40\n  add\n  0x40\n  mstore\n  dup1\n  0x05\n  dup2\n  mstore\n  0x20\n  add\n  0x3130303033000000000000000000000000000000000000000000000000000000\n  dup2\n  mstore\n  pop\n  dup2\n  mstore\n  0x20\n  add\n  mload(0x40)\n  dup1\n  0x40\n  add\n  0x40\n  mstore\n  dup1\n  0x05\n  dup2\n  mstore\n  0x20\n  add\n  0x3130303034000000000000000000000000000000000000000000000000000000\n  dup2\n  mstore\n  pop\n  dup2\n  mstore\n  0x20\n  add\n  mload(0x40)\n  dup1\n  0x40\n  add\n  0x40\n  mstore\n  dup1\n  0x05\n  dup2\n  mstore\n  0x20\n  add\n  0x3130303035000000000000000000000000000000000000000000000000000000\n  dup2\n  mstore\n  pop\n  dup2\n  mstore\n  0x20\n  add\n  mload(0x40)\n  dup1\n  0x40\n  add\n  0x40\n  mstore\n  dup1\n  0x05\n  dup2\n  mstore\n  0x20\n  add\n  0x3130303036000000000000000000000000000000000000000000000000000000\n  dup2\n  mstore\n  pop\n  dup2\n  mstore\n  0x20\n  add\n  mload(0x40)\n  dup1\n  0x40\n  add\n  0x40\n  mstore\n  dup1\n  0x05\n  dup2\n  mstore\n  0x20\n  add\n  0x3130303037000000000000000000000000000000000000000000000000000000\n  dup2\n  mstore\n  pop\n  dup2\n  mstore\n  0x20\n  add\n  mload(0x40)\n  dup1\n  0x40\n  add\n  0x40\n  mstore\n  dup1\n  0x05\n  dup2\n  mstore\n  0x20\n  add\n  0x3130303038000000000000000000000000000000000000000000000000000000\n  dup2\n  mstore\n  pop\n  dup2\n  mstore\n  0x20\n  add\n  mload(0x40)\n  dup1\n  0x40\n  add\n  0x40\n  mstore\n  dup1\n  0x05\n  dup2\n  mstore\n  0x20\n  add\n  0x3130303039000000000000000000000000000000000000000000000000000000\n  dup2\n  mstore\n  pop\n  dup2\n  mstore\n  0x20\n  add\n  mload(0x40)\n  dup1\n  0x40\n  add\n  0x40\n  mstore\n  dup1\n  0x05\n  dup2\n  mstore\n  0x20\n  add\n  0x3230303031000000000000000000000000000000000000000000000000000000\n  dup2\n  mstore\n  pop\n  dup2\n  mstore\n  pop\n  0x02\n  swap1\n  0x0a\n  tag_1\n  swap3\n  swap2\n  swap1\n  tag_2\n  jump\t// in\ntag_1:\n  pop\n    /* \"BuyBlindBoxNFT.sol\":478:545  string[] private group2 = [\"20002\",\"20003\",\"20004\",\"20005\",\"20006\"] */\n  mload(0x40)\n  dup1\n  0xa0\n  add\n  0x40\n  mstore\n  dup1\n  mload(0x40)\n  dup1\n  0x40\n  add\n  0x40\n  mstore\n  dup1\n  0x05\n  dup2\n  mstore\n  0x20\n  add\n  0x3230303032000000000000000000000000000000000000000000000000000000\n  dup2\n  mstore\n  pop\n  dup2\n  mstore\n  0x20\n  add\n  mload(0x40)\n  dup1\n  0x40\n  add\n  0x40\n  mstore\n  dup1\n  0x05\n  dup2\n  mstore\n  0x20\n  add\n  0x3230303033000000000000000000000000000000000000000000000000000000\n  dup2\n  mstore\n  pop\n  dup2\n  mstore\n  0x20\n  add\n  mload(0x40)\n  dup1\n  0x40\n  add\n  0x40\n  mstore\n  dup1\n  0x05\n  dup2\n  mstore\n  0x20\n  add\n  0x3230303034000000000000000000000000000000000000000000000000000000\n  dup2\n  mstore\n  pop\n  dup2\n  mstore\n  0x20\n  add\n  mload(0x40)\n  dup1\n  0x40\n  add\n  0x40\n  mstore\n  dup1\n  0x05\n  dup2\n  mstore\n  0x20\n  add\n  0x3230303035000000000000000000000000000000000000000000000000000000\n  dup2\n  mstore\n  pop\n  dup2\n  mstore\n  0x20\n  add\n  mload(0x40)\n  dup1\n  0x40\n  add\n  0x40\n  mstore\n  dup1\n  0x05\n  dup2\n  mstore\n  0x20\n  add\n  0x3230303036000000000000000000000000000000000000000000000000000000\n  dup2\n  mstore\n  pop\n  dup2\n  mstore\n  pop\n  0x03\n  swap1\n  0x05\n  tag_3\n  swap3\n  swap2\n  swap1\n  tag_4\n  jump\t// in\ntag_3:\n  pop\n    /* \"BuyBlindBoxNFT.sol\":551:610  string[] private group3 = [\"30001\",\"30002\",\"30003\",\"30004\"] */\n  mload(0x40)\n  dup1\n  0x80\n  add\n  0x40\n  mstore\n  dup1\n  mload(0x40)\n  dup1\n  0x40\n  add\n  0x40\n  mstore\n  dup1\n  0x05\n  dup2\n  mstore\n  0x20\n  add\n  0x3330303031000000000000000000000000000000000000000000000000000000\n  dup2\n  mstore\n  pop\n  dup2\n  mstore\n  0x20\n  add\n  mload(0x40)\n  dup1\n  0x40\n  add\n  0x40\n  mstore\n  dup1\n  0x05\n  dup2\n  mstore\n  0x20\n  add\n  0x3330303032000000000000000000000000000000000000000000000000000000\n  dup2\n  mstore\n  pop\n  dup2\n  mstore\n  0x20\n  add\n  mload(0x40)\n  dup1\n  0x40\n  add\n  0x40\n  mstore\n  dup1\n  0x05\n  dup2\n  mstore\n  0x20\n  add\n  0x3330303033000000000000000000000000000000000000000000000000000000\n  dup2\n  mstore\n  pop\n  dup2\n  mstore\n  0x20\n  add\n  mload(0x40)\n  dup1\n  0x40\n  add\n  0x40\n  mstore\n  dup1\n  0x05\n  dup2\n  mstore\n  0x20\n  add\n  0x3330303034000000000000000000000000000000000000000000000000000000\n  dup2\n  mstore\n  pop\n  dup2\n  mstore\n  pop\n  0x04\n  swap1\n  0x04\n  tag_5\n  swap3\n  swap2\n  swap1\n  tag_6\n  jump\t// in\ntag_5:\n  pop\n    /* \"BuyBlindBoxNFT.sol\":616:667  string[] private group4 = [\"40001\",\"40002\",\"40003\"] */\n  mload(0x40)\n  dup1\n  0x60\n  add\n  0x40\n  mstore\n  dup1\n  mload(0x40)\n  dup1\n  0x40\n  add\n  0x40\n  mstore\n  dup1\n  0x05\n  dup2\n  mstore\n  0x20\n  add\n  0x3430303031000000000000000000000000000000000000000000000000000000\n  dup2\n  mstore\n  pop\n  dup2\n  mstore\n  0x20\n  add\n  mload(0x40)\n  dup1\n  0x40\n  add\n  0x40\n  mstore\n  dup1\n  0x05\n  dup2\n  mstore\n  0x20\n  add\n  0x3430303032000000000000000000000000000000000000000000000000000000\n  dup2\n  mstore\n  pop\n  dup2\n  mstore\n  0x20\n  add\n  mload(0x40)\n  dup1\n  0x40\n  add\n  0x40\n  mstore\n  dup1\n  0x05\n  dup2\n  mstore\n  0x20\n  add\n  0x3430303033000000000000000000000000000000000000000000000000000000\n  dup2\n  mstore\n  pop\n  dup2\n  mstore\n  pop\n  0x05\n  swap1\n  0x03\n  tag_7\n  swap3\n  swap2\n  swap1\n  tag_8\n  jump\t// in\ntag_7:\n  pop\n    /* \"BuyBlindBoxNFT.sol\":721:935  constructor(address anotherContractAddress,address _address1,address _address2) {... */\n  callvalue\n  dup1\n  iszero\n  tag_9\n  jumpi\n  0x00\n  dup1\n  revert\ntag_9:\n  pop\n  mload(0x40)\n  sub(codesize, bytecodeSize)\n  dup1\n  bytecodeSize\n  dup4\n  codecopy\n  dup2\n  dup2\n  add\n  0x40\n  mstore\n  dup2\n  add\n  swap1\n  tag_10\n  swap2\n  swap1\n  tag_11\n  jump\t// in\ntag_10:\n    /* \"BuyBlindBoxNFT.sol\":845:867  anotherContractAddress */\n  dup3\n    /* \"BuyBlindBoxNFT.sol\":811:826  anotherContract */\n  0x06\n  0x00\n    /* \"BuyBlindBoxNFT.sol\":811:868  anotherContract = AnotherContract(anotherContractAddress) */\n  0x0100\n  exp\n  dup2\n  sload\n  dup2\n  0xffffffffffffffffffffffffffffffffffffffff\n  mul\n  not\n  and\n  swap1\n  dup4\n  0xffffffffffffffffffffffffffffffffffffffff\n  and\n  mul\n  or\n  swap1\n  sstore\n  pop\n    /* \"BuyBlindBoxNFT.sol\":889:898  _address1 */\n  dup2\n    /* \"BuyBlindBoxNFT.sol\":878:886  address1 */\n  0x00\n  dup1\n    /* \"BuyBlindBoxNFT.sol\":878:898  address1 = _address1 */\n  0x0100\n  exp\n  dup2\n  sload\n  dup2\n  0xffffffffffffffffffffffffffffffffffffffff\n  mul\n  not\n  and\n  swap1\n  dup4\n  0xffffffffffffffffffffffffffffffffffffffff\n  and\n  mul\n  or\n  swap1\n  sstore\n  pop\n    /* \"BuyBlindBoxNFT.sol\":919:928  _address1 */\n  dup2\n    /* \"BuyBlindBoxNFT.sol\":908:916  address2 */\n  0x01\n  0x00\n    /* \"BuyBlindBoxNFT.sol\":908:928  address2 = _address1 */\n  0x0100\n  exp\n  dup2\n  sload\n  dup2\n  0xffffffffffffffffffffffffffffffffffffffff\n  mul\n  not\n  and\n  swap1\n  dup4\n  0xffffffffffffffffffffffffffffffffffffffff\n  and\n  mul\n  or\n  swap1\n  sstore\n  pop\n    /* \"BuyBlindBoxNFT.sol\":721:935  constructor(address anotherContractAddress,address _address1,address _address2) {... */\n  pop\n  pop\n  pop\n    /* \"BuyBlindBoxNFT.sol\":265:1872  contract BlindBox {... */\n  jump(tag_14)\ntag_2:\n  dup3\n  dup1\n  sload\n  dup3\n  dup3\n  sstore\n  swap1\n  0x00\n  mstore\n  keccak256(0x00, 0x20)\n  swap1\n  dup2\n  add\n  swap3\n  dup3\n  iszero\n  tag_15\n  jumpi\n  swap2\n  0x20\n  mul\n  dup3\n  add\ntag_16:\n  dup3\n  dup2\n  gt\n  iszero\n  tag_17\n  jumpi\n  dup3\n  mload\n  dup3\n  swap1\n  dup2\n  tag_18\n  swap2\n  swap1\n  tag_19\n  jump\t// in\ntag_18:\n  pop\n  swap2\n  0x20\n  add\n  swap2\n  swap1\n  0x01\n  add\n  swap1\n  jump(tag_16)\ntag_17:\ntag_15:\n  pop\n  swap1\n  pop\n  tag_20\n  swap2\n  swap1\n  tag_21\n  jump\t// in\ntag_20:\n  pop\n  swap1\n  jump\t// out\ntag_4:\n  dup3\n  dup1\n  sload\n  dup3\n  dup3\n  sstore\n  swap1\n  0x00\n  mstore\n  keccak256(0x00, 0x20)\n  swap1\n  dup2\n  add\n  swap3\n  dup3\n  iszero\n  tag_22\n  jumpi\n  swap2\n  0x20\n  mul\n  dup3\n  add\ntag_23:\n  dup3\n  dup2\n  gt\n  iszero\n  tag_24\n  jumpi\n  dup3\n  mload\n  dup3\n  swap1\n  dup2\n  tag_25\n  swap2\n  swap1\n  tag_19\n  jump\t// in\ntag_25:\n  pop\n  swap2\n  0x20\n  add\n  swap2\n  swap1\n  0x01\n  add\n  swap1\n  jump(tag_23)\ntag_24:\ntag_22:\n  pop\n  swap1\n  pop\n  tag_26\n  swap2\n  swap1\n  tag_21\n  jump\t// in\ntag_26:\n  pop\n  swap1\n  jump\t// out\ntag_6:\n  dup3\n  dup1\n  sload\n  dup3\n  dup3\n  sstore\n  swap1\n  0x00\n  mstore\n  keccak256(0x00, 0x20)\n  swap1\n  dup2\n  add\n  swap3\n  dup3\n  iszero\n  tag_27\n  jumpi\n  swap2\n  0x20\n  mul\n  dup3\n  add\ntag_28:\n  dup3\n  dup2\n  gt\n  iszero\n  tag_29\n  jumpi\n  dup3\n  mload\n  dup3\n  swap1\n  dup2\n  tag_30\n  swap2\n  swap1\n  tag_19\n  jump\t// in\ntag_30:\n  pop\n  swap2\n  0x20\n  add\n  swap2\n  swap1\n  0x01\n  add\n  swap1\n  jump(tag_28)\ntag_29:\ntag_27:\n  pop\n  swap1\n  pop\n  tag_31\n  swap2\n  swap1\n  tag_21\n  jump\t// in\ntag_31:\n  pop\n  swap1\n  jump\t// out\ntag_8:\n  dup3\n  dup1\n  sload\n  dup3\n  dup3\n  sstore\n  swap1\n  0x00\n  mstore\n  keccak256(0x00, 0x20)\n  swap1\n  dup2\n  add\n  swap3\n  dup3\n  iszero\n  tag_32\n  jumpi\n  swap2\n  0x20\n  mul\n  dup3\n  add\ntag_33:\n  dup3\n  dup2\n  gt\n  iszero\n  tag_34\n  jumpi\n  dup3\n  mload\n  dup3\n  swap1\n  dup2\n  tag_35\n  swap2\n  swap1\n  tag_19\n  jump\t// in\ntag_35:\n  pop\n  swap2\n  0x20\n  add\n  swap2\n  swap1\n  0x01\n  add\n  swap1\n  jump(tag_33)\ntag_34:\ntag_32:\n  pop\n  swap1\n  pop\n  tag_36\n  swap2\n  swap1\n  tag_21\n  jump\t// in\ntag_36:\n  pop\n  swap1\n  jump\t// out\ntag_21:\ntag_37:\n  dup1\n  dup3\n  gt\n  iszero\n  tag_38\n  jumpi\n  0x00\n  dup2\n  dup2\n  tag_39\n  swap2\n  swap1\n  tag_40\n  jump\t// in\ntag_39:\n  pop\n  0x01\n  add\n  jump(tag_37)\ntag_38:\n  pop\n  swap1\n  jump\t// out\ntag_40:\n  pop\n  dup1\n  sload\n  tag_41\n  swap1\n  tag_42\n  jump\t// in\ntag_41:\n  0x00\n  dup3\n  sstore\n  dup1\n  0x1f\n  lt\n  tag_44\n  jumpi\n  pop\n  jump(tag_43)\ntag_44:\n  0x1f\n  add\n  0x20\n  swap1\n  div\n  swap1\n  0x00\n  mstore\n  keccak256(0x00, 0x20)\n  swap1\n  dup2\n  add\n  swap1\n  tag_45\n  swap2\n  swap1\n  tag_46\n  jump\t// in\ntag_45:\ntag_43:\n  pop\n  jump\t// out\ntag_46:\ntag_47:\n  dup1\n  dup3\n  gt\n  iszero\n  tag_48\n  jumpi\n  0x00\n  dup2\n  0x00\n  swap1\n  sstore\n  pop\n  0x01\n  add\n  jump(tag_47)\ntag_48:\n  pop\n  swap1\n  jump\t// out\n    /* \"#utility.yul\":88:205   */\ntag_50:\n    /* \"#utility.yul\":197:198   */\n  0x00\n    /* \"#utility.yul\":194:195   */\n  dup1\n    /* \"#utility.yul\":187:199   */\n  revert\n    /* \"#utility.yul\":334:460   */\ntag_52:\n    /* \"#utility.yul\":371:378   */\n  0x00\n    /* \"#utility.yul\":411:453   */\n  0xffffffffffffffffffffffffffffffffffffffff\n    /* \"#utility.yul\":404:409   */\n  dup3\n    /* \"#utility.yul\":400:454   */\n  and\n    /* \"#utility.yul\":389:454   */\n  swap1\n  pop\n    /* \"#utility.yul\":334:460   */\n  swap2\n  swap1\n  pop\n  jump\t// out\n    /* \"#utility.yul\":466:562   */\ntag_53:\n    /* \"#utility.yul\":503:510   */\n  0x00\n    /* \"#utility.yul\":532:556   */\n  tag_81\n    /* \"#utility.yul\":550:555   */\n  dup3\n    /* \"#utility.yul\":532:556   */\n  tag_52\n  jump\t// in\ntag_81:\n    /* \"#utility.yul\":521:556   */\n  swap1\n  pop\n    /* \"#utility.yul\":466:562   */\n  swap2\n  swap1\n  pop\n  jump\t// out\n    /* \"#utility.yul\":568:690   */\ntag_54:\n    /* \"#utility.yul\":641:665   */\n  tag_83\n    /* \"#utility.yul\":659:664   */\n  dup2\n    /* \"#utility.yul\":641:665   */\n  tag_53\n  jump\t// in\ntag_83:\n    /* \"#utility.yul\":634:639   */\n  dup2\n    /* \"#utility.yul\":631:666   */\n  eq\n    /* \"#utility.yul\":621:684   */\n  tag_84\n  jumpi\n    /* \"#utility.yul\":680:681   */\n  0x00\n    /* \"#utility.yul\":677:678   */\n  dup1\n    /* \"#utility.yul\":670:682   */\n  revert\n    /* \"#utility.yul\":621:684   */\ntag_84:\n    /* \"#utility.yul\":568:690   */\n  pop\n  jump\t// out\n    /* \"#utility.yul\":696:839   */\ntag_55:\n    /* \"#utility.yul\":753:758   */\n  0x00\n    /* \"#utility.yul\":784:790   */\n  dup2\n    /* \"#utility.yul\":778:791   */\n  mload\n    /* \"#utility.yul\":769:791   */\n  swap1\n  pop\n    /* \"#utility.yul\":800:833   */\n  tag_86\n    /* \"#utility.yul\":827:832   */\n  dup2\n    /* \"#utility.yul\":800:833   */\n  tag_54\n  jump\t// in\ntag_86:\n    /* \"#utility.yul\":696:839   */\n  swap3\n  swap2\n  pop\n  pop\n  jump\t// out\n    /* \"#utility.yul\":845:1508   */\ntag_11:\n    /* \"#utility.yul\":933:939   */\n  0x00\n    /* \"#utility.yul\":941:947   */\n  dup1\n    /* \"#utility.yul\":949:955   */\n  0x00\n    /* \"#utility.yul\":998:1000   */\n  0x60\n    /* \"#utility.yul\":986:995   */\n  dup5\n    /* \"#utility.yul\":977:984   */\n  dup7\n    /* \"#utility.yul\":973:996   */\n  sub\n    /* \"#utility.yul\":969:1001   */\n  slt\n    /* \"#utility.yul\":966:1085   */\n  iszero\n  tag_88\n  jumpi\n    /* \"#utility.yul\":1004:1083   */\n  tag_89\n  tag_50\n  jump\t// in\ntag_89:\n    /* \"#utility.yul\":966:1085   */\ntag_88:\n    /* \"#utility.yul\":1124:1125   */\n  0x00\n    /* \"#utility.yul\":1149:1213   */\n  tag_90\n    /* \"#utility.yul\":1205:1212   */\n  dup7\n    /* \"#utility.yul\":1196:1202   */\n  dup3\n    /* \"#utility.yul\":1185:1194   */\n  dup8\n    /* \"#utility.yul\":1181:1203   */\n  add\n    /* \"#utility.yul\":1149:1213   */\n  tag_55\n  jump\t// in\ntag_90:\n    /* \"#utility.yul\":1139:1213   */\n  swap4\n  pop\n    /* \"#utility.yul\":1095:1223   */\n  pop\n    /* \"#utility.yul\":1262:1264   */\n  0x20\n    /* \"#utility.yul\":1288:1352   */\n  tag_91\n    /* \"#utility.yul\":1344:1351   */\n  dup7\n    /* \"#utility.yul\":1335:1341   */\n  dup3\n    /* \"#utility.yul\":1324:1333   */\n  dup8\n    /* \"#utility.yul\":1320:1342   */\n  add\n    /* \"#utility.yul\":1288:1352   */\n  tag_55\n  jump\t// in\ntag_91:\n    /* \"#utility.yul\":1278:1352   */\n  swap3\n  pop\n    /* \"#utility.yul\":1233:1362   */\n  pop\n    /* \"#utility.yul\":1401:1403   */\n  0x40\n    /* \"#utility.yul\":1427:1491   */\n  tag_92\n    /* \"#utility.yul\":1483:1490   */\n  dup7\n    /* \"#utility.yul\":1474:1480   */\n  dup3\n    /* \"#utility.yul\":1463:1472   */\n  dup8\n    /* \"#utility.yul\":1459:1481   */\n  add\n    /* \"#utility.yul\":1427:1491   */\n  tag_55\n  jump\t// in\ntag_92:\n    /* \"#utility.yul\":1417:1491   */\n  swap2\n  pop\n    /* \"#utility.yul\":1372:1501   */\n  pop\n    /* \"#utility.yul\":845:1508   */\n  swap3\n  pop\n  swap3\n  pop\n  swap3\n  jump\t// out\n    /* \"#utility.yul\":1514:1613   */\ntag_56:\n    /* \"#utility.yul\":1566:1572   */\n  0x00\n    /* \"#utility.yul\":1600:1605   */\n  dup2\n    /* \"#utility.yul\":1594:1606   */\n  mload\n    /* \"#utility.yul\":1584:1606   */\n  swap1\n  pop\n    /* \"#utility.yul\":1514:1613   */\n  swap2\n  swap1\n  pop\n  jump\t// out\n    /* \"#utility.yul\":1619:1799   */\ntag_57:\n    /* \"#utility.yul\":1667:1744   */\n  0x4e487b7100000000000000000000000000000000000000000000000000000000\n    /* \"#utility.yul\":1664:1665   */\n  0x00\n    /* \"#utility.yul\":1657:1745   */\n  mstore\n    /* \"#utility.yul\":1764:1768   */\n  0x41\n    /* \"#utility.yul\":1761:1762   */\n  0x04\n    /* \"#utility.yul\":1754:1769   */\n  mstore\n    /* \"#utility.yul\":1788:1792   */\n  0x24\n    /* \"#utility.yul\":1785:1786   */\n  0x00\n    /* \"#utility.yul\":1778:1793   */\n  revert\n    /* \"#utility.yul\":1805:1985   */\ntag_58:\n    /* \"#utility.yul\":1853:1930   */\n  0x4e487b7100000000000000000000000000000000000000000000000000000000\n    /* \"#utility.yul\":1850:1851   */\n  0x00\n    /* \"#utility.yul\":1843:1931   */\n  mstore\n    /* \"#utility.yul\":1950:1954   */\n  0x22\n    /* \"#utility.yul\":1947:1948   */\n  0x04\n    /* \"#utility.yul\":1940:1955   */\n  mstore\n    /* \"#utility.yul\":1974:1978   */\n  0x24\n    /* \"#utility.yul\":1971:1972   */\n  0x00\n    /* \"#utility.yul\":1964:1979   */\n  revert\n    /* \"#utility.yul\":1991:2311   */\ntag_42:\n    /* \"#utility.yul\":2035:2041   */\n  0x00\n    /* \"#utility.yul\":2072:2073   */\n  0x02\n    /* \"#utility.yul\":2066:2070   */\n  dup3\n    /* \"#utility.yul\":2062:2074   */\n  div\n    /* \"#utility.yul\":2052:2074   */\n  swap1\n  pop\n    /* \"#utility.yul\":2119:2120   */\n  0x01\n    /* \"#utility.yul\":2113:2117   */\n  dup3\n    /* \"#utility.yul\":2109:2121   */\n  and\n    /* \"#utility.yul\":2140:2158   */\n  dup1\n    /* \"#utility.yul\":2130:2211   */\n  tag_97\n  jumpi\n    /* \"#utility.yul\":2196:2200   */\n  0x7f\n    /* \"#utility.yul\":2188:2194   */\n  dup3\n    /* \"#utility.yul\":2184:2201   */\n  and\n    /* \"#utility.yul\":2174:2201   */\n  swap2\n  pop\n    /* \"#utility.yul\":2130:2211   */\ntag_97:\n    /* \"#utility.yul\":2258:2260   */\n  0x20\n    /* \"#utility.yul\":2250:2256   */\n  dup3\n    /* \"#utility.yul\":2247:2261   */\n  lt\n    /* \"#utility.yul\":2227:2245   */\n  dup2\n    /* \"#utility.yul\":2224:2262   */\n  sub\n    /* \"#utility.yul\":2221:2305   */\n  tag_98\n  jumpi\n    /* \"#utility.yul\":2277:2295   */\n  tag_99\n  tag_58\n  jump\t// in\ntag_99:\n    /* \"#utility.yul\":2221:2305   */\ntag_98:\n    /* \"#utility.yul\":2042:2311   */\n  pop\n    /* \"#utility.yul\":1991:2311   */\n  swap2\n  swap1\n  pop\n  jump\t// out\n    /* \"#utility.yul\":2317:2458   */\ntag_59:\n    /* \"#utility.yul\":2366:2370   */\n  0x00\n    /* \"#utility.yul\":2389:2392   */\n  dup2\n    /* \"#utility.yul\":2381:2392   */\n  swap1\n  pop\n    /* \"#utility.yul\":2412:2415   */\n  dup2\n    /* \"#utility.yul\":2409:2410   */\n  0x00\n    /* \"#utility.yul\":2402:2416   */\n  mstore\n    /* \"#utility.yul\":2446:2450   */\n  0x20\n    /* \"#utility.yul\":2443:2444   */\n  0x00\n    /* \"#utility.yul\":2433:2451   */\n  keccak256\n    /* \"#utility.yul\":2425:2451   */\n  swap1\n  pop\n    /* \"#utility.yul\":2317:2458   */\n  swap2\n  swap1\n  pop\n  jump\t// out\n    /* \"#utility.yul\":2464:2557   */\ntag_60:\n    /* \"#utility.yul\":2501:2507   */\n  0x00\n    /* \"#utility.yul\":2548:2550   */\n  0x20\n    /* \"#utility.yul\":2543:2545   */\n  0x1f\n    /* \"#utility.yul\":2536:2541   */\n  dup4\n    /* \"#utility.yul\":2532:2546   */\n  add\n    /* \"#utility.yul\":2528:2551   */\n  div\n    /* \"#utility.yul\":2518:2551   */\n  swap1\n  pop\n    /* \"#utility.yul\":2464:2557   */\n  swap2\n  swap1\n  pop\n  jump\t// out\n    /* \"#utility.yul\":2563:2670   */\ntag_61:\n    /* \"#utility.yul\":2607:2615   */\n  0x00\n    /* \"#utility.yul\":2657:2662   */\n  dup3\n    /* \"#utility.yul\":2651:2655   */\n  dup3\n    /* \"#utility.yul\":2647:2663   */\n  shl\n    /* \"#utility.yul\":2626:2663   */\n  swap1\n  pop\n    /* \"#utility.yul\":2563:2670   */\n  swap3\n  swap2\n  pop\n  pop\n  jump\t// out\n    /* \"#utility.yul\":2676:3069   */\ntag_62:\n    /* \"#utility.yul\":2745:2751   */\n  0x00\n    /* \"#utility.yul\":2795:2796   */\n  0x08\n    /* \"#utility.yul\":2783:2793   */\n  dup4\n    /* \"#utility.yul\":2779:2797   */\n  mul\n    /* \"#utility.yul\":2818:2915   */\n  tag_104\n    /* \"#utility.yul\":2848:2914   */\n  0xffffffffffffffffffffffffffffffffffffffffffffffffffffffffffffffff\n    /* \"#utility.yul\":2837:2846   */\n  dup3\n    /* \"#utility.yul\":2818:2915   */\n  tag_61\n  jump\t// in\ntag_104:\n    /* \"#utility.yul\":2936:2975   */\n  tag_105\n    /* \"#utility.yul\":2966:2974   */\n  dup7\n    /* \"#utility.yul\":2955:2964   */\n  dup4\n    /* \"#utility.yul\":2936:2975   */\n  tag_61\n  jump\t// in\ntag_105:\n    /* \"#utility.yul\":2924:2975   */\n  swap6\n  pop\n    /* \"#utility.yul\":3008:3012   */\n  dup1\n    /* \"#utility.yul\":3004:3013   */\n  not\n    /* \"#utility.yul\":2997:3002   */\n  dup5\n    /* \"#utility.yul\":2993:3014   */\n  and\n    /* \"#utility.yul\":2984:3014   */\n  swap4\n  pop\n    /* \"#utility.yul\":3057:3061   */\n  dup1\n    /* \"#utility.yul\":3047:3055   */\n  dup7\n    /* \"#utility.yul\":3043:3062   */\n  and\n    /* \"#utility.yul\":3036:3041   */\n  dup5\n    /* \"#utility.yul\":3033:3063   */\n  or\n    /* \"#utility.yul\":3023:3063   */\n  swap3\n  pop\n    /* \"#utility.yul\":2752:3069   */\n  pop\n  pop\n    /* \"#utility.yul\":2676:3069   */\n  swap4\n  swap3\n  pop\n  pop\n  pop\n  jump\t// out\n    /* \"#utility.yul\":3075:3152   */\ntag_63:\n    /* \"#utility.yul\":3112:3119   */\n  0x00\n    /* \"#utility.yul\":3141:3146   */\n  dup2\n    /* \"#utility.yul\":3130:3146   */\n  swap1\n  pop\n    /* \"#utility.yul\":3075:3152   */\n  swap2\n  swap1\n  pop\n  jump\t// out\n    /* \"#utility.yul\":3158:3218   */\ntag_64:\n    /* \"#utility.yul\":3186:3189   */\n  0x00\n    /* \"#utility.yul\":3207:3212   */\n  dup2\n    /* \"#utility.yul\":3200:3212   */\n  swap1\n  pop\n    /* \"#utility.yul\":3158:3218   */\n  swap2\n  swap1\n  pop\n  jump\t// out\n    /* \"#utility.yul\":3224:3366   */\ntag_65:\n    /* \"#utility.yul\":3274:3283   */\n  0x00\n    /* \"#utility.yul\":3307:3360   */\n  tag_109\n    /* \"#utility.yul\":3325:3359   */\n  tag_110\n    /* \"#utility.yul\":3334:3358   */\n  tag_111\n    /* \"#utility.yul\":3352:3357   */\n  dup5\n    /* \"#utility.yul\":3334:3358   */\n  tag_63\n  jump\t// in\ntag_111:\n    /* \"#utility.yul\":3325:3359   */\n  tag_64\n  jump\t// in\ntag_110:\n    /* \"#utility.yul\":3307:3360   */\n  tag_63\n  jump\t// in\ntag_109:\n    /* \"#utility.yul\":3294:3360   */\n  swap1\n  pop\n    /* \"#utility.yul\":3224:3366   */\n  swap2\n  swap1\n  pop\n  jump\t// out\n    /* \"#utility.yul\":3372:3447   */\ntag_66:\n    /* \"#utility.yul\":3415:3418   */\n  0x00\n    /* \"#utility.yul\":3436:3441   */\n  dup2\n    /* \"#utility.yul\":3429:3441   */\n  swap1\n  pop\n    /* \"#utility.yul\":3372:3447   */\n  swap2\n  swap1\n  pop\n  jump\t// out\n    /* \"#utility.yul\":3453:3722   */\ntag_67:\n    /* \"#utility.yul\":3563:3602   */\n  tag_114\n    /* \"#utility.yul\":3594:3601   */\n  dup4\n    /* \"#utility.yul\":3563:3602   */\n  tag_65\n  jump\t// in\ntag_114:\n    /* \"#utility.yul\":3624:3715   */\n  tag_115\n    /* \"#utility.yul\":3673:3714   */\n  tag_116\n    /* \"#utility.yul\":3697:3713   */\n  dup3\n    /* \"#utility.yul\":3673:3714   */\n  tag_66\n  jump\t// in\ntag_116:\n    /* \"#utility.yul\":3665:3671   */\n  dup5\n    /* \"#utility.yul\":3658:3662   */\n  dup5\n    /* \"#utility.yul\":3652:3663   */\n  sload\n    /* \"#utility.yul\":3624:3715   */\n  tag_62\n  jump\t// in\ntag_115:\n    /* \"#utility.yul\":3618:3622   */\n  dup3\n    /* \"#utility.yul\":3611:3716   */\n  sstore\n    /* \"#utility.yul\":3529:3722   */\n  pop\n    /* \"#utility.yul\":3453:3722   */\n  pop\n  pop\n  pop\n  jump\t// out\n    /* \"#utility.yul\":3728:3801   */\ntag_68:\n    /* \"#utility.yul\":3773:3776   */\n  0x00\n    /* \"#utility.yul\":3728:3801   */\n  swap1\n  jump\t// out\n    /* \"#utility.yul\":3807:3996   */\ntag_69:\n    /* \"#utility.yul\":3884:3916   */\n  tag_119\n  tag_68\n  jump\t// in\ntag_119:\n    /* \"#utility.yul\":3925:3990   */\n  tag_120\n    /* \"#utility.yul\":3983:3989   */\n  dup2\n    /* \"#utility.yul\":3975:3981   */\n  dup5\n    /* \"#utility.yul\":3969:3973   */\n  dup5\n    /* \"#utility.yul\":3925:3990   */\n  tag_67\n  jump\t// in\ntag_120:\n    /* \"#utility.yul\":3860:3996   */\n  pop\n    /* \"#utility.yul\":3807:3996   */\n  pop\n  pop\n  jump\t// out\n    /* \"#utility.yul\":4002:4188   */\ntag_70:\n    /* \"#utility.yul\":4062:4182   */\ntag_122:\n    /* \"#utility.yul\":4079:4082   */\n  dup2\n    /* \"#utility.yul\":4072:4077   */\n  dup2\n    /* \"#utility.yul\":4069:4083   */\n  lt\n    /* \"#utility.yul\":4062:4182   */\n  iszero\n  tag_124\n  jumpi\n    /* \"#utility.yul\":4133:4172   */\n  tag_125\n    /* \"#utility.yul\":4170:4171   */\n  0x00\n    /* \"#utility.yul\":4163:4168   */\n  dup3\n    /* \"#utility.yul\":4133:4172   */\n  tag_69\n  jump\t// in\ntag_125:\n    /* \"#utility.yul\":4106:4107   */\n  0x01\n    /* \"#utility.yul\":4099:4104   */\n  dup2\n    /* \"#utility.yul\":4095:4108   */\n  add\n    /* \"#utility.yul\":4086:4108   */\n  swap1\n  pop\n    /* \"#utility.yul\":4062:4182   */\n  jump(tag_122)\ntag_124:\n    /* \"#utility.yul\":4002:4188   */\n  pop\n  pop\n  jump\t// out\n    /* \"#utility.yul\":4194:4737   */\ntag_71:\n    /* \"#utility.yul\":4295:4297   */\n  0x1f\n    /* \"#utility.yul\":4290:4293   */\n  dup3\n    /* \"#utility.yul\":4287:4298   */\n  gt\n    /* \"#utility.yul\":4284:4730   */\n  iszero\n  tag_127\n  jumpi\n    /* \"#utility.yul\":4329:4367   */\n  tag_128\n    /* \"#utility.yul\":4361:4366   */\n  dup2\n    /* \"#utility.yul\":4329:4367   */\n  tag_59\n  jump\t// in\ntag_128:\n    /* \"#utility.yul\":4413:4442   */\n  tag_129\n    /* \"#utility.yul\":4431:4441   */\n  dup5\n    /* \"#utility.yul\":4413:4442   */\n  tag_60\n  jump\t// in\ntag_129:\n    /* \"#utility.yul\":4403:4411   */\n  dup2\n    /* \"#utility.yul\":4399:4443   */\n  add\n    /* \"#utility.yul\":4596:4598   */\n  0x20\n    /* \"#utility.yul\":4584:4594   */\n  dup6\n    /* \"#utility.yul\":4581:4599   */\n  lt\n    /* \"#utility.yul\":4578:4627   */\n  iszero\n  tag_130\n  jumpi\n    /* \"#utility.yul\":4617:4625   */\n  dup2\n    /* \"#utility.yul\":4602:4625   */\n  swap1\n  pop\n    /* \"#utility.yul\":4578:4627   */\ntag_130:\n    /* \"#utility.yul\":4640:4720   */\n  tag_131\n    /* \"#utility.yul\":4696:4718   */\n  tag_132\n    /* \"#utility.yul\":4714:4717   */\n  dup6\n    /* \"#utility.yul\":4696:4718   */\n  tag_60\n  jump\t// in\ntag_132:\n    /* \"#utility.yul\":4686:4694   */\n  dup4\n    /* \"#utility.yul\":4682:4719   */\n  add\n    /* \"#utility.yul\":4669:4680   */\n  dup3\n    /* \"#utility.yul\":4640:4720   */\n  tag_70\n  jump\t// in\ntag_131:\n    /* \"#utility.yul\":4299:4730   */\n  pop\n  pop\n    /* \"#utility.yul\":4284:4730   */\ntag_127:\n    /* \"#utility.yul\":4194:4737   */\n  pop\n  pop\n  pop\n  jump\t// out\n    /* \"#utility.yul\":4743:4860   */\ntag_72:\n    /* \"#utility.yul\":4797:4805   */\n  0x00\n    /* \"#utility.yul\":4847:4852   */\n  dup3\n    /* \"#utility.yul\":4841:4845   */\n  dup3\n    /* \"#utility.yul\":4837:4853   */\n  shr\n    /* \"#utility.yul\":4816:4853   */\n  swap1\n  pop\n    /* \"#utility.yul\":4743:4860   */\n  swap3\n  swap2\n  pop\n  pop\n  jump\t// out\n    /* \"#utility.yul\":4866:5035   */\ntag_73:\n    /* \"#utility.yul\":4910:4916   */\n  0x00\n    /* \"#utility.yul\":4943:4994   */\n  tag_135\n    /* \"#utility.yul\":4991:4992   */\n  0x00\n    /* \"#utility.yul\":4987:4993   */\n  not\n    /* \"#utility.yul\":4979:4984   */\n  dup5\n    /* \"#utility.yul\":4976:4977   */\n  0x08\n    /* \"#utility.yul\":4972:4985   */\n  mul\n    /* \"#utility.yul\":4943:4994   */\n  tag_72\n  jump\t// in\ntag_135:\n    /* \"#utility.yul\":4939:4995   */\n  not\n    /* \"#utility.yul\":5024:5028   */\n  dup1\n    /* \"#utility.yul\":5018:5022   */\n  dup4\n    /* \"#utility.yul\":5014:5029   */\n  and\n    /* \"#utility.yul\":5004:5029   */\n  swap2\n  pop\n    /* \"#utility.yul\":4917:5035   */\n  pop\n    /* \"#utility.yul\":4866:5035   */\n  swap3\n  swap2\n  pop\n  pop\n  jump\t// out\n    /* \"#utility.yul\":5040:5335   */\ntag_74:\n    /* \"#utility.yul\":5116:5120   */\n  0x00\n    /* \"#utility.yul\":5262:5291   */\n  tag_137\n    /* \"#utility.yul\":5287:5290   */\n  dup4\n    /* \"#utility.yul\":5281:5285   */\n  dup4\n    /* \"#utility.yul\":5262:5291   */\n  tag_73\n  jump\t// in\ntag_137:\n    /* \"#utility.yul\":5254:5291   */\n  swap2\n  pop\n    /* \"#utility.yul\":5324:5327   */\n  dup3\n    /* \"#utility.yul\":5321:5322   */\n  0x02\n    /* \"#utility.yul\":5317:5328   */\n  mul\n    /* \"#utility.yul\":5311:5315   */\n  dup3\n    /* \"#utility.yul\":5308:5329   */\n  or\n    /* \"#utility.yul\":5300:5329   */\n  swap1\n  pop\n    /* \"#utility.yul\":5040:5335   */\n  swap3\n  swap2\n  pop\n  pop\n  jump\t// out\n    /* \"#utility.yul\":5340:6735   */\ntag_19:\n    /* \"#utility.yul\":5457:5494   */\n  tag_139\n    /* \"#utility.yul\":5490:5493   */\n  dup3\n    /* \"#utility.yul\":5457:5494   */\n  tag_56\n  jump\t// in\ntag_139:\n    /* \"#utility.yul\":5559:5577   */\n  0xffffffffffffffff\n    /* \"#utility.yul\":5551:5557   */\n  dup2\n    /* \"#utility.yul\":5548:5578   */\n  gt\n    /* \"#utility.yul\":5545:5601   */\n  iszero\n  tag_140\n  jumpi\n    /* \"#utility.yul\":5581:5599   */\n  tag_141\n  tag_57\n  jump\t// in\ntag_141:\n    /* \"#utility.yul\":5545:5601   */\ntag_140:\n    /* \"#utility.yul\":5625:5663   */\n  tag_142\n    /* \"#utility.yul\":5657:5661   */\n  dup3\n    /* \"#utility.yul\":5651:5662   */\n  sload\n    /* \"#utility.yul\":5625:5663   */\n  tag_42\n  jump\t// in\ntag_142:\n    /* \"#utility.yul\":5710:5777   */\n  tag_143\n    /* \"#utility.yul\":5770:5776   */\n  dup3\n    /* \"#utility.yul\":5762:5768   */\n  dup3\n    /* \"#utility.yul\":5756:5760   */\n  dup6\n    /* \"#utility.yul\":5710:5777   */\n  tag_71\n  jump\t// in\ntag_143:\n    /* \"#utility.yul\":5804:5805   */\n  0x00\n    /* \"#utility.yul\":5828:5832   */\n  0x20\n    /* \"#utility.yul\":5815:5832   */\n  swap1\n  pop\n    /* \"#utility.yul\":5860:5862   */\n  0x1f\n    /* \"#utility.yul\":5852:5858   */\n  dup4\n    /* \"#utility.yul\":5849:5863   */\n  gt\n    /* \"#utility.yul\":5877:5878   */\n  0x01\n    /* \"#utility.yul\":5872:6490   */\n  dup2\n  eq\n  tag_145\n  jumpi\n    /* \"#utility.yul\":6534:6535   */\n  0x00\n    /* \"#utility.yul\":6551:6557   */\n  dup5\n    /* \"#utility.yul\":6548:6625   */\n  iszero\n  tag_146\n  jumpi\n    /* \"#utility.yul\":6600:6609   */\n  dup3\n    /* \"#utility.yul\":6595:6598   */\n  dup8\n    /* \"#utility.yul\":6591:6610   */\n  add\n    /* \"#utility.yul\":6585:6611   */\n  mload\n    /* \"#utility.yul\":6576:6611   */\n  swap1\n  pop\n    /* \"#utility.yul\":6548:6625   */\ntag_146:\n    /* \"#utility.yul\":6651:6718   */\n  tag_147\n    /* \"#utility.yul\":6711:6717   */\n  dup6\n    /* \"#utility.yul\":6704:6709   */\n  dup3\n    /* \"#utility.yul\":6651:6718   */\n  tag_74\n  jump\t// in\ntag_147:\n    /* \"#utility.yul\":6645:6649   */\n  dup7\n    /* \"#utility.yul\":6638:6719   */\n  sstore\n    /* \"#utility.yul\":6507:6729   */\n  pop\n    /* \"#utility.yul\":5842:6729   */\n  jump(tag_144)\n    /* \"#utility.yul\":5872:6490   */\ntag_145:\n    /* \"#utility.yul\":5924:5928   */\n  0x1f\n    /* \"#utility.yul\":5920:5929   */\n  not\n    /* \"#utility.yul\":5912:5918   */\n  dup5\n    /* \"#utility.yul\":5908:5930   */\n  and\n    /* \"#utility.yul\":5958:5995   */\n  tag_148\n    /* \"#utility.yul\":5990:5994   */\n  dup7\n    /* \"#utility.yul\":5958:5995   */\n  tag_59\n  jump\t// in\ntag_148:\n    /* \"#utility.yul\":6017:6018   */\n  0x00\n    /* \"#utility.yul\":6031:6239   */\ntag_149:\n    /* \"#utility.yul\":6045:6052   */\n  dup3\n    /* \"#utility.yul\":6042:6043   */\n  dup2\n    /* \"#utility.yul\":6039:6053   */\n  lt\n    /* \"#utility.yul\":6031:6239   */\n  iszero\n  tag_151\n  jumpi\n    /* \"#utility.yul\":6124:6133   */\n  dup5\n    /* \"#utility.yul\":6119:6122   */\n  dup10\n    /* \"#utility.yul\":6115:6134   */\n  add\n    /* \"#utility.yul\":6109:6135   */\n  mload\n    /* \"#utility.yul\":6101:6107   */\n  dup3\n    /* \"#utility.yul\":6094:6136   */\n  sstore\n    /* \"#utility.yul\":6175:6176   */\n  0x01\n    /* \"#utility.yul\":6167:6173   */\n  dup3\n    /* \"#utility.yul\":6163:6177   */\n  add\n    /* \"#utility.yul\":6153:6177   */\n  swap2\n  pop\n    /* \"#utility.yul\":6222:6224   */\n  0x20\n    /* \"#utility.yul\":6211:6220   */\n  dup6\n    /* \"#utility.yul\":6207:6225   */\n  add\n    /* \"#utility.yul\":6194:6225   */\n  swap5\n  pop\n    /* \"#utility.yul\":6068:6072   */\n  0x20\n    /* \"#utility.yul\":6065:6066   */\n  dup2\n    /* \"#utility.yul\":6061:6073   */\n  add\n    /* \"#utility.yul\":6056:6073   */\n  swap1\n  pop\n    /* \"#utility.yul\":6031:6239   */\n  jump(tag_149)\ntag_151:\n    /* \"#utility.yul\":6267:6273   */\n  dup7\n    /* \"#utility.yul\":6258:6265   */\n  dup4\n    /* \"#utility.yul\":6255:6274   */\n  lt\n    /* \"#utility.yul\":6252:6431   */\n  iszero\n  tag_152\n  jumpi\n    /* \"#utility.yul\":6325:6334   */\n  dup5\n    /* \"#utility.yul\":6320:6323   */\n  dup10\n    /* \"#utility.yul\":6316:6335   */\n  add\n    /* \"#utility.yul\":6310:6336   */\n  mload\n    /* \"#utility.yul\":6368:6416   */\n  tag_153\n    /* \"#utility.yul\":6410:6414   */\n  0x1f\n    /* \"#utility.yul\":6402:6408   */\n  dup10\n    /* \"#utility.yul\":6398:6415   */\n  and\n    /* \"#utility.yul\":6387:6396   */\n  dup3\n    /* \"#utility.yul\":6368:6416   */\n  tag_73\n  jump\t// in\ntag_153:\n    /* \"#utility.yul\":6360:6366   */\n  dup4\n    /* \"#utility.yul\":6353:6417   */\n  sstore\n    /* \"#utility.yul\":6275:6431   */\n  pop\n    /* \"#utility.yul\":6252:6431   */\ntag_152:\n    /* \"#utility.yul\":6477:6478   */\n  0x01\n    /* \"#utility.yul\":6473:6474   */\n  0x02\n    /* \"#utility.yul\":6465:6471   */\n  dup9\n    /* \"#utility.yul\":6461:6475   */\n  mul\n    /* \"#utility.yul\":6457:6479   */\n  add\n    /* \"#utility.yul\":6451:6455   */\n  dup9\n    /* \"#utility.yul\":6444:6480   */\n  sstore\n    /* \"#utility.yul\":5879:6490   */\n  pop\n  pop\n  pop\n    /* \"#utility.yul\":5842:6729   */\ntag_144:\n  pop\n    /* \"#utility.yul\":5432:6735   */\n  pop\n  pop\n  pop\n    /* \"#utility.yul\":5340:6735   */\n  pop\n  pop\n  jump\t// out\n    /* \"BuyBlindBoxNFT.sol\":265:1872  contract BlindBox {... */\ntag_14:\n  dataSize(sub_0)\n  dup1\n  dataOffset(sub_0)\n  0x00\n  codecopy\n  0x00\n  return\nstop\n\nsub_0: assembly {\n        /* \"BuyBlindBoxNFT.sol\":265:1872  contract BlindBox {... */\n      mstore(0x40, 0x80)\n      callvalue\n      dup1\n      iszero\n      tag_1\n      jumpi\n      0x00\n      dup1\n      revert\n    tag_1:\n      pop\n      jumpi(tag_2, lt(calldatasize, 0x04))\n      shr(0xe0, calldataload(0x00))\n      dup1\n      0x2f5be23e\n      eq\n      tag_3\n      jumpi\n    tag_2:\n      0x00\n      dup1\n      revert\n        /* \"BuyBlindBoxNFT.sol\":1010:1686  function drawCard() public {... */\n    tag_3:\n      tag_4\n      tag_5\n      jump\t// in\n    tag_4:\n      stop\n    tag_5:\n        /* \"BuyBlindBoxNFT.sol\":1047:1056  uint256 r */\n      0x00\n        /* \"BuyBlindBoxNFT.sol\":1070:1074  1000 */\n      0x03e8\n        /* \"BuyBlindBoxNFT.sol\":1059:1067  random() */\n      tag_7\n        /* \"BuyBlindBoxNFT.sol\":1059:1065  random */\n      tag_8\n        /* \"BuyBlindBoxNFT.sol\":1059:1067  random() */\n      jump\t// in\n    tag_7:\n        /* \"BuyBlindBoxNFT.sol\":1059:1074  random() % 1000 */\n      tag_9\n      swap2\n      swap1\n      tag_10\n      jump\t// in\n    tag_9:\n        /* \"BuyBlindBoxNFT.sol\":1047:1074  uint256 r = random() % 1000 */\n      swap1\n      pop\n        /* \"BuyBlindBoxNFT.sol\":1084:1098  uint256 cardId */\n      0x00\n        /* \"BuyBlindBoxNFT.sol\":1117:1120  800 */\n      0x0320\n        /* \"BuyBlindBoxNFT.sol\":1113:1114  r */\n      dup3\n        /* \"BuyBlindBoxNFT.sol\":1113:1120  r < 800 */\n      lt\n        /* \"BuyBlindBoxNFT.sol\":1109:1633  if (r < 800) {... */\n      iszero\n      tag_11\n      jumpi\n        /* \"BuyBlindBoxNFT.sol\":1145:1160  anotherContract */\n      0x06\n      0x00\n      swap1\n      sload\n      swap1\n      0x0100\n      exp\n      swap1\n      div\n      0xffffffffffffffffffffffffffffffffffffffff\n      and\n        /* \"BuyBlindBoxNFT.sol\":1145:1176  anotherContract.mintAndTransfer */\n      0xffffffffffffffffffffffffffffffffffffffff\n      and\n      0x477bf177\n        /* \"BuyBlindBoxNFT.sol\":1177:1187  msg.sender */\n      caller\n        /* \"BuyBlindBoxNFT.sol\":1189:1195  group1 */\n      0x02\n        /* \"BuyBlindBoxNFT.sol\":1206:1212  group1 */\n      dup1\n        /* \"BuyBlindBoxNFT.sol\":1206:1219  group1.length */\n      dup1\n      sload\n      swap1\n      pop\n        /* \"BuyBlindBoxNFT.sol\":1196:1204  random() */\n      tag_12\n        /* \"BuyBlindBoxNFT.sol\":1196:1202  random */\n      tag_8\n        /* \"BuyBlindBoxNFT.sol\":1196:1204  random() */\n      jump\t// in\n    tag_12:\n        /* \"BuyBlindBoxNFT.sol\":1196:1220  random()%(group1.length) */\n      tag_13\n      swap2\n      swap1\n      tag_10\n      jump\t// in\n    tag_13:\n        /* \"BuyBlindBoxNFT.sol\":1189:1221  group1[random()%(group1.length)] */\n      dup2\n      sload\n      dup2\n      lt\n      tag_14\n      jumpi\n      tag_15\n      tag_16\n      jump\t// in\n    tag_15:\n    tag_14:\n      swap1\n      0x00\n      mstore\n      keccak256(0x00, 0x20)\n      add\n        /* \"BuyBlindBoxNFT.sol\":1145:1227  anotherContract.mintAndTransfer(msg.sender, group1[random()%(group1.length)],\"50\") */\n      mload(0x40)\n      dup4\n      0xffffffff\n      and\n      0xe0\n      shl\n      dup2\n      mstore\n      0x04\n      add\n      tag_18\n      swap3\n      swap2\n      swap1\n      tag_19\n      jump\t// in\n    tag_18:\n      0x20\n      mload(0x40)\n      dup1\n      dup4\n      sub\n      dup2\n      0x00\n      dup8\n      gas\n      call\n      iszero\n      dup1\n      iszero\n      tag_21\n      jumpi\n      returndatasize\n      0x00\n      dup1\n      returndatacopy\n      revert(0x00, returndatasize)\n    tag_21:\n      pop\n      pop\n      pop\n      pop\n      mload(0x40)\n      returndatasize\n      not(0x1f)\n      0x1f\n      dup3\n      add\n      and\n      dup3\n      add\n      dup1\n      0x40\n      mstore\n      pop\n      dup2\n      add\n      swap1\n      tag_22\n      swap2\n      swap1\n      tag_23\n      jump\t// in\n    tag_22:\n        /* \"BuyBlindBoxNFT.sol\":1136:1227  cardId = anotherContract.mintAndTransfer(msg.sender, group1[random()%(group1.length)],\"50\") */\n      swap1\n      pop\n        /* \"BuyBlindBoxNFT.sol\":1109:1633  if (r < 800) {... */\n      jump(tag_24)\n    tag_11:\n        /* \"BuyBlindBoxNFT.sol\":1252:1255  960 */\n      0x03c0\n        /* \"BuyBlindBoxNFT.sol\":1248:1249  r */\n      dup3\n        /* \"BuyBlindBoxNFT.sol\":1248:1255  r < 960 */\n      lt\n        /* \"BuyBlindBoxNFT.sol\":1244:1633  if (r < 960) {... */\n      iszero\n      tag_25\n      jumpi\n        /* \"BuyBlindBoxNFT.sol\":1280:1295  anotherContract */\n      0x06\n      0x00\n      swap1\n      sload\n      swap1\n      0x0100\n      exp\n      swap1\n      div\n      0xffffffffffffffffffffffffffffffffffffffff\n      and\n        /* \"BuyBlindBoxNFT.sol\":1280:1311  anotherContract.mintAndTransfer */\n      0xffffffffffffffffffffffffffffffffffffffff\n      and\n      0x477bf177\n        /* \"BuyBlindBoxNFT.sol\":1312:1322  msg.sender */\n      caller\n        /* \"BuyBlindBoxNFT.sol\":1324:1330  group2 */\n      0x03\n        /* \"BuyBlindBoxNFT.sol\":1341:1347  group2 */\n      dup1\n        /* \"BuyBlindBoxNFT.sol\":1341:1354  group2.length */\n      dup1\n      sload\n      swap1\n      pop\n        /* \"BuyBlindBoxNFT.sol\":1331:1339  random() */\n      tag_26\n        /* \"BuyBlindBoxNFT.sol\":1331:1337  random */\n      tag_8\n        /* \"BuyBlindBoxNFT.sol\":1331:1339  random() */\n      jump\t// in\n    tag_26:\n        /* \"BuyBlindBoxNFT.sol\":1331:1355  random()%(group2.length) */\n      tag_27\n      swap2\n      swap1\n      tag_10\n      jump\t// in\n    tag_27:\n        /* \"BuyBlindBoxNFT.sol\":1324:1356  group2[random()%(group2.length)] */\n      dup2\n      sload\n      dup2\n      lt\n      tag_28\n      jumpi\n      tag_29\n      tag_16\n      jump\t// in\n    tag_29:\n    tag_28:\n      swap1\n      0x00\n      mstore\n      keccak256(0x00, 0x20)\n      add\n        /* \"BuyBlindBoxNFT.sol\":1280:1363  anotherContract.mintAndTransfer(msg.sender, group2[random()%(group2.length)],\"100\") */\n      mload(0x40)\n      dup4\n      0xffffffff\n      and\n      0xe0\n      shl\n      dup2\n      mstore\n      0x04\n      add\n      tag_31\n      swap3\n      swap2\n      swap1\n      tag_32\n      jump\t// in\n    tag_31:\n      0x20\n      mload(0x40)\n      dup1\n      dup4\n      sub\n      dup2\n      0x00\n      dup8\n      gas\n      call\n      iszero\n      dup1\n      iszero\n      tag_34\n      jumpi\n      returndatasize\n      0x00\n      dup1\n      returndatacopy\n      revert(0x00, returndatasize)\n    tag_34:\n      pop\n      pop\n      pop\n      pop\n      mload(0x40)\n      returndatasize\n      not(0x1f)\n      0x1f\n      dup3\n      add\n      and\n      dup3\n      add\n      dup1\n      0x40\n      mstore\n      pop\n      dup2\n      add\n      swap1\n      tag_35\n      swap2\n      swap1\n      tag_23\n      jump\t// in\n    tag_35:\n        /* \"BuyBlindBoxNFT.sol\":1271:1363  cardId = anotherContract.mintAndTransfer(msg.sender, group2[random()%(group2.length)],\"100\") */\n      swap1\n      pop\n        /* \"BuyBlindBoxNFT.sol\":1244:1633  if (r < 960) {... */\n      jump(tag_36)\n    tag_25:\n        /* \"BuyBlindBoxNFT.sol\":1388:1391  992 */\n      0x03e0\n        /* \"BuyBlindBoxNFT.sol\":1384:1385  r */\n      dup3\n        /* \"BuyBlindBoxNFT.sol\":1384:1391  r < 992 */\n      lt\n        /* \"BuyBlindBoxNFT.sol\":1380:1633  if (r < 992) {... */\n      iszero\n      tag_37\n      jumpi\n        /* \"BuyBlindBoxNFT.sol\":1416:1431  anotherContract */\n      0x06\n      0x00\n      swap1\n      sload\n      swap1\n      0x0100\n      exp\n      swap1\n      div\n      0xffffffffffffffffffffffffffffffffffffffff\n      and\n        /* \"BuyBlindBoxNFT.sol\":1416:1447  anotherContract.mintAndTransfer */\n      0xffffffffffffffffffffffffffffffffffffffff\n      and\n      0x477bf177\n        /* \"BuyBlindBoxNFT.sol\":1448:1458  msg.sender */\n      caller\n        /* \"BuyBlindBoxNFT.sol\":1460:1466  group3 */\n      0x04\n        /* \"BuyBlindBoxNFT.sol\":1477:1483  group3 */\n      dup1\n        /* \"BuyBlindBoxNFT.sol\":1477:1490  group3.length */\n      dup1\n      sload\n      swap1\n      pop\n        /* \"BuyBlindBoxNFT.sol\":1467:1475  random() */\n      tag_38\n        /* \"BuyBlindBoxNFT.sol\":1467:1473  random */\n      tag_8\n        /* \"BuyBlindBoxNFT.sol\":1467:1475  random() */\n      jump\t// in\n    tag_38:\n        /* \"BuyBlindBoxNFT.sol\":1467:1491  random()%(group3.length) */\n      tag_39\n      swap2\n      swap1\n      tag_10\n      jump\t// in\n    tag_39:\n        /* \"BuyBlindBoxNFT.sol\":1460:1492  group3[random()%(group3.length)] */\n      dup2\n      sload\n      dup2\n      lt\n      tag_40\n      jumpi\n      tag_41\n      tag_16\n      jump\t// in\n    tag_41:\n    tag_40:\n      swap1\n      0x00\n      mstore\n      keccak256(0x00, 0x20)\n      add\n        /* \"BuyBlindBoxNFT.sol\":1416:1499  anotherContract.mintAndTransfer(msg.sender, group3[random()%(group3.length)],\"200\") */\n      mload(0x40)\n      dup4\n      0xffffffff\n      and\n      0xe0\n      shl\n      dup2\n      mstore\n      0x04\n      add\n      tag_43\n      swap3\n      swap2\n      swap1\n      tag_44\n      jump\t// in\n    tag_43:\n      0x20\n      mload(0x40)\n      dup1\n      dup4\n      sub\n      dup2\n      0x00\n      dup8\n      gas\n      call\n      iszero\n      dup1\n      iszero\n      tag_46\n      jumpi\n      returndatasize\n      0x00\n      dup1\n      returndatacopy\n      revert(0x00, returndatasize)\n    tag_46:\n      pop\n      pop\n      pop\n      pop\n      mload(0x40)\n      returndatasize\n      not(0x1f)\n      0x1f\n      dup3\n      add\n      and\n      dup3\n      add\n      dup1\n      0x40\n      mstore\n      pop\n      dup2\n      add\n      swap1\n      tag_47\n      swap2\n      swap1\n      tag_23\n      jump\t// in\n    tag_47:\n        /* \"BuyBlindBoxNFT.sol\":1407:1499  cardId = anotherContract.mintAndTransfer(msg.sender, group3[random()%(group3.length)],\"200\") */\n      swap1\n      pop\n        /* \"BuyBlindBoxNFT.sol\":1380:1633  if (r < 992) {... */\n      jump(tag_48)\n    tag_37:\n        /* \"BuyBlindBoxNFT.sol\":1539:1554  anotherContract */\n      0x06\n      0x00\n      swap1\n      sload\n      swap1\n      0x0100\n      exp\n      swap1\n      div\n      0xffffffffffffffffffffffffffffffffffffffff\n      and\n        /* \"BuyBlindBoxNFT.sol\":1539:1570  anotherContract.mintAndTransfer */\n      0xffffffffffffffffffffffffffffffffffffffff\n      and\n      0x477bf177\n        /* \"BuyBlindBoxNFT.sol\":1571:1581  msg.sender */\n      caller\n        /* \"BuyBlindBoxNFT.sol\":1583:1589  group4 */\n      0x05\n        /* \"BuyBlindBoxNFT.sol\":1600:1606  group4 */\n      dup1\n        /* \"BuyBlindBoxNFT.sol\":1600:1613  group4.length */\n      dup1\n      sload\n      swap1\n      pop\n        /* \"BuyBlindBoxNFT.sol\":1590:1598  random() */\n      tag_49\n        /* \"BuyBlindBoxNFT.sol\":1590:1596  random */\n      tag_8\n        /* \"BuyBlindBoxNFT.sol\":1590:1598  random() */\n      jump\t// in\n    tag_49:\n        /* \"BuyBlindBoxNFT.sol\":1590:1614  random()%(group4.length) */\n      tag_50\n      swap2\n      swap1\n      tag_10\n      jump\t// in\n    tag_50:\n        /* \"BuyBlindBoxNFT.sol\":1583:1615  group4[random()%(group4.length)] */\n      dup2\n      sload\n      dup2\n      lt\n      tag_51\n      jumpi\n      tag_52\n      tag_16\n      jump\t// in\n    tag_52:\n    tag_51:\n      swap1\n      0x00\n      mstore\n      keccak256(0x00, 0x20)\n      add\n        /* \"BuyBlindBoxNFT.sol\":1539:1622  anotherContract.mintAndTransfer(msg.sender, group4[random()%(group4.length)],\"400\") */\n      mload(0x40)\n      dup4\n      0xffffffff\n      and\n      0xe0\n      shl\n      dup2\n      mstore\n      0x04\n      add\n      tag_54\n      swap3\n      swap2\n      swap1\n      tag_55\n      jump\t// in\n    tag_54:\n      0x20\n      mload(0x40)\n      dup1\n      dup4\n      sub\n      dup2\n      0x00\n      dup8\n      gas\n      call\n      iszero\n      dup1\n      iszero\n      tag_57\n      jumpi\n      returndatasize\n      0x00\n      dup1\n      returndatacopy\n      revert(0x00, returndatasize)\n    tag_57:\n      pop\n      pop\n      pop\n      pop\n      mload(0x40)\n      returndatasize\n      not(0x1f)\n      0x1f\n      dup3\n      add\n      and\n      dup3\n      add\n      dup1\n      0x40\n      mstore\n      pop\n      dup2\n      add\n      swap1\n      tag_58\n      swap2\n      swap1\n      tag_23\n      jump\t// in\n    tag_58:\n        /* \"BuyBlindBoxNFT.sol\":1530:1622  cardId = anotherContract.mintAndTransfer(msg.sender, group4[random()%(group4.length)],\"400\") */\n      swap1\n      pop\n        /* \"BuyBlindBoxNFT.sol\":1380:1633  if (r < 992) {... */\n    tag_48:\n        /* \"BuyBlindBoxNFT.sol\":1244:1633  if (r < 960) {... */\n    tag_36:\n        /* \"BuyBlindBoxNFT.sol\":1109:1633  if (r < 800) {... */\n    tag_24:\n        /* \"BuyBlindBoxNFT.sol\":1661:1671  msg.sender */\n      caller\n        /* \"BuyBlindBoxNFT.sol\":1647:1679  DrawCardEvent(msg.sender,cardId) */\n      0xffffffffffffffffffffffffffffffffffffffff\n      and\n      0x267422fa3a8c9525acb851824d5f4579f8de0442b971deef203719962e3b9d4a\n        /* \"BuyBlindBoxNFT.sol\":1672:1678  cardId */\n      dup3\n        /* \"BuyBlindBoxNFT.sol\":1647:1679  DrawCardEvent(msg.sender,cardId) */\n      mload(0x40)\n      tag_59\n      swap2\n      swap1\n      tag_60\n      jump\t// in\n    tag_59:\n      mload(0x40)\n      dup1\n      swap2\n      sub\n      swap1\n      log2\n        /* \"BuyBlindBoxNFT.sol\":1037:1686  {... */\n      pop\n      pop\n        /* \"BuyBlindBoxNFT.sol\":1010:1686  function drawCard() public {... */\n      jump\t// out\n        /* \"BuyBlindBoxNFT.sol\":1692:1870  function random() private view returns (uint256) {... */\n    tag_8:\n        /* \"BuyBlindBoxNFT.sol\":1732:1739  uint256 */\n      0x00\n        /* \"BuyBlindBoxNFT.sol\":1806:1821  block.timestamp */\n      timestamp\n        /* \"BuyBlindBoxNFT.sol\":1823:1839  block.difficulty */\n      prevrandao\n        /* \"BuyBlindBoxNFT.sol\":1841:1851  msg.sender */\n      caller\n        /* \"BuyBlindBoxNFT.sol\":1789:1852  abi.encodePacked(block.timestamp, block.difficulty, msg.sender) */\n      add(0x20, mload(0x40))\n      tag_62\n      swap4\n      swap3\n      swap2\n      swap1\n      tag_63\n      jump\t// in\n    tag_62:\n      mload(0x40)\n      0x20\n      dup2\n      dup4\n      sub\n      sub\n      dup2\n      mstore\n      swap1\n      0x40\n      mstore\n        /* \"BuyBlindBoxNFT.sol\":1779:1853  keccak256(abi.encodePacked(block.timestamp, block.difficulty, msg.sender)) */\n      dup1\n      mload\n      swap1\n      0x20\n      add\n      keccak256\n        /* \"BuyBlindBoxNFT.sol\":1758:1863  uint256(... */\n      0x00\n      shr\n        /* \"BuyBlindBoxNFT.sol\":1751:1863  return uint256(... */\n      swap1\n      pop\n        /* \"BuyBlindBoxNFT.sol\":1692:1870  function random() private view returns (uint256) {... */\n      swap1\n      jump\t// out\n        /* \"#utility.yul\":7:84   */\n    tag_64:\n        /* \"#utility.yul\":44:51   */\n      0x00\n        /* \"#utility.yul\":73:78   */\n      dup2\n        /* \"#utility.yul\":62:78   */\n      swap1\n      pop\n        /* \"#utility.yul\":7:84   */\n      swap2\n      swap1\n      pop\n      jump\t// out\n        /* \"#utility.yul\":90:270   */\n    tag_65:\n        /* \"#utility.yul\":138:215   */\n      0x4e487b7100000000000000000000000000000000000000000000000000000000\n        /* \"#utility.yul\":135:136   */\n      0x00\n        /* \"#utility.yul\":128:216   */\n      mstore\n        /* \"#utility.yul\":235:239   */\n      0x12\n        /* \"#utility.yul\":232:233   */\n      0x04\n        /* \"#utility.yul\":225:240   */\n      mstore\n        /* \"#utility.yul\":259:263   */\n      0x24\n        /* \"#utility.yul\":256:257   */\n      0x00\n        /* \"#utility.yul\":249:264   */\n      revert\n        /* \"#utility.yul\":276:452   */\n    tag_10:\n        /* \"#utility.yul\":308:309   */\n      0x00\n        /* \"#utility.yul\":325:345   */\n      tag_98\n        /* \"#utility.yul\":343:344   */\n      dup3\n        /* \"#utility.yul\":325:345   */\n      tag_64\n      jump\t// in\n    tag_98:\n        /* \"#utility.yul\":320:345   */\n      swap2\n      pop\n        /* \"#utility.yul\":359:379   */\n      tag_99\n        /* \"#utility.yul\":377:378   */\n      dup4\n        /* \"#utility.yul\":359:379   */\n      tag_64\n      jump\t// in\n    tag_99:\n        /* \"#utility.yul\":354:379   */\n      swap3\n      pop\n        /* \"#utility.yul\":398:399   */\n      dup3\n        /* \"#utility.yul\":388:423   */\n      tag_100\n      jumpi\n        /* \"#utility.yul\":403:421   */\n      tag_101\n      tag_65\n      jump\t// in\n    tag_101:\n        /* \"#utility.yul\":388:423   */\n    tag_100:\n        /* \"#utility.yul\":444:445   */\n      dup3\n        /* \"#utility.yul\":441:442   */\n      dup3\n        /* \"#utility.yul\":437:446   */\n      mod\n        /* \"#utility.yul\":432:446   */\n      swap1\n      pop\n        /* \"#utility.yul\":276:452   */\n      swap3\n      swap2\n      pop\n      pop\n      jump\t// out\n        /* \"#utility.yul\":458:638   */\n    tag_16:\n        /* \"#utility.yul\":506:583   */\n      0x4e487b7100000000000000000000000000000000000000000000000000000000\n        /* \"#utility.yul\":503:504   */\n      0x00\n        /* \"#utility.yul\":496:584   */\n      mstore\n        /* \"#utility.yul\":603:607   */\n      0x32\n        /* \"#utility.yul\":600:601   */\n      0x04\n        /* \"#utility.yul\":593:608   */\n      mstore\n        /* \"#utility.yul\":627:631   */\n      0x24\n        /* \"#utility.yul\":624:625   */\n      0x00\n        /* \"#utility.yul\":617:632   */\n      revert\n        /* \"#utility.yul\":644:770   */\n    tag_66:\n        /* \"#utility.yul\":681:688   */\n      0x00\n        /* \"#utility.yul\":721:763   */\n      0xffffffffffffffffffffffffffffffffffffffff\n        /* \"#utility.yul\":714:719   */\n      dup3\n        /* \"#utility.yul\":710:764   */\n      and\n        /* \"#utility.yul\":699:764   */\n      swap1\n      pop\n        /* \"#utility.yul\":644:770   */\n      swap2\n      swap1\n      pop\n      jump\t// out\n        /* \"#utility.yul\":776:872   */\n    tag_67:\n        /* \"#utility.yul\":813:820   */\n      0x00\n        /* \"#utility.yul\":842:866   */\n      tag_105\n        /* \"#utility.yul\":860:865   */\n      dup3\n        /* \"#utility.yul\":842:866   */\n      tag_66\n      jump\t// in\n    tag_105:\n        /* \"#utility.yul\":831:866   */\n      swap1\n      pop\n        /* \"#utility.yul\":776:872   */\n      swap2\n      swap1\n      pop\n      jump\t// out\n        /* \"#utility.yul\":878:996   */\n    tag_68:\n        /* \"#utility.yul\":965:989   */\n      tag_107\n        /* \"#utility.yul\":983:988   */\n      dup2\n        /* \"#utility.yul\":965:989   */\n      tag_67\n      jump\t// in\n    tag_107:\n        /* \"#utility.yul\":960:963   */\n      dup3\n        /* \"#utility.yul\":953:990   */\n      mstore\n        /* \"#utility.yul\":878:996   */\n      pop\n      pop\n      jump\t// out\n        /* \"#utility.yul\":1002:1182   */\n    tag_69:\n        /* \"#utility.yul\":1050:1127   */\n      0x4e487b7100000000000000000000000000000000000000000000000000000000\n        /* \"#utility.yul\":1047:1048   */\n      0x00\n        /* \"#utility.yul\":1040:1128   */\n      mstore\n        /* \"#utility.yul\":1147:1151   */\n      0x22\n        /* \"#utility.yul\":1144:1145   */\n      0x04\n        /* \"#utility.yul\":1137:1152   */\n      mstore\n        /* \"#utility.yul\":1171:1175   */\n      0x24\n        /* \"#utility.yul\":1168:1169   */\n      0x00\n        /* \"#utility.yul\":1161:1176   */\n      revert\n        /* \"#utility.yul\":1188:1508   */\n    tag_70:\n        /* \"#utility.yul\":1232:1238   */\n      0x00\n        /* \"#utility.yul\":1269:1270   */\n      0x02\n        /* \"#utility.yul\":1263:1267   */\n      dup3\n        /* \"#utility.yul\":1259:1271   */\n      div\n        /* \"#utility.yul\":1249:1271   */\n      swap1\n      pop\n        /* \"#utility.yul\":1316:1317   */\n      0x01\n        /* \"#utility.yul\":1310:1314   */\n      dup3\n        /* \"#utility.yul\":1306:1318   */\n      and\n        /* \"#utility.yul\":1337:1355   */\n      dup1\n        /* \"#utility.yul\":1327:1408   */\n      tag_110\n      jumpi\n        /* \"#utility.yul\":1393:1397   */\n      0x7f\n        /* \"#utility.yul\":1385:1391   */\n      dup3\n        /* \"#utility.yul\":1381:1398   */\n      and\n        /* \"#utility.yul\":1371:1398   */\n      swap2\n      pop\n        /* \"#utility.yul\":1327:1408   */\n    tag_110:\n        /* \"#utility.yul\":1455:1457   */\n      0x20\n        /* \"#utility.yul\":1447:1453   */\n      dup3\n        /* \"#utility.yul\":1444:1458   */\n      lt\n        /* \"#utility.yul\":1424:1442   */\n      dup2\n        /* \"#utility.yul\":1421:1459   */\n      sub\n        /* \"#utility.yul\":1418:1502   */\n      tag_111\n      jumpi\n        /* \"#utility.yul\":1474:1492   */\n      tag_112\n      tag_69\n      jump\t// in\n    tag_112:\n        /* \"#utility.yul\":1418:1502   */\n    tag_111:\n        /* \"#utility.yul\":1239:1508   */\n      pop\n        /* \"#utility.yul\":1188:1508   */\n      swap2\n      swap1\n      pop\n      jump\t// out\n        /* \"#utility.yul\":1514:1683   */\n    tag_71:\n        /* \"#utility.yul\":1598:1609   */\n      0x00\n        /* \"#utility.yul\":1632:1638   */\n      dup3\n        /* \"#utility.yul\":1627:1630   */\n      dup3\n        /* \"#utility.yul\":1620:1639   */\n      mstore\n        /* \"#utility.yul\":1672:1676   */\n      0x20\n        /* \"#utility.yul\":1667:1670   */\n      dup3\n        /* \"#utility.yul\":1663:1677   */\n      add\n        /* \"#utility.yul\":1648:1677   */\n      swap1\n      pop\n        /* \"#utility.yul\":1514:1683   */\n      swap3\n      swap2\n      pop\n      pop\n      jump\t// out\n        /* \"#utility.yul\":1689:1830   */\n    tag_72:\n        /* \"#utility.yul\":1738:1742   */\n      0x00\n        /* \"#utility.yul\":1761:1764   */\n      dup2\n        /* \"#utility.yul\":1753:1764   */\n      swap1\n      pop\n        /* \"#utility.yul\":1784:1787   */\n      dup2\n        /* \"#utility.yul\":1781:1782   */\n      0x00\n        /* \"#utility.yul\":1774:1788   */\n      mstore\n        /* \"#utility.yul\":1818:1822   */\n      0x20\n        /* \"#utility.yul\":1815:1816   */\n      0x00\n        /* \"#utility.yul\":1805:1823   */\n      keccak256\n        /* \"#utility.yul\":1797:1823   */\n      swap1\n      pop\n        /* \"#utility.yul\":1689:1830   */\n      swap2\n      swap1\n      pop\n      jump\t// out\n        /* \"#utility.yul\":1860:2691   */\n    tag_73:\n        /* \"#utility.yul\":1945:1948   */\n      0x00\n        /* \"#utility.yul\":1982:1987   */\n      dup2\n        /* \"#utility.yul\":1976:1988   */\n      sload\n        /* \"#utility.yul\":2011:2047   */\n      tag_116\n        /* \"#utility.yul\":2037:2046   */\n      dup2\n        /* \"#utility.yul\":2011:2047   */\n      tag_70\n      jump\t// in\n    tag_116:\n        /* \"#utility.yul\":2063:2134   */\n      tag_117\n        /* \"#utility.yul\":2127:2133   */\n      dup2\n        /* \"#utility.yul\":2122:2125   */\n      dup7\n        /* \"#utility.yul\":2063:2134   */\n      tag_71\n      jump\t// in\n    tag_117:\n        /* \"#utility.yul\":2056:2134   */\n      swap5\n      pop\n        /* \"#utility.yul\":2165:2166   */\n      0x01\n        /* \"#utility.yul\":2154:2163   */\n      dup3\n        /* \"#utility.yul\":2150:2167   */\n      and\n        /* \"#utility.yul\":2181:2182   */\n      0x00\n        /* \"#utility.yul\":2176:2340   */\n      dup2\n      eq\n      tag_119\n      jumpi\n        /* \"#utility.yul\":2354:2355   */\n      0x01\n        /* \"#utility.yul\":2349:2685   */\n      dup2\n      eq\n      tag_120\n      jumpi\n        /* \"#utility.yul\":2143:2685   */\n      jump(tag_118)\n        /* \"#utility.yul\":2176:2340   */\n    tag_119:\n        /* \"#utility.yul\":2260:2264   */\n      0xff\n        /* \"#utility.yul\":2256:2265   */\n      not\n        /* \"#utility.yul\":2245:2254   */\n      dup4\n        /* \"#utility.yul\":2241:2266   */\n      and\n        /* \"#utility.yul\":2236:2239   */\n      dup7\n        /* \"#utility.yul\":2229:2267   */\n      mstore\n        /* \"#utility.yul\":2320:2326   */\n      dup2\n        /* \"#utility.yul\":2313:2327   */\n      iszero\n        /* \"#utility.yul\":2306:2328   */\n      iszero\n        /* \"#utility.yul\":2300:2304   */\n      0x20\n        /* \"#utility.yul\":2296:2329   */\n      mul\n        /* \"#utility.yul\":2291:2294   */\n      dup7\n        /* \"#utility.yul\":2287:2330   */\n      add\n        /* \"#utility.yul\":2280:2330   */\n      swap4\n      pop\n        /* \"#utility.yul\":2176:2340   */\n      jump(tag_118)\n        /* \"#utility.yul\":2349:2685   */\n    tag_120:\n        /* \"#utility.yul\":2416:2454   */\n      tag_121\n        /* \"#utility.yul\":2448:2453   */\n      dup6\n        /* \"#utility.yul\":2416:2454   */\n      tag_72\n      jump\t// in\n    tag_121:\n        /* \"#utility.yul\":2476:2477   */\n      0x00\n        /* \"#utility.yul\":2490:2644   */\n    tag_122:\n        /* \"#utility.yul\":2504:2510   */\n      dup4\n        /* \"#utility.yul\":2501:2502   */\n      dup2\n        /* \"#utility.yul\":2498:2511   */\n      lt\n        /* \"#utility.yul\":2490:2644   */\n      iszero\n      tag_124\n      jumpi\n        /* \"#utility.yul\":2578:2585   */\n      dup2\n        /* \"#utility.yul\":2572:2586   */\n      sload\n        /* \"#utility.yul\":2568:2569   */\n      dup2\n        /* \"#utility.yul\":2563:2566   */\n      dup10\n        /* \"#utility.yul\":2559:2570   */\n      add\n        /* \"#utility.yul\":2552:2587   */\n      mstore\n        /* \"#utility.yul\":2628:2629   */\n      0x01\n        /* \"#utility.yul\":2619:2626   */\n      dup3\n        /* \"#utility.yul\":2615:2630   */\n      add\n        /* \"#utility.yul\":2604:2630   */\n      swap2\n      pop\n        /* \"#utility.yul\":2526:2530   */\n      0x20\n        /* \"#utility.yul\":2523:2524   */\n      dup2\n        /* \"#utility.yul\":2519:2531   */\n      add\n        /* \"#utility.yul\":2514:2531   */\n      swap1\n      pop\n        /* \"#utility.yul\":2490:2644   */\n      jump(tag_122)\n    tag_124:\n        /* \"#utility.yul\":2673:2674   */\n      dup1\n        /* \"#utility.yul\":2668:2671   */\n      dup9\n        /* \"#utility.yul\":2664:2675   */\n      add\n        /* \"#utility.yul\":2657:2675   */\n      swap6\n      pop\n        /* \"#utility.yul\":2356:2685   */\n      pop\n      pop\n        /* \"#utility.yul\":2143:2685   */\n    tag_118:\n      pop\n        /* \"#utility.yul\":1949:2691   */\n      pop\n      pop\n        /* \"#utility.yul\":1860:2691   */\n      swap3\n      swap2\n      pop\n      pop\n      jump\t// out\n        /* \"#utility.yul\":2697:2849   */\n    tag_74:\n        /* \"#utility.yul\":2837:2841   */\n      0x3530000000000000000000000000000000000000000000000000000000000000\n        /* \"#utility.yul\":2833:2834   */\n      0x00\n        /* \"#utility.yul\":2825:2831   */\n      dup3\n        /* \"#utility.yul\":2821:2835   */\n      add\n        /* \"#utility.yul\":2814:2842   */\n      mstore\n        /* \"#utility.yul\":2697:2849   */\n      pop\n      jump\t// out\n        /* \"#utility.yul\":2855:3220   */\n    tag_75:\n        /* \"#utility.yul\":2997:3000   */\n      0x00\n        /* \"#utility.yul\":3018:3084   */\n      tag_127\n        /* \"#utility.yul\":3082:3083   */\n      0x02\n        /* \"#utility.yul\":3077:3080   */\n      dup4\n        /* \"#utility.yul\":3018:3084   */\n      tag_71\n      jump\t// in\n    tag_127:\n        /* \"#utility.yul\":3011:3084   */\n      swap2\n      pop\n        /* \"#utility.yul\":3093:3186   */\n      tag_128\n        /* \"#utility.yul\":3182:3185   */\n      dup3\n        /* \"#utility.yul\":3093:3186   */\n      tag_74\n      jump\t// in\n    tag_128:\n        /* \"#utility.yul\":3211:3213   */\n      0x20\n        /* \"#utility.yul\":3206:3209   */\n      dup3\n        /* \"#utility.yul\":3202:3214   */\n      add\n        /* \"#utility.yul\":3195:3214   */\n      swap1\n      pop\n        /* \"#utility.yul\":2855:3220   */\n      swap2\n      swap1\n      pop\n      jump\t// out\n        /* \"#utility.yul\":3226:3950   */\n    tag_19:\n        /* \"#utility.yul\":3465:3469   */\n      0x00\n        /* \"#utility.yul\":3503:3505   */\n      0x60\n        /* \"#utility.yul\":3492:3501   */\n      dup3\n        /* \"#utility.yul\":3488:3506   */\n      add\n        /* \"#utility.yul\":3480:3506   */\n      swap1\n      pop\n        /* \"#utility.yul\":3516:3587   */\n      tag_130\n        /* \"#utility.yul\":3584:3585   */\n      0x00\n        /* \"#utility.yul\":3573:3582   */\n      dup4\n        /* \"#utility.yul\":3569:3586   */\n      add\n        /* \"#utility.yul\":3560:3566   */\n      dup6\n        /* \"#utility.yul\":3516:3587   */\n      tag_68\n      jump\t// in\n    tag_130:\n        /* \"#utility.yul\":3634:3643   */\n      dup2\n        /* \"#utility.yul\":3628:3632   */\n      dup2\n        /* \"#utility.yul\":3624:3644   */\n      sub\n        /* \"#utility.yul\":3619:3621   */\n      0x20\n        /* \"#utility.yul\":3608:3617   */\n      dup4\n        /* \"#utility.yul\":3604:3622   */\n      add\n        /* \"#utility.yul\":3597:3645   */\n      mstore\n        /* \"#utility.yul\":3662:3737   */\n      tag_131\n        /* \"#utility.yul\":3732:3736   */\n      dup2\n        /* \"#utility.yul\":3723:3729   */\n      dup5\n        /* \"#utility.yul\":3662:3737   */\n      tag_73\n      jump\t// in\n    tag_131:\n        /* \"#utility.yul\":3654:3737   */\n      swap1\n      pop\n        /* \"#utility.yul\":3784:3793   */\n      dup2\n        /* \"#utility.yul\":3778:3782   */\n      dup2\n        /* \"#utility.yul\":3774:3794   */\n      sub\n        /* \"#utility.yul\":3769:3771   */\n      0x40\n        /* \"#utility.yul\":3758:3767   */\n      dup4\n        /* \"#utility.yul\":3754:3772   */\n      add\n        /* \"#utility.yul\":3747:3795   */\n      mstore\n        /* \"#utility.yul\":3812:3943   */\n      tag_132\n        /* \"#utility.yul\":3938:3942   */\n      dup2\n        /* \"#utility.yul\":3812:3943   */\n      tag_75\n      jump\t// in\n    tag_132:\n        /* \"#utility.yul\":3804:3943   */\n      swap1\n      pop\n        /* \"#utility.yul\":3226:3950   */\n      swap4\n      swap3\n      pop\n      pop\n      pop\n      jump\t// out\n        /* \"#utility.yul\":4037:4154   */\n    tag_77:\n        /* \"#utility.yul\":4146:4147   */\n      0x00\n        /* \"#utility.yul\":4143:4144   */\n      dup1\n        /* \"#utility.yul\":4136:4148   */\n      revert\n        /* \"#utility.yul\":4283:4405   */\n    tag_79:\n        /* \"#utility.yul\":4356:4380   */\n      tag_137\n        /* \"#utility.yul\":4374:4379   */\n      dup2\n        /* \"#utility.yul\":4356:4380   */\n      tag_64\n      jump\t// in\n    tag_137:\n        /* \"#utility.yul\":4349:4354   */\n      dup2\n        /* \"#utility.yul\":4346:4381   */\n      eq\n        /* \"#utility.yul\":4336:4399   */\n      tag_138\n      jumpi\n        /* \"#utility.yul\":4395:4396   */\n      0x00\n        /* \"#utility.yul\":4392:4393   */\n      dup1\n        /* \"#utility.yul\":4385:4397   */\n      revert\n        /* \"#utility.yul\":4336:4399   */\n    tag_138:\n        /* \"#utility.yul\":4283:4405   */\n      pop\n      jump\t// out\n        /* \"#utility.yul\":4411:4554   */\n    tag_80:\n        /* \"#utility.yul\":4468:4473   */\n      0x00\n        /* \"#utility.yul\":4499:4505   */\n      dup2\n        /* \"#utility.yul\":4493:4506   */\n      mload\n        /* \"#utility.yul\":4484:4506   */\n      swap1\n      pop\n        /* \"#utility.yul\":4515:4548   */\n      tag_140\n        /* \"#utility.yul\":4542:4547   */\n      dup2\n        /* \"#utility.yul\":4515:4548   */\n      tag_79\n      jump\t// in\n    tag_140:\n        /* \"#utility.yul\":4411:4554   */\n      swap3\n      swap2\n      pop\n      pop\n      jump\t// out\n        /* \"#utility.yul\":4560:4911   */\n    tag_23:\n        /* \"#utility.yul\":4630:4636   */\n      0x00\n        /* \"#utility.yul\":4679:4681   */\n      0x20\n        /* \"#utility.yul\":4667:4676   */\n      dup3\n        /* \"#utility.yul\":4658:4665   */\n      dup5\n        /* \"#utility.yul\":4654:4677   */\n      sub\n        /* \"#utility.yul\":4650:4682   */\n      slt\n        /* \"#utility.yul\":4647:4766   */\n      iszero\n      tag_142\n      jumpi\n        /* \"#utility.yul\":4685:4764   */\n      tag_143\n      tag_77\n      jump\t// in\n    tag_143:\n        /* \"#utility.yul\":4647:4766   */\n    tag_142:\n        /* \"#utility.yul\":4805:4806   */\n      0x00\n        /* \"#utility.yul\":4830:4894   */\n      tag_144\n        /* \"#utility.yul\":4886:4893   */\n      dup5\n        /* \"#utility.yul\":4877:4883   */\n      dup3\n        /* \"#utility.yul\":4866:4875   */\n      dup6\n        /* \"#utility.yul\":4862:4884   */\n      add\n        /* \"#utility.yul\":4830:4894   */\n      tag_80\n      jump\t// in\n    tag_144:\n        /* \"#utility.yul\":4820:4894   */\n      swap2\n      pop\n        /* \"#utility.yul\":4776:4904   */\n      pop\n        /* \"#utility.yul\":4560:4911   */\n      swap3\n      swap2\n      pop\n      pop\n      jump\t// out\n        /* \"#utility.yul\":4917:5070   */\n    tag_81:\n        /* \"#utility.yul\":5057:5062   */\n      0x3130300000000000000000000000000000000000000000000000000000000000\n        /* \"#utility.yul\":5053:5054   */\n      0x00\n        /* \"#utility.yul\":5045:5051   */\n      dup3\n        /* \"#utility.yul\":5041:5055   */\n      add\n        /* \"#utility.yul\":5034:5063   */\n      mstore\n        /* \"#utility.yul\":4917:5070   */\n      pop\n      jump\t// out\n        /* \"#utility.yul\":5076:5441   */\n    tag_82:\n        /* \"#utility.yul\":5218:5221   */\n      0x00\n        /* \"#utility.yul\":5239:5305   */\n      tag_147\n        /* \"#utility.yul\":5303:5304   */\n      0x03\n        /* \"#utility.yul\":5298:5301   */\n      dup4\n        /* \"#utility.yul\":5239:5305   */\n      tag_71\n      jump\t// in\n    tag_147:\n        /* \"#utility.yul\":5232:5305   */\n      swap2\n      pop\n        /* \"#utility.yul\":5314:5407   */\n      tag_148\n        /* \"#utility.yul\":5403:5406   */\n      dup3\n        /* \"#utility.yul\":5314:5407   */\n      tag_81\n      jump\t// in\n    tag_148:\n        /* \"#utility.yul\":5432:5434   */\n      0x20\n        /* \"#utility.yul\":5427:5430   */\n      dup3\n        /* \"#utility.yul\":5423:5435   */\n      add\n        /* \"#utility.yul\":5416:5435   */\n      swap1\n      pop\n        /* \"#utility.yul\":5076:5441   */\n      swap2\n      swap1\n      pop\n      jump\t// out\n        /* \"#utility.yul\":5447:6171   */\n    tag_32:\n        /* \"#utility.yul\":5686:5690   */\n      0x00\n        /* \"#utility.yul\":5724:5726   */\n      0x60\n        /* \"#utility.yul\":5713:5722   */\n      dup3\n        /* \"#utility.yul\":5709:5727   */\n      add\n        /* \"#utility.yul\":5701:5727   */\n      swap1\n      pop\n        /* \"#utility.yul\":5737:5808   */\n      tag_150\n        /* \"#utility.yul\":5805:5806   */\n      0x00\n        /* \"#utility.yul\":5794:5803   */\n      dup4\n        /* \"#utility.yul\":5790:5807   */\n      add\n        /* \"#utility.yul\":5781:5787   */\n      dup6\n        /* \"#utility.yul\":5737:5808   */\n      tag_68\n      jump\t// in\n    tag_150:\n        /* \"#utility.yul\":5855:5864   */\n      dup2\n        /* \"#utility.yul\":5849:5853   */\n      dup2\n        /* \"#utility.yul\":5845:5865   */\n      sub\n        /* \"#utility.yul\":5840:5842   */\n      0x20\n        /* \"#utility.yul\":5829:5838   */\n      dup4\n        /* \"#utility.yul\":5825:5843   */\n      add\n        /* \"#utility.yul\":5818:5866   */\n      mstore\n        /* \"#utility.yul\":5883:5958   */\n      tag_151\n        /* \"#utility.yul\":5953:5957   */\n      dup2\n        /* \"#utility.yul\":5944:5950   */\n      dup5\n        /* \"#utility.yul\":5883:5958   */\n      tag_73\n      jump\t// in\n    tag_151:\n        /* \"#utility.yul\":5875:5958   */\n      swap1\n      pop\n        /* \"#utility.yul\":6005:6014   */\n      dup2\n        /* \"#utility.yul\":5999:6003   */\n      dup2\n        /* \"#utility.yul\":5995:6015   */\n      sub\n        /* \"#utility.yul\":5990:5992   */\n      0x40\n        /* \"#utility.yul\":5979:5988   */\n      dup4\n        /* \"#utility.yul\":5975:5993   */\n      add\n        /* \"#utility.yul\":5968:6016   */\n      mstore\n        /* \"#utility.yul\":6033:6164   */\n      tag_152\n        /* \"#utility.yul\":6159:6163   */\n      dup2\n        /* \"#utility.yul\":6033:6164   */\n      tag_82\n      jump\t// in\n    tag_152:\n        /* \"#utility.yul\":6025:6164   */\n      swap1\n      pop\n        /* \"#utility.yul\":5447:6171   */\n      swap4\n      swap3\n      pop\n      pop\n      pop\n      jump\t// out\n        /* \"#utility.yul\":6177:6330   */\n    tag_83:\n        /* \"#utility.yul\":6317:6322   */\n      0x3230300000000000000000000000000000000000000000000000000000000000\n        /* \"#utility.yul\":6313:6314   */\n      0x00\n        /* \"#utility.yul\":6305:6311   */\n      dup3\n        /* \"#utility.yul\":6301:6315   */\n      add\n        /* \"#utility.yul\":6294:6323   */\n      mstore\n        /* \"#utility.yul\":6177:6330   */\n      pop\n      jump\t// out\n        /* \"#utility.yul\":6336:6701   */\n    tag_84:\n        /* \"#utility.yul\":6478:6481   */\n      0x00\n        /* \"#utility.yul\":6499:6565   */\n      tag_155\n        /* \"#utility.yul\":6563:6564   */\n      0x03\n        /* \"#utility.yul\":6558:6561   */\n      dup4\n        /* \"#utility.yul\":6499:6565   */\n      tag_71\n      jump\t// in\n    tag_155:\n        /* \"#utility.yul\":6492:6565   */\n      swap2\n      pop\n        /* \"#utility.yul\":6574:6667   */\n      tag_156\n        /* \"#utility.yul\":6663:6666   */\n      dup3\n        /* \"#utility.yul\":6574:6667   */\n      tag_83\n      jump\t// in\n    tag_156:\n        /* \"#utility.yul\":6692:6694   */\n      0x20\n        /* \"#utility.yul\":6687:6690   */\n      dup3\n        /* \"#utility.yul\":6683:6695   */\n      add\n        /* \"#utility.yul\":6676:6695   */\n      swap1\n      pop\n        /* \"#utility.yul\":6336:6701   */\n      swap2\n      swap1\n      pop\n      jump\t// out\n        /* \"#utility.yul\":6707:7431   */\n    tag_44:\n        /* \"#utility.yul\":6946:6950   */\n      0x00\n        /* \"#utility.yul\":6984:6986   */\n      0x60\n        /* \"#utility.yul\":6973:6982   */\n      dup3\n        /* \"#utility.yul\":6969:6987   */\n      add\n        /* \"#utility.yul\":6961:6987   */\n      swap1\n      pop\n        /* \"#utility.yul\":6997:7068   */\n      tag_158\n        /* \"#utility.yul\":7065:7066   */\n      0x00\n        /* \"#utility.yul\":7054:7063   */\n      dup4\n        /* \"#utility.yul\":7050:7067   */\n      add\n        /* \"#utility.yul\":7041:7047   */\n      dup6\n        /* \"#utility.yul\":6997:7068   */\n      tag_68\n      jump\t// in\n    tag_158:\n        /* \"#utility.yul\":7115:7124   */\n      dup2\n        /* \"#utility.yul\":7109:7113   */\n      dup2\n        /* \"#utility.yul\":7105:7125   */\n      sub\n        /* \"#utility.yul\":7100:7102   */\n      0x20\n        /* \"#utility.yul\":7089:7098   */\n      dup4\n        /* \"#utility.yul\":7085:7103   */\n      add\n        /* \"#utility.yul\":7078:7126   */\n      mstore\n        /* \"#utility.yul\":7143:7218   */\n      tag_159\n        /* \"#utility.yul\":7213:7217   */\n      dup2\n        /* \"#utility.yul\":7204:7210   */\n      dup5\n        /* \"#utility.yul\":7143:7218   */\n      tag_73\n      jump\t// in\n    tag_159:\n        /* \"#utility.yul\":7135:7218   */\n      swap1\n      pop\n        /* \"#utility.yul\":7265:7274   */\n      dup2\n        /* \"#utility.yul\":7259:7263   */\n      dup2\n        /* \"#utility.yul\":7255:7275   */\n      sub\n        /* \"#utility.yul\":7250:7252   */\n      0x40\n        /* \"#utility.yul\":7239:7248   */\n      dup4\n        /* \"#utility.yul\":7235:7253   */\n      add\n        /* \"#utility.yul\":7228:7276   */\n      mstore\n        /* \"#utility.yul\":7293:7424   */\n      tag_160\n        /* \"#utility.yul\":7419:7423   */\n      dup2\n        /* \"#utility.yul\":7293:7424   */\n      tag_84\n      jump\t// in\n    tag_160:\n        /* \"#utility.yul\":7285:7424   */\n      swap1\n      pop\n        /* \"#utility.yul\":6707:7431   */\n      swap4\n      swap3\n      pop\n      pop\n      pop\n      jump\t// out\n        /* \"#utility.yul\":7437:7590   */\n    tag_85:\n        /* \"#utility.yul\":7577:7582   */\n      0x3430300000000000000000000000000000000000000000000000000000000000\n        /* \"#utility.yul\":7573:7574   */\n      0x00\n        /* \"#utility.yul\":7565:7571   */\n      dup3\n        /* \"#utility.yul\":7561:7575   */\n      add\n        /* \"#utility.yul\":7554:7583   */\n      mstore\n        /* \"#utility.yul\":7437:7590   */\n      pop\n      jump\t// out\n        /* \"#utility.yul\":7596:7961   */\n    tag_86:\n        /* \"#utility.yul\":7738:7741   */\n      0x00\n        /* \"#utility.yul\":7759:7825   */\n      tag_163\n        /* \"#utility.yul\":7823:7824   */\n      0x03\n        /* \"#utility.yul\":7818:7821   */\n      dup4\n        /* \"#utility.yul\":7759:7825   */\n      tag_71\n      jump\t// in\n    tag_163:\n        /* \"#utility.yul\":7752:7825   */\n      swap2\n      pop\n        /* \"#utility.yul\":7834:7927   */\n      tag_164\n        /* \"#utility.yul\":7923:7926   */\n      dup3\n        /* \"#utility.yul\":7834:7927   */\n      tag_85\n      jump\t// in\n    tag_164:\n        /* \"#utility.yul\":7952:7954   */\n      0x20\n        /* \"#utility.yul\":7947:7950   */\n      dup3\n        /* \"#utility.yul\":7943:7955   */\n      add\n        /* \"#utility.yul\":7936:7955   */\n      swap1\n      pop\n        /* \"#utility.yul\":7596:7961   */\n      swap2\n      swap1\n      pop\n      jump\t// out\n        /* \"#utility.yul\":7967:8691   */\n    tag_55:\n        /* \"#utility.yul\":8206:8210   */\n      0x00\n        /* \"#utility.yul\":8244:8246   */\n      0x60\n        /* \"#utility.yul\":8233:8242   */\n      dup3\n        /* \"#utility.yul\":8229:8247   */\n      add\n        /* \"#utility.yul\":8221:8247   */\n      swap1\n      pop\n        /* \"#utility.yul\":8257:8328   */\n      tag_166\n        /* \"#utility.yul\":8325:8326   */\n      0x00\n        /* \"#utility.yul\":8314:8323   */\n      dup4\n        /* \"#utility.yul\":8310:8327   */\n      add\n        /* \"#utility.yul\":8301:8307   */\n      dup6\n        /* \"#utility.yul\":8257:8328   */\n      tag_68\n      jump\t// in\n    tag_166:\n        /* \"#utility.yul\":8375:8384   */\n      dup2\n        /* \"#utility.yul\":8369:8373   */\n      dup2\n        /* \"#utility.yul\":8365:8385   */\n      sub\n        /* \"#utility.yul\":8360:8362   */\n      0x20\n        /* \"#utility.yul\":8349:8358   */\n      dup4\n        /* \"#utility.yul\":8345:8363   */\n      add\n        /* \"#utility.yul\":8338:8386   */\n      mstore\n        /* \"#utility.yul\":8403:8478   */\n      tag_167\n        /* \"#utility.yul\":8473:8477   */\n      dup2\n        /* \"#utility.yul\":8464:8470   */\n      dup5\n        /* \"#utility.yul\":8403:8478   */\n      tag_73\n      jump\t// in\n    tag_167:\n        /* \"#utility.yul\":8395:8478   */\n      swap1\n      pop\n        /* \"#utility.yul\":8525:8534   */\n      dup2\n        /* \"#utility.yul\":8519:8523   */\n      dup2\n        /* \"#utility.yul\":8515:8535   */\n      sub\n        /* \"#utility.yul\":8510:8512   */\n      0x40\n        /* \"#utility.yul\":8499:8508   */\n      dup4\n        /* \"#utility.yul\":8495:8513   */\n      add\n        /* \"#utility.yul\":8488:8536   */\n      mstore\n        /* \"#utility.yul\":8553:8684   */\n      tag_168\n        /* \"#utility.yul\":8679:8683   */\n      dup2\n        /* \"#utility.yul\":8553:8684   */\n      tag_86\n      jump\t// in\n    tag_168:\n        /* \"#utility.yul\":8545:8684   */\n      swap1\n      pop\n        /* \"#utility.yul\":7967:8691   */\n      swap4\n      swap3\n      pop\n      pop\n      pop\n      jump\t// out\n        /* \"#utility.yul\":8697:8815   */\n    tag_87:\n        /* \"#utility.yul\":8784:8808   */\n      tag_170\n        /* \"#utility.yul\":8802:8807   */\n      dup2\n        /* \"#utility.yul\":8784:8808   */\n      tag_64\n      jump\t// in\n    tag_170:\n        /* \"#utility.yul\":8779:8782   */\n      dup3\n        /* \"#utility.yul\":8772:8809   */\n      mstore\n        /* \"#utility.yul\":8697:8815   */\n      pop\n      pop\n      jump\t// out\n        /* \"#utility.yul\":8821:9043   */\n    tag_60:\n        /* \"#utility.yul\":8914:8918   */\n      0x00\n        /* \"#utility.yul\":8952:8954   */\n      0x20\n        /* \"#utility.yul\":8941:8950   */\n      dup3\n        /* \"#utility.yul\":8937:8955   */\n      add\n        /* \"#utility.yul\":8929:8955   */\n      swap1\n      pop\n        /* \"#utility.yul\":8965:9036   */\n      tag_172\n        /* \"#utility.yul\":9033:9034   */\n      0x00\n        /* \"#utility.yul\":9022:9031   */\n      dup4\n        /* \"#utility.yul\":9018:9035   */\n      add\n        /* \"#utility.yul\":9009:9015   */\n      dup5\n        /* \"#utility.yul\":8965:9036   */\n      tag_87\n      jump\t// in\n    tag_172:\n        /* \"#utility.yul\":8821:9043   */\n      swap3\n      swap2\n      pop\n      pop\n      jump\t// out\n        /* \"#utility.yul\":9049:9128   */\n    tag_88:\n        /* \"#utility.yul\":9088:9095   */\n      0x00\n        /* \"#utility.yul\":9117:9122   */\n      dup2\n        /* \"#utility.yul\":9106:9122   */\n      swap1\n      pop\n        /* \"#utility.yul\":9049:9128   */\n      swap2\n      swap1\n      pop\n      jump\t// out\n        /* \"#utility.yul\":9134:9291   */\n    tag_89:\n        /* \"#utility.yul\":9239:9284   */\n      tag_175\n        /* \"#utility.yul\":9259:9283   */\n      tag_176\n        /* \"#utility.yul\":9277:9282   */\n      dup3\n        /* \"#utility.yul\":9259:9283   */\n      tag_64\n      jump\t// in\n    tag_176:\n        /* \"#utility.yul\":9239:9284   */\n      tag_88\n      jump\t// in\n    tag_175:\n        /* \"#utility.yul\":9234:9237   */\n      dup3\n        /* \"#utility.yul\":9227:9285   */\n      mstore\n        /* \"#utility.yul\":9134:9291   */\n      pop\n      pop\n      jump\t// out\n        /* \"#utility.yul\":9297:9391   */\n    tag_90:\n        /* \"#utility.yul\":9330:9338   */\n      0x00\n        /* \"#utility.yul\":9378:9383   */\n      dup2\n        /* \"#utility.yul\":9374:9376   */\n      0x60\n        /* \"#utility.yul\":9370:9384   */\n      shl\n        /* \"#utility.yul\":9349:9384   */\n      swap1\n      pop\n        /* \"#utility.yul\":9297:9391   */\n      swap2\n      swap1\n      pop\n      jump\t// out\n        /* \"#utility.yul\":9397:9491   */\n    tag_91:\n        /* \"#utility.yul\":9436:9443   */\n      0x00\n        /* \"#utility.yul\":9465:9485   */\n      tag_179\n        /* \"#utility.yul\":9479:9484   */\n      dup3\n        /* \"#utility.yul\":9465:9485   */\n      tag_90\n      jump\t// in\n    tag_179:\n        /* \"#utility.yul\":9454:9485   */\n      swap1\n      pop\n        /* \"#utility.yul\":9397:9491   */\n      swap2\n      swap1\n      pop\n      jump\t// out\n        /* \"#utility.yul\":9497:9597   */\n    tag_92:\n        /* \"#utility.yul\":9536:9543   */\n      0x00\n        /* \"#utility.yul\":9565:9591   */\n      tag_181\n        /* \"#utility.yul\":9585:9590   */\n      dup3\n        /* \"#utility.yul\":9565:9591   */\n      tag_91\n      jump\t// in\n    tag_181:\n        /* \"#utility.yul\":9554:9591   */\n      swap1\n      pop\n        /* \"#utility.yul\":9497:9597   */\n      swap2\n      swap1\n      pop\n      jump\t// out\n        /* \"#utility.yul\":9603:9760   */\n    tag_93:\n        /* \"#utility.yul\":9708:9753   */\n      tag_183\n        /* \"#utility.yul\":9728:9752   */\n      tag_184\n        /* \"#utility.yul\":9746:9751   */\n      dup3\n        /* \"#utility.yul\":9728:9752   */\n      tag_67\n      jump\t// in\n    tag_184:\n        /* \"#utility.yul\":9708:9753   */\n      tag_92\n      jump\t// in\n    tag_183:\n        /* \"#utility.yul\":9703:9706   */\n      dup3\n        /* \"#utility.yul\":9696:9754   */\n      mstore\n        /* \"#utility.yul\":9603:9760   */\n      pop\n      pop\n      jump\t// out\n        /* \"#utility.yul\":9766:10304   */\n    tag_63:\n        /* \"#utility.yul\":9934:9937   */\n      0x00\n        /* \"#utility.yul\":9949:10024   */\n      tag_186\n        /* \"#utility.yul\":10020:10023   */\n      dup3\n        /* \"#utility.yul\":10011:10017   */\n      dup7\n        /* \"#utility.yul\":9949:10024   */\n      tag_89\n      jump\t// in\n    tag_186:\n        /* \"#utility.yul\":10049:10051   */\n      0x20\n        /* \"#utility.yul\":10044:10047   */\n      dup3\n        /* \"#utility.yul\":10040:10052   */\n      add\n        /* \"#utility.yul\":10033:10052   */\n      swap2\n      pop\n        /* \"#utility.yul\":10062:10137   */\n      tag_187\n        /* \"#utility.yul\":10133:10136   */\n      dup3\n        /* \"#utility.yul\":10124:10130   */\n      dup6\n        /* \"#utility.yul\":10062:10137   */\n      tag_89\n      jump\t// in\n    tag_187:\n        /* \"#utility.yul\":10162:10164   */\n      0x20\n        /* \"#utility.yul\":10157:10160   */\n      dup3\n        /* \"#utility.yul\":10153:10165   */\n      add\n        /* \"#utility.yul\":10146:10165   */\n      swap2\n      pop\n        /* \"#utility.yul\":10175:10250   */\n      tag_188\n        /* \"#utility.yul\":10246:10249   */\n      dup3\n        /* \"#utility.yul\":10237:10243   */\n      dup5\n        /* \"#utility.yul\":10175:10250   */\n      tag_93\n      jump\t// in\n    tag_188:\n        /* \"#utility.yul\":10275:10277   */\n      0x14\n        /* \"#utility.yul\":10270:10273   */\n      dup3\n        /* \"#utility.yul\":10266:10278   */\n      add\n        /* \"#utility.yul\":10259:10278   */\n      swap2\n      pop\n        /* \"#utility.yul\":10295:10298   */\n      dup2\n        /* \"#utility.yul\":10288:10298   */\n      swap1\n      pop\n        /* \"#utility.yul\":9766:10304   */\n      swap5\n      swap4\n      pop\n      pop\n      pop\n      pop\n      jump\t// out\n\n    auxdata: 0xa2646970667358221220f724bfd027d79bb559928e92fc70a9225703ee5bfde01c00c3d0e447d1a0e01864736f6c63430008140033\n}\n",
				"bytecode": {
					"linkReferences": {},
					"object": "60806040526040518061014001604052806040518060400160405280600581526020017f313030303100000000000000000000000000000000000000000000000000000081525081526020016040518060400160405280600581526020017f313030303200000000000000000000000000000000000000000000000000000081525081526020016040518060400160405280600581526020017f313030303300000000000000000000000000000000000000000000000000000081525081526020016040518060400160405280600581526020017f313030303400000000000000000000000000000000000000000000000000000081525081526020016040518060400160405280600581526020017f313030303500000000000000000000000000000000000000000000000000000081525081526020016040518060400160405280600581526020017f313030303600000000000000000000000000000000000000000000000000000081525081526020016040518060400160405280600581526020017f313030303700000000000000000000000000000000000000000000000000000081525081526020016040518060400160405280600581526020017f313030303800000000000000000000000000000000000000000000000000000081525081526020016040518060400160405280600581526020017f313030303900000000000000000000000000000000000000000000000000000081525081526020016040518060400160405280600581526020017f3230303031000000000000000000000000000000000000000000000000000000815250815250600290600a6200026e92919062000681565b506040518060a001604052806040518060400160405280600581526020017f323030303200000000000000000000000000000000000000000000000000000081525081526020016040518060400160405280600581526020017f323030303300000000000000000000000000000000000000000000000000000081525081526020016040518060400160405280600581526020017f323030303400000000000000000000000000000000000000000000000000000081525081526020016040518060400160405280600581526020017f323030303500000000000000000000000000000000000000000000000000000081525081526020016040518060400160405280600581526020017f32303030360000000000000000000000000000000000000000000000000000008152508152506003906005620003b1929190620006df565b5060405180608001604052806040518060400160405280600581526020017f333030303100000000000000000000000000000000000000000000000000000081525081526020016040518060400160405280600581526020017f333030303200000000000000000000000000000000000000000000000000000081525081526020016040518060400160405280600581526020017f333030303300000000000000000000000000000000000000000000000000000081525081526020016040518060400160405280600581526020017f33303030340000000000000000000000000000000000000000000000000000008152508152506004906004620004b99291906200073d565b5060405180606001604052806040518060400160405280600581526020017f343030303100000000000000000000000000000000000000000000000000000081525081526020016040518060400160405280600581526020017f343030303200000000000000000000000000000000000000000000000000000081525081526020016040518060400160405280600581526020017f34303030330000000000000000000000000000000000000000000000000000008152508152506005906003620005869291906200079b565b5034801562000593575f80fd5b506040516200162b3803806200162b8339818101604052810190620005b99190620008e5565b8260065f6101000a81548173ffffffffffffffffffffffffffffffffffffffff021916908373ffffffffffffffffffffffffffffffffffffffff160217905550815f806101000a81548173ffffffffffffffffffffffffffffffffffffffff021916908373ffffffffffffffffffffffffffffffffffffffff1602179055508160015f6101000a81548173ffffffffffffffffffffffffffffffffffffffff021916908373ffffffffffffffffffffffffffffffffffffffff16021790555050505062000c86565b828054828255905f5260205f20908101928215620006cc579160200282015b82811115620006cb578251829081620006ba919062000ba2565b5091602001919060010190620006a0565b5b509050620006db9190620007f9565b5090565b828054828255905f5260205f209081019282156200072a579160200282015b828111156200072957825182908162000718919062000ba2565b5091602001919060010190620006fe565b5b509050620007399190620007f9565b5090565b828054828255905f5260205f2090810192821562000788579160200282015b828111156200078757825182908162000776919062000ba2565b50916020019190600101906200075c565b5b509050620007979190620007f9565b5090565b828054828255905f5260205f20908101928215620007e6579160200282015b82811115620007e5578251829081620007d4919062000ba2565b5091602001919060010190620007ba565b5b509050620007f59190620007f9565b5090565b5b808211156200081c575f818162000812919062000820565b50600101620007fa565b5090565b5080546200082e90620009a2565b5f825580601f1062000841575062000860565b601f0160209004905f5260205f20908101906200085f919062000863565b5b50565b5b808211156200087c575f815f90555060010162000864565b5090565b5f80fd5b5f73ffffffffffffffffffffffffffffffffffffffff82169050919050565b5f620008af8262000884565b9050919050565b620008c181620008a3565b8114620008cc575f80fd5b50565b5f81519050620008df81620008b6565b92915050565b5f805f60608486031215620008ff57620008fe62000880565b5b5f6200090e86828701620008cf565b93505060206200092186828701620008cf565b92505060406200093486828701620008cf565b9150509250925092565b5f81519050919050565b7f4e487b71000000000000000000000000000000000000000000000000000000005f52604160045260245ffd5b7f4e487b71000000000000000000000000000000000000000000000000000000005f52602260045260245ffd5b5f6002820490506001821680620009ba57607f821691505b602082108103620009d057620009cf62000975565b5b50919050565b5f819050815f5260205f209050919050565b5f6020601f8301049050919050565b5f82821b905092915050565b5f6008830262000a347fffffffffffffffffffffffffffffffffffffffffffffffffffffffffffffffff82620009f7565b62000a408683620009f7565b95508019841693508086168417925050509392505050565b5f819050919050565b5f819050919050565b5f62000a8a62000a8462000a7e8462000a58565b62000a61565b62000a58565b9050919050565b5f819050919050565b62000aa58362000a6a565b62000abd62000ab48262000a91565b84845462000a03565b825550505050565b5f90565b62000ad362000ac5565b62000ae081848462000a9a565b505050565b5b8181101562000b075762000afb5f8262000ac9565b60018101905062000ae6565b5050565b601f82111562000b565762000b2081620009d6565b62000b2b84620009e8565b8101602085101562000b3b578190505b62000b5362000b4a85620009e8565b83018262000ae5565b50505b505050565b5f82821c905092915050565b5f62000b785f198460080262000b5b565b1980831691505092915050565b5f62000b92838362000b67565b9150826002028217905092915050565b62000bad826200093e565b67ffffffffffffffff81111562000bc95762000bc862000948565b5b62000bd58254620009a2565b62000be282828562000b0b565b5f60209050601f83116001811462000c18575f841562000c03578287015190505b62000c0f858262000b85565b86555062000c7e565b601f19841662000c2886620009d6565b5f5b8281101562000c515784890151825560018201915060208501945060208101905062000c2a565b8683101562000c71578489015162000c6d601f89168262000b67565b8355505b6001600288020188555050505b505050505050565b6109978062000c945f395ff3fe608060405234801561000f575f80fd5b5060043610610029575f3560e01c80632f5be23e1461002d575b5f80fd5b610035610037565b005b5f6103e861004361040e565b61004d9190610477565b90505f61032082101561012e5760065f9054906101000a900473ffffffffffffffffffffffffffffffffffffffff1673ffffffffffffffffffffffffffffffffffffffff1663477bf17733600280805490506100a761040e565b6100b19190610477565b815481106100c2576100c16104a7565b5b905f5260205f20016040518363ffffffff1660e01b81526004016100e792919061065d565b6020604051808303815f875af1158015610103573d5f803e3d5ffd5b505050506040513d601f19601f8201168201806040525081019061012791906106cc565b90506103bc565b6103c082101561020c5760065f9054906101000a900473ffffffffffffffffffffffffffffffffffffffff1673ffffffffffffffffffffffffffffffffffffffff1663477bf177336003808054905061018561040e565b61018f9190610477565b815481106101a05761019f6104a7565b5b905f5260205f20016040518363ffffffff1660e01b81526004016101c5929190610741565b6020604051808303815f875af11580156101e1573d5f803e3d5ffd5b505050506040513d601f19601f8201168201806040525081019061020591906106cc565b90506103bb565b6103e08210156102ea5760065f9054906101000a900473ffffffffffffffffffffffffffffffffffffffff1673ffffffffffffffffffffffffffffffffffffffff1663477bf177336004808054905061026361040e565b61026d9190610477565b8154811061027e5761027d6104a7565b5b905f5260205f20016040518363ffffffff1660e01b81526004016102a39291906107cc565b6020604051808303815f875af11580156102bf573d5f803e3d5ffd5b505050506040513d601f19601f820116820180604052508101906102e391906106cc565b90506103ba565b60065f9054906101000a900473ffffffffffffffffffffffffffffffffffffffff1673ffffffffffffffffffffffffffffffffffffffff1663477bf177336005808054905061033761040e565b6103419190610477565b81548110610352576103516104a7565b5b905f5260205f20016040518363ffffffff1660e01b8152600401610377929190610857565b6020604051808303815f875af1158015610393573d5f803e3d5ffd5b505050506040513d601f19601f820116820180604052508101906103b791906106cc565b90505b5b5b3373ffffffffffffffffffffffffffffffffffffffff167f267422fa3a8c9525acb851824d5f4579f8de0442b971deef203719962e3b9d4a8260405161040291906108a7565b60405180910390a25050565b5f42443360405160200161042493929190610925565b604051602081830303815290604052805190602001205f1c905090565b5f819050919050565b7f4e487b71000000000000000000000000000000000000000000000000000000005f52601260045260245ffd5b5f61048182610441565b915061048c83610441565b92508261049c5761049b61044a565b5b828206905092915050565b7f4e487b71000000000000000000000000000000000000000000000000000000005f52603260045260245ffd5b5f73ffffffffffffffffffffffffffffffffffffffff82169050919050565b5f6104fd826104d4565b9050919050565b61050d816104f3565b82525050565b7f4e487b71000000000000000000000000000000000000000000000000000000005f52602260045260245ffd5b5f600282049050600182168061055757607f821691505b60208210810361056a57610569610513565b5b50919050565b5f82825260208201905092915050565b5f819050815f5260205f209050919050565b5f815461059e81610540565b6105a88186610570565b9450600182165f81146105c257600181146105d85761060a565b60ff19831686528115156020028601935061060a565b6105e185610580565b5f5b83811015610602578154818901526001820191506020810190506105e3565b808801955050505b50505092915050565b7f35300000000000000000000000000000000000000000000000000000000000005f82015250565b5f610647600283610570565b915061065282610613565b602082019050919050565b5f6060820190506106705f830185610504565b81810360208301526106828184610592565b905081810360408301526106958161063b565b90509392505050565b5f80fd5b6106ab81610441565b81146106b5575f80fd5b50565b5f815190506106c6816106a2565b92915050565b5f602082840312156106e1576106e061069e565b5b5f6106ee848285016106b8565b91505092915050565b7f31303000000000000000000000000000000000000000000000000000000000005f82015250565b5f61072b600383610570565b9150610736826106f7565b602082019050919050565b5f6060820190506107545f830185610504565b81810360208301526107668184610592565b905081810360408301526107798161071f565b90509392505050565b7f32303000000000000000000000000000000000000000000000000000000000005f82015250565b5f6107b6600383610570565b91506107c182610782565b602082019050919050565b5f6060820190506107df5f830185610504565b81810360208301526107f18184610592565b90508181036040830152610804816107aa565b90509392505050565b7f34303000000000000000000000000000000000000000000000000000000000005f82015250565b5f610841600383610570565b915061084c8261080d565b602082019050919050565b5f60608201905061086a5f830185610504565b818103602083015261087c8184610592565b9050818103604083015261088f81610835565b90509392505050565b6108a181610441565b82525050565b5f6020820190506108ba5f830184610898565b92915050565b5f819050919050565b6108da6108d582610441565b6108c0565b82525050565b5f8160601b9050919050565b5f6108f6826108e0565b9050919050565b5f610907826108ec565b9050919050565b61091f61091a826104f3565b6108fd565b82525050565b5f61093082866108c9565b60208201915061094082856108c9565b602082019150610950828461090e565b60148201915081905094935050505056fea2646970667358221220f724bfd027d79bb559928e92fc70a9225703ee5bfde01c00c3d0e447d1a0e01864736f6c63430008140033",
					"opcodes": "PUSH1 0x80 PUSH1 0x40 MSTORE PUSH1 0x40 MLOAD DUP1 PUSH2 0x140 ADD PUSH1 0x40 MSTORE DUP1 PUSH1 0x40 MLOAD DUP1 PUSH1 0x40 ADD PUSH1 0x40 MSTORE DUP1 PUSH1 0x5 DUP2 MSTORE PUSH1 0x20 ADD PUSH32 0x3130303031000000000000000000000000000000000000000000000000000000 DUP2 MSTORE POP DUP2 MSTORE PUSH1 0x20 ADD PUSH1 0x40 MLOAD DUP1 PUSH1 0x40 ADD PUSH1 0x40 MSTORE DUP1 PUSH1 0x5 DUP2 MSTORE PUSH1 0x20 ADD PUSH32 0x3130303032000000000000000000000000000000000000000000000000000000 DUP2 MSTORE POP DUP2 MSTORE PUSH1 0x20 ADD PUSH1 0x40 MLOAD DUP1 PUSH1 0x40 ADD PUSH1 0x40 MSTORE DUP1 PUSH1 0x5 DUP2 MSTORE PUSH1 0x20 ADD PUSH32 0x3130303033000000000000000000000000000000000000000000000000000000 DUP2 MSTORE POP DUP2 MSTORE PUSH1 0x20 ADD PUSH1 0x40 MLOAD DUP1 PUSH1 0x40 ADD PUSH1 0x40 MSTORE DUP1 PUSH1 0x5 DUP2 MSTORE PUSH1 0x20 ADD PUSH32 0x3130303034000000000000000000000000000000000000000000000000000000 DUP2 MSTORE POP DUP2 MSTORE PUSH1 0x20 ADD PUSH1 0x40 MLOAD DUP1 PUSH1 0x40 ADD PUSH1 0x40 MSTORE DUP1 PUSH1 0x5 DUP2 MSTORE PUSH1 0x20 ADD PUSH32 0x3130303035000000000000000000000000000000000000000000000000000000 DUP2 MSTORE POP DUP2 MSTORE PUSH1 0x20 ADD PUSH1 0x40 MLOAD DUP1 PUSH1 0x40 ADD PUSH1 0x40 MSTORE DUP1 PUSH1 0x5 DUP2 MSTORE PUSH1 0x20 ADD PUSH32 0x3130303036000000000000000000000000000000000000000000000000000000 DUP2 MSTORE POP DUP2 MSTORE PUSH1 0x20 ADD PUSH1 0x40 MLOAD DUP1 PUSH1 0x40 ADD PUSH1 0x40 MSTORE DUP1 PUSH1 0x5 DUP2 MSTORE PUSH1 0x20 ADD PUSH32 0x3130303037000000000000000000000000000000000000000000000000000000 DUP2 MSTORE POP DUP2 MSTORE PUSH1 0x20 ADD PUSH1 0x40 MLOAD DUP1 PUSH1 0x40 ADD PUSH1 0x40 MSTORE DUP1 PUSH1 0x5 DUP2 MSTORE PUSH1 0x20 ADD PUSH32 0x3130303038000000000000000000000000000000000000000000000000000000 DUP2 MSTORE POP DUP2 MSTORE PUSH1 0x20 ADD PUSH1 0x40 MLOAD DUP1 PUSH1 0x40 ADD PUSH1 0x40 MSTORE DUP1 PUSH1 0x5 DUP2 MSTORE PUSH1 0x20 ADD PUSH32 0x3130303039000000000000000000000000000000000000000000000000000000 DUP2 MSTORE POP DUP2 MSTORE PUSH1 0x20 ADD PUSH1 0x40 MLOAD DUP1 PUSH1 0x40 ADD PUSH1 0x40 MSTORE DUP1 PUSH1 0x5 DUP2 MSTORE PUSH1 0x20 ADD PUSH32 0x3230303031000000000000000000000000000000000000000000000000000000 DUP2 MSTORE POP DUP2 MSTORE POP PUSH1 0x2 SWAP1 PUSH1 0xA PUSH3 0x26E SWAP3 SWAP2 SWAP1 PUSH3 0x681 JUMP JUMPDEST POP PUSH1 0x40 MLOAD DUP1 PUSH1 0xA0 ADD PUSH1 0x40 MSTORE DUP1 PUSH1 0x40 MLOAD DUP1 PUSH1 0x40 ADD PUSH1 0x40 MSTORE DUP1 PUSH1 0x5 DUP2 MSTORE PUSH1 0x20 ADD PUSH32 0x3230303032000000000000000000000000000000000000000000000000000000 DUP2 MSTORE POP DUP2 MSTORE PUSH1 0x20 ADD PUSH1 0x40 MLOAD DUP1 PUSH1 0x40 ADD PUSH1 0x40 MSTORE DUP1 PUSH1 0x5 DUP2 MSTORE PUSH1 0x20 ADD PUSH32 0x3230303033000000000000000000000000000000000000000000000000000000 DUP2 MSTORE POP DUP2 MSTORE PUSH1 0x20 ADD PUSH1 0x40 MLOAD DUP1 PUSH1 0x40 ADD PUSH1 0x40 MSTORE DUP1 PUSH1 0x5 DUP2 MSTORE PUSH1 0x20 ADD PUSH32 0x3230303034000000000000000000000000000000000000000000000000000000 DUP2 MSTORE POP DUP2 MSTORE PUSH1 0x20 ADD PUSH1 0x40 MLOAD DUP1 PUSH1 0x40 ADD PUSH1 0x40 MSTORE DUP1 PUSH1 0x5 DUP2 MSTORE PUSH1 0x20 ADD PUSH32 0x3230303035000000000000000000000000000000000000000000000000000000 DUP2 MSTORE POP DUP2 MSTORE PUSH1 0x20 ADD PUSH1 0x40 MLOAD DUP1 PUSH1 0x40 ADD PUSH1 0x40 MSTORE DUP1 PUSH1 0x5 DUP2 MSTORE PUSH1 0x20 ADD PUSH32 0x3230303036000000000000000000000000000000000000000000000000000000 DUP2 MSTORE POP DUP2 MSTORE POP PUSH1 0x3 SWAP1 PUSH1 0x5 PUSH3 0x3B1 SWAP3 SWAP2 SWAP1 PUSH3 0x6DF JUMP JUMPDEST POP PUSH1 0x40 MLOAD DUP1 PUSH1 0x80 ADD PUSH1 0x40 MSTORE DUP1 PUSH1 0x40 MLOAD DUP1 PUSH1 0x40 ADD PUSH1 0x40 MSTORE DUP1 PUSH1 0x5 DUP2 MSTORE PUSH1 0x20 ADD PUSH32 0x3330303031000000000000000000000000000000000000000000000000000000 DUP2 MSTORE POP DUP2 MSTORE PUSH1 0x20 ADD PUSH1 0x40 MLOAD DUP1 PUSH1 0x40 ADD PUSH1 0x40 MSTORE DUP1 PUSH1 0x5 DUP2 MSTORE PUSH1 0x20 ADD PUSH32 0x3330303032000000000000000000000000000000000000000000000000000000 DUP2 MSTORE POP DUP2 MSTORE PUSH1 0x20 ADD PUSH1 0x40 MLOAD DUP1 PUSH1 0x40 ADD PUSH1 0x40 MSTORE DUP1 PUSH1 0x5 DUP2 MSTORE PUSH1 0x20 ADD PUSH32 0x3330303033000000000000000000000000000000000000000000000000000000 DUP2 MSTORE POP DUP2 MSTORE PUSH1 0x20 ADD PUSH1 0x40 MLOAD DUP1 PUSH1 0x40 ADD PUSH1 0x40 MSTORE DUP1 PUSH1 0x5 DUP2 MSTORE PUSH1 0x20 ADD PUSH32 0x3330303034000000000000000000000000000000000000000000000000000000 DUP2 MSTORE POP DUP2 MSTORE POP PUSH1 0x4 SWAP1 PUSH1 0x4 PUSH3 0x4B9 SWAP3 SWAP2 SWAP1 PUSH3 0x73D JUMP JUMPDEST POP PUSH1 0x40 MLOAD DUP1 PUSH1 0x60 ADD PUSH1 0x40 MSTORE DUP1 PUSH1 0x40 MLOAD DUP1 PUSH1 0x40 ADD PUSH1 0x40 MSTORE DUP1 PUSH1 0x5 DUP2 MSTORE PUSH1 0x20 ADD PUSH32 0x3430303031000000000000000000000000000000000000000000000000000000 DUP2 MSTORE POP DUP2 MSTORE PUSH1 0x20 ADD PUSH1 0x40 MLOAD DUP1 PUSH1 0x40 ADD PUSH1 0x40 MSTORE DUP1 PUSH1 0x5 DUP2 MSTORE PUSH1 0x20 ADD PUSH32 0x3430303032000000000000000000000000000000000000000000000000000000 DUP2 MSTORE POP DUP2 MSTORE PUSH1 0x20 ADD PUSH1 0x40 MLOAD DUP1 PUSH1 0x40 ADD PUSH1 0x40 MSTORE DUP1 PUSH1 0x5 DUP2 MSTORE PUSH1 0x20 ADD PUSH32 0x3430303033000000000000000000000000000000000000000000000000000000 DUP2 MSTORE POP DUP2 MSTORE POP PUSH1 0x5 SWAP1 PUSH1 0x3 PUSH3 0x586 SWAP3 SWAP2 SWAP1 PUSH3 0x79B JUMP JUMPDEST POP CALLVALUE DUP1 ISZERO PUSH3 0x593 JUMPI PUSH0 DUP1 REVERT JUMPDEST POP PUSH1 0x40 MLOAD PUSH3 0x162B CODESIZE SUB DUP1 PUSH3 0x162B DUP4 CODECOPY DUP2 DUP2 ADD PUSH1 0x40 MSTORE DUP2 ADD SWAP1 PUSH3 0x5B9 SWAP2 SWAP1 PUSH3 0x8E5 JUMP JUMPDEST DUP3 PUSH1 0x6 PUSH0 PUSH2 0x100 EXP DUP2 SLOAD DUP2 PUSH20 0xFFFFFFFFFFFFFFFFFFFFFFFFFFFFFFFFFFFFFFFF MUL NOT AND SWAP1 DUP4 PUSH20 0xFFFFFFFFFFFFFFFFFFFFFFFFFFFFFFFFFFFFFFFF AND MUL OR SWAP1 SSTORE POP DUP2 PUSH0 DUP1 PUSH2 0x100 EXP DUP2 SLOAD DUP2 PUSH20 0xFFFFFFFFFFFFFFFFFFFFFFFFFFFFFFFFFFFFFFFF MUL NOT AND SWAP1 DUP4 PUSH20 0xFFFFFFFFFFFFFFFFFFFFFFFFFFFFFFFFFFFFFFFF AND MUL OR SWAP1 SSTORE POP DUP2 PUSH1 0x1 PUSH0 PUSH2 0x100 EXP DUP2 SLOAD DUP2 PUSH20 0xFFFFFFFFFFFFFFFFFFFFFFFFFFFFFFFFFFFFFFFF MUL NOT AND SWAP1 DUP4 PUSH20 0xFFFFFFFFFFFFFFFFFFFFFFFFFFFFFFFFFFFFFFFF AND MUL OR SWAP1 SSTORE POP POP POP POP PUSH3 0xC86 JUMP JUMPDEST DUP3 DUP1 SLOAD DUP3 DUP3 SSTORE SWAP1 PUSH0 MSTORE PUSH1 0x20 PUSH0 KECCAK256 SWAP1 DUP2 ADD SWAP3 DUP3 ISZERO PUSH3 0x6CC JUMPI SWAP2 PUSH1 0x20 MUL DUP3 ADD JUMPDEST DUP3 DUP2 GT ISZERO PUSH3 0x6CB JUMPI DUP3 MLOAD DUP3 SWAP1 DUP2 PUSH3 0x6BA SWAP2 SWAP1 PUSH3 0xBA2 JUMP JUMPDEST POP SWAP2 PUSH1 0x20 ADD SWAP2 SWAP1 PUSH1 0x1 ADD SWAP1 PUSH3 0x6A0 JUMP JUMPDEST JUMPDEST POP SWAP1 POP PUSH3 0x6DB SWAP2 SWAP1 PUSH3 0x7F9 JUMP JUMPDEST POP SWAP1 JUMP JUMPDEST DUP3 DUP1 SLOAD DUP3 DUP3 SSTORE SWAP1 PUSH0 MSTORE PUSH1 0x20 PUSH0 KECCAK256 SWAP1 DUP2 ADD SWAP3 DUP3 ISZERO PUSH3 0x72A JUMPI SWAP2 PUSH1 0x20 MUL DUP3 ADD JUMPDEST DUP3 DUP2 GT ISZERO PUSH3 0x729 JUMPI DUP3 MLOAD DUP3 SWAP1 DUP2 PUSH3 0x718 SWAP2 SWAP1 PUSH3 0xBA2 JUMP JUMPDEST POP SWAP2 PUSH1 0x20 ADD SWAP2 SWAP1 PUSH1 0x1 ADD SWAP1 PUSH3 0x6FE JUMP JUMPDEST JUMPDEST POP SWAP1 POP PUSH3 0x739 SWAP2 SWAP1 PUSH3 0x7F9 JUMP JUMPDEST POP SWAP1 JUMP JUMPDEST DUP3 DUP1 SLOAD DUP3 DUP3 SSTORE SWAP1 PUSH0 MSTORE PUSH1 0x20 PUSH0 KECCAK256 SWAP1 DUP2 ADD SWAP3 DUP3 ISZERO PUSH3 0x788 JUMPI SWAP2 PUSH1 0x20 MUL DUP3 ADD JUMPDEST DUP3 DUP2 GT ISZERO PUSH3 0x787 JUMPI DUP3 MLOAD DUP3 SWAP1 DUP2 PUSH3 0x776 SWAP2 SWAP1 PUSH3 0xBA2 JUMP JUMPDEST POP SWAP2 PUSH1 0x20 ADD SWAP2 SWAP1 PUSH1 0x1 ADD SWAP1 PUSH3 0x75C JUMP JUMPDEST JUMPDEST POP SWAP1 POP PUSH3 0x797 SWAP2 SWAP1 PUSH3 0x7F9 JUMP JUMPDEST POP SWAP1 JUMP JUMPDEST DUP3 DUP1 SLOAD DUP3 DUP3 SSTORE SWAP1 PUSH0 MSTORE PUSH1 0x20 PUSH0 KECCAK256 SWAP1 DUP2 ADD SWAP3 DUP3 ISZERO PUSH3 0x7E6 JUMPI SWAP2 PUSH1 0x20 MUL DUP3 ADD JUMPDEST DUP3 DUP2 GT ISZERO PUSH3 0x7E5 JUMPI DUP3 MLOAD DUP3 SWAP1 DUP2 PUSH3 0x7D4 SWAP2 SWAP1 PUSH3 0xBA2 JUMP JUMPDEST POP SWAP2 PUSH1 0x20 ADD SWAP2 SWAP1 PUSH1 0x1 ADD SWAP1 PUSH3 0x7BA JUMP JUMPDEST JUMPDEST POP SWAP1 POP PUSH3 0x7F5 SWAP2 SWAP1 PUSH3 0x7F9 JUMP JUMPDEST POP SWAP1 JUMP JUMPDEST JUMPDEST DUP1 DUP3 GT ISZERO PUSH3 0x81C JUMPI PUSH0 DUP2 DUP2 PUSH3 0x812 SWAP2 SWAP1 PUSH3 0x820 JUMP JUMPDEST POP PUSH1 0x1 ADD PUSH3 0x7FA JUMP JUMPDEST POP SWAP1 JUMP JUMPDEST POP DUP1 SLOAD PUSH3 0x82E SWAP1 PUSH3 0x9A2 JUMP JUMPDEST PUSH0 DUP3 SSTORE DUP1 PUSH1 0x1F LT PUSH3 0x841 JUMPI POP PUSH3 0x860 JUMP JUMPDEST PUSH1 0x1F ADD PUSH1 0x20 SWAP1 DIV SWAP1 PUSH0 MSTORE PUSH1 0x20 PUSH0 KECCAK256 SWAP1 DUP2 ADD SWAP1 PUSH3 0x85F SWAP2 SWAP1 PUSH3 0x863 JUMP JUMPDEST JUMPDEST POP JUMP JUMPDEST JUMPDEST DUP1 DUP3 GT ISZERO PUSH3 0x87C JUMPI PUSH0 DUP2 PUSH0 SWAP1 SSTORE POP PUSH1 0x1 ADD PUSH3 0x864 JUMP JUMPDEST POP SWAP1 JUMP JUMPDEST PUSH0 DUP1 REVERT JUMPDEST PUSH0 PUSH20 0xFFFFFFFFFFFFFFFFFFFFFFFFFFFFFFFFFFFFFFFF DUP3 AND SWAP1 POP SWAP2 SWAP1 POP JUMP JUMPDEST PUSH0 PUSH3 0x8AF DUP3 PUSH3 0x884 JUMP JUMPDEST SWAP1 POP SWAP2 SWAP1 POP JUMP JUMPDEST PUSH3 0x8C1 DUP2 PUSH3 0x8A3 JUMP JUMPDEST DUP2 EQ PUSH3 0x8CC JUMPI PUSH0 DUP1 REVERT JUMPDEST POP JUMP JUMPDEST PUSH0 DUP2 MLOAD SWAP1 POP PUSH3 0x8DF DUP2 PUSH3 0x8B6 JUMP JUMPDEST SWAP3 SWAP2 POP POP JUMP JUMPDEST PUSH0 DUP1 PUSH0 PUSH1 0x60 DUP5 DUP7 SUB SLT ISZERO PUSH3 0x8FF JUMPI PUSH3 0x8FE PUSH3 0x880 JUMP JUMPDEST JUMPDEST PUSH0 PUSH3 0x90E DUP7 DUP3 DUP8 ADD PUSH3 0x8CF JUMP JUMPDEST SWAP4 POP POP PUSH1 0x20 PUSH3 0x921 DUP7 DUP3 DUP8 ADD PUSH3 0x8CF JUMP JUMPDEST SWAP3 POP POP PUSH1 0x40 PUSH3 0x934 DUP7 DUP3 DUP8 ADD PUSH3 0x8CF JUMP JUMPDEST SWAP2 POP POP SWAP3 POP SWAP3 POP SWAP3 JUMP JUMPDEST PUSH0 DUP2 MLOAD SWAP1 POP SWAP2 SWAP1 POP JUMP JUMPDEST PUSH32 0x4E487B7100000000000000000000000000000000000000000000000000000000 PUSH0 MSTORE PUSH1 0x41 PUSH1 0x4 MSTORE PUSH1 0x24 PUSH0 REVERT JUMPDEST PUSH32 0x4E487B7100000000000000000000000000000000000000000000000000000000 PUSH0 MSTORE PUSH1 0x22 PUSH1 0x4 MSTORE PUSH1 0x24 PUSH0 REVERT JUMPDEST PUSH0 PUSH1 0x2 DUP3 DIV SWAP1 POP PUSH1 0x1 DUP3 AND DUP1 PUSH3 0x9BA JUMPI PUSH1 0x7F DUP3 AND SWAP2 POP JUMPDEST PUSH1 0x20 DUP3 LT DUP2 SUB PUSH3 0x9D0 JUMPI PUSH3 0x9CF PUSH3 0x975 JUMP JUMPDEST JUMPDEST POP SWAP2 SWAP1 POP JUMP JUMPDEST PUSH0 DUP2 SWAP1 POP DUP2 PUSH0 MSTORE PUSH1 0x20 PUSH0 KECCAK256 SWAP1 POP SWAP2 SWAP1 POP JUMP JUMPDEST PUSH0 PUSH1 0x20 PUSH1 0x1F DUP4 ADD DIV SWAP1 POP SWAP2 SWAP1 POP JUMP JUMPDEST PUSH0 DUP3 DUP3 SHL SWAP1 POP SWAP3 SWAP2 POP POP JUMP JUMPDEST PUSH0 PUSH1 0x8 DUP4 MUL PUSH3 0xA34 PUSH32 0xFFFFFFFFFFFFFFFFFFFFFFFFFFFFFFFFFFFFFFFFFFFFFFFFFFFFFFFFFFFFFFFF DUP3 PUSH3 0x9F7 JUMP JUMPDEST PUSH3 0xA40 DUP7 DUP4 PUSH3 0x9F7 JUMP JUMPDEST SWAP6 POP DUP1 NOT DUP5 AND SWAP4 POP DUP1 DUP7 AND DUP5 OR SWAP3 POP POP POP SWAP4 SWAP3 POP POP POP JUMP JUMPDEST PUSH0 DUP2 SWAP1 POP SWAP2 SWAP1 POP JUMP JUMPDEST PUSH0 DUP2 SWAP1 POP SWAP2 SWAP1 POP JUMP JUMPDEST PUSH0 PUSH3 0xA8A PUSH3 0xA84 PUSH3 0xA7E DUP5 PUSH3 0xA58 JUMP JUMPDEST PUSH3 0xA61 JUMP JUMPDEST PUSH3 0xA58 JUMP JUMPDEST SWAP1 POP SWAP2 SWAP1 POP JUMP JUMPDEST PUSH0 DUP2 SWAP1 POP SWAP2 SWAP1 POP JUMP JUMPDEST PUSH3 0xAA5 DUP4 PUSH3 0xA6A JUMP JUMPDEST PUSH3 0xABD PUSH3 0xAB4 DUP3 PUSH3 0xA91 JUMP JUMPDEST DUP5 DUP5 SLOAD PUSH3 0xA03 JUMP JUMPDEST DUP3 SSTORE POP POP POP POP JUMP JUMPDEST PUSH0 SWAP1 JUMP JUMPDEST PUSH3 0xAD3 PUSH3 0xAC5 JUMP JUMPDEST PUSH3 0xAE0 DUP2 DUP5 DUP5 PUSH3 0xA9A JUMP JUMPDEST POP POP POP JUMP JUMPDEST JUMPDEST DUP2 DUP2 LT ISZERO PUSH3 0xB07 JUMPI PUSH3 0xAFB PUSH0 DUP3 PUSH3 0xAC9 JUMP JUMPDEST PUSH1 0x1 DUP2 ADD SWAP1 POP PUSH3 0xAE6 JUMP JUMPDEST POP POP JUMP JUMPDEST PUSH1 0x1F DUP3 GT ISZERO PUSH3 0xB56 JUMPI PUSH3 0xB20 DUP2 PUSH3 0x9D6 JUMP JUMPDEST PUSH3 0xB2B DUP5 PUSH3 0x9E8 JUMP JUMPDEST DUP2 ADD PUSH1 0x20 DUP6 LT ISZERO PUSH3 0xB3B JUMPI DUP2 SWAP1 POP JUMPDEST PUSH3 0xB53 PUSH3 0xB4A DUP6 PUSH3 0x9E8 JUMP JUMPDEST DUP4 ADD DUP3 PUSH3 0xAE5 JUMP JUMPDEST POP POP JUMPDEST POP POP POP JUMP JUMPDEST PUSH0 DUP3 DUP3 SHR SWAP1 POP SWAP3 SWAP2 POP POP JUMP JUMPDEST PUSH0 PUSH3 0xB78 PUSH0 NOT DUP5 PUSH1 0x8 MUL PUSH3 0xB5B JUMP JUMPDEST NOT DUP1 DUP4 AND SWAP2 POP POP SWAP3 SWAP2 POP POP JUMP JUMPDEST PUSH0 PUSH3 0xB92 DUP4 DUP4 PUSH3 0xB67 JUMP JUMPDEST SWAP2 POP DUP3 PUSH1 0x2 MUL DUP3 OR SWAP1 POP SWAP3 SWAP2 POP POP JUMP JUMPDEST PUSH3 0xBAD DUP3 PUSH3 0x93E JUMP JUMPDEST PUSH8 0xFFFFFFFFFFFFFFFF DUP2 GT ISZERO PUSH3 0xBC9 JUMPI PUSH3 0xBC8 PUSH3 0x948 JUMP JUMPDEST JUMPDEST PUSH3 0xBD5 DUP3 SLOAD PUSH3 0x9A2 JUMP JUMPDEST PUSH3 0xBE2 DUP3 DUP3 DUP6 PUSH3 0xB0B JUMP JUMPDEST PUSH0 PUSH1 0x20 SWAP1 POP PUSH1 0x1F DUP4 GT PUSH1 0x1 DUP2 EQ PUSH3 0xC18 JUMPI PUSH0 DUP5 ISZERO PUSH3 0xC03 JUMPI DUP3 DUP8 ADD MLOAD SWAP1 POP JUMPDEST PUSH3 0xC0F DUP6 DUP3 PUSH3 0xB85 JUMP JUMPDEST DUP7 SSTORE POP PUSH3 0xC7E JUMP JUMPDEST PUSH1 0x1F NOT DUP5 AND PUSH3 0xC28 DUP7 PUSH3 0x9D6 JUMP JUMPDEST PUSH0 JUMPDEST DUP3 DUP2 LT ISZERO PUSH3 0xC51 JUMPI DUP5 DUP10 ADD MLOAD DUP3 SSTORE PUSH1 0x1 DUP3 ADD SWAP2 POP PUSH1 0x20 DUP6 ADD SWAP5 POP PUSH1 0x20 DUP2 ADD SWAP1 POP PUSH3 0xC2A JUMP JUMPDEST DUP7 DUP4 LT ISZERO PUSH3 0xC71 JUMPI DUP5 DUP10 ADD MLOAD PUSH3 0xC6D PUSH1 0x1F DUP10 AND DUP3 PUSH3 0xB67 JUMP JUMPDEST DUP4 SSTORE POP JUMPDEST PUSH1 0x1 PUSH1 0x2 DUP9 MUL ADD DUP9 SSTORE POP POP POP JUMPDEST POP POP POP POP POP POP JUMP JUMPDEST PUSH2 0x997 DUP1 PUSH3 0xC94 PUSH0 CODECOPY PUSH0 RETURN INVALID PUSH1 0x80 PUSH1 0x40 MSTORE CALLVALUE DUP1 ISZERO PUSH2 0xF JUMPI PUSH0 DUP1 REVERT JUMPDEST POP PUSH1 0x4 CALLDATASIZE LT PUSH2 0x29 JUMPI PUSH0 CALLDATALOAD PUSH1 0xE0 SHR DUP1 PUSH4 0x2F5BE23E EQ PUSH2 0x2D JUMPI JUMPDEST PUSH0 DUP1 REVERT JUMPDEST PUSH2 0x35 PUSH2 0x37 JUMP JUMPDEST STOP JUMPDEST PUSH0 PUSH2 0x3E8 PUSH2 0x43 PUSH2 0x40E JUMP JUMPDEST PUSH2 0x4D SWAP2 SWAP1 PUSH2 0x477 JUMP JUMPDEST SWAP1 POP PUSH0 PUSH2 0x320 DUP3 LT ISZERO PUSH2 0x12E JUMPI PUSH1 0x6 PUSH0 SWAP1 SLOAD SWAP1 PUSH2 0x100 EXP SWAP1 DIV PUSH20 0xFFFFFFFFFFFFFFFFFFFFFFFFFFFFFFFFFFFFFFFF AND PUSH20 0xFFFFFFFFFFFFFFFFFFFFFFFFFFFFFFFFFFFFFFFF AND PUSH4 0x477BF177 CALLER PUSH1 0x2 DUP1 DUP1 SLOAD SWAP1 POP PUSH2 0xA7 PUSH2 0x40E JUMP JUMPDEST PUSH2 0xB1 SWAP2 SWAP1 PUSH2 0x477 JUMP JUMPDEST DUP2 SLOAD DUP2 LT PUSH2 0xC2 JUMPI PUSH2 0xC1 PUSH2 0x4A7 JUMP JUMPDEST JUMPDEST SWAP1 PUSH0 MSTORE PUSH1 0x20 PUSH0 KECCAK256 ADD PUSH1 0x40 MLOAD DUP4 PUSH4 0xFFFFFFFF AND PUSH1 0xE0 SHL DUP2 MSTORE PUSH1 0x4 ADD PUSH2 0xE7 SWAP3 SWAP2 SWAP1 PUSH2 0x65D JUMP JUMPDEST PUSH1 0x20 PUSH1 0x40 MLOAD DUP1 DUP4 SUB DUP2 PUSH0 DUP8 GAS CALL ISZERO DUP1 ISZERO PUSH2 0x103 JUMPI RETURNDATASIZE PUSH0 DUP1 RETURNDATACOPY RETURNDATASIZE PUSH0 REVERT JUMPDEST POP POP POP POP PUSH1 0x40 MLOAD RETURNDATASIZE PUSH1 0x1F NOT PUSH1 0x1F DUP3 ADD AND DUP3 ADD DUP1 PUSH1 0x40 MSTORE POP DUP2 ADD SWAP1 PUSH2 0x127 SWAP2 SWAP1 PUSH2 0x6CC JUMP JUMPDEST SWAP1 POP PUSH2 0x3BC JUMP JUMPDEST PUSH2 0x3C0 DUP3 LT ISZERO PUSH2 0x20C JUMPI PUSH1 0x6 PUSH0 SWAP1 SLOAD SWAP1 PUSH2 0x100 EXP SWAP1 DIV PUSH20 0xFFFFFFFFFFFFFFFFFFFFFFFFFFFFFFFFFFFFFFFF AND PUSH20 0xFFFFFFFFFFFFFFFFFFFFFFFFFFFFFFFFFFFFFFFF AND PUSH4 0x477BF177 CALLER PUSH1 0x3 DUP1 DUP1 SLOAD SWAP1 POP PUSH2 0x185 PUSH2 0x40E JUMP JUMPDEST PUSH2 0x18F SWAP2 SWAP1 PUSH2 0x477 JUMP JUMPDEST DUP2 SLOAD DUP2 LT PUSH2 0x1A0 JUMPI PUSH2 0x19F PUSH2 0x4A7 JUMP JUMPDEST JUMPDEST SWAP1 PUSH0 MSTORE PUSH1 0x20 PUSH0 KECCAK256 ADD PUSH1 0x40 MLOAD DUP4 PUSH4 0xFFFFFFFF AND PUSH1 0xE0 SHL DUP2 MSTORE PUSH1 0x4 ADD PUSH2 0x1C5 SWAP3 SWAP2 SWAP1 PUSH2 0x741 JUMP JUMPDEST PUSH1 0x20 PUSH1 0x40 MLOAD DUP1 DUP4 SUB DUP2 PUSH0 DUP8 GAS CALL ISZERO DUP1 ISZERO PUSH2 0x1E1 JUMPI RETURNDATASIZE PUSH0 DUP1 RETURNDATACOPY RETURNDATASIZE PUSH0 REVERT JUMPDEST POP POP POP POP PUSH1 0x40 MLOAD RETURNDATASIZE PUSH1 0x1F NOT PUSH1 0x1F DUP3 ADD AND DUP3 ADD DUP1 PUSH1 0x40 MSTORE POP DUP2 ADD SWAP1 PUSH2 0x205 SWAP2 SWAP1 PUSH2 0x6CC JUMP JUMPDEST SWAP1 POP PUSH2 0x3BB JUMP JUMPDEST PUSH2 0x3E0 DUP3 LT ISZERO PUSH2 0x2EA JUMPI PUSH1 0x6 PUSH0 SWAP1 SLOAD SWAP1 PUSH2 0x100 EXP SWAP1 DIV PUSH20 0xFFFFFFFFFFFFFFFFFFFFFFFFFFFFFFFFFFFFFFFF AND PUSH20 0xFFFFFFFFFFFFFFFFFFFFFFFFFFFFFFFFFFFFFFFF AND PUSH4 0x477BF177 CALLER PUSH1 0x4 DUP1 DUP1 SLOAD SWAP1 POP PUSH2 0x263 PUSH2 0x40E JUMP JUMPDEST PUSH2 0x26D SWAP2 SWAP1 PUSH2 0x477 JUMP JUMPDEST DUP2 SLOAD DUP2 LT PUSH2 0x27E JUMPI PUSH2 0x27D PUSH2 0x4A7 JUMP JUMPDEST JUMPDEST SWAP1 PUSH0 MSTORE PUSH1 0x20 PUSH0 KECCAK256 ADD PUSH1 0x40 MLOAD DUP4 PUSH4 0xFFFFFFFF AND PUSH1 0xE0 SHL DUP2 MSTORE PUSH1 0x4 ADD PUSH2 0x2A3 SWAP3 SWAP2 SWAP1 PUSH2 0x7CC JUMP JUMPDEST PUSH1 0x20 PUSH1 0x40 MLOAD DUP1 DUP4 SUB DUP2 PUSH0 DUP8 GAS CALL ISZERO DUP1 ISZERO PUSH2 0x2BF JUMPI RETURNDATASIZE PUSH0 DUP1 RETURNDATACOPY RETURNDATASIZE PUSH0 REVERT JUMPDEST POP POP POP POP PUSH1 0x40 MLOAD RETURNDATASIZE PUSH1 0x1F NOT PUSH1 0x1F DUP3 ADD AND DUP3 ADD DUP1 PUSH1 0x40 MSTORE POP DUP2 ADD SWAP1 PUSH2 0x2E3 SWAP2 SWAP1 PUSH2 0x6CC JUMP JUMPDEST SWAP1 POP PUSH2 0x3BA JUMP JUMPDEST PUSH1 0x6 PUSH0 SWAP1 SLOAD SWAP1 PUSH2 0x100 EXP SWAP1 DIV PUSH20 0xFFFFFFFFFFFFFFFFFFFFFFFFFFFFFFFFFFFFFFFF AND PUSH20 0xFFFFFFFFFFFFFFFFFFFFFFFFFFFFFFFFFFFFFFFF AND PUSH4 0x477BF177 CALLER PUSH1 0x5 DUP1 DUP1 SLOAD SWAP1 POP PUSH2 0x337 PUSH2 0x40E JUMP JUMPDEST PUSH2 0x341 SWAP2 SWAP1 PUSH2 0x477 JUMP JUMPDEST DUP2 SLOAD DUP2 LT PUSH2 0x352 JUMPI PUSH2 0x351 PUSH2 0x4A7 JUMP JUMPDEST JUMPDEST SWAP1 PUSH0 MSTORE PUSH1 0x20 PUSH0 KECCAK256 ADD PUSH1 0x40 MLOAD DUP4 PUSH4 0xFFFFFFFF AND PUSH1 0xE0 SHL DUP2 MSTORE PUSH1 0x4 ADD PUSH2 0x377 SWAP3 SWAP2 SWAP1 PUSH2 0x857 JUMP JUMPDEST PUSH1 0x20 PUSH1 0x40 MLOAD DUP1 DUP4 SUB DUP2 PUSH0 DUP8 GAS CALL ISZERO DUP1 ISZERO PUSH2 0x393 JUMPI RETURNDATASIZE PUSH0 DUP1 RETURNDATACOPY RETURNDATASIZE PUSH0 REVERT JUMPDEST POP POP POP POP PUSH1 0x40 MLOAD RETURNDATASIZE PUSH1 0x1F NOT PUSH1 0x1F DUP3 ADD AND DUP3 ADD DUP1 PUSH1 0x40 MSTORE POP DUP2 ADD SWAP1 PUSH2 0x3B7 SWAP2 SWAP1 PUSH2 0x6CC JUMP JUMPDEST SWAP1 POP JUMPDEST JUMPDEST JUMPDEST CALLER PUSH20 0xFFFFFFFFFFFFFFFFFFFFFFFFFFFFFFFFFFFFFFFF AND PUSH32 0x267422FA3A8C9525ACB851824D5F4579F8DE0442B971DEEF203719962E3B9D4A DUP3 PUSH1 0x40 MLOAD PUSH2 0x402 SWAP2 SWAP1 PUSH2 0x8A7 JUMP JUMPDEST PUSH1 0x40 MLOAD DUP1 SWAP2 SUB SWAP1 LOG2 POP POP JUMP JUMPDEST PUSH0 TIMESTAMP PREVRANDAO CALLER PUSH1 0x40 MLOAD PUSH1 0x20 ADD PUSH2 0x424 SWAP4 SWAP3 SWAP2 SWAP1 PUSH2 0x925 JUMP JUMPDEST PUSH1 0x40 MLOAD PUSH1 0x20 DUP2 DUP4 SUB SUB DUP2 MSTORE SWAP1 PUSH1 0x40 MSTORE DUP1 MLOAD SWAP1 PUSH1 0x20 ADD KECCAK256 PUSH0 SHR SWAP1 POP SWAP1 JUMP JUMPDEST PUSH0 DUP2 SWAP1 POP SWAP2 SWAP1 POP JUMP JUMPDEST PUSH32 0x4E487B7100000000000000000000000000000000000000000000000000000000 PUSH0 MSTORE PUSH1 0x12 PUSH1 0x4 MSTORE PUSH1 0x24 PUSH0 REVERT JUMPDEST PUSH0 PUSH2 0x481 DUP3 PUSH2 0x441 JUMP JUMPDEST SWAP2 POP PUSH2 0x48C DUP4 PUSH2 0x441 JUMP JUMPDEST SWAP3 POP DUP3 PUSH2 0x49C JUMPI PUSH2 0x49B PUSH2 0x44A JUMP JUMPDEST JUMPDEST DUP3 DUP3 MOD SWAP1 POP SWAP3 SWAP2 POP POP JUMP JUMPDEST PUSH32 0x4E487B7100000000000000000000000000000000000000000000000000000000 PUSH0 MSTORE PUSH1 0x32 PUSH1 0x4 MSTORE PUSH1 0x24 PUSH0 REVERT JUMPDEST PUSH0 PUSH20 0xFFFFFFFFFFFFFFFFFFFFFFFFFFFFFFFFFFFFFFFF DUP3 AND SWAP1 POP SWAP2 SWAP1 POP JUMP JUMPDEST PUSH0 PUSH2 0x4FD DUP3 PUSH2 0x4D4 JUMP JUMPDEST SWAP1 POP SWAP2 SWAP1 POP JUMP JUMPDEST PUSH2 0x50D DUP2 PUSH2 0x4F3 JUMP JUMPDEST DUP3 MSTORE POP POP JUMP JUMPDEST PUSH32 0x4E487B7100000000000000000000000000000000000000000000000000000000 PUSH0 MSTORE PUSH1 0x22 PUSH1 0x4 MSTORE PUSH1 0x24 PUSH0 REVERT JUMPDEST PUSH0 PUSH1 0x2 DUP3 DIV SWAP1 POP PUSH1 0x1 DUP3 AND DUP1 PUSH2 0x557 JUMPI PUSH1 0x7F DUP3 AND SWAP2 POP JUMPDEST PUSH1 0x20 DUP3 LT DUP2 SUB PUSH2 0x56A JUMPI PUSH2 0x569 PUSH2 0x513 JUMP JUMPDEST JUMPDEST POP SWAP2 SWAP1 POP JUMP JUMPDEST PUSH0 DUP3 DUP3 MSTORE PUSH1 0x20 DUP3 ADD SWAP1 POP SWAP3 SWAP2 POP POP JUMP JUMPDEST PUSH0 DUP2 SWAP1 POP DUP2 PUSH0 MSTORE PUSH1 0x20 PUSH0 KECCAK256 SWAP1 POP SWAP2 SWAP1 POP JUMP JUMPDEST PUSH0 DUP2 SLOAD PUSH2 0x59E DUP2 PUSH2 0x540 JUMP JUMPDEST PUSH2 0x5A8 DUP2 DUP7 PUSH2 0x570 JUMP JUMPDEST SWAP5 POP PUSH1 0x1 DUP3 AND PUSH0 DUP2 EQ PUSH2 0x5C2 JUMPI PUSH1 0x1 DUP2 EQ PUSH2 0x5D8 JUMPI PUSH2 0x60A JUMP JUMPDEST PUSH1 0xFF NOT DUP4 AND DUP7 MSTORE DUP2 ISZERO ISZERO PUSH1 0x20 MUL DUP7 ADD SWAP4 POP PUSH2 0x60A JUMP JUMPDEST PUSH2 0x5E1 DUP6 PUSH2 0x580 JUMP JUMPDEST PUSH0 JUMPDEST DUP4 DUP2 LT ISZERO PUSH2 0x602 JUMPI DUP2 SLOAD DUP2 DUP10 ADD MSTORE PUSH1 0x1 DUP3 ADD SWAP2 POP PUSH1 0x20 DUP2 ADD SWAP1 POP PUSH2 0x5E3 JUMP JUMPDEST DUP1 DUP9 ADD SWAP6 POP POP POP JUMPDEST POP POP POP SWAP3 SWAP2 POP POP JUMP JUMPDEST PUSH32 0x3530000000000000000000000000000000000000000000000000000000000000 PUSH0 DUP3 ADD MSTORE POP JUMP JUMPDEST PUSH0 PUSH2 0x647 PUSH1 0x2 DUP4 PUSH2 0x570 JUMP JUMPDEST SWAP2 POP PUSH2 0x652 DUP3 PUSH2 0x613 JUMP JUMPDEST PUSH1 0x20 DUP3 ADD SWAP1 POP SWAP2 SWAP1 POP JUMP JUMPDEST PUSH0 PUSH1 0x60 DUP3 ADD SWAP1 POP PUSH2 0x670 PUSH0 DUP4 ADD DUP6 PUSH2 0x504 JUMP JUMPDEST DUP2 DUP2 SUB PUSH1 0x20 DUP4 ADD MSTORE PUSH2 0x682 DUP2 DUP5 PUSH2 0x592 JUMP JUMPDEST SWAP1 POP DUP2 DUP2 SUB PUSH1 0x40 DUP4 ADD MSTORE PUSH2 0x695 DUP2 PUSH2 0x63B JUMP JUMPDEST SWAP1 POP SWAP4 SWAP3 POP POP POP JUMP JUMPDEST PUSH0 DUP1 REVERT JUMPDEST PUSH2 0x6AB DUP2 PUSH2 0x441 JUMP JUMPDEST DUP2 EQ PUSH2 0x6B5 JUMPI PUSH0 DUP1 REVERT JUMPDEST POP JUMP JUMPDEST PUSH0 DUP2 MLOAD SWAP1 POP PUSH2 0x6C6 DUP2 PUSH2 0x6A2 JUMP JUMPDEST SWAP3 SWAP2 POP POP JUMP JUMPDEST PUSH0 PUSH1 0x20 DUP3 DUP5 SUB SLT ISZERO PUSH2 0x6E1 JUMPI PUSH2 0x6E0 PUSH2 0x69E JUMP JUMPDEST JUMPDEST PUSH0 PUSH2 0x6EE DUP5 DUP3 DUP6 ADD PUSH2 0x6B8 JUMP JUMPDEST SWAP2 POP POP SWAP3 SWAP2 POP POP JUMP JUMPDEST PUSH32 0x3130300000000000000000000000000000000000000000000000000000000000 PUSH0 DUP3 ADD MSTORE POP JUMP JUMPDEST PUSH0 PUSH2 0x72B PUSH1 0x3 DUP4 PUSH2 0x570 JUMP JUMPDEST SWAP2 POP PUSH2 0x736 DUP3 PUSH2 0x6F7 JUMP JUMPDEST PUSH1 0x20 DUP3 ADD SWAP1 POP SWAP2 SWAP1 POP JUMP JUMPDEST PUSH0 PUSH1 0x60 DUP3 ADD SWAP1 POP PUSH2 0x754 PUSH0 DUP4 ADD DUP6 PUSH2 0x504 JUMP JUMPDEST DUP2 DUP2 SUB PUSH1 0x20 DUP4 ADD MSTORE PUSH2 0x766 DUP2 DUP5 PUSH2 0x592 JUMP JUMPDEST SWAP1 POP DUP2 DUP2 SUB PUSH1 0x40 DUP4 ADD MSTORE PUSH2 0x779 DUP2 PUSH2 0x71F JUMP JUMPDEST SWAP1 POP SWAP4 SWAP3 POP POP POP JUMP JUMPDEST PUSH32 0x3230300000000000000000000000000000000000000000000000000000000000 PUSH0 DUP3 ADD MSTORE POP JUMP JUMPDEST PUSH0 PUSH2 0x7B6 PUSH1 0x3 DUP4 PUSH2 0x570 JUMP JUMPDEST SWAP2 POP PUSH2 0x7C1 DUP3 PUSH2 0x782 JUMP JUMPDEST PUSH1 0x20 DUP3 ADD SWAP1 POP SWAP2 SWAP1 POP JUMP JUMPDEST PUSH0 PUSH1 0x60 DUP3 ADD SWAP1 POP PUSH2 0x7DF PUSH0 DUP4 ADD DUP6 PUSH2 0x504 JUMP JUMPDEST DUP2 DUP2 SUB PUSH1 0x20 DUP4 ADD MSTORE PUSH2 0x7F1 DUP2 DUP5 PUSH2 0x592 JUMP JUMPDEST SWAP1 POP DUP2 DUP2 SUB PUSH1 0x40 DUP4 ADD MSTORE PUSH2 0x804 DUP2 PUSH2 0x7AA JUMP JUMPDEST SWAP1 POP SWAP4 SWAP3 POP POP POP JUMP JUMPDEST PUSH32 0x3430300000000000000000000000000000000000000000000000000000000000 PUSH0 DUP3 ADD MSTORE POP JUMP JUMPDEST PUSH0 PUSH2 0x841 PUSH1 0x3 DUP4 PUSH2 0x570 JUMP JUMPDEST SWAP2 POP PUSH2 0x84C DUP3 PUSH2 0x80D JUMP JUMPDEST PUSH1 0x20 DUP3 ADD SWAP1 POP SWAP2 SWAP1 POP JUMP JUMPDEST PUSH0 PUSH1 0x60 DUP3 ADD SWAP1 POP PUSH2 0x86A PUSH0 DUP4 ADD DUP6 PUSH2 0x504 JUMP JUMPDEST DUP2 DUP2 SUB PUSH1 0x20 DUP4 ADD MSTORE PUSH2 0x87C DUP2 DUP5 PUSH2 0x592 JUMP JUMPDEST SWAP1 POP DUP2 DUP2 SUB PUSH1 0x40 DUP4 ADD MSTORE PUSH2 0x88F DUP2 PUSH2 0x835 JUMP JUMPDEST SWAP1 POP SWAP4 SWAP3 POP POP POP JUMP JUMPDEST PUSH2 0x8A1 DUP2 PUSH2 0x441 JUMP JUMPDEST DUP3 MSTORE POP POP JUMP JUMPDEST PUSH0 PUSH1 0x20 DUP3 ADD SWAP1 POP PUSH2 0x8BA PUSH0 DUP4 ADD DUP5 PUSH2 0x898 JUMP JUMPDEST SWAP3 SWAP2 POP POP JUMP JUMPDEST PUSH0 DUP2 SWAP1 POP SWAP2 SWAP1 POP JUMP JUMPDEST PUSH2 0x8DA PUSH2 0x8D5 DUP3 PUSH2 0x441 JUMP JUMPDEST PUSH2 0x8C0 JUMP JUMPDEST DUP3 MSTORE POP POP JUMP JUMPDEST PUSH0 DUP2 PUSH1 0x60 SHL SWAP1 POP SWAP2 SWAP1 POP JUMP JUMPDEST PUSH0 PUSH2 0x8F6 DUP3 PUSH2 0x8E0 JUMP JUMPDEST SWAP1 POP SWAP2 SWAP1 POP JUMP JUMPDEST PUSH0 PUSH2 0x907 DUP3 PUSH2 0x8EC JUMP JUMPDEST SWAP1 POP SWAP2 SWAP1 POP JUMP JUMPDEST PUSH2 0x91F PUSH2 0x91A DUP3 PUSH2 0x4F3 JUMP JUMPDEST PUSH2 0x8FD JUMP JUMPDEST DUP3 MSTORE POP POP JUMP JUMPDEST PUSH0 PUSH2 0x930 DUP3 DUP7 PUSH2 0x8C9 JUMP JUMPDEST PUSH1 0x20 DUP3 ADD SWAP2 POP PUSH2 0x940 DUP3 DUP6 PUSH2 0x8C9 JUMP JUMPDEST PUSH1 0x20 DUP3 ADD SWAP2 POP PUSH2 0x950 DUP3 DUP5 PUSH2 0x90E JUMP JUMPDEST PUSH1 0x14 DUP3 ADD SWAP2 POP DUP2 SWAP1 POP SWAP5 SWAP4 POP POP POP POP JUMP INVALID LOG2 PUSH5 0x6970667358 0x22 SLT KECCAK256 0xF7 0x24 0xBF 0xD0 0x27 0xD7 SWAP12 0xB5 MSIZE SWAP3 DUP15 SWAP3 0xFC PUSH17 0xA9225703EE5BFDE01C00C3D0E447D1A0E0 XOR PUSH5 0x736F6C6343 STOP ADDMOD EQ STOP CALLER "
				},
				"gasEstimates": {
					"creation": {
						"codeDepositCost": "491000",
						"executionCost": "infinite",
						"totalCost": "infinite"
					},
					"external": {
						"drawCard()": "infinite"
					},
					"internal": {
						"random()": "infinite"
					}
				},
				"methodIdentifiers": {
					"drawCard()": "2f5be23e"
				}
			},
			"storageLayout": {
				"storage": [
					{
						"astId": 331,
						"contract": "BuyBlindBoxNFT.sol:BlindBox",
						"label": "address1",
						"offset": 0,
						"slot": "0",
						"type": "t_address"
					},
					{
						"astId": 333,
						"contract": "BuyBlindBoxNFT.sol:BlindBox",
						"label": "address2",
						"offset": 0,
						"slot": "1",
						"type": "t_address"
					},
					{
						"astId": 347,
						"contract": "BuyBlindBoxNFT.sol:BlindBox",
						"label": "group1",
						"offset": 0,
						"slot": "2",
						"type": "t_array(t_string_storage)dyn_storage"
					},
					{
						"astId": 356,
						"contract": "BuyBlindBoxNFT.sol:BlindBox",
						"label": "group2",
						"offset": 0,
						"slot": "3",
						"type": "t_array(t_string_storage)dyn_storage"
					},
					{
						"astId": 364,
						"contract": "BuyBlindBoxNFT.sol:BlindBox",
						"label": "group3",
						"offset": 0,
						"slot": "4",
						"type": "t_array(t_string_storage)dyn_storage"
					},
					{
						"astId": 371,
						"contract": "BuyBlindBoxNFT.sol:BlindBox",
						"label": "group4",
						"offset": 0,
						"slot": "5",
						"type": "t_array(t_string_storage)dyn_storage"
					},
					{
						"astId": 374,
						"contract": "BuyBlindBoxNFT.sol:BlindBox",
						"label": "anotherContract",
						"offset": 0,
						"slot": "6",
						"type": "t_contract(AnotherContract)326"
					}
				],
				"types": {
					"t_address": {
						"encoding": "inplace",
						"label": "address",
						"numberOfBytes": "20"
					},
					"t_array(t_string_storage)dyn_storage": {
						"base": "t_string_storage",
						"encoding": "dynamic_array",
						"label": "string[]",
						"numberOfBytes": "32"
					},
					"t_contract(AnotherContract)326": {
						"encoding": "inplace",
						"label": "contract AnotherContract",
						"numberOfBytes": "20"
					},
					"t_string_storage": {
						"encoding": "bytes",
						"label": "string",
						"numberOfBytes": "32"
					}
				}
			},
			"userdoc": {
				"kind": "user",
				"methods": {},
				"version": 1
			}
		}
	}
}